SZRPT - PRINT SORTED LIST OF USERS STRAGE	MACRO 12.4-46.0 15:43 15-MAR-79 PAGE 1
SZRPT.MAC	 7-MAR-79 08:35

     1				TITLE SZRPT - PRINT SORTED LIST OF USERS STRAGE
     2
     3				;DEVICES
     4			000001	MFD==1
     5			000002	UFD==2
     6			000003	LPT==3
     7			000004	DUL==4
     8			000005	LUD==5
     9
    10			000006	FIL==6
    11				;ACS
    12			000001	NAM=1
    13			000002	EXT=2
    14			000003	SIZ=3
    15			000004	DAT=4
    16			000005	PTR=5		;ALL PIECES OF UFD ENTRY
    17
    18			000004	LNK2=4
    19			000051	T4=51
    20			000012	MFDBF=12
    21			000013	UFDBF=13
    22			000006	T1=6
    23			000007	T2=7
    24			000010	L1=10
    25			000011	L2=11
    26			000012	LS=12
    27			000013	T3=13
    28			000014	TOT=14
    29
    30			000015	LST=15	;FOR STORING INTO LIST STRUCTURE
    31			000016	LNK=16	;FOR JSP IN UFD READR
    32			000017	P=17
    33
    34		777777	777760	LICTAB==-20	;GETTAB FOR LICENSE
    35			000006	PRVTAB==6
    36		777777	777756	UNMTAB==-22
    37		777777	777757	UN1TAB==-21
    38
    39		777777	777770	SETLIC==-10	;CALLI FOR SET LICENSE
    40
    41			000145	DULHSH==^D101	;HASH FOR READING DUL
    42			001567	LUDHSH==^D887
    43			000004	LHUN==4
    44			000000	LPPN==0
    45			000002	LLINK==2
    46			000003	LPRV==3
    47			000001	LDST==1		;DISTRICT NUMBER
    48			000000	LPPN==0
    49			040000	TYMPRO==40000
    50			020000	ACTSUP==20000
    51
    52			100000	OPRLIC==100000	;OPERATOR LICENSE
    53			000012	RDFLIC==12
SZRPT - PRINT SORTED LIST OF USERS STRAGE	MACRO 12.4-46.0 15:43 15-MAR-79 PAGE 1-2
SZRPT.MAC	 7-MAR-79 08:35

    54
    55				ARRAY UFDBF,MFDBF,LPTBUF[3],PDL[40],BUF[200],ITOT,OTOT[3],CMPTB[20]
    56				ARRAY PATCH[100]
    57
    58
    59				EXTERNAL JOBFF,JOBREL
    60
    61				INTERNAL JOBVER
    62
    63			000137		JOBVER==137
    64	000137				LOC JOBVER
    65	000137	000007	000005	        7,,5
    66	000000'				RELOC
    67				MLON
    68
    69	000000'	047000	000000	STPT:	CALLI
    70	000001'	402000	003651'	        SETZM   PAG1FL#
    71	000002'	041240	000016		INIT LUD,16
    72	000003'	637163	000000		SIXBIT /SYS/
    73	000004'	000000	000000		0
    74	000005'	254000	000765'		JRST NODSK
    75	000006'	076240	002135'		LOOKUP LUD,LUDNAM
    76	000007'	254000	000771'		 JRST NOSYS
    77	000010'	200740	004042'		MOVE P,[IOWD 40,PDL]
    78	000011'	402000	003630'		SETZM DSTFLG#
    79	000012'	402000	003401'		SETZM ACSFLG#
    80	000013'	402000	003631'		SETZM FILSW#
    81	000014'	402000	004040'		SETZM USRFLG#
    82	000015'	561300	777760		HRROI T1,LICTAB
    83	000016'	047300	000041		GETTAB T1,
    84	000017'	201300	000000		 MOVEI T1,0	;SAY NO LICENSE
    85	000020'	202300	004031'		MOVEM T1,SVLIC#
    86				; THE NEXT LINE MODIFIED FROM TRNE TO ACCEPT FILE LICENSE.
    87	000021'	603300	100012		TLNE T1,OPRLIC!RDFLIC	;DOES HE HAVE OPER LIC??
    88	000022'	254000	000033'		JRST LICOK
    89	000023'	561340	000006		HRROI T2,PRVTAB
    90	000024'	047340	000041		GETTAB T2,0
    91	000025'	201340	000000		 MOVEI T2,0
    92	000026'	602340	020000		TRNE T2,ACTSUP
    93	000027'	254000	000642'		JRST SETACS
    94	000030'	200300	004031'	NOLIC:	MOVE T1,SVLIC
    95	000031'	507000	000006		HRLS T1		;DO NOT USE THE LICENSE WE HAVE
    96	000032'	047300	777770		CALLI T1,SETLIC
    97	000033'	041100	000017	LICOK:	INIT UFD,17
    98	000034'	446353	000000		SIXBIT /DSK/
    99	000035'	000000	000013		UFDBF
   100	000036'	254000	000765'		JRST NODSK
   101	000037'	041040	000017		INIT MFD,17
   102	000040'	446353	000000		SIXBIT /DSK/
   103	000041'	000000	000012		MFDBF
   104	000042'	254000	000765'		JRST NODSK
   105	000043'	041200	000016		INIT DUL,16
   106	000044'	637163	000000		SIXBIT /SYS/
SZRPT - PRINT SORTED LIST OF USERS STRAGE	MACRO 12.4-46.0 15:43 15-MAR-79 PAGE 1-3
SZRPT.MAC	 7-MAR-79 08:35

   107	000045'	000000	000000		0
   108	000046'	254000	000765'		JRST NODSK
   109	000047'	064100	000002		INBUF UFD,2
   110	000050'	064040	000002		INBUF MFD,2
   111	000051'	041140	000000		INIT LPT,0	;NOW FOR OUTPUT
   112	000052'	646471	000000		SIXBIT /TTY/	;MAKE IT TTY FOR NOW
   113	000053'	003641'	000000		XWD LPTBUF,0
   114	000054'	254000	000767'		JRST NOOUT
   115	000055'	065140	000002		OUTBUF LPT,2
   116	000056'	077140	000773'		ENTER LPT,ONAM
   117	000057'	254000	000767'		 JRST NOOUT	;LOSE BIG
   118	000060'	076200	002127'		LOOKUP DUL,DULNAM
   119	000061'	254000	000771'		 JRST NOSYS	;CAN NOT GET SYSTEM FILES
   120	000062'	076040	000777'		LOOKUP MFD,MFDNM
   121	000063'	254000	000771'		 JRST NOSYS
   122	000064'	402000	004016'	TTGNC:  SETZM   SEPFLG#         ;ZERO SEPARATION FLAG
   123	000065'	402000	004041'		SETZM ZRLFLG#
   124	000066'	335000	003401'		SKIPGE ACSFLG
   125	000067'	254000	000120'		JRST GETSRT
   126				        OUTSTR  [ASCIZ /
   127	000070'	051140	004043'	ONE PAGE OUTPUT ? /]
   128	000071'	051200	000010	        INCHWL  L1
   129	000072'	302400	000131	        CAIE    L1,"Y"
   130	000073'	476000	003651'	         SETOM  PAG1FL
   131	000074'	051100	000010	INA:    INCHRS  L1
   132	000075'	254000	000100'	         JRST   GOA
   133	000076'	302400	000012	        CAIE    L1,12
   134	000077'	254000	000074'	         JRST   INA
   135				GOA:	OUTSTR [ASCIZ /
   136	000100'	051140	004050'	INHOUSE SEPERATED? /]
   137	000101'	051200	000010		INCHWL L1
   138	000102'	302400	000171		CAIE L1,"y"
   139	000103'	306400	000131		CAIN L1,"Y"
   140	000104'	476000	004016'		SETOM SEPFLG
   141	000105'	302400	000157		CAIE L1,"o"
   142	000106'	306400	000117		CAIN L1,"O"
   143	000107'	260740	002156'		PUSHJ P,FLGOUT
   144	000110'	302400	000151		CAIE L1,"i"
   145	000111'	306400	000111		CAIN L1,"I"
   146	000112'	260740	002153'		PUSHJ P,FLGIN
   147	000113'	302400	000156	        CAIE    L1,156          ;LOWER CASE N
   148	000114'	306400	000116	        CAIN    L1,"N"          ;NO SEPARATION
   149	000115'	254000	000120'	        JRST    GETSRT          ;START SORT
   150	000116'	260740	002204'	        PUSHJ   P,CHRCHK        ;NO FOUL CHARACTERS ALLOW
   151	000117'	260740	000633'	        PUSHJ   P,WTLN
   152				GETSRT:	OUTSTR [ASCIZ /
   153	000120'	051140	004055'	SORT BY? /]
   154	000121'	205640	777761		MOVSI LST,-17	;POINTER TO COMPARE TABLE
   155	000122'	402000	003644'		SETZM NEDDST#
   156	000123'	051200	000010		INCHWL L1
   157	000124'	201300	002412'		MOVEI T1,CPOPJ
   158	000125'	202300	003400'		MOVEM T1,ACGFLG#
   159	000126'	202300	003627'		MOVEM T1,DSGFLG#
SZRPT - PRINT SORTED LIST OF USERS STRAGE	MACRO 12.4-46.0 15:43 15-MAR-79 PAGE 1-4
SZRPT.MAC	 7-MAR-79 08:35

   160	000127'	202300	004035'		MOVEM T1,USGFLG#
   161	000130'	260740	000175'	SORTSC:	PUSHJ P,SCANNM
   162	000131'	254000	000657'		JRST ENDNM
   163	000132'	205300	777767		MOVSI T1,-NAMLN
   164	000133'	312346	000144'	NMLP:	CAME T2,NMTB(T1)
   165	000134'	253300	000133'		AOBJN T1,NMLP
   166	000135'	325300	000166'		JUMPGE T1,NONAM
   167	000136'	256006	000155'		XCT SRTTB(T1)
   168	000137'	202315	003603'		MOVEM T1,CMPTB(LST)
   169	000140'	253640	000130'		AOBJN LST,SORTSC
   170	000141'	260740	000633'		PUSHJ P,WTLN
   171					OUTSTR [ASCIZ /
   172	000142'	051140	004060'	TOO MANY SORT OPTIONS/]
   173	000143'	254000	000120'		JRST GETSRT
   174
   175	000144'	635172	450000	NMTB:	<SIXBIT /SIZE/>
   176	000145'	465154	456300		<SIXBIT /FILES/>
   177	000146'	445163	646251		<SIXBIT /DISTRICT/>
   178	000147'	414343	576556		<SIXBIT /ACCOUNT/>
   179	000150'	656345	620000		<SIXBIT /USER/>
   180	000151'	566555	445163		<SIXBIT /NUMDISTRICT/>
   181	000152'	566555	414343		<SIXBIT /NUMACCOUNT/>
   182	000153'	564155	454143		<SIXBIT /NAMEACCOUNT/>
   183	000154'	564155	456563		<SIXBIT /NAMEUSER/>
   184			000011	NAMLN==.-NMTB
   185
   186	000155'	201300	002420'	SRTTB:	MOVEI T1,BYSIZ
   187	000156'	201300	002450'		MOVEI T1,BYFILE
   188	000157'	260740	000637'		PUSHJ P,SETDST
   189	000160'	201300	002431'		MOVEI T1,BYACNT
   190	000161'	201300	002457'		MOVEI T1,BYUSR
   191	000162'	254000	000215'		JRST NUMDST
   192	000163'	254000	000223'		JRST NUMACC
   193	000164'	254000	000230'		JRST NAMACC
   194	000165'	254000	000562'		JRST NAMUSR
   195
   196	000166'	260740	000633'	NONAM:	PUSHJ P,WTLN
   197	000167'	335000	003401'	        SKIPGE  ACSFLG          ;LICENSE?
   198	000170'	254000	000173'	        JRST    NONNAM          ;PRINT WHAT NO LIC CAN HAVE
   199					OUTSTR [ASCIZ /
   200				UNRECOGNIZABLE SORT OPTION.
   201				OPTIONS ARE:
   202				 NUMDISTRICT
   203				 NUMACCOUNT
   204				 NAMEACCOUNT
   205				 NAMEUSER
   206				 SIZE
   207				 FILES
   208				 DISTRICT
   209				 ACCOUNT
   210	000171'	051140	004065'	 USER/]
   211	000172'	254000	000120'		JRST GETSRT
   212
SZRPT - PRINT SORTED LIST OF USERS STRAGE	MACRO 12.4-46.0 15:43 15-MAR-79 PAGE 1-5
SZRPT.MAC	 7-MAR-79 08:35

   213
   214				NONNAM: OUTSTR  [ASCIZ/
   215				UNRECOGNIZABLE SORT OPTION.
   216				OPTIONS ARE:
   217				SIZE
   218				FILES
   219				DISTRICT
   220				ACCOUNT
   221	000173'	051140	004121'	USER/]
   222	000174'	254000	000120'	        JRST    GETSRT          ;TRY AGAIN
   223	000175'	201340	000000	SCANNM:	MOVEI T2,0
   224	000176'	200300	004142'		MOVE T1,[POINT 6,T2]
   225	000177'	305400	000040	SCNSTR:	CAIGE L1,40
   226	000200'	263740	000000		POPJ P,
   227	000201'	260740	000621'		PUSHJ P,CKLET
   228	000202'	254000	000205'		JRST ISLET
   229	000203'	051200	000010		INCHWL L1
   230	000204'	254000	000177'		JRST SCNSTR
   231	000205'	275400	000040	ISLET:	SUBI L1,40
   232	000206'	603300	770000		TLNE T1,770000
   233	000207'	136400	000006		IDPB L1,T1
   234	000210'	051200	000010		INCHWL L1
   235	000211'	260740	000621'		PUSHJ P,CKLET
   236	000212'	254000	000205'		JRST ISLET
   237	000213'	350017	000000		AOS (P)
   238	000214'	263740	000000		POPJ P,
   239	000215'	335000	003401'	NUMDST:	SKIPGE ACSFLG
   240	000216'	254000	000166'		JRST NONAM
   241	000217'	476000	003644'		SETOM NEDDST
   242	000220'	201300	000467'		MOVEI T1,GETDNU
   243	000221'	202300	003627'		MOVEM T1,DSGFLG
   244	000222'	254000	000130'		JRST SORTSC
   245
   246	000223'	335000	003401'	NUMACC:	SKIPGE ACSFLG
   247	000224'	254000	000166'		JRST NONAM
   248	000225'	201300	000451'		MOVEI T1,GETANU
   249	000226'	202300	003400'		MOVEM T1,ACGFLG
   250	000227'	254000	000130'		JRST SORTSC
   251
   252	000230'	335000	003401'	NAMACC:	SKIPGE ACSFLG
   253	000231'	254000	000166'		JRST NONAM
   254	000232'	201300	000505'		MOVEI T1,GETANM
   255	000233'	202300	003400'		MOVEM T1,ACGFLG
   256	000234'	254000	000130'		JRST SORTSC
   257
   258	000235'	550100	000000*	SETFLG:	HRRZ EXT,JOBFF
   259	000236'	263740	000000		POPJ P,
   260
   261	000237'	261740	000010	DEPFLG:	PUSH P,L1
   262	000240'	550400	000235*		HRRZ L1,JOBFF
   263	000241'	317400	000000*		CAMG L1,JOBREL
   264	000242'	254000	000246'		JRST DEPFL1
   265	000243'	435400	001777		IORI L1,1777
SZRPT - PRINT SORTED LIST OF USERS STRAGE	MACRO 12.4-46.0 15:43 15-MAR-79 PAGE 1-6
SZRPT.MAC	 7-MAR-79 08:35

   266	000244'	047400	000011		CORE L1,
   267	000245'	254000	002231'		 JRST NOCR
   268	000246'	262740	000010	DEPFL1:	POP P,L1
   269	000247'	202320	000240*		MOVEM T1,@JOBFF
   270	000250'	350000	000247*		AOS JOBFF
   271	000251'	270100	004143'		ADD EXT,[XWD -1,0]
   272	000252'	263740	000000		POPJ P,
   273
   274	000253'	302400	000040	SKIPSP:	CAIE L1," "
   275	000254'	263740	000000		POPJ P,
   276	000255'	260740	000257'	SKPSP1:	PUSHJ P,GETCHR
   277	000256'	254000	000253'		JRST SKIPSP
   278
   279	000257'	332000	003631'	GETCHR:	SKIPE FILSW
   280	000260'	254000	000265'		JRST GETFIL
   281	000261'	051000	000010		INCHRW L1
   282	000262'	306400	000015		CAIN L1,15
   283	000263'	254000	000261'		JRST .-2
   284	000264'	263740	000000		POPJ P,
   285	000265'	336400	004013'	GETFIL:	SKIPN L1,SAVCHR
   286	000266'	254000	000271'		JRST GETFL1
   287	000267'	402000	004013'		SETZM SAVCHR
   288	000270'	263740	000000		POPJ P,
   289
   290	000271'	260740	000304'	GETFL1:	PUSHJ P,GETFL2
   291	000272'	321400	000302'		JUMPL L1,GETFL3
   292	000273'	302400	000012		CAIE L1,12
   293	000274'	263740	000000		POPJ P,
   294	000275'	260740	000304'		PUSHJ P,GETFL2
   295	000276'	321400	000302'		JUMPL L1,GETFL3
   296	000277'	202400	004013'		MOVEM L1,SAVCHR
   297	000300'	201400	000073		MOVEI L1,";"
   298	000301'	263740	000000		POPJ P,
   299
   300	000302'	201400	000012	GETFL3:	MOVEI L1,12
   301	000303'	263740	000000		POPJ P,
   302
   303	000304'	371000	003625'	GETFL2:	SOSL DIBUF+2
   304	000305'	254000	000313'		JRST GETFL4
   305	000306'	066300	000000		INPUT FIL,0
   306	000307'	061300	020000		STATO FIL,20000
   307	000310'	254000	000313'		JRST GETFL4
   308	000311'	211400	000001		MOVNI L1,1
   309	000312'	263740	000000		POPJ P,
   310
   311	000313'	133000	003624'	GETFL4:	IBP DIBUF+1
   312	000314'	200420	003624'		MOVE L1,@DIBUF+1
   313	000315'	602400	000001		TRNE L1,1
   314	000316'	254000	000324'		JRST GETFL5
   315	000317'	135400	003624'		LDB L1,DIBUF+1
   316	000320'	302400	000015		CAIE L1,15
   317	000321'	306400	000000		CAIN L1,0
   318	000322'	254000	000304'		JRST GETFL2
SZRPT - PRINT SORTED LIST OF USERS STRAGE	MACRO 12.4-46.0 15:43 15-MAR-79 PAGE 1-7
SZRPT.MAC	 7-MAR-79 08:35

   319	000323'	263740	000000		POPJ P,
   320
   321	000324'	211400	000005	GETFL5:	MOVNI L1,5
   322	000325'	272400	003625'		ADDM L1,DIBUF+2
   323	000326'	350000	003624'		AOS DIBUF+1
   324	000327'	254000	000304'		JRST GETFL2
   325	000330'	260740	000255'	LOKFIL:	PUSHJ P,SKPSP1
   326	000331'	302400	000100		CAIE L1,"@"
   327	000332'	263740	000000		POPJ P,
   328	000333'	402000	000412'	LOKFL1:	SETZM FNAM+1
   329	000334'	402000	000413'		SETZM FNAM+2
   330	000335'	402000	000414'		SETZM FNAM+3
   331	000336'	260740	000255'		PUSHJ P,SKPSP1
   332	000337'	302400	000050		CAIE L1,"("
   333	000340'	254000	000355'		JRST NOUSR
   334	000341'	260740	000255'		PUSHJ P,SKPSP1
   335	000342'	201440	000014		MOVEI L2,^D12
   336	000343'	260740	000423'		PUSHJ P,RDNAM
   337	000344'	202300	004036'		MOVEM N,USR
   338	000345'	202340	004037'		MOVEM N1,USR+1
   339	000346'	201440	004036'		MOVEI L2,USR
   340	000347'	202440	000412'		MOVEM L2,FNAM+1
   341	000350'	302400	000051		CAIE L1,")"
   342	000351'	260740	000253'		PUSHJ P,SKIPSP
   343	000352'	302400	000051		CAIE L1,")"
   344	000353'	254000	000415'		JRST REFNM
   345	000354'	260740	000255'		PUSHJ P,SKPSP1
   346	000355'	201440	000006	NOUSR:	MOVEI L2,^D6
   347	000356'	260740	000423'		PUSHJ P,RDNAM
   348	000357'	202300	000413'		MOVEM N,FNAM+2
   349	000360'	306400	000012		CAIN L1,12
   350	000361'	254000	000372'		JRST NMDON
   351	000362'	302400	000056		CAIE L1,"."
   352	000363'	260740	000253'		PUSHJ P,SKIPSP
   353	000364'	302400	000056		CAIE L1,"."
   354	000365'	254000	000372'		JRST NMDON
   355	000366'	260740	000255'		PUSHJ P,SKPSP1
   356	000367'	201440	000003		MOVEI L2,3
   357	000370'	260740	000423'		PUSHJ P,RDNAM
   358	000371'	202300	000414'		MOVEM N,FNAM+3
   359	000372'	260740	000633'	NMDON:	PUSHJ P,WTLN
   360	000373'	041300	000000		INIT FIL,0
   361	000374'	446353	000000		SIXBIT /DSK/
   362	000375'	000000	003623'		DIBUF
   363	000376'	254000	000765'		JRST NODSK
   364	000377'	076300	000411'		LOOKUP FIL,FNAM
   365	000400'	254000	000417'		 JRST NOFIL
   366	000401'	064300	000001		INBUF FIL,1
   367	000402'	476000	003631'		SETOM FILSW
   368	000403'	402000	004013'		SETZM SAVCHR#
   369	000404'	260740	000257'		PUSHJ P,GETCHR
   370	000405'	262740	000006		POP P,T1
   371	000406'	260746	000000		PUSHJ P,(T1)
SZRPT - PRINT SORTED LIST OF USERS STRAGE	MACRO 12.4-46.0 15:43 15-MAR-79 PAGE 1-8
SZRPT.MAC	 7-MAR-79 08:35

   372	000407'	402000	003631'		SETZM FILSW
   373	000410'	263740	000000		POPJ P,
   374
   375	000411'	000000	000003	FNAM:	EXP 3,0,0,0
	000412'	000000	000000
	000413'	000000	000000
	000414'	000000	000000
   376				ARRAY DIBUF[3],USR[2]
   377
   378				REFNM:	OUTSTR [ASCIZ /
   379	000415'	051140	004144'	BAD FILE NAME/]
   380	000416'	334000	000000		SKIPA
   381				NOFIL:	OUTSTR [ASCIZ /
   382	000417'	051140	004150'	CAN NOT FIND FILE/]
   383	000420'	071300	000000		RELEASE FIL,0
   384					OUTSTR [ASCIZ /
   385	000421'	051140	004154'	FILE NAME /]
   386	000422'	254000	000333'		JRST LOKFL1
   387	000423'	403300	000007	RDNAM:	SETZB N,N1
   388	000424'	200040	004157'		MOVE NAM,[POINT 6,N]
   389	000425'	334000	000000		SKIPA
   390	000426'	260740	000257'	RDNM1:	PUSHJ P,GETCHR
   391	000427'	302400	000051		CAIE L1,")"
   392	000430'	302400	000073		CAIE L1,";"
   393	000431'	305400	000040		CAIGE L1,40
   394	000432'	263740	000000		POPJ P,
   395	000433'	303400	000137		CAILE L1,137
   396	000434'	275400	000040		SUBI L1,40
   397	000435'	361440	000426'		SOJL L2,RDNM1
   398	000436'	275400	000040		SUBI L1,40
   399	000437'	136400	000001		IDPB L1,NAM
   400	000440'	254000	000426'		JRST RDNM1
   401
   402	000441'	634300	000006	RDNUM:	TDZA T1,T1
   403	000442'	260740	000257'	RDNUM1:	PUSHJ P,GETCHR
   404	000443'	305411	000060		CAIGE L1,"0"(L2)
   405	000444'	305400	000060		CAIGE L1,"0"
   406	000445'	263740	000000		POPJ P,
   407	000446'	221311	000000		IMULI T1,(L2)
   408	000447'	271310	777720		ADDI T1,-"0"(L1)
   409	000450'	254000	000442'		JRST RDNUM1
   410
   411				GETANU:	OUTSTR [ASCIZ /
   412	000451'	051140	004160'	ACCOUNT NUMBER? /]
   413	000452'	260740	000330'		PUSHJ P,LOKFIL
   414	000453'	260740	000235'		PUSHJ P,SETFLG
   415	000454'	260740	000253'		PUSHJ P,SKIPSP
   416	000455'	334000	000000		SKIPA
   417	000456'	260740	000257'	GTANU1:	PUSHJ P,GETCHR
   418	000457'	201440	000010		MOVEI L2,10
   419	000460'	260740	000441'		PUSHJ P,RDNUM
   420	000461'	260740	000237'		PUSHJ P,DEPFLG
   421	000462'	260740	000253'		PUSHJ P,SKIPSP
SZRPT - PRINT SORTED LIST OF USERS STRAGE	MACRO 12.4-46.0 15:43 15-MAR-79 PAGE 1-9
SZRPT.MAC	 7-MAR-79 08:35

   422	000463'	306400	000073		CAIN L1,";"
   423	000464'	254000	000456'		JRST GTANU1
   424	000465'	202100	003401'		MOVEM EXT,ACSFLG
   425	000466'	254000	000633'		JRST WTLN
      427				GETDNU:	OUTSTR [ASCIZ /
   428	000467'	051140	004164'	DISTRICT NUMBER? /]
   429	000470'	260740	000330'		PUSHJ P,LOKFIL
   430	000471'	260740	000235'		PUSHJ P,SETFLG
   431	000472'	260740	000253'		PUSHJ P,SKIPSP
   432	000473'	334000	000000		SKIPA
   433	000474'	260740	000257'	GTDNU1:	PUSHJ P,GETCHR
   434	000475'	201440	000012		MOVEI L2,^D10
   435	000476'	260740	000441'		PUSHJ P,RDNUM
   436	000477'	260740	000237'		PUSHJ P,DEPFLG
   437	000500'	260740	000253'		PUSHJ P,SKIPSP
   438	000501'	306400	000073		CAIN L1,";"
   439	000502'	254000	000474'		JRST GTDNU1
   440	000503'	202100	003630'		MOVEM EXT,DSTFLG
   441	000504'	254000	000633'		JRST WTLN
   442				GETANM:	OUTSTR [ASCIZ /
   443	000505'	051140	004170'	NAME OF USER IN ACCOUNT? /]
   444	000506'	260740	000330'		PUSHJ P,LOKFIL
   445	000507'	260740	000235'		PUSHJ P,SETFLG
   446	000510'	260740	000253'		PUSHJ P,SKIPSP
   447	000511'	334000	000000		SKIPA
   448	000512'	260740	000257'	GTANM1:	PUSHJ P,GETCHR
   449	000513'	201440	000014		MOVEI L2,^D12
   450	000514'	260740	000423'		PUSHJ P,RDNAM
   451	000515'	260740	002272'		PUSHJ P,CHKLUD
   452	000516'	254000	000540'		 JRST GTANLD
   453	000517'	261750	003403'		PUSH P,BUF+LPPN(WD)
   454	000520'	205440	004017'		MOVSI BP,SVAC
   455	000521'	251440	000011		BLT BP,BP
   456	000522'	262740	000006		POP P,T1
   457	000523'	557000	000006		HLRZS T1
   458	000524'	260740	000237'		PUSHJ P,DEPFLG
   459	000525'	260740	000253'	GTANM2:	PUSHJ P,SKIPSP
   460	000526'	306400	000073		CAIN L1,";"
   461	000527'	254000	000512'		JRST GTANM1
   462	000530'	202100	003401'		MOVEM EXT,ACSFLG
   463	000531'	321100	000633'		JUMPL EXT,WTLN
   464	000532'	336000	003631'		SKIPN FILSW
   465	000533'	254000	000505'		JRST GETANM
   466	000534'	402000	003631'		SETZM FILSW
   467	000535'	071300	000000		RELEASE FIL,0
   468	000536'	262740	000006		POP P,T1
   469	000537'	254000	000505'		JRST GETANM
   470
   471	000540'	260740	000542'	GTANLD:	PUSHJ P,NOLUD
   472	000541'	254000	000525'		JRST GTANM2
   473
   474				NOLUD:	OUTSTR [ASCIZ /
SZRPT - PRINT SORTED LIST OF USERS STRAGE	MACRO 12.4-46.0 15:43 15-MAR-79 PAGE 1-10
SZRPT.MAC	 7-MAR-79 08:35

   475	000542'	051140	004176'	USER /]
   476	000543'	205440	004017'		MOVSI BP,SVAC
   477	000544'	251440	000011		BLT BP,BP
   478	000545'	200040	004157'		MOVE NAM,[POINT 6,N]
   479	000546'	201440	000014		MOVEI L2,^D12
   480	000547'	602340	000077	NOLUD2:	TRNE N1,77
   481	000550'	254000	000554'		JRST NOLUD1
   482	000551'	246300	777772		LSHC N,-6
   483	000552'	133000	000001		IBP NAM
   484	000553'	365440	000547'		SOJGE L2,NOLUD2
   485	000554'	134540	000001	NOLUD1:	ILDB T3,NAM
   486	000555'	271540	000040		ADDI T3," "
   487	000556'	051040	000013		OUTCHR T3
   488	000557'	367440	000554'		SOJG L2,NOLUD1
   489					OUTSTR [ASCIZ / NOT VALID
   490	000560'	051140	004200'	/]
   491	000561'	263740	000000		POPJ P,
   492	000562'	201300	000565'	NAMUSR:	MOVEI T1,GETUSN
   493	000563'	202300	004035'		MOVEM T1,USGFLG
   494	000564'	254000	000130'		JRST SORTSC
   495
   496				GETUSN:	OUTSTR [ASCIZ /
   497	000565'	051140	004203'	USER NAME? /]
   498	000566'	260740	000330'		PUSHJ P,LOKFIL
   499	000567'	260740	000235'		PUSHJ P,SETFLG
   500	000570'	260740	000253'		PUSHJ P,SKIPSP
   501	000571'	334000	000000		SKIPA
   502	000572'	260740	000257'	GTUNM1:	PUSHJ P,GETCHR
   503	000573'	201440	000014		MOVEI L2,^D12
   504	000574'	260740	000423'		PUSHJ P,RDNAM
   505	000575'	260740	002272'		PUSHJ P,CHKLUD
   506	000576'	254000	000617'		 JRST GTUSLD
   507	000577'	261750	003403'		PUSH P,BUF+LPPN(WD)
   508	000600'	205440	004017'		MOVSI BP,SVAC
   509	000601'	251440	000011		BLT BP,BP
   510	000602'	262740	000006		POP P,T1
   511	000603'	260740	000237'		PUSHJ P,DEPFLG
   512	000604'	260740	000253'	GTUNM2:	PUSHJ P,SKIPSP
   513	000605'	306400	000073		CAIN L1,";"
   514	000606'	254000	000572'		JRST GTUNM1
   515	000607'	202100	004040'		MOVEM EXT,USRFLG
   516	000610'	321100	000633'		JUMPL EXT,WTLN
   517	000611'	336000	003631'		SKIPN FILSW
   518	000612'	254000	000565'		JRST GETUSN
   519	000613'	402000	003631'		SETZM FILSW
   520	000614'	071300	000000		RELEASE FIL,0
   521	000615'	262740	000006		POP P,T1
   522	000616'	254000	000565'		JRST GETUSN
   523
   524	000617'	260740	000542'	GTUSLD:	PUSHJ P,NOLUD
   525	000620'	254000	000604'		JRST GTUNM2
   526	000621'	303400	000137	CKLET:	CAILE L1,137
   527	000622'	275400	000040		SUBI L1,40
SZRPT - PRINT SORTED LIST OF USERS STRAGE	MACRO 12.4-46.0 15:43 15-MAR-79 PAGE 1-11
SZRPT.MAC	 7-MAR-79 08:35

   528	000623'	301400	000101		CAIL L1,"A"
   529	000624'	303400	000132		CAILE L1,"Z"
   530	000625'	334000	000000		SKIPA
   531	000626'	263740	000000		POPJ P,
   532	000627'	301400	000060		CAIL L1,"0"
   533	000630'	303400	000071		CAILE L1,"9"
   534	000631'	350017	000000		AOS (P)
   535	000632'	263740	000000		POPJ P,
   536
   537	000633'	306400	000012	WTLN:	CAIN L1,12
   538	000634'	263740	000000		POPJ P,
   539	000635'	260740	000257'		PUSHJ P,GETCHR
   540	000636'	254000	000633'		JRST WTLN
   541
   542	000637'	476000	003644'	SETDST:	SETOM NEDDST
   543	000640'	201300	002441'		MOVEI T1,BYDIST
   544	000641'	263740	000000		POPJ P,
   545
   546
   547	000642'	561300	777756	SETACS:	HRROI N,UNMTAB
   548	000643'	047300	000041		GETTAB N,
   549	000644'	201300	000000		 MOVEI N,0
   550	000645'	561340	777757		HRROI N1,UN1TAB
   551	000646'	047340	000041		GETTAB N1,
   552	000647'	201340	000000		 MOVEI N1,0
   553	000650'	260740	002272'		PUSHJ P,CHKLUD
   554	000651'	254000	000030'		 JRST NOLIC
   555	000652'	554310	003403'		HLRZ T1,BUF+LPPN(WD)
   556	000653'	260740	000235'		PUSHJ P,SETFLG
   557	000654'	260740	000237'		PUSHJ P,DEPFLG
   558	000655'	202100	003401'		MOVEM EXT,ACSFLG
   559	000656'	254000	000033'		JRST LICOK
   560	000657'	260740	000633'	ENDNM:	PUSHJ P,WTLN
   561	000660'	201300	002420'		MOVEI T1,BYSIZ
   562	000661'	202315	003603'		MOVEM T1,CMPTB(LST)
   563	000662'	402015	003604'		SETZM CMPTB+1(LST)
   564	000663'	260760	003627'		PUSHJ P,@DSGFLG
   565	000664'	260760	003400'		PUSHJ P,@ACGFLG
   566	000665'	260760	004035'		PUSHJ P,@USGFLG
   567	000666'	402000	003632'		SETZM ILIST#
   568	000667'	402000	003645'		SETZM OLIST#
   569	000670'	402000	003634'		SETZM ITOT
   570	000671'	402000	003646'		SETZM OTOT
   571	000672'	402000	003636'		SETZM ITOT+2
   572	000673'	402000	003650'		SETZM OTOT+2		;NUMBER OF FILES
   573	000674'	260740	003272'		PUSHJ P,PRDATE
   574	000675'	260740	003227'		PUSHJ P,CRLF
   575	000676'	201200	000735'	MFLP:   MOVEI LNK2,GETMFD       ;SET UP TO USE GETMFD SUBROUTINE.
   576	000677'	260740	000725'	MFLP1:  PUSHJ P,GETNAM          ;GET A NAME FROM MFD.
   577	000700'	254000	002514'	         JRST DONE              ;REACHED EOF ON MFD - ALL DONE.
   578	000701'	312100	004206'	        CAME EXT,[SIXBIT /UFD/] ;IS THIS A UFD NAME?
   579	000702'	254000	000677'	        JRST MFLP1              ;NOT A UFD - TRY AGAIN.
   580	000703'	202040	001415'	        MOVEM NAM,UFDLC         ;SAVE UFD NAME FOR LOOKUP.
SZRPT - PRINT SORTED LIST OF USERS STRAGE	MACRO 12.4-46.0 15:43 15-MAR-79 PAGE 1-12
SZRPT.MAC	 7-MAR-79 08:35

   581	000704'	076100	001413'	        LOOKUP UFD,UFDNM       ;OPEN THE UFD.
   582	000705'	254000	000677'	         JRST MFLP1             ;NOT SUCCESSFUL - TRY AGAIN.
   583	000706'	260740	002221'	        PUSHJ P,SETLST          ;SET UP LIST STRUCTURE FOR THIS USER
   584	000707'	254000	000677'	        JRST MFLP1
   585	000710'	201200	000751'	UFLP:   MOVEI LNK2,GETUFD       ;SET UP TO USE GETUFD SUBROUTINE.
   586	000711'	402000	001424'	        SETZM   STRTNM          ;RESET STARTING NAME
   587	000712'	402000	001425'	        SETZM   STRTEX          ;EXTENSION FOR UFD SEARCH.
   588	000713'	402000	001423'	        SETZM   MONWD           ;RESET MONITOR WORD.
   589	000714'	260740	000725'	UFLP1:  PUSHJ P,GETNAM          ;READ A NAME.
   590	000715'	254000	000676'	         JRST MFLP              ;REACHED EOF - READ NEXT MFD ENTRY.
   591	000716'	200300	000003	        MOVE    T1,SIZ          ;GET FILE SIZE
   592	000717'	231300	000004	        IDIVI   T1,4    ; MAKE PAGES.
   593	000720'	272315	000001	        ADDM    T1,1(LST)       ;INCREASE SAVED SIZE FOR USER
   594	000721'	350015	000006	        AOS     6(LST)
   595	000722'	272314	000000	        ADDM    T1,(TOT)        ;AND FOR ALL USERS
   596	000723'	350014	000002	        AOS     2(TOT)
   597	000724'	254000	000714'	        JRST UFLP1
   598				;  THE GETNAM SUBROUTINE READS A FILE NAME AND EXTENSION FROM
   599				;  THE MFD OR A UFD.  BEFORE CALLING GETNAM, THE ADDRESS OF EITHER
   600				;  THE ROUTINE GETMFD OR GETUFD IS PUT INTO LNK2.
   601
   602	000725'	265704	000000	GETNAM: JSP LNK,(LNK2)
   603	000726'	200040	000003	        MOVE NAM,SIZ
   604	000727'	202040	003633'	        MOVEM NAM,INNAM#
   605	000730'	265704	000000	        JSP LNK,(LNK2)
   606	000731'	512140	000002	        HLLZM SIZ,EXT
   607	000732'	265704	000000	        JSP     LNK,(LNK2)
   608	000733'	350017	000000	        AOS (P)
   609	000734'	263740	000000	        POPJ P,
   610
   611	000735'	373000	001012'	GETMFD: SOSLE   MFDCNT          ;BUFFER EMPTY?
   612	000736'	254000	000746'	        JRST    GTMFD1          ;NO - GET NEXT WORD.
   613	000737'	200300	004207'	        MOVE    T1,[33,,MFD]    ;SET UP AND
   614	000740'	043300	001003'	        CHANIO  T1,MFDARG       ;READ MFD ENTRIES.
   615	000741'	254000	002145'	        JRST    ERRMFD          ;ERROR RETURN.
   616	000742'	400500	000000	        SETZ    MFDBF,          ;RESET ARRAY POINTER.
   617	000743'	200340	001012'	        MOVE    T2,MFDCNT       ;GET # OF ENTRIES
   618	000744'	221340	000003	        IMULI   T2,3
   619	000745'	202340	001012'	        MOVEM   T2,MFDCNT       ;SAVE IT.
   620	000746'	200152	001013'	GTMFD1: MOVE    SIZ,MFDBLK(MFDBF)       ;GET NEXT WORD,
   621	000747'	340500	000000	        AOJ     MFDBF,          ;INCREMENT POINTER,
   622	000750'	254016	000000	        JRST    (LNK)           ;AND RETURN.
   623
   624	000751'	373000	001426'	GETUFD: SOSLE   UFDCNT          ;BUFFER EMPTY?
   625	000752'	254000	000762'	        JRST    GTUFD1          ;NO - GET NEXT WORD.
   626	000753'	200300	004210'	        MOVE    T1,[33,,UFD]    ;SET UP AND
   627	000754'	043300	001417'	        CHANIO  T1,UFDARG       ;READ UFD ENTRIES.
   628	000755'	254000	002141'	        JRST    ERRUFD          ;ERROR RETURN.
   629	000756'	400540	000000	        SETZ    UFDBF,          ;RESET ARRAY POINTER.
   630	000757'	200340	001426'	        MOVE    T2,UFDCNT       ;GET # OF ENTRIES
   631	000760'	221340	000003	        IMULI   T2,3            ;AND CONVERT TO WORDS.
   632	000761'	202340	001426'	        MOVEM   T2,UFDCNT       ;SAVE IT.
   633	000762'	200153	001427'	GTUFD1: MOVE    SIZ,UFDBLK(UFDBF)       ;GET NEXT WORD,
SZRPT - PRINT SORTED LIST OF USERS STRAGE	MACRO 12.4-46.0 15:43 15-MAR-79 PAGE 1-13
SZRPT.MAC	 7-MAR-79 08:35

   634	000763'	340540	000000	        AOJ     UFDBF,          ;INCREMENT POINTER,
   635	000764'	254016	000000	        JRST    (LNK)           ;AND RETURN.
   636
   637				;ERROR MESSAGES AND LOOKUP INFORMATION
   638
   639				NODSK:	TTCALL 3,[ASCIZ /
   640	000765'	051140	004211'	CAN NOT INIT DEVICE DSK/]
   641	000766'	047000	000012		CALLI 12
   642
   643				NOOUT:	TTCALL 3,[ASCIZ /
   644	000767'	051140	004217'	CAN NOT SET UP OUTPUT/]
   645	000770'	047000	000012		CALLI 12
   646
   647				NOSYS:	TTCALL 3,[ASCIZ /
   648	000771'	051140	004224'	CAN NOT READ SYSTEM FILES/]
   649	000772'	047000	000012		CALLI 12
   650
   651	000773'	000000	000003	ONAM:	3
   652	000774'	000000	000000		0
   653	000775'	545143	626064		SIXBIT /LICRPT/
   654	000776'	546364	000000		SIXBIT /LST/
   655
   656	000777'	000000	000003	MFDNM:	3
   657	001000'	000001	000001	        XWD 1,1
   658	001001'	000001	000001	        XWD 1,1
   659	001002'	654644	000000		SIXBIT /UFD/
   660	001003'	777400	001013'	MFDARG: -400,,MFDBLK
   661	001004'	120000	000000	        SIXBIT /*/
   662	001005'	120000	000000	        SIXBIT /*/
   663	001006'	040000	000000	        40000,,0
   664	001007'	000000	000000	MONWRD: 0
   665	001010'	000000	000000	        0
   666	001011'	000000	000000	        0
   667	001012'	000000	000000	MFDCNT: 0
   668	001013'			MFDBLK: BLOCK   400
   669
   670	001413'	000000	000003	UFDNM:	3
   671	001414'	000001	000001	        XWD 1,1
   672	001415'	000000	000000	UFDLC:	0
   673	001416'	654644	000000		SIXBIT /UFD/
   674	001417'	777300	001427'	UFDARG: -500,,UFDBLK
   675	001420'	120000	000000	        SIXBIT /*/
   676	001421'	120000	000000	        SIXBIT /*/
   677	001422'	200000	000000	        200000,,0
   678	001423'	000000	000000	MONWD:  0
   679	001424'	000000	000000	STRTNM: 0
   680	001425'	000000	000000	STRTEX: 0
   681	001426'	000000	000000	UFDCNT: 0
   682	001427'			UFDBLK: BLOCK 500
   683
   684	002127'	000000	000003	DULNAM:	3
   685	002130'	000000	000000		0
   686	002131'	446554	000000		SIXBIT /DUL/
SZRPT - PRINT SORTED LIST OF USERS STRAGE	MACRO 12.4-46.0 15:43 15-MAR-79 PAGE 1-14
SZRPT.MAC	 7-MAR-79 08:35

   687	002132'	637163	000000		SIXBIT /SYS/
   688
   689	002133'	777600	003402'	COM:	IOWD 200,BUF
   690	002134'	000000	000000		0
   691
   692	002135'	000000	000003	LUDNAM:	3
   693	002136'	000000	000000		0
   694	002137'	546544	000000		SIXBIT /LUD/
   695	002140'	637163	000000		SIXBIT /SYS/
   696	002141'	063100	020000	ERRUFD: STATZ   UFD,20000       ;END OF FILE?
   697	002142'	263740	000000	        POPJ    P,              ;YES - GET OUT
   698	002143'	051140	004232'	        TTCALL  3,[ASCIZ /ERROR READING UFD/]
   699	002144'	254000	002514'	        JRST DONE
   700
   701	002145'	063040	020000	ERRMFD: STATZ   MFD,20000       ;END OF FILE?
   702	002146'	263740	000000	        POPJ    P,              ;YES - GET OUT
   703	002147'	051140	004236'	        TTCALL  3,[ASCIZ /ERROR READING MFD/]
   704	002150'	254000	002514'	        JRST DONE
   705
   706	002151'	350017	000000	CPOPJ1: AOS     (P)     ;SKIP RETURN IF GOT ENTRY
   707	002152'	263740	000000	        POPJ    P,
   708	002153'	476000	004041'	FLGIN:	SETOM ZRLFLG
   709	002154'	476000	004016'		SETOM SEPFLG
   710	002155'	263740	000000		POPJ P,
   711
   712	002156'	476000	004016'	FLGOUT:	SETOM SEPFLG
   713	002157'	350000	004041'		AOS ZRLFLG
   714	002160'	263740	000000		POPJ P,
   715
   716	002161'	336000	004041'	FLGDO:	SKIPN ZRLFLG
   717	002162'	263740	000000		POPJ P,
   718	002163'	402000	004016'		SETZM SEPFLG
   719	002164'	331000	004041'		SKIPL ZRLFLG
   720	002165'	254000	002172'		JRST OUTDO
   721	002166'	402000	003645'		SETZM OLIST
   722	002167'	402000	003646'		SETZM OTOT
   723	002170'	402000	003650'		SETZM OTOT+2
   724	002171'	263740	000000		POPJ P,
   725
   726	002172'	200300	003645'	OUTDO:	MOVE T1,OLIST
   727	002173'	202300	003632'		MOVEM T1,ILIST
   728	002174'	402000	003645'		SETZM OLIST
   729	002175'	200300	003646'		MOVE T1,OTOT
   730	002176'	202300	003634'		MOVEM T1,ITOT
   731	002177'	402000	003646'		SETZM OTOT
   732	002200'	200300	003650'		MOVE T1,OTOT+2
   733	002201'	202300	003636'		MOVEM T1,ITOT+2
   734	002202'	402000	003650'		SETZM OTOT+2
   735	002203'	263740	000000		POPJ P,
   736
   737				;CHECK FOR CORRECT RESPONSE TO QUESTION
   738
   739	002204'	332000	004016'	CHRCHK: SKIPE   SEPFLG          ;IF FLAG IS SET WE HAVE AN ANSWER
SZRPT - PRINT SORTED LIST OF USERS STRAGE	MACRO 12.4-46.0 15:43 15-MAR-79 PAGE 1-15
SZRPT.MAC	 7-MAR-79 08:35

   740	002205'	263740	000000	        POPJ    P,
   741	002206'	332000	004041'	        SKIPE   ZRLFLG          ;IS THIS FLAG SET??
   742	002207'	263740	000000	        POPJ    P,
   743	002210'	302400	000161	        CAIE    L1,161          ;LOWER CASE Q?
   744	002211'	306400	000121	        CAIN    L1,"Q"          ;MUST HAVE SOME WAY OUT OF SZRPT
   745	002212'	254000	002550'	        JRST    PNTIT+4         ;FAST EXIT
   746	002213'	306400	000015	        CAIN    L1,15           ;C.R WILL GET YOUR QUESTION BACK
   747	002214'	051000	000010	        INCHRW  L1              ;PICK UP   THAT LF BEFORE RETRUNING
   748	002215'	051440	000000	        CLRBFI                  ;BEFORE ASKING FOR MORE INPUT
   749				        OUTSTR  [ASCIZ/
   750	002216'	051140	004242'	OPTIONS: Y(ES),N(O),I(NHOUSE),O(UTHOUSE),Q(UIT)/]
   751	002217'	262740	000010	        POP     P,L1            ;DECREMENT PUSH DOWN COUNTER
   752	002220'	254000	000064'	        JRST    TTGNC           ;RESET FLAGS AND RETRY
   753				;LIST STRUCTURE FOR INFORMATION (MAKES SORTING POSSIBLE)
   754
   755				;WORD 0  LINK TO NEXT
   756				;WORD 1  SIZE
   757				;WORD 2  UFD
   758				;WORDS 3-4 NAME FROM DUL (0 MEANS NO DUL ENTRY)
   759
   760	002221'	200640	000250*	SETLST:	MOVE LST,JOBFF
   761	002222'	201300	000007		MOVEI T1,7
   762	002223'	273300	002221*		ADDB T1,JOBFF
   763	002224'	317300	000241*		CAMG T1,JOBREL
   764	002225'	254000	002231'		JRST NOCR
   765	002226'	435300	001777		IORI T1,1777
   766	002227'	047300	000011		CALLI T1,11
   767					JRST [TTCALL 3,[ASCIZ /NO CORE/]
   768	002230'	254000	004256'			CALLI 12]
   769	002231'	402015	000001	NOCR:	SETZM 1(LST)
   770	002232'	402015	000003		SETZM 3(LST)
   771	002233'	402015	000004		SETZM 4(LST)
   772	002234'	476015	000005		SETOM 5(LST)
   773	002235'	402015	000006		SETZM 6(LST)
   774	002236'	200300	001415'		MOVE T1,UFDLC
   775	002237'	202315	000002		MOVEM T1,2(LST)
   776	002240'	231300	000145		IDIVI T1,DULHSH
   777	002241'	074207	000001		USETI DUL,1(T2)
   778	002242'	066200	002133'	DULIN:	INPUT DUL,COM
   779	002243'	201340	003403'		MOVEI T2,BUF
   780	002244'	337307	000000	DULP:	SKIPG T1,(T2)
   781	002245'	254000	002252'		JRST DULCK
   782	002246'	316300	001415'		CAMN T1,UFDLC
   783	002247'	254000	002255'		JRST FDUL
   784	002250'	271340	000003		ADDI T2,3
   785	002251'	254000	002244'		JRST DULP	;GET NEXT ENTRY
   786
   787	002252'	322300	002343'	DULCK:	JUMPE T1,INHOUS	;NOT OVERFLOW, NO DUL ENTRY
   788	002253'	074206	000000		USETI DUL,(T1)
   789	002254'	254000	002242'		JRST DULIN	;GO TO OVERFLOW BLOCK
   790
   791	002255'	200307	000001	FDUL:	MOVE T1,1(T2)
   792	002256'	202315	000003		MOVEM T1,3(LST)
SZRPT - PRINT SORTED LIST OF USERS STRAGE	MACRO 12.4-46.0 15:43 15-MAR-79 PAGE 1-16
SZRPT.MAC	 7-MAR-79 08:35

   793	002257'	200307	000002		MOVE T1,2(T2)
   794	002260'	202315	000004		MOVEM T1,4(LST)
   795	002261'	336000	004016'		SKIPN SEPFLG
   796	002262'	332000	003644'		SKIPE NEDDST
   797	002263'	334000	000000		SKIPA
   798	002264'	254000	002343'		JRST INHOUS
   799	002265'	200315	000003		MOVE N,3(LST)
   800	002266'	200355	000004		MOVE N1,4(LST)
   801	002267'	260740	002272'		PUSHJ P,CHKLUD
   802	002270'	254000	002341'		 JRST INHOUP
   803	002271'	254000	002331'		JRST FNDLUD
   804				;NOW LOOK AT LUD ENTRY
   805
   806			000001	A==1
   807			000002	B==2
   808			000003	C==3
   809			000004	D==4
   810			000005	E==5
   811			000006	N==6
   812			000007	N1==7
   813			000010	WD==10
   814			000011	BP==11
   815
   816				ARRAY SVAC[BP+1]
   817
   818	002272'	202440	004030'	CHKLUD:	MOVEM BP,SVAC+BP
   819	002273'	201440	004017'		MOVEI BP,SVAC
   820	002274'	251440	004027'		BLT BP,SVAC+WD
   821	002275'	200040	004260'		MOVE A,[555555555555]
   822	002276'	200100	004261'		MOVE B,[361275431652]
   823	002277'	200140	004262'		MOVE C,[612754316523]
   824	002300'	201400	000000		MOVEI WD,0
   825	002301'	260740	002373'		PUSHJ P,RND
   826	002302'	260740	002373'		PUSHJ P,RND
   827	002303'	260740	002373'		PUSHJ P,RND
   828	002304'	260740	002373'		PUSHJ P,RND
   829	002305'	430140	000002		XOR C,B
   830	002306'	200300	000003		MOVE N,C
   831	002307'	621300	400000		TLZ N,400000
   832	002310'	231300	001567		IDIVI N,LUDHSH
   833	002311'	430040	000003		XOR A,C
   834	002312'	074247	000001		USETI LUD,1(N1)
   835	002313'	066240	002133'		INPUT LUD,COM
   836	002314'	201400	000000	SRUS0:	MOVEI WD,0
   837	002315'	316050	003407'	SRUSR:	CAMN A,BUF+LHUN(WD)
   838				        JRST    [MOVEM A,SAVKA#         ;SAVE A
   839				                MOVEM   BP,SAVKBP#              ;SAV BP
   840				                MOVE    BP,BUF+LLINK(WD)        ;GET LUD WORD 2 BIT 27
   841				                MOVEI   A,7                     ;ASSUME NO INIT FILE
   842				                TRNE    BP,400                  ;IS THERE AN INIT FILE?
   843				                MOVEI   A,^D10                  ;YES USE WD 10 NOT 7
   844				                ADD     A,WD                    ;0 +OFFSET INIT OR NO
   845				                MOVE   A,BUF(A)                ;GET QUOTA A HAS RIGHT Q WD
SZRPT - PRINT SORTED LIST OF USERS STRAGE	MACRO 12.4-46.0 15:43 15-MAR-79 PAGE 1-17
SZRPT.MAC	 7-MAR-79 08:35

   846				                IDIVI   A,4     ; MAKE PAGES.
   847				                MOVEM   A,LASLOQ#               ;SAVE IT
   848				                MOVE    A,SAVKA                 ;GIVE BACK ORIG A
   849				                MOVE    BP,SAVKBP               ;GIVE BACK BP
   850	002316'	254000	004263'	                JRST    CPOPJ1]                 ;AND GO AWAY LITTLE GIRL...
   851	002317'	337110	003403'		SKIPG B,BUF+LPPN(WD)
   852	002320'	254000	002325'		JRST BLKLNK
   853	002321'	200110	003405'		MOVE B,BUF+LLINK(WD)
   854	002322'	405100	000177		ANDI B,177
   855	002323'	270400	000002		ADD WD,B
   856	002324'	254000	002315'		JRST SRUSR
   857
   858	002325'	322100	002412'	BLKLNK:	JUMPE B,CPOPJ
   859	002326'	074242	000000		USETI LUD,(B)
   860	002327'	066240	002133'		INPUT LUD,COM
   861	002330'	254000	002314'		JRST SRUS0
   862	002331'	200310	003404'	FNDLUD:	MOVE N,BUF+LDST(WD)
   863	002332'	405300	000377		ANDI N,377
   864	002333'	202315	000005		MOVEM N,5(LST)
   865	002334'	336000	004016'		SKIPN SEPFLG
   866	002335'	254000	002343'		JRST INHOUS
   867	002336'	200310	003406'		MOVE N,BUF+LPRV(WD)
   868	002337'	606300	040000		TRNN N,TYMPRO
   869	002340'	254000	002356'		JRST OUTHP
   870	002341'	205440	004017'	INHOUP:	MOVSI BP,SVAC
   871	002342'	251440	000011		BLT BP,BP
   872	002343'	331300	003630'	INHOUS:	SKIPL T1,DSTFLG
   873	002344'	254000	002351'		JRST INHOU1
   874	002345'	200355	000005		MOVE T2,5(LST)
   875	002346'	312346	000000		CAME T2,(T1)
   876	002347'	253300	002346'		AOBJN T1,.-1
   877	002350'	325300	002411'		JUMPGE T1,IGNORE
   878	002351'	201600	003634'	INHOU1:	MOVEI TOT,ITOT
   879	002352'	200300	003632'		MOVE T1,ILIST
   880	002353'	202315	000000		MOVEM T1,(LST)
   881	002354'	202640	003632'		MOVEM LST,ILIST
   882	002355'	254000	002151'		JRST CPOPJ1
   883
   884	002356'	205440	004017'	OUTHP:	MOVSI BP,SVAC
   885	002357'	251440	000011		BLT BP,BP
   886	002360'	331300	003630'		SKIPL T1,DSTFLG
   887	002361'	254000	002366'		JRST OUTH1
   888	002362'	200355	000005		MOVE T2,5(LST)
   889	002363'	312346	000000		CAME T2,(T1)
   890	002364'	253300	002363'		AOBJN T1,.-1
   891	002365'	325300	002411'		JUMPGE T1,IGNORE
   892	002366'	201600	003646'	OUTH1:	MOVEI TOT,OTOT
   893	002367'	200300	003645'		MOVE T1,OLIST
   894	002370'	202315	000000		MOVEM T1,(LST)
   895	002371'	202640	003645'		MOVEM LST,OLIST
   896	002372'	254000	002151'		JRST CPOPJ1
   897
   898	002373'	270100	000006	RND:	ADD B,N
SZRPT - PRINT SORTED LIST OF USERS STRAGE	MACRO 12.4-46.0 15:43 15-MAR-79 PAGE 1-18
SZRPT.MAC	 7-MAR-79 08:35

   899	002374'	245300	777756		ROTC N,-22
   900	002375'	201440	000005		MOVEI BP,5
   901	002376'	200210	000002	RND1:	MOVE D,B(WD)
   902	002377'	224200	004300'		MUL D,[5*5*5*5*5*5*5*5*5*5*5*5*5*5*5]	;5^15
   903	002400'	272250	000003		ADDM E,C(WD)
   904	002401'	342400	002407'		AOJE WD,RND2
   905	002402'	211400	000001		MOVNI WD,1
   906	002403'	602100	000001		TRNE B,1
   907	002404'	331000	000003		SKIPL C
   908	002405'	201400	000000		MOVEI WD,0
   909	002406'	250040	000003		EXCH A,C
   910	002407'	367440	002376'	RND2:	SOJG BP,RND1
   911	002410'	263740	000000		POPJ P,
   912
   913	002411'	202640	002223*	IGNORE:	MOVEM LST,JOBFF	;PUT JOBFF BACK
   914	002412'	263740	000000	CPOPJ:	POPJ P,
   915				;THE ACTUAL SORT ROUTINES
   916
   917	002413'	201700	000000	COMPR:	MOVEI LNK,0
   918	002414'	336016	003603'	COMPR1:	SKIPN CMPTB(LNK)
   919	002415'	263740	000000		POPJ P,		;ALL DONE
   920	002416'	254036	003603'		JRST @CMPTB(LNK)
   921
   922	002417'	254000	002557'		JRST HEDSIZ
   923	002420'	200006	000001	BYSIZ:	MOVE 0,1(T1)
   924	002421'	316007	000001		CAMN 0,1(T2)
   925	002422'	344700	002414'		AOJA LNK,COMPR1		;SAME, TRY NEXT SORT ROUTINE
   926	002423'	311007	000001		CAML 0,1(T2)
   927	002424'	334400	000011	COMCHG:	SKIPA L1,L2
   928	002425'	263740	000000		POPJ P,
   929	002426'	200350	000000		MOVE T2,(L1)
   930	002427'	263740	000000		POPJ P,
   931
   932	002430'	254000	002563'		JRST HEDACT
   933	002431'	554006	000002	BYACNT:	HLRZ 0,2(T1)
   934	002432'	554547	000002		HLRZ T3,2(T2)
   935	002433'	316000	000013		CAMN 0,T3
   936	002434'	344700	002414'		AOJA LNK,COMPR1
   937	002435'	311540	000000		CAML T3,0
   938	002436'	254000	002424'		JRST COMCHG
   939	002437'	263740	000000		POPJ P,
   940
   941	002440'	254000	002704'		JRST HEDDST
   942	002441'	200006	000005	BYDIST:	MOVE 0,5(T1)
   943	002442'	316007	000005		CAMN 0,5(T2)
   944	002443'	344700	002414'		AOJA LNK,COMPR1
   945	002444'	317007	000005		CAMG 0,5(T2)
   946	002445'	254000	002424'		JRST COMCHG
   947	002446'	263740	000000		POPJ P,
   948
   949	002447'	254000	002561'		JRST HEDFIL
   950	002450'	200006	000006	BYFILE:	MOVE 0,6(T1)
   951	002451'	316007	000006		CAMN 0,6(T2)
SZRPT - PRINT SORTED LIST OF USERS STRAGE	MACRO 12.4-46.0 15:43 15-MAR-79 PAGE 1-19
SZRPT.MAC	 7-MAR-79 08:35

   952	002452'	344700	002414'		AOJA LNK,COMPR1
   953	002453'	311007	000006		CAML 0,6(T2)
   954	002454'	254000	002424'		JRST COMCHG
   955	002455'	263740	000000		POPJ P,
   956
   957	002456'	254000	002561'		JRST HEDUSR
   958	002457'	200006	000003	BYUSR:	MOVE 0,3(T1)
   959	002460'	316007	000003		CAMN 0,3(T2)
   960	002461'	254000	002465'		JRST USCK2		;FIRST PART SAME, CHECK SECOND
   961	002462'	317007	000003		CAMG 0,3(T2)
   962	002463'	254000	002424'		JRST COMCHG
   963	002464'	263740	000000		POPJ P,
   964
   965	002465'	200006	000004	USCK2:	MOVE 0,4(T1)
   966	002466'	316007	000004		CAMN 0,4(T2)
   967	002467'	344700	002414'		AOJA LNK,COMPR1
   968	002470'	317007	000004		CAMG 0,4(T2)
   969	002471'	254000	002424'		JRST COMCHG
   970	002472'	263740	000000		POPJ P,
   971				;SORT ROUTINE. LS HAS ADRS OF COMPARE ROUTINE
   972				;T1 POINTS TO CURRENT BLOCK, T2 TO BIGGEST
   973				;L1 POINTS TO PRED OF BIGGEST, L2 TO PRES OF CURRENT
   974
   975	002473'			SORT:
   976	002473'	336352	000000	ST0:	SKIPN T2,(LS)	;ANY MORE
   977	002474'	263740	000000		POPJ P,		;NO, OUT OF LIST
   978	002475'	200400	000012		MOVE L1,LS	;L1 IS PRED. OF BIGGEST
   979	002476'	200440	000007		MOVE L2,T2	;L2 IS NEXT
   980	002477'	336311	000000	ST2:	SKIPN T1,(L2)
   981	002500'	254000	002504'		JRST DST0	;OUT OF LIST, DONE THIS PASS
   982	002501'	260740	002413'		PUSHJ P,COMPR
   983	002502'	200451	000000		MOVE L2,(L2)	;NEXT LINK
   984	002503'	254000	002477'		JRST ST2
   985
   986	002504'	200310	000000	DST0:	MOVE T1,(L1)	;RELINK LIST
   987	002505'	200346	000000		MOVE T2,(T1)
   988	002506'	202350	000000		MOVEM T2,(L1)
   989	002507'	200352	000000		MOVE T2,(LS)
   990	002510'	202346	000000		MOVEM T2,(T1)
   991	002511'	202312	000000		MOVEM T1,(LS)
   992	002512'	200512	000000		MOVE LS,(LS)	;ADVANCE PAST THIS ONE
   993	002513'	254000	002473'		JRST ST0
   994
   995	002514'	260740	002161'	DONE:	PUSHJ P,FLGDO
   996	002515'	201500	003632'		MOVEI LS,ILIST
   997	002516'	260740	002473'		PUSHJ P,SORT	;SORT BY SIZE
   998	002517'	201500	003645'		MOVEI LS,OLIST
   999	002520'	260740	002473'		PUSHJ P,SORT
  1000	002521'	201340	004301'		MOVEI T2,[ASCIZ /TOTAL PAGES /]
  1001	002522'	260740	003240'		PUSHJ P,OUTASC
  1002	002523'	200300	003634'		MOVE T1,ITOT
  1003	002524'	270300	003646'		ADD T1,OTOT
  1004	002525'	260740	003245'		PUSHJ P,DECPR1
SZRPT - PRINT SORTED LIST OF USERS STRAGE	MACRO 12.4-46.0 15:43 15-MAR-79 PAGE 1-20
SZRPT.MAC	 7-MAR-79 08:35

  1005	002526'	201340	004304'		MOVEI T2,[ASCIZ /  FILES /]
  1006	002527'	260740	003240'		PUSHJ P,OUTASC
  1007	002530'	200300	003636'		MOVE T1,ITOT+2
  1008	002531'	270300	003650'		ADD T1,OTOT+2
  1009	002532'	260740	003245'		PUSHJ P,DECPR1
  1010	002533'	260740	003227'		PUSHJ P,CRLF
  1011	002534'	260740	003227'		PUSHJ P,CRLF
  1012	002535'	336000	004016'		SKIPN SEPFLG
  1013	002536'	254000	002544'		JRST PNTIT
  1014	002537'	201340	004306'		MOVEI T2,[ASCIZ /  INHOUSE      QUOTA             OVER          OUTHOUSE/]
  1015	002540'	260740	003240'		PUSHJ P,OUTASC
  1016	002541'	260740	003227'		PUSHJ P,CRLF
  1017	002542'	260740	003227'		PUSHJ P,CRLF
  1018	002543'	260740	003003'		PUSHJ P,SEPTOT
  1019	002544'	260740	002551'	PNTIT:	PUSHJ P,HEADR
  1020	002545'	336000	003632'		SKIPN ILIST
  1021	002546'	332000	003645'		SKIPE OLIST
  1022	002547'	254000	002544'		JRST PNTIT
  1023	002550'	047000	000012		EXIT
  1024	002551'	201440	000000	HEADR:	MOVEI L2,0
  1025	002552'	402000	003635'	HEADR1:	SETZM ITOT+1
  1026	002553'	402000	003647'		SETZM OTOT+1		;SO THESE WILL BE FOR SMALLEST PIECE
  1027	002554'	336311	003603'		SKIPN T1,CMPTB(L2)
  1028	002555'	263740	000000		POPJ P,
  1029	002556'	254006	777777		JRST -1(T1)
  1030
  1031	002557'	476000	003402'	HEDSIZ:	SETOM ACUMPC#
  1032	002560'	254000	003022'		JRST LSTPR
  1033
  1034	002561'			HEDFIL:
  1035	002561'	402000	003402'	HEDUSR:	SETZM ACUMPC#
  1036	002562'	254000	003022'		JRST LSTPR
  1037
  1038	002563'	336300	003632'	HEDACT:	SKIPN T1,ILIST
  1039	002564'	254000	002662'		JRST ACTNOI		;MUST USER OLIST
  1040	002565'	554006	000002		HLRZ 0,2(T1)
  1041	002566'	336300	003645'		SKIPN T1,OLIST
  1042	002567'	254000	002573'		JRST ACTCOM
  1043	002570'	554546	000002		HLRZ T3,2(T1)
  1044	002571'	313000	000013		CAMLE 0,T3
  1045	002572'	200000	000013		MOVE 0,T3
  1046	002573'	261740	003634'	ACTCOM:	PUSH P,ITOT
  1047	002574'	402000	003634'		SETZM ITOT
  1048	002575'	261740	003636'		PUSH P,ITOT+2
  1049	002576'	402000	003636'		SETZM ITOT+2
  1050	002577'	261740	003646'		PUSH P,OTOT
  1051	002600'	402000	003646'		SETZM OTOT
  1052	002601'	261740	003650'		PUSH P,OTOT+2
  1053	002602'	402000	003650'		SETZM OTOT+2
  1054	002603'	201600	003634'		MOVEI TOT,ITOT
  1055	002604'	201640	003632'		MOVEI LST,ILIST
  1056	002605'	265700	002666'		JSP LNK,ACTSR
  1057	002606'	201600	003646'		MOVEI TOT,OTOT
SZRPT - PRINT SORTED LIST OF USERS STRAGE	MACRO 12.4-46.0 15:43 15-MAR-79 PAGE 1-21
SZRPT.MAC	 7-MAR-79 08:35

  1058	002607'	201640	003645'		MOVEI LST,OLIST
  1059	002610'	265700	002666'		JSP LNK,ACTSR
  1060	002611'	260740	003227'		PUSHJ P,CRLF
  1061	002612'	201340	004322'		MOVEI T2,[ASCIZ /GLOBAL ACCOUNT /]
  1062	002613'	260740	003240'		PUSHJ P,OUTASC
  1063	002614'	200300	000000		MOVE T1,0
  1064	002615'	260740	003262'		PUSHJ P,OUTOCT
  1065	002616'	260740	003224'		PUSHJ P,SPC2
  1066	002617'	200300	003634'		MOVE T1,ITOT
  1067	002620'	270300	003646'		ADD T1,OTOT
  1068	002621'	260740	003245'		PUSHJ P,DECPR1
  1069	002622'	260740	003225'		PUSHJ P,SPC1
  1070	002623'	200300	003636'		MOVE T1,ITOT+2
  1071	002624'	270300	003650'		ADD T1,OTOT+2
  1072	002625'	260740	003245'		PUSHJ P,DECPR1
  1073	002626'	260740	003225'		PUSHJ P,SPC1
  1074	002627'	200300	003634'		MOVE T1,ITOT
  1075	002630'	270300	003646'		ADD T1,OTOT
  1076	002631'	221300	000144		IMULI T1,^D100
  1077	002632'	200357	777773		MOVE T2,-5(P)
  1078	002633'	270357	777775		ADD T2,-3(P)
  1079	002634'	230300	000007		IDIV T1,T2
  1080	002635'	260740	003245'		PUSHJ P,DECPR1
  1081	002636'	201300	000045		MOVEI T1,"%"
  1082	002637'	260740	003173'		PUSHJ P,OUT1
  1083	002640'	260740	003227'		PUSHJ P,CRLF
  1084	002641'	260740	003227'		PUSHJ P,CRLF
  1085	002642'	332000	004016'		SKIPE SEPFLG
  1086	002643'	260740	003003'		PUSHJ P,SEPTOT
  1087	002644'	271440	000001		ADDI L2,1
  1088	002645'	261740	000011	HEDAC1:	PUSH P,L2
  1089	002646'	260740	002552'		PUSHJ P,HEADR1
  1090	002647'	262740	000011		POP P,L2
  1091	002650'	336000	003645'		SKIPN OLIST
  1092	002651'	332000	003632'		SKIPE ILIST
  1093	002652'	254000	002645'		JRST HEDAC1
  1094	002653'	262740	003645'		POP P,OLIST
  1095	002654'	262740	003632'		POP P,ILIST
  1096	002655'	262740	003650'		POP P,OTOT+2
  1097	002656'	262740	003646'		POP P,OTOT
  1098	002657'	262740	003636'		POP P,ITOT+2
  1099	002660'	262740	003634'		POP P,ITOT
  1100	002661'	263740	000000		POPJ P,
  1101	002662'	336300	003645'	ACTNOI:	SKIPN T1,OLIST
  1102	002663'	263740	000000		POPJ P,
  1103	002664'	554006	000002		HLRZ 0,2(T1)
  1104	002665'	254000	002573'		JRST ACTCOM
  1105
  1106	002666'	336355	000000	ACTSR:	SKIPN T2,(LST)
  1107	002667'	254000	002701'		JRST ACTEOL
  1108	002670'	554547	000002		HLRZ T3,2(T2)
  1109	002671'	312540	000000		CAME T3,0
  1110	002672'	254000	002701'		JRST ACTEOL
SZRPT - PRINT SORTED LIST OF USERS STRAGE	MACRO 12.4-46.0 15:43 15-MAR-79 PAGE 1-22
SZRPT.MAC	 7-MAR-79 08:35

  1111	002673'	200307	000001		MOVE T1,1(T2)
  1112	002674'	272314	000000		ADDM T1,(TOT)
  1113	002675'	200307	000006		MOVE T1,6(T2)
  1114	002676'	272314	000002		ADDM T1,2(TOT)
  1115	002677'	200640	000007		MOVE LST,T2
  1116	002700'	254000	002666'		JRST ACTSR
  1117
  1118	002701'	261755	000000	ACTEOL:	PUSH P,(LST)
  1119	002702'	402015	000000		SETZM (LST)
  1120	002703'	254016	000000		JRST (LNK)
  1121	002704'	336300	003632'	HEDDST:	SKIPN T1,ILIST
  1122	002705'	254000	002765'		JRST DSTNOI
  1123	002706'	200006	000005		MOVE 0,5(T1)
  1124	002707'	336300	003645'		SKIPN T1,OLIST
  1125	002710'	254000	002713'		JRST DSTCOM
  1126	002711'	313006	000005		CAMLE 0,5(T1)
  1127	002712'	200006	000005		MOVE 0,5(T1)
  1128	002713'	261740	003634'	DSTCOM:	PUSH P,ITOT
  1129	002714'	402000	003634'		SETZM ITOT
  1130	002715'	261740	003636'		PUSH P,ITOT+2
  1131	002716'	402000	003636'		SETZM ITOT+2
  1132	002717'	261740	003646'		PUSH P,OTOT
  1133	002720'	402000	003650'		SETZM OTOT+2
  1134	002721'	261740	003650'		PUSH P,OTOT+2
  1135	002722'	402000	003646'		SETZM OTOT
  1136	002723'	201600	003634'		MOVEI TOT,ITOT
  1137	002724'	201640	003632'		MOVEI LST,ILIST
  1138	002725'	265700	002771'		JSP LNK,DSTSR
  1139	002726'	201600	003646'		MOVEI TOT,OTOT
  1140	002727'	201640	003645'		MOVEI LST,OLIST
  1141	002730'	265700	002771'		JSP LNK,DSTSR
  1142	002731'	260740	003227'		PUSHJ P,CRLF
  1143	002732'	201340	004326'		MOVEI T2,[ASCIZ /DISTRICT /]
  1144	002733'	260740	003240'		PUSHJ P,OUTASC
  1145	002734'	200300	000000		MOVE T1,0
  1146	002735'	260740	003245'		PUSHJ P,DECPR1
  1147	002736'	260740	003224'		PUSHJ P,SPC2
  1148	002737'	200300	003634'		MOVE T1,ITOT
  1149	002740'	270300	003646'		ADD T1,OTOT
  1150	002741'	260740	003245'		PUSHJ P,DECPR1
  1151	002742'	260740	003225'		PUSHJ P,SPC1
  1152	002743'	200300	003636'		MOVE T1,ITOT+2
  1153	002744'	270300	003650'		ADD T1,OTOT+2
  1154	002745'	260740	003245'		PUSHJ P,DECPR1
  1155	002746'	260740	003225'		PUSHJ P,SPC1
  1156	002747'	200300	003634'		MOVE T1,ITOT
  1157	002750'	270300	003646'		ADD T1,OTOT
  1158	002751'	221300	000144		IMULI T1,^D100
  1159	002752'	200357	777773		MOVE T2,-5(P)
  1160	002753'	270357	777775		ADD T2,-3(P)
  1161	002754'	230300	000007		IDIV T1,T2
  1162	002755'	260740	003245'		PUSHJ P,DECPR1
  1163	002756'	201300	000045		MOVEI T1,"%"
SZRPT - PRINT SORTED LIST OF USERS STRAGE	MACRO 12.4-46.0 15:43 15-MAR-79 PAGE 1-23
SZRPT.MAC	 7-MAR-79 08:35

  1164	002757'	260740	003173'		PUSHJ P,OUT1
  1165	002760'	260740	003227'		PUSHJ P,CRLF
  1166	002761'	260740	003227'		PUSHJ P,CRLF
  1167	002762'	332000	004016'		SKIPE SEPFLG
  1168	002763'	260740	003003'		PUSHJ P,SEPTOT
  1169	002764'	344440	002645'		AOJA L2,HEDAC1
  1170	002765'	336300	003645'	DSTNOI:	SKIPN T1,OLIST
  1171	002766'	263740	000000		POPJ P,
  1172	002767'	200006	000005		MOVE 0,5(T1)
  1173	002770'	254000	002713'		JRST DSTCOM
  1174
  1175	002771'	336355	000000	DSTSR:	SKIPN T2,(LST)
  1176	002772'	254000	002701'		JRST ACTEOL
  1177	002773'	312007	000005		CAME 0,5(T2)
  1178	002774'	254000	002701'		JRST ACTEOL
  1179	002775'	200307	000001		MOVE T1,1(T2)
  1180	002776'	272314	000000		ADDM T1,(TOT)
  1181	002777'	200307	000006		MOVE T1,6(T2)
  1182	003000'	272314	000002		ADDM T1,2(TOT)
  1183	003001'	200640	000007		MOVE LST,T2
  1184	003002'	254000	002771'		JRST DSTSR
  1185	003003'	200300	003634'	SEPTOT:	MOVE T1,ITOT
  1186	003004'	260740	003245'		PUSHJ P,DECPR1
  1187	003005'	201340	004330'		MOVEI T2,[ASCIZ /   /]
  1188	003006'	260740	003240'		PUSHJ P,OUTASC
  1189	003007'	200300	003636'		MOVE T1,ITOT+2
  1190	003010'	260740	003245'		PUSHJ P,DECPR1
  1191	003011'	260740	003265'		PUSHJ P,GOSP
  1192	003012'	200300	003646'		MOVE T1,OTOT
  1193	003013'	260740	003245'		PUSHJ P,DECPR1
  1194	003014'	201340	004330'		MOVEI T2,[ASCIZ /   /]
  1195	003015'	260740	003240'		PUSHJ P,OUTASC
  1196	003016'	200300	003650'		MOVE T1,OTOT+2
  1197	003017'	260740	003245'		PUSHJ P,DECPR1
  1198	003020'	260740	003227'		PUSHJ P,CRLF
  1199	003021'	254000	003227'		JRST CRLF
  1200	003022'	201600	003634'	LSTPR:	MOVEI TOT,ITOT
  1201	003023'	332640	003632'		SKIPE LST,ILIST
  1202	003024'	260740	003044'		PUSHJ P,PRLP
  1203	003025'	336640	003645'		SKIPN LST,OLIST
  1204	003026'	254000	003032'		JRST NOOLST
  1205	003027'	260740	003265'		PUSHJ P,GOSP
  1206	003030'	201600	003646'		MOVEI TOT,OTOT
  1207	003031'	260740	003044'		PUSHJ P,PRLP
  1208	003032'	260740	003227'	NOOLST:	PUSHJ P,CRLF
  1209	003033'	332300	003632'		SKIPE T1,ILIST
  1210	003034'	550306	000000		HRRZ T1,(T1)
  1211	003035'	202300	003632'		MOVEM T1,ILIST
  1212	003036'	332340	003645'		SKIPE T2,OLIST
  1213	003037'	550347	000000		HRRZ T2,(T2)
  1214	003040'	202340	003645'		MOVEM T2,OLIST
  1215	003041'	326340	003022'		JUMPN T2,LSTPR
  1216	003042'	326300	003022'		JUMPN T1,LSTPR
SZRPT - PRINT SORTED LIST OF USERS STRAGE	MACRO 12.4-46.0 15:43 15-MAR-79 PAGE 1-24
SZRPT.MAC	 7-MAR-79 08:35

  1217	003043'	263740	000000		POPJ P,
  1218
  1219	003044'	200315	000001	PRLP:	MOVE T1,1(LST)
  1220	003045'	332000	003402'		SKIPE ACUMPC		;DON'T ACCUMULATE FOR FILES, USER
  1221	003046'	273314	000001		ADDB T1,1(TOT)
  1222	003047'	221300	000144		IMULI T1,^D100
  1223	003050'	230314	000000		IDIV T1,(TOT)
  1224	003051'	201400	000003		MOVEI L1,3
  1225	003052'	260740	003246'		PUSHJ P,DECPR
  1226	003053'	260740	003225'		PUSHJ P,SPC1
  1227	003054'	200315	000001		MOVE T1,1(LST)
  1228	003055'	201400	000005		MOVEI L1,5
  1229	003056'	260740	003246'		PUSHJ P,DECPR
  1230	003057'	200315	000006		MOVE T1,6(LST)
  1231	003060'	201400	000004		MOVEI L1,4
  1232	003061'	260740	003246'		PUSHJ P,DECPR
  1233	003062'	260740	003225'		PUSHJ P,SPC1
  1234	003063'	336015	000003		SKIPN 3(LST)	;IS THERE A DUL ENTRY??
  1235	003064'	254000	003153'		JRST NODUL
  1236	003065'	202000	003360'	QT:     MOVEM   0,SAVBLK                ;MOVE ZERO FIRST
  1237	003066'	200000	004331'	        MOVE    0,[1,,SAVBLK+1]         ;SET MOVE ADR
  1238	003067'	251000	003377'	        BLT     0,SAVBLK+17     ;BLT TO MEM
  1239	003070'	200315	000001	        MOVE    N,1(LST)        ;BLOCKS USED
  1240	003071'	202300	003637'	        MOVEM   N,LASBOP#       ;SAVE BLOCKS USED
  1241	003072'	200315	000003	        MOVE    N,3(LST)
  1242	003073'	200355	000004	        MOVE    N1,4(LST)       ;NAME
  1243	003074'	260740	002272'	        PUSHJ   P,CHKLUD
  1244	003075'	402000	003637'	        SETZM   LASBOP          ;NO ENTRY NO USED BLKS
  1245	003076'	200300	003640'	        MOVE    N,LASLOQ#       ;LAST LOGOUT QUOTA
  1246	003077'	201400	000006	        MOVEI   L1,6            ; 6 FOR SPACING
  1247	003100'	260740	003246'	        PUSHJ   P,DECPR         ;GO PUT OUT QUOTA
  1248	003101'	260740	003141'	        PUSHJ   P,FLAGIT        ;GO MARK SPACE WITH #
  1249	003102'	260740	003225'	        PUSHJ   P,SPC1        ;PRINT IT
  1250	003103'	201355	000003	        MOVEI   T2,3(LST)       ;SET UP NAME
  1251	003104'	260740	003205'	        PUSHJ   P,SIXPR         ;PRINT NAME
  1252	003105'	200300	003637'	        MOVE    N,LASBOP        ;GET FROM MEM
  1253	003106'	313300	003640'	        CAMLE   N,LASLOQ        ;SKIP IF LESS THAN LOGOUT QUOTA
  1254	003107'	260740	003114'	        PUSHJ   P,SHARP         ;ELSE PRINT ###
  1255	003110'	200000	004332'	QT1:    MOVE    0,[SAVBLK+1,,1];RESTORE REGS
  1256	003111'	251000	000017	        BLT     0,17            ;GET FROM CORE
  1257	003112'	200000	003360'	        MOVE    0,SAVBLK        ;GET REG ZERO
  1258	003113'	263740	000000		POPJ P,
  1259	003114'	202200	003626'	SHARP:  MOVEM   D,DSAV#         ;SAVE D REG
  1260	003115'	202300	004033'	        MOVEM   T1,T1SAV#       ;PRECAUTION
  1261	003116'	260740	003225'	        PUSHJ   P,SPC1          ;ONE SPACE
  1262	003117'	200300	004012'	        MOVE    T1,POSIT        ;KEEP TRACK OF WHERE WE ARE
  1263	003120'	305300	000041	        CAIGE   T1,^D33         ;33RDOSITION
  1264	003121'	254000	003116'	        JRST    SHARP+2         ;GO-AROUND UNTIL WE GET TO 36
  1265	003122'	200300	003637'	        MOVE    T1,LASBOP       ;NUMBER OF BLOCKS USED BY WHOMEVER
  1266	003123'	200200	003640'	        MOVE    D,LASLOQ        ;LAST LOGGED OUT QUOTA
  1267	003124'	274300	000004	        SUB     T1,D            ;SUB LOGGED OUT BLKS FROM CURRENT BLKS
  1268	003125'	260740	003131'	        PUSHJ   P,OUTDEC        ;PRINT VALUE
  1269	003126'	200300	004033'	        MOVE    T1,T1SAV        ;GIVE BACK ORIGINAL CONTENTS
SZRPT - PRINT SORTED LIST OF USERS STRAGE	MACRO 12.4-46.0 15:43 15-MAR-79 PAGE 1-25
SZRPT.MAC	 7-MAR-79 08:35

  1270	003127'	200200	003626'	        MOVE    D,DSAV          ;RESTORE D
  1271	003130'	263740	000000	        POPJ    P,              ;RET
  1272
  1273	003131'	231300	000012	OUTDEC: IDIVI   T1,^D10         ;DIVIDE BY RADIX
  1274	003132'	261740	000007	        PUSH    P,T2            ;SAVE REMAINDER IN PDL
  1275	003133'	332000	000006	        SKIPE   T1              ;ANYTHING LEFT TO DIVIDE?
  1276	003134'	260740	003131'	        PUSHJ   P,OUTDEC        ;YES, DO IT AGAIN
  1277
  1278	003135'	262740	000006	OUTDE1: POP     P,T1            ;GET LAST DIGIT BACK
  1279	003136'	271300	000060	        ADDI    T1,60           ;COVERT TO ASCII #
  1280	003137'	260740	003173'	        PUSHJ   P,OUT1          ;AND PRINT
  1281	003140'	263740	000000	        POPJ    P,              ;RETURN TO SHARP 10
  1282	003141'	202300	004033'	FLAGIT: MOVEM   T1,T1SAV        ;SAVE REG
  1283	003142'	200300	003637'	        MOVE    N,LASBOP        ;LAST BLOCKS
  1284	003143'	313300	003640'	        CAMLE   N,LASLOQ        ;IS IT LESS THAN QUOTA?
  1285	003144'	254000	003146'	        JRST    .+2
  1286	003145'	263740	000000	        POPJ    P,              ;RETURN AND PRINT BLANK
  1287	003146'	201300	000076	        MOVEI   T1,">"         ;LOAD REG
  1288	003147'	260740	003173'	        PUSHJ   P,OUT1          ;PRINT #
  1289	003150'	200300	004033'	        MOVE    T1,T1SAV
  1290	003151'	350017	000000	        AOS     (P)             ;THIS TO NOT PRINT EXTRA BLANK
  1291	003152'	263740	000000	        POPJ    P,
  1292
  1293	003153'	201340	004333'	NODUL:	MOVEI T2,[ASCIZ /NO DUL ENTRY FOR [/]
  1294	003154'	260740	003240'		PUSHJ P,OUTASC
  1295	003155'	554315	000002		HLRZ T1,2(LST)
  1296	003156'	260740	003262'		PUSHJ P,OUTOCT
  1297	003157'	201300	000054		MOVEI T1,","
  1298	003160'	260740	003173'		PUSHJ P,OUT1
  1299	003161'	550315	000002		HRRZ T1,2(LST)
  1300	003162'	260740	003262'		PUSHJ P,OUTOCT
  1301	003163'	201300	000135		MOVEI T1,"]"
  1302	003164'	260740	003173'		PUSHJ P,OUT1
  1303	003165'	263740	000000		POPJ P,
  1304
  1305	003166'	201300	000007	TAB:	MOVEI T1,7
  1306	003167'	270300	004012'		ADD T1,POSIT
  1307	003170'	620300	000007		TRZ T1,7
  1308	003171'	202300	004012'		MOVEM T1,POSIT
  1309	003172'	201300	000011		MOVEI T1,11
  1310	003173'	377000	003643'	OUT1:	SOSG LPTBUF+2
  1311	003174'	067140	000000		OUTPUT LPT,0
  1312	003175'	136300	003642'		IDPB T1,LPTBUF+1
  1313	003176'	302300	000014		CAIE	T1,14
  1314	003177'	306300	000015		CAIN T1,15
  1315	003200'	263740	000000		POPJ P,
  1316	003201'	350000	004012'		AOS POSIT
  1317	003202'	306300	000012		CAIN T1,12
  1318	003203'	402000	004012'		SETZM POSIT#
  1319	003204'	263740	000000		POPJ P,
  1320
  1321	003205'	201400	000014	SIXPR:	MOVEI L1,^D12
  1322	003206'	505340	440600		HRLI T2,(POINT 6,0)
SZRPT - PRINT SORTED LIST OF USERS STRAGE	MACRO 12.4-46.0 15:43 15-MAR-79 PAGE 1-26
SZRPT.MAC	 7-MAR-79 08:35

  1323	003207'	201440	000000		MOVEI L2,0
  1324	003210'	134300	000007	SXLP:	ILDB T1,T2
  1325	003211'	322300	003217'		JUMPE T1,SPACE
  1326	003212'	326440	003220'		JUMPN L2,OSPACE
  1327	003213'	271300	000040	SXLP2:	ADDI T1," "
  1328	003214'	260740	003173'		PUSHJ P,OUT1
  1329	003215'	367400	003210'	SXLP1:	SOJG L1,SXLP
  1330	003216'	263740	000000		POPJ P,
  1331
  1332	003217'	344440	003215'	SPACE:	AOJA L2,SXLP1
  1333
  1334	003220'	260740	003225'	OSPACE:	PUSHJ P,SPC1
  1335	003221'	367440	003220'		SOJG L2,OSPACE
  1336	003222'	135300	000007		LDB T1,T2
  1337	003223'	254000	003213'		JRST SXLP2
  1338
  1339	003224'	260740	003225'	SPC2:	PUSHJ P,SPC1
  1340	003225'	201300	000040	SPC1:	MOVEI T1," "
  1341	003226'	254000	003173'		JRST OUT1
  1342
  1343	003227'	335000	003651'	CRLF:   SKIPGE  PAG1FL
  1344	003230'	254000	003237'	         JRST   GO2
  1345	003231'	350000	003651'	        AOS     PAG1FL
  1346	003232'	202340	004034'	        MOVEM   T2,T2S#
  1347	003233'	200340	003651'	        MOVE    T2,PAG1FL
  1348	003234'	301340	000074	        CAIL    T2,^D60
  1349	003235'	047000	000012	         EXIT
  1350	003236'	200340	004034'	        MOVE    T2,T2S
  1351				GO2:    MOVEI T2,[ASCIZ /
  1352	003237'	201340	004202'	/]
  1353	003240'	505340	440700	OUTASC:	HRLI T2,(POINT 7,0)
  1354	003241'	134300	000007	OA1:	ILDB T1,T2
  1355	003242'	322300	002412'		JUMPE T1,CPOPJ
  1356	003243'	260740	003173'		PUSHJ P,OUT1
  1357	003244'	254000	003241'		JRST OA1
  1358
  1359	003245'	201400	000000	DECPR1:	MOVEI L1,0
  1360	003246'	201240	000012	DECPR:	MOVEI PTR,^D10
  1361	003247'	230300	000005	ANRAD:	IDIV T1,PTR
  1362	003250'	506357	000000		HRLM T2,(P)
  1363	003251'	275400	000001		SUBI L1,1
  1364	003252'	332000	000006		SKIPE T1
  1365	003253'	260740	003247'		PUSHJ P,ANRAD
  1366	003254'	323400	003257'		JUMPLE L1,ANRAD1
  1367	003255'	260740	003225'		PUSHJ P,SPC1
  1368	003256'	367400	003255'		SOJG L1,.-1
  1369	003257'	554317	000000	ANRAD1:	HLRZ T1,(P)
  1370	003260'	271300	000060		ADDI T1,"0"
  1371	003261'	254000	003173'		JRST OUT1
  1372
  1373	003262'	201240	000010	OUTOCT:	MOVEI PTR,10
  1374	003263'	201400	000000		MOVEI L1,0
  1375	003264'	254000	003247'		JRST ANRAD
SZRPT - PRINT SORTED LIST OF USERS STRAGE	MACRO 12.4-46.0 15:43 15-MAR-79 PAGE 1-27
SZRPT.MAC	 7-MAR-79 08:35

  1376
  1377
  1378	003265'	260740	003225'	GOSP:	PUSHJ P,SPC1
  1379	003266'	200300	004012'		MOVE T1,POSIT
  1380	003267'	305300	000051		CAIGE T1,^D41          ;NUMBER OF SPACES TO OUTHOUSE
  1381	003270'	254000	003265'		JRST GOSP
  1382	003271'	263740	000000		POPJ P,
  1383	003272'	201300	000014	PRDATE: MOVEI	T1,14
  1384	003273'	260740	003173'	        PUSHJ	P,OUT1
  1385	003274'	047300	000014		DATE T1,
  1386	003275'	231300	000037		IDIVI T1,^D31
  1387	003276'	261740	000006		PUSH P,T1
  1388	003277'	201307	000001		MOVEI T1,1(T2)
  1389	003300'	260740	003245'		PUSHJ P,DECPR1
  1390	003301'	262740	000006		POP P,T1
  1391	003302'	231300	000014		IDIVI T1,^D12
  1392	003303'	261740	000006		PUSH P,T1
  1393	003304'	200347	003344'		MOVE T2,MONTAB(T2)
  1394	003305'	260740	003240'		PUSHJ P,OUTASCC
  1395	003306'	262740	000006		POP P,T1
  1396	003307'	271300	003654		ADDI T1,^D1964         ;PLUS 1900 TO PRINT FULL YEAR
  1397	003310'	260740	003245'		PUSHJ P,DECPR1
  1398	003311'	260740	003166'		PUSHJ P,TAB
  1399	003312'	047300	000023		MSTIME T1,
  1400	003313'	231300	165140		IDIVI T1,^D60000
  1401	003314'	231300	000074		IDIVI T1,^D60
  1402	003315'	261740	000007		PUSH P,T2
  1403	003316'	260740	003245'		PUSHJ P,DECPR1
  1404	003317'	201300	000072		MOVEI T1,":"
  1405	003320'	260740	003173'		PUSHJ P,OUT1
  1406	003321'	262740	000006		POP P,T1
  1407	003322'	260740	003335'		PUSHJ P,ODEC1
  1408	003323'	201340	004337'	        MOVEI   T2,[ASCIZ /  ** /]
  1409	003324'	260740	003240'	        PUSHJ   P,OUTASC
  1410	003325'	201340	000011	        MOVEI   T2,11
  1411	003326'	047340	000041	        GETTAB  T2,
  1412	003327'	254200	000000	         HALT
  1413	003330'	404340	004341'	        AND     T2,[777777,,700000]
  1414	003331'	202340	004032'	        MOVEM   T2,SYSNUM#
  1415	003332'	201340	004032'	        MOVEI   T2,SYSNUM
  1416	003333'	260740	003240'	        PUSHJ   P,OUTASC
  1417	003334'	254000	003227'		JRST CRLF
  1418
  1419	003335'	301300	000012	ODEC1:	CAIL T1,^D10
  1420	003336'	254000	003245'		JRST DECPR1
  1421	003337'	261740	000006		PUSH P,T1
  1422	003340'	201300	000060		MOVEI T1,"0"
  1423	003341'	260740	003173'		PUSHJ P,OUT1
  1424	003342'	262740	000006		POP P,T1
  1425	003343'	254000	003245'		JRST DECPR1
  1426
  1427					DEFINE DATES(A)
  1428				<IRP A <[ASCIZ /-A-/]>>
SZRPT - PRINT SORTED LIST OF USERS STRAGE	MACRO 12.4-46.0 15:43 15-MAR-79 PAGE 1-28
SZRPT.MAC	 7-MAR-79 08:35

  1429	003344'			MONTAB:	DATES <JAN,FEB,MAR,APR,MAY,JUN,JUL,AUG,SEP,OCT,NOV,DEC>^IRP
  1430	003344'	000000	004342'	[ASCIZ /-JAN-/]
  1431	003345'	000000	004344'	[ASCIZ /-FEB-/]
  1432	003346'	000000	004346'	[ASCIZ /-MAR-/]
  1433	003347'	000000	004350'	[ASCIZ /-APR-/]
  1434	003350'	000000	004352'	[ASCIZ /-MAY-/]
  1435	003351'	000000	004354'	[ASCIZ /-JUN-/]
  1436	003352'	000000	004356'	[ASCIZ /-JUL-/]
  1437	003353'	000000	004360'	[ASCIZ /-AUG-/]
  1438	003354'	000000	004362'	[ASCIZ /-SEP-/]
  1439	003355'	000000	004364'	[ASCIZ /-OCT-/]
  1440	003356'	000000	004366'	[ASCIZ /-NOV-/]
  1441	003357'	000000	004370'	[ASCIZ /-DEC-/]
  1442
  1443
  1444	003360'			SAVBLK: BLOCK 20                ;FOR SAVING REGS
  1445			000000'		END STPT
  1446
NO ERRORS DETECTED
PROGRAM BREAK IS 004372
3K CORE USED
SZRPT - PRINT SORTED LIST OF USERS STRAGE	MACRO 12.4-46.0 15:43 15-MAR-79 PAGE 2
SZRPT.MAC	 7-MAR-79 08:35		SYMBOL TABLE

A		000001	SPD	DULIN		002242'		HEDSIZ		002557'		N1		000007	SPD
ACGFLG		003400'		DULNAM		002127'		HEDUSR		002561'		NAM		000001
ACSFLG		003401'		DULP		002244'		IGNORE		002411'		NAMACC		000230'
ACTCOM		002573'		E		000005	SPD	ILIST		003632'		NAMLN		000011	SPD
ACTEOL		002701'		ENDNM		000657'		INA		000074'		NAMUSR		000562'
ACTNOI		002662'		ERRMFD		002145'		INCHRS	051100	000000		NEDDST		003644'
ACTSR		002666'		ERRUFD		002141'		INCHRW	051000	000000		NMDON		000372'
ACTSUP		020000	SPD	EXIT	047000	000012		INCHWL	051200	000000		NMLP		000133'
ACUMPC		003402'		EXT		000002		INHOU1		002351'		NMTB		000144'
ANRAD		003247'		FDUL		002255'		INHOUP		002341'		NOCR		002231'
ANRAD1		003257'		FIL		000006	SPD	INHOUS		002343'		NODSK		000765'
B		000002	SPD	FILSW		003631'		INNAM		003633'		NODUL		003153'
BLKLNK		002325'		FLAGIT		003141'		ISLET		000205'		NOFIL		000417'
BP		000011	SPD	FLGDO		002161'		ITOT		003634'		NOLIC		000030'
BUF		003403'		FLGIN		002153'		JOBFF		002411'	EXT	NOLUD		000542'
BYACNT		002431'		FLGOUT		002156'		JOBREL		002224'	EXT	NOLUD1		000554'
BYDIST		002441'		FNAM		000411'		JOBVER		000137	SIN	NOLUD2		000547'
BYFILE		002450'		FNDLUD		002331'		L1		000010		NONAM		000166'
BYSIZ		002420'		GETANM		000505'		L2		000011		NONNAM		000173'
BYUSR		002457'		GETANU		000451'		LASBOP		003637'		NOOLST		003032'
C		000003	SPD	GETCHR		000257'		LASLOQ		003640'		NOOUT		000767'
CHKLUD		002272'		GETDNU		000467'		LDST		000001	SPD	NOSYS		000771'
CHRCHK		002204'		GETFIL		000265'		LHUN		000004	SPD	NOUSR		000355'
CKLET		000621'		GETFL1		000271'		LICOK		000033'		NUMACC		000223'
CLRBFI	051440	000000		GETFL2		000304'		LICTAB	777777	777760	SPD	NUMDST		000215'
CMPTB		003603'		GETFL3		000302'		LLINK		000002	SPD	OA1		003241'
COM		002133'		GETFL4		000313'		LNK		000016		ODEC1		003335'
COMCHG		002424'		GETFL5		000324'		LNK2		000004		OLIST		003645'
COMPR		002413'		GETMFD		000735'		LOKFIL		000330'		ONAM		000773'
COMPR1		002414'		GETNAM		000725'		LOKFL1		000333'		OPRLIC		100000	SPD
CORE	047000	000011		GETSRT		000120'		LPPN		000000	SPD	OSPACE		003220'
CPOPJ		002412'		GETTAB	047000	000041		LPRV		000003	SPD	OTOT		003646'
CPOPJ1		002151'		GETUFD		000751'		LPT		000003	SPD	OUT1		003173'
CRLF		003227'		GETUSN		000565'		LPTBUF		003641'		OUTASC		003240'
D		000004	SPD	GO2		003237'		LS		000012		OUTCHR	051040	000000
DAT		000004		GOA		000100'		LST		000015		OUTDE1		003135'
DATE	047000	000014		GOSP		003265'		LSTPR		003022'		OUTDEC		003131'
DECPR		003246'		GTANLD		000540'		LUD		000005	SPD	OUTDO		002172'
DECPR1		003245'		GTANM1		000512'		LUDHSH		001567	SPD	OUTH1		002366'
DEPFL1		000246'		GTANM2		000525'		LUDNAM		002135'		OUTHP		002356'
DEPFLG		000237'		GTANU1		000456'		MFD		000001	SPD	OUTOCT		003262'
DIBUF		003623'		GTDNU1		000474'		MFDARG		001003'		OUTSTR	051140	000000
DONE		002514'		GTMFD1		000746'		MFDBF		000012		P		000017
DSAV		003626'		GTUFD1		000762'		MFDBLK		001013'		PAG1FL		003651'
DSGFLG		003627'		GTUNM1		000572'		MFDCNT		001012'		PATCH		003652'
DST0		002504'		GTUNM2		000604'		MFDNM		000777'		PDL		003752'
DSTCOM		002713'		GTUSLD		000617'		MFLP		000676'		PNTIT		002544'
DSTFLG		003630'		HEADR		002551'		MFLP1		000677'		POSIT		004012'
DSTNOI		002765'		HEADR1		002552'		MONTAB		003344'		PRDATE		003272'
DSTSR		002771'		HEDAC1		002645'		MONWD		001423'		PRLP		003044'
DUL		000004	SPD	HEDACT		002563'		MONWRD		001007'		PRVTAB		000006	SPD
DULCK		002252'		HEDDST		002704'		MSTIME	047000	000023		PTR		000005
DULHSH		000145	SPD	HEDFIL		002561'		N		000006	SPD	QT		003065'
SZRPT - PRINT SORTED LIST OF USERS STRAGE	MACRO 12.4-46.0 15:43 15-MAR-79 PAGE 2-2
SZRPT.MAC	 7-MAR-79 08:35		SYMBOL TABLE

QT1		003110'		TAB		003166'
RDFLIC		000012	SPD	TOT		000014
RDNAM		000423'		TTGNC		000064'
RDNM1		000426'		TYMPRO		040000	SPD
RDNUM		000441'		UFD		000002	SPD
RDNUM1		000442'		UFDARG		001417'
REFNM		000415'		UFDBF		000013
RND		002373'		UFDBLK		001427'
RND1		002376'		UFDCNT		001426'
RND2		002407'		UFDLC		001415'
SAVBLK		003360'		UFDNM		001413'
SAVCHR		004013'		UFLP		000710'
SAVKA		004014'		UFLP1		000714'
SAVKBP		004015'		UN1TAB	777777	777757	SPD
SCANNM		000175'		UNMTAB	777777	777756	SPD
SCNSTR		000177'		USCK2		002465'
SEPFLG		004016'		USGFLG		004035'
SEPTOT		003003'		USR		004036'
SETACS		000642'		USRFLG		004040'
SETDST		000637'		WD		000010	SPD
SETFLG		000235'		WTLN		000633'
SETLIC	777777	777770	SPD	ZRLFLG		004041'
SETLST		002221'
SHARP		003114'
SIXPR		003205'
SIZ		000003
SKIPSP		000253'
SKPSP1		000255'
SORT		002473'
SORTSC		000130'
SPACE		003217'
SPC1		003225'
SPC2		003224'
SRTTB		000155'
SRUS0		002314'
SRUSR		002315'
ST0		002473'
ST2		002477'
STPT		000000'
STRTEX		001425'
STRTNM		001424'
SVAC		004017'
SVLIC		004031'
SXLP		003210'
SXLP1		003215'
SXLP2		003213'
SYSNUM		004032'
T1		000006
T1SAV		004033'
T2		000007
T2S		004034'

SZRPT - PRINT SORTED LIST OF USERS STRAGE	MACRO 12.4-46.0 15:43 15-MAR-79
SZRPT.MAC	 7-MAR-79 08:35		Symbol cross reference

A	   806#	   821	   833	   837	   838	   841	   843	   844	   845	   846	   847	   848	   909
ACGFLG	   158#	   158	   249	   255	   565
ACSFLG	    79#	    79	   124	   197	   239	   246	   252	   424	   462	   558
ACTCOM	  1042	  1046#	  1104
ACTEOL	  1107	  1110	  1118#	  1176	  1178
ACTNOI	  1039	  1101#
ACTSR	  1056	  1059	  1106#	  1116
ACTSUP	    50#	    92
ACUMPC	  1031#	  1031	  1035#	  1035	  1220
ANRAD	  1361#	  1365	  1375
ANRAD1	  1366	  1369#
B	   807#	   822	   829	   851	   853	   854	   855	   858	   859	   898	   901	   906
BLKLNK	   852	   858#
BP	   454	   455	   476	   477	   508	   509	   814#	   816	   818	   819	   820	   839	   840	   842
	   849	   870	   871	   884	   885	   900	   910
BUF	    55#	   453	   507	   555	   689	   779	   837	   840	   845	   851	   853	   862	   867
BYACNT	   189	   933#
BYDIST	   543	   942#
BYFILE	   187	   950#
BYSIZ	   186	   561	   923#
BYUSR	   190	   958#
C	   808#	   823	   829	   830	   833	   903	   907	   909
CHKLUD	   451	   505	   553	   801	   818#	  1243
CHRCHK	   150	   739#
CKLET	   227	   235	   526#
CMPTB	    55#	   168	   562	   563	   918	   920	  1027
COM	   689#	   778	   835	   860
COMCHG	   927#	   938	   946	   954	   962	   969
COMPR	   917#	   982
COMPR1	   918#	   925	   936	   944	   952	   967
CPOPJ	   157	   858	   914#	  1355
CPOPJ1	   706#	   850	   882	   896
CRLF	   574	  1010	  1011	  1016	  1017	  1060	  1083	  1084	  1142	  1165	  1166	  1198	  1199	  1208
	  1343#	  1417
D	   809#	   901	   902	  1259	  1266	  1267	  1270
DAT	    15#
DECPR	  1225	  1229	  1232	  1247	  1360#
DECPR1	  1004	  1009	  1068	  1072	  1080	  1146	  1150	  1154	  1162	  1186	  1190	  1193	  1197	  1359#
	  1389	  1397	  1403	  1420	  1425
DEPFL1	   264	   268#
DEPFLG	   261#	   420	   436	   458	   511	   557
DIBUF	   303	   311	   312	   315	   322	   323	   362	   376#
DONE	   577	   699	   704	   995#
DSAV	  1259#	  1259	  1270
DSGFLG	   159#	   159	   243	   564
DST0	   981	   986#
DSTCOM	  1125	  1128#	  1173
DSTFLG	    78#	    78	   440	   872	   886
DSTNOI	  1122	  1170#
DSTSR	  1138	  1141	  1175#	  1184
DUL	     7#	   105	   118	   777	   778	   788
DULCK	   781	   787#
DULHSH	    41#	   776
SZRPT - PRINT SORTED LIST OF USERS STRAGE	MACRO 12.4-46.0 15:43 15-MAR-79
SZRPT.MAC	 7-MAR-79 08:35		Symbol cross reference

DULIN	   778#	   789
DULNAM	   118	   684#
DULP	   780#	   785
E	   810#	   903
ENDNM	   162	   560#
ERRMFD	   615	   701#
ERRUFD	   628	   696#
EXT	    13#	   258	   271	   424	   440	   462	   463	   515	   516	   558	   578	   606
FDUL	   783	   791#
FIL	    10#	   305	   306	   360	   364	   366	   383	   467	   520
FILSW	    80#	    80	   279	   367	   372	   464	   466	   517	   519
FLAGIT	  1248	  1282#
FLGDO	   716#	   995
FLGIN	   146	   708#
FLGOUT	   143	   712#
FNAM	   328	   329	   330	   340	   348	   358	   364	   375#
FNDLUD	   803	   862#
GETANM	   254	   442#	   465	   469
GETANU	   248	   411#
GETCHR	   276	   279#	   369	   390	   403	   417	   433	   448	   502	   539
GETDNU	   242	   427#
GETFIL	   280	   285#
GETFL1	   286	   290#
GETFL2	   290	   294	   303#	   318	   324
GETFL3	   291	   295	   300#
GETFL4	   304	   307	   311#
GETFL5	   314	   321#
GETMFD	   575	   611#
GETNAM	   576	   589	   602#
GETSRT	   125	   149	   152#	   173	   211	   222
GETUFD	   585	   624#
GETUSN	   492	   496#	   518	   522
GO2	  1344	  1351#
GOA	   132	   135#
GOSP	  1191	  1205	  1378#	  1381
GTANLD	   452	   471#
GTANM1	   448#	   461
GTANM2	   459#	   472
GTANU1	   417#	   423
GTDNU1	   433#	   439
GTMFD1	   612	   620#
GTUFD1	   625	   633#
GTUNM1	   502#	   514
GTUNM2	   512#	   525
GTUSLD	   506	   524#
HEADR	  1019	  1024#
HEADR1	  1025#	  1089
HEDAC1	  1088#	  1093	  1169
HEDACT	   932	  1038#
HEDDST	   941	  1121#
HEDFIL	   949	  1034#
HEDSIZ	   922	  1031#
HEDUSR	   957	  1035#
SZRPT - PRINT SORTED LIST OF USERS STRAGE	MACRO 12.4-46.0 15:43 15-MAR-79
SZRPT.MAC	 7-MAR-79 08:35		Symbol cross reference

IGNORE	   877	   891	   913#
ILIST	   567#	   567	   727	   879	   881	   996	  1020	  1038	  1055	  1092	  1095	  1121	  1137	  1201
	  1209	  1211
INA	   131#	   134
INHOU1	   873	   878#
INHOUP	   802	   870#
INHOUS	   787	   798	   866	   872#
INNAM	   604#	   604
ISLET	   228	   231#	   236
ITOT	    55#	   569	   571	   730	   733	   878	  1002	  1007	  1025	  1046	  1047	  1048	  1049	  1054
	  1066	  1070	  1074	  1098	  1099	  1128	  1129	  1130	  1131	  1136	  1148	  1152	  1156	  1185
	  1189	  1200
JOBFF	    59%	   258	   262	   269	   270	   760	   762	   913
JOBREL	    59%	   263	   763
JOBVER	    61	    63#	    64
L1	    24#	   128	   129	   131	   133	   137	   138	   139	   141	   142	   144	   145	   147	   148
	   156	   225	   229	   231	   233	   234	   261	   262	   263	   265	   266	   268	   274	   281
	   282	   285	   291	   292	   295	   296	   297	   300	   308	   312	   313	   315	   316	   317
	   321	   322	   326	   332	   341	   343	   349	   351	   353	   391	   392	   393	   395	   396
	   398	   399	   404	   405	   408	   422	   438	   460	   513	   526	   527	   528	   529	   532
	   533	   537	   743	   744	   746	   747	   751	   927	   929	   978	   986	   988	  1224	  1228
	  1231	  1246	  1321	  1329	  1359	  1363	  1366	  1368	  1374
L2	    25#	   335	   339	   340	   346	   356	   397	   404	   407	   418	   434	   449	   479	   484
	   488	   503	   927	   979	   980	   983	  1024	  1027	  1087	  1088	  1090	  1169	  1323	  1326
	  1332	  1335
LASBOP	  1240#	  1240	  1244	  1252	  1265	  1283
LASLOQ	   847#	   847	  1245#	  1245	  1253	  1266	  1284
LDST	    47#	   862
LHUN	    43#	   837
LICOK	    88	    97#	   559
LICTAB	    34#	    82
LLINK	    45#	   840	   853
LNK	    31#	   602	   605	   607	   622	   635	   917	   918	   920	   925	   936	   944	   952	   967
	  1056	  1059	  1120	  1138	  1141
LNK2	    18#	   575	   585	   602	   605	   607
LOKFIL	   325#	   413	   429	   444	   498
LOKFL1	   328#	   386
LPPN	    44#	    48#	   453	   507	   555	   851
LPRV	    46#	   867
LPT	     6#	   111	   115	   116	  1311
LPTBUF	    55#	   113	  1310	  1312
LS	    26#	   976	   978	   989	   991	   992	   996	   998
LST	    30#	   154	   168	   169	   562	   563	   593	   594	   760	   769	   770	   771	   772	   773
	   775	   792	   794	   799	   800	   864	   874	   880	   881	   888	   894	   895	   913	  1055
	  1058	  1106	  1115	  1118	  1119	  1137	  1140	  1175	  1183	  1201	  1203	  1219	  1227	  1230
	  1234	  1239	  1241	  1242	  1250	  1295	  1299
LSTPR	  1032	  1036	  1200#	  1215	  1216
LUD	     8#	    71	    75	   834	   835	   859	   860
LUDHSH	    42#	   832
LUDNAM	    75	   692#
MFD	     4#	   101	   110	   120	   613	   701
MFDARG	   614	   660#
MFDBF	    20#	    55#	   103	   616	   620	   621
SZRPT - PRINT SORTED LIST OF USERS STRAGE	MACRO 12.4-46.0 15:43 15-MAR-79
SZRPT.MAC	 7-MAR-79 08:35		Symbol cross reference

MFDBLK	   620	   660	   668#
MFDCNT	   611	   617	   619	   667#
MFDNM	   120	   656#
MFLP	   575#	   590
MFLP1	   576#	   579	   582	   584
MONTAB	  1393	  1429#
MONWD	   588	   678#
MONWRD	   664#
N	   337	   348	   358	   387	   388	   478	   482	   547	   548	   549	   799	   811#	   830	   831
	   832	   862	   863	   864	   867	   868	   898	   899	  1239	  1240	  1241	  1245	  1252	  1253
	  1283	  1284
N1	   338	   387	   480	   550	   551	   552	   800	   812#	   834	  1242
NAM	    12#	   388	   399	   478	   483	   485	   580	   603	   604
NAMACC	   193	   252#
NAMLN	   163	   184#
NAMUSR	   194	   492#
NEDDST	   155#	   155	   241	   542	   796
NMDON	   350	   354	   359#
NMLP	   164#	   165
NMTB	   164	   175#	   184
NOCR	   267	   764	   769#
NODSK	    74	   100	   104	   108	   363	   639#
NODUL	  1235	  1293#
NOFIL	   365	   381#
NOLIC	    94#	   554
NOLUD	   471	   474#	   524
NOLUD1	   481	   485#	   488
NOLUD2	   480#	   484
NONAM	   166	   196#	   240	   247	   253
NONNAM	   198	   214#
NOOLST	  1204	  1208#
NOOUT	   114	   117	   643#
NOSYS	    76	   119	   121	   647#
NOUSR	   333	   346#
NUMACC	   192	   246#
NUMDST	   191	   239#
OA1	  1354#	  1357
ODEC1	  1407	  1419#
OLIST	   568#	   568	   721	   726	   728	   893	   895	   998	  1021	  1041	  1058	  1091	  1094	  1101
	  1124	  1140	  1170	  1203	  1212	  1214
ONAM	   116	   651#
OPRLIC	    52#	    87
OSPACE	  1326	  1334#	  1335
OTOT	    55#	   570	   572	   722	   723	   729	   731	   732	   734	   892	  1003	  1008	  1026	  1050
	  1051	  1052	  1053	  1057	  1067	  1071	  1075	  1096	  1097	  1132	  1133	  1134	  1135	  1139
	  1149	  1153	  1157	  1192	  1196	  1206
OUT1	  1082	  1164	  1280	  1288	  1298	  1302	  1310#	  1328	  1341	  1356	  1371	  1384	  1405	  1423
OUTASC	  1001	  1006	  1015	  1062	  1144	  1188	  1195	  1294	  1353#	  1394	  1409	  1416
OUTDE1	  1278#
OUTDEC	  1268	  1273#	  1276
OUTDO	   720	   726#
OUTH1	   887	   892#
OUTHP	   869	   884#
SZRPT - PRINT SORTED LIST OF USERS STRAGE	MACRO 12.4-46.0 15:43 15-MAR-79
SZRPT.MAC	 7-MAR-79 08:35		Symbol cross reference

OUTOCT	  1064	  1296	  1300	  1373#
P	    32#	    77	   143	   146	   150	   151	   161	   170	   188	   196	   226	   227	   235	   237
	   238	   259	   261	   268	   272	   275	   276	   284	   288	   290	   293	   294	   298	   301
	   309	   319	   325	   327	   331	   334	   336	   342	   345	   347	   352	   355	   357	   359
	   369	   370	   371	   373	   390	   394	   403	   406	   413	   414	   415	   417	   419	   420
	   421	   429	   430	   431	   433	   435	   436	   437	   444	   445	   446	   448	   450	   451
	   453	   456	   458	   459	   468	   471	   491	   498	   499	   500	   502	   504	   505	   507
	   510	   511	   512	   521	   524	   531	   534	   535	   538	   539	   544	   553	   556	   557
	   560	   564	   565	   566	   573	   574	   576	   583	   589	   608	   609	   697	   702	   706
	   707	   710	   714	   717	   724	   735	   740	   742	   751	   801	   825	   826	   827	   828
	   911	   914	   919	   928	   930	   939	   947	   955	   963	   970	   977	   982	   995	   997
	   999	  1001	  1004	  1006	  1009	  1010	  1011	  1015	  1016	  1017	  1018	  1019	  1028	  1046
	  1048	  1050	  1052	  1060	  1062	  1064	  1065	  1068	  1069	  1072	  1073	  1077	  1078	  1080
	  1082	  1083	  1084	  1086	  1088	  1089	  1090	  1094	  1095	  1096	  1097	  1098	  1099	  1100
	  1102	  1118	  1128	  1130	  1132	  1134	  1142	  1144	  1146	  1147	  1150	  1151	  1154	  1155
	  1159	  1160	  1162	  1164	  1165	  1166	  1168	  1171	  1186	  1188	  1190	  1191	  1193	  1195
	  1197	  1198	  1202	  1205	  1207	  1208	  1217	  1225	  1226	  1229	  1232	  1233	  1243	  1247
	  1248	  1249	  1251	  1254	  1258	  1261	  1268	  1271	  1274	  1276	  1278	  1280	  1281	  1286
	  1288	  1290	  1291	  1294	  1296	  1298	  1300	  1302	  1303	  1315	  1319	  1328	  1330	  1334
	  1339	  1356	  1362	  1365	  1367	  1369	  1378	  1382	  1384	  1387	  1389	  1390	  1392	  1394
	  1395	  1397	  1398	  1402	  1403	  1405	  1406	  1407	  1409	  1416	  1421	  1423	  1424
PAG1FL	    70#	    70	   130	  1343	  1345	  1347
PATCH	    56#
PDL	    55#	    77
PNTIT	   745	  1013	  1019#	  1022
POSIT	  1262	  1306	  1308	  1316	  1318#	  1318	  1379
PRDATE	   573	  1383#
PRLP	  1202	  1207	  1219#
PRVTAB	    35#	    89
PTR	    16#	  1360	  1361	  1373
QT	  1236#
QT1	  1255#
RDFLIC	    53#	    87
RDNAM	   336	   347	   357	   387#	   450	   504
RDNM1	   390#	   397	   400
RDNUM	   402#	   419	   435
RDNUM1	   403#	   409
REFNM	   344	   378#
RND	   825	   826	   827	   828	   898#
RND1	   901#	   910
RND2	   904	   910#
SAVBLK	  1236	  1237	  1238	  1255	  1257	  1444#
SAVCHR	   285	   287	   296	   368#	   368
SAVKA	   838#	   838	   848
SAVKBP	   839#	   839	   849
SCANNM	   161	   223#
SCNSTR	   225#	   230
SEPFLG	   122#	   122	   140	   709	   712	   718	   739	   795	   865	  1012	  1085	  1167
SEPTOT	  1018	  1086	  1168	  1185#
SETACS	    93	   547#
SETDST	   188	   542#
SETFLG	   258#	   414	   430	   445	   499	   556
SETLIC	    39#	    96
SZRPT - PRINT SORTED LIST OF USERS STRAGE	MACRO 12.4-46.0 15:43 15-MAR-79
SZRPT.MAC	 7-MAR-79 08:35		Symbol cross reference

SETLST	   583	   760#
SHARP	  1254	  1259#	  1264
SIXPR	  1251	  1321#
SIZ	    14#	   591	   603	   606	   620	   633
SKIPSP	   274#	   277	   342	   352	   415	   421	   431	   437	   446	   459	   500	   512
SKPSP1	   276#	   325	   331	   334	   345	   355
SORT	   975#	   997	   999
SORTSC	   161#	   169	   244	   250	   256	   494
SPACE	  1325	  1332#
SPC1	  1069	  1073	  1151	  1155	  1226	  1233	  1249	  1261	  1334	  1339	  1340#	  1367	  1378
SPC2	  1065	  1147	  1339#
SRTTB	   167	   186#
SRUS0	   836#	   861
SRUSR	   837#	   856
ST0	   976#	   993
ST2	   980#	   984
STPT	    69#	  1445
STRTEX	   587	   680#
STRTNM	   586	   679#
SVAC	   454	   476	   508	   816#	   818	   819	   820	   870	   884
SVLIC	    85#	    85	    94
SXLP	  1324#	  1329
SXLP1	  1329#	  1332
SXLP2	  1327#	  1337
SYSNUM	  1414#	  1414	  1415
T1	    22#	    82	    83	    84	    85	    87	    94	    95	    96	   157	   158	   159	   160	   163
	   164	   165	   166	   167	   168	   186	   187	   189	   190	   224	   232	   233	   242	   243
	   248	   249	   254	   255	   269	   370	   371	   402	   407	   408	   456	   457	   468	   492
	   493	   510	   521	   543	   555	   561	   562	   591	   592	   593	   595	   613	   614	   626
	   627	   726	   727	   729	   730	   732	   733	   761	   762	   763	   765	   766	   774	   775
	   776	   780	   782	   787	   788	   791	   792	   793	   794	   872	   875	   876	   877	   879
	   880	   886	   889	   890	   891	   893	   894	   923	   933	   942	   950	   958	   965	   980
	   986	   987	   990	   991	  1002	  1003	  1007	  1008	  1027	  1029	  1038	  1040	  1041	  1043
	  1063	  1066	  1067	  1070	  1071	  1074	  1075	  1076	  1079	  1081	  1101	  1103	  1111	  1112
	  1113	  1114	  1121	  1123	  1124	  1126	  1127	  1145	  1148	  1149	  1152	  1153	  1156	  1157
	  1158	  1161	  1163	  1170	  1172	  1179	  1180	  1181	  1182	  1185	  1189	  1192	  1196	  1209
	  1210	  1211	  1216	  1219	  1221	  1222	  1223	  1227	  1230	  1260	  1262	  1263	  1265	  1267
	  1269	  1273	  1275	  1278	  1279	  1282	  1287	  1289	  1295	  1297	  1299	  1301	  1305	  1306
	  1307	  1308	  1309	  1312	  1313	  1314	  1317	  1324	  1325	  1327	  1336	  1340	  1354	  1355
	  1361	  1364	  1369	  1370	  1379	  1380	  1383	  1385	  1386	  1387	  1388	  1390	  1391	  1392
	  1395	  1396	  1399	  1400	  1401	  1404	  1406	  1419	  1421	  1422	  1424
T1SAV	  1260#	  1260	  1269	  1282	  1289
T2	    23#	    89	    90	    91	    92	   164	   223	   224	   617	   618	   619	   630	   631	   632
	   777	   779	   780	   784	   791	   793	   874	   875	   888	   889	   924	   926	   929	   934
	   943	   945	   951	   953	   959	   961	   966	   968	   976	   979	   987	   988	   989	   990
	  1000	  1005	  1014	  1061	  1077	  1078	  1079	  1106	  1108	  1111	  1113	  1115	  1143	  1159
	  1160	  1161	  1175	  1177	  1179	  1181	  1183	  1187	  1194	  1212	  1213	  1214	  1215	  1250
	  1274	  1293	  1322	  1324	  1336	  1346	  1347	  1348	  1350	  1351	  1353	  1354	  1362	  1388
	  1393	  1402	  1408	  1410	  1411	  1413	  1414	  1415
T2S	  1346#	  1346	  1350
T3	    27#	   485	   486	   487	   934	   935	   937	  1043	  1044	  1045	  1108	  1109
T4	    19#
TAB	  1305#	  1398
SZRPT - PRINT SORTED LIST OF USERS STRAGE	MACRO 12.4-46.0 15:43 15-MAR-79
SZRPT.MAC	 7-MAR-79 08:35		Symbol cross reference

TOT	    28#	   595	   596	   878	   892	  1054	  1057	  1112	  1114	  1136	  1139	  1180	  1182	  1200
	  1206	  1221	  1223
TTGNC	   122#	   752
TYMPRO	    49#	   868
UFD	     5#	    97	   109	   581	   626	   696
UFDARG	   627	   674#
UFDBF	    21#	    55#	    99	   629	   633	   634
UFDBLK	   633	   674	   682#
UFDCNT	   624	   630	   632	   681#
UFDLC	   580	   672#	   774	   782
UFDNM	   581	   670#
UFLP	   585#
UFLP1	   589#	   597
UN1TAB	    37#	   550
UNMTAB	    36#	   547
USCK2	   960	   965#
USGFLG	   160#	   160	   493	   566
USR	   337	   338	   339	   376#
USRFLG	    81#	    81	   515
WD	   453	   507	   555	   813#	   820	   824	   836	   837	   840	   844	   851	   853	   855	   862
	   867	   901	   903	   904	   905	   908
WTLN	   151	   170	   196	   359	   425	   441	   463	   516	   537#	   540	   560
ZRLFLG	   123#	   123	   708	   713	   716	   719	   741
SZRPT - PRINT SORTED LIST OF USERS STRAGE	MACRO 12.4-46.0 15:43 15-MAR-79
SZRPT.MAC	 7-MAR-79 08:35		Macro/Opdef cross reference

CLRBFI	   748
CORE	   266
DATE	  1385
DATES	  1428#	  1429
EXIT	  1023	  1349
GETTAB	    83	    90	   548	   551	  1411
INCHRS	   131
INCHRW	   281	   747
INCHWL	   128	   137	   156	   229	   234
MSTIME	  1399
OUTCHR	   487
OUTSTR	   126	   135	   152	   171	   199	   214	   378	   381	   384	   411	   427	   442	   474	   489
	   496	   749@'p