STATIC VERSION 1,1 - TYMSHARE SA10 DIAG ***STATIC TEST ONLY***	MACRO %52(551) 00:09 20-JAN-83 PAGE 1
STATIC	MAC	11-SEP-71 15:05

					TITLE STATIC VERSION 1,1 - TYMSHARE SA10 DIAG ***STATIC TEST ONLY***
							;AS OF 19-JAN-83

					;TYMSHARE PARAMETERS

			000300		BASE=300
			000200		TUNIT=200	;MAGTAPE ADDRESS
					;IDEV=300	;DISK ADDRESS

			000001		A=1
			000002		B=2
			000003		C=3
			000004		D=4
			000005		E=5
			000006		F=6
			000007		G=7
			000010		H=10
			000011		I=11
			000012		J=12
			000013		K=13
			000014		L=14
			000016		BF=16		; BUSY FLAGS, FOR LIGHT WATCHERS. B0-7 MEAN DRIVE
							;  0-7 WAITING FOR DEVICE END. RH IS MOST RECENT INT DV
			000017		P=17		; PUSHDOWN POINTER

			000013			TT=13
			000014			FORT=14
			000015			FT=15
			000016			ST=16
			000011			ELEV=11
			000010			TEN=10
					IFNDEF CV,<
					CV==1>		; 0 FOR B, 1 FOR C (HARDWARE POINTER LAYOUTS)
					IFLE CV,<
					CNTSFT==2>	;SHIFT IN LH FOR COUNT
					IFG CV,<
			000006		CNTSFT==6>	; ..
					IFNDEF EADR,<
					EADR==1>	;22 BIT ADDRESS FEATURE
					IFNDEF BASE,<
					BASE==300>	;CHNL 0 GO ADR
			000274		SA0==274	;DEVICE NUMBER OF SA-10
					;IDEV==300	;DEVICE TO USE FOR UCODE SIM
					;IFNDEF DCHAN,<DCHAN==1>		;DISK SUBCHANNEL
					;IFNDEF TCHAN,<TCHAN==0>		;TAPE SUBCHANNEL
					IFNDEF PCHAN,<PCHAN==1>		; PRINTER SUBCHANNEL
			000002		APRCH==2	;PI CH FOR TIME, PAR ERR, AND NXM
					IFNDEF RECL,<
					RECL==200>	;LENGTH OF RECORD ON DISK
			000022		NRPT==^D18	;NUMBER OF RECORDS PER TRACK
					IFNDEF NPACKS,<
					NPACKS==^D16>	;NUMBER OF DISK PACKS TO RUN IN DSKT
					IFNDEF NCHN,<
					NCHN==2>	;# OF CHANNELS SIMULATED BY THIS
							;  PARTICULAR SA-10 (2 OR 4)
STATIC VERSION 1,1 - TYMSHARE SA10 DIAG ***STATIC TEST ONLY***	MACRO %52(551) 00:09 20-JAN-83 PAGE 1-1
STATIC	MAC	11-SEP-71 15:05

			000001		SA0CH==1	;PI CHANNEL IN DISK ROUTINE
			000020		NBF==20		; # OF BYTES IN RING BUFFER (FIFO) IN EACH CHANNEL
			000010		NRETRY==^D8	; TIMES TO REREAD A CORRECTABLE DATA CHECK
			000100		NBADSP==100	; NUMBER OF BADSPOTS TO REMEMBER

					;MACROS FOR WORD POINTERS DEPENDING ON WHICH KIND OF SA10 (B OR C)

					IFE CV,<
						DEFINE IOW(CT,ADR)
						<-CT*4,,ADR>
						DEFINE IOWC(CT,ADR)
						<400000-CT*4,,ADR>>
					IFN CV,<
						DEFINE IOW(CT,ADR)
						<-CT*100,,ADR>
						DEFINE IOWC(CT,ADR)
						<400000-CT*100,,ADR>>

					;BITS FOR CONO
			400000		RSTSA==400000	;RESET WHOLE SCHMEER, START CLOCK
			200000		CLMERR==200000	;CLEAR MEMORY ERROR FLAGS
			001000		SASTEP==1000	;STOP CLOCK IF RUNNING; STEP IT IF STOPPED
			001040		SACGO==1040	;START CLOCK
			000300		RSTCH==300	;RESET CHANNEL SPECIFIED BY 10 AND 20 BITS
			000400		CLBSY==400	;CLEAR BUSY FLAG OF CHANNEL . . .
			000440		STBSY==440	;SET BUSY FLAG OF CHANNEL . . .
			000500		CLSRQ==500	;CLEAR STATUS REQUEST FLAG OF CHANNEL . . .
			000540		STSRQ==540	;SET STATUS REQUEST FLAG OF CHANNEL . . .
			000600		CLSTF==600	;CLEAR STATUS FLAG OF CHANNEL . . .
			000640		STSTF==640	;SET STATUS FLAG OF CHANNEL . . .
			000700		CLPIE==700	;CLEAR PI ENABLE OF CHANNEL . . .
			000740		STPIE==740	;SET PI ENABLE OF CHANNEL . . .

					;CERTAIN OF ABOVE BITS ALSO SELECT WHAT DIAGNOSTIC WORD WILL
					;BE READ BY THE NEXT DATAI TO BE EXECUTED, AS FOLLOWS:

			000000		RDCCI==0	;READ CHANNEL SELECTED (BITS 16, 17); CON-
							;TENTS OF CBUS (BITS 18-25); MICRO-PROGRAM
							;COUNTER (BITS 26-35)
			000010		RDMA==10	;READ MEMORY ADDRESS REGISTER (BITS 16-35)
			000020		RDMBL==20	;READ CHANNEL REFERENCING MEMORY (BITS 16,
							;17); LEFT HALF OF MEMORY BUFFER (BITS 18-
							;35).  THIS M.B. IS ONLY FOR DATA GOING
							;TOWARDS THE MEMORY.
			000030		RDMBR==30	;READ PARITY BIT OF MEMORY BUFFER (BIT 17);
							;RIGHT HALF OF MEMORY BUFFER (BITS 18-35)
			000040		RDCONI==40	;READ THE "CLOCK RUNNING" BIT (BIT 16); THE
							;"MEMORY SUBROUTINE BUSY" BIT (BIT 17); AND
							;THE SAME DATA SENSED BY CONI (BITS 18-35)
					;CONTINUED ON NEXT PAGE


			000050		RDBITS==50	;READ SOME MISCELLANEOUS BITS:
							;BITS 16 AND 17 SPECIFY WHICH CHANNEL IS
							;USING THE MEMORY
STATIC VERSION 1,1 - TYMSHARE SA10 DIAG ***STATIC TEST ONLY***	MACRO %52(551) 00:09 20-JAN-83 PAGE 1-2
STATIC	MAC	11-SEP-71 15:05

			400000			WRRQ==400000	;CURRENT MEM CYCLE IS A WRITE
			200000			MUXACK==200000	;ACKNOWLEDGE FROM MEMORY PORT
			100000			MEMACK==100000	;ACKNOWLEDGE FROM MEMORY
			040000			MBUSDN==40000	;MEMORY BUS FINISHED
			020000			MDNSYN==20000	;MEMORY DONE SYNC
			010000			RDDIAG==10000
			004000			IOFWR==4000
			002000			CHRST==2000
			001000			RESET==1000
			000400			BRANCH==400	;THE MICRO-INSTRUCTION WHICH IS
								;ABOUT TO BE EXECUTED IS GOING TO BRANCH
					;LOW 3 BITS ARE PI CHANNEL ASSIGNMENT

					;BITS FOR CONI, CONSZ, CONSO
			400000		PIRQ==400000	;THIS SA-10 IS REQUESTING AN INTERRUPT
			200000		PARERR==200000	;PARITY ERROR IN SOME WORD (COMMAND OR
							;DATA) READ FROM MEMORY
			100000		NXM==100000	;SA-10 TRIED TO REFERENCE NON-EX MEMORY
			040000		PIE0==40000	;PI ENABLE FLAG FOR CHANNEL 0
			020000		PIE1==20000	; . . . CHANNEL 1
			010000		PIE2==10000	; . . . CHANNEL 2
			004000		PIE3==4000	; . . . CHANNEL 3
			002000		BSY0==2000	;BUSY FLAG FOR CHANNEL 0
			001000		BSY1==1000	; . . . CHANNEL 1
			000400		BSY2==400	; . . . CHANNEL 2
			000200		BSY3==200	; . . . CHANNEL 3
			000100		STF0==100	;STATUS FLAG FOR CHANNEL 0
			000040		STF1==40	; . . . CHANNEL 1
			000020		STF2==20	; . . . CHANNEL 2
			000010		STF3==10	; . . . CHANNEL 3
					;LOW 3 BITS ARE PI CHANNEL ASSIGNMENT

			000064		HANGPC==64	;MAGIC PLACE TO STICK MICRO-PROGRAM COUNTER
							; THIS IS A MICRO-CODE PC. NOT A PDP-10 ADDRESS

					;DEFS FOR TAPE
			002000		TRECL==2000	; RECORD LENGTH ON TAPE
					;TUNIT==340

			000000		DSW==0
					DEFINE LOOP(N,LOC)
					<	DATAI DSW,0
					;	HLRZS A
						CAIN 0,N
						JRST LOC
					>

					DEFINE SLOOP
					<	DATAI DSW,0
						TLNE 0,2
						JRST GOGO
						TLNE 0,1
					HALT,.+1
					>

STATIC VERSION 1,1 - TYMSHARE SA10 DIAG ***STATIC TEST ONLY***	MACRO %52(551) 00:09 20-JAN-83 PAGE 1-3
STATIC	MAC	11-SEP-71 15:05

						DEFINE ALT	;ALTMODE TRAP
					<	CONSO TTY,40
						JRST .+15
						DATAI	TTY,FT	;GET TTY INTO AC FT
						ANDI	FT,177	;STRIP OFF VALID DATA
						CAIN	FT,176	;LOOK FOR ALTMODE
						JRST	.+7		;IF DDT
						CAIN FT,175	;LOOK FOR ANOTHER FLAVOR ALT MODE
						JRST .+5
						CAIN FT,33	;STILL LOOKING FOR ALT MODE
						JRST .+3
						CAIE FT,124	;LOOK FOR LETTER T
						JRST .+3
						DATAO PAG,[400000,,400000]
						JRST,MSG+3
					>
						DEFINE NALT	;ALT MODE HANG
					<	CONSO TTY,40
						JRST .-1
						DATAI TTY,FT
						ANDI FT,177
						CAIN FT,176
						JRST .+7
						CAIN FT,175
						JRST .+5
						CAIN FT,33
						JRST .+3
						CAIE FT,120	;LOOK FOR LETTER P
						JRST .-13
					>
					PAGE
STATIC VERSION 1,1 - TYMSHARE SA10 DIAG ***STATIC TEST ONLY***	MACRO %52(551) 00:09 20-JAN-83 PAGE 1-4
STATIC	MAC	11-SEP-71 15:05

	004000				LOC 4000

	004000	201 74 00 00 005046 	GOGO:	MOVEI P,PDL-1
	004001	7 010 14 0 00 006252 		DATAO PAG,[400000,,400000]
	004002	7 000 20 0 00 635550 		CONO 635550
	004003	402 00 0 00 005247 		SETZM TABCNT
	004004	260 17 0 00 006345 		PUSHJ P,SETPTR
	004005	201 17 0 00 005046 	MSG:	MOVEI P,PDL-1	;SET UP PUSH STACK
	004006	260 17 0 00 006345 		PUSHJ P,SETPTR
						MOVEI C,[ASCIZ/


						SA10 STATIC TEST
	004007	201 03 0 00 006253 	/]
	004010	260 17 0 00 006353 		PUSHJ P,STYO
	004011	7 000 20 0 00 635550 	BEG:	CONO 635550	;CLEAR OUT THE WORLD
	004012	7 010 14 0 00 006260 		DATAO	PAG,[0]	;CLEAR PAGING FOR BEG
	004013	402 00 0 00 005003 		SETZM	ER28
	004014	402 00 0 00 006316 		SETZM	BEGERR#		;REALLY A COUNT O F#PASSES
	004015	402 00 0 00 006334 		CLEARM PIE	;NO INTERRUPTS ARE EXPECTED
	004016	7 004 20 0 00 011577 		CONO PI,11577
	004017	200 01 0 00 006261 		MOVE A,[JSR UUOH]
	004020	202 01 0 00 000041 		MOVEM A,41	;INITIALIZE MAGIC MEMORY LOCATIONS
	004021	201 02 0 00 000042 		MOVEI B,42	;ALL INTERRUPT ROUTINES ARE SAME LENGTH
	004022	200 01 0 00 006262 		MOVE A,[JSR INT1]
	004023	202 01 0 02 000000 	PISETL:	MOVEM A,(B)
	004024	271 01 0 00 000007 		ADDI A,INT2-INT1
	004025	271 02 0 00 000002 		ADDI B,2
	004026	302 02 0 00 000060 		CAIE B,60
	004027	254 00 0 00 004023 		JRST PISETL
	004030	7 274 20 0 00 600000 		CONO SA0,RSTSA!CLMERR
	004031	7 000 20 0 00 200000 	BTE:	CONO 200000	;I O RESET
	004032	201 01 0 00 000454 		MOVEI A,^D300
	004033	367 01 0 00 004033 		SOJG A,.	;DELAY A BIT
	004034	7 274 24 0 00 000001 		CONI SA0,A
	004035	312 01 0 00 006263 		CAME A,[1,,0]	;CONI SHOULD GIVE 1 IN L.H.
	004036	254 04 0 00 004037 		HALT,.+1		;HALT,.+1 IF WE GOT NO SA10 OR ANY "HUNG " I/O BUS BITS
	004037	254 00 0 00 004040 		JRST BTE2	;IT'S OK
	004040	201 01 0 00 000010 	BTE2:	MOVEI A,10
	004041	7 004 20 0 00 002377 		CONO PI,2377	;ENABLE ALL PI CHANNELS
	004042	367 01 0 00 004042 		SOJG A,.	;WAIT NERVOUSLY
	004043	7 274 20 0 00 000007 		CONO SA0,7	;SET PIA BITS
	004044	7 274 24 0 00 000001 		CONI SA0,A
	004045	312 01 0 00 006264 		CAME A,[1,,7]
	004046	254 04 0 00 004047 		HALT,.+1		;IF PIA DOESN'T READ IN
	004047	7 000 20 0 00 200000 		CONO 200000	;I O RESET SHOULD CLEAR PIA
	004050	7 274 24 0 00 000001 		CONI SA0,A
	004051	7 004 20 0 00 011577 		CONO PI,11577	;RESET PI
	004052	312 01 0 00 006263 		CAME A,[1,,0]
	004053	254 04 0 00 004054 		HALT,.+1	;PIA DIDN'T CLEAR
	004054	7 274 20 0 00 000047 	BTE4:	CONO SA0,RDCONI+7	;CAN WE DO A DATAI?
	004055	7 274 04 0 00 000001 		DATAI SA0,A
	004056	312 01 0 00 006265 		CAME A,[2,,7]	;CLEN, PIA
	004057	254 04 0 00 004060 		HALT,.+1		;IF WRONG
	004060	7 274 20 0 00 001000 		CONO SA0,SASTEP	;STOP THE CLOCK
STATIC VERSION 1,1 - TYMSHARE SA10 DIAG ***STATIC TEST ONLY***	MACRO %52(551) 00:09 20-JAN-83 PAGE 1-5
STATIC	MAC	11-SEP-71 15:05

	004061	7 274 20 0 00 000040 		CONO	SA0,RDCONI	;NOW CHECK FOR CLOCK STOPPED
	004062	7 274 04 0 00 000001 		DATAI SA0,A
	004063	402 00 0 00 000002 		SETZM B
	004064	312 01 0 00 000002 		CAME A ,B
	004065	254 04 0 00 004066 		HALT,.+1
	004066	201 02 0 00 000004 	BEG1AA:	MOVEI B,2*NCHN
	004067	7 274 14 0 00 006260 	BEG1A:	DATAO SA0,[0]
	004070	7 274 20 0 00 001000 		CONO SA0,SASTEP!RDCCI
	004071	7 274 04 0 00 000003 		DATAI SA0,C
	004072	200 01 0 00 000003 		MOVE A,C
	004073	242 01 0 00 777756 		LSH A,-22	;FLUSH CBUS AND MICRO-P.C.
	004074	612 01 0 00 006266 		TDNE A,[-1_2]
	004075	254 04 0 00 004076 		HALT,.+1	;DATAI READ IN EXTRANEOUS BITS
	004076	326 01 0 00 005001 		JUMPN A,BEG1	;WAIT UNTIL WE GET TO CHANNEL 0
	004077	7 000 04 0 00 000000 	BEG1B:	LOOP 1,BEG1A^	DATAI DSW,0
	004100	306 00 0 00 000001 		CAIN 0,1
	004101	254 00 0 00 004067 		JRST BEG1A
	004102	7 000 04 0 00 000000 	BEG1C:	LOOP 2,BEG1AA^	DATAI DSW,0
	004103	306 00 0 00 000002 		CAIN 0,2
	004104	254 00 0 00 004066 		JRST BEG1AA
	004105	205 01 0 00 777776 		MOVSI A,-NCHN	;CLEAR OUT COUNT TABLE
	004106	402 00 0 01 006336 	BEG20:	CLEARM CCTBL(A)
	004107	253 01 0 00 004106 		AOBJN A,BEG20
	004110	201 02 0 00 000200 	BEG20A:	MOVEI B,100*NCHN
	004111	7 274 14 0 00 006260 	BEG2:	DATAO SA0,[0]	;GET THE THING A NO-OP TO EXECUTE
	004112	7 274 20 0 00 001000 		CONO SA0,SASTEP!RDCCI
	004113	7 274 04 0 00 000001 		DATAI SA0,A
	004114	242 01 0 00 777756 		LSH A,-22
	004115	405 01 0 00 000003 		ANDI A,-1_<-44+2>
	004116	350 00 0 01 006336 		AOS CCTBL(A)	;NOTE THAT THIS CHANNEL HAS BEEN COUNTED
	004117	367 02 0 00 004111 		SOJG B,BEG2
	004120	205 01 0 00 777776 		MOVSI A,-NCHN	;MAKE SURE ALL CHANNELS GOT SERVICE
	004121	336 00 0 01 006336 	BEG21:	SKIPN CCTBL(A)
	004122	254 04 0 00 004123 		HALT,.+1	;THIS GUY DIDN'T GET COUNTED
	004123	7 000 04 0 00 000000 	BEG21A:	LOOP 3,BEG20A^	DATAI DSW,0
	004124	306 00 0 00 000003 		CAIN 0,3
	004125	254 00 0 00 004110 		JRST BEG20A
	004126	253 01 0 00 004121 		AOBJN A,BEG21	;CHECK THE OTHERS
					;FALL THRU

					;MAKE SURE ALL BITS OF MICRO-P.C. CAN BE SET
	004127	260 17 0 00 005004 		PUSHJ P,STEPC0
	004130	201 01 0 00 000012 		MOVEI A,^D10
	004131	264 00 0 00 006616 		JSR PTN	;TRY VALUES FOR 10 BITS
	004132	200 02 0 00 000001 	IARL:	MOVE B,A
	004133	7 274 14 0 00 000002 		DATAO SA0,B
	004134	260 17 0 00 005025 		PUSHJ P,STEP0
	004135	405 01 0 00 001777 		ANDI A,1777
	004136	312 01 0 00 000002 		CAME A,B
	004137	254 04 0 00 004140 		HALT,.+1	;MICRO-P.C. NOT BEING SET PROPERLY
	004140	7 000 04 0 00 000000 	IARL1:	LOOP 4,IARL^	DATAI DSW,0
	004141	306 00 0 00 000004 		CAIN 0,4
	004142	254 00 0 00 004132 		JRST IARL
	004143	7 274 14 0 00 006267 		DATAO SA0,[040000]	;CBUS_IARB
	004144	7 274 04 0 00 000001 		DATAI SA0,A
STATIC VERSION 1,1 - TYMSHARE SA10 DIAG ***STATIC TEST ONLY***	MACRO %52(551) 00:09 20-JAN-83 PAGE 1-6
STATIC	MAC	11-SEP-71 15:05

	004145	135 01 0 00 006270 		LDB A,[121000,,A]
	004146	200 03 0 00 000002 		MOVE C,B
	004147	405 03 0 00 000377 		ANDI C,377
	004150	312 01 0 00 000003 		CAME A,C
	004151	254 04 0 00 004152 		HALT,.+1	;CBUS_IARB LOSING
	004152	7 000 04 0 00 000000 	IARL2:	LOOP 5,IARL^	DATAI DSW,0
	004153	306 00 0 00 000005 		CAIN 0,5
	004154	254 00 0 00 004132 		JRST IARL
	004155	264 00 0 00 006614 		JSR PTN0	;ON TO NEXT DATA VALUE
					;SEE IF SOURCE OF ZEROES WORKS
	004156	201 01 0 00 176320 	SZER:	MOVEI A,176320	;REG. 3_0
	004157	260 17 0 00 005024 		PUSHJ P,C0XCT
	004160	201 01 0 00 072260 		MOVEI A,072260	;START DUMMY WRITE FROM REG. 3
	004161	260 17 0 00 005024 		PUSHJ P,C0XCT
	004162	7 274 20 0 00 000020 		CONO SA0,RDMBL
	004163	7 274 04 0 00 000001 		DATAI SA0,A	;SHOULD GIVE US 0 IN THE R.H. OF A
	004164	602 01 0 00 777777 		TRNE A,-1
	004165	254 04 0 00 004166 		HALT,.+1	;FAILS HERE IF NO ROMS INSTALLED YET
	004166	7 000 04 0 00 000000 	SZER1:	LOOP ^D40,SZER^	DATAI DSW,0
	004167	306 00 0 00 000050 		CAIN 0,^D40
	004170	254 00 0 00 004156 		JRST SZER
	004171	201 01 0 00 000044 	MAMB:	MOVEI A,^D36
	004172	264 00 0 00 006616 		JSR PTN	;TRY ALL 36 BITS OF WORD
	004173	200 03 0 00 006271 	MAMB1:	MOVE C,[200000,,TEST]
	004174	260 17 0 00 005015 		PUSHJ P,LC0CW
	004175	200 03 0 00 000001 		MOVE C,A
	004176	556 03 0 00 006340 		HLRZM C,MAMBTL
	004177	552 03 0 00 006341 		HRRZM C,MAMBTR
	004200	260 17 0 00 005033 		PUSHJ P,LC0R2
	004201	201 01 0 00 062260 		MOVEI A,062260	;START DUMMY WRITE FROM REG. 2
	004202	260 17 0 00 005024 		PUSHJ P,C0XCT
					;FALLS THROUGH TO NEXT PAGE


					;FALLEN INTO FROM PREVIOUS PAGE
	004203	7 274 20 0 00 000010 		CONO SA0,RDMA
	004204	7 274 04 0 00 000003 		DATAI SA0,C
	004205	200 01 0 00 000003 		MOVE A,C
	004206	404 01 0 00 006272 		AND A,[3,,-1]
	004207	302 01 0 00 006635 		CAIE A,TEST
	004210	254 04 0 00 004211 		HALT,.+1	;MEM ADDR REG HAS WRONG THING IN IT
	004211	7 000 04 0 00 000000 	MAMB1A:	LOOP ^D11,MAMB1^	DATAI DSW,0
	004212	306 00 0 00 000013 		CAIN 0,^D11
	004213	254 00 0 00 004173 		JRST MAMB1
	004214	7 274 20 0 00 000020 		CONO SA0,RDMBL
	004215	7 274 04 0 00 000001 		DATAI SA0,A
	004216	550 02 0 00 000001 		HRRZ B,A
	004217	312 02 0 00 006340 		CAME B,MAMBTL
	004220	254 04 0 00 004221 		HALT,.+1	;MB LEFT LOSING
	004221	7 000 04 0 00 000000 	MAMB2:	LOOP 6,MAMB1^	DATAI DSW,0
	004222	306 00 0 00 000006 		CAIN 0,6
	004223	254 00 0 00 004173 		JRST MAMB1
	004224	603 01 0 00 777777 		TLNE A,-1
	004225	254 04 0 00 004226 		HALT,.+1	;WRONG CHANNEL HAS MEMORY SUBROUTINE
	004226	7 000 04 0 00 000000 	MAMB3:	LOOP 7,MAMB1^	DATAI DSW,0
STATIC VERSION 1,1 - TYMSHARE SA10 DIAG ***STATIC TEST ONLY***	MACRO %52(551) 00:09 20-JAN-83 PAGE 1-7
STATIC	MAC	11-SEP-71 15:05

	004227	306 00 0 00 000007 		CAIN 0,7
	004230	254 00 0 00 004173 		JRST MAMB1
	004231	7 274 20 0 00 000030 		CONO SA0,RDMBR
	004232	7 274 04 0 00 000001 		DATAI SA0,A
	004233	312 01 0 00 006341 		CAME A,MAMBTR
	004234	254 04 0 00 004235 		HALT,.+1	;MB RIGHT LOSING
	004235	7 000 04 0 00 000000 	MAMB4:	LOOP ^D12,MAMB1^	DATAI DSW,0
	004236	306 00 0 00 000014 		CAIN 0,^D12
	004237	254 00 0 00 004173 		JRST MAMB1
	004240	264 00 0 00 006614 		JSR PTN0	;ON TO NEXT DATA VALUE
	004241	201 07 0 00 000001 	CWTST0:	MOVEI G,NCHN-1	;TRY OUT WC, CA, PC PATHS
	004242	260 17 0 00 005005 	CWTST:	PUSHJ P,STEPCX	;STEP CLOCK TO APPROPRIATE CHANNEL
	004243	201 01 0 00 000044 	CWTST1:	MOVEI A,^D36	;CHECK 36 BIT POSITIONS
	004244	264 00 0 00 006616 		JSR PTN
	004245	202 01 0 00 006343 		MOVEM	A,CWTA	;GET AND SAVE DATA
	004246	460 02 0 00 000001 		SETCM	B,A	;COMPLEMENT OF A TO B
	004247	242 02 0 00 000001 		LSH	B,1	;SLIGHTLY DIFFERENT #
	004250	202 02 0 00 006344 		MOVEM	B,CWTB	;CWTA AND B JUST FOR NOTHING
	004251	135 03 0 00 006273 		LDB	C,[POINT 11,A,11]	;GET WC FIELD
	004252	137 03 0 00 006274 		DPB	C,[POINT 11,WCX,11]	;STORE IN MASKED LOC
	004253	135 03 0 00 006275 		LDB	C,[POINT 20,A,35]	;GET ADDRESS FIELD
	004254	137 03 0 00 006276 		DPB	C,[POINT 20,CAX,19]	;PUT IT IN BITS 0-X,IE.,16-32 OF ADDR
	004255	135 03 0 00 006277 		LDB	C,[POINT 3,A,15]	;GET BITS 14 SND 15
	004256	137 03 0 00 006300 		DPB	C,[POINT 3,CAX,23]	;TUCK IT AWAY
	004257	135 03 0 00 006301 		LDB	C,[POINT 20,B,35]	;GET ADDRESS FLD. OF WORD 2
	004260	137 03 0 00 006302 		DPB	C,[POINT 20,PCX,19]	;STORE THIS AWAY
	004261	135 03 0 00 006303 		LDB	C,[POINT 3,B,15]	;DON'T FORGET THESE TWO
	004262	137 03 0 00 006304 		DPB	C,[POINT 3,PCX,23]	;PRBABLY WRON FOR THIS POINT
	004263	254 00 0 00 004272 		JRST CWTST2
	004264	44 10 0 00 004267 		WCXBP:	POINT  8,WCX	;8 BIT BYTE  FROM WCX
	004265	44 10 0 00 004270 		POINT 	8,CAX	;8 BIT BYTE FROM CAX
	004266	44 10 0 00 004271 		POINT	8,PCX	;8 BITS FROM PCX

	004267	400077	400000		WCX:	400077400000
	004270	000000	000000		CAX:	0
	004271	000000	000000		PCX:	0
	004272	200 03 0 00 006343 	CWTST2:	MOVE C,CWTA
	004273	260 17 0 00 005016 		PUSHJ P,LCXCW	;PUT INTO WC, CA REGISTERS
	004274	200 03 0 00 006344 		MOVE C,CWTB
	004275	260 17 0 00 005034 		PUSHJ P,LCXR2
	004276	201 01 0 00 065300 		MOVEI A,065300	;PC_ADR FILED OF REG. 2
	004277	260 17 0 00 005022 		PUSHJ P,CXXCT
	004300	201 03 0 00 040400 		MOVEI C,040400	;CBUS_BYTE 1 OF WC
	004301	201 10 0 00 000000 		MOVEI	H,0	;INDEX REG FOR 1 FO 3 BYTE POINTERS
	004302	201 06 0 00 000003 		MOVEI F,3	;DO STUFF FOR EACH OF 3 REGI
	004303	201 02 0 00 000003 	CWT1:	MOVEI B,3	;DO THIS STUFF FOR EACH OF 3 BYTES
	004304	200 12 0 10 004264 		MOVE	J,WCXBP(H)	;GET THE BYTE POINTER
	004305	7 274 14 0 00 000003 	CWT2:	DATAO SA0,C	;GET DATA ONTO CBUS
	004306	7 274 20 0 00 000000 		CONO SA0,RDCCI
	004307	7 274 04 0 00 000001 		DATAI SA0,A
	004310	135 01 0 00 006270 		LDB A,[121000,,A]	;GET CONTENTS OF CBUS
	004311	134 04 0 00 000012 		ILDB D,J	;GET EXPECTED ANSWER
	004312	312 04 0 00 000001 		CAME D,A	;ARE THEY THE SAME?
	004313	254 04 0 00 004314 		HALT,.+1	;NOPE
	004314	271 03 0 00 000400 	CWT2A:	ADDI C,400	;ADVANCE TO NEXT BYTE OF REGISTER
STATIC VERSION 1,1 - TYMSHARE SA10 DIAG ***STATIC TEST ONLY***	MACRO %52(551) 00:09 20-JAN-83 PAGE 1-8
STATIC	MAC	11-SEP-71 15:05

	004315	367 02 0 00 004305 		SOJG B,CWT2	;THAT'S ALL FOR THAT REGISTER
	004316	271 03 0 00 000400 		ADDI C,400	;ADVANCE TO NEXT REGISTER
	004317	350 00 0 00 000010 		AOS	H	;INC XR FOR BYTE POINTERS
	004320	367 06 0 00 004303 		SOJG F,CWT1	;WE'VE TESTED ALL THREE REGISTERS
	004321	264 00 0 00 006614 		JSR PTN0	;TRY NEXT DATA VALUE
	004322	365 07 0 00 004242 		SOJGE G,CWTST	;TRY ALL CHANNELS
	004323	7 000 04 0 00 000000 		LOOP ^D28,CWTST0^	DATAI DSW,0
	004324	306 00 0 00 000034 		CAIN 0,^D28
	004325	254 00 0 00 004241 		JRST CWTST0
	004326	201 12 0 00 000000 	INCT:	MOVEI J,0	;0 OR -1
	004327	525 06 0 00 000017 	INCT0:	HRLOI F,17	;SHIFTS
	004330	200 03 0 00 000006 	INCT1:	MOVE C,F	;DATA WORD
	004331	430 03 0 00 000012 		XOR C,J	;COMPLEMENTED SECOND TIME THROUGH
	004332	202 03 0 00 006342 		MOVEM C,INCTW	;REAL DATA WORD
	004333	272 12 0 00 006342 		ADDM J,INCTW
	004334	321 12 0 00 004336 		JUMPL J,INCT1A
	004335	350 00 0 00 006342 		AOS INCTW	;SIMULATE THE INCREMENTER
	004336	260 17 0 00 005015 	INCT1A:	PUSHJ P,LC0CW	;LOAD CA, WC
	004337	201 01 0 00 042260 		MOVEI A,42260	;MICRO INST, XANC INCREMENT CA,DUMMY,DIAG

	004340	325 12 0 00 004342 		JUMPGE J,INCT2
	004341	201 01 0 00 042660 		MOVEI A,42660	;MICRO INST,XANC, DECREMENT CA,DUMMY DIAG
	004342	260 17 0 00 005024 	INCT2:	PUSHJ P,C0XCT	;DO THE INCREMENT/DECREMENT
	004343	201 01 0 00 042260 		MOVEI A,42260
	004344	260 17 0 00 005024 		PUSHJ P,C0XCT
	004345	7 274 20 0 00 000010 		CONO SA0,RDMA	;TO READ THE MA BACK
	004346	7 274 04 0 00 000001 		DATAI SA0,A
	004347	7 274 20 0 00 000050 		CONO SA0,RDBITS	;TO READ THE EXTRA ADDR BITS
	004350	7 274 04 0 00 000002 		DATAI SA0,B
	004351	137 02 0 00 006305 		DPB B,[240200,,A]	;PUT EXTRA BITS WHERE THEY BELONG
	004352	430 01 0 00 006342 		XOR A,INCTW	;COMPARE
	004353	612 01 0 00 006306 		TDNE A,[17,,777777]	;WHERE WORDS SHOULD MATCH
	004354	254 04 0 00 004355 		HALT,.+1	;IF ERROR
	004355				INCT4:	LOOP ^D39,INCT1	^;USE SAME DATA IF LOOPING
	004355	7 000 04 0 00 000000 		DATAI DSW,0
	004356	306 00 0 00 000047 		CAIN 0,^D39
	004357	254 00 0 00 004330 		JRST INCT1
	004360	322 06 0 00 004363 		JUMPE F,INCT5	;IF ALL BIT POSITIONS TRIED
	004361	240 06 0 00 777777 		ASH F,-1
	004362	254 00 0 00 004330 		JRST INCT1	;OTHERWISE TRY NEXT ONE

	004363	450 12 0 00 000000 	INCT5:	SETCA J,0	;COMPLEMENT J
	004364	321 12 0 00 004327 		JUMPL J,INCT0	;AND DO OTHER PASS IF NEEDED
	004365	200 03 0 00 006271 	MRD0:	MOVE C,[200000,,TEST]
	004366	260 17 0 00 005015 		PUSHJ P,LC0CW
	004367	201 05 0 00 146720 		MOVEI E,146720	;REG. 0_MEM RD BUFFER
	004370	201 01 0 00 042200 	MRD1:	MOVEI A,042200	;START READ AT CA
	004371	260 17 0 00 005024 		PUSHJ P,C0XCT
	004372	201 02 0 00 000003 		MOVEI B,3
	004373	200 01 0 00 000005 	MRD:	MOVE A,E
	004374	260 17 0 00 005024 		PUSHJ P,C0XCT
	004375	334 00 0 00 000000 		SKIPA
	004376	254 04 0 00 004377 		HALT,.+1	;MEM CYCLE TOOK TOO MANY TICKS
	004377	363 02 0 00 004376 		SOJLE B,.-1
	004400	7 274 20 0 00 000040 		CONO SA0,RDCONI
STATIC VERSION 1,1 - TYMSHARE SA10 DIAG ***STATIC TEST ONLY***	MACRO %52(551) 00:09 20-JAN-83 PAGE 1-9
STATIC	MAC	11-SEP-71 15:05

	004401	7 274 04 0 00 000001 		DATAI SA0,A
	004402	603 01 0 00 000001 		TLNE A,1
	004403	254 00 0 00 004373 		JRST MRD
	004404	7 000 04 0 00 000000 	MRD1A:	LOOP ^D8,MRD1^	DATAI DSW,0
	004405	306 00 0 00 000010 		CAIN 0,^D8
	004406	254 00 0 00 004370 		JRST MRD1
	004407	200 01 0 00 000005 		MOVE A,E
	004410	260 17 0 00 005024 		PUSHJ P,C0XCT
	004411	271 05 0 00 010000 		ADDI E,10000	;FILL NEXT REGISTER
	004412	602 05 0 00 040000 		TRNE E,40000	;ALL FILLED?
	004413	254 00 0 00 004370 		JRST MRD1	;NO
	004414	476 00 0 00 006641 		SETOM TEST1	;CLOBBER PLACE WHERE DATA WILL BE READ BACK
	004415	402 00 0 00 006642 		CLEARM TEST1+1
	004416	200 01 0 00 006637 		MOVE A,TEST+2
	004417	452 01 0 00 006643 		SETCAM A,TEST1+2
	004420	202 01 0 00 006644 		MOVEM A,TEST1+3
	004421	201 05 0 00 042240 		MOVEI E,042240	;START WRITE CYCLE
	004422	200 01 0 00 000005 	MWR1:	MOVE A,E
	004423	260 17 0 00 005024 		PUSHJ P,C0XCT
	004424	201 02 0 00 000003 		MOVEI B,3
	004425	334 00 0 00 000000 		SKIPA
	004426	254 04 0 00 004427 		HALT,.+1	;MEM CYCLE TOOK TOO MANY TICKS
	004427	363 02 0 00 004426 	MWR:	SOJLE B,.-1
					;FALLS THROUGH TO NEXT PAGE


					;FALLEN INTO FROM PREVIOUS PAGE
	004430	201 01 0 00 000000 		MOVEI A,0
	004431	260 17 0 00 005024 		PUSHJ P,C0XCT
	004432	7 274 20 0 00 000040 		CONO SA0,RDCONI
	004433	7 274 04 0 00 000001 		DATAI SA0,A
	004434	603 01 0 00 000001 		TLNE A,1
	004435	254 00 0 00 004427 		JRST MWR
	004436	7 000 04 0 00 000000 	MWR1A:	LOOP ^D9,MWR1^	DATAI DSW,0
	004437	306 00 0 00 000011 		CAIN 0,^D9
	004440	254 00 0 00 004422 		JRST MWR1
	004441	271 05 0 00 010000 		ADDI E,10000
	004442	602 05 0 00 040000 		TRNE E,40000
	004443	254 00 0 00 004422 		JRST MWR1
	004444	205 01 0 00 777774 		MOVSI A,-4
	004445	200 02 0 01 006641 	MCMP:	MOVE B,TEST1(A)
	004446	200 03 0 01 006635 		MOVE C,TEST(A)
	004447	312 02 0 00 000003 		CAME B,C
	004450	254 04 0 00 004451 		HALT,.+1	;DATA GOTTEN BACK WRONG
	004451	7 000 04 0 00 000000 	MCMP1:	LOOP ^D10,MRD0^	DATAI DSW,0
	004452	306 00 0 00 000012 		CAIN 0,^D10
	004453	254 00 0 00 004365 		JRST MRD0
	004454	253 01 0 00 004445 		AOBJN A,MCMP


					;FALLEN INTO FROM PREVIOUS PAGE
	004455	201 07 0 00 000001 	STCL:	MOVEI G,NCHN-1	;HANG ALL CHANNELS
	004456	260 17 0 00 005005 	STCLH:	PUSHJ P,STEPCX	;GET TO RIGHT CHANNEL
	004457	201 01 0 00 000064 		MOVEI A,HANGPC	;FEED IT MAGIC PC WHICH WILL HANG IT
	004460	260 17 0 00 005022 		PUSHJ P,CXXCT
STATIC VERSION 1,1 - TYMSHARE SA10 DIAG ***STATIC TEST ONLY***	MACRO %52(551) 00:09 20-JAN-83 PAGE 1-10
STATIC	MAC	11-SEP-71 15:05

	004461	365 07 0 00 004456 		SOJGE G,STCLH	;DO SAME FOR ALL CHANNELS
	004462	7 274 20 0 00 001040 		CONO SA0,SACGO	;START THE CLOCK SO CONO'S WILL WORK
	004463	201 05 0 00 000010 		MOVEI E,10*<NCHN-1>
	004464	201 04 0 00 020000 		MOVEI D,PIE0_<1-NCHN>
	004465	201 03 0 00 000001 		MOVEI C,NCHN-1
	004466	7 274 20 0 05 000740 	STCL1:	CONO SA0,STPIE(E)
	004467	7 274 34 0 04 000000 		CONSO SA0,(D)
	004470	254 04 0 00 004471 		HALT,.+1
	004471	7 274 20 0 05 000700 	STCL1A:	CONO SA0,CLPIE(E)
	004472	7 274 30 0 04 000000 		CONSZ SA0,(D)
	004473	254 04 0 00 004474 		HALT,.+1
	004474	242 04 0 00 777774 	STCL1B:	LSH D,-4
	004475	7 274 20 0 05 000440 		CONO SA0,STBSY(E)
	004476	7 274 34 0 04 000000 		CONSO SA0,(D)
	004477	254 04 0 00 004500 		HALT,.+1
	004500	7 274 20 0 05 000400 	STCL1C:	CONO SA0,CLBSY(E)
	004501	7 274 30 0 04 000000 		CONSZ SA0,(D)
	004502	254 04 0 00 004503 		HALT,.+1
	004503	242 04 0 00 777774 	STCL1D:	LSH D,-4
	004504	7 274 20 0 05 000640 		CONO SA0,STSTF(E)
	004505	7 274 34 0 04 000000 		CONSO SA0,(D)
	004506	254 04 0 00 004507 		HALT,.+1
	004507	7 274 20 0 05 000600 	STCL1E:	CONO SA0,CLSTF(E)
	004510	7 274 30 0 04 000000 		CONSZ SA0,(D)
	004511	254 04 0 00 004512 		HALT,.+1
	004512	242 04 0 00 000011 	STCL1F:	LSH D,10+1
	004513	7 000 04 0 00 000000 		LOOP ^D13,STCL1^	DATAI DSW,0
	004514	306 00 0 00 000015 		CAIN 0,^D13
	004515	254 00 0 00 004466 		JRST STCL1
	004516	275 03 0 00 000001 		SUBI C,1
	004517	275 05 0 00 000010 		SUBI E,10
	004520	325 05 0 00 004466 		JUMPGE E,STCL1
	004521	205 02 0 00 777775 		MOVSI B,-3
	004522	7 274 20 0 00 001000 		CONO SA0,SASTEP
	004523	260 17 0 00 005004 		PUSHJ P,STEPC0
	004524	200 01 0 02 006650 	STCLM2:	MOVE A,STCLM(B)
	004525	260 17 0 00 005024 		PUSHJ P,C0XCT
	004526	7 274 34 1 02 006653 		CONSO SA0,@STCLM1(B)
	004527	254 04 0 00 004530 		HALT,.+1
	004530	200 01 0 02 006650 	STCLM3:	MOVE A,STCLM(B)
	004531	275 01 0 00 004000 		SUBI A,4000
	004532	260 17 0 00 005024 		PUSHJ P,C0XCT
	004533	7 274 30 1 02 006653 		CONSZ SA0,@STCLM1(B)
	004534	254 04 0 00 004535 		HALT,.+1
	004535	7 000 04 0 00 000000 	STCLM4:	LOOP ^D19,STCLM2^	DATAI DSW,0
	004536	306 00 0 00 000023 		CAIN 0,^D19
	004537	254 00 0 00 004524 		JRST STCLM2
	004540	253 02 0 00 004524 		AOBJN B,STCLM2
					;FALLS THROUGH TO NEXT PAGE


					;FALLEN INTO FROM PREVIOUS PAGE
	004541	201 07 0 00 000001 	QFIFO:	MOVEI G,NCHN-1	;FILL UP THE FIRST-IN, FIRST-OUT
							;BUFFERS OF EACH OF THE CHANNELS
	004542	260 17 0 00 005005 	FIFO1:	PUSHJ P,STEPCX	;STEP TO THE APPROPRIATE CHANNEL
STATIC VERSION 1,1 - TYMSHARE SA10 DIAG ***STATIC TEST ONLY***	MACRO %52(551) 00:09 20-JAN-83 PAGE 1-11
STATIC	MAC	11-SEP-71 15:05

	004543	201 01 0 00 002000 		MOVEI A,002000	;CLEAR TAG BYTE
	004544	260 17 0 00 005022 		PUSHJ P,CXXCT
	004545	201 01 0 00 027000 		MOVEI A,027000	;SET WRITE BIT IN TAG BYTE
	004546	260 17 0 00 005022 		PUSHJ P,CXXCT
	004547	201 01 0 00 027400 		MOVEI A,027400	;SET BUFFER ENABLE BIT IN TAG BYTE
	004550	260 17 0 00 005022 		PUSHJ P,CXXCT
	004551	201 01 0 00 145000 		MOVEI A,145000	;TEST BUFFER EMPTY BIT
	004552	260 17 0 00 005027 		PUSHJ P,CXTST
	004553	606 01 0 00 100000 		TRNN A,40_12	;CHECK RESULTS OF TEST
	004554	254 04 0 00 004555 		HALT,.+1	;BUFFER WASN'T EMPTY
	004555	7 000 04 0 00 000000 	FIFO1A:	LOOP ^D21,FIFO1^	DATAI DSW,0
	004556	306 00 0 00 000025 		CAIN 0,^D21
	004557	254 00 0 00 004542 		JRST FIFO1
	004560	201 03 0 00 000000 		MOVEI C,0
	004561	260 17 0 00 005016 		PUSHJ P,LCXCW	;CAUSE AN APPARENT W.C. OVERFLOW
	004562	201 04 0 00 000020 		MOVEI D,NBF	;SET UP COUNT OF # BYTES TO SEND
	004563	200 01 0 00 000007 	FIFO2:	MOVE A,G
	004564	242 01 0 00 000005 		LSH A,5
	004565	270 01 0 00 000004 		ADD A,D		;SYNTHESIZE A UNIQUE BYTE OF DATA
	004566	260 17 0 00 005022 		PUSHJ P,CXXCT	;PUT IT INTO MICRO-P.C.
	004567	201 01 0 00 040140 		MOVEI A,040140	;PUT "FIFO_MICRO-P.C." IN MICROIN-
	004570	260 17 0 00 005027 		PUSHJ P,CXTST	;STRUCTION REGISTER TO SEE IF IT
								;WILL BRANCH
	004571	260 17 0 00 005013 		PUSHJ P,STEPX	;NOW EXECUTE THE MICROINSTRUCTION
	004572	201 01 0 00 145000 		MOVEI A,145000	;TEST BUFFER EMPTY BIT
	004573	260 17 0 00 005027 		PUSHJ P,CXTST
	004574	602 01 0 00 100000 		TRNE A,40_12
	004575	254 04 0 00 004576 		HALT,.+1	;BUFFER WAS EMPTY
	004576	7 000 04 0 00 000000 	FIFO2A:	LOOP ^D22,FIFO2^	DATAI DSW,0
	004577	306 00 0 00 000026 		CAIN 0,^D22
	004600	254 00 0 00 004563 		JRST FIFO2
	004601	367 04 0 00 004563 		SOJG D,FIFO2	;KEEP DOING IT UNTIL FIFO SHOULD BE FULL
	004602	201 01 0 00 040140 	FIFO2C:	MOVEI A,040140	;TRY TO PUT ANOTHER WORD INTO FIFO
	004603	260 17 0 00 005022 		PUSHJ P,CXXCT
	004604	606 01 0 00 000001 		TRNN A,1	;OUGHT TO COMPLAIN THIS TIME
	004605	254 04 0 00 004606 		HALT,.+1	;DIDN'T
	004606	7 000 04 0 00 000000 	FIFO2B:	LOOP ^D24,FIFO2C^	DATAI DSW,0
	004607	306 00 0 00 000030 		CAIN 0,^D24
	004610	254 00 0 00 004602 		JRST FIFO2C
	004611	365 07 0 00 004542 		SOJGE G,FIFO1	;FILL UP FIFOS OF OTHER CHANNELS
					;O.K., FOLKS, NOW WE SEE IF WE CAN GET THE DATA BACK
					;FALLS THROUGH TO NEXT PAGE


					;FALLEN INTO FROM PREVIOUS PAGE
	004612	201 07 0 00 000001 		MOVEI G,NCHN-1	;START UNLOADING HIGHEST CHANNEL
	004613	260 17 0 00 005005 	FIFO3:	PUSHJ P,STEPCX	;STEP COUNTER TO APPROPRIATE CHANNEL
	004614	201 01 0 00 023400 		MOVEI A,023400	;CLEAR BUFFER ENABLE
	004615	260 17 0 00 005022 		PUSHJ P,CXXCT
	004616	201 01 0 00 027400 		MOVEI A,027400	;SET BUFFER ENABLE
	004617	260 17 0 00 005022 		PUSHJ P,CXXCT
	004620	201 01 0 00 145000 		MOVEI A,145000	;TEST BUFFER EMPTY (SHOULD BE)
	004621	260 17 0 00 005027 		PUSHJ P,CXTST
	004622	606 01 0 00 100000 		TRNN A,40_12
	004623	254 04 0 00 004624 		HALT,.+1	;WASN'T
STATIC VERSION 1,1 - TYMSHARE SA10 DIAG ***STATIC TEST ONLY***	MACRO %52(551) 00:09 20-JAN-83 PAGE 1-12
STATIC	MAC	11-SEP-71 15:05

	004624	7 000 04 0 00 000000 	FIFO3A:	LOOP ^D25,FIFO3^	DATAI DSW,0
	004625	306 00 0 00 000031 		CAIN 0,^D25
	004626	254 00 0 00 004613 		JRST FIFO3
	004627	201 01 0 00 023000 		MOVEI A,023000	;CLEAR WRITE
	004630	260 17 0 00 005022 		PUSHJ P,CXXCT
	004631	201 04 0 00 000020 	FIFO3Z:	MOVEI D,NBF
	004632	201 01 0 00 145000 	FIFO4:	MOVEI A,145000	;TEST BUFFER EMPTY
	004633	260 17 0 00 005027 		PUSHJ P,CXTST
	004634	602 01 0 00 100000 		TRNE A,40_12
	004635	254 04 0 00 004636 		HALT,.+1	;OOPS, IT WAS
	004636	7 000 04 0 00 000000 	FIFO4A:	LOOP ^D26,FIFO4^	DATAI DSW,0
	004637	306 00 0 00 000032 		CAIN 0,^D26
	004640	254 00 0 00 004632 		JRST FIFO4
	004641	201 01 0 00 147000 		MOVEI A,147000	;R0B0_FIFO
	004642	260 17 0 00 005027 		PUSHJ P,CXTST
	004643	260 17 0 00 005013 		PUSHJ P,STEPX
	004644	200 10 0 00 000007 		MOVE H,G
	004645	242 10 0 00 000005 		LSH H,5
	004646	270 10 0 00 000004 		ADD H,D
	004647	201 01 0 00 140000 		MOVEI A,140000	;CBUS_R0B0
	004650	260 17 0 00 005027 		PUSHJ P,CXTST
	004651	135 01 0 00 006270 		LDB A,[121000,,A]
	004652	312 01 0 00 000010 		CAME A,H
	004653	254 04 0 00 004654 		HALT,.+1	;WRONG DATA READ BACK FROM FIFO
	004654	367 04 0 00 004632 	FIFO4B:	SOJG D,FIFO4	;READ BACK THE REST
	004655	7 000 04 0 00 000000 		LOOP ^D27,FIFO3Z^	DATAI DSW,0
	004656	306 00 0 00 000033 		CAIN 0,^D27
	004657	254 00 0 00 004631 		JRST FIFO3Z
	004660	201 01 0 00 145000 		MOVEI A,145000	;BUFFER SHOULD NOW BE EMPTY
	004661	260 17 0 00 005027 		PUSHJ P,CXTST
	004662	606 01 0 00 100000 		TRNN A,40_12
	004663	254 04 0 00 004664 		HALT,.+1	;OOPS, IT ISN'T
	004664	7 000 04 0 00 000000 	FIFO4C:	LOOP ^D23,FIFO3^	DATAI DSW,0
	004665	306 00 0 00 000027 		CAIN 0,^D23
	004666	254 00 0 00 004613 		JRST FIFO3
	004667	365 07 0 00 004613 		SOJGE G,FIFO3	;READ BACK FIFOS OF OTHER CHANNELS
					;FALL THRU

					;TRY OUT P.I. REQUEST LOGIC
	004670	7 274 20 0 00 001040 	PITST0:	CONO SA0,SACGO
	004671	201 07 0 00 000010 		MOVEI G,<NCHN-1>*10
	004672	7 274 20 0 07 000500 	PITST:	CONO SA0,CLSRQ(G)	;CLEAR STATUS REQUEST FLAG
	004673	7 274 20 0 07 000600 		CONO SA0,CLSTF(G)	;AND STATUS FLAG
	004674	7 274 20 0 07 000740 		CONO SA0,STPIE(G)	;AND SET P.I. ENABLE FLAG
	004675	275 07 0 00 000010 		SUBI G,10
	004676	325 07 0 00 004672 		JUMPGE G,PITST	;FOR ALL CHANNELS
	004677	7 274 30 0 00 400000 		CONSZ SA0,PIRQ	;SHOULD NOT BE REQUESTING AN INTERRUPT
	004700	254 04 0 00 004701 		HALT,.+1	;OOPS, WAS
	004701	7 000 04 0 00 000000 	PITST1:	LOOP ^D29,PITST0^	DATAI DSW,0
	004702	306 00 0 00 000035 		CAIN 0,^D29
	004703	254 00 0 00 004670 		JRST PITST0
	004704	402 00 0 00 006334 		CLEARM PIE	;NOT EXPECTING ANY INTERRUPTS
	004705	7 004 20 0 00 012377 		CONO PI,12377	;ENABLE ALL P.I. CHANNELS
	004706	201 02 0 00 000007 		MOVEI B,7
	004707	7 274 20 0 02 000000 	PIT1:	CONO SA0,(B)
STATIC VERSION 1,1 - TYMSHARE SA10 DIAG ***STATIC TEST ONLY***	MACRO %52(551) 00:09 20-JAN-83 PAGE 1-13
STATIC	MAC	11-SEP-71 15:05

	004710	367 02 0 00 004707 		SOJG B,.-1	;SHOULD NEVER INTERRUPT
	004711	201 07 0 00 000010 		MOVEI G,<NCHN-1>*10
	004712	201 02 0 00 000007 	PIT2:	MOVEI B,7
	004713	202 02 0 00 006334 	PIT3:	MOVEM B,PIE
	004714	270 02 0 00 000007 		ADD B,G
	004715	7 274 20 0 02 000640 		CONO SA0,STSTF(B)	;SHOULD CAUSE AN INTERRUPT
	004716	241 00 0 00 000377 		ROT 377	;DELAY FOR KI-10
	004717	255 00 0 00 000000 		JFCL
	004720	332 00 0 00 006334 		SKIPE PIE	;DID IT?
	004721	254 04 0 00 004722 		HALT,.+1	;NO, COMPLAIN
	004722	7 000 04 0 00 000000 	PIT3A:	LOOP ^D38,PIT3^	DATAI DSW,0
	004723	306 00 0 00 000046 		CAIN 0,^D38
	004724	254 00 0 00 004713 		JRST PIT3
	004725	274 02 0 00 000007 		SUB B,G
	004726	367 02 0 00 004713 		SOJG B,PIT3	;TRY ALL P.I. CHANNELS
	004727	275 07 0 00 000010 		SUBI G,10
	004730	325 07 0 00 004712 		JUMPGE G,PIT2	;TRY ALL SA-10 CHANNELS
	004731	201 02 0 00 000000 	UCT:	MOVEI B,0	;ADDRESS
	004732	260 17 0 00 005004 		PUSHJ P,STEPC0	;DO GOTO
	004733	550 03 0 02 005247 	UCT0:	HRRZ C,MCBEG0(B)	;WHAT UINST SHOULD BE
								;ABOVE INSTRUCTION CHANGED TO CLEAR LEFT HALF OF AC
	004734	602 03 0 00 140000 		TRNE C,140000
	004735	254 00 0 00 004752 		JRST UCT8	;IF NOT GOTO OR OFF/ON
	004736	200 01 0 00 000002 		MOVE A,B	;CHANGED 26-APR-76-***LEM

	004737	260 17 0 00 005024 		PUSHJ P,C0XCT	;IT'S HARMLESS, DO IT
	004740	260 17 0 00 005025 		PUSHJ P,STEP0
	004741	135 04 0 00 006307 		LDB D,[100200,,B]
	004742	622 03 0 00 036000 		TRZE C,36000
	004743	137 04 0 00 006310 		DPB D,[100200,,C]
	004744	405 01 0 00 001777 		ANDI A,1777
	004745	312 01 0 00 000003 		CAME A,C
	004746	254 00 0 00 004775 		JRST	ER41N
	004747	7 000 04 0 00 000000 	UCT7:	LOOP ^D41,UCT0^	DATAI DSW,0
	004750	306 00 0 00 000051 		CAIN 0,^D41
	004751	254 00 0 00 004733 		JRST UCT0
	004752	305 02 0 00 001377 	UCT8:	CAIGE B,1400-1
	004753	344 02 0 00 004733 		AOJA B,UCT0
	004754	350 10 0 00 006316 		AOS	TEN,BEGERR#
	004755	7 120 34 0 00 000040 		ALT^	CONSO TTY,40
	004756	254 00 0 00 004773 		JRST .+15
	004757	7 120 04 0 00 000015 		DATAI	TTY,FT	;GET TTY INTO AC FT
	004760	405 15 0 00 000177 		ANDI	FT,177	;STRIP OFF VALID DATA
	004761	306 15 0 00 000176 		CAIN	FT,176	;LOOK FOR ALTMODE
	004762	254 00 0 00 004771 		JRST	.+7		;IF DDT
	004763	306 15 0 00 000175 		CAIN FT,175	;LOOK FOR ANOTHER FLAVOR ALT MODE
	004764	254 00 0 00 004771 		JRST .+5
	004765	306 15 0 00 000033 		CAIN FT,33	;STILL LOOKING FOR ALT MODE
	004766	254 00 0 00 004771 		JRST .+3
	004767	302 15 0 00 000124 		CAIE FT,124	;LOOK FOR LETTER T
	004770	254 00 0 00 004773 		JRST .+3
	004771	7 010 14 0 00 006252 		DATAO PAG,[400000,,400000]
	004772	254 00 0 00 004010 		JRST,MSG+3
	004773	7 004 14 0 00 000010 		DATAO	PI,TEN
	004774	254 00 0 00 004010 		JRST MSG+3	;O.K., IT ALL WORKS.  TRY IT OVER AGAIN
STATIC VERSION 1,1 - TYMSHARE SA10 DIAG ***STATIC TEST ONLY***	MACRO %52(551) 00:09 20-JAN-83 PAGE 1-14
STATIC	MAC	11-SEP-71 15:05

	004775	302 03 0 00 000020 	ER41N:	CAIE	3,20
	004776	254 04 0 00 004777 		HALT,.+1
	004777	350 00 0 00 005003 		AOS	ER28
	005000	254 00 0 00 004747 		JRST	UCT7
					;HERE


	005001	367 02 0 00 004067 	BEG1:	SOJG B,BEG1A
	005002	254 04 0 00 005003 		HALT,.+1	;DIDN'T GET TO CHANNEL 0
	005003	000000	000000		ER28:	0


					PAGE
STATIC VERSION 1,1 - TYMSHARE SA10 DIAG ***STATIC TEST ONLY***	MACRO %52(551) 00:09 20-JAN-83 PAGE 1-15
STATIC	MAC	11-SEP-71 15:05


	005004	201 07 0 00 000000 	STEPC0:	MOVEI G,0
	005005	7 274 20 0 00 000000 	STEPCX:	CONO SA0,RDCCI
	005006	7 274 04 0 00 000001 	STPC0A:	DATAI SA0,A
	005007	135 10 0 00 006311 		LDB H,[220200,,A]	;CHANNEL SELECTION.
	005010	316 10 0 00 000007 		CAMN H,G		;DESIRED CHANNEL?
	005011	263 17 0 00 000000 		POPJ P,			;YES.
	005012	7 274 14 0 00 006312 		DATAO SA0,[HANGPC]	;NO. STICK OTHER CHANNELS AT STICKY PC
	005013				STEPX:
	005013	7 274 20 0 00 001000 	STEPX1:	CONO SA0,SASTEP!RDCCI
	005014	254 00 0 00 005006 		JRST STPC0A

	005015	201 07 0 00 000000 	LC0CW:	MOVEI G,0
	005016	260 17 0 00 005034 	LCXCW:	PUSHJ P,LCXR2
	005017	201 01 0 00 060700 		MOVEI A,060700	;WC_WC FIELD OF REG. 2
	005020	260 17 0 00 005022 		PUSHJ P,CXXCT
	005021	201 01 0 00 063300 		MOVEI A,063300	;CA_CA FIELD OF REG. 2
	005022	7 274 14 0 00 000001 	CXXCT:	DATAO SA0,A
	005023	254 00 0 00 005013 		JRST STEPX

	005024	7 274 14 0 00 000001 	C0XCT:	DATAO SA0,A
	005025	201 07 0 00 000000 	STEP0:	MOVEI G,0
	005026	254 00 0 00 005013 		JRST STEPX1

	005027	7 274 14 0 00 000001 	CXTST:	DATAO SA0,A
	005030	7 274 20 0 00 000000 		CONO SA0,RDCCI
	005031	7 274 04 0 00 000001 		DATAI SA0,A
	005032	263 17 0 00 000000 		POPJ P,

	005033	201 07 0 00 000000 	LC0R2:	MOVEI G,0
	005034	201 04 0 00 057760 	LCXR2:	MOVEI D,060000-20	;IARB TO BYTE OF REG. 2
	005035	271 04 0 00 000020 	LCXR2A:	ADDI D,20	;ADVANCE TO NEXT BYTE OF REGISTER
	005036	201 02 0 00 000000 		MOVEI B,0
	005037	246 02 0 00 000010 		LSHC B,10
	005040	7 274 14 0 00 000002 		DATAO SA0,B	;PUT A BYTE OF DATA INTO MICRO-P.C.
	005041	260 17 0 00 005013 		PUSHJ P,STEPX
	005042	7 274 14 0 00 000004 		DATAO SA0,D	;TRANSFER IT TO BYTE OF REG. 2
	005043	260 17 0 00 005013 		PUSHJ P,STEPX
	005044	606 04 0 00 000100 		TRNN D,100	;WAS THAT THE LAST BYTE?
	005045	254 00 0 00 005035 		JRST LCXR2A	;NO
	005046	263 17 0 00 000000 		POPJ P,	;I CAN'T BELIEVE WE FILLED THE WHOLE WORD


					PAGE
STATIC VERSION 1,1 - TYMSHARE SA10 DIAG ***STATIC TEST ONLY***	MACRO %52(551) 00:09 20-JAN-83 PAGE 1-16
STATIC	MAC	11-SEP-71 15:05


	005047				PDL:	BLOCK 200	;PUSHDOWN LIST

			000000		R0==0
			010000		R1==10000
			020000		R2==20000
			030000		R3==30000
			000000		B0==0
			000001		B1==1
			000002		B2==2
			000003		B3==3
			000004		B4==4
			000005		SW1==5
			000005		BUSOUT==5
			000006		FOFI==6
			000007		FOFIS==7
			000010		BUSIN==10
			000010		STRD==10
			000011		STRDC==11
			000012		TAGB==12
			000012		STWR==12
			000013		INTST==13
			000013		STWRD==13
			000014		ZERO==14
			000014		LOAD==14
			000015		MRB==15
			000015		WHOLE==15
			000016		FIFO==16
			000016		B14==16
			000017		FIFOS==17

			000000		WC==0
			002000		CA==2000
			004000		PC==4000
			006000		A3==6000
			000000		IARB==0
			000000		INCR==0
			000001		WCFLD==1
			000002		ADRFLD==2
			000003		MAGIC==3
			000001		DECR==1
			000400		CLRINS==400
			000000		CLRTAG==0
			010000		STGO==10000
			010400		STRQ==10400
			011000		STFLG==11000
			011400		STPIE==11400
			020000		ADROUT==20000
			020400		SELOUT==20400
			021000		SRVOUT==21000
			021400		NOPOUT==21400
			022000		SUPOUT==22000
			022400		CMDOUT==22400
			023000		WRBIT==23000
			023400		BUFENB==23400
STATIC VERSION 1,1 - TYMSHARE SA10 DIAG ***STATIC TEST ONLY***	MACRO %52(551) 00:09 20-JAN-83 PAGE 1-17
STATIC	MAC	11-SEP-71 15:05

			030000		INS0==30000
			030400		INS1==30400
			031000		SELERR==31000
			031400		CTBYT==31400
			032000		CTLERR==32000
			032400		SKPFLG==32400
			033000		LENERR==33000
			033400		PCIFLG==33400
			000000		BIT00==0
			000001		BIT01==1
			000020		BIT10==20
			000021		BIT11==21
			000040		BIT20==40
			000041		BIT21==41
			000060		BIT30==60
			000061		BIT31==61
			000100		BIT40==100
			000101		BIT41==101
			000120		BIT50==120
			000121		BIT51==121
			000140		BIT60==140
			000141		BIT61==141
			000160		BIT70==160
			000161		BIT71==161
			000200		Z==200
			000201		NZ==201
			000221		ERR==221
			000220		NERR==220
			000240		DEVM==240
			000260		RBAK==260
			000300		NBTM==300
			000320		IFN EADR,<SKPC==320>
					IFE EADR,<SKPC==Z>
			005000		TAGBS==TAGB_10
			005000		ADRI0==TAGBS+BIT00
			005001		ADRI1==TAGBS+BIT01
			005020		SELI0==TAGBS+BIT10
			005021		SELI1==TAGBS+BIT11
			005040		BFMT0==TAGBS+BIT20
			005041		BFMT1==TAGBS+BIT21
			005060		OPLI0==TAGBS+BIT30
			005061		OPLI1==TAGBS+BIT31
			005100		RQI0==TAGBS+BIT40
			005101		RQI1==TAGBS+BIT41
			005120		STAI0==TAGBS+BIT50
			005121		STAI1==TAGBS+BIT51
			005140		BCRQ0==TAGBS+BIT60
			005141		BCRQ1==TAGBS+BIT61
			005161		BFHLT0==TAGBS+BIT71
			005160		BFHLT1==TAGBS+BIT70
			005400		INSTS==INTST_10
			005400		INS00==INSTS+BIT00
			005401		INS01==INSTS+BIT01
			005420		INS10==INSTS+BIT10
			005421		INS11==INSTS+BIT11
STATIC VERSION 1,1 - TYMSHARE SA10 DIAG ***STATIC TEST ONLY***	MACRO %52(551) 00:09 20-JAN-83 PAGE 1-18
STATIC	MAC	11-SEP-71 15:05

			005560		PCIF0==INSTS+BIT70
			005561		PCIF1==INSTS+BIT71
			002400		SW1S==SW1_10
			002400		BSY0==SW1S+BIT00
			002401		BSY1==SW1S+BIT01
			002420		STRQ0==SW1S+BIT10
			002421		STRQ1==SW1S+BIT11
			002440		STFL0==SW1S+BIT20
			002441		STFL1==SW1S+BIT21
			002500		WCOK0==SW1S+BIT40
			002501		WCOK1==SW1S+BIT41
			002520		TIMER0==SW1S+BIT50
			002521		TIMER1==SW1S+BIT51

					DEFINE MPAGE
					<IFN .&17,<.PRINT <BADMPG>>>

					DEFINE ADRSET (NAME)
					<IFIDN <NAME>,<>,<ADR=.+1>
					IFDIF <NAME>,<>,<ADR=NAME>
					IF2,<IFN <.&1400>-<ADR&1400>,<.PRINT <BNDER1>>>
					ADR=ADR&377
					>
					DEFINE PULSE (BIT,NAME)
					<ADRSET NAME
					.,,BIT+2000+ADR
					>

					DEFINE ON (BIT,NAME)
					<ADRSET NAME
					.,,BIT+4000+ADR
					>
					DEFINE OFF (BIT,NAME)
					<ADRSET NAME
					.,,BIT+ADR
					>
					DEFINE ADRST1 (NAME)
					<IFIDN <NAME>,<>,<ADR=.+1>
					IFDIF <NAME>,<>,<ADR=NAME>
					IF2,<IFN <.&1760>-<ADR&1760>,<.PRINT <BNDERR>>>
					ADR=ADR&17
					>
					DEFINE XFER (REG,SRC,DEST,NAME)
					<ADRST1 NAME
					.,,140000+REG+<SRC_10>+<DEST_4>+ADR
					>
					DEFINE XANC (SRC1,SRC2,REG,DEST,NAME)
					<ADRST1 NAME
					.,,040000+REG+SRC1+<SRC2_10>+<DEST_4>+ADR
					>
					DEFINE GOTO (NAME)
					<.,,NAME
					>
					DEFINE TEST (REG,SRC,FN,NAME)
					<ADRST1 NAME
STATIC VERSION 1,1 - TYMSHARE SA10 DIAG ***STATIC TEST ONLY***	MACRO %52(551) 00:09 20-JAN-83 PAGE 1-19
STATIC	MAC	11-SEP-71 15:05

					.,,100000+REG+<SRC_10>+<<FN!<ADR+1>>-<FN&<ADR+1>>>
					>
					DEFINE HANG (REG,SRC,FN)
					<.,,100000+REG+<SRC_10>+FN+.&17
					>
					;THIS IS WHERE THE MICROCODE IS LOADED

						XALL
	005247				MCBEG0:

	005247				DEPHASE

	005247				MCBEG:!
	005247	000000	000000		TABCNT:	0
	005250	000000	040000		ADRLO:	40000
	005251	000000	000000		PASS:	0
	005252				PATCH:
	005252				PAT:!	BLOCK 1000
	006252					LIT
	006252	400000	400000
	006253	015 012 015 012 015
	006254	012 011 123 101 061
	006255	060 040 123 124 101
	006256	124 111 103 040 124
	006257	105 123 124 015 012
	006260	000 000 000 000 000
	006261	264 00 0 00 006335
	006262	264 00 0 00 006533
	006263	000001	000000
	006264	000001	000007
	006265	000002	000007
	006266	777777	777774
	006267	000000	040000
	006270	121000	000001
	006271	200000	006635
	006272	000003	777777
	006273	30 13 0 00 000001
	006274	30 13 0 00 004267
	006275	00 24 0 00 000001
	006276	20 24 0 00 004270
	006277	24 03 0 00 000001
	006300	14 03 0 00 004270
	006301	00 24 0 00 000002
	006302	20 24 0 00 004271
	006303	24 03 0 00 000002
	006304	14 03 0 00 004271
	006305	240200	000001
	006306	000017	777777
	006307	100200	000002
	006310	100200	000003
	006311	220200	000001
	006312	000000	000064
	006316					VAR
	006317	000000	000000		LPTPTR:	0
	006320	000000	000000		PTRBUF:	0
STATIC VERSION 1,1 - TYMSHARE SA10 DIAG ***STATIC TEST ONLY***	MACRO %52(551) 00:09 20-JAN-83 PAGE 1-20
STATIC	MAC	11-SEP-71 15:05

	006321	240 003 000 000 00 	PNOP:	BYTE (8) 240,3,0,0
	006322	120020	000000		PSENSE:	120020000000+<0_14>	;SENSE
						IOW 30,SENSED		^;24 BYTES OF SENSE DATA
	006323	775000	006324		-30*100,,SENSED
	006324				SENSED:	BLOCK 6
	006332	000000	777000		ADRHI:	777000
	006333	123456	654321		RNDM:	123456,,654321
	006334	000000	000000		PIE:	0
	006335	254 04 0 00 006336 	UUOH:	HALT,.+1
	006336				CCTBL:	BLOCK NCHN
	006340	000000	000000		MAMBTL:	0
	006341	000000	000000		MAMBTR:	0
	006342	000000	000000		INCTW:	0
	006343	000000	000000		CWTA:	0
	006344	000000	000000		CWTB:	0
	006345	261 17 0 00 000014 	SETPTR:	PUSH P,L
	006346	200 14 0 00 007043 		MOVE L,[POINT 7,PTRBUF,]
	006347	202 14 0 00 006317 		MOVEM L,LPTPTR
	006350	402 00 0 00 006320 		SETZM PTRBUF
	006351	262 17 0 00 000014 		POP P,L
	006352	263 17 0 00 000000 		POPJ P,


	006353	505 03 0 00 440700 	STYO:	HRLI C,440700
	006354	134 02 0 00 000003 	STYO1:	ILDB B,C
	006355	306 02 0 00 000045 		CAIN B,"%"
	006356	254 00 0 00 006370 		JRST STYO2
	006357	306 02 0 00 000044 		CAIN B,"$"
	006360	254 00 0 00 006374 		JRST STYO3		;DECIMAL TYPEOUT
	006361	306 02 0 00 000134 		CAIN B,"\"
	006362	254 00 0 00 006400 		JRST STYO4		;HEX TYPEOUT
	006363	306 02 0 00 000015 		CAIN B,15	;IS THIS A CR
	006364	254 00 0 00 006744 		JRST TERM	;YES FINISH PRINTING
	006365	322 02 0 00 006504 	TTYO:	JUMPE B,CPOPJ	;ALL FINISHED
	006366	260 17 0 00 006431 		PUSHJ P,TYO	;NO STUFF ANOTHER CHARACTER
	006367	254 00 0 00 006354 		JRST STYO1

	006370	134 02 0 00 000003 	STYO2:	ILDB B,C
	006371	200 01 0 02 777700 		MOVE A,-100(B)
	006372	260 17 0 00 006407 		PUSHJ P,OPT
	006373	254 00 0 00 006354 		JRST STYO1
	006374	134 02 0 00 000003 	STYO3:	ILDB B,C
	006375	200 01 0 02 777700 		MOVE A,-100(B)
	006376	260 17 0 00 006722 		PUSHJ P,DPT
	006377	254 00 0 00 006354 		JRST STYO1
	006400	134 02 0 00 000003 	STYO4:	ILDB B,C
	006401	200 01 0 02 777700 		MOVE A,-100(B)
	006402	260 17 0 00 006734 		PUSHJ P,HPT
	006403	254 00 0 00 006354 		JRST STYO1

	006404	260 17 0 00 006405 	CR4:	PUSHJ P,CR2
	006405	260 17 0 00 000150 	CR2:	PUSHJ P,CR
	006406	254 00 0 00 000150 		JRST CR

	006407	607 01 0 00 777777 	OPT:	TLNN A,-1
STATIC VERSION 1,1 - TYMSHARE SA10 DIAG ***STATIC TEST ONLY***	MACRO %52(551) 00:09 20-JAN-83 PAGE 1-21
STATIC	MAC	11-SEP-71 15:05

	006410	254 00 0 00 006420 		JRST OPT1
	006411	261 17 0 00 000001 		PUSH P,A
	006412	557 00 0 00 000001 		HLRZS A
	006413	260 17 0 00 006421 		PUSHJ P,OPT2
	006414	262 17 0 00 000001 		POP P,A
	006415	201 02 0 00 000054 		MOVEI B,54
	006416	260 17 0 00 006431 		PUSHJ P,TYO
	006417	260 17 0 00 006431 		PUSHJ P,TYO
	006420	553 00 0 00 000001 	OPT1:	HRRZS A
	006421	231 01 0 00 000010 	OPT2:	IDIVI A,10
	006422	322 01 0 00 006426 		JUMPE A,OPT3
	006423	506 02 0 17 000000 		HRLM B,(P)
	006424	260 17 0 00 006421 		PUSHJ P,OPT2
	006425	554 02 0 17 000000 		HLRZ B,(P)
	006426	271 02 0 00 000060 	OPT3:	ADDI B,60
	006427	303 02 0 00 000071 		CAILE B,"9"
	006430	271 02 0 00 000007 		ADDI B,"A"-"9"-1
	006431	7 120 30 0 00 000020 	TYO:	CONSZ TTY,20
	006432	254 00 0 00 006431 		JRST .-1
	006433	7 120 34 0 00 000040 		ALT^	CONSO TTY,40
	006434	254 00 0 00 006451 		JRST .+15
	006435	7 120 04 0 00 000015 		DATAI	TTY,FT	;GET TTY INTO AC FT
	006436	405 15 0 00 000177 		ANDI	FT,177	;STRIP OFF VALID DATA
	006437	306 15 0 00 000176 		CAIN	FT,176	;LOOK FOR ALTMODE
	006440	254 00 0 00 006447 		JRST	.+7		;IF DDT
	006441	306 15 0 00 000175 		CAIN FT,175	;LOOK FOR ANOTHER FLAVOR ALT MODE
	006442	254 00 0 00 006447 		JRST .+5
	006443	306 15 0 00 000033 		CAIN FT,33	;STILL LOOKING FOR ALT MODE
	006444	254 00 0 00 006447 		JRST .+3
	006445	302 15 0 00 000124 		CAIE FT,124	;LOOK FOR LETTER T
	006446	254 00 0 00 006451 		JRST .+3
	006447	7 010 14 0 00 007044 		DATAO PAG,[400000,,400000]
	006450	254 00 0 00 004010 		JRST,MSG+3
	006451	306 02 0 00 000011 		CAIN B,11
	006452	254 00 0 00 006461 		JRST TABRTN
	006453	7 000 04 0 00 000000 		DATAI DSW,0
	006454	603 00 0 00 040000 		TLNE 0,040000
	006455	263 17 0 00 000000 		POPJ P,
	006456	7 120 14 0 00 000002 	FTYO:	DATAO TTY,B
	006457	350 00 0 00 005247 		AOS ,TABCNT
	006460	263 17 0 00 000000 		POPJ P,

	006461	261 17 0 00 000016 	TABRTN:	PUSH P,BF
	006462	200 16 0 00 005247 		MOVE BF,TABCNT
	006463	606 16 0 00 000007 		TRNN BF,7
	006464	254 00 0 00 006470 		JRST TABE
	006465	201 02 0 00 000040 	TABL:	MOVEI B,40
	006466	260 17 0 00 006431 		PUSHJ P,TYO
	006467	254 00 0 00 006462 		JRST TABRTN+1
	006470	306 02 0 00 000011 	TABE:	CAIN B,11
	006471	254 00 0 00 006465 		JRST TABL
	006472	262 17 0 00 000016 		POP P,BF
	006473	263 17 0 00 000000 		POPJ P,


STATIC VERSION 1,1 - TYMSHARE SA10 DIAG ***STATIC TEST ONLY***	MACRO %52(551) 00:09 20-JAN-83 PAGE 1-22
STATIC	MAC	11-SEP-71 15:05

	006474	260 17 0 00 006345 	JPOPJ:	PUSHJ P,SETPTR
	006475	402 00 0 00 005247 		SETZM TABCNT
	006476	7 124 14 0 00 006320 		DATAO LPT,PTRBUF	;JAM NULLS TO SEE IF LPT BUSY
	006477	7 124 34 0 00 000100 		CONSO LPT,100
	006500	254 00 0 00 006477 		JRST .-1
	006501	7 124 20 0 00 002000 		CONO LPT,2000
	006502	7 124 34 0 00 000100 		CONSO LPT,100
	006503	254 00 0 00 006502 		JRST .-1
	006504	263 17 0 00 000000 	CPOPJ:	POPJ P,
	006505	200 01 0 00 006523 	CSET:	MOVE A,CHAN
	006506	242 01 0 00 000002 		LSH A,2
	006507	271 01 0 00 000300 		ADDI A,BASE
	006510	202 01 0 00 006524 		MOVEM A,CBASE
	006511	271 01 0 00 000001 		ADDI A,1
	006512	202 01 0 00 006525 		MOVEM A,CBASE+1
	006513	271 01 0 00 000001 		ADDI A,1
	006514	202 01 0 00 006526 		MOVEM A,CBASE+2
	006515	200 01 0 00 006523 		MOVE A,CHAN
	006516	137 01 0 00 007045 		DPB A,[030200,,STBSYC]
	006517	137 01 0 00 007046 		DPB A,[030200,,CLSTFC]
	006520	137 01 0 00 007047 		DPB A,[030200,,STPIEC]
	006521	137 01 0 00 007050 		DPB A,[030200,,STSRQC]
	006522	263 17 0 00 000000 		POPJ P,0

	006523	000000	000000		CHAN:	0
	006524				CBASE:	BLOCK 3
	006527	000000	000441		STBSYC:	STBSY+SA0CH
	006530	000000	000601		CLSTFC:	CLSTF+SA0CH
	006531	000000	011401		STPIEC:	STPIE+SA0CH
	006532	000000	000541		STSRQC:	STSRQ+SA0CH

	006533	000000	000000		INT1:	0
	006534	201 11 0 00 000001 		MOVEI I,1
	006535	312 11 0 00 006334 		CAME I,PIE	;ARE WE EXPECTING AN INTERRUPT ON THIS CHANNEL?
	006536	254 04 0 00 006537 		HALT,.+1	;NO
	006537	7 274 20 0 02 000600 		CONO SA0,CLSTF(B)	;REMOVE THE CAUSE FOR THIS INTERRUPT
								;(MAIN PROGRAM HAS SET B UP)
	006540	402 00 0 00 006334 		CLEARM PIE	;NOTE THAT NO FURTHER INTERRUPTS ARE EX-
								;PECTED, ALSO TELL MAIN PROGRAM THAT ONE
								;INTERRUPT DID OCCUR
	006541	254 12 1 00 006533 		JRST 12,@INT1

	006542	000000	000000		INT2:	0
	006543	201 11 0 00 000002 		MOVEI I,2
	006544	312 11 0 00 006334 		CAME I,PIE
	006545	254 04 0 00 006546 		HALT,.+1
	006546	7 274 20 0 02 000600 		CONO SA0,CLSTF(B)
	006547	402 00 0 00 006334 		CLEARM PIE
	006550	254 12 1 00 006542 		JRST 12,@INT2

	006551	000000	000000		INT3:	0
	006552	201 11 0 00 000003 		MOVEI I,3
	006553	312 11 0 00 006334 		CAME I,PIE
	006554	254 04 0 00 006555 		HALT,.+1
	006555	7 274 20 0 02 000600 		CONO SA0,CLSTF(B)
STATIC VERSION 1,1 - TYMSHARE SA10 DIAG ***STATIC TEST ONLY***	MACRO %52(551) 00:09 20-JAN-83 PAGE 1-23
STATIC	MAC	11-SEP-71 15:05

	006556	402 00 0 00 006334 		CLEARM PIE
	006557	254 12 1 00 006551 		JRST 12,@INT3

	006560	000000	000000		INT4:	0
	006561	201 11 0 00 000004 		MOVEI I,4
	006562	312 11 0 00 006334 		CAME I,PIE
	006563	254 04 0 00 006564 		HALT,.+1
	006564	7 274 20 0 02 000600 		CONO SA0,CLSTF(B)
	006565	402 00 0 00 006334 		CLEARM PIE
	006566	254 12 1 00 006560 		JRST 12,@INT4

	006567	000000	000000		INT5:	0
	006570	201 11 0 00 000005 		MOVEI I,5
	006571	312 11 0 00 006334 		CAME I,PIE
	006572	254 04 0 00 006573 		HALT,.+1
	006573	7 274 20 0 02 000600 		CONO SA0,CLSTF(B)
	006574	402 00 0 00 006334 		CLEARM PIE
	006575	254 12 1 00 006567 		JRST 12,@INT5


	006576	000000	000000		INT6:	0
	006577	201 11 0 00 000006 		MOVEI I,6
	006600	312 11 0 00 006334 		CAME I,PIE
	006601	254 04 0 00 006602 		HALT,.+1
	006602	7 274 20 0 02 000600 		CONO SA0,CLSTF(B)
	006603	402 00 0 00 006334 		CLEARM PIE
	006604	254 12 1 00 006576 		JRST 12,@INT6

	006605	000000	000000		INT7:	0
	006606	201 11 0 00 000007 		MOVEI I,7
	006607	312 11 0 00 006334 		CAME I,PIE
	006610	254 04 0 00 006611 		HALT,.+1
	006611	7 274 20 0 02 000600 		CONO SA0,CLSTF(B)
	006612	402 00 0 00 006334 		CLEARM PIE
	006613	254 12 1 00 006605 		JRST 12,@INT7
	006614	000000	000000		PTN0:	0	;CALLED BY JSR
	006615	254 00 0 00 006623 		JRST PTN1	;ON TO NEXT VALUE

	006616	000000	000000		PTN:	0
	006617	271 01 0 00 006771 		ADDI A,PTNTX	;BEG OF SINGLE BITS IN TABLE
	006620	202 01 0 00 007041 		MOVEM A,PTNA	;WHERE IN TABLE TO STOP
	006621	201 01 0 00 006770 		MOVEI A,PTNTX-1
	006622	202 01 0 00 007042 		MOVEM A,PTNP	;INITIALIZE POINTER
	006623	350 01 0 00 007042 	PTN1:	AOS A,PTNP
	006624	311 01 0 00 007041 		CAML A,PTNA	;AT END OF DATA?
	006625	254 00 0 00 006630 		JRST PTN5	;YES, MAKE 1 RANDOM #
	006626	200 01 0 01 000000 		MOVE A,(A)	;NO, TAKE ENTRY FROM TABLE
	006627	254 00 1 00 006616 		JRST @PTN	;EXIT TO TOP OF LOOP

	006630	316 01 0 00 007041 	PTN5:	CAMN A,PTNA	;GIVEN RANDOM VALUE YET?
	006631	254 00 1 00 006614 		JRST @PTN0	;YES, EXIT TO BOTTOM OF LOOP
	006632	201 01 0 00 000105 		MOVEI A,105	;NO, MAKE IT NOW
	006633	163 01 0 00 006333 		FMPB A,RNDM
	006634	254 00 1 00 006616 		JRST @PTN	;AND EXIT TO TOP OF LOOP
	006635	000000	000000		TEST:	0
STATIC VERSION 1,1 - TYMSHARE SA10 DIAG ***STATIC TEST ONLY***	MACRO %52(551) 00:09 20-JAN-83 PAGE 1-24
STATIC	MAC	11-SEP-71 15:05

	006636	777777	777777			-1
	006637	252525	252525			252525,,252525
	006640	525252	525252			525252,,525252	;PSEUDO-RANDOM TEST DATA
	006641				TEST1:	BLOCK 4	;PLACE TO READ STUFF BACK INTO

	006645				CWTD:
					IFE CV,<325125,,340125>
	006645	325137	340125		IFN CV,<325137,,340125>
	006646	125120	252252			125120,,252252
	006647	240000	000000			240000,,

	006650	000000	014000		STCLM:	014000	;SET BUSY FLAG
	006651	000000	015000			015000	;SET STATUS FLAG
	006652	000000	015400			015400	;SET P.I. ENABLE FLAG

	006653	000000	002400		STCLM1:	BSY0
	006654	000000	000100			STF0
	006655	000000	040000			PIE0

	006656				BITS:	REPEAT ^D36,<	EXP 1B<.-BITS>>
	006656	400000	000000			EXP 1B<.-BITS>
	006657	200000	000000			EXP 1B<.-BITS>
	006660	100000	000000			EXP 1B<.-BITS>
	006661	040000	000000			EXP 1B<.-BITS>
	006662	020000	000000			EXP 1B<.-BITS>
	006663	010000	000000			EXP 1B<.-BITS>
	006664	004000	000000			EXP 1B<.-BITS>
	006665	002000	000000			EXP 1B<.-BITS>
	006666	001000	000000			EXP 1B<.-BITS>
	006667	000400	000000			EXP 1B<.-BITS>
	006670	000200	000000			EXP 1B<.-BITS>
	006671	000100	000000			EXP 1B<.-BITS>
	006672	000040	000000			EXP 1B<.-BITS>
	006673	000020	000000			EXP 1B<.-BITS>
	006674	000010	000000			EXP 1B<.-BITS>
	006675	000004	000000			EXP 1B<.-BITS>
	006676	000002	000000			EXP 1B<.-BITS>
	006677	000001	000000			EXP 1B<.-BITS>
	006700	000000	400000			EXP 1B<.-BITS>
	006701	000000	200000			EXP 1B<.-BITS>
	006702	000000	100000			EXP 1B<.-BITS>
	006703	000000	040000			EXP 1B<.-BITS>
	006704	000000	020000			EXP 1B<.-BITS>
	006705	000000	010000			EXP 1B<.-BITS>
	006706	000000	004000			EXP 1B<.-BITS>
	006707	000000	002000			EXP 1B<.-BITS>
	006710	000000	001000			EXP 1B<.-BITS>
	006711	000000	000400			EXP 1B<.-BITS>
	006712	000000	000200			EXP 1B<.-BITS>
	006713	000000	000100			EXP 1B<.-BITS>
	006714	000000	000040			EXP 1B<.-BITS>
	006715	000000	000020			EXP 1B<.-BITS>
	006716	000000	000010			EXP 1B<.-BITS>
	006717	000000	000004			EXP 1B<.-BITS>
	006720	000000	000002			EXP 1B<.-BITS>
STATIC VERSION 1,1 - TYMSHARE SA10 DIAG ***STATIC TEST ONLY***	MACRO %52(551) 00:09 20-JAN-83 PAGE 1-25
STATIC	MAC	11-SEP-71 15:05

	006721	000000	000001			EXP 1B<.-BITS>
	006722	201 02 0 00 000055 	DPT:	MOVEI B,"-"
	006723	335 00 0 00 000001 		SKIPGE A
	006724	260 17 0 00 006431 		PUSHJ P,TYO
	006725	217 00 0 00 000001 		MOVMS A
	006726	231 01 0 00 000012 	DPT1:	IDIVI A,12
	006727	322 01 0 00 006426 		JUMPE A,OPT3
	006730	506 02 0 17 000000 		HRLM B,(P)
	006731	260 17 0 00 006726 		PUSHJ P,DPT1
	006732	554 02 0 17 000000 		HLRZ B,(P)
	006733	254 00 0 00 006426 		JRST OPT3

	006734	201 02 0 00 000000 	HPT:	MOVEI B,0
	006735	245 01 0 00 777774 		ROTC A,-4
	006736	241 02 0 00 000004 		ROT B,4
	006737	322 01 0 00 006426 		JUMPE A,OPT3
	006740	506 02 0 17 000000 		HRLM B,(P)
	006741	260 17 0 00 006734 		PUSHJ P,HPT
	006742	554 02 0 17 000000 		HLRZ B,(P)
	006743	254 00 0 00 006426 		JRST OPT3
	006744	402 00 0 00 005247 	TERM:	SETZM TABCNT
	006745	254 00 0 00 006365 		JRST TTYO
	006746	261 17 0 00 000014 		PUSH P,L
	006747	200 14 0 00 006317 		MOVE L,LPTPTR
	006750	603 14 0 00 760000 		TLNE L,760000
	006751	260 17 0 00 006762 		PUSHJ P,FOUT
	006752	7 124 30 0 00 000200 		CONSZ LPT,200
	006753	254 00 0 00 006752 		JRST .-1
	006754	134 02 0 00 000003 		ILDB B,C
	006755	306 02 0 00 000012 		CAIN B,12
	006756	134 02 0 00 000003 		ILDB B,C
	006757	262 17 0 00 000014 		POP P,L
	006760	322 02 0 00 006474 		JUMPE B,JPOPJ
	006761	254 00 0 00 006355 		JRST STYO1+1


	006762	7 124 30 0 00 000200 	FOUT:	CONSZ LPT,200
	006763	254 00 0 00 006762 		JRST .-1
	006764	7 124 14 0 00 006320 		DATAO LPT,PTRBUF
	006765	7 124 34 0 00 000200 		CONSO LPT,200
	006766	254 00 0 00 006765 		JRST .-1
	006767	260 17 0 00 006345 		PUSHJ P,SETPTR
	006770	263 17 0 00 000000 		POPJ P,

	006771				PTNTX:	REPEAT ^D36,<	EXP 1B<PTNTX-.+^D35>>
	006771	000000	000001			EXP 1B<PTNTX-.+^D35>
	006772	000000	000002			EXP 1B<PTNTX-.+^D35>
	006773	000000	000004			EXP 1B<PTNTX-.+^D35>
	006774	000000	000010			EXP 1B<PTNTX-.+^D35>
	006775	000000	000020			EXP 1B<PTNTX-.+^D35>
	006776	000000	000040			EXP 1B<PTNTX-.+^D35>
	006777	000000	000100			EXP 1B<PTNTX-.+^D35>
	007000	000000	000200			EXP 1B<PTNTX-.+^D35>
	007001	000000	000400			EXP 1B<PTNTX-.+^D35>
	007002	000000	001000			EXP 1B<PTNTX-.+^D35>
STATIC VERSION 1,1 - TYMSHARE SA10 DIAG ***STATIC TEST ONLY***	MACRO %52(551) 00:09 20-JAN-83 PAGE 1-26
STATIC	MAC	11-SEP-71 15:05

	007003	000000	002000			EXP 1B<PTNTX-.+^D35>
	007004	000000	004000			EXP 1B<PTNTX-.+^D35>
	007005	000000	010000			EXP 1B<PTNTX-.+^D35>
	007006	000000	020000			EXP 1B<PTNTX-.+^D35>
	007007	000000	040000			EXP 1B<PTNTX-.+^D35>
	007010	000000	100000			EXP 1B<PTNTX-.+^D35>
	007011	000000	200000			EXP 1B<PTNTX-.+^D35>
	007012	000000	400000			EXP 1B<PTNTX-.+^D35>
	007013	000001	000000			EXP 1B<PTNTX-.+^D35>
	007014	000002	000000			EXP 1B<PTNTX-.+^D35>
	007015	000004	000000			EXP 1B<PTNTX-.+^D35>
	007016	000010	000000			EXP 1B<PTNTX-.+^D35>
	007017	000020	000000			EXP 1B<PTNTX-.+^D35>
	007020	000040	000000			EXP 1B<PTNTX-.+^D35>
	007021	000100	000000			EXP 1B<PTNTX-.+^D35>
	007022	000200	000000			EXP 1B<PTNTX-.+^D35>
	007023	000400	000000			EXP 1B<PTNTX-.+^D35>
	007024	001000	000000			EXP 1B<PTNTX-.+^D35>
	007025	002000	000000			EXP 1B<PTNTX-.+^D35>
	007026	004000	000000			EXP 1B<PTNTX-.+^D35>
	007027	010000	000000			EXP 1B<PTNTX-.+^D35>
	007030	020000	000000			EXP 1B<PTNTX-.+^D35>
	007031	040000	000000			EXP 1B<PTNTX-.+^D35>
	007032	100000	000000			EXP 1B<PTNTX-.+^D35>
	007033	200000	000000			EXP 1B<PTNTX-.+^D35>
	007034	400000	000000			EXP 1B<PTNTX-.+^D35>

	007035	000000	000000		PTNT:	0
	007036	777777	777777			-1
	007037	252525	252525			252525,,252525
	007040	525252	525252			525252,,525252

	007041	000000	000000		PTNA:	0
	007042	000000	000000		PTNP:	0

					END

NO ERRORS DETECTED

PROGRAM BREAK IS 000000
ABSLUTE BREAK IS 007051
CPU TIME USED 03:56.389

5K CORE USED
STATIC VERSION 1,1 - TYMSHARE SA10 DIAG ***STATIC TEST ONLY***	MACRO %52(551) 00:09 20-JAN-83 PAGE S-1
STATIC	MAC	11-SEP-71 15:05		SYMBOL TABLE

A		000001		BSY1		002401	SPD	ELEV		000011		INT4		006560
A3		006000	SPD	BSY2		000400	SPD	ER28		005003		INT5		006567
ADRFLD		000002	SPD	BSY3		000200	SPD	ER41N		004775		INT6		006576
ADRHI		006332		BTE		004031		ERR		000221	SPD	INT7		006605
ADRI0		005000	SPD	BTE2		004040		F		000006		INTST		000013	SPD
ADRI1		005001	SPD	BTE4		004054		FIFO		000016	SPD	IOFWR		004000	SPD
ADRLO		005250		BUFENB		023400	SPD	FIFO1		004542		J		000012
ADROUT		020000	SPD	BUSIN		000010	SPD	FIFO1A		004555		JPOPJ		006474
APRCH		000002	SPD	BUSOUT		000005	SPD	FIFO2		004563		K		000013
B		000002		C		000003		FIFO2A		004576		L		000014
B0		000000	SPD	C0XCT		005024		FIFO2B		004606		LC0CW		005015
B1		000001	SPD	CA		002000	SPD	FIFO2C		004602		LC0R2		005033
B14		000016	SPD	CAX		004270		FIFO3		004613		LCXCW		005016
B2		000002	SPD	CBASE		006524		FIFO3A		004624		LCXR2		005034
B3		000003	SPD	CCTBL		006336		FIFO3Z		004631		LCXR2A		005035
B4		000004	SPD	CHAN		006523		FIFO4		004632		LENERR		033000	SPD
BASE		000300		CHRST		002000	SPD	FIFO4A		004636		LOAD		000014	SPD
BCRQ0		005140	SPD	CLBSY		000400	SPD	FIFO4B		004654		LPT		000124	SPD
BCRQ1		005141	SPD	CLMERR		200000	SPD	FIFO4C		004664		LPTPTR		006317
BEG		004011		CLPIE		000700	SPD	FIFOS		000017	SPD	MAGIC		000003	SPD
BEG1		005001		CLRINS		000400	SPD	FOFI		000006	SPD	MAMB		004171
BEG1A		004067		CLRTAG		000000	SPD	FOFIS		000007	SPD	MAMB1		004173
BEG1AA		004066		CLSRQ		000500	SPD	FORT		000014		MAMB1A		004211
BEG1B		004077		CLSTF		000600	SPD	FOUT		006762		MAMB2		004221
BEG1C		004102		CLSTFC		006530		FT		000015		MAMB3		004226
BEG2		004111		CMDOUT		022400	SPD	FTYO		006456		MAMB4		004235
BEG20		004106		CNTSFT		000006	SPD	G		000007		MAMBTL		006340
BEG20A		004110		CPOPJ		006504		GOGO		004000		MAMBTR		006341
BEG21		004121		CR		000150	SPD	H		000010		MBUSDN		040000	SPD
BEG21A		004123		CR2		006405		HANGPC		000064	SPD	MCBEG		005247	SPD
BEGERR		006316		CR4		006404		HPT		006734		MCBEG0		005247
BF		000016		CSET		006505		I		000011		MCMP		004445
BFHLT0		005161	SPD	CTBYT		031400	SPD	IARB		000000	SPD	MCMP1		004451
BFHLT1		005160	SPD	CTLERR		032000	SPD	IARL		004132		MDNSYN		020000	SPD
BFMT0		005040	SPD	CV		000001	SPD	IARL1		004140		MEMACK		100000	SPD
BFMT1		005041	SPD	CWT1		004303		IARL2		004152		MRB		000015	SPD
BIT00		000000	SPD	CWT2		004305		INCR		000000	SPD	MRD		004373
BIT01		000001	SPD	CWT2A		004314		INCT		004326		MRD0		004365
BIT10		000020	SPD	CWTA		006343		INCT0		004327		MRD1		004370
BIT11		000021	SPD	CWTB		006344		INCT1		004330		MRD1A		004404
BIT20		000040	SPD	CWTD		006645		INCT1A		004336		MSG		004005
BIT21		000041	SPD	CWTST		004242		INCT2		004342		MUXACK		200000	SPD
BIT30		000060	SPD	CWTST0		004241		INCT4		004355		MWR		004427
BIT31		000061	SPD	CWTST1		004243		INCT5		004363		MWR1		004422
BIT40		000100	SPD	CWTST2		004272		INCTW		006342		MWR1A		004436
BIT41		000101	SPD	CXTST		005027		INS0		030000	SPD	NBADSP		000100	SPD
BIT50		000120	SPD	CXXCT		005022		INS00		005400	SPD	NBF		000020	SPD
BIT51		000121	SPD	D		000004		INS01		005401	SPD	NBTM		000300	SPD
BIT60		000140	SPD	DECR		000001	SPD	INS1		030400	SPD	NCHN		000002	SPD
BIT61		000141	SPD	DEVM		000240	SPD	INS10		005420	SPD	NERR		000220	SPD
BIT70		000160	SPD	DPT		006722		INS11		005421	SPD	NOPOUT		021400	SPD
BIT71		000161	SPD	DPT1		006726		INSTS		005400	SPD	NPACKS		000020	SPD
BITS		006656		DSW		000000	SPD	INT1		006533		NRETRY		000010	SPD
BRANCH		000400	SPD	E		000005		INT2		006542		NRPT		000022	SPD
BSY0		002400	SPD	EADR		000001	SPD	INT3		006551		NXM		100000	SPD
STATIC VERSION 1,1 - TYMSHARE SA10 DIAG ***STATIC TEST ONLY***	MACRO %52(551) 00:09 20-JAN-83 PAGE S-2
STATIC	MAC	11-SEP-71 15:05		SYMBOL TABLE

NZ		000201	SPD	RDDIAG		010000	SPD	STGO		010000	SPD	WRRQ		400000	SPD
OPLI0		005060	SPD	RDMA		000010	SPD	STPC0A		005006		Z		000200	SPD
OPLI1		005061	SPD	RDMBL		000020	SPD	STPIE		011400	SPD	ZERO		000014	SPD
OPT		006407		RDMBR		000030	SPD	STPIEC		006531
OPT1		006420		RECL		000200	SPD	STRD		000010	SPD
OPT2		006421		RESET		001000	SPD	STRDC		000011	SPD
OPT3		006426		RNDM		006333		STRQ		010400	SPD
P		000017		RQI0		005100	SPD	STRQ0		002420	SPD
PAG		000010	SPD	RQI1		005101	SPD	STRQ1		002421	SPD
PARERR		200000	SPD	RSTCH		000300	SPD	STSRQ		000540	SPD
PASS		005251		RSTSA		400000	SPD	STSRQC		006532
PAT		005252	SPD	SA0		000274	SPD	STSTF		000640	SPD
PATCH		005252		SA0CH		000001	SPD	STWR		000012	SPD
PC		004000	SPD	SACGO		001040	SPD	STWRD		000013	SPD
PCHAN		000001	SPD	SASTEP		001000	SPD	STYO		006353
PCIF0		005560	SPD	SELERR		031000	SPD	STYO1		006354
PCIF1		005561	SPD	SELI0		005020	SPD	STYO2		006370
PCIFLG		033400	SPD	SELI1		005021	SPD	STYO3		006374
PCX		004271		SELOUT		020400	SPD	STYO4		006400
PDL		005047		SENSED		006324		SUPOUT		022000	SPD
PI		000004	SPD	SETPTR		006345		SW1		000005	SPD
PIE		006334		SKPC		000320	SPD	SW1S		002400	SPD
PIE0		040000	SPD	SKPFLG		032400	SPD	SZER		004156
PIE1		020000	SPD	SRVOUT		021000	SPD	SZER1		004166
PIE2		010000	SPD	ST		000016		TABCNT		005247
PIE3		004000	SPD	STAI0		005120	SPD	TABE		006470
PIRQ		400000	SPD	STAI1		005121	SPD	TABL		006465
PISETL		004023		STBSY		000440	SPD	TABRTN		006461
PIT1		004707		STBSYC		006527		TAGB		000012	SPD
PIT2		004712		STCL		004455		TAGBS		005000	SPD
PIT3		004713		STCL1		004466		TEN		000010
PIT3A		004722		STCL1A		004471		TERM		006744
PITST		004672		STCL1B		004474		TEST		006635
PITST0		004670		STCL1C		004500		TEST1		006641
PITST1		004701		STCL1D		004503		TIMER0		002520	SPD
PNOP		006321		STCL1E		004507		TIMER1		002521	SPD
PSENSE		006322		STCL1F		004512		TRECL		002000	SPD
PTN		006616		STCLH		004456		TT		000013
PTN0		006614		STCLM		006650		TTY		000120	SPD
PTN1		006623		STCLM1		006653		TTYO		006365
PTN5		006630		STCLM2		004524		TUNIT		000200
PTNA		007041		STCLM3		004530		TYO		006431
PTNP		007042		STCLM4		004535		UCT		004731
PTNT		007035		STEP0		005025		UCT0		004733
PTNTX		006771		STEPC0		005004		UCT7		004747
PTRBUF		006320		STEPCX		005005		UCT8		004752
QFIFO		004541		STEPX		005013		UUOH		006335
R0		000000	SPD	STEPX1		005013		WC		000000	SPD
R1		010000	SPD	STF0		000100	SPD	WCFLD		000001	SPD
R2		020000	SPD	STF1		000040	SPD	WCOK0		002500	SPD
R3		030000	SPD	STF2		000020	SPD	WCOK1		002501	SPD
RBAK		000260	SPD	STF3		000010	SPD	WCX		004267
RDBITS		000050	SPD	STFL0		002440	SPD	WCXBP		004264
RDCCI		000000	SPD	STFL1		002441	SPD	WHOLE		000015	SPD
RDCONI		000040	SPD	STFLG		011000	SPD	WRBIT		023000	SPD

u