001BASX     051134566371051134566371 605606
001CBHA     050733467774050733467774 602616
001CTFC     051104564044051104564044 605306
001EDSN     050754505372050754505372 603986
001MOBL     051236577202051236577202 606546
001REVW     011011564226011011564226 180116
002BASX     051134566373051134566373 605606
002CBHA     050733467775050733467775 602616
002CTFC     051104564052051104564052 605306
002EDSN     050754505373050754505373 603986
002MOBL     051236577203051236577203 606546
002REVW     011011564233011011564233 180116
003BASX     051134566377051134566377 605606
003CBHA     050733467776050733467776 602616
003CTFC     051104564057051104564057 605306
003EDSN     050754505466050754505466 603986
003MOBL     051236577204051236577204 606546
003REVW     011011564237011011564237 180116
004BASX     051134566404051134566404 605606
004CBHA     050733467777050733467777 602616
004CTFC     051104564064051104564064 605306
004EDSN     050754505470050754505470 603986
004MOBL     051236577205051236577205 606546
004REVW     011011564240011011564240 180116
005CTFC     051104564073051104564073 605306
005REVW     011011564241011011564241 180116
2359082     051176572417051176572417 606116
2359083     051177572424051177572424 606126
A1657L1     031353071123031353071123 332706
A1657L2     031353071124031353071124 332706
A1657L3     031353071125031353071125 332706
AAFES       031353500676031353500676 332706
AAUDITA     031353447170031353447170 332706
ABANDON     031353106552031353106552 332706
ABEND       000001117200000001117200    956
ACALLUSE    024630343472024630343472 169706
ACE         031353070136031353070136 332706
ACE1COE     031353051703031353051703 332706
ACEXO       031353577342031353577342 332706
ACSAC       031353070511031353070511 332706
ACSERV82    031353122317031353122317 332706
ACSERV84    031353501637031353501637 332706
ACSERVL1    031353555636031353555636 332706
ACSERVL2    031353556725031353556725 332706
ACSI5       031353071063031353071063 332706
ACSLIB      031353061054031353061054 332706
ACSLIB82    031353122323031353122323 332706
ACSSERV     031353061065031353061065 332706
ACSTECH     017725453462017725453462 325776
ACTGTYM     000004104543000004104543     26
ACTGTYMA    000004132017000004132017     26
ACTGTYMX    000004140341000004140341     26
ACTSLIB     031353421332031353421332 332706
ADI2        031353070513031353070513 332706
ADOLPH      031353070514031353070514 332706
ADP1ACE     031353125154031353125154 332706
ADP2ACE     031353235321031353235321 332706
ADPACE2     031353576060031353576060 332706
ADPCMD      024630024204024630024204 169706
AEAEN       031353535230031353535230 332706
AEAENAFH    031353552717031353552717 332706
AEAENAGL    031353552734031353552734 332706
AEAENAQN    031353552732031353552732 332706
AEAENATO    031353510003031353510003 332706
AEAENCP     031353510000031353510000 332706
AEAENEH     031353441255031353441255 332706
AEAENERM    031353552727031353552727 332706
AEAENFE     031353507774031353507774 332706
AEAENHG     031353535261031353535261 332706
AEAENIM     031353535233031353535233 332706
AEAENIP     031353441257031353441257 332706
AEAENIPF    031353560521031353560521 332706
AEAENIPS    031353560526031353560526 332706
AEAENISE    031353552712031353552712 332706
AEAENISO    031353535271031353535271 332706
AEAENMET    031353535244031353535244 332706
AEAENMT     031353507770031353507770 332706
AEAENOMA    031353552722031353552722 332706
AEAENPMH    031353540526031353540526 332706
AEAENRE     031353535251031353535251 332706
AEAENTSE    031353552703031353552703 332706
AEAENXO     031353535237031353535237 332706
AFENPDR     031353561704031353561704 332706
AFOPFSS     031353432061031353432061 332706
AFPOC       031353515272031353515272 332706
AFTAC1      031353561030031353561030 332706
AFTAC10     031353561073031353561073 332706
AFTAC11     031353561075031353561075 332706
AFTAC12     031353561102031353561102 332706
AFTAC13     031353561111031353561111 332706
AFTAC14     031353561112031353561112 332706
AFTAC15     031353561114031353561114 332706
AFTAC16     031353561115031353561115 332706
AFTAC17     031353561116031353561116 332706
AFTAC18     031353561117031353561117 332706
AFTAC19     031353561120031353561120 332706
AFTAC2      031353561031031353561031 332706
AFTAC3      031353561032031353561032 332706
AFTAC4      031353561040031353561040 332706
AFTAC5      031353561046031353561046 332706
AFTAC6      031353561055031353561055 332706
AFTAC7      031353561064031353561064 332706
AFTAC8      031353561071031353561071 332706
AFTAC9      031353561072031353561072 332706
AFZW1DEH    031353425171031353425171 332706
AFZW2ERM    031353425235031353425235 332706
AJCO1B      031353137402031353137402 332706
AKSELROD    011334101172011334101172 203896
ALAK        031353070516031353070516 332706
ALASKA1     031353441216031353441216 332706
ALASKA2     031353441227031353441227 332706
ALASKA6     031353502365031353502365 332706
ALDOLPH1    031353070515031353070515 332706
ALDOLPH2    031353107112031353107112 332706
ALONG       011334155751011334155751 203896
ALTON5      031353071064031353071064 332706
ALVAREZR    030455542564030455542564 212996
AMARCIEL    011334442217011334442217 203896
AMARSH      000014231454000014231454    176
AMMO1       031353150325031353150325 332706
AMORRISS    011334456123011334456123 203896
AMOS        031353070520031353070520 332706
AMOSEFE     031353164540031353164540 332706
AMOSHSG     031353164467031353164467 332706
AMPMGT      031353340643031353340643 332706
AMPSPOOL    031353101510031353101510 332706
AMSBOB      031353461335031353461335 332706
AMSCODE     031353540060031353540060 332706
AMSDALY     031353540051031353540051 332706
AMSDATA     031353540057031353540057 332706
AMSDON      031353557455031353557455 332706
AMSMAINT    031353447722031353447722 332706
AMSPAX      031353464555031353464555 332706
AMSPUFF     031353540053031353540053 332706
AMSSUB      031353557450031353557450 332706
AMSSWEET    031353540054031353540054 332706
AMSTOLO     031353540055031353540055 332706
AMTLAB      031353564500031353564500 332706
AMYLEE      000014425573000014425573    176
ANDY5       031353071065031353071065 332706
ANTON       031353070521031353070521 332706
APHILL      031353501742031353501742 332706
ARAB        031353061773031353061773 332706
ARAB0       031353061774031353061774 332706
ARAB1       031353061775031353061775 332706
ARAB2       031353061776031353061776 332706
ARAB3       031353061777031353061777 332706
ARAB4       031353062000031353062000 332706
ARAB5       031353062013031353062013 332706
ARAB6       031353062002031353062002 332706
ARAB7       031353062003031353062003 332706
ARAB8       031353062004031353062004 332706
ARAB9       031353062005031353062005 332706
ARACOKI     031353133515031353133515 332706
ARCHIVES    011447216613011447216613     96
ARCHV       031353167624031353167624 332706
ARKIVE      031353001047031353001047 332706
ARMYBMD     031353464655031353464655 332706
ASAILFM     031353071062031353071062 332706
ATCHISON    011334132543011334132543 203896
AUGUST      031353070524031353070524 332706
BACKUP      000001000031000001000031 359486
BANK2       031353070525031353070525 332706
BARB        031353070526031353070526 332706
BARCLAY     031353070527031353070527 332706
BATCHTYM    000001126511000001126511     96
BATES       011011251412011011251412 180116
BATSER1     000001127316000001127316     56
BATSER10    000001127334000001127334     56
BATSER11    000001127335000001127335     56
BATSER12    000001127351000001127351     56
BATSER13    000001127352000001127352     56
BATSER14    000001127353000001127353     56
BATSER15    000001127354000001127354     56
BATSER16    000001127355000001127355     56
BATSER17    000001127356000001127356     56
BATSER18    000001127357000001127357     56
BATSER19    000001127360000001127360     56
BATSER2     000001127321000001127321     56
BATSER20    000001127361000001127361     56
BATSER3     000001127323000001127323     56
BATSER4     000001127325000001127325     56
BATSER5     000001127327000001127327     56
BATSER6     000001127330000001127330     56
BATSER7     000001127331000001127331     56
BATSER8     000001127332000001127332     56
BATSER9     000001127333000001127333     56
BBLUE       011334521463011334521463 203896
BDMCORP     031353571452031353571452 332706
BEARS       031353133764031353133764 332706
BECHLYT     011334344776011334344776 203896
BECODECL    007641035403007641035403 598426
BECODEL     007641203304007641203304 598426
BECODET     007641063740007641063740 598426
BECP1TST    007641455204007641455204 598396
BEDV01LS    007641176353007641176353 598426
BEDV03LS    007641545173007641545173 598416
BEENG1L     007641333076007641333076 598396
BEENG1OS    007641374762007641374762 598416
BELANGER    031353133505031353133505 332706
BENNETTR    000001322633000001322633 213866
BERYO       031353070531031353070531 332706
BESE01LS    007641203353007641203353 598446
BESE02LS    007641176700007641176700 598446
BESEG1OF    007641351562007641351562 598426
BESUP1OF    007641357022007641357022 598396
BESUPTCL    007641035401007641035401 598416
BETESTIC    007641313027007641313027 598396
BILJ        031353107657031353107657 332706
BILL9N      031353127012031353127012 332706
BILLF       000001040051000001040051 359486
BIRD        031353071026031353071026 332706
BLAINE      031353070532031353070532 332706
BLDFAC      000013354411000013354411     16
BNCH1391    031353503405031353503405 332706
BOB1N       031353053536031353053536 332706
BOBH        000004000127000004000127     26
BOBJ        000001342251000001342251     96
BORIS5      031353071067031353071067 332706
BORROMEO    030455456261030455456261 212996
BOWIE       011447136617011447136617 179246
BP2931T     007641246122007641246122 598436
BPBCR1T     007641465320007641465320 603756
BRADLEY     031353070534031353070534 332706
BRADLEY2    031353107025031353107025 332706
BRAGG       031353501661031353501661 332706
BRAUER      031353474364031353474364 332706
BRENDA      023707375361023707375361 231176
BRETTF      000001142541000001142541 605766
BROOKS5     031353071070031353071070 332706
BROOKS51    031353103067031353103067 332706
BRUENING    000014554046000014554046    176
BRUNO       031353070535031353070535 332706
BRYAN8N     031353111260031353111260 332706
BTYMDEV     000014221037000014221037    176
BUCHANAN    031353501673031353501673 332706
BUCK1       031353070536031353070536 332706
BUDGET      025475233736025475233736 359586
BURLY       031353074104031353074104 332706
BURNS1      000001161424000001161424     96
CALVIN      031353070713031353070713 332706
CAP001      031353066170031353066170 332706
CAP002      031353066174031353066174 332706
CAP003      031353070247031353070247 332706
CAP004      031353075062031353075062 332706
CAP005      031353112126031353112126 332706
CAP006      031353112127031353112127 332706
CAP007      031353162001031353162001 332706
CAP008      031353220210031353220210 332706
CAP009      031353265034031353265034 332706
CAP010      031353344756031353344756 332706
CAP011      031353340237031353340237 332706
CAP012      031353230771031353230771 332706
CAP013      031353236324031353236324 332706
CAP014      031353436721031353436721 332706
CAP015      031353436720031353436720 332706
CAP016      031353475143031353475143 332706
CAP020      031353436722031353436722 332706
CAPLIBP     031353065126031353065126 332706
CAPMCC01    031353556062031353556062 332706
CAPMCCLI    031353556057031353556057 332706
CAPMCCSU    031353556056031353556056 332706
CAPMGT      031353415144031353415144 332706
CAPSEDC1    005166153272005166153272  26946
CAPSEDC2    005166206675005166206675  26946
CAPSEDC3    005166206676005166206676  26946
CAPSETA     005166210703005166210703  26946
CAPSINK     031353065113031353065113 332706
CAPSLIB     005166026224005166026224  26946
CAPSMDEV    005166006004005166006004  26946
CAPSMGMT    005166004071005166004071  26946
CAPSMGTE    005166026225005166026225  26946
CAPTEST     031353473640031353473640 332706
CARDS       031353133501031353133501 332706
CARMS       000004345257000004345257     26
CARSON      031353501706031353501706 332706
CARTER1     031353070714031353070714 332706
CARTER2     031353122325031353122325 332706
CARY        031353106173031353106173 332706
CATHY3N     031353053541031353053541 332706
CAULEY      031353070715031353070715 332706
CCENTRAL    031353014201031353014201 332706
CD0010L     007641066330007641066330 598226
CD2055IC    007641062020007641062020 598226
CDE0FM      005166522021005166522021  26946
CDE1FM      005166522022005166522022  26946
CDE1IDEF    005166507766005166507766  26946
CDE1SB      005166470444005166470444  26946
CDE2FM      005166522023005166522023  26946
CDE2IDEF    005166511110005166511110  26946
CDE2SB      005166470452005166470452  26946
CDE3FM      005166522024005166522024  26946
CDE3IDEF    005166511111005166511111  26946
CDE3SB      005166470456005166470456  26946
CDE4FM      005166522025005166522025  26946
CDE4IDEF    005166511112005166511112  26946
CDE4SB      005166470460005166470460  26946
CDE5FM      005166522026005166522026  26946
CDE5IDEF    005166511114005166511114  26946
CDE6IDEF    005166511120005166511120  26946
CDE7IDEF    005166521313005166521313  26946
CDE8IDEF    005166521314005166521314  26946
CDE9IDEF    005166521321005166521321  26946
CDEFTS      040625072162040625072162  26946
CDSORDX1    023514522031023514522031 160526
CDSORDX2    023514522033023514522033 160526
CDSORDX3    023514522036023514522036 160526
CDSORDX4    023514522044023514522044 160526
CDSORDX5    023514522050023514522050 160526
CDSORDX6    023514522054023514522054 160526
CDSORDX7    023514545731023514545731 160526
CDSORDX8    023514545736023514545736 160526
CDSORDX9    023514545737023514545737 160526
CEDRDELO    031353454565031353454565 332706
CERL        031353266442031353266442 332706
CERL2       031353071030031353071030 332706
CERLADP     031353417750031353417750 332706
CERLANL     031353553264031353553264 332706
CERLAPP1    031353127276031353127276 332706
CERLCTT     031353454467031353454467 332706
CERLECON    031353220120031353220120 332706
CERLELO     031353451423031353451423 332706
CERLENR     031353476166031353476166 332706
CERLERA     031353515014031353515014 332706
CERLES      031353536371031353536371 332706
CERLESA     031353541364031353541364 332706
CERLHERR    031353127014031353127014 332706
CERLHOH     031353553267031353553267 332706
CERLKAPP    031353442045031353442045 332706
CERLKEV     031353410724031353410724 332706
CERLNEAT    031353254075031353254075 332706
CERLPP      031353455637031353455637 332706
CERLRAD     031353442046031353442046 332706
CERLTEST    031353430277031353430277 332706
CHAFFEE     031353340235031353340235 332706
CHANG       011334024034011334024034 203896
CHECKER     031353552132031353552132 332706
CHGCTL      000001374654000001374654 213866
CHRIS       031353070716031353070716 332706
CHU         031353133507031353133507 332706
CHUCK2N     031353053537031353053537 332706
CIDC        031353203131031353203131 332706
CILE        031353070717031353070717 332706
CIVPERS     024630007750024630007750 169706
CLAUDE      031353070720031353070720 332706
CLAUDE82    031353107035031353107035 332706
CLINT5      031353071120031353071120 332706
CM0113T     007641102361007641102361 598236
CM1212OF    007641332323007641332323 598236
CMSABND1    000014311411000014311411    176
CMSABND2    000014311413000014311413    176
CMSMAINT    000014162346000014162346     96
CMSSUP      011011414230011011414230 180116
CNISAE      031353541355031353541355 332706
CNM         031353450665031353450665 332706
COA         031353070721031353070721 332706
COEALAN     031353070724031353070724 332706
COEALEX     031353070725031353070725 332706
COEB10      035067055144035067055144 284146
COEB11      035067055145035067055145 284146
COEB12      035067055160035067055160 284146
COEB13      035067055161035067055161 284146
COEB14      035067055162035067055162 284146
COEB15      035067055163035067055163 284146
COEB2       035067053540035067053540 284146
COEB20      035067537132035067537132 284146
COEB6       035067055155035067055155 284146
COEB9       035067055143035067055143 284146
COECHARL    031353070726031353070726 332706
COEELI      031353070731031353070731 332706
COEGEORG    031353070732031353070732 332706
COEHARRY    031353072141031353072141 332706
COEJASON    031353070734031353070734 332706
COEOTB      050722465347050722465347 602506
COERALPH    031353070737031353070737 332706
COESIMON    031353070742031353070742 332706
COLAN       031353133506031353133506 332706
COLE        031353070743031353070743 332706
CONWAY      031353421455031353421455 332706
CORPS1      050344557331050344557331 604496
CORPS2      050344557332050344557332 604496
CORPS3      050344557333050344557333 604496
CORPS4      050344557334050344557334 604496
CORPS5      050344557335050344557335 604496
CORPS6      050344557336050344557336 604496
CORPS7      050344557337050344557337 604496
CORPS8      050344557340050344557340 604496
CORRALES    000001256103000001256103 213866
COST3       031353071034031353071034 332706
COTR85      031353501651031353501651 332706
COTRL1      031353556736031353556736 332706
COTRLIB     031353107272031353107272 332706
CPAPRINT    000001227167000001227167 359486
CPEREP      000001117212000001117212 213866
CPFRIEND    000001115413000001115413    956
CPMCHK      050714506454050714506454 602406
CPMPERF     050714462403050714462403 602406
CPMSEND     050714572013050714572013 602406
CPMSND      050714473630050714473630 602406
CRITMGT     031353274044031353274044 332706
CRUISING    011334316647011334316647 203896
CSC.SUPT    011011426375011011426375 180116
CTOPSMGR    000001063550000001063550 201096
CUD370      000001000100000001000100     96
CURTIS      031353070746031353070746 332706
CV5151OF    007641363540007641363540 598246
CW6530OF    007641303023007641303023 598256
CWILSON     011334455113011334455113 212996
CWPOC     353515276031353515276 332706
DACH        031353415257031353415257 332706
DACSFM      031353070750031353070750 332706
DADCSOPS    031353572512031353572512 332706
DAENECR     031353431574031353431574 332706
DAENRELO    031353457337031353457337 332706
DALBAK1     000001055062000001055062 213866
DALBAK2     000001055067000001055067 213866
DALMON      000001200543000001200543    956
DALOP2      000001044077000001044077 213866
DALOP3      000001044100000001044100 213866
DALOP4      000001044101000001044101 213866
DALOP5      000001044110000001044110 213866
DALPER      000001117400000001117400 213866
DALPRT      000001044111000001044111 213866
DALSUP      000001044075000001044075 213866
DALSWRN     000001131165000001131165 213866
DARISA      031353362177031353362177 332706
DARNELL     031353070752031353070752 332706
DARWIN      031353070753031353070753 332706
DARWIN1     031353070754031353070754 332706
DBENDER     011334411326011334411326 203896
DCOPRINT    000001372156000001372156 213866
DCPRINT     010560377120010560377120 325776
DCSENGR     031353344406031353344406 332706
DCSLOG      031353072136031353072136 332706
DCSOPS      031353070755031353070755 332706
DCSPER      031353070756031353070756 332706
DCSPERGY    031353432030031353432030 332706
DCSRDA5     031353071122031353071122 332706
DCSRMGY     031353510005031353510005 332706
DD139O      031353013660031353013660 332706
DDTEST      017725556136017725556136 325776
DEHFGGM     031353510015031353510015 332706
DELAVIEZ    030455515711030455515711 212996
DENNY       031353056510031353056510 332706
DEP1COE     031353413743031353413743 332706
DEPZCH      031353555250031353555250 332706
DERA        031353535470031353535470 332706
DETRICK     031353415355031353415355 332706
DEVELOP1    024630367117024630367117 169706
DEVENS      031353501712031353501712 332706
DEXA        031353062156031353062156 332706
DHEINS      011334451473011334451473 212996
DIAG370     000001411764000001411764     86
DIRLIB      031353020411031353020411 332706
DIRSINK     031353454431031353454431 332706
DIRSOU      031353013250031353013250 332706
DISPLAY1    031353110042031353110042 332706
DIST101A    037471041021037471041021 325836
DIST127A    024135223204024135223204 163516
DIST142A    011011346732011011346732   3816
DIST182A    016362156604016362156604   2016
DIST182B    016362156605016362156605   2016
DIST182C    016362204130016362204130   2016
DIST19B     011642310200011642310200     16
DIST22A     016321336665016321336665   1626
DIST25A     024136220234024136220234 163526
DIST26A     010517111156010517111156   1566
DIST42A     033074320346033074320346 250306
DIST44A     017725164313017725164313 325776
DIST46A     037456040476037456040476 325786
DIXIE       031353062012031353062012 332706
DLM         031353543716031353543716 332706
DMADEV1     024630427760024630427760 169706
DMADEV2     024630427761024630427761 169706
DMADEV3     024630427762024630427762 169706
DMADEV4     024630427763024630427763 169706
DMAENGL1    024630010230024630010230 169706
DMAPBDS     024630225240024630225240 169706
DMAROSE1    024630010234024630010234 169706
DMISP       024630240274024630240274 169706
DMISP1      024630400511024630400511 169706
DODGE5      031353071114031353071114 332706
DODMFO      031353514216031353514216 332706
DON7N       031353053553031353053553 332706
DONAGHY     031353401517031353401517 332706
DONALDH     000001004245000001004245 213866
DONSEARL    024630066742024630066742 169706
DRISCOLL    011334335762011334335762 203896
DRUM        031353501736031353501736 332706
DSCMACH     000001150017000001150017 359606
DTMD1       031353425524031353425524 332706
DTMD2       031353426541031353426541 332706
DTMO        031353444037031353444037 332706
DTMSMGT     031353415147031353415147 332706
DUNCAN      031353070652031353070652 332706
DUNCAN1     031353070653031353070653 332706
DUNCAN2     031353077107031353077107 332706
DUNCAN3     031353077123031353077123 332706
DUNCAN4     031353077125031353077125 332706
DUNCAN5     031353077126031353077126 332706
EARL        031353070654031353070654 332706
ECON01      031353131014031353131014 332706
ECON02      031353402662031353402662 332706
ECONDB      031353443251031353443251 332706
ECONLIB     031353440643031353440643 332706
ECONMGT     031353274045031353274045 332706
ECZR        031353450705031353450705 332706
ECZU        031353450317031353450317 332706
EDBARENS    000001270142000001270142 213866
EDGAR       031353070655031353070655 332706
EEIC        024630240303024630240303 169706
ELIS        031353077032031353077032 332706
ELMO        031353070656031353070656 332706
ELWOOD      031353070672031353070672 332706
EMBAILEY    031353525312031353525312 332706
EMDIV       031353557323031353557323 332706
EMERMOB1    031353434302031353434302 332706
EMERMOB2    031353434301031353434301 332706
EMERMOB3    031353434303031353434303 332706
EMSLIE      031353236465031353236465 332706
ENGNEW1     023707320426023707320426 231176
ENGR        023707216133023707216133 231176
ENJHF       031353460135031353460135 332706
EPLANQA4    014351137246014351137246 348536
EPLANQA5    014351223636014351223636 348536
EPSISAE     031353541357031353541357 332706
EQUIGLEY    011334160643011334160643 212996
ERMISAE     031353541362031353541362 332706
ERNIE1      031353115070031353115070 332706
ESCSA       031353537126031353537126 332706
EUDRMB      031353522110031353522110 332706
EUGENE      031353070673031353070673 332706
EUPOC       031353515263031353515263 332706
EURLOG      031353361557031353361557 332706
EXPADM      011447265772011447265772     96
EXPRESS1    011406113204011406113204  65576
EXPRESS2    011406117373011406117373  65576
EXPRESS3    011406137120011406137120  65576
EXPRESS4    011406215457011406215457  65576
FAC1        031353205622031353205622 332706
FAMCFE      031353420272031353420272 332706
FARLEY      011011424462011011424462 180116
FASO85      031353501652031353501652 332706
FASOL1      031353556737031353556737 332706
FASOLIB     031353107273031353107273 332706
FBAKDBUG    000001241443000001241443     56
FBATCH      000001077340000001077340 201096
FEDMPLNR    031353451127031353451127 332706
FEOD        031353400012031353400012 332706
FESA2R      031353214113031353214113 332706
FESASYS     031353336730031353336730 332706
FICHEIN     000001013053000001013053 213866
FIELDMGR    011334374346011334374346 203896
FIG         031353502004031353502004 332706
FIREMAN     031353273233031353273233 332706
FLICK       031353444036031353444036 332706
FMSINK      031353257067031353257067 332706
FMTEST      031353416545031353416545 332706
FOCDEMO     011017151772011017151772   3816
FOCREV      011011042437011011042437   3816
FOCUSTEC    011011365235011011365235 180116
FORCAST     031353601122031353601122 332706
FORDD       011011414347011011414347 180116
FORSCOM     031353320133031353320133 332706
FORSCOM1    031353501655031353501655 332706
FORSCOM2    031353174033031353174033 332706
FORTMAC     031353502352031353502352 332706
FORTSAM     031353502354031353502354 332706
FORTSAM2    031353502056031353502056 332706
FORTSAM3    031353404667031353404667 332706
FOURDIG     024630007721024630007721 169706
FPSINFO     031353441342031353441342 332706
FREDLIB     005166220000005166220000  26946
FREITAS2    000001065072000001065072     96
FRICKELB    030455432040030455432040 212996
FSCTR84     031353501640031353501640 332706
FSCTRL2     031353556726031353556726 332706
FSIEGEL     000007314234000007314234    136
FSPIETY     031353524724031353524724 332706
FTDRUM1     031353441250031353441250 332706
FTFOC2      011447371252011447371252     96
FTHOOD      031353502366031353502366 332706
FTHORNET    016362451337016362451337   2016
FTMAIL1     031353572663031353572663 332706
FTMAIL2     031353571607031353571607 332706
FTMEADE     031353502361031353502361 332706
FTPERS      011447275357011447275357 180116
FTUSER1     031353563211031353563211 332706
FTUSER2     031353563215031353563215 332706
FTUSER3     031353563216031353563216 332706
FUJIMOTO    044471301365044471301365 180116
FUJITANI    031353133504031353133504 332706
GABRIEL     031353070677031353070677 332706
GAMBLE      011334537044011334537044 203896
GARLAND     031353070701031353070701 332706
GAS10       031353456616031353456616 332706
GAS5        031353071115031353071115 332706
GBAIRD      021476601574021476601574 135166
GBLOOD      011447113406011447113406     16
GCONE       023707147525023707147525 231176
GENA5N      031353053545031353053545 332706
GENESIS1    031353433153031353433153 332706
GENESIS2    031353433154031353433154 332706
GETD1000    031353025211031353025211 332706
GETD1100    031353013765031353013765 332706
GETD1101    031353013767031353013767 332706
GETD1102    031353013770031353013770 332706
GETD1103    031353014053031353014053 332706
GETD1200    031353014063031353014063 332706
GETD1201    031353014064031353014064 332706
GETD1202    031353014071031353014071 332706
GETD1250    031353014072031353014072 332706
GETD1251    031353014073031353014073 332706
GETD1500    031353014117031353014117 332706
GETD1501    031353014121031353014121 332706
GETDISK     031353377030031353377030 332706
GHBARLOW    000001450660000001450660     56
GIGO        000007077305000007077305    136
GL.DATA     000004053204000004053204     26
GL.MAINT    000004116553000004116553     26
GOPHERA     031353145645031353145645 332706
GORAN       031353551640031353551640 332706
GORDON      023707126022023707126022 231176
GORDON5     031353071117031353071117 332706
GORTON1     031353070707031353070707 332706
GRAHAM      031353070705031353070705 332706
GREG2       031353455004031353455004 332706
GRIFFIS     031353453532031353453532 332706
GROVER      031353070706031353070706 332706
GTIMM       000014276457000014276457    176
GUNNER1     031353152015031353152015 332706
GUNTERC     000001322635000001322635 213866
GUY5        031353071121031353071121 332706
GUZMANP     000001246404000001246404 213866
GWEN        031353070710031353070710 332706
HARLAN      031353070711031353070711 332706
HARRISS     000001007665000001007665 213866
HARRYO      031353070712031353070712 332706
HARTSOE     023401202676023401202676 203896
HEART       031353077103031353077103 332706
HECSA1      031353415644031353415644 332706
HEINZ       031353070626031353070626 332706
HERMAN      031353070627031353070627 332706
HERMANFH    031353153217031353153217 332706
HFPO30      031353524747031353524747 332706
HHOBART     000004256703000004256703     26
HIGGEN      031353535222031353535222 332706
HMCHAO      000014237360000014237360    176
HNDAM1      031353026545031353026545 332706
HNDAM2      031353447567031353447567 332706
HNDAM3      031353447570031353447570 332706
HNDAM4      031353447573031353447573 332706
HNDAM5      031353537103031353537103 332706
HNDAM6      031353537106031353537106 332706
HNDAM7      031353537110031353537110 332706
HNDAM8      031353537114031353537114 332706
HNDAM9      031353537117031353537117 332706
HNDDTMO     031353560740031353560740 332706
HNDECON     031353437532031353437532 332706
HNDESEST    031353462413031353462413 332706
HNDTD       031353456070031353456070 332706
HOLCOMBK    011334031271011334031271 203896
HOMER       031353421416031353421416 332706
HONEYBEE    031353526635031353526635 332706
HOOD1       031353501760031353501760 332706
HOOD2       031353501766031353501766 332706
HORNET      016362432361016362432361   2016
HOYT1       031353070632031353070632 332706
HOYT5       031353071103031353071103 332706
HQ1FS       031353304044031353304044 332706
HQHSC       031353414102031353414102 332706
HQTRADOC    031353230631031353230631 332706
HTCQTR      024630133022024630133022 169706
HUD2108     031353220104031353220104 332706
HUEYMA      011334175705011334175705 203896
HULLR       011334531426011334531426 203896
HUNTER      031353436150031353436150 332706
HUNTER2     031353574635031353574635 332706
HUNTS       031353070633031353070633 332706
HWAAP       031353502125031353502125 332706
IAN         031353070634031353070634 332706
IAN2        031353122671031353122671 332706
IBIFOCFT    015632145641015632145641 180116
IBIFOCP     011011155537011011155537 180116
IBIFOCP2    011011231344011011231344 180116
IBIFOCX     032425163763032425163763 240966
IFSMGT      031353230712031353230712 332706
INDEX01     031353135524031353135524 332706
INGRID      000001411722000001411722     96
INTLIB      011010275532011010275532    226
IRVING5     031353071104031353071104 332706
IRWIN       031353502005031353502005 332706
IRWIN2      031353502232031353502232 332706
IVAN2       031353070636031353070636 332706
IZARD       031353070637031353070637 332706
J77A043X    031353073377031353073377 332706
JACOBY      031353070641031353070641 332706
JAMES2      031353070642031353070642 332706
JANETH      024630066743024630066743 169706
JANSEN      031353070643031353070643 332706
JCLMIN      011447271412011447271412     96
JENGLISH    000001047230000001047230 213866
JENNYG      000001205305000001205305     96
JHUSTON     011334521461011334521461 203896
JJFENS      031353514267031353514267 332706
JJOELS      011334474103011334474103 203896
JJS         050104544042050104544042 597396
JOHNYUMA    031353220101031353220101 332706
JONESM      000001075152000001075152 213866
JORDAN      031353071041031353071041 332706
JORDAN2     031353551452031353551452 332706
JQUIRK      005166530541005166530541  26946
JSARGENT    011334461203011334461203 203896
JSPENCER    011334422033011334422033 203896
JUDSON      031353070645031353070645 332706
JUDSON2     031353163417031353163417 332706
JWAYNE      031353444153031353444153 332706
KAMPBELL    031353502251031353502251 332706
KARL        031353070646031353070646 332706
KARL1       031353544442031353544442 332706
KARL2       031353544454031353544454 332706
KAYTRIPP    024630022065024630022065 169706
KDANA       000014445173000014445173    176
KELLY       031353561501031353561501 332706
KELLY5      031353071106031353071106 332706
KENDALL5    031353071107031353071107 332706
KENNH       031353567566031353567566 332706
KEVIN5      031353071110031353071110 332706
KHYLEN      011334470056011334470056 203896
KJJ         011334431047011334431047 203896
KLUTE       035676376630035676376630 141446
KRIVANEC    000001277731000001277731     96
KRUMVP      011334136121011334136121 212996
KURT5       031353071111031353071111 332706
L1391MGT    031353415163031353415163 332706
LACEE       031353070670031353070670 332706
LANCE       031353070647031353070647 332706
LASER1      031353516420031353516420 332706
LASER2      031353516421031353516421 332706
LASERA      031353466571031353466571 332706
LASERB      031353466602031353466602 332706
LBDA        031353453602031353453602 332706
LDC         011447252002011447252002     96
LEDO        031353071060031353071060 332706
LELANDY     000001366654000001366654 213866
LEONARD     033676332553033676332553 260556
LEWIS       031353502011031353502011 332706
LEWIS1      031353503111031353503111 332706
LIGHT       031353070600031353070600 332706
LINEADM     000001161024000001161024    956
LINERA      031353564151031353564151 332706
LMNPAX      031353254253031353254253 332706
LMORRIS     000001162775000001162775     96
LOUIS       031353070601031353070601 332706
LSUPRAS     033231323245033231323245 251646
LTFRED      031353307156031353307156 332706
LTHISTLE    033231355753033231355753 381366
LUD370      000001315170000001315170     96
LWPRINT     016362226376016362226376   2016
LYLE5       031353071075031353071075 332706
LYLE6       031353413606031353413606 332706
MAC5        031353447145031353447145 332706
MACOM1      031353600403031353600403 332706
MACSAM1     031353274236031353274236 332706
MACSAM2     031353275046031353275046 332706
MACSAM3     031353043333031353043333 332706
MACSAM4     031353413634031353413634 332706
MACSAM5     031353422336031353422336 332706
MACSAM6     031353422344031353422344 332706
MACSAM7     031353422610031353422610 332706
MACSAM8     031353422653031353422653 332706
MACSAM9     031353422655031353422655 332706
MAILLIB1    031353112374031353112374 332706
MAILLIB2    031353112375031353112375 332706
MAILLIB3    031353174215031353174215 332706
MAILTST1    031353137175031353137175 332706
MAILTST2    031353137176031353137176 332706
MALUBINA    011334160217011334160217 203896
MANDEC      011406113153011406113153  65576
MANFRED     031353070602031353070602 332706
MARCONIT    000001332675000001332675 213866
MARSHAL     031353070603031353070603 332706
MASS01      031353336506031353336506 332706
MASS02      031353352221031353352221 332706
MAUDE       031353070604031353070604 332706
MAURICE     031353070605031353070605 332706
MB1000OF    007641231346007641231346 598346
MB2000OF    007641510006007641510006 598346
MCCOY       031353502015031353502015 332706
MCD21CW     031353426554031353426554 332706
MCD21SC     031353264017031353264017 332706
MCD5SIG     031353157055031353157055 332706
MCD7ATC     031353320344031353320344 332706
MCDAADC     031353220106031353220106 332706
MCDACC      031353377605031353377605 332706
MCDACSEH    031353556224031353556224 332706
MCDAENIG    031353073157031353073157 332706
MCDAFA1     031353032353031353032353 332706
MCDAFCEN    031353361406031353361406 332706
MCDAFERN    031353356247031353356247 332706
MCDAFLEE    031353356244031353356244 332706
MCDAFS1     031353006560031353006560 332706
MCDAFWES    031353356245031353356245 332706
MCDANSS     031353113411031353113411 332706
MCDARR1     031353377612031353377612 332706
MCDARR2     031353377613031353377613 332706
MCDARR4     031353377616031353377616 332706
MCDASGS     031353550505031353550505 332706
MCDAUGS     031353521200031353521200 332706
MCDBAGX     031353541156031353541156 332706
MCDBAMB     031353521273031353521273 332706
MCDBHRV     031353504170031353504170 332706
MCDBILL     031353455061031353455061 332706
MCDBKRV     031353504172031353504172 332706
MCDBMDS     031353377602031353377602 332706
MCDBRHT     031353135767031353135767 332706
MCDCDST     031353576331031353576331 332706
MCDDAR1     031353300205031353300205 332706
MCDDAR2     031353377561031353377561 332706
MCDDAR3     031353377562031353377562 332706
MCDDAR4     031353377563031353377563 332706
MCDDLA      031353002347031353002347 332706
MCDDMTV     031353504173031353504173 332706
MCDDOE      031353002451031353002451 332706
MCDDRUM     031353447101031353447101 332706
MCDDSMC     031353002351031353002351 332706
MCDDUN      031353302637031353302637 332706
MCDEA       031353444613031353444613 332706
MCDECA1     031353220107031353220107 332706
MCDECA2     031353220113031353220113 332706
MCDECA3     031353220131031353220131 332706
MCDECA4     031353220220031353220220 332706
MCDECA5     031353520575031353520575 332706
MCDECCC     031353265341031353265341 332706
MCDECEA     031353111727031353111727 332706
MCDECEG     031353504312031353504312 332706
MCDENGX     031353541154031353541154 332706
MCDENTE     031353601632031353601632 332706
MCDEPSX     031353541150031353541150 332706
MCDERMX     031353541155031353541155 332706
MCDEUD1     031353356031031353356031 332706
MCDEUD2     031353375456031353375456 332706
MCDEUD3     031353150323031353150323 332706
MCDEUD4     031353010267031353010267 332706
MCDEUD5     031353235633031353235633 332706
MCDEUD6     031353235634031353235634 332706
MCDEUR1     031353377577031353377577 332706
MCDFD       031353457240031353457240 332706
MCDFDAV     031353211020031353211020 332706
MCDFKTV     031353504175031353504175 332706
MCDFOR1     031353356250031353356250 332706
MCDFOR2     031353377557031353377557 332706
MCDFOR3     031353377560031353377560 332706
MCDGARM     031353521276031353521276 332706
MCDGCF      031353404701031353404701 332706
MCDGCFS     031353404703031353404703 332706
MCDGOEPP    031353521277031353521277 332706
MCDGRAF     031353177163031353177163 332706
MCDGSNV     031353210773031353210773 332706
MCDHDLG     031353236270031353236270 332706
MCDHEIL     031353521302031353521302 332706
MCDHEX      031353504305031353504305 332706
MCDHND1     031353300157031353300157 332706
MCDHND2     031353016126031353016126 332706
MCDHNFA     031353053203031353053203 332706
MCDHNUV     031353210777031353210777 332706
MCDHOMER    031353407052031353407052 332706
MCDHOOD     031353465471031353465471 332706
MCDHQDA     031353454113031353454113 332706
MCDHSGX     031353541160031353541160 332706
MCDHUGH     031353455057031353455057 332706
MCDINSC     031353377576031353377576 332706
MCDISAE     031353310573031353310573 332706
MCDKLRT     031353037272031353037272 332706
MCDLROCK    031353546633031353546633 332706
MCDMDW      031353300230031353300230 332706
MCDMEC      031353361415031353361415 332706
MCDMED      031353364740031353364740 332706
MCDMEE      031353001603031353001603 332706
MCDMER1     031353356035031353356035 332706
MCDMFDO     031353255636031353255636 332706
MCDMIR      031353377607031353377607 332706
MCDMIS1     031353535513031353535513 332706
MCDMIS2     031353535523031353535523 332706
MCDMNHT     031353107373031353107373 332706
MCDMNZV     031353245726031353245726 332706
MCDMOTBY    031353242640031353242640 332706
MCDMOTSU    031353242645031353242645 332706
MCDMPCC     031353302430031353302430 332706
MCDMPCF     031353300054031353300054 332706
MCDMPCG     031353050261031353050261 332706
MCDMPCI     031353300055031353300055 332706
MCDMPE      031353002356031353002356 332706
MCDMPHF     031353002355031353002355 332706
MCDMPZA     031353053726031353053726 332706
MCDMTMC     031353377564031353377564 332706
MCDMUNI     031353521336031353521336 332706
MCDMWR      031353556331031353556331 332706
MCDNAB1     031353300162031353300162 332706
MCDNAB2     031353300206031353300206 332706
MCDNAD2     031353300160031353300160 332706
MCDNAN1     031353300163031353300163 332706
MCDNAO1     031353300164031353300164 332706
MCDNAO2     031353300232031353300232 332706
MCDNAP      031353507763031353507763 332706
MCDNBGS     031353211402031353211402 332706
MCDNEUU     031353521340031353521340 332706
MCDNPA1     031353300166031353300166 332706
MCDNPA2     031353023443031353023443 332706
MCDNPD1     031353300165031353300165 332706
MCDNPD2     031353411154031353411154 332706
MCDNSA      031353002352031353002352 332706
MCDOARB     031353242647031353242647 332706
MCDOCAR     031353377574031353377574 332706
MCDORD      031353557434031353557434 332706
MCDORD1     031353030207031353030207 332706
MCDORD2     031353030212031353030212 332706
MCDORL1     031353030304031353030304 332706
MCDORL2     031353030305031353030305 332706
MCDPM1      031353461564031353461564 332706
MCDPMST     031353161326031353161326 332706
MCDPOD1     031353300167031353300167 332706
MCDPOD2     031353356034031353356034 332706
MCDPOF1     031353356033031353356033 332706
MCDPOF2     031353361414031353361414 332706
MCDPOJ1     031353356032031353356032 332706
MCDPOJ2     031353361413031353361413 332706
MCDRDA1     031353377620031353377620 332706
MCDRDA2     031353377621031353377621 332706
MCDRDA3     031353377622031353377622 332706
MCDRDA4     031353377623031353377623 332706
MCDRICH     031353223236031353223236 332706
MCDRILEY    031353502362031353502362 332706
MCDROOK     031353012263031353012263 332706
MCDSAD1     031353175641031353175641 332706
MCDSAD2     031353300170031353300170 332706
MCDSAM1     031353361407031353361407 332706
MCDSAM2     031353361410031353361410 332706
MCDSAS1     031353300172031353300172 332706
MCDSAS2     031353336647031353336647 332706
MCDSDIO     031353556014031353556014 332706
MCDSGTS     031353205120031353205120 332706
MCDSIG7     031353377575031353377575 332706
MCDSURG     031353002353031353002353 332706
MCDSWA1     031353544006031353544006 332706
MCDSWD1     031353300176031353300176 332706
MCDSWD2     031353326515031353326515 332706
MCDSWF1     031353300177031353300177 332706
MCDTAR1     031353377610031353377610 332706
MCDTAR2     031353377611031353377611 332706
MCDTOEL     031353521244031353521244 332706
MCDTRA1     031353300204031353300204 332706
MCDTSA      031353002341031353002341 332706
MCDTSA1     031353446720031353446720 332706
MCDTSAR     031353377606031353377606 332706
MCDUSA1     031353377566031353377566 332706
MCDUSA3     031353156142031353156142 332706
MCDUSA6     031353377573031353377573 332706
MCDUSA8     031353377565031353377565 332706
MCDUSAJ     031353377603031353377603 332706
MCDUSMA     031353300231031353300231 332706
MCDVC       031353125006031353125006 332706
MCDVC2      031353535575031353535575 332706
MCDVC3      031353535601031353535601 332706
MCDVII      031353364075031353364075 332706
MCDVII2     031353471156031353471156 332706
MCDWEIN     031353521445031353521445 332706
MCDWFLV     031353504204031353504204 332706
MCDWRZS     031353204416031353204416 332706
MCDWSBV     031353504201031353504201 332706
MCDWSMR     031353242317031353242317 332706
MCDWSTC     031353377601031353377601 332706
MCDZCP2     031353220207031353220207 332706
MCDZCPU     031353326516031353326516 332706
MCPEES      031353071023031353071023 332706
MCPRSDB     031353514773031353514773 332706
MCXCER2     031353153215031353153215 332706
MCXMRD1     031353300200031353300200 332706
MCXMRD2     031353013720031353013720 332706
MCXMRK1     031353300201031353300201 332706
MCXMRK2     031353300203031353300203 332706
MCXMRK3     031353502475031353502475 332706
MCXMRO1     031353006256031353006256 332706
MCXMRO2     031353364741031353364741 332706
MCXMRO3     031353013716031353013716 332706
MCXMX1      031353336654031353336654 332706
MCXNPS1     031353012065031353012065 332706
MCXNPS2     031353012066031353012066 332706
MCXSPD1     031353300173031353300173 332706
MCXSPD2     031353375402031353375402 332706
MCXSPK1     031353300174031353300174 332706
MCXSPK2     031353475274031353475274 332706
MCXSPK3     031353361403031353361403 332706
MCXSPL2     031353361411031353361411 332706
MCXSPL3     031353361412031353361412 332706
MCXSWT1     031353375403031353375403 332706
MCXSWT2     031353013721031353013721 332706
MDSDOC      011406116633011406116633  94426
MEADOR      011334145446011334145446 203896
MEMALO      011334411412011334411412 203896
MENKE       031353070610031353070610 332706
METCALFS    000001305456000001305456   3766
MEYERG      011346001716011346001716     86
MICRO       011011425570011011425570 180116
MIDAS       000007107355000007107355    136
MIKEISAE    031353406103031353406103 332706
MIKERUDE    011334247122011334247122 203896
MILLERP     000001445037000001445037 213866
MILTON5     031353071076031353071076 332706
MIT1        031353501574031353501574 332706
MIT2        031353501575031353501575 332706
MIT3        031353404666031353404666 332706
MITCH       031353070611031353070611 332706
MITCH2      031353544424031353544424 332706
MMURRAY     021476601572021476601572 135166
MONITOR1    031353111237031353111237 332706
MONITORA    031353200512031353200512 332706
MONTY       031353070612031353070612 332706
MOORING     011020316407011020316407    696
MORLEY3     011016127474011016127474    126
MORSE       000007250527000007250527    136
MPEH        031353070614031353070614 332706
MPES1       031353070615031353070615 332706
MPXAJP1     031353233675031353233675 332706
MRDPDTCX    031353557267031353557267 332706
MS1057LS    050420562075050420562075 600496
MS1065LS    050420562076050420562076 600496
MS2001L     050420562110050420562110 600496
MS2028LS    050420562100050420562100 600496
MS6061LS    050420562102050420562102 600496
MS6073LS    050420562103050420562103 600496
MS6074LS    050420562106050420562106 600496
MS9054LS    050420562107050420562107 600496
MS9064T     050420562111050420562111 600496
MTN0TAC     031353465425031353465425 332706
MUDDY       031353110145031353110145 332706
MURRAY5     031353071100031353071100 332706
MUSSEL      031353070616031353070616 332706
MWR         031353070617031353070617 332706
MWR2        031353145125031353145125 332706
MWR3        031353025225031353025225 332706
MWR4        031353555551031353555551 332706
MYPLIB      031353436725031353436725 332706
MYPSUDB     031353502322031353502322 332706
MYPSYSP     031353502321031353502321 332706
NACAS1      031353235154031353235154 332706
NACAS4      031353066730031353066730 332706
NADPR       031353502012031353502012 332706
NANCYH      011447227011011447227011 203896
NANEM       031353443151031353443151 332706
NASHB       000001361773000001361773 213866
NATLAB      031353103071031353103071 332706
NB0001OF    007641251320007641251320 598176
NB0002OF    007641003527007641003527 598176
NB0003OF    007641266612007641266612 598176
NB0120LS    007641325332007641325332 598176
NCMS        000014112706000014112706    176
NCRDO       031353444670031353444670 332706
NDADOC      011334421002011334421002 203896
NE2221LS    007641362744007641362744 598456
NE2401LS    007641250102007641250102 598456
NE3001LS    007641245263007641245263 598456
NE3002LS    007641276774007641276774 598456
NE8001OF    007641224400007641224400 598456
NE8003OF    007641224410007641224410 598456
NE9001LS    007641526507007641526507 598456
NED         031353114224031353114224 332706
NELSON      031353070620031353070620 332706
NETDVDOC    011334314235011334314235 203896
NEW.TO      031353071040031353071040 332706
NEW370      000001335541000001335541     96
NILES5      031353071101031353071101 332706
NILES6      031353156627031353156627 332706
NJ0800LS    007641276775007641276775 598266
NOAABM01    017725445713017725445713 325776
NORRIS5     031353071102031353071102 332706
NOTICE1     031353070622031353070622 332706
NSR         011334352220011334352220 203896
NSRRPT      011334352212011334352212 203896
NTDDEV      011334352214011334352214 203896
NTDNSR      011334404763011334404763 203896
NTDPIR      023401217456023401217456 203896
NTDSEC      023401032364023401032364 203896
NW2904OF    007641226173007641226173 598206
NW2905LS    007641234305007641234305 598206
NW2906LS    007641275535007641275535 598206
NW2907LS    007641276773007641276773 598206
NW3950OF    007641232107007641232107 598206
NW4609OF    007641240542007641240542 598206
NW5411OF    007641244365007641244365 598206
NW6450OF    007641316436007641316436 598206
NWKPRINT    017705250741017705250741   1656
NY0444T     007641211016007641211016 598466
NY0445T     007641512206007641512206 598466
NY1001OF    007641275106007641275106 598466
OB0713L     007641125303007641125303 598356
OB7131L     007641125301007641125301 598356
OB8888LS    007641402604007641402604 598356
OB9999LS    007641125305007641125305 598356
OBLGPLAN    024630007751024630007751 169706
OCE         031353070623031353070623 332706
OCELIB      031353455456031353455456 332706
OCFHO       031353417756031353417756 332706
OLDPERS     011447275361011447275361 180116
OMHISAE     031353541363031353541363 332706
ONTYMEII    031353466613031353466613 332706
OPERATOR    000001117161000001117161     56
ORD         031353502017031353502017 332706
ORDER4      011011452650011011452650 180116
ORDERS1     011011547243011011547243 180116
ORDERS2     011011547242011011547242 180116
ORDERS3     011011547241011011547241 180116
ORDERS5     011011452651011011452651 180116
ORDERS6     011011452652011011452652 180116
ORDERS7     011011452653011011452653 180116
ORDERS8     011011452655011011452655 180116
ORDXADM     011011547236011011547236 180116
ORDXSHR     011011547240011011547240 180116
ORDXSRV     011011547237011011547237 180116
OSCAR       031353070624031353070624 332706
OVERTIME    024630431732024630431732 169706
OWEN        031353070541031353070541 332706
P01MOBL     051236577206051236577206 606546
P01REVW     011011576430011011576430 180116
P3SPK       021123171432021123171432 229836
PA0002IC    007641051734007641051734 598276
PA0002OF    007641352512007641352512 598276
PA0004OF    007641064723007641064723 598276
PA3906LS    007641236516007641236516 598276
PA4706LS    007641230743007641230743 598276
PA5673L     007641330154007641330154 598276
PA8004LS    007641236523007641236523 598276
PA8006LS    007641230742007641230742 598276
PAE1        031353070542031353070542 332706
PANAMA1     031353504405031353504405 332706
PANUSER     031353521613031353521613 332706
PARKERT     030455116313030455116313 212996
PARTILIB    031353520662031353520662 332706
PASCALIB    000003306413000003306413    166
PASCALQA    000003306333000003306333    166
PASCALX     000003306414000003306414    166
PASSADM     011447240114011447240114     96
PATBPA      031353243405031353243405 332706
PATCONTR    031353220103031353220103 332706
PATRICK5    031353071071031353071071 332706
PAXGRAPH    031353404655031353404655 332706
PAXLIB      031353333304031353333304 332706
PAXMGT      031353415140031353415140 332706
PAXMMGT     031353274064031353274064 332706
PAXMON      031353455413031353455413 332706
PAXNED      031353403374031353403374 332706
PAXSYS      031353135525031353135525 332706
PBADOZ      011334145057011334145057 203896
PC70        011447310330011447310330 326366
PCHTH       031353456324031353456324 332706
PCTHT1      031353456344031353456344 332706
PDAY        031353073305031353073305 332706
PDDLIB      022013174205022013174205 141446
PDS1        050344557341050344557341 604496
PDS2        050344557342050344557342 604496
PDS3        050344557343050344557343 604496
PDS4        050344557344050344557344 604496
PDS5        050344557345050344557345 604496
PEDRO       031353070545031353070545 332706
PEOPLE      024630240301024630240301 169706
PERRYB      030455554715030455554715 212996
PERS1100    022013360032022013360032 141446
PERSDEMO    024340222456024340222456   3816
PERSDEV1    022013200055022013200055 141446
PERSDEV2    022013204015022013204015 141446
PERSDOC     024340232730024340232730   3816
PERSINST    022013223232022013223232 141446
PERSLIB     024340222457024340222457    106
PERSSYS     011447275360011447275360 180116
PERSTEST    022013266466022013266466 141446
PERSUSER    022013223233022013223233 141446
PFARRELL    011011432752011011432752 180116
PI3119GA    031353070700031353070700 332706
PICKETT1    031353502353031353502353 332706
PLISCHKE    000001072543000001072543 213866
PMCDCRYS    031353430446031353430446 332706
PMCDGOPI    031353430436031353430436 332706
PMTSBILL    011334502255011334502255 203896
PNETS       011334356424011334356424 203896
POLK        031353502047031353502047 332706
POLK1       031353503112031353503112 332706
POSBKUP     030455226050030455226050 212996
POSCONT     030455154150030455154150 212996
POSCOPY     030455551013030455551013 212996
POSDB       030455145065030455145065 212996
POSDBB      030455545537030455545537 212996
POSDBIN1    030455145066030455145066 212996
POSIRV      030455154155030455154155 212996
POSLIB      030455162504030455162504 212996
POSLOGON    030455516264030455516264 212996
POSREQ      030455520146030455520146 212996
POWDER2     031353412663031353412663 332706
PRATER      031353354610031353354610 332706
PSF         031353502052031353502052 332706
PTLA01LS    007641021421007641021421 598186
PTLA02LS    007641021422007641021422 598186
PTSS01LS    007641013055007641013055 598186
PTSS02LS    007641013056007641013056 598186
PUBTSTFX    011011501516011011501516 180116
PWSLIB      011011117737011011117737 180116
QUARTER     024630240275024630240275 169706
RAFFO       011334314326011334314326 203896
RBISAE      031353544343031353544343 332706
RDSG1       031353441260031353441260 332706
RDSG2       031353441261031353441261 332706
RDSG3       031353441263031353441263 332706
REALTYDV    000004423570000004423570     26
REALTYPD    000004051137000004051137     26
REDESIGN    031353441052031353441052 332706
REGIS       031353070546031353070546 332706
RELINFO     011016122520011016122520     96
REPEL       031353070547031353070547 332706
RICHARD5    031353223227031353223227 332706
RIETZ       031353242761031353242761 332706
RILEY       031353070551031353070551 332706
RILEY1      031353502364031353502364 332706
RITCH       031353176611031353176611 332706
RKHDR       031353416253031353416253 332706
RKHDR2      031353432075031353432075 332706
RKHDR4      031353441343031353441343 332706
RKLUTE      011011264245011011264245 180116
RM1         031353602613031353602613 332706
RM2         031353602614031353602614 332706
RM3         031353602615031353602615 332706
RODDAMJ     000001000046000001000046 213866
ROECHELJ    011334132612011334132612 203896
ROLF        031353070566031353070566 332706
ROOPED      000001203231000001203231     96
ROSS2       031353070567031353070567 332706
ROWLAND     031353070552031353070552 332706
RSCSSTAT    000001176023000001176023    956
RUSSEL      031353070554031353070554 332706
RUSSELL5    031353432463031353432463 332706
SALTYRON    011447143725011447143725    946
SAMDON01    031353563734031353563734 332706
SAMDONLI    031353564374031353564374 332706
SAMDONPR    031353564375031353564375 332706
SAMLIB      031353132311031353132311 332706
SAMLIBX     031353421330031353421330 332706
SAMMGT      031353270443031353270443 332706
SAMPROC     031353164314031353164314 332706
SAMSUN      031353276236031353276236 332706
SAMSUN01    031353303762031353303762 332706
SAMSUN02    031353304007031353304007 332706
SAMXTEST    031353421327031353421327 332706
SB0089OF    007641345406007641345406 598326
SB0096IC    007641047353007641047353 598326
SB0097IC    007641130772007641130772 598326
SB0100IC    007641136266007641136266 598326
SB0317OF    007641273305007641273305 598326
SB0318OF    007641273306007641273306 598326
SB0319OF    007641273307007641273307 598326
SB0322LS    007641305535007641305535 598326
SB0341LS    007641002627007641002627 598326
SB0342LS    007641002630007641002630 598326
SB0393OF    007641244366007641244366 598326
SB0437OF    007641320317007641320317 598326
SB0485OF    007641320320007641320320 598326
SB0490OF    007641337045007641337045 598326
SB0491OF    007641237733007641237733 598326
SB0498LS    007641437216007641437216 598326
SB0553LS    007641515070007641515070 598316
SB0661LS    007641234603007641234603 598326
SB0739LS    007641317551007641317551 598326
SB0774OF    007641225455007641225455 598326
SB1627OF    007641245200007641245200 598326
SB1641LS    007641314174007641314174 598326
SB1656OF    007641047236007641047236 598326
SB1704OF    007641037744007641037744 598326
SB1706LS    007641065120007641065120 598326
SBALDWIN    011334510161011334510161 203896
SBILL3      000004005211000004005211     26
SC1001LS    007641211205007641211205 598336
SC1001OF    007641271431007641271431 598336
SC1002OF    007641301242007641301242 598336
SC1003LS    007641114207007641114207 598336
SC1003OF    007641005073007641005073 598336
SC2002LS    007641212441007641212441 598336
SC2007OF    007641265517007641265517 598336
SC2009OF    007641033407007641033407 598336
SC4001LS    007641212076007641212076 598336
SC4001OF    007641262522007641262522 598336
SC4002OF    007641375570007641375570 598336
SC5000OF    007641272725007641272725 598336
SC5001LS    007641212100007641212100 598336
SC5001OF    007641060612007641060612 598336
SC5002LS    007641067705007641067705 598336
SC5002OF    007641060613007641060613 598336
SC6001LS    007641211152007641211152 598336
SC7001LS    007641212412007641212412 598336
SC7002LS    007641601552007641601552 598336
SC7003LS    007641601553007641601553 598336
SC7009OF    007641267620007641267620 598336
SC7011OF    007641322575007641322575 598336
SCALE       031353070556031353070556 332706
SCHEIBS     000001117522000001117522     56
SCHOOL01    031353145447031353145447 332706
SCHOOL02    031353144336031353144336 332706
SCHOOL03    031353144337031353144337 332706
SCHOOL04    031353144341031353144341 332706
SCHOOL05    031353144342031353144342 332706
SCHOOL06    031353144343031353144343 332706
SCHOOL07    031353144344031353144344 332706
SCHOOL08    031353145450031353145450 332706
SCHOOL09    031353144347031353144347 332706
SCHOOL10    031353144350031353144350 332706
SCHOOL11    031353144575031353144575 332706
SCHOOL12    031353144576031353144576 332706
SCHOOL13    031353144577031353144577 332706
SCHOOL14    031353144600031353144600 332706
SCHOOL15    031353144601031353144601 332706
SCHOOL16    031353144602031353144602 332706
SCHOOL17    031353144454031353144454 332706
SCHOOL18    031353144456031353144456 332706
SCHOOL19    031353144461031353144461 332706
SCHOOL20    031353144464031353144464 332706
SCHOOL21    031353446711031353446711 332706
SCHOOL22    031353446716031353446716 332706
SCHOOL23    031353444531031353444531 332706
SCHOOL24    031353444532031353444532 332706
SCHOOL25    031353444533031353444533 332706
SCHOOL26    031353255252031353255252 332706
SCHOOL27    031353255230031353255230 332706
SCHOOL28    031353255416031353255416 332706
SCHOOL29    031353255613031353255613 332706
SCHOOL30    031353255632031353255632 332706
SCHOOL31    031353463061031353463061 332706
SCHOOL32    031353463066031353463066 332706
SCHOOL33    031353013412031353013412 332706
SCHOOL34    031353463073031353463073 332706
SCHOOL35    031353463075031353463075 332706
SCHOOL36    031353463100031353463100 332706
SCHOOL37    031353463101031353463101 332706
SCHOOL38    031353463103031353463103 332706
SCHOOL39    031353463104031353463104 332706
SCHOOL40    031353463105031353463105 332706
SCHOOL41    031353463243031353463243 332706
SCHOOL42    031353463244031353463244 332706
SCHOOL43    031353463245031353463245 332706
SCHOOL44    031353463251031353463251 332706
SCHOOL45    031353463253031353463253 332706
SCHOOL46    031353463257031353463257 332706
SCHOOL47    031353463264031353463264 332706
SCHOOL48    031353463265031353463265 332706
SCHOOL49    031353463271031353463271 332706
SCHOOL50    031353463272031353463272 332706
SCITECH     031353062006031353062006 332706
SCITEK6N    031353053547031353053547 332706
SCOTCH2     031353353557031353353557 332706
SCOTT2      031353070560031353070560 332706
SCRIBNER    000001353672000001353672 213866
SCRUGGS     031353133511031353133511 332706
SDINSTAL    011447222304011447222304     96
SDPOC       031353515273031353515273 332706
SEVSIG      031353357720031353357720 332706
SFA1        031353526642031353526642 332706
SFA2        031353526646031353526646 332706
SFA3        031353526614031353526614 332706
SFADEV      031353561536031353561536 332706
SFAINFO     031353561474031353561474 332706
SHADOW      031353074110031353074110 332706
SHAHIN      031353557354031353557354 332706
SHALOM      031353077061031353077061 332706
SHARP5      031353071072031353071072 332706
SHERIDAN    031353502061031353502061 332706
SHIRLEYS    000014003075000014003075    176
SIMMS       034237344077034237344077 270496
SJTYMC      000004216433000004216433     26
SJTYMC40    000004212411000004212411     26
SKOEHLER    011334412466011334412466 203896
SMITHA      021476601573021476601573 135166
SNAKE       031353107110031353107110 332706
SNALFRC     033231512154033231512154 251646
SNAUSRC     033231434542033231434542 251646
SNCEMRC     033231434544033231434544 251646
SNCONRC     033231434546033231434546 251646
SNCONRCB    033231434550033231434550 251646
SNCONRCC    033231434552033231434552 251646
SNCPFRC     033231434554033231434554 251646
SNCPTRC     033231434556033231434556 251646
SNFILES     033231434643033231434643 251646
SNGRARC     033231434557033231434557 251646
SNHDQRC     033231434734033231434734 251646
SNHORNA     016362452642016362452642   2016
SNHORNB     016362452643016362452643   2016
SNHORNC     016362452645016362452645   2016
SNHORND     016362452646016362452646   2016
SNHORNE     016362452647016362452647   2016
SNHORNET    033231434634033231434634 251646
SNHSARC     033231434561033231434561 251646
SNHSDRC     033231434562033231434562 251646
SNHSJRC     033231434564033231434564 251646
SNHSPRC     033231434565033231434565 251646
SNHUNRC     033231434567033231434567 251646
SNINTRC     033231434571033231434571 251646
SNNESRC     033231434573033231434573 251646
SNOMDRC     033231434601033231434601 251646
SNONDRCB    033231500526033231500526 251646
SNORHRC     033231450102033231450102 251646
SNPOGRC     033231434606033231434606 251646
SNRESRC     033231434610033231434610 251646
SNSELRC     033231434616033231434616 251646
SNSOKRC     033231434620033231434620 251646
SNSPHRC     033231434621033231434621 251646
SNSPMRC     033231434622033231434622 251646
SNSPRRC     033231434623033231434623 251646
SNTHIRC     033231434625033231434625 251646
SNTUKRC     033231452460033231452460 251646
SPACM       033231601653033231601653 251646
SPALF       033231452315033231452315 251646
SPCEM       033231452031033231452031 251646
SPDEMB      031353521673031353521673 332706
SPFILES     033231452327033231452327 251646
SPGRA       033231452033033231452033 251646
SPHDQ       033231452167033231452167 251646
SPHSA       033231452034033231452034 251646
SPHSD       033231452040033231452040 251646
SPHSJ       033231452311033231452311 251646
SPHSP       033231452037033231452037 251646
SPHUN       033231452042033231452042 251646
SPINT       033231452044033231452044 251646
SPMAIL1     031353571606031353571606 332706
SPMAR       033231535435033231535435 251646
SPOMD       033231452061033231452061 251646
SPOOLRM     011016165320011016165320     26
SPOOLRMX    011016301770011016301770     26
SPORH       033231452211033231452211 251646
SPPOG       033231452314033231452314 251646
SPRES       033231452106033231452106 251646
SPSHC       033231452032033231452032 251646
SPSOK       033231452113033231452113 251646
SPSON       033231452052033231452052 251646
SPSPH       033231452125033231452125 251646
SPSPM       033231452147033231452147 251646
SPSPR       033231452142033231452142 251646
SPSUK       011073254151011073254151   1996
SPSUPROS    033231452417033231452417 251646
SPTHI       033231452202033231452202 251646
SPTUK       033231452310033231452310 251646
SRA         000001215254000001215254     96
SRA1        000001225013000001225013     96
SRABAK      000001305311000001305311     96
SRACRT      000001221541000001221541     96
SRAFRCST    000001040570000001040570     96
SRAMAP      000001307547000001307547     96
SRAMNIT     000001372437000001372437     96
SRAMOV      000001257377000001257377     96
SRAPJ       000001301157000001301157     96
SRAS        000001323454000001323454     96
SRASO       000001010340000001010340     96
SRATAX      000001430533000001430533     96
SRATECH     000001173236000001173236     96
SRATREND    000001267756000001267756     96
SRAUTIL     000001242452000001242452     96
SRAVAL      000001101723000001101723     96
SROOS       000001234520000001234520     56
SS370D1     011447336447011447336447     96
SS370D2     011447346166011447346166     96
SS370D3     011447522141011447522141     96
SS4047      011447036336011447036336     96
SS4147      011447367620011447367620     96
SS4247      011447370156011447370156     96
SS4347      011447370125011447370125     96
SS4740      011447036337011447036337     96
SS4741      011447367621011447367621     96
SS4742      011447370157011447370157     96
SS4743      011447370126011447370126     96
SS4748      011447362725011447362725     96
SS4749      011447362734011447362734     96
SS4751      011447414036011447414036     96
SS4753      011447442450011447442450     96
SS4782      011447130412011447130412     96
SS4785      011447051354011447051354     96
SS4847      011447362733011447362733     96
SS4947      011447362735011447362735     96
SS5147      011447414035011447414035     96
SS5347      011447442451011447442451     96
SS8247      011447130415011447130415     96
SS8547      011447051350011447051350     96
SSC2        031353413622031353413622 332706
SSC3        031353413633031353413633 332706
SSDEV       011447236070011447236070     96
SSEREP      000001320663000001320663 359486
SSINSTAL    011447177453011447177453     96
SSJREP      000001320776000001320776     96
SSOE1       031353526637031353526637 332706
SSOE2       031353526652031353526652 332706
SSOE3       031353526672031353526672 332706
SSOE4       031353526675031353526675 332706
SSOE5       031353526727031353526727 332706
SSOE6       031353526731031353526731 332706
SSOE7       031353526744031353526744 332706
SSPSA       011447302702011447302702     96
SSRSCS      000014214546000014214546    176
SSTRACK     011447014424011447014424     96
SSTRACKP    011447354605011447354605     96
SSTRANS     011447201466011447201466     96
SSTROLR     011447362714011447362714     96
SSTROLR2    011447537001011447537001     96
SSUTIL      011447132500011447132500    946
SSVALSUP    011447074305011447074305     96
STAUSS      031353374001031353374001 332706
STDMUX      000014261576000014261576    176
STEELER     031353133502031353133502 332706
STEVE2      031353070570031353070570 332706
STEWART     031353503207031353503207 332706
STLOUOPS    051316604242051316604242 607256
STPAUL      031353127010031353127010 332706
STYREE      000014410475000014410475    176
SW0127OF    007641356236007641356236 598216
SW0144LS    007641057011007641057011 598216
SW0153OF    007641077456007641077456 598216
SW0372OF    007641004006007641004006 598216
SW0413IC    007641031222007641031222 598216
SW0446OF    007641310523007641310523 598216
SW0483LS    007641057551007641057551 598216
SW0485LS    007641063735007641063735 598216
SW0582LS    007641117707007641117707 598216
SW0694OF    007641306146007641306146 598216
SW0695OF    007641306147007641306147 598216
SW0816L     007641243207007641243207 598216
SW0822OF    007641275450007641275450 598216
SW0823OF    007641275451007641275451 598216
SW0878OF    007641332434007641332434 598216
SW0879OF    007641345407007641345407 598216
SW0880LS    007641352466007641352466 598216
SW0883IC    007641006702007641006702 598216
SWARNER     021476601571021476601571 135166
SWZ424OF    007641173633007641173633 598216
SWZ675OF    007641057552007641057552 598216
SWZ676OF    007641057553007641057553 598216
SWZ859OF    007641426046007641426046 598216
SWZ860OF    007641426047007641426047 598216
SYSADM      000001370370000001370370     96
SYSDATA     031353071037031353071037 332706
TACOM2      031353421414031353421414 332706
TAFT        031353454446031353454446 332706
TAPELIB     000001030773000001030773 359486
TAPELIBE    000001213464000001213464    956
TASCLBY     005166151636005166151636  26946
TASCT       005166133726005166133726  26946
TASCUPL     005166167473005166167473  26946
TAUYEUNG    020354235314020354235314    176
TBSOPS      011334452013011334452013 203896
TCMS        000001065356000001065356 359486
TERRY5      031353071073031353071073 332706
TESTLIB     031353423763031353423763 332706
TESTSINK    031353161346031353161346 332706
TETARD      031353070571031353070571 332706
TGRIFFIN    011011030416011011030416 180116
THAMA       031353435030031353435030 332706
THAMBN1     031353464135031353464135 332706
THAMBN2     031353464147031353464147 332706
THAMES1     031353514537031353514537 332706
THAMGA1     031353464076031353464076 332706
THAMGA2     031353464075031353464075 332706
THAMGA3     031353464105031353464105 332706
THAMGA4     031353464112031353464112 332706
THAMHN1     031353464221031353464221 332706
THAMJA1     031353464203031353464203 332706
THAMJA2     031353464205031353464205 332706
THAMMA1     031353464332031353464332 332706
THAMMI1     031353464363031353464363 332706
THAMMI2     031353464374031353464374 332706
THAMMI3     031353464406031353464406 332706
THAMMI4     031353514551031353514551 332706
THAMMR1     031353464150031353464150 332706
THAMMR2     031353464152031353464152 332706
THAMPR1     031353464351031353464351 332706
THAMPR2     031353464357031353464357 332706
THAMSR1     031353464200031353464200 332706
THAMSR2     031353464201031353464201 332706
THAMTE1     031353464224031353464224 332706
THAMTE2     031353464225031353464225 332706
THAMTE3     031353464245031353464245 332706
THAMTE4     031353464246031353464246 332706
THAMTE5     031353464247031353464247 332706
THAMTE6     031353464257031353464257 332706
THAMTE7     031353464266031353464266 332706
THAMTE8     031353464313031353464313 332706
THAMTE9     031353464276031353464276 332706
THAMTU1     031353464213031353464213 332706
THOMAS      031353070572031353070572 332706
TIAL        031353133536031353133536 332706
TIM         011447124116011447124116 179246
TIM4N       031353053544031353053544 332706
TLDEV       000001326722000001326722 359486
TNEHQ003    007641053532007641053532 332776
TNENE062    007641323614007641323614 196826
TNESO004    007641222731007641222731 378726
TNETOPS     000001201014000001201014     56
TOMCATE     031353473107031353473107 332706
TRACK0      031353062007031353062007 332706
TRACK1      031353074201031353074201 332706
TRACK2      031353073527031353073527 332706
TRACK3      031353361521031353361521 332706
TRADOC      031353260545031353260545 332706
TRAINING    000001105555000001105555    956
TRON        031353145120031353145120 332706
TRON1       031353354641031353354641 332706
TRON3       031353307015031353307015 332706
TRON4       031353061732031353061732 332706
TRON5       031353445772031353445772 332706
TROSCOM     031353542265031353542265 332706
TRUE        031353077564031353077564 332706
TRUE5       031353220100031353220100 332706
TRUE6       031353535734031353535734 332706
TSAEUREN    031353544436031353544436 332706
TSENG       000007327650000007327650    136
TSPPOTS     000004300312000004300312     26
TST0FX      011011545107011011545107 180116
TST1FX      011011545112011011545112 180116
TST2FX      011011545114011011545114 180116
TST3FX      011011545116011011545116 180116
TST4FX      011011545117011011545117 180116
TST5FX      011011545120011011545120 180116
TST6FX      011011557107011011557107 180116
TTPAXM      037456337012037456337012 325786
TULDIST     031353103070031353103070 332706
TULDIST2    031353122670031353122670 332706
TUTORIAL    031353535167031353535167 332706
TWINS       031353114223031353114223 332706
TXSDOC      000003231227000003231227    166
TYMACS      037456112315037456112315 325786
TYMLEDG     015025216403015025216403    216
TYMSERV     035067357536035067357536 284146
TYMTS       011334352217011334352217 203896
UEMUPL      017705214731017705214731   1656
UKAMSRC     016362406510016362406510   2016
UKAUSRC     016362457231016362457231   2016
UKCEMRC     016362457230016362457230   2016
UKCPGDEM    016362176012016362176012   2016
UKFILES     016362432372016362432372   2016
UKFRARC     016362432364016362432364   2016
UKHORNET    016362406515016362406515   2016
UKLONRC     016362406505016362406505   2016
UKPOGRC     016362457227016362457227   2016
UKSUPROS    016362455325016362455325   2016
UKTRAVEL    016362050532016362050532   2016
UKTVLEXP    016362054374016362054374   2016
UNDEFINE    031353423757031353423757 332706
UOI1NUM     031353053551031353053551 332706
UOI4NUM     031353244277031353244277 332706
UOI6NUM     031353176245031353176245 332706
UPH1        031353130010031353130010 332706
UPL370      011011132012011011132012 180116
UPLUK       011073215673011073215673   1996
US1NQCIS    033074537140033074537140 250306
US2NQCIS    033074056410033074056410 250306
USAAIC      031353605717031353605717 332706
USAFOUR     031353444703031353444703 332706
USARMYGY    031353070574031353070574 332706
USARMYSE    031353036541031353036541 332706
USAWES      031353552676031353552676 332706
USERLIB     031353455200031353455200 332706
USEVAL      000006144222000006144222     96
USMADEH     031353247636031353247636 332706
USMADEH1    031353415613031353415613 332706
UTSDEV      011334054375011334054375 203896
UTX00001    023075523005023075523005   1966
UTX00002    023075523006023075523006   1966
UTX00003    023075523007023075523007   1966
UTX00004    023075523010023075523010   1966
UTX00005    023075523011023075523011   1966
UTX00006    023075523014023075523014   1966
UTX00007    023075523012023075523012   1966
UTX00008    023075523013023075523013   1966
UTX00009    023075523015023075523015   1966
UTX00010    023075523016023075523016   1966
UTX00011    023075540262023075540262   1966
UTX00012    023075540263023075540263   1966
UTX00013    023075540264023075540264   1966
UTX00014    023075540266023075540266   1966
UTX00015    023075540272023075540272   1966
UTX00016    023075540273023075540273   1966
UTX00017    023075540274023075540274   1966
UTX00018    023075540275023075540275   1966
UTX00019    023075540276023075540276   1966
UTX00020    023075540277023075540277   1966
UTX00021    023075540300023075540300   1966
UTX00022    023075540301023075540301   1966
UTX00023    023075540302023075540302   1966
UTX00024    023075540303023075540303   1966
UTX00025    023075540304023075540304   1966
UTX00026    023075540305023075540305   1966
UTX00027    023075540306023075540306   1966
UTX00028    023075540307023075540307   1966
UTX00029    023075540310023075540310   1966
UTX00030    023075540311023075540311   1966
UTX00031    023075540314023075540314   1966
UTX00032    023075540316023075540316   1966
UTX00033    023075540320023075540320   1966
UTX00034    023075540321023075540321   1966
UTX00035    023075540322023075540322   1966
UTX00036    023075540323023075540323   1966
UTX00037    023075540324023075540324   1966
UTX00038    023075540325023075540325   1966
UTX00039    023075540326023075540326   1966
UTX00040    023075540327023075540327   1966
UTX00041    023075540330023075540330   1966
UTX00042    023075540331023075540331   1966
UTX00043    023075540332023075540332   1966
UTX00044    023075540333023075540333   1966
UTX00045    023075540334023075540334   1966
UTX00046    023075540335023075540335   1966
UTX00047    023075540336023075540336   1966
UTX00048    023075540337023075540337   1966
UTX00049    023075540340023075540340   1966
UTX00050    023075540341023075540341   1966
UTX00051    023075540342023075540342   1966
UTX00052    023075540343023075540343   1966
UTX00053    023075540344023075540344   1966
UTX00054    023075540345023075540345   1966
UTX00055    023075540346023075540346   1966
UTX00056    023075540347023075540347   1966
UTX00057    023075540350023075540350   1966
UTX00058    023075540351023075540351   1966
UTX00059    023075540352023075540352   1966
UTX00060    023075540353023075540353   1966
UTX00061    023075540356023075540356   1966
UTX00062    023075540357023075540357   1966
UTX00063    023075540360023075540360   1966
UTX00064    023075540361023075540361   1966
UTX00065    023075540362023075540362   1966
UTX00066    023075540363023075540363   1966
UTX00067    023075540364023075540364   1966
UTX00068    023075540401023075540401   1966
UTX00069    023075540404023075540404   1966
UTX00070    023075540413023075540413   1966
UTX00071    023075540415023075540415   1966
UTX00072    023075540417023075540417   1966
UTX00073    023075540420023075540420   1966
UTX00074    023075540421023075540421   1966
UTX00075    023075540423023075540423   1966
UTX00076    023075540426023075540426   1966
UTX00077    023075540432023075540432   1966
UTX00078    023075540433023075540433   1966
UTX00079    023075540434023075540434   1966
UTX00080    023075540435023075540435   1966
UTX00081    023075540436023075540436   1966
UTX00082    023075540437023075540437   1966
UTX00083    023075540440023075540440   1966
UTX00084    023075540441023075540441   1966
UTX00085    023075540442023075540442   1966
UTX00086    023075540445023075540445   1966
UTX00087    023075540446023075540446   1966
UTX00088    023075540450023075540450   1966
UTX00089    023075540452023075540452   1966
UTX00090    023075540455023075540455   1966
UTX00091    023075540457023075540457   1966
UTX00092    023075540462023075540462   1966
UTX00093    023075540464023075540464   1966
UTX00094    023075540467023075540467   1966
UTX00095    023075540470023075540470   1966
UTX00096    023075540471023075540471   1966
UTX00097    023075540473023075540473   1966
UTX00098    023075540476023075540476   1966
UTX00099    023075540500023075540500   1966
UTX00100    023075540502023075540502   1966
UTX00101    023075577474023075577474   3816
UTX00102    023075577475023075577475   3816
UTX00103    023075577476023075577476   3816
UTX00104    023075577477023075577477   3816
UTX00105    023075577500023075577500   3816
UTX00106    023075577501023075577501   3816
UTX00107    023075577502023075577502   3816
UTX00108    023075577503023075577503   3816
UTX00109    023075577504023075577504   3816
UTX00110    023075577505023075577505   3816
UTX00111    023075577506023075577506   3816
UTX00112    023075577507023075577507   3816
UTX00113    023075577510023075577510   3816
UTX00114    023075577511023075577511   3816
UTX00115    023075577512023075577512   3816
UTX00116    023075577513023075577513   3816
UTX00117    023075577514023075577514   3816
UTX00118    023075577515023075577515   3816
UTX00119    023075577516023075577516   3816
UTX00120    023075577517023075577517   3816
UTX00121    023075577520023075577520   3816
UTX00122    023075577521023075577521   3816
UTX00123    023075577522023075577522   3816
UTX00124    023075577523023075577523   3816
UTX00125    023075577524023075577524   3816
UTX00126    023075577525023075577525   3816
UTX00127    023075577526023075577526   3816
UTX00128    023075577527023075577527   3816
UTX00129    023075577530023075577530   3816
UTX00130    023075577531023075577531   3816
UTX00131    023075577532023075577532   3816
UTX00132    023075577533023075577533   3816
UTX00133    023075577534023075577534   3816
UTX00134    023075577535023075577535   3816
UTX00135    023075577536023075577536   3816
UTX00136    023075577537023075577537   3816
UTX00137    023075577540023075577540   3816
UTX00138    023075577541023075577541   3816
UTX00139    023075577542023075577542   3816
UTX00140    023075577543023075577543   3816
UTX00141    023075577544023075577544   3816
UTX00142    023075577545023075577545   3816
UTX00143    023075577546023075577546   3816
UTX00144    023075577547023075577547   3816
UTX00145    023075577550023075577550   3816
UTX00146    023075577551023075577551   3816
UTX00147    023075577552023075577552   3816
UTX00148    023075577553023075577553   3816
UTX00149    023075577554023075577554   3816
UTX00150    023075577555023075577555   3816
UTX00151    023075577556023075577556   3816
UTX00152    023075577557023075577557   3816
UTX00153    023075577560023075577560   3816
UTX00154    023075577561023075577561   3816
UTX00155    023075577562023075577562   3816
UTX00156    023075577563023075577563   3816
UTX00157    023075577564023075577564   3816
UTX00158    023075577565023075577565   3816
UTX00159    023075577566023075577566   3816
UTX00160    023075577567023075577567   3816
UTX00161    023075577571023075577571   3816
UTX00162    023075577572023075577572   3816
UTX00163    023075577574023075577574   3816
UTX00164    023075577576023075577576   3816
UTX00165    023075577577023075577577   3816
UTX00166    023075577601023075577601   3816
UTX00167    023075577603023075577603   3816
UTX00168    023075577605023075577605   3816
UTX00169    023075577606023075577606   3816
UTX00170    023075577610023075577610   3816
UTX00171    023075577612023075577612   3816
UTX00172    023075577614023075577614   3816
UTX00173    023075577615023075577615   3816
UTX00174    023075577617023075577617   3816
UTX00175    023075577621023075577621   3816
UTX00176    023075577623023075577623   3816
UTX00177    023075577625023075577625   3816
UTX00178    023075577626023075577626   3816
UTX00179    023075577627023075577627   3816
UTX00180    023075577630023075577630   3816
UTX00181    023075577631023075577631   3816
UTX00182    023075577632023075577632   3816
UTX00183    023075577633023075577633   3816
UTX00184    023075577634023075577634   3816
UTX00185    023075577635023075577635   3816
UTX00186    023075577636023075577636   3816
UTX00187    023075577637023075577637   3816
UTX00188    023075577640023075577640   3816
UTX00189    023075577641023075577641   3816
UTX00190    023075577642023075577642   3816
UTX00191    023075577643023075577643   3816
UTX00192    023075577644023075577644   3816
UTX00193    023075577645023075577645   3816
UTX00194    023075577647023075577647   3816
UTX00195    023075577650023075577650   3816
UTX00196    023075577651023075577651   3816
UTX00197    023075577652023075577652   3816
UTX00198    023075577653023075577653   3816
UTX00199    023075577654023075577654   3816
UTX00200    023075577655023075577655   3816
UTXRDE      023075523004023075523004   1966
V3ABR       031353466641031353466641 332706
V3ACE       031353170341031353170341 332706
V3ACE1      031353232207031353232207 332706
V3ACE2      031353412207031353412207 332706
V3ACE3      031353461027031353461027 332706
V3ACE4      031353461026031353461026 332706
V3AFM       031353337732031353337732 332706
V3ANNEX     031353033402031353033402 332706
V3BILL      031353450101031353450101 332706
V3BOB       031353416560031353416560 332706
V3BRAGG     031353466644031353466644 332706
V3BUFF      031353413414031353413414 332706
V3CCL       031353155752031353155752 332706
V3CHARLS    031353413402031353413402 332706
V3CHIC      031353413426031353413426 332706
V3COTR      031353075204031353075204 332706
V3CRIS      031353601075031353601075 332706
V3DARCOM    031353356732031353356732 332706
V3DET1      031353443146031353443146 332706
V3DETIV     031353517636031353517636 332706
V3DETIVB    031353517646031353517646 332706
V3DETR      031353413423031353413423 332706
V3DRUM      031353466652031353466652 332706
V3EASA1     031353006177031353006177 332706
V3EASA2     031353006105031353006105 332706
V3EASA3     031353006446031353006446 332706
V3ECEA      031353236477031353236477 332706
V3ECEE      031353202025031353202025 332706
V3ECEI      031353254113031353254113 332706
V3EDS       031353555743031353555743 332706
V3ENGR      031353443147031353443147 332706
V3EUD       031353266200031353266200 332706
V3EUD1      031353403417031353403417 332706
V3FASO      031353047233031353047233 332706
V3FESA      031353156707031353156707 332706
V3FESS      031353232113031353232113 332706
V3FMS       031353202407031353202407 332706
V3FPR1      031353006601031353006601 332706
V3FPR2      031353006743031353006743 332706
V3FRNK      031353466636031353466636 332706
V3FTORD     031353466725031353466725 332706
V3GALV      031353413447031353413447 332706
V3GEN       031353014122031353014122 332706
V3GRBK      031353431573031353431573 332706
V3HOMES1    031353007053031353007053 332706
V3HOOD      031353466660031353466660 332706
V3HUAC      031353466741031353466741 332706
V3HUNT      031353413421031353413421 332706
V3IBRIC     031353421466031353421466 332706
V3IFS       031353303172031353303172 332706
V3JACKS     031353413350031353413350 332706
V3JERRY     031353412544031353412544 332706
V3JIM       031353465201031353465201 332706
V3JOE       031353531425031353531425 332706
V3JOHN      031353472252031353472252 332706
V3LIB       031353265216031353265216 332706
V3LJP       031353046750031353046750 332706
V3LMK       031353132223031353132223 332706
V3LROCK     031353413330031353413330 332706
V3LWOOD     031353466720031353466720 332706
V3MARK      031353450100031353450100 332706
V3MARL      031353555727031353555727 332706
V3MCC       031353213126031353213126 332706
V3MCE       031353213125031353213125 332706
V3MCES      031353222407031353222407 332706
V3MCP       031353213173031353213173 332706
V3MCP1      031353244522031353244522 332706
V3MCZ       031353221352031353221352 332706
V3MEMORY    031353100760031353100760 332706
V3MEMP      031353413357031353413357 332706
V3MOD1      031353007131031353007131 332706
V3MPHM      031353345170031353345170 332706
V3MPO       031353270771031353270771 332706
V3MPOBG     031353203763031353203763 332706
V3MRK       031353051366031353051366 332706
V3MRO       031353051370031353051370 332706
V3NAD       031353051424031353051424 332706
V3NAF       031353033404031353033404 332706
V3NAN       031353051425031353051425 332706
V3NAO       031353051433031353051433 332706
V3NASH      031353413366031353413366 332706
V3NCD       031353066775031353066775 332706
V3NEWENG    031353413406031353413406 332706
V3NPA       031353051342031353051342 332706
V3NPS       031353051343031353051343 332706
V3OCEREA    031353356733031353356733 332706
V3ORD       031353051434031353051434 332706
V3PAUL      031353272417031353272417 332706
V3PITTS     031353413420031353413420 332706
V3PLAN      031353431531031353431531 332706
V3PPCP      031353165666031353165666 332706
V3PRO       031353001456031353001456 332706
V3PSI       031353520663031353520663 332706
V3PSI2      031353530047031353530047 332706
V3PSI3      031353544473031353544473 332706
V3RDSTN     031353466735031353466735 332706
V3RICH      031353111313031353111313 332706
V3RICH2     031353557112031353557112 332706
V3ROCKIS    031353413446031353413446 332706
V3RPMA      031353411265031353411265 332706
V3RPMS      031353354151031353354151 332706
V3SAD       031353051406031353051406 332706
V3SAM       031353051412031353051412 332706
V3SAM1      031353445777031353445777 332706
V3SAM10     031353446072031353446072 332706
V3SAM11     031353446076031353446076 332706
V3SAM12     031353446110031353446110 332706
V3SAM13     031353446117031353446117 332706
V3SAM14     031353446125031353446125 332706
V3SAM15     031353446127031353446127 332706
V3SAM2      031353445775031353445775 332706
V3SAM3      031353446003031353446003 332706
V3SAM4      031353446010031353446010 332706
V3SAM5      031353446020031353446020 332706
V3SAM6      031353446023031353446023 332706
V3SAM7      031353446042031353446042 332706
V3SAM8      031353446065031353446065 332706
V3SAM9      031353446071031353446071 332706
V3SANFR     031353412676031353412676 332706
V3SAS       031353051415031353051415 332706
V3SILL      031353466647031353466647 332706
V3SINK      031353122324031353122324 332706
V3SKIN      031353454506031353454506 332706
V3SMS       031353555754031353555754 332706
V3SPD       031353051344031353051344 332706
V3SPK       031353236517031353236517 332706
V3SSG       031353060235031353060235 332706
V3STLOU     031353413430031353413430 332706
V3SWD       031353026772031353026772 332706
V3SWF       031353051372031353051372 332706
V3SWT       031353051375031353051375 332706
V3SYSTEM    031353535415031353535415 332706
V3UPDT      031353060775031353060775 332706
V3VAL       031353147327031353147327 332706
V3VICOR     031353411266031353411266 332706
V3WALLA     031353412672031353412672 332706
V3WEIS      031353466637031353466637 332706
V3WILM      031353413377031353413377 332706
V3ZCI       031353337733031353337733 332706
V3ZCI2      031353034773031353034773 332706
V3ZCPC      031353051701031353051701 332706
V3ZCPC2     031353025115031353025115 332706
V3ZCPL      031353557110031353557110 332706
V4NAD       031353425471031353425471 332706
VAL370      000001000370000001000370     96
VALADM      000001070110000001070110     96
VALADM1     000001160234000001160234     96
VALSLICE    000001127475000001127475     96
VCMSSYS     000014542267000014542267    176
VICKI       031353514564031353514564 332706
VICTORY     031353161765031353161765 332706
VIVIAN      000001075305000001075305     96
VMBADCYL    000001131720000001131720     96
VMCMIS      000014153514000014153514     96
VMCMSSYS    000014126423000014126423    176
VMCMST1     000014543166000014543166    176
VMCMST10    000014065215000014065215    176
VMCMST11    000014154457000014154457    176
VMCMST2     000014131717000014131717    176
VMCMST3     000014137556000014137556    176
VMCMST4     000014143243000014143243    176
VMCMST5     000014152310000014152310    176
VMCMST6     000014222143000014222143    176
VMCMST7     000014265072000014265072    176
VMCMST9     000014002655000014002655    176
VMCP3.0     000014163655000014163655    176
VMCPDEV1    000014162323000014162323    176
VMCPDEV2    000014164223000014164223    176
VMCPDEV3    000014200060000014200060    176
VMCPDEV4    000014233725000014233725    176
VMCPDEV5    000014242272000014242272    176
VMCPDEV6    000014352003000014352003    176
VMCPSYS     000014253551000014253551    176
VMONTYME    000001045374000001045374     96
VMRTM       000001305646000001305646     96
VMSP1       000014014007000014014007    176
VMSYS       000014273175000014273175    176
VMSYSCYL    000001117167000001117167     96
VMSYSDIR    000001133435000001133435     96
VMSYSLIB    000001141173000001141173     96
VMUPDATE    000014117165000014117165    176
VMUTIL      011447216572011447216572     96
VMVSP1A     000014014016000014014016    176
VMVSP1B     000014014017000014014017    176
VMVSP1C     000014160021000014160021    176
WARRENT     030455126237030455126237 212996
WE02T       007641175572007641175572 598426
WEADMIN     007641001115007641001115 598286
WEDATALS    007641026303007641026303 598426
WEFOCUS     007641265020007641265020 598426
WENETBIS    007641305527007641305527 598426
WEPOC       031353515264031353515264 332706
WEPRODCL    007641351706007641351706 598426
WEPRODIC    007641270125007641270125 598426
WEPRODL     007641236122007641236122 598426
WEPRODOF    007641217754007641217754 598426
WEPRODOS    007641023663007641023663 598426
WEPRODT     007641063742007641063742 598426
WERDES      007641254117007641254117 598426
WESGP       031353457331031353457331 332706
WESTARLS    007641026302007641026302 598426
WETREAT     007641405717007641405717 565736
WHRD1       031353605026031353605026 332706
WHRD2       031353605017031353605017 332706
WILIAMS     031353133535031353133535 332706
WILMING     031353020274031353020274 332706
WILSON1     031353426622031353426622 332706
WIMPY       031353070575031353070575 332706
WORDLINK    031353605251031353605251 332706
WRAMCFE     031353324717031353324717 332706
WRS         000003225443000003225443 203896
WSEE        011334470053011334470053 203896
XCHGOPS     011011574503011011574503 180116
XCHGSW      011011562414011011562414 180116
XFREDLIB    005166277726005166277726  26946
XID1        031353075071031353075071 332706
XID2        031353075072031353075072 332706
XPS         031353473016031353473016 332706
XPSSYS      022013256070022013256070 141446
XPSUSER     022013256066022013256066 141446
ZCE         031353106174031353106174 332706
ZCE1        031353603631031353603631 332706
ZCE2        031353603632031353603632 332706
ZCI         031353071024031353071024 332706
ZCM         031353417707031353417707 332706
ZCP         031353071025031353071025 332706
ZONE        021053171021021053171021 213866
E@$$w