3400911020659DCSMINN      16316365203249PURGE2      0050000100000000000000000921102
3401011021207OPER             1    21  0            01001   0   393890      4921102
3401011021207OPER             1    21  0            011   112 10     0      0921102
3401111022230FREMUR           1 16367  0WK1026      01001   0   128400      2921102
3401111022230FREMUR           1 16367  0WK1026      011    32 10     0      0921102
3401311022230FREMUR           1 16367  0MTHOCT      01001   0   181250      2921102
3401311022230FREMUR           1 16367  0MTHOCT      011    40 10     0      0921102
3401511031442BURNS1           1161424  0PRINT       01001   0    31030      1921103
3401511031442BURNS1           1161424  0PRINT       011     9 10     0      0921103
3401811041251BURNS1      000001161424000RESTORE     1040000010000000000000000921104
3401911041746OPER             1    21  0MAGCON      0070000060003000000000000921104
3402011041751OPER             1    21  0MAGCON      0070000060003000000000000921104
3402311060521DCSMINN      16316365203249PURGE3      0040000010000000000000000921106
3402311060521DCSMINN      16316365203249PURGE3      0050000120000000000000000921106
3402111052345OPER             1    21  0ACTG        0050000050000000000000000921106
3402111052345OPER             1    21  0ACTG        0040000050000000000000000921106
3402711120914DCSFRS       16316177547249LJB         0070000010001000000000001921112
3402711120914DCSFRS       16316177547249LJB         0040000010000000000000000921112
3402511120908DCSFRS       16316177547249LJB         0070000010001000000000000921112
3402611120911DCSFRS       16316177547249LJB         0070000020002000000000002921112
3402811121002JMILLER          1277731  0USEVAL FILE 0050008160000000000000000921112
3403111130047FREMUR           1 16367  0WK1102      0 1    32 10000000      0921113
3403211130048FREMUR           1 16367  0WK1102      0 1     8 10000000      0921113
3402911121531OPER             1    21  0MAGCON      0070000060003000000000000921113
3403311140830BILLING10        1 44355  0ACTG        0040000060000000000000000921114
3403311140830BILLING10        1 44355  0ACTG        0050000060000000000000000921114
3403411141009OPER             1    21  0MAGCON      0070000060003000000000000921114
3403611151013BILLING10        1 44355  0MAGCON      0070000040002000000000000921115
3403511151001OPER             1    21  0ACTG        0040000060000000000000000921115
3403511151001OPER             1    21  0ACTG        0050000060000000000000000921115
3403711151055BILLING10        1 44355  0MAGCON      0070000060003000000000000921115
3403911160000JMS              34311162382105        0 1     1 10000000      0921116
3403811152338BILLING10        1 44355  0ACTG        0040000030000000000000000921116
3403811152338BILLING10        1 44355  0ACTG        0050000030000000000000000921116
3404111161625BILLING10        1 44355  0ACTG        0040000050000000000000000921116
3404111161625BILLING10        1 44355  0ACTG        0050000050000000000000000921116
3404211161837FREMUR           1 16367  0WK1109      0 1    32 10000000      0921116
3404011161018BILLING10        1 44355  0MAGCON      0070000060003000000000000921116
3404411162337OPER             1    21  0MAGCON      0070000060003000000000000921117
3404511171529BILLING10        1 44355  0ACTG        0040000050000000000000000921118
3404511171529BILLING10        1 44355  0ACTG        0050000050000000000000000921118
3404611180842OPER             1    21  0MAGCON      0070000040002000000000000921118
3404711180917BILLING10        1 44355  0ACTG        0040000050000000000000000921118
3404711180917BILLING10        1 44355  0ACTG        0050000050000000000000000921118
3404811181853BILLING10        1 44355  0ACTG        0040000030000000000000000921118
3404811181853BILLING10        1 44355  0ACTG        0050000030000000000000000921118
3404911181906BILLING10        1 44355  0MAGCON      0070000060003000000000000921119
3404311161838FREMUR           1 16367  0WK1109      0 1     8 10000000      0921116
3405111191710BILLING10        1 44355  0ACTG        0040000050000000000000000921119
3405111191710BILLING10        1 44355  0ACTG        0050000050000000000000000921119
3405011191206OPER             1    21  0MAGCON      0070000060003000000000000921120
3405311210800DANIELSR         1142734  0FILE SAVE   0050000610000000000000000921121
3405211201501BILLING10        1 44355  0ACTG        0040000050000000000000000921121
3405211201501BILLING10        1 44355  0ACTG        0050000050000000000000000921121
3405511212348BILLING10        1 44355  0MAGCON      0070000060003000000000000921122
3405611222359BILLING10        1 44355  0ACTG        0040000050000000000000000921123
3405611222359BILLING10        1 44355  0ACTG        0050000050000000000000000921123
3405911240021FREMUR           1 16367  0WWWKLY MUR  01001   0   127800      2921124
3405911240021FREMUR           1 16367  0WWWKLY MUR  011    32 10     0      0921124
3406111251954BILLING10        1 44355  0MAGCON      0070000060003000000000000921126
3406311271205BILLING10        1 44355  0ACTG        0040000050000000000000000921127
3406311271205BILLING10        1 44355  0ACTG        0050000050000000000000000921127
3406411271437BILLING10        1 44355  0MAGCON      0070000050002000000000000921127
3406511280813BILLING10        1 44355  0ACTG        0040000040000000000000000921128
3406511280813BILLING10        1 44355  0ACTG        0050000040000000000000000921128
3406611280924BILLING10        1 44355  0MAGCON      0070000050002000000000000921128
3406711290845BILLING10        1 44355  0ACTG        0040000040000000000000000921129
3406711290845BILLING10        1 44355  0ACTG        0050000040000000000000000921129
3406811290903BILLING10        1 44355  0MAGCON      0070000040002000000000000921129
3406911291901BILLING10        1 44355  0ACTG        0050000030000000000000000921129
3406911291901BILLING10        1 44355  0ACTG        0040000030000000000000000921129
3407011292252BILLING10        1 44355  0MAGCON      0070000040002000000000000921130
3407311301918FREMUR           1 16367  0WK1123      0 1    32 10000000      0921130
3407111301605BILLING10        1 44355  0ACTG        0040000030000000000000000921130
3407111301605BILLING10        1 44355  0ACTG        0050000030000000000000000921130
3440211010109FREMUR           1 16367  0            0 1     8 10000000      0931101
3439910312344FREMUR           1 16367  0FREMUR      0 1    14 10000000      0931101
3440010312349MVSMURS          1154414  0MVSMURS     0 1    14 10000000      0931101
3440611010211FREMUR           1 16367  0            0 1    16 10000000      0931101
3440911010244FREMUR           1 16367  0            0 1    36 10000000      0931101
3440511010212NETDETAIL    21477 54130201            0070000010001000000000000931101
3441311011508OTMMUR      000001137065  0            0 9     2      514      0931101
3441411011944BILLING10        1 44355  0ACTG        0040000040000000000000000931101
3441411011944BILLING10        1 44355  0ACTG        0050000040000000000000000931101
3441511020152NETDETAIL    21477 54130201            0070000010001000000000000931102
3440311010110FREMUR           1 16367  0            0 1     2 10000000      0931101
3440711010213FREMUR           1 16367  0            0 1     4 10000000      0931101
3441011010246FREMUR           1 16367  0            0 1     6 10000000      0931101
3441111011444FRANK            4111413  2MAGCON      0070000060003000000000000931102
3441611022331BILLING10        1 44355  0ACTG        0050000060000000000000000931103
3441611022331BILLING10        1 44355  0ACTG        0040000060000000000000000931103
3441711030222NETDETAIL    21477 54130201            0070000010001000000000000931103
3441811030719BILLING10        1 44355  0MAGCON      0070000060002000000000000931103
3441911040051BILLING10        1 44355  0ACTG        0050000060000000000000000931104
3441911040051BILLING10        1 44355  0ACTG        0040000060000000000000000931104
3442011040212NETDETAIL    21477 54130229            0070000010001000000000000931104
3442211050147NETDETAIL    21477 54130229            0070000010001000000000000931105
3442411060215NETDETAIL    21477 54130229            0070000010001000000000000931106
3442111041218FRANK            4111413  2MAGCON      0070000050003000000000000931106
3442511070301NETDETAIL    21477 54130229            0070000010001000000000000931107
3442611071236BILLING10        1 44355  0ACTG        0040000060000000000000000931107
3442611071236BILLING10        1 44355  0ACTG        0050000060000000000000000931107
3442811072116FREMUR           1 16367  0            0 1    16 10000000      0931107
3443011080000JMS              34311162382105        0 1     1 10000000      0931108
3442311051423FRANK            4111413  2MAGCON      0070000060003000000000000931108
3443211080554NETDETAIL    21477 54130229            0070000010001000000000000931108
3443111080518BILLING10        1 44355  0MAGCON      0070000050002000000000000931108
0143411081821BILLING10   000000000000  0ACTG        0040000060000000000000000931108
3443411081821BILLING10        1 44355  0ACTG        0040000060000000000000000931108
3443411081821BILLING10        1 44355  0ACTG        0050000060000000000000000931108
3443511090248NETDETAIL    21477 54130229            0070000010001000000000000931109
3443611090439BILLING10        1 44355  0ACTG        0050000050000000000000000931109
3443611090439BILLING10        1 44355  0ACTG        0040000050000000000000000931109
3442911072117FREMUR           1 16367  0            0 1     4 10000000      0931107
3443311081320BILLING10        1 44355  0MAGCON      0070000050002000000000000931109
3443811091809BILLING10        1 44355  0ACTG        0040000050000000000000000931109
3443811091809BILLING10        1 44355  0ACTG        0050000050000000000000000931109
3443911100139NETDETAIL    21477 54130229            0070000010001000000000000931110
3444011110142NETDETAIL    21477 54130229            0070000010001000000000000931111
3443711091550BILLING10        1 44355  0MAGCON      0070000060003000000000000931111
3444311120134NETDETAIL    21477 54130229            0070000010001000000000000931112
3444211120004BILLING10        1 44355  0ACTG        0040000070000000000000000931112
3444211120004BILLING10        1 44355  0ACTG        0050000070000000000000000931112
3444111111310BILLING10        1 44355  0MAGCON      0070000060004000000000000931112
3444511130141NETDETAIL    21477 54130229            0070000010001000000000000931113
3444411130021BILLING10        1 44355  0ACTG        0040000060000000000000000931113
3444411130021BILLING10        1 44355  0ACTG        0050000060000000000000000931113
3444611130753BILLING10        1 44355  0MAGCON      0070000060003000000000000931113
3444711140257NETDETAIL    21477 54130229            0070000010001000000000000931114
3444811140737BILLING10        1 44355  0ACTG        0040000060000000000000000931114
3444811140737BILLING10        1 44355  0ACTG        0050000060000000000000000931114
3444911141143BILLING10        1 44355  0MAGCON      0070000040002000000000000931114
3445011142136FREMUR           1 16367  0            0 1    20 10000000      0931114
3445211150036BILLING10        1 44355  0ACTG        0040000040000000000000000931115
3445211150036BILLING10        1 44355  0ACTG        0050000040000000000000000931115
3445311150148NETDETAIL    21477 54130229            0070000010001000000000000931115
3445611151437DANIELSR         1142734  0SOURCE DOCS 0 1   445 10000000      0931115
3445511151350BILLING10        1 44355  0ACTG        0040000040000000000000000931115
3445511151350BILLING10        1 44355  0ACTG        0050000040000000000000000931115
3445711160152NETDETAIL    21477 54130229            0070000010001000000000000931116
3445111142137FREMUR           1 16367  0            0 1     4 10000000      0931114
3445411151338BILLING10        1 44355  0MAGCON      0070000060003000000000000931116
3445811161351NETSTAT      21477205635229FILES 34 2 30040000190000000000000000931117
3445811161351NETSTAT      21477205635229FILES 34 2 30050000190000000000000000931117
3446011170144NETDETAIL    21477 54130229            0070000010001000000000000931117
3445911170109BILLING10        1 44355  0ACTG        0050000060000000000000000931117
3445911170109BILLING10        1 44355  0ACTG        0040000060000000000000000931117
3446211180148NETDETAIL    21477 54130229            0070000010001000000000000931118
3446111171402FRANK            4111413  2MAGCON      0070000060003000000000000931118
3446411190021BILLING10        1 44355  0ACTG        0040000070000000000000000931119
3446411190021BILLING10        1 44355  0ACTG        0050000070000000000000000931119
3446511190236NETDETAIL    21477 54130229            0070000010001000000000000931119
3446611200154NETDETAIL    21477 54130229            0070000010001000000000000931120
3446311181525FRANK            4111413  2MAGCON      0070000070003000000000000931120
3446711210241NETDETAIL    21477 54130229            0070000010001000000000000931121
3446911210936BILLING10        1 44355  0ACTG        0040000070000000000000000931121
3446911210936BILLING10        1 44355  0ACTG        0050000070000000000000000931121
3446811210800DANIELSR         1142734  0FILE SAVE   0050004740000000000000000931121
3447111212052FREMUR           1 16367  0            0 1    20 10000000      0931121
3447011211614BILLING10        1 44355  0MAGCON      0070000040002000000000000931121
3447311220251NETDETAIL    21477 54130229            0070000010001000000000000931122
3447411220503BILLING10        1 44355  0MAGCON      0070000040002000000000000931122
3447411220503BILLING10        1 44355  0MAGCON      0070000040002000000000000931122
3447511220727BILLING10        1 44355  0ACTG        0040000040000000000000000931122
3447511220727BILLING10        1 44355  0ACTG        0050000040000000000000000931122
3447611221851BILLING10        1 44355  0ACTG        0040000040000000000000000931122
3447611221851BILLING10        1 44355  0ACTG        0050000040000000000000000931122
3447711230150NETDETAIL    21477 54130229            0070000010001000000000000931123
3447911240134NETDETAIL    21477 54130229            0070000010001000000000000931124
3447811231421FRANK            4111413  2MAGCON      0070000070003000000000000931124
3448111242253BILLING10        1 44355  0ACTG        0040000070000000000000000931125
3448111242253BILLING10        1 44355  0ACTG        0050000070000000000000000931125
3448211250150NETDETAIL    21477 54130229            0070000010001000000000000931125
3448011241325FRANK            4111413  2MAGCON      0070000060003000000000000931125
3448411251946FREMUR           1 16367  0            0 1     8 10000000      0931125
3448611260158NETDETAIL    21477 54130229            0070000010001000000000000931126
3448511260158BILLING10        1 44355  0ACTG        0040000060000000000000000931126
3448511260158BILLING10        1 44355  0ACTG        0050000060000000000000000931126
3448811261547BILLING10        1 44355  0ACTG        0040000040000000000000000931126
3448811261547BILLING10        1 44355  0ACTG        0050000040000000000000000931126
3448911270141NETDETAIL    21477 54130229            0070000010001000000000000931127
3448711260937BILLING10        1 44355  0MAGCON      0070000050002000000000000931127
3449211280242NETDETAIL    21477 54130229            0070000010001000000000000931128
3449311280724BILLING10        1 44355  0ACTG        0040000050000000000000000931128
3449311280724BILLING10        1 44355  0ACTG        0050000050000000000000000931128
3449011271115OPER             1    21  0MAGCON      0070000040002000000000000931128
3449411282302FREMUR           1 16367  0            0 1    40 10000000      0931128
3449611282334FREMUR           1 16367  0            0 1    20 10000000      0931128
3449911290010FREMUR           1 16367  0            0 1    20 10000000      0931129
3449711282342BILLING10        1 44355  0ACTG        0040000040000000000000000931129
3449711282342BILLING10        1 44355  0ACTG        0050000040000000000000000931129
3450111290145NETDETAIL    21477 54130229            0070000010001000000000000931129
3449111271134OPER             1    21  0MAGCON      0070000040002000000000000931129
3450211291012BILLING10        1 44355  0ACTG        0040000040000000000000000931129
3450211291012BILLING10        1 44355  0ACTG        0050000040000000000000000931129
3450411300154NETDETAIL    21477 54130229            0070000010001000000000000931130
3447211212053FREMUR           1 16367  0            0 1     4 10000000      0931121
3449511282304FREMUR           1 16367  0            0 1     8 10000000      0931128
3450011290013FREMUR           1 16367  0            0 1     4 10000000      0931129
3450311291601FRANK            4111413  2MAGCON      0070000060003000000000000931130
3450511301404MVSMURS          1154414  0MVSMURS     0 1    12 10000000      0931130
3450711301439FREMUR           1 16367  0FREMUR      0 1    12 10000000      0931130
3451011302004BILLING10        1 44355  0ACTG        0040000050000000000000000931130
3451011302004BILLING10        1 44355  0ACTG        0050000050000000000000000931130
3457810300442BILLING10        1 44355  0MAGCON      0070000060003000000000000941031
