3471306010000JMS              34311162382105        01001   0     1660      1920601
3471306010000JMS              34311162382105        011     1 10     0      0920601
3471406011302OPER             1    21  0            01001   0   418320      4920601
3471406011302OPER             1    21  0            011   119 10     0      0920601
3471106010053DCSMINN      16316365203249PURGE4      0040000010000000000000000920601
3471106010053DCSMINN      16316365203249PURGE4      0050000010000000000000001920601
3471106010053DCSMINN      16316365203249PURGE4      0050000100000000000000001920601
3471506011912DCSMINN      16316365203249AIRCO       0 1   552 10000000      0920601
3471606011915DCSMINN      16316365203249AIRCO2      0 1    31 10000000      0920601
3471906021003OPER        000001000021  0            0 9     2     4690      0920602
3472006021007OPER        000001000021  0            0 9     2     4690      0920602
3472106021328OPER        000001000021  0            0 9     3     9374      0920602
3471706020851BILLING10        1 44355  0MAY92 BACKUP0040000010000000000000000920602
3471706020851BILLING10        1 44355  0MAY92 BACKUP0050001240000000000000000920602
3471806021110ALICIABX     16316453375249UTILIZ. REST0040000090000000000000000920602
3472206021523OPER        000001000021  0CDC         0 9    13    21773      0920602
3472306021727FREMUR           1 16367  0MONTHLY MUR 01001   0   178725      2920602
3472306021727FREMUR           1 16367  0MONTHLY MUR 011    80 10     0      0920602
3472506031135DCSFRS       16316177547249LJB         0050000100000000000000002920603
3472906041253DCSFRS       16316177547249LJB         0070000030001000000000001920604
3472806041250DCSFRS       16316177547249LJB         0070000020002000000000002920604
3472806041250DCSFRS       16316177547249LJB         0040000020000000000000000920604
3473006041437OPER        000001000021  0            0 9     4    15148      0920604
3473106041451OPER             1    21  0            0040002170000000000000000920604
3473106041451OPER             1    21  0            0050002170000000000000000920604
0173206050805PNZOTMP     000000000000249Y           1040001740000000000000000920605
3473506050957PNZOTMP      44425217245249Y           1040000160000000000000000920605
3473206050805PNZOTMP      44425217245249Y           1040000020000000000000000920605
0173306050949PNZOTMP     000000000000249Y           1040000040000000000000000920605
3473306050949PNZOTMP      44425217245249Y           1040000260000000000000000920605
3473406050949PNZOTMP      44425217245249Y           1040000040000000000000000920605
3473606072306OPER        000001000021  0CDC         0 9     7     9012      0920607
3473706080000FREMUR           1 16367  0WK0601      01001   0    95880      2920608
3473706080000FREMUR           1 16367  0WK0601      011    24 10     0      0920608
3472606041246DCSFRS       16316177547249LJB         0040000010000000000000000920610
3472706041247DCSFRS       16316177547249LJB         0040000030000000000000000920610
3474006131512OPER        000001000021  0CDC         0 9     1      886      0920613
3474106131515OPER        000001000021  0CDC         0 9    12    19967      0920613
3474206131525OPER        000001000021  0CDC         0 9     1       10      0920613
3474306131527OPER        000001000021  0CDC         0 9     1       10      0920613
3474406131534OPER        000001000021  0CDC         0 9     8    13389      0920613
3473906100207DCSMINN      16316365203249PURGE1      0050000040000000000000000920613
3473906100207DCSMINN      16316365203249PURGE1      0040000010000000000000000920613
3474506142233OPER        000001000021  0CDC         0 9     7     9027      0920614
3474606142241FREMUR           1 16367  0WK0608      01001   0    95700      2920614
3474606142241FREMUR           1 16367  0WK0608      011    24 10     0      0920614
3474706142242FREMUR           1 16367  0WK0608      01001   0    31900      2920614
3474706142242FREMUR           1 16367  0WK0608      011     8 10 00000      0920614
3474906160140DCSMINN     016316365203249            0 9    19    29851      0920616
3475006160143DCSMINN     016316365203249            0 9    13    21478      0920616
3475106160146DCSMINN     016316365203249            0 9    13    22176      0920616
0174806160100DCSMINN     000000000000249PURGE2      0040000030000000000000000920616
0174806160100DCSMINN     000000000000249PURGE2      0050000050000000000000000920616
3474806160100DCSMINN      16316365203249PURGE2      0050000100000000000000000920617
3475206180650DCSOPEN      16316 23665249ALICIABX    0040000010000000000000000920618
3475306180811PNZOTMP      44425217245249Y           1040000010000000000000000920618
3475406180827PNZOTMP      44425217245249Y           1040000240000000000000000920618
3475506180827PNZOTMP      44425217245249Y           1040000040000000000000000920618
3475606180948PNZOTMP      44425217245249Y           1040000010000000000000000920618
3475706181803PNZOTMP      44425217245249Y           1040000010000000000000000920618
3475806190607PNZOTMP      44425217245249Y           1040000010000000000000000920619
3476006191514KLPGTMP      42460313476249Y           1040000020000000000000000920619
3476106191658KLPGTMP      42460313476249Y           1040000020000000000000000920619
3476206191710KLPGTMP      42460313476249Y           1040000020000000000000000920619
0175906190727KLPGTMP     000000000000249KLPG SEARCH 1040000380000000000000000920620
3476306201434OPER        000001000021  0            0 9     2     3195      0920620
3476406201436OPER        000001000021  0            0 9     3     4846      0920620
3476506201437OPER        000001000021  0            0 9     4     5277      0920620
3476606210800DANIELSR         1142734  0FILE SAVE   0050000590000000000000000920621
3481406211142OPER        000001000021  0            0 9    19    65244      0920621
3481506211154OPER        000001000021  0            0 9    19    65244      0920621
3476706211210KLPGTMP      42460313476249Y           1040000020000000000000000920621
3476806211212KLPGTMP      42460313476249Y           1040000020000000000000000920621
3476906211213KLPGTMP      42460313476249Y           1040000020000000000000000920621
3477006211215KLPGTMP      42460313476249Y           1040000020000000000000000920621
3477106211218KLPGTMP      42460313476249Y           1040000020000000000000000920621
3477206211220KLPGTMP      42460313476249Y           1040000020000000000000000920621
3477306211222KLPGTMP      42460313476249Y           1040000020000000000000000920621
3477406211223KLPGTMP      42460313476249Y           1040000020000000000000000920621
3477506211225KLPGTMP      42460313476249Y           1040000020000000000000000920621
3477606211227KLPGTMP      42460313476249Y           1040000020000000000000000920621
3477706211228KLPGTMP      42460313476249Y           1040000020000000000000000920621
3477806211229KLPGTMP      42460313476249Y           1040000020000000000000000920621
3477906211231KLPGTMP      42460313476249Y           1040000020000000000000000920621
3478006211233KLPGTMP      42460313476249Y           1040000020000000000000000920621
3478106211235KLPGTMP      42460313476249Y           1040000020000000000000000920621
3478206211237KLPGTMP      42460313476249Y           1040000020000000000000000920621
3478306211238KLPGTMP      42460313476249Y           1040000020000000000000000920621
3478406211240KLPGTMP      42460313476249Y           1040000020000000000000000920621
3478506211241KLPGTMP      42460313476249Y           1040000020000000000000000920621
3478606211243KLPGTMP      42460313476249Y           1040000020000000000000000920621
3478706211247KLPGTMP      42460313476249Y           1040000020000000000000000920621
3478806211251KLPGTMP      42460313476249Y           1040000020000000000000000920621
3478906211254KLPGTMP      42460313476249LOAD KLPGTMP1040000020000000000000000920621
3479006211256KLPGTMP      42460313476249LOAD KLPGTMP1040000020000000000000000920621
3479106211257KLPGTMP      42460313476249LOAD KLPGTMP1040000020000000000000000920621
3479206211258KLPGTMP      42460313476249LOAD KLPGTMP1040000020000000000000000920621
3479306211300KLPGTMP      42460313476249LOAD KLPGTMP1040000020000000000000000920621
3479406211301KLPGTMP      42460313476249LOAD KLPGTMP1040000020000000000000000920621
3479506211303KLPGTMP      42460313476249LOAD KLPGTMP1040000020000000000000000920621
3479606211304KLPGTMP      42460313476249LOAD KLPGTMP1040000020000000000000000920621
3479706211305KLPGTMP      42460313476249LOAD KLPGTMP1040000020000000000000000920621
3479806211307KLPGTMP      42460313476249LOAD KLPGTMP1040000020000000000000000920621
3479906211309KLPGTMP      42460313476249LOAD KLPGTMP1040000020000000000000000920621
3480006211310KLPGTMP      42460313476249Y           1040000010000000000000000920621
3480106211312KLPGTMP      42460313476249LOAD KLPGTMP1040000020000000000000000920621
3480206211313KLPGTMP      42460313476249LOAD KLPGTMP1040000020000000000000000920621
3480306211315KLPGTMP      42460313476249LOAD KLPGTMP1040000020000000000000000920621
3480406211316KLPGTMP      42460313476249LOAD KLPGTMP1040000020000000000000000920621
3480506211317KLPGTMP      42460313476249LOAD KLPGTMP1040000020000000000000000920621
3480606211319KLPGTMP      42460313476249LOAD KLPGTMP1040000020000000000000000920621
3480706211320KLPGTMP      42460313476249LOAD KLPGTMP1040000020000000000000000920621
3480806211321KLPGTMP      42460313476249LOAD KLPGTMP1040000020000000000000000920621
3480906211324KLPGTMP      42460313476249LOAD KLPGTMP1040000020000000000000000920621
3481006211326KLPGTMP      42460313476249LOAD KLPGTMP1040000020000000000000000920621
3481106211327KLPGTMP      42460313476249LOAD KLPGTMP1040000020000000000000000920621
3481206211328KLPGTMP      42460313476249LOAD KLPGTMP1040000020000000000000000920621
3481306211330KLPGTMP      42460313476249LOAD KLPGTMP1040000020000000000000000920621
3481806220000JMS              34311162382105        01001   0     1660      1920622
3481806220000JMS              34311162382105        011     1 10     0      0920622
3481906221057OPER        000001000021  0            0 9    12    20375      0920622
3482006221103OPER        000001000021  0            0 9    21    37093      0920622
3482106221108OPER        000001000021  0            0 9     8    13805      0920622
3481706220111DCSMINN      16316365203249PURGE3      0050000060000000000000000920622
3482206221345KLPGTMP      42460313476249LOAD KLPGTMP1040000020000000000000000920622
3482306221348KLPGTMP      42460313476249LOAD KLPGTMP1040000020000000000000000920622
3475906190727KLPGTMP      42460313476249KLPG SEARCH 1040001530000000000000000920621
3482506222051OPER        000001000021  0CDC         0 9     7     9241      0920622
3482606222113FREMUR           1 16367  0WK0615      01001   0    96000      2920622
3482606222113FREMUR           1 16367  0WK0615      011    24 10     0      0920622
3482806241123OPER        000001000021  0CVDC        0 9     4    15154      0920624
3482906241406OPER        000001000021  0            0 9     4    13137      0920624
3483006251107KLPGTMP      42460313476249LOAD KLPGTMP1040000020000000000000000920625
3483106251109KLPGTMP      42460313476249LOAD KLPGTMP1040000020000000000000000920625
3483206251110KLPGTMP      42460313476249LOAD KLPGTMP1040000020000000000000000920625
3483306251112KLPGTMP      42460313476249LOAD KLPGTMP1040000020000000000000000920625
3483406251523OPER        000001000021  0            0 9     9     8531      0920625
3483506251536OPER        000001000021  0            0 9     1     1012      0920625
3483606251622OPER        000001000021  0            0 9     2     1659      0920625
3483706261219KLPGTMP      42460313476249LOAD KLPGTMP1040000020000000000000000920626
3484006291000FRANK            4111413  2ORDERS      01001   0   574075      1920629
3484006291000FRANK            4111413  2ORDERS      011   361 10     0      0920629
3484106291417FRANK       000004111413  2            0 9    71    85546      0920629
3484206291606OPER        000001000021  0CDC         0 9    18    27250      0920629
3484306291611OPER        000001000021  0CDC         0 9    13    22302      0920629
3484406291618OPER        000001000021  0CDC         0 9    14    22993      0920629
3484506291724OPER        000001000021  0            0 9     2     2377      0920629
3484606291737OPER        000001000021  0            0 9     5    16227      0920629
3484706292229OPER        000001000021  0CDC         0 9     7     9529      0920629
3484806292325OPER        000001000021  0CDC         0 9     7     9518      0920629
3483906290044KLPGTMP      42460313476249KLPG TAPE BA1040000010000000000000000920630
3483906290044KLPGTMP      42460313476249KLPG TAPE BA1050001130000000000000001920630
3483806290006DCSMINN      16316365203249PURGE4      0040000040000000000000000920630
3483806290006DCSMINN      16316365203249PURGE4      0050000100000000000000000920630
3483806290006DCSMINN      16316365203249PURGE4      0050000100000000000000001920630
3484906301540DCSFRS       16316177547249LJB         0070000030003000000000003920630
3478805271806FRANK            4111413  2EXCEPT REPOR01001   0    14335      1930601
3478805271806FRANK            4111413  2EXCEPT REPOR011    17 10     0      0930601
3479705311033BILLING10        1 44355  0MAGCON      0070000040002000000000000930601
3480506011548BILLING10        1 44355  0ACTG        0040000040000000000000000930601
3480506011548BILLING10        1 44355  0ACTG        0050000040000000000000000930601
3480606012125FRANK            4111413  2EXCEPT REPOR01001   0    14365      1930602
3480606012125FRANK            4111413  2EXCEPT REPOR011    17 10     0      0930602
3480105312223SILVAM           1230617  0WK0524      0 1     6 10000000       930531
3480305312246SILVAM           1230617  0MTHMAY      0 1     8 10000000       930531
3480906021924DCSMINN      16316365203249AIRCO2      0 1     4 10000000       930603
3480806021922DCSMINN      16316365203249AIRCO       0 1    14 10000000       930603
3481006021953DCSMINN      16316365203249AIRCO       0 1   567 10000000       930603
3481106021954DCSMINN      16316365203249AIRCO2      0 1    27 10000000       930603
3480406010726DCSMINN      16316365203249AIRCO       0 1    14 10000000       930603
3479805311035BILLING10        1 44355  0MAGCON      0070000070003000000000000930604
3481506042352BILLING10        1 44355  0ACTG        0050000060000000000000000930605
3481506042352BILLING10        1 44355  0ACTG        0040000060000000000000000930605
3481306041420FRANK            4111413  2MAGCON      0070000060003000000000000930606
3480706021406FRANK            4111413  2MAGCON      0070000060003000000000000930606
3481406041421FRANK            4111413  2MAGCON      0070000070003000000000000930606
3481806062201FREMUR           1 16367  0            01001   0    24000      2930606
3481806062201FREMUR           1 16367  0            011     6 10     0      0930606
3481606060806BILLING10        1 44355  0MAGCON      0070000040002000000000000930606
3482006070035FREMUR           1 16367  0            01001   0   199200      2930607
3482006070035FREMUR           1 16367  0            011    50 10     0      0930607
3482406070915OPER             1    21  0            01001   0   416500      4930607
3482406070915OPER             1    21  0            011   119 10     0      0930607
3482306070842DCSFRS       16316177547249LJB         0070000060001000000000001930607
3482206070837DCSFRS       16316177547249LJB         0070000040001000000000001930607
3481706061506BILLING10        1 44355  0MAGCON      0070000040002000000000000930607
3481906062341BILLING10        1 44355  0ACTG        0040000070000000000000000930607
3481906062341BILLING10        1 44355  0ACTG        0050000070000000000000000930607
3482506081237BILLING10        1 44355  0ACTG        0040000070000000000000000930608
3482506081237BILLING10        1 44355  0ACTG        0050000070000000000000000930608
3482806082059BILLING10        1 44355  0ACTG        0040000040000000000000000930609
3482806082059BILLING10        1 44355  0ACTG        0050000040000000000000000930609
3482706081843FRANK            4111413  2ORDERS      01001   0  1123905      1930609
3482706081843FRANK            4111413  2ORDERS      011   736 10     0      0930609
3482906082110SILVAM           1230617  0ORDERS      01001   0   478055      1930609
3482906082110SILVAM           1230617  0ORDERS      011   312 10     0      0930609
3483006082251OPER             1    21  0ORDERS      01001   0   480925      1930609
3483006082251OPER             1    21  0ORDERS      011   320 10     0      0930609
3483206091302FRANK            4111413  2ORDERS      01001   0   337020      1930609
3483206091302FRANK            4111413  2ORDERS      011   222 10     0      0930609
3482606081526FRANK            4111413  2MAGCON      0070000070003000000000000930609
3482606081526FRANK            4111413  2MAGCON      0070000070003000000000000930609
3483306100346BILLING10        1 44355  0ACTG        0040000070000000000000000930610
3483306100346BILLING10        1 44355  0ACTG        0050000070000000000000000930610
3483106091159FRANK            4111413  2MAGCON      0070000070003000000000000930610
3483606110854BILLING10        1 44355  0ACTG        0040000070000000000000000930611
3483606110854BILLING10        1 44355  0ACTG        0050000070000000000000000930611
3483406101421FRANK            4111413  2MAGCON      0070000070003000000000000930611
3483806112333BILLING10        1 44355  0ACTG        0040000070000000000000000930612
3483806112333BILLING10        1 44355  0ACTG        0050000070000000000000000930612
3483706111457BILLING10        1 44355  0MAGCON      0070000060003000000000000930612
3483906121415BILLING10        1 44355  0MAGCON      0070000060003000000000000930613
3484006131103BILLING10        1 44355  0ACTG        0050000060000000000000000930613
3484006131103BILLING10        1 44355  0ACTG        0040000060000000000000000930613
3484106131111BILLING10        1 44355  0MAGCON      0070000040002000000000000930613
3484306131750FREMUR           1 16367  0            01001   0    19820      1930613
3484306131EMUR           1 16367  0            011     5 10     0      0930613
3484606140002FREMUR           1 16367  0            01001   0   119550      2930614
3484606140002FREMUR           1 16367  0            011    30 10     0      0930614
3484506140000JMS              34311162382105        01001   0     1630      1930614
3484506140000JMS              34311162382105        011     1 10     0      0930614
3484406132346BILLING10        1 44355  0ACTG        0040000060000000000000000930614
3484406132346BILLING10        1 44355  0ACTG        0050000060000000000000000930614
3484806140628DCSMINN      16316365203249PURGE1      0050000080000000000000001930614
0184206131528BILLING10   000000000000  0MAGCON      0070000040002001000000000930614
3484206131528BILLING10        1 44355  0MAGCON      0070000040002000000000000930614
3484906141336BILLING10        1 44355  0ACTG        0040000040000000000000000930614
3484906141336BILLING10        1 44355  0ACTG        0050000040000000000000000930614
3483506102103FRANK            4111413  2EXCEPT REPOR01001   0     4365      1930616
3483506102103FRANK            4111413  2EXCEPT REPOR011     8 10     0      0930616
3485006141501FRANK            4111413  2MAGCON      0070000060003000000000000930616
3485206170159BILLING10        1 44355  0ACTG        0050000060000000000000000930617
3485206170159BILLING10        1 44355  0ACTG        0040000060000000000000000930617
3485306171616JMS              3431116238            0050018610000000000000000930617
3485406181028DCSOPEN      16316 23665249            0040000010000000000000000930618
3485106161331FRANK            4111413  2MAGCON      0070000060003000000000000930618
3485606191145BILLING10        1 44355  0ACTG        0040000060000000000000000930619
3485606191145BILLING10        1 44355  0ACTG        0050000060000000000000000930619
3485506190044BILLING10        1 44355  0MAGCON      0070000060003000000000000930620
3485706200002BILLING10        1 44355  0MAGCON      0070000060003000000000000930620
3485906210015FREMUR           1 16367  0            0 1    30 10000000       930621
3486206210402DCSMINN      16316365203249PURGE2      0050000100000000000000000930621
3486106210144BILLING10        1 44355  0ACTG        0040000060000000000000000930621
3486106210144BILLING10        1 44355  0ACTG        0050000060000000000000000930621
3485806202310BILLING10        1 44355  0MAGCON      0070000040003000000000000930621
3486406211158OPER        000001000021  0            0 9     1     1486      0930621
3486306210800DANIELSR         1142734  0FILE SAVE   0050000550000000000000000930621
3486606211524BILLING10        1 44355  0MAGCON      0070000040002000000000000930621
3486506211517BILLING10        1 44355  0ACTG        0040000040000000000000000930621
3486506211517BILLING10        1 44355  0ACTG        0050000040000000000000000930621
3486006210017FREMUR           1 16367  0            0 1     6 10000000       930621
3486906231611FRANK            4111413  2ORDERS      01001   0   138135      1930623
3486906231611FRANK            4111413  2ORDERS      011    85 10     0      0930623
3486706212228BILLING10        1 44355  0MAGCON      0070000060003000000000000930623
3487106240839BILLING10        1 44355  0ACTG        0040000060000000000000000930624
3487106240839BILLING10        1 44355  0ACTG        0050000060000000000000000930624
3487006240046BILLING10        1 44355  0MAGCON      0070000070003000000000000930625
3487306250816BILLING10        1 44355  0ACTG        0040000070000000000000000930625
3487306250816BILLING10        1 44355  0ACTG        0050000070000000000000000930625
3487206241451FRANK            4111413  2MAGCON      0070000060003000000000000930625
3487506252350BILLING10        1 44355  0ACTG        0040000060000000000000000930626
3487506252350BILLING10        1 44355  0ACTG        0050000060000000000000000930626
3487406251511FRANK            4111413  2MAGCON      0070000060003000000000000930626
3487606262312BILLING10        1 44355  0MAGCON      0070000060003000000000000930627
3487706272339BILLING10        1 44355  0ACTG        0040000060000000000000000930628
3487706272339BILLING10        1 44355  0ACTG        0050000060000000000000000930628
3487806272344BILLING10        1 44355  0MAGCON      0070000040002000000000000930628
3487906272348FREMUR           1 16367  0            01001   0    95920      2930628
3487906272348FREMUR           1 16367  0            011    24 10     0      0930628
3488306281854FREMUR           1 16367  0            01001   0    95880      2930628
3488306281854FREMUR           1 16367  0            011    24 10     0      0930628
3488506290534NETDETAIL    21477 54130201            0070000010001000000000000930629
3488606290818BILLING10        1 44355  0ACTG        0040000060000000000000000930629
3488606290818BILLING10        1 44355  0ACTG        0050000060000000000000000930629
3488806291503BILLING10        1 44355  0ACTG        0040000040000000000000000930629
3488806291503BILLING10        1 44355  0ACTG        0050000040000000000000000930629
3488906300357NETDETAIL    21477 54130201            0070000010001000000000000930630
3421806010818OPER             1    21  0            0 1    98 10000000      0940601
3421906010832OPER             1    21  0MAGCON      0070000070003000000000000940601
3422006020209OPER             1    21  0ACTG        0040000070000000000000000940602
3422006020209OPER             1    21  0ACTG        0050000070000000000000000940602
3422306022249FREMUR           1 16367  0            0 1    16 10000000      0940602
3422606022326FREMUR           1 16367  0            0 1    20 10000000      0940602
3422406022250FREMUR           1 16367  0            0 1     4 10000000      0940602
3422706022326FREMUR           1 16367  0            0 1     4 10000000      0940602
3422106021434BILLING10        1 44355  0MAGCON      0070000070003000000000000940603
3422906032354BILLING10        1 44355  0ACTG        0050000070000000000000000940604
3422906032354BILLING10        1 44355  0ACTG        0040000070000000000000000940604
3422806031524BILLING10        1 44355  0MAGCON      0070000070003000000000000940604
3423006041150BILLING10        1 44355  0MAGCON      0070000060003000000000000940605
3423106050251BILLING10        1 44355  0ACTG        0050000070000000000000000940605
3423106050251BILLING10        1 44355  0ACTG        0040000070000000000000000940605
3423206050604BILLING10        1 44355  0MAGCON      0070000040002000000000000940605
3423406060000JMS              34311162382105        0 1     1 10000000      0940606
3423306052357BILLING10        1 44355  0ACTG        0050000060000000000000000940606
3423306052357BILLING10        1 44355  0ACTG        0040000060000000000000000940606
3423506060524OPER             1    21  0MAGCON      0070000040002000000000000940606
3423706060926FREMUR           1 16367  0            0 1    12 10000000      0940606
3423606060812BILLING10        1 44355  0ACTG        0040000040000000000000000940606
3423606060812BILLING10        1 44355  0ACTG        0050000040000000000000000940606
3423806061002MVSMURS          1154414  0MVSMURS     0 1    12 10000000      0940606
3423906061641BILLING10        1 44355  0ACTG        0040000040000000000000000940606
3423906061641BILLING10        1 44355  0ACTG        0050000040000000000000000940606
3424006071940BILLING10        1 44355  0MAGCON      0070000070003000000000000940608
3424106080932BILLING10        1 44355  0MAGCON      0070000070003000000000000940608
3424206082042BILLING10        1 44355  0ACTG        0040000070000000000000000940608
3424206082042BILLING10        1 44355  0ACTG        0050000070000000000000000940608
3424406091423BILLING10        1 44355  0ACTG        0040000070000000000000000940609
3424406091423BILLING10        1 44355  0ACTG        0050000070000000000000000940609
3424306090622BILLING10        1 44355  0MAGCON      0070000070003000000000000940609
3424606100914BILLING10        1 44355  0ACTG        0040000070000000000000000940610
3424606100914BILLING10        1 44355  0ACTG        0050000070000000000000000940610
3424506100706BILLING10        1 44355  0MAGCON      0070000070003000000000000940611
3424806112355BILLING10        1 44355  0ACTG        0040000070000000000000000940612
3424806112355BILLING10        1 44355  0ACTG        0050000070000000000000000940612
3424706111514BILLING10        1 44355  0MAGCON      0070000070003000000000000940612
3424906120919BILLING10        1 44355  0MAGCON      0070000040002000000000000940612
3425006122346BILLING10        1 44355  0ACTG        0040000070000000000000000940613
3425006122346BILLING10        1 44355  0ACTG        0050000070000000000000000940613
3425106130018OPER             1    21  0MAGCON      0070000040002000000000000940613
3425206130805BILLING10        1 44355  0ACTG        0040000040000000000000000940613
3425206130805BILLING10        1 44355  0ACTG        0050000040000000000000000940613
3425306131038FREMUR           1 16367  0FREMUR      0 1    12 10000000      0940613
3425406131101MVSMURS          1154414  0MVSMURS     0 1    12 10000000      0940613
3425506132342BILLING10        1 44355  0ACTG        0050000040000000000000000940614
3425506132342BILLING10        1 44355  0ACTG        0040000040000000000000000940614
3425706140631BILLING10        1 44355  0MAGCON      0070000060003000000000000940614
3425806150757BILLING10        1 44355  0ACTG        0040000070000000000000000940615
3425806150757BILLING10        1 44355  0ACTG        0050000070000000000000000940615
3425906150842BILLING10        1 44355  0MAGCON      0070000070003000000000000940615
3426106160920BILLING10        1 44355  0ACTG        0040000070000000000000000940616
3426106160920BILLING10        1 44355  0ACTG        0050000070000000000000000940616
3426006160909OPER             1    21  0MAGCON      0070000070003000000000000940616
3426206170630BILLING10        1 44355  0MAGCON      0070000070003000000000000940617
3426306171555BILLING10        1 44355  0ACTG        0050000070000000000000000940618
3426306171555BILLING10        1 44355  0ACTG        0040000070000000000000000940618
3426406180735BILLING10        1 44355  0ACTG        0050000070000000000000000940618
3426406180735BILLING10        1 44355  0ACTG        0040000070000000000000000940618
3426506180805BILLING10        1 44355  0MAGCON      0070000070003000000000000940619
3426606191137BILLING10        1 44355  0MAGCON      0070000050002000000000000940619
3426706192358BILLING10        1 44355  0ACTG        0040000070000000000000000940620
3426706192358BILLING10        1 44355  0ACTG        0050000070000000000000000940620
3426806200406OPER             1    21  0MAGCON      0070000040002000000000000940620
3426906200846BILLING10        1 44355  0ACTG        0040000050000000000000000940620
3426906200846BILLING10        1 44355  0ACTG        0050000090000000000000000940620
3426906200846BILLING10        1 44355  0ACTG        0050000050000000000000000940620
3427006201053FREMUR           1 16367  0            0 1    12 10000000      0940620
3427106201113MVSMURS          1154414  0            0 1    12 10000000      0940620
3427206210053BILLING10        1 44355  0ACTG        0040000040000000000000000940621
3427206210053BILLING10        1 44355  0ACTG        0050000040000000000000000940621
3427406210800DANIELSR         1142734  0FILE SAVE   0050004520000000000000000940621
3427306210741BILLING10        1 44355  0MAGCON      0070000070003000000000000940621
3427506220617OPER             1    21  0MAGCON      0070000060003000000000000940622
3427606230147BILLING10        1 44355  0ACTG        0050000070000000000000000940623
3427606230147BILLING10        1 44355  0ACTG        0040000070000000000000000940623
3427706230251BILLING10        1 44355  0MAGCON      0070000070003000000000000940623
3427706230251BILLING10        1 44355  0MAGCON      0070000070003000000000000940623
3427806240230BILLING10        1 44355  0ACTG        0040000070000000000000000940624
3427806240230BILLING10        1 44355  0ACTG        0050000070000000000000000940624
3427906240733BILLING10        1 44355  0MAGCON      0070000070003000000000000940624
3428006242332BILLING10        1 44355  0ACTG        0050000070000000000000000940625
3428006242332BILLING10        1 44355  0ACTG        0040000070000000000000000940625
3428106250705BILLING10        1 44355  0MAGCON      0070000070003000000000000940625
0128206252237BILLING10   000000000000  0ACTG        0040000070000000000000000940626
0128206252237BILLING10   000000000000  0ACTG        0050000090000000000000000940626
3428206252237BILLING10        1 44355  0ACTG        0040000070000000000000000940626
3428206252237BILLING10        1 44355  0ACTG        0050000070000000000000000940626
3428306260543BILLING10        1 44355  0MAGCON      0070000050002000000000000940626
3428406261358BILLING10        1 44355  0ACTG        0050000070000000000000000940626
3428406261358BILLING10        1 44355  0ACTG        0040000070000000000000000940626
3428506270000JMS              34311162382105        0 1     1 10000000      0940627
3428606270002BILLING10        1 44355  0ACTG        0040000050000000000000000940627
3428606270002BILLING10        1 44355  0ACTG        0050000050000000000000000940627
3428706270129BILLING10        1 44355  0MAGCON      0070000050002000000000000940627
3428806271001FREMUR           1 16367  0FREMUR      0 1    12 10000000      0940627
3428906271044MVSMURS          1154414  0MVSMURS     0 1    12 10000000      0940627
3429006271056MVSMURS          1154414  0FREMUR      0 1    12 10000000      0940627
3429106271129MVSMURS          1154414  0MVSMURS     0 1     6 10000000      0940627
3429206271555BILLING10        1 44355  0ACTG        0040000050000000000000000940628
3429206271555BILLING10        1 44355  0ACTG        0050000050000000000000000940628
3429406280124BILLING10        1 44355  0MAGCON      0070000060003000000000000940628
3429506290411BILLING10        1 44355  0ACTG        0050000070000000000000000940629
3429506290411BILLING10        1 44355  0ACTG        0040000070000000000000000940629
3429606290634BILLING10        1 44355  0MAGCON      0070000070003000000000000940629
3429706300319BILLING10        1 44355  0ACTG        0050000070000000000000000940630
3429706300319BILLING10        1 44355  0ACTG        0040000070000000000000000940630
3429806300323BILLING10        1 44355  0MAGCON      0070000070003000000000000940630
JtZ(Ì