3427408300748ALICIABX     16316453375249LOAD CONXTMP0040000250000000000000000910830
3427508300751ALICIABX     16316453375249LOAD CONXTMP0040000250000000000000000910830
3427608300754ALICIABX     16316453375249LOAD CONXTMP0040000250000000000000000910830
3427708300756ALICIABX     16316453375249LOAD CONXTMP0040000250000000000000000910830
3427808300756ALICIABX     16316453375249LOAD CONXTMP0040000220000000000000000910830
3427308300708ALICIABX     16316453375249LOAD ALICIAB0040000100000000000000000910830
3427008261350DCSFRS       16316177547249LJB         0040000010000000000000000910830
3428008301957CNFE         11020136151  3            0040000020000000000000000910830
3489908030000JMS              34311162382105        01001   0     1660      1920803
3489908030000JMS              34311162382105        011     1 10     0      0920803
3489307271530DCSFRS       16316177547249LJB         0040000010000000000000000920803
3489707281302DCSFRS       16316177547249LJB         0040000020000000000000000920803
3490108031520DCSOPEN      16316 23665249CONXTMP     0040000010000000000000000920803
3490008031048BILLING10        1 44355  0JUL92 BACKUP0050001490000000000000000920803
3490308031346OPER             1    21  0            01001   0   420700      4920803
3490308031346OPER             1    21  0            011   119 10     0      0920803
3490208031524DCSOPEN      16316 23665249CONXTMP     0040000030000000000000000920803
3490408031450OPER        000001000021  0            0 9    13    22007      0920803
3490508031717DCSOPEN      16316 23665249LOAD CONXTMP0040000050000000000000000920803
3491008032212FREMUR           1 16367  0MONTHLY MUR 01001   0   339525      4920803
3491008032212FREMUR           1 16367  0MONTHLY MUR 011    80 10     0      0920803
3490608031727DCSOPEN      16316 23665249LOAD CONXTMP0040000260000000000000000920804
3490708031734DCSOPEN      16316 23665249LOAD CONXTMP0040000060000000000000000920804
0191208040834DCSMINN     000000000000249PURGE1      0050000040000000000000000920804
3491208040834DCSMINN      16316365203249PURGE1      0040000010000000000000000920804
3491208040834DCSMINN      16316365203249PURGE1      0050000080000000000000000920804
3491108032216FREMUR           1 16367  0MONWKY.MURS 0 1    16 10000000      0920803
3490808031932DCSMINN      16316365203249AIRCO       01001   0   514168      2920804
3490808031932DCSMINN      16316365203249AIRCO       011   564 10 00000      0920804
3489807301244DCSFRS       16316177547249LJB         0040000010000000000000000920805
3491708102242SILVAM           1230617  0WK0803      0 1    32 10000000      0920810
3491408101312DCSFRS       16316177547249LJB         0070000010001000000000000920811
0191508101315DCSFRS      000000000000249LJB         0070000010001000000000000920811
3491508101315DCSFRS       16316177547249LJB         0070000010001000000000000920811
3491608101317DCSFRS       16316177547249LJB         0070000010001000000000000920811
3492008120055DCSMINN      16316365203249PURGE2      0050000060000000000000000920812
3491808102244SILVAM           1230617  0WK0803      0 1     8 10000000      0920810
3491308101243DCSFRS       16316177547249LJB         0040000040000000000000000920813
0191908111058DCSFRS      000000000000249LJB         0070000010001000000000000920815
3491908111058DCSFRS       16316177547249LJB         0040000010000000000000000920815
3492108172235FREMUR           1 16367  0WK0810      0 1    32 10000000      0920817
3492208172239FREMUR           1 16367  0WK0810      0 1     8 10000000      0920817
3492408210800DANIELSR         1142734  0FILE SAVE   0050000600000000000000000920821
3492508240000JMS              34311162382105        01001   0     1660      1920824
3492508240000JMS              34311162382105        011     1 10     0      0920824
3492608242118SILVAM           1230617  0WK0817      01001   0   128160      2920824
3492608242118SILVAM           1230617  0WK0817      011    32 10     0      0920824
3492808250824DCSMINN      16316365203249PURGE4      0050000100000000000000000920825
3492908261237OPER        000001000021  0            0 9    19    28976      0920826
3493008261252OPER        000001000021  0            0 9    16    26573      0920826
3493108261301OPER        000001000021  0            0 9    16    27180      0920826
3492308190156DCSMINN      16316365203249PURGE4      0050000060000000000000001920826
0193308271421DCSFRS      000000000000249LJB         0070000040004000000000004920827
3493308271421DCSFRS       16316177547249LJB         0040000040000000000000000920827
3493308271421DCSFRS       16316177547249LJB         0070000040004000000000004920827
3493408310644DCSMINN      16316365203249PURGE1      0050000040000000000000000920831
3493408310644DCSMINN      16316365203249PURGE1      0040000040000000000000000920831
3493608312235FREMUR           1 16367  0WK0824.PDP  01001   0   127640      2920831
3493608312235FREMUR           1 16367  0WK0824.PDP  011    32 10     0      0920831
3402507311102BILLING10        1 44355  0ACTG        0040000060000000000000000930801
3402507311102BILLING10        1 44355  0ACTG        0050000060000000000000000930801
3402608010635DCSMINN      16316365203249AIRCO       0 1   554 10000000      0930801
3403008011202KLPGTMP      42460313476249LOAD KLPGTMP1040000140000000000000000930801
3403508011700KLPGTMP      42460313476249KOCH SEARCH 1040000020000000000000000930801
3403908020021FREMUR           1 16367  0            01001   0    80160      2930802
3403908020021FREMUR           1 16367  0            011    20 10     0      0930802
0103708012108KLPGTMP     000000000000249LOAD KLPGTMP1050000030000000000000000930802
3403708012108KLPGTMP      42460313476249LOAD KLPGTMP1040000030000000000000000930802
3403608012101KLPGTMP      42460313476249LOAD KLPGTMP1040000030000000000000000930802
3402908010550BILLING10        1 44355  0MAGCON      0070000060003000000000000930802
3404108020825NETDETAIL    21477 54130201            0070000010001000000000000930802
3404208021310BILLING10        1 44355  0ACTG        0040000070000000000000000930802
3404208021310BILLING10        1 44355  0ACTG        0050000070000000000000000930802
3404908031313SPOOLRM     011016165320  2JOUST       0 9    92   107103      0930803
3405008031320SPOOLRM     011016165320  2PPP         0 9    92   107103      0930803
3405208031334SPOOLRM     011016165320  2MUKI        0 9    92   107103      0930803
3405408031344SPOOLRM     011016165320  2LOPP        0 9    92   107103      0930803
3405508031351SPOOLRM     011016165320  2WEST        0 9    92   107103      0930803
3405608031411SPOOLRM     011016165320  2JIGE        0 9    92   107103      0930803
3402808010452NETDETAIL    21477 54130201            0070000010001000000000000930803
3404708031256NETDETAIL    21477 54130201            0070000010001000000000000930803
3404608031209FREMUR           1 16367  0FREMUR      01001   0    32250      1930803
3404608031209FREMUR           1 16367  0FREMUR      011    12 10     0      0930803
3404508031123MVSMURS          1154414  0MVSMURS     01001   0    27240      1930803
3404508031123MVSMURS          1154414  0MVSMURS     011    12 10     0      0930803
3405708031532OPER             1    21  0            01001   0   416500      4930803
3405708031532OPER             1    21  0            011   119 10     0      0930803
3405908031723SILVAM           1230617  0MTHJUL      01001   0   134150      2930803
3405908031723SILVAM           1230617  0MTHJUL      011    30 10     0      0930803
3406208040744NETDETAIL    21477 54130201            0070000010001000000000000930804
3404308021535FRANK            4111413  2MAGCON      0070000060003000000000000930804
3404408031117JCLMIN       11447271412  0JCLMIN      0040000160000000000000000930804
3406608051025OPER        000001000021  0            0 9    24    41127      0930805
3406708051028OPER        000001000021  0            0 9    22    34504      0930805
3406908051037OPER        000001000021  0            0 9     1     1225      0930805
3407008051038OPER        000001000021  0            0 9     3     3460      0930805
3406108040511DCSMINN      16316365203249PURGE4      0040000040000000000000000930805
3406108040511DCSMINN      16316365203249PURGE4      0050000100000000000000001930805
3406808051033NETDETAIL    21477 54130201            0070000010001000000000000930805
3406508050950ACCG1        21477215544201OTC SETTLEME0040000180000000000000000930805
3407108051216BILLING10        1 44355  0ACTG        0040000060000000000000000930805
3407108051216BILLING10        1 44355  0ACTG        0050000060000000000000000930805
0106408051144DCSFRS      000000000000249LJB         0070000060001000000000001930805
3406408051144DCSFRS       16316177547249LJB         0070000060002000000000002930805
3407208060751NETDETAIL    21477 54130201            0070000010001000000000000930806
3406308041537FRANK            4111413  2MAGCON      0070000060004000000000000930806
3407308062359BILLING10        1 44355  0ACTG        0050000060000000000000000930807
3407308062359BILLING10        1 44355  0ACTG        0040000060000000000000000930807
3407408070550NETDETAIL    21477 54130201            0070000010001000000000000930807
3407508071141BILLING10        1 44355  0MAGCON      0070000060003000000000000930808
3407608080357NETDETAIL    21477 54130201            0070000010001000000000000930808
3407708080951BILLING10        1 44355  0ACTG        0040000060000000000000000930808
3407708080951BILLING10        1 44355  0ACTG        0050000090000000000000000930808
3407808081300PNZOTMP      44425217245249LOAD PNZOTMP1050000250000000000000000930808
3407908081301PNZOTMP      44425217245249LOAD PNZOTMP1040000250000000000000000930808
3408008081302PNZOTMP      44425217245249LOAD PNZOTMP1040000070000000000000000930808
3408308081347BILLING10        1 44355  0MAGCON      0070000040002000000000000930808
3408408082203FREMUR           1 16367  0            0 1    25 10000000      0930808
0108108081305PNZOTMP     000000000000249LOAD PNZOTMP1040000340000000000000000930808
3408108081305PNZOTMP      44425217245249LOAD PNZOTMP1040000240000000000000000930808
3408208081306PNZOTMP      44425217245249LOAD PNZOTMP1040000140000000000000000930808
3408608090423BILLING10        1 44355  0ACTG        0050000040000000000000000930809
3408608090423BILLING10        1 44355  0ACTG        0040000040000000000000000930809
3408708090524NETDETAIL    21477 54130201            0070000010001000000000000930809
3408508082205FREMUR           1 16367  0            0 1     5 10000000      0930808
3408908100745NETDETAIL    21477 54130201            0070000010001000000000000930810
3409108110630NETDETAIL    21477 54130201            0070000010001000000000000930811
3408808091317FRANK            4111413  2MAGCON      0070000060003000000000000930811
3409308111653JCLMIN       11447271412  0JCLMIN      0040000050000000000000000930811
3409408120739NETDETAIL    21477 54130201            0070000010001000000000000930812
3409508120818BILLING10        1 44355  0ACTG        0040000060000000000000000930812
3409508120818BILLING10        1 44355  0ACTG        0050000060000000000000000930812
3409608121316DCSFRS       16316177547249LJB         0070000030001000000000000930812
3409708130539NETDETAIL    21477 54130201            0070000010001000000000000930813
3409808131116DCSFRS       16316177547249LJB         0070000020001000000000000930813
3409208111624FRANK            4111413  2MAGCON      0070000060003000000000000930813
3409908131404ACCG1        21477215544201SETTLEMENT  01001   0   493835      4930813
3409908131404ACCG1        21477215544201SETTLEMENT  011    83 10     0      0930813
3410108140402NETDETAIL    21477 54130201            0070000010001000000000000930814
3410208140648BILLING10        1 44355  0ACTG        0050000060000000000000000930814
3410208140648BILLING10        1 44355  0ACTG        0040000060000000000000000930814
3410008131556FRANK            4111413  2MAGCON      0070000060003000000000000930815
3410408150616NETDETAIL    21477 54130201            0070000010001000000000000930815
3410508151822FREMUR           1 16367  0MUR         0 1    25 10000000      0930815
3410908151851FREMUR           1 16367  0            0 1    25 10000000      0930815
3410708151840BILLING10        1 44355  0ACTG        0040000060000000000000000930815
3410708151840BILLING10        1 44355  0ACTG        0050000060000000000000000930815
3411008160000JMS              34311162382105        01001   0     1640      1930816
3411008160000JMS              34311162382105        011     1 10     0      0930816
3410308140801DCSOPEN      16316 23665249CANCEL RAILT0050048900000000000000000930816
3411208160738NETDETAIL    21477 54130201            0070000010001000000000000930816
3411108160540BILLING10        1 44355  0MAGCON      0070000040002000000000000930816
3411308161340BILLING10        1 44355  0ACTG        0040000040000000000000000930816
3411308161340BILLING10        1 44355  0ACTG        0050000040000000000000000930816
3411408170326NETDETAIL    21477 54130201            0070000010001000000000000930817
3411508171115SRA              1215254  0EDI FILES   0050036870000000000000000930817
3411708180149NETDETAIL    21477 54130201            0070000010001000000000000930818
3411808190347NETDETAIL    21477 54130201            0070000010001000000000000930819
3411908191745BILLING10        1 44355  0ACTG        0040000060000000000000000930819
3411908191745BILLING10        1 44355  0ACTG        0050000060000000000000000930819
3412008200131NETDETAIL    21477 54130201            0070000010001000000000000930820
3410808151846FREMUR           1 16367  0MUR         0 1     5 10000000      0930815
3411608171255FRANK            4111413  2MAGCON      0070000060003000000000000930819
3412108210231NETDETAIL    21477 54130201            0070000010001000000000000930821
3412308210800DANIELSR         1142734  0FILE SAVE   0050000550000000000000000930821
3412208210308BILLING10        1 44355  0MAGCON      0070000060004000000000000930821
3412408211524BILLING10        1 44355  0MAGCON      0070000060003000000000000930822
3412508220408NETDETAIL    21477 54130201            0070000010001000000000000930822
3412608220548BILLING10        1 44355  0ACTG        0050000060000000000000000930822
3412608220548BILLING10        1 44355  0ACTG        0040000060000000000000000930822
3412808221828FREMUR           1 16367  0MUR         0 1    20 10000000      0930822
3412708221351BILLING10        1 44355  0MAGCON      0070000040002000000000000930822
3413008222034BILLING10        1 44355  0ACTG        0050000060000000000000000930823
3413008222034BILLING10        1 44355  0ACTG        0040000060000000000000000930823
3413308230347BILLING10        1 44355  0ACTG        0050000040000000000000000930823
3413308230347BILLING10        1 44355  0ACTG        0040000040000000000000000930823
3413208230327BILLING10        1 44355  0MAGCON      0070000030001000000000000930823
3413108230308NETDETAIL    21477 54130201            0070000010001000000000000930823
3412908221830FREMUR           1 16367  0MUR         0 1     5 10000000      0930822
3413408231231BILLING10        1 44355  0ACTG        0040000030000000000000000930823
3413408231231BILLING10        1 44355  0ACTG        0050000030000000000000000930823
3413608240145NETDETAIL    21477 54130201            0070000010001000000000000930824
3413708241317FRANK            4111413  2ORDERS      01001   0   137595      1930824
3413708241317FRANK            4111413  2ORDERS      011    98 10     0      0930824
3413808250227NETDETAIL    21477 54130201            0070000010001000000000000930825
3413508231236BILLING10        1 44355  0MAGCON      0070000060003000000000000930825
3413908251545BILLING10        1 44355  0ACTG        0040000060000000000000000930825
3413908251545BILLING10        1 44355  0ACTG        0050000060000000000000000930825
3414108260148NETDETAIL    21477 54130201            0070000010001000000000000930826
3414008251555FRANK            4111413  2MAGCON      0070000060003000000000000930826
3414208270253NETDETAIL    21477 54130201            0070000010001000000000000930827
3414308271146BILLING10        1 44355  0ACTG        0050000060000000000000000930827
3414308271146BILLING10        1 44355  0ACTG        0040000060000000000000000930827
3414408271400ACCG1        21477215544201SETTLEMENT  01001   0    55750      1930827
3414408271400ACCG1        21477215544201SETTLEMENT  011    10 10     0      0930827
3414508280222NETDETAIL    21477 54130201            0070000010001000000000000930828
3414608281439BILLING10        1 44355  0MAGCON      0070000060003000000000000930829
3414808290302NETDETAIL    21477 54130201            0070000010001000000000000930829
3414908291053BILLING10        1 44355  0ACTG        0040000060000000000000000930829
3414908291053BILLING10        1 44355  0ACTG        0050000060000000000000000930829
3414708281527BILLING10        1 44355  0MAGCON      0070000040002000000000000930829
3415008292128BILLING10        1 44355  0ACTG        0040000030000000000000000930829
3415008292128BILLING10        1 44355  0ACTG        0050000030000000000000000930829
3415208300138NETDETAIL    21477 54130201            0070000010001000000000000930830
3415108292316BILLING10        1 44355  0MAGCON      0070000040002000000000000930830
3415408301118BILLING10        1 44355  0ACTG        0040000040000000000000000930830
3415408301118BILLING10        1 44355  0ACTG        0050000040000000000000000930830
3415608310201NETDETAIL    21477 54130201            0070000010001000000000000930831
3438707311331BILLING10        1 44355  0ACTG        0040000080000000000000000940731
3438707311331BILLING10        1 44355  0ACTG        0050000080000000000000000940731
3438807311334BILLING10        1 44355  0MAGCON      0070000080004000000000000940801
3439008010913FREMUR           1 16367  0MAA         0 1    12 10000000      0940801
3439108010919FREMUR           1 16367  0FREMUR.MONTH0 1    12 10000000      0940801
3439208010945MVSMURS          1154414  0MVSMURS.WEEK0 1     6 10000000      0940801
3439308010948MVSMURS          1154414  0MVSMURS.MONT0 1     6 10000000      0940801
3438908010544OPER             1    21  0MAGCON      0070000050002000000000000940801
3439508020ER             1    21  0MAGCON      0070000040002000000000000940802
3439608020851OPER             1    21  0            0 1    91 10000000      0940803
3439708030825OPER             1    21  0MAGCON      0070000070003000000000000940803
3440008040958BILLING10        1 44355  0ACTG        0040000040000000000000000940804
3440008040958BILLING10        1 44355  0ACTG        0050000040000000000000000940804
3439908031007BILLING10        1 44355  0ACTG        0040000040000000000000000940803
3439908031007BILLING10        1 44355  0ACTG        0050000040000000000000000940803
3440108050654BILLING10        1 44355  0MAGCON      0070000060003000000000000940805
3440208050657BILLING10        1 44355  0MAGCON      0070000070003000000000000940806
3440308052111BILLING10        1 44355  0ACTG        0040000060000000000000000940806
3440308052111BILLING10        1 44355  0ACTG        0050000060000000000000000940806
3440408060512BILLING10        1 44355  0MAGCON      0070000080004000000000000940806
3440508070055BILLING10        1 44355  0ACTG        0050000060000000000000000940807
3440508070055BILLING10        1 44355  0ACTG        0040000060000000000000000940807
3440608070300BILLING10        1 44355  0MAGCON      0070000080004000000000000940807
3440908080000JMS              34311162382105        0 1     1 10000000      0940808
3440708071136BILLING10        1 44355  0MAGCON      0070000060003000000000000940808
3441008080944FREMUR           1 16367  0MVSMURSAAAAA0 1    18 10000000      0940808
3440808071946FREMUR           1 16367  0            0 1    20 10000000      0940808
3441108082255BILLING10        1 44355  0ACTG        0040000070000000000000000940809
3441108082255BILLING10        1 44355  0ACTG        0050000070000000000000000940809
3441308091345OPER             1    21  0            0 1    12 10000000      0940809
3441408100032BILLING10        1 44355  0MAGCON      0070000040002000000000000940810
3441608100905BILLING10        1 44355  0MAGCON      0070000030002000000000000940810
3441508100713BILLING10        1 44355  0ACTG        0040000060000000000000000940810
3441508100713BILLING10        1 44355  0ACTG        0050000060000000000000000940810
3441708101204BILLING10        1 44355  0MAGCON      0070000070003000000000000940810
3441808110457BILLING10        1 44355  0ACTG        0050000040000000000000000940811
3441808110457BILLING10        1 44355  0ACTG        0040000040000000000000000940811
3441908120534BILLING10        1 44355  0ACTG        0050000070000000000000000940812
3441908120534BILLING10        1 44355  0ACTG        0040000070000000000000000940812
3442008122319BILLING10        1 44355  0ACTG        0050000080000000000000000940813
3442008122319BILLING10        1 44355  0ACTG        0040000080000000000000000940813
3442108122325BILLING10        1 44355  0MAGCON      0070000070003000000000000940813
3442208132257BILLING10        1 44355  0ACTG        0050000070000000000000000940814
3442208132257BILLING10        1 44355  0ACTG        0040000070000000000000000940814
3442308141513BILLING10        1 44355  0MAGCON      0070000070003000000000000940815
3442608151131BILLING10        1 44355  0MAGCON      0070000070003000000000000940816
3442708160945BILLING10        1 44355  0ACTG        0050000070000000000000000940816
3442708160945BILLING10        1 44355  0ACTG        0040000070000000000000000940816
3442808161226BILLING10        1 44355  0MAGCON      0070000050002000000000000940817
3442908161231BILLING10        1 44355  0MAGCON      0070000040002000000000000940817
3443108171515BILLING10        1 44355  0ACTG        0040000050000000000000000940817
3443108171515BILLING10        1 44355  0ACTG        0050000050000000000000000940817
3443008170237BILLING10        1 44355  0ACTG        0050000070000000000000000940817
3443008170237BILLING10        1 44355  0ACTG        0040000070000000000000000940817
3443208172332BILLING10        1 44355  0ACTG        0050000040000000000000000940818
3443208172332BILLING10        1 44355  0ACTG        0040000040000000000000000940818
3443308180026BILLING10        1 44355  0MAGCON      0070000070003000000000000940818
3443408180754BILLING10        1 44355  0MAGCON      0070000070003000000000000940818
3443508190117BILLING10        1 44355  0MAGCON      0070000060003000000000000940819
3443608191400OPER             1    21  0MAGCON      0070000070003000000000000940819
3443808191617BILLING10        1 44355  0ACTG        0050000070000000000000000940820
3443808191617BILLING10        1 44355  0ACTG        0040000070000000000000000940820
3443708191402OPER             1    21  0MAGCON      0070000070003000000000000940820
3443908200620BILLING10        1 44355  0ACTG        0040000090000000000000000940821
3443908200620BILLING10        1 44355  0ACTG        0050000090000000000000000940821
3444008201519BILLING10        1 44355  0MAGCON      0070000070003000000000000940821
3444108210624BILLING10        1 44355  0ACTG        0050000070000000000000000940821
3444108210624BILLING10        1 44355  0ACTG        0040000070000000000000000940821
3444208211008BILLING10        1 44355  0MAGCON      0070000050002000000000000940821
3444308220117BILLING10        1 44355  0ACTG        0050000070000000000000000940822
3444308220117BILLING10        1 44355  0ACTG        0040000070000000000000000940822
3444408220536BILLING10        1 44355  0MAGCON      0070000040002000000000000940822
3444508221218BILLING10        1 44355  0ACTG        0040000050000000000000000940822
3444508221218BILLING10        1 44355  0ACTG        0050000050000000000000000940822
3444708231036BILLING10        1 44355  0ACTG        0050000050000000000000000940823
3444708231036BILLING10        1 44355  0ACTG        0040000050000000000000000940823
3444608221524BILLING10        1 44355  0MAGCON      0070000070003000000000000940824
3444808241253BILLING10        1 44355  0ACTG        0040000070000000000000000940824
3444808241253BILLING10        1 44355  0ACTG        0050000070000000000000000940824
3444908241514BILLING10        1 44355  0MAGCON      0070000070003000000000000940825
3445008250717BILLING10        1 44355  0MAGCON      0070000070003000000000000940826
3445108251810BILLING10        1 44355  0ACTG        0040000070000000000000000940826
3445108251810BILLING10        1 44355  0ACTG        0050000070000000000000000940826
3445208270003BILLING10        1 44355  0ACTG        0040000070000000000000000940827
3445208270003BILLING10        1 44355  0ACTG        0050000070000000000000000940827
3445308270419BILLING10        1 44355  0MAGCON      0070000070003000000000000940827
3445508280417BILLING10        1 44355  0ACTG        0040000070000000000000000940828
3445508280417BILLING10        1 44355  0ACTG        0050000070000000000000000940828
3445408272257BILLING10        1 44355  0MAGCON      0070000070003000000000000940828
3445608281108BILLING10        1 44355  0MAGCON      0070000050002000000000000940829
3445808290302BILLING10        1 44355  0ACTG        0040000070000000000000000940829
3445808290302BILLING10        1 44355  0ACTG        0050000070000000000000000940829
3446008291517BILLING10        1 44355  0MAGCON      0070000040002000000000000940829
3445908291429BILLING10        1 44355  0ACTG        0040000050000000000000000940828
3445908291429BILLING10        1 44355  0ACTG        0050000050000000000000000940828
3446208300556BILLING10        1 44355  0ACTG        0040000050000000000000000940830
3446208300556BILLING10        1 44355  0ACTG        0050000050000000000000000940830
3446108291558BILLING10        1 44355  0MAGCON      0070000070003000000000000940831
V@	[þ