3422207290107DCSMINN      16316365203249PURGE4      0050000180000000000000000910729
3422407290809FREMUR           1 16367  0MURRPT.WKY  01001   0   124740      3910729
3422407290809FREMUR           1 16367  0MURRPT.WKY  011    33 10     0      0910729
3422507290810FREMUR           1 16367  0MURRPT.WKY  01001   0    41580      3910729
3422507290810FREMUR           1 16367  0MURRPT.WKY  011    11 10 00000      0910729
3421907251341DCSFRS       16316177547249LJB         0040000010000000000000000910731
3422708010846FREMUR           1 16367  0MURRPT.FIN  01001   0   185700      3910801
3422708010846FREMUR           1 16367  0MURRPT.FIN  011    44 10     0      0910801
3422908011108DCSFRS       16316177547249LJB         0070000030001000000000001910801
3423008011017OPER             1    21  0            01001   0   538370      4910801
3423008011017OPER             1    21  0            011   147 10     0      0910801
3423208011458OPER             1    21  0            01001   0   537950      4910801
3423208011458OPER             1    21  0            011   147 10     0      0910801
3423508050307DCSMINN      16316365203249PURGE1      0050000080000000000000000910805
3423608050634ALICIABX     16316453375249VISTA CLM BK0050000030000000000000000910805
3423708050837FREMUR           1 16367  0MURRPT.WKY  01001   0   124800      3910805
3423708050837FREMUR           1 16367  0MURRPT.WKY  011    33 10     0      0910805
3423908051157VIPXTMP      45713126555249Y           1040000030000000000000000910805
3424208051333VIPXTMP      45713126555249Y           1040000020000000000000000910805
3424008051325VIPXTMP      45713126555249Y           1040000250000000000000000910805
3424108051327VIPXTMP      45713126555249Y           1040000110000000000000000910805
3424308051355VIPXTMP      45713126555249Y           1040000240000000000000000910805
3424408051356VIPXTMP      45713126555249Y           1040000180000000000000000910805
3424608061156DCSOPEN      16316 23665249VISTA BACKUP0040000010000000000000000910806
3424608061156DCSOPEN      16316 23665249VISTA BACKUP0050003880000000000000000910806
3424508061155DCSOPEN      16316 23665249RCONX       0070000180018000000000018910806
3422607301519DCSFRS       16316177547249LJB         0040000020000000000000000910806
3425008071605DCSFRS       16316177547249LJB         0070000030001000000000001910807
3424808071417DCSTEST      10525 26014249VISTA TRIP D0070000040001000000000001910807
3424708071410DCSTEST      10525 26014249VISTA CLM DA0070000050005000000000005910808
3425108080822DCSFRS       16316177547249LJB         0070000060001000000000001910808
0125208101213RVIPX       000000000000249VISTA MLG. R0040000010000000000000000910810
3425208101213RVIPX        16316174267249VISTA MLG. R0040003870000000000000000910810
3425408120000JMS              34311162382105        01001   0     1665      1910812
3425408120000JMS              34311162382105        011     1 10     0      0910812
3425508120626RVIPX        16316174267249RVIPX RESTOR0040000010000000000000000910812
3425308120105DCSMINN      16316365203249PURGE2      0040000120000000000000000910812
3425308120105DCSMINN      16316365203249PURGE2      0050000120000000000000000910812
3425708121007FREMUR           1 16367  0MURRPT.WKY  01001   0   112710      3910812
3425708121007FREMUR           1 16367  0MURRPT.WKY  011    30 10     0      0910812
3425808121009FREMUR           1 16367  0MURRPT/WKY  01001   0    37570      3910812
3425808121009FREMUR           1 16367  0MURRPT/WKY  011    10 10 00000      0910812
3425608121004DCSOPEN      16316 23665249GENCORP     0070000020019000000000019910812
3425908131236DCSOPEN      16316 23665249NRND BACKUP 0040000010000000000000000910813
3425908131236DCSOPEN      16316 23665249NRND BACKUP 0050001750000000000000000910813
3426008160726DANIELSR         1142734  0MURRPT      01001   0   235795      2910816
3426008160726DANIELSR         1142734  0MURRPT      011   102 10     0      0910816
3426108190117DCSMINN      16316365203249PURGE3      0050000140000000000000000910819
3426208190708DCSOPEN      16316 23665249CAR.SUMMARY 0040000010000000000000000910819
3426308190814FREMUR           1 16367  0MURRPT.WKY  01001   0   113400      3910819
3426308190814FREMUR           1 16367  0MURRPT.WKY  011    30 10     0      0910819
3426408190815FREMUR           1 16367  0MURRPT.WKY  01001   0    37800      3910820
3426408190815FREMUR           1 16367  0MURRPT.WKY  011    10 10 00000      0910820
3426508210800DANIELSR         1142734  0FILE SAVE   0050000530000000000000000910821
3423108011236OPER             1    21  0            01001   0   537950      4910826
3423108011236OPER             1    21  0            011   147 10     0      0910826
3426808260913FREMUR           1 16367  0MURRPT.WKY  01001   0   113520      3910826
3426808260913FREMUR           1 16367  0MURRPT.WKY  011    30 10     0      0910826
3426908260914FREMUR           1 16367  0MURRPT.WKY  01001   0    37840      3910826
3426908260914FREMUR           1 16367  0MURRPT.WKY  011    10 10 00000      0910826
3427108261423DCSOPEN      16316 23665249CONTABX     0070000010010000000000000910826
3426708260331DCSMINN      16316365203249PURGE4      0050000100000000000000000910827
3426608221300DCSFRS       16316177547249LJB         0040000530000000000000000910827
3427208291257ALICIABX     16316453375249ALICIABX    0040000030000000000000000910829
