3446703030857FRANK       JONESJ        2ATTT TAPE MV0000000000000000000000000000000
3449803072224DCSMINN     JBENAVIDES  249PURGE6      0000000000000000000000000000000
3452003141850ZUMMO       CAMARA        3NONE        0000000000000000000000000000000
3491203050150NETDETAIL   HOONINGK    229            0000000000000000000000000000000
