3434402031016FRANK       HIGHTOWER     2ATTT TAPE MV0000000000000000000000000000000
3440002170957DCSFRS      HIGHTOWER   249LJB         0000000000000000000000000000000
3478802020429NETDETAIL   JONESJ      229            0000000000000000000000000000000
3486202210344NETDETAIL   ALLEGRO     229            0000000000000000000000000000000
3487702251021BILLING10   JBENAVIDES    0MAGCON      0000000000000000000000000000000
3488302270433NETDETAIL   ALLEGRO     229            0000000000000000000000000000000
3489302281518OPER        JONESJ        0ACTG        0000000000000000000000000000000
