3475908071518CONXTMP     ZACHARYE    249Y           1000000000000000000000000000000
3476008071523CONXTMP     ZACHARYE    249Y           1000000000000000000000000000000
3476108071530CONXTMP     ZACHARYE    249CANCEL      1000000000000000000000000000000
3476908080651CONXTMP     HIGHTOWER   249Y           1000000000000000000000000000000
3427908300758ALICIABX    IVESG       249LOAD CORRECT0000000000000000000000000000000
3403108011203KLPGTMP     CAMARA      249LOAD KLPGTMP1000000000000000000000000000000
3403208011208KLPGTMP     CAMARA      249LOAD KLPGTMP1000000000000000000000000000000
3403308011209KLPGTMP     CAMARA      249CANCEL 340321000000000000000000000000000000
3403408011638KLPGTMP     CAMARA      249LOAD KLPGTMP1000000000000000000000000000000
3409008110531DCSMINN     TONYR       249PURGE4      0000000000000000000000000000000
3415308300812DANIELSR    HIGHTOWER     0SPOOL.GDF   0000000000000000000000000000000
3439808031002BILLING10   CAINK         0ACTG        0000000000000000000000000000000
3439408011342BILLING10   HIGHTOWER     0ACTG        0000000000000000000000000000000
3442508151123BILLING10   MMARTIN       0MAGCON      0000000000000000000000000000000
