3481309131316ALICIABX    HIGHTOWER   249FORCE 29    0000000000000000000000000000000
3481609150005DCSTEST     DKEITH      249VISTA 1988 C0000000000000000000000000000000
3482209220834DCSOPEN     WILKEC      249BORDEN      0000000000000000000000000000000
3482309220836DCSOPEN     WILKEC      249CANCEL 348220000000000000000000000000000000
3424908071559DCSFRS      HIGHTOWER   249LJB         0000000000000000000000000000000
3431509250557DCSSRC      IVESG       249CONX/KOCH RE1000000000000000000000000000000
3425309262256BILLING10   THROWERM      0ACTG        0000000000000000000000000000000
