3413905242311DCSOPEN     SILVAM      249PHDX RESTORE0000000000000000000000000000000
3414005242325DCSOPEN     SILVAM      249CENE RESTORE0000000000000000000000000000000
3414105242335DCSOPEN     SILVAM      249ARIX RESTORE0000000000000000000000000000000
3414205242342DCSOPEN     SILVAM      249LOUANA RESTO0000000000000000000000000000000
3414505250948DCSOPEN     HIGHTOWER   249KOCHLPG REST0000000000000000000000000000000
3414405250227DCSOPEN     HIGHTOWER   249CENEX RESTOR0000000000000000000000000000000
3414305250135DCSOPEN     HIGHTOWER   249VIPX RESTORE0000000000000000000000000000000
3463805051021DCSOPEN     HIGHTOWER   249LOAD RCONX  0000000000000000000000000000000
3463705051010DCSOPEN     HIGHTOWER   249LOAD RCONX  0000000000000000000000000000000
3469505020240BILLING10   MALCOLMJ      0MAGCON      0000000000000000000000000000000
3471405051520FRANK       CAMARA        2MAGCON      0000000000000000000000000000000
3475605182000BILLING10   MERLOSJ       0ACTG        0000000000000000000000000000000
3476105201306FRANK       JBENAVIDES    2ATT TAPE MVS0000000000000000000000000000000
