3440512021010BILLING10   WILKEC        0ROYALTY ACCT0000000000000000000000000000000
3409812081222DCSOPEN     CAINK       249            0000000000000000000000000000000
3410112100129DCSMINN     HIGHTOWER   249PURGE2      0000000000000000000000000000000
3412012160751NETSTAT     HIGHTOWER   201            0000000000000000000000000000000
3469212260815BILLING10   CAINK         0MAGCON      0000000000000000000000000000000
