3444401121137ALICIABX    DMELLOR     249DCSTEST     0000000000000000000000000000000
3444501121139ALICIABX    DMELLOR     249CANCEL REQ. 0000000000000000000000000000000
3421001070725NETSTAT     JBENAVIDES  201            0000000000000000000000000000000
3424101122248CONXTMP     MERLOSJ     249Y           1000000000000000000000000000000
3424001122248CONXTMP     MERLOSJ     249Y           1000000000000000000000000000000
3426301171755CONXTMP     ESTIVAW     249Y           1000000000000000000000000000000
3432301311622ALICIABX    CAMARA      249FOLLOW-UP TO0000000000000000000000000000000
3473001200231NETDETAIL   ALLEGRO     229            0000000000000000000000000000000
3473101200531NETDETAIL   ALLEGRO     229            0000000000000000000000000000000
3474801240440NETDETAIL   JONESJ      229            0000000000000000000000000000000
3475801270221NETDETAIL   ALLEGRO     229            0000000000000000000000000000000
3476201280441NETDETAIL   HOONINGK    229            0000000000000000000000000000000
