3417206111354DCSOPEN     JONESJ      249DISCONNECT 20000000000000000000000000000000
3418306190613DCSMINN     CALDERONJ   249PURGE2      0000000000000000000000000000000
3482406222024KLPGTMP     CAMARA      249KLPG SEARCH 1000000000000000000000000000000
3486806230915FRANK       HIGHTOWER     2ATT TAPE MVS0000000000000000000000000000000
3488106280758DBAMIKE     HIGHTOWER   201            0000000000000000000000000000000
3425606140631BILLING10   HIGHTOWER     0MAGCON      0000000000000000000000000000000
3429306280123BILLING10   ALLEGRO       0MAGCON      0000000000000000000000000000000
