3471307110945RAIL3       ZACHARYE    249TENNESSEE EA0000000000000000000000000000000
3471907170044DCSMINN     CHAVEZJ     249LOAD ILBX96.0000000000000000000000000000000
3472807201642DCSOPEN     HIGHTOWER   249PURGE2      0000000000000000000000000000000
3472907201646DCSOPEN     HIGHTOWER   249CANCEL 347280000000000000000000000000000000
3421107180708DCSOPEN     CALDERONJ   249PENN1BBX    0000000000000000000000000000000
3421207180712DCSOPEN     WILKEC      249BATCH CANCEL0000000000000000000000000000000
3486907081256FSCORD      CAMARA        3NONE        0000000000000000000000000000000
3481606212035KLPGTMP     JONESJ      249KLPGTMP     1000000000000000000000000000000
3494907130921FRANK       JONESJ        2MVS RESTORE 0000000000000000000000000000000
3497007180713BILLING10   CAMARA        0MAGCON      0000000000000000000000000000000
3499007220733DANIELSR    JONESJ        0TGEST       0000000000000000000000000000000
3430507030753BILLING10   SDOYLE        0MAGCON      0000000000000000000000000000000
3405607061016PALS        RESCOBAR      0            0000000000000000000000000000000
