3485310151358OPER        MARTINEZR     0            0000000000000000000000000000000
3486310260834DCSOPEN     MONROEK     249NIPROABX    0000000000000000000000000000000
3486410260836DCSOPEN     MONROEK     249CANCEL 348630000000000000000000000000000000
3486610260908BRUCES      ZACHARYE      3            0000000000000000000000000000000
3400510260839DCSOPEN     JONESJ      249            0000000000000000000000000000000
3427710011256FRANK       HIGHTOWER     2MAGCON      0000000000000000000000000000000
3432210130852SRATECH     CAMARA        1SRATECH     0000000000000000000000000000000
3433510170914BILLING10   CAMARA        0MAGCON      0000000000000000000000000000000
3435410211430DANIELSR    MMARTIN       0FILE TRANSFE0000000000000000000000000000000
3456010211451OPER        MMARTIN       0MAGCON      0000000000000000000000000000000
