3409004110926VIPXTMP     DKEITH      249FORCE JOBS 81000000000000000000000000000000
3461304060835FRANK       CAMARA        2ATTT TAPE MV0000000000000000000000000000000
3467204252326BILLING10   CHAMPOUXG     0MAGCON      0000000000000000000000000000000
3467704270853FRANK       CAINK         2ATT TAPE MVS0000000000000000000000000000000
3402004011107NETDETAIL   MMARTIN     229            0000000000000000000000000000000
3406904140832OPER        JONESJ        0            0000000000000000000000000000000
3411704270136BILLING10   ALLEGRO       0ACTG        0000000000000000000000000000000
