3488311120005DCSMINN     MONROEK     249PURGE3      0000000000000000000000000000000
3437411040928SRA         WILKEC        0RESTORE     0000000000000000000000000000000
3401711041056BURNS1      HIGHTOWER     0RESTORE     0000000000000000000000000000000
3401611031542SRA         HIGHTOWER     0NETSTAT MOVE0000000000000000000000000000000
3402211052358OPER        HIGHTOWER     0MAGCON      0000000000000000000000000000000
3405411212338BILLING10   MERLOSJ       0MAGCON      0000000000000000000000000000000
3450911302002BILLING10   THROWERM      0ACTG        0000000000000000000000000000000
