3498101280357DCSMINN      16316365203249PURGE2      0050000160000000000000001910128
3498201280746FREMUR           1 16367  0MURRPT.WKY  01001   0   125430      3910128
3498201280746FREMUR           1 16367  0MURRPT.WKY  011    33 10     0      0910128
3498301280748FREMUR           1 16367  0MURRPT.WKY  01001   0    41810      3910128
3498301280748FREMUR           1 16367  0MURRPT.WKY  011    11 10 00000      0910128
3497901211123DCSFRS       16316177547249LJB         0040000020000000000000000910128
3498602010936FREMUR           1 16367  0MURRPT.FIN  01001   0   186980      3910201
3498602010936FREMUR           1 16367  0MURRPT.FIN  011    44 10     0      0910201
3498702010937FREMUR           1 16367  0MURRPT.FIN  01001   0    46745      3910201
3498702010937FREMUR           1 16367  0MURRPT.FIN  011    11 10 00000      0910201
3498802011429OPER             1    21  0            01001   0   537180      4910201
3498802011429OPER             1    21  0            011   147 10     0      0910201
3498902021904DCSMINN      16316365203249AIRCO       01001   0  2006495      2910202
3498902021904DCSMINN      16316365203249AIRCO       011   457 10 00000      0910202
3499102040000JMS              34311162382105        01001   0     1660      1910204
3499102040000JMS              34311162382105        011     1 10     0      0910204
3499202040546DCSMINN      16316365203249PURGE3      0050000140000000000000001910204
3499302040839FREMUR           1 16367  0MURRPT.WKY  01001   0   126030      3910204
3499302040839FREMUR           1 16367  0MURRPT.WKY  011    33 10     0      0910204
3499402040840FREMUR           1 16367  0MURRPT.WKY  01001   0    42010      3910204
3499402040840FREMUR           1 16367  0MURRPT.WKY  011    11 10 00000      0910204
3499702051328VIPXTMP      16316106327249VIPXTMP     0040000030000000000000000910205
3499602051128DCSFRS       16316177547249LJB         0070000020002000000000000910205
3499802051544DCSFRS       16316177547249LJB         0070000020002000000000002910205
3499802051544DCSFRS       16316177547249LJB         0040000020000000000000000910205
3499902051559DCSFRS       16316177547249LJB         0070000050001000000000001910205
3400302060857VIPXTMP      16316106327249LOAD VIPXTMP0040000120000000000000000910206
3400202060851VIPXTMP      16316106327249LOAD VIPXTMP0040000020000000000000000910206
3400102060850VIPXTMP      16316106327249LOAD VIPXTMP0040000120000000000000000910206
3498401301457DCSFRS       16316177547249LJB         0040000010000000000000000910205
3498501311152DCSFRS       16316177547249LJB         0040000030000000000000000910205
3400402070637DCSOPEN      16316 23665249RCONX       0050000340000000000000000910207
3400602080722DCSOPEN      16316 23665249GMTRACK     0070000020001000000000000910208
3400702110019DCSMINN      16316365203249PURGE4      0050000180000000000000001910211
3400802110845FREMUR           1 16367  0MURRPT.WKY  01001   0   126000      3910211
3400802110845FREMUR           1 16367  0MURRPT.WKY  011    33 10     0      0910211
3400902110846FREMUR           1 16367  0MURRPT.WKY  01001   0    42000      3910211
3400902110846FREMUR           1 16367  0MURRPT.WKY  011    11 10 00000      0910211
3401002111244DANIELSR         1142734  0DRWSPR.EPO  0040000010000000000000000910211
3401002111244DANIELSR         1142734  0DRWSPR.EPO  0050000020000000000000000910211
3401102131020DCSFRS       16316177547249LJB         0040000040000000000000000910213
3401102131020DCSFRS       16316177547249LJB         0070000040004000000000004910213
3400502070905DCSFRS       16316177547249LJB         0040000030000000000000000900213
3401302180029DCSMINN      16316365203249PURGE1      0050000120000000000000000910218
3401402190932DCSOPEN      16316 23665249SHP.INDEX RE0040000010000000000000000910219
3401602190825FREMUR           1 16367  0MURRPT.WKY  01001   0   125490      3910219
3401602190825FREMUR           1 16367  0MURRPT.WKY  011    33 10     0      0910219
3401502191015DCSOPEN      16316 23665249SHP.INDEX RE0040000010000000000000000910219
3401802210800DANIELSR         1142734  0FILE SAVE   0050000480000000000000000910221
3401802210800DANIELSR         1142734  0FILE SAVE   0040000010000000000000000910221
3401902211345ALICIABX     16316453375249ALICIABX    0040000010000000000000000910221
