3494112310845JMILLER          1277731  0FILE STORE  0050000520000000000000000901231
3494112310845JMILLER          1277731  0FILE STORE  0040000010000000000000000901231
3494212311101FREMUR           1 16367  0MURRPT.WKY  01001   0   126210      3901231
3494212311101FREMUR           1 16367  0MURRPT.WKY  011    33 10     0      0901231
3494012310055DCSMINN      16316365203249PURGE2      0040000010000000000000000901231
3494012310055DCSMINN      16316365203249PURGE2      0050000160000000000000000901231
3494401011133OPER             1    21  0            01001   0   539700      4910101
3494401011133OPER             1    21  0            011   147 10     0      0910101
3494601020810DCSOPEN      16316 23665249CTEX.BKP    0050001980000000000000001910102
3494701020815FREMUR           1 16367  0MURRPT.FIN  01001   0   187580      3910102
3494701020815FREMUR           1 16367  0MURRPT.FIN  011    44 10     0      0910102
3494901021905DCSMINN      16316365203249AIRCO       0 1   464 10000000      0910103
3495001021908DCSMINN      16316365203249AIRCO2      0 1    39 10000000      0910103
3495101041858DCSMINN      16316365203249ANNUALPRG   0050000240000000000000000910105
3495201070050DCSMINN      16316365203249PURGE3      0050000140000000000000001910107
3495301070957FREMUR           1 16367  0MURRPT.WKY  01001   0   125220      3910107
3495301070957FREMUR           1 16367  0MURRPT.WKY  011    33 10     0      0910107
3495401070958FREMUR           1 16367  0MURRPT.WKLY 01001   0    41740      3910107
3495401070958FREMUR           1 16367  0MURRPT.WKLY 011    11 10 00000      0910107
3495501081532LMORRIS      35676162775249            0040000020000000000000000910109
3495601091043DCSFRS       16316177547249LJB         0070000020002000000000000910109
3495601091043DCSFRS       16316177547249LJB         0040000020000000000000000910109
3496001101151DCSOPEN      16316 23665249VIPX RESTORE0040000010000000000000000910110
3495901101139DCSOPEN      16316 23665249VIPX RESTORE0040000010000000000000000910110
3495801100958DCSOPEN      16316 23665249VIPX COMMODI0040000010000000000000000910110
3496101140000JMS              34311162382105        01001   0     1665      1910114
3496101140000JMS              34311162382105        011     1 10     0      0910114
3496201140315DCSMINN      16316365203249PURGE4      0050000180000000000000001910114
3496301140747FREMUR           1 16367  0MURRPT.WKY  01001   0   125550      3910114
3496301140747FREMUR           1 16367  0MURRPT.WKY  011    33 10     0      0910114
0196501141254TERRABX     000000000000249RESTORE TERR0040001600000000000000000910114
0196701141257ARCADIAN    000000000000249RESTORE ARCA0040002150000000000000000910114
3496501141254TERRABX      16316100132249RESTORE TERR0040001610000000000000000910114
3496601141256CANTERRA     16316100135249CANTERRA RES0040001980000000000000000910114
3496801141301COLNITRO     16316100134249RESTORE COLN0040002340000000000000000910115
3496701141257ARCADIAN     16316100133249RESTORE ARCA0040003270000000000000000910115
3495701091400DCSFRS       16316177547249LJB         0040000010000000000000000910116
3496901160855DCSFRS       16316177547249LJB         0040000010000000000000000910116
3497001160858DCSFRS       16316177547249LJB         0070000020001000000000001910116
3497101171150DCSFRS       16316177547249LJB         0070000030003000000000000910117
3497401181029DCSOPEN      16316 23665249RESTORE PHDX0040000020000000000000000910118
3497201180912DCSFRS       16316177547249LJB         0040000030000000000000000910118
3497201180912DCSFRS       16316177547249LJB         0070000030003000000000003910118
3497301180920DCSFRS       16316177547249LJB         0040000070000000000000000910118
3497501210036DCSMINN      16316365203249PURGE1      0050000120000000000000001910121
3497601210800DANIELSR         1142734  0FILE SAVE   0050000480000000000000000910121
3497601210800DANIELSR         1142734  0FILE SAVE   0040000010000000000000000910121
3497701210847FREMUR           1 16367  0MURRPT.WKY  01001   0   125760      3910121
3497701210847FREMUR           1 16367  0MURRPT.WKY  011    33 10     0      0910121
3497801210848FREMUR           1 16367  0MURRPT.WKY  01001   0    41920      3910121
3497801210848FREMUR           1 16367  0MURRPT.WKY  011    11 10 00000      0910121
