3411304290000JMS              34311162382105        01001   0     1665      1910429
3411304290000JMS              34311162382105        011     1 10     0      0910429
3411404290850FREMUR           1 16367  0MURRPT.WKY  01001   0   125430      3910429
3411404290850FREMUR           1 16367  0MURRPT.WKY  011    33 10     0      0910429
3411504290852FREMUR           1 16367  0MURRPT.WKY  01001   0    41810      3910429
3411504290852FREMUR           1 16367  0MURRPT.WKY  011    11 10 00000      0910429
3411604300205DCSMINN      16316365203249PURGE3      0050000140000000000000000910430
3411704300754DCSOPEN      16316 23665249TGIX1ABX    0070000020001000000000000910430
3411204241044DCSFRS       16316177547249LJB         0040000010000000000000000910430
3412005010836OPER             1    21  0            01001   0   536340      4910501
3412005010836OPER             1    21  0            011   147 10     0      0910501
3411805010803FREMUR           1 16367  0MURRPT.FIN  01001   0   186140      3910501
3411805010803FREMUR           1 16367  0MURRPT.FIN  011    44 10     0      0910501
3411905010804FREMUR           1 16367  0MURRPT.FIN  01001   0    46535      3910501
3411905010804FREMUR           1 16367  0MURRPT.FIN  011    11 10 00000      0910501
3412305020750DCSMINN      16316365203249AIRCO       01001   0    36158      2910502
3412305020750DCSMINN      16316365203249AIRCO       011   483 10 00000      0910502
3412505021051DCSMINN      16316365203249AIRCO2      01001   0    94485      1910502
3412505021051DCSMINN      16316365203249AIRCO2      011    32 10 00000      0910502
3412205011353DCSFRS       16316177547249LJB         0070000030001000000000001910502
3412605030631DCSOPEN      16316 23665249PCGRAIN     0070000180018000000000018910503
3412705060206DCSMINN      16316365203249PURGE4      0050000180000000000000000910506
3412805060927FREMUR           1 16367  0MURRPT.WKY  01001   0   126090      3910506
3412805060927FREMUR           1 16367  0MURRPT.WKY  011    33 10     0      0910506
3412905060928FREMUR           1 16367  0MURRPT.WKY  01001   0    42030      3910506
3412905060928FREMUR           1 16367  0MURRPT.WKY  011    11 10 00000      0910506
3412105011339DCSFRS       16316177547249LJB         0040000010000000000000000910506
3413005110755DCSFRS       16316177547249LJB         0040000010000000000000000910511
3413105130459DCSMINN      16316365203249PURGE1      0050000120000000000000000910512
3413205140932FREMUR           1 16367  0MURRPT.WKY  01001   0   125430      3910514
3413205140932FREMUR           1 16367  0MURRPT.WKY  011    33 10     0      0910514
3413305140933FREMUR           1 16367  0MURRPT.WKY  01001   0    41810      3910514
3413305140933FREMUR           1 16367  0MURRPT.WKY  011    11 10 00000      0910514
3413405200000JMS              34311162382105        01001   0     1665      1910520
3413405200000JMS              34311162382105        011     1 10     0      0910520
0113505200306DCSMINN     000000000000249PURGE2      0050000160000000000000000910520
3413605200832FREMUR           1 16367  0MURRPT.WKY  01001   0   125700      3910520
3413605200832FREMUR           1 16367  0MURRPT.WKY  011    33 10     0      0910520
3413705200833FREMUR           1 16367  0MURRPT.WKY  01001   0    41900      3910520
3413705200833FREMUR           1 16367  0MURRPT.WKY  011    11 10 00000      0910520
0113505200306DCSMINN     000000000000249PURGE2      0050000080000000000000002910520
3413505200306DCSMINN      16316365203249PURGE2      0040000020000000000000000910520
3413505200306DCSMINN      16316365203249PURGE2      0050000080000000000000000910520
3413805210800DANIELSR         1142734  0FILE SAVE   0040000010000000000000000910521
3413805210800DANIELSR         1142734  0FILE SAVE   0050000530000000000000000910521
3414605251727DCSOPEN      16316 23665249VIPX TRIP RE0040000010000000000000000910525
3414705271051DCSMINN      16316365203249PURGE3      0050000060000000000000001910527
3414905280845FREMUR           1 16367  0MURRPT.WKY  01001   0   125910      3910528
3414905280845FREMUR           1 16367  0MURRPT.WKY  011    33 10     0      0910528
3415005280846FREMUR           1 16367  0MURRPT.WKY  01001   0    41970      3910528
3415005280846FREMUR           1 16367  0MURRPT.WKY  011    11 10 00000      0910528
3414805280640DCSOPEN      16316 23665249RESTORE CONX0040000010000000000000000910528
3415105281633DCSOPEN      16316 23665249CENE RESTORE0040000050000000000000000910529
0115205290720DCSOPEN     000000000000249CENE RESTORE0040000010000000000000000910529
3415205290720DCSOPEN      16316 23665249CENE RESTORE0040000040000000000000000910529
