3402002220713CONXTMP      16316112060249LOAD CONXTMP0040000260000000000000000910222
3402102220716CONXTMP      16316112060249LOAD CONXTMP0040000240000000000000000910222
3402202220716CONXTMP      16316112060249LOAD CONXTMP0040000080000000000000000910222
3402302220931DCSFRS       16316177547249LJB         0070000030003000000000000910222
3402402250000JMS              34311162382105        01001   0     1665      1910225
3402402250000JMS              34311162382105        011     1 10     0      0910225
3402502250224DCSMINN      16316365203249PURGE2      0050000160000000000000000910225
3402602250806FREMUR           1 16367  0MURRPT.WKY  01001   0   125610      3910225
3402602250806FREMUR           1 16367  0MURRPT.WKY  011    33 10     0      0910225
3402702250808FREMUR           1 16367  0MURRPT.WKY  01001   0    41870      3910225
3402702250808FREMUR           1 16367  0MURRPT.WKY  011    11 10 00013      0910225
3402802281151JMILLER          1277731  0            0050000590000000000000000910228
3402802281151JMILLER          1277731  0            0040000010000000000000000910228
3402903010717FREMUR           1 16367  0MURRPT.FIN  01001   0   186780      3910301
3402903010717FREMUR           1 16367  0MURRPT.FIN  011    44 10     0      0910301
3403003010719FREMUR           1 16367  0MURRPT.FIN  01001   0    46695      3910301
3403003010719FREMUR           1 16367  0MURRPT.FIN  011    11 10 00000      0910301
3403103011039OPER             1    21  0            01001   0   537040      4910301
3403103011039OPER             1    21  0            011   147 10     0      0910301
3403203021100DCSMINN      16316365203249AIRCO2      01001   0   104825      1910302
3403203021100DCSMINN      16316365203249AIRCO2      011    33 10 00000      0910302
3403303040134DCSMINN      16316365203249PURGE3      0050000140000000000000000910304
3403403040805FREMUR           1 16367  0MURRPT.WKY  01001   0   125910      3910304
3403403040805FREMUR           1 16367  0MURRPT.WKY  011    33 10     0      0910304
3403503040806FREMUR           1 16367  0MURRPT.WKY  01001   0    41970      3910304
3403503040806FREMUR           1 16367  0MURRPT.WKY  011    11 10 00000      0910304
3403703110211DCSMINN      16316365203249PURGE4      0050000180000000000000001910311
3403903110652CONXTMP      16316112060249CONXTMP     0040000010000000000000000910311
3403803110611VIPXTMP      16316106327249VIPXTMP     0040000030000000000000000910311
3404003110953FREMUR           1 16367  0MURRPT.WKY  01001   0   125550      3910311
3404003110953FREMUR           1 16367  0MURRPT.WKY  011    33 10     0      0910311
3404103110954FREMUR           1 16367  0MURRPT.WKY  01001   0    41850      3910311
3404103110954FREMUR           1 16367  0MURRPT.WKY  011    11 10 00000      0910311
3404303111302VIPXTMP      16316106327249LOAD VIPXTMP0040000240000000000000000910311
3404403111304VIPXTMP      16316106327249LOAD VIPXTMP0040000060000000000000000910311
3404203111240VIPXTMP      16316106327249LOAD VIPXTMP0040000040000000000000000910311
3404503111314CONXTMP      16316112060249LOAD CONXTMP0040000020000000000000000910311
3404703130125DCSTEST      10525 26014249CONOCO TRIP 0070000010001000000000001910313
3404803140745DCSTEST      10525 26014249CONOCO 1990 0070000010001000000000001910314
3404603111342DCSFRS       16316177547249LJB         0040000010000000000000000910315
3403603080849DCSFRS       16316177547249LJB         0040000010000000000000000910315
3405003180000JMS              34311162382105        01001   0     1665      1910318
3405003180000JMS              34311162382105        011     1 10     0      0910318
3404903180108DCSMINN      16316365203249PURGE1      0050000120000000000000001910318
3405103180826FREMUR           1 16367  0MURRPT.WKY  01001   0   125700      3910318
3405103180826FREMUR           1 16367  0MURRPT.WKY  011    33 10     0      0910318
3405203180827FREMUR           1 16367  0MURRPT.WKY  01001   0    41900      3910318
3405203180827FREMUR           1 16367  0MURRPT.WKY  011    11 10 00000      0910318
3405303210800DANIELSR         1142734  0FILE SAVE   0040000010000000000000000910321
3405303210800DANIELSR         1142734  0FILE SAVE   0050000510000000000000000910321
3405603231021DCSFRS       16316177547249LJB         0070000020002000000000002910323
3405603231021DCSFRS       16316177547249LJB         0040000020000000000000000910323
3405403231014DCSFRS       16316177547249LJB         0070000070001000000000001910323
3405703250440DCSMINN      16316365203249PURGE2      0050000160000000000000001910325
3405803250844FREMUR           1 16367  0MURRPT.WKY  01001   0   125910      3910325
3405803250844FREMUR           1 16367  0MURRPT.WKY  011    33 10     0      0910325
3405903250845FREMUR           1 16367  0MURRPT.WKY  01001   0    41970      3910325
3405903250845FREMUR           1 16367  0MURRPT.WKY  011    11 10 00000      0910325
