3485510201016BRUCES       11020 30722  3            01001   0    12436      1901026
3485510201016BRUCES       11020 30722  3            011  1142 10     0      0901026
0186510260839DCSOPEN     000000000000249NIPROABX    0050000020000000000000014901026
3486510260839DCSOPEN      16316 23665249NIPROABX    0070000020014000000000014901026
3486710290018DCSMINN      16316365203249PURGE1      0050000160000000000000002901029
3486810290501OPER        000001000021  0            0 9     1      960      0901029
3486910290502OPER        000001000021  0            0 9     2     3325      0901029
3487010290704FREMUR           1 16367  0MURRPT      01001   0   125640      3901029
3487010290704FREMUR           1 16367  0MURRPT      011    33 10     0      0901029
3487311010901RAILDATA     16316764607249RESTORE MER30040000010000000000000000901101
3487511010956FREMUR           1 16367  0MURRPT.FIN  01001   0   187180      3901101
3487511010956FREMUR           1 16367  0MURRPT.FIN  011    44 10     0      0901101
3487411011115RAILDATA     16316764607249RESTORE MER30040000010000000000000000901101
3487711011432OPER             1    21  0            01001   0   540540      4901101
3487711011432OPER             1    21  0            011   147 10     0      0901101
3487611011404RAILDATA     16316764607249RESTORE MER30040000010000000000000000901102
3488111050019DCSMINN      16316365203249PURGE2      0050000160000000000000001901105
3488211050726FREMUR           1 16367  0MURRPT      01001   0   125910      3901105
3488211050726FREMUR           1 16367  0MURRPT      011    33 10     0      0901105
3488411120000JMS              34311162382105        01001   0     1665      1901112
3488411120000JMS              34311162382105        011     1 10     0      0901112
3488511120721FREMUR           1 16367  0WKLMUR.RPT  01001   0   125610      3901112
3488511120721FREMUR           1 16367  0WKLMUR.RPT  011    33 10     0      0901112
3488611151122DCSFRS       16316177547249LJB         0040000030000000000000000901115
3488711170812DCSFRS       16316177547249LJB         0070000070002000000000002901117
3488811190012DCSMINN      16316365203249PURGE4      0050000180000000000000001901119
3488911190648FREMUR           1 16367  0MURRPT.WKY  01001   0   126000      3901119
3488911190648FREMUR           1 16367  0MURRPT.WKY  011    33 10     0      0901119
3489011190652FREMUR           1 16367  0MURRPT.WKY  01001   0    42000      3901119
3489011190652FREMUR           1 16367  0MURRPT.WKY  011    11 10 00000      0901119
0189111191113DCSFRS      000000000000249LJB         0070000030003000000000000901119
0189111191113DCSFRS      000000000000249LJB         0070000030003000000000000901119
0189111191113DCSFRS      000000000000249LJB         0070000060003000000000000901119
3489111191113DCSFRS       16316177547249LJB         0070000060003000000000003901119
3489211191317DCSFRS       16316177547249LJB         0070000150005000000000005901119
3489311191327DCSFRS       16316177547249LJB         0040000330000000000000000901119
3489411210800DANIELSR         1142734  0FILE SAVE   0050000470000000000000000901121
3489411210800DANIELSR         1142734  0FILE SAVE   0040000010000000000000000901121
3489511260023DCSMINN      16316365203249PURGE1      0050000080000000000000000901126
3489611260248FREMUR           1 16367  0MURRPT.WKY  01001   0   125280      3901126
3489611260248FREMUR           1 16367  0MURRPT.WKY  011    33 10     0      0901126
3489711260250FREMUR           1 16367  0MURWKY.RPT  01001   0    41760      3901126
3489711260250FREMUR           1 16367  0MURWKY.RPT  011    11 10 00000      0901126
