3432309300027DCSMINN      16316365203249PURGE1.B    0050000040000000000000000910930
3432209300016DCSMINN      16316365203249PURGE1      0050000080000000000000000910930
3432409300758FREMUR           1 16367  0MURRPT.WKY  01001   0   113670      3910930
3432409300758FREMUR           1 16367  0MURRPT.WKY  011    30 10     0      0910930
3432509300759FREMUR           1 16367  0MURRPT.WKY  01001   0    37890      3910930
3432509300759FREMUR           1 16367  0MURRPT.WKY  011    10 10 00000      0910930
3432710010822FREMUR           1 16367  0MURRPT.FIN  01001   0   186060      3911001
3432710010822FREMUR           1 16367  0MURRPT.FIN  011    44 10     0      0911001
3432910010853OPER             1    21  0            01001   0   536410      4911001
3432910010853OPER             1    21  0            011   147 10     0      0911001
3432810010824FREMUR           1 16367  0MURRPT.FIN  01001   0    46515      3911001
3432810010824FREMUR           1 16367  0MURRPT.FIN  011    11 10 00000      0911001
3432610011000PNZOTMP      44425204057249Y           1040000220000000000000000911010
3433010020200DCSOPEN      16316 23665249CSPX BACKUP 0050000300000000000000000911002
3431409241549DCSFRS       16316177547249LJB         0040000010000000000000000911002
3433110020707DCSMINN      16316365203249AIRCO       01001   0  2092375      2911002
3433110020707DCSMINN      16316365203249AIRCO       011   485 10 00000      0911002
3433310030227RAILDATA     16316764607249PNZO RESTORE0040000010000000000000000911003
3433410051349DCSOPEN      16316 23665249KLPG TRIP.DE0040000010000000000000000911005
0133510051422DCSOPEN     000000000000249CONX RESTORE0040000010000000000000000911005
3433510051422DCSOPEN      16316 23665249CONX RESTORE0040000020000000000000000911005
3433710070048DCSOPEN      16316 23665249CONX RESTORE0040000070000000000000000911007
3433810070140DCSOPEN      16316 23665249CONX RESTORE0040000270000000000000000911007
3433610070003DCSMINN      16316365203249PURGE2      0050000100000000000000000911007
3433910070728FREMUR           1 16367  0MURRPT.WKY  01001   0   113250      3911007
3433910070728FREMUR           1 16367  0MURRPT.WKY  011    30 10     0      0911007
3434010070729FREMUR           1 16367  0MURRPT.WKY  01001   0    37750      3911007
3434010070729FREMUR           1 16367  0MURRPT.WKY  011    10 10 00000      0911007
3434110090555DCSOPEN      16316 23665249RCONX RESTOR0040000010000000000000000911009
3434210100714BRUCES       11020 30722  3            01001   0  1668255      2911011
3434210100714BRUCES       11020 30722  3            011   661 10     0      0911011
3434310140000JMS              34311162382105        01001   0     1665      1911014
3434310140000JMS              34311162382105        011     1 10     0      0911014
3434410140839FREMUR           1 16367  0MURRPT.WKY  01001   0   100860      3911014
3434410140839FREMUR           1 16367  0MURRPT.WKY  011    27 10     0      0911014
3434610150114DCSMINN      16316365203249PURGE3      0050000120000000000000000911015
3434710170941ALICIABX     16316453375249ALICIABX    0040000010000000000000000911017
3434810171309ALICIABX     16316453375249ALICIABX    0040000020000000000000000911017
3434910171319ALICIABX     16316453375249LOAD ALICIAB0040000250000000000000000911017
3435010171320ALICIABX     16316453375249LOAD ALICIAB0040000180000000000000000911017
3435110180949DCSOPEN      16316 23665249CENEX RESTOR0040000010000000000000000911018
3435210201907ALICIABX     16316453375249ALICIABX    0040000010000000000000000911021
3435410210623ALICIABX     16316453375249LOAD ALICIAB0040000010000000000000000911021
3435310210602DCSMINN      16316365203249PURGE4      0050000100000000000000000911021
3435510210752FREMUR           1 16367  0MURRPT.WKY  01001   0   135640      3911021
3435510210752FREMUR           1 16367  0MURRPT.WKY  011    36 10     0      0911021
3435610210800DANIELSR         1142734  0FILE SAVE   0050000550000000000000000911021
3435710241336DCSFRS       16316177547249LJB         0070000030001000000000001911024
