3427408300748ALICIABX     16316453375249LOAD CONXTMP0040000250000000000000000910830
3427508300751ALICIABX     16316453375249LOAD CONXTMP0040000250000000000000000910830
3427608300754ALICIABX     16316453375249LOAD CONXTMP0040000250000000000000000910830
3427708300756ALICIABX     16316453375249LOAD CONXTMP0040000250000000000000000910830
3427808300756ALICIABX     16316453375249LOAD CONXTMP0040000220000000000000000910830
3427308300708ALICIABX     16316453375249LOAD ALICIAB0040000100000000000000000910830
3427008261350DCSFRS       16316177547249LJB         0040000010000000000000000910830
3428008301957CNFE         11020136151  3            0040000020000000000000000910830
3428109020000JMS              34311162382105        01001   0     1660      1910902
3428109020000JMS              34311162382105        011     1 10     0      0910902
3428409030138DCSMINN      16316365203249PURGE1      0050000080000000000000000910903
3428509030708DCSMINN      16316365203249AIRCO2      01001   0   103065      1910903
3428509030708DCSMINN      16316365203249AIRCO2      011    34 10 00000      0910903
3428609030649FREMUR           1 16367  0MURRPT.WKY  01001   0   113610      3910903
3428609030649FREMUR           1 16367  0MURRPT.WKY  011    30 10     0      0910903
3428709030650FREMUR           1 16367  0MURRPT.WKY  01001   0    37870      3910903
3428709030650FREMUR           1 16367  0MURRPT.WKY  011    10 10 00000      0910903
3428809030733FREMUR           1 16367  0MURRPT.FIN  01001   0   185460      3910903
3428809030733FREMUR           1 16367  0MURRPT.FIN  011    44 10     0      0910903
3429009031017DCSOPEN      16316 23665249LOUA BKP    0040000010000000000000000910903
3429009031017DCSOPEN      16316 23665249LOUA BKP    0050001110000000000000001910903
3429109031032ALICIABX     16316453375249DCSTEST     0070000010001000000000001910903
3429209030940OPER             1    21  0            01001   0   537250      4910903
3429209030940OPER             1    21  0            011   147 10     0      0910903
3429309031206OPER             1    21  0            01001   0   537250      4910903
3429309031206OPER             1    21  0            011   147 10     0      0910903
3429409070630ALICIABX     16316453375249ALICIABX    0040001040000000000000000910907
3429509071245ALICIABX     16316453375249LOAD ALICIAB0040000220000000000000000910907
3429609090148DCSMINN      16316365203249PURGE2      0050000100000000000000000910909
3429709090911FREMUR           1 16367  0MURRPT.WKY  01001   0   113880      3910909
3429709090911FREMUR           1 16367  0MURRPT.WKY  011    30 10     0      0910909
3429909091023JMILLER          1277731  0NOVADYNE FIL0040000010000000000000000910909
3429909091023JMILLER          1277731  0NOVADYNE FIL0050005890000000000000000910909
3429809090912FREMUR           1 16367  0MURRPT.WKY  01001   0    37960      3910909
3429809090912FREMUR           1 16367  0MURRPT.WKY  011    10 10 00000      0910909
3430009111156DCSOPEN      16316 23665249ARIX.CMD RES0040000010000000000000000910911
3430109120619DCSOPEN      16316 23665249RESTORE PNZO0040000050000000000000000910912
3430209152109PNZOTMP      44425204057249Y           1040001040000000000000000910915
3430209152109PNZOTMP      44425204057249Y           1050001040000000000000000910915
3430309160543DCSMINN      16316365203249PURGE3      0050000140000000000000000910916
3430409160724PNZOTMP      44425204057249Y           1040000080000000000000000910916
3430509160833FREMUR           1 16367  0MURRPT.WKY  01001   0   113370      3910916
3430509160833FREMUR           1 16367  0MURRPT.WKY  011    30 10     0      0910916
3430609160834FREMUR           1 16367  0MURRPT.WKY  01001   0    37790      3910916
3430609160834FREMUR           1 16367  0MURRPT.WKY  011    10 10 00000      0910916
3430709170609FSCORD       11020550743  3NONE        0040000120000000000000000910917
3430809170955DCSFRS       16316177547249LJB         0070000030001000000000001910917
3430809170955DCSFRS       16316177547249LJB         0040000010000000000000000910917
3430909210800DANIELSR         1142734  0FILE SAVE   0050000540000000000000000910921
3431009230000JMS              34311162382105        01001   0     1665      1910923
3431009230000JMS              34311162382105        011     1 10     0      0910923
3431209230800FREMUR           1 16367  0MURRPT.WKY  01001   0   113550      3910923
3431209230800FREMUR           1 16367  0MURRPT.WKY  011    33 10     0      0910923
3431109230306DCSMINN      16316365203249PURGE4      0050000100000000000000000910924
3431609250907DCSMINN      16316365203249PURGE.DATA S0040000010000000000000000910925
3431709251433CONXTMP      42460210571249Y           1040000020000000000000000910925
3431809260433DCSOPEN      16316 23665249KLPG RESTORE0040000020000000000000000910926
3431909260719DCSOPEN      16316 23665249GOSAM RESTOR0040000020000000000000000910926
3432009260831CONXTMP      42460210571249Y           1040000140000000000000000910926
3432109260839CONXTMP      42460210571249Y           1040000240000000000000000910926
