0242901031451DCSMINN      16316365203249ANNUALPRG   0000000000000000000000000000000
0243501070609DCSMINN      16316365203249PURGE3      0000000000000000000000000000000
0243601090737ALICIABX     16316453375249ALICIABX    0000000000000000000000000000000
0243701090756JMILLER          1277731  0SLI ACCOUNT 0000000000000000000000000000000
0243801091130DCSFRS       16316177547249LJB         0000000000000000000000000000000
0243901091257DCSFRS       16316177547249LJB         0000000000000000000000000000000
0244001100741ALICIABX     16316453375249LOAD ALICIAB0000000000000000000000000000000
0244101100746ALICIABX     16316453375249LOAD ALICIAB0000000000000000000000000000000
0244201100746ALICIABX     16316453375249LOAD ALICIAB0000000000000000000000000000000
0244301101402DCSFRS       16316177547249LJB         0000000000000000000000000000000
0144401121137ALICIABX     16316453375249DCSTEST     0000000000000000000000000000000
0144501121139ALICIABX     16316453375249CANCEL REQ. 0000000000000000000000000000000
0244601121141DCSTEST      10525 26014249CONOCO TRIP 0000000000000000000000000000000
0244701121143DCSTEST      10525 26014249CONOCO 1991 0000000000000000000000000000000
0245001131129DCSTEST      10525 26014249CONOCO TRIP 0000000000000000000000000000000
0245101131238DCSFRS       16316177547249LJB         0000000000000000000000000000000
0245501140153DCSMINN      16316365203249PURGE4      0000000000000000000000000000000
0245601151345DCSFRS       16316177547249LJB         0000000000000000000000000000000
0245701161050DCSFRS       16316177547249LJB         0000000000000000000000000000000
0245801161412ALICIABX     16316453375249ALICIABX    0000000000000000000000000000000
0245901161528ALICIABX     16316453375249LOAD ALICIAB0000000000000000000000000000000
0246001161528ALICIABX     16316453375249LOAD ALICIAB0000000000000000000000000000000
0246301200144DCSMINN      16316365203249PURGE1      0000000000000000000000000000000
0246401210800DANIELSR         1142734  0FILE SAVE   0000000000000000000000000000000
0246501221328DCSFRS       16316177547249LJB         0000000000000000000000000000000
0246601221338DCSFRS       16316177547249LJB         0000000000000000000000000000000
0247101280116DCSMINN      16316365203249PURGE2      0000000000000000000000000000000
0218301020911BILLING10        1 44355  0ACTG        0000000000000000000000000000000
0218501021503BILLING10        1 44355  0MAGCON      0000000000000000000000000000000
0218601030854BILLING10        1 44355  0ACTG        0000000000000000000000000000000
0218701030856BILLING10        1 44355  0MAGCON      0000000000000000000000000000000
0219201031829BILLING10        1 44355  0ACTG        0000000000000000000000000000000
0219301032131BILLING10        1 44355  0MAGCON      0000000000000000000000000000000
0219401032332BILLING10        1 44355  0ACTG        0000000000000000000000000000000
0219501041410BILLING10        1 44355  0ACTG        0000000000000000000000000000000
0219601051134FRANK            4111413  2MAGCON      0000000000000000000000000000000
0220001052218BILLING10        1 44355  0MAGCON      0000000000000000000000000000000
0220301060735DCSFRS       16316177547249LJB         0000000000000000000000000000000
0220401060933DCSFRS       16316177547249LJB         0000000000000000000000000000000
0220501061254BILLING10        1 44355  0ACTG        0000000000000000000000000000000
0220901070218DCSMINN      16316365203249PURGE2      0000000000000000000000000000000
0121001070725NETSTAT      21477205635201            0000000000000000000000000000000
0221101071105FRANK            4111413  2MAGCON      0000000000000000000000000000000
0221201071617BILLING10        1 44355  0ACTG        0000000000000000000000000000000
0221401071927PNZOTMP      44425217245249Y           1000000000000000000000000000000
0221501071931CONXTMP      42460317534249Y           1000000000000000000000000000000
0221601071939KLPGTMP      42460313476249Y           1000000000000000000000000000000
0221701081050FRANK            4111413  2MAGCON      0000000000000000000000000000000
0221901081956PNZOTMP      44425217245249Y           1000000000000000000000000000000
0222001082017PNZOTMP      44425217245249Y           1000000000000000000000000000000
0222101082019PNZOTMP      44425217245249Y           1000000000000000000000000000000
0222201082019PNZOTMP      44425217245249Y           1000000000000000000000000000000
0222301082235BILLING10        1 44355  0ACTG        0000000000000000000000000000000
0222401092212BILLING10        1 44355  0MAGCON      0000000000000000000000000000000
0222901101951BILLING10        1 44355  0ACTG        0000000000000000000000000000000
0223001102048BILLING10        1 44355  0MAGCON      0000000000000000000000000000000
0223101111439BILLING10        1 44355  0ACTG        0000000000000000000000000000000
0223201111442BILLING10        1 44355  0MAGCON      0000000000000000000000000000000
0223501112309BILLING10        1 44355  0MAGCON      0000000000000000000000000000000
0223601112310BILLING10        1 44355  0ACTG        0000000000000000000000000000000
0223701120959BILLING10        1 44355  0ACTG        0000000000000000000000000000000
0124001122248CONXTMP      42460317534249Y           1000000000000000000000000000000
0124101122248CONXTMP      42460317534249Y           1000000000000000000000000000000
0224201131442FRANK            4111413  2MAGCON      0000000000000000000000000000000
0224301132055CONXTMP      42460317534249Y           1000000000000000000000000000000
0224401132056CONXTMP      42460317534249Y           1000000000000000000000000000000
0224501132057CONXTMP      42460317534249Y           1000000000000000000000000000000
0224601131902BILLING10        1 44355  0ACTG        0000000000000000000000000000000
0224701141503FRANK            4111413  2MAGCON      0000000000000000000000000000000
0225001150909BILLING10        1 44355  0ACTG        0000000000000000000000000000000
0225201151953KLPGTMP      42460313476249Y           1000000000000000000000000000000
0225301152029BILLING10        1 44355  0MAGCON      0000000000000000000000000000000
0225401161555KLPGTMP      42460313476249LOAD KLPGTMP1000000000000000000000000000000
0225501161556KLPGTMP      42460313476249LOAD KLPGTMP1000000000000000000000000000000
0225601161403BILLING10        1 44355  0ACTG        0000000000000000000000000000000
0225701162302BILLING10        1 44355  0MAGCON      0000000000000000000000000000000
0226001171325CONXTMP      42460317534249Y           1000000000000000000000000000000
0126301171755CONXTMP      42460317534249Y           1000000000000000000000000000000
0226501180005BILLING10        1 44355  0ACTG        0000000000000000000000000000000
0226601180900FRANK            4111413  2MAGCON      0000000000000000000000000000000
0226801181514NETSTAT      21477205635201FILE RECOVER0000000000000000000000000000000
0227101182032BILLING10        1 44355  0ACTG        0000000000000000000000000000000
0227201182347BILLING10        1 44355  0MAGCON      0000000000000000000000000000000
0227301190816BILLING10        1 44355  0ACTG        0000000000000000000000000000000
0227401191616FRANK            4111413  2MAGCON      0000000000000000000000000000000
0227501192105BILLING10        1 44355  0ACTG        0000000000000000000000000000000
0227601192204BILLING10        1 44355  0MAGCON      0000000000000000000000000000000
0227901201822BILLING10        1 44355  0ACTG        0000000000000000000000000000000
0228001210800DANIELSR         1142734  0FILE SAVE   0000000000000000000000000000000
0228101211109DCSFRS       16316177547249LJB         0000000000000000000000000000000
0228401211218FRANK            4111413  2MAGCON      0000000000000000000000000000000
0228601220830BILLING10        1 44355  0ACTG        0000000000000000000000000000000
0228701221521FRANK            4111413  2MAGCON      0000000000000000000000000000000
0228801231553BILLING10        1 44355  0ACTG        0000000000000000000000000000000
0228901232356BILLING10        1 44355  0MAGCON      0000000000000000000000000000000
0229101240946BILLING10        1 44355  0ACTG        0000000000000000000000000000000
0229401241509CONXTMP      42460317534249Y           1000000000000000000000000000000
0229601242358BILLING10        1 44355  0MAGCON      0000000000000000000000000000000
0229901261042FRANK            4111413  2MAGCON      0000000000000000000000000000000
0230001261336FRANK            4111413  2ACTG        0000000000000000000000000000000
0230101262045BILLING10        1 44355  0ACTG        0000000000000000000000000000000
0230401262226BILLING10        1 44355  0MAGCON      0000000000000000000000000000000
0230501270933BILLING10        1 44355  0ACTG        0000000000000000000000000000000
0230601272243BILLING10        1 44355  0MAGCON      0000000000000000000000000000000
0230701281009BILLING10        1 44355  0ACTG        0000000000000000000000000000000
0230801281516DCSFRS       16316177547249LJB         0000000000000000000000000000000
0231001282329BILLING10        1 44355  0MAGCON      0000000000000000000000000000000
0231101291012BILLING10        1 44355  0ACTG        0000000000000000000000000000000
0231201291440FRANK            4111413  2MAGCON      0000000000000000000000000000000
0231301300934BILLING10        1 44355  0ACTG        0000000000000000000000000000000
0231401301124BILLING10        1 44355  0MAGCON      0000000000000000000000000000000
0231501301945KLPGTMP      42460313476249KOCH RESTORE1000000000000000000000000000000
0231601301949ALICIABX     16316453375249RESTORE PENN0000000000000000000000000000000
0231801310953BILLING10        1 44355  0MAGCON      0000000000000000000000000000000
0232101311154BILLING10        1 44355  0ACTG        0000000000000000000000000000000
0132301311622ALICIABX     16316453375249FOLLOW-UP TO0000000000000000000000000000000
0232401312319BILLING10        1 44355  0MAGCON      0000000000000000000000000000000
0233302012221BILLING10        1 44355  0ACTG        0000000000000000000000000000000
0233402020919BILLING10        1 44355  0ACTG        0000000000000000000000000000000
0233502021041FRANK            4111413  2MAGCON      0000000000000000000000000000000
0233602021608BILLING10        1 44355  0ACTG        0000000000000000000000000000000
0234202030852DCSFRS       16316177547249LJB         0000000000000000000000000000000
0234302031115DCSFRS       16316177547249LJB         0000000000000000000000000000000
0134402031016FRANK            4111413  2ATTT TAPE MV0000000000000000000000000000000
0234502031613FRANK            4111413  2MAGCON      0000000000000000000000000000000
0235002041000BILLING10        1 44355  0ACTG        0000000000000000000000000000000
0235202042259BILLING10        1 44355  0MAGCON      0000000000000000000000000000000
0235302051842BILLING10        1 44355  0ACTG        0000000000000000000000000000000
0235402052241BILLING10        1 44355  0MAGCON      0000000000000000000000000000000
0235502060910BILLING10        1 44355  0ACTG        0000000000000000000000000000000
0235602062314BILLING10        1 44355  0MAGCON      0000000000000000000000000000000
0235902071138BILLING10        1 44355  0ACTG        0000000000000000000000000000000
0236502081022FRANK            4111413  2MAGCON      0000000000000000000000000000000
0236802091422BILLING10        1 44355  0ACTG        0000000000000000000000000000000
0236902091450FRANK            4111413  2MAGCON      0000000000000000000000000000000
0237102100854NETSTAT      21477205635201A B FILE REC0000000000000000000000000000000
0237202101454FRANK            4111413  2MAGCON      0000000000000000000000000000000
0237302101721FRANK            4111413  2ACTG        0000000000000000000000000000000
0237402102233BILLING10        1 44355  0ACTG        0000000000000000000000000000000
0237502110849BILLING10        1 44355  0ACTG        0000000000000000000000000000000
0237602111213FRANK            4111413  2MAGCON      0000000000000000000000000000000
0237802121347BILLING10        1 44355  0ACTG        0000000000000000000000000000000
0237902121354FRANK            4111413  2MAGCON      0000000000000000000000000000000
0238002130028BILLING10        1 44355  0MAGCON      0000000000000000000000000000000
0238102131248CONXTMP      42460317534249Y           1000000000000000000000000000000
0238202131655PNZOTMP      44425217245249Y           1000000000000000000000000000000
0238302131700PNZOTMP      44425217245249Y           1000000000000000000000000000000
0238402140816BILLING10        1 44355  0ACTG        0000000000000000000000000000000
0238602141210PNZOTMP      44425217245249LOAD PNZOTMP1000000000000000000000000000000
0238902141344BILLING10        1 44355  0MAGCON      0000000000000000000000000000000
0239102151326BILLING10        1 44355  0ACTG        0000000000000000000000000000000
0239402161050NETSTAT      21477205635201FILE RECOVER0000000000000000000000000000000
0239802161833BILLING10        1 44355  0ACTG        0000000000000000000000000000000
0239902170952DCSFRS       16316177547249LJB         0000000000000000000000000000000
0140002170957DCSFRS       16316177547249LJB         0000000000000000000000000000000
0240102170825FRANK            4111413  2MAGCON      0000000000000000000000000000000
0240302170931OPER             1    21  0            0000000000000000000000000000000
0240402171413FRANK            4111413  2RE-MAKE OF D0000000000000000000000000000000
0240502180810BILLING10        1 44355  0ACTG        0000000000000000000000000000000
0240602180847FRANK            4111413  2MAGCON      0000000000000000000000000000000
0240702181413FRANK            4111413  2MAGCON      0000000000000000000000000000000
0240902181955BILLING10        1 44355  0ACTG        0000000000000000000000000000000
0241002190813BILLING10        1 44355  0ACTG        0000000000000000000000000000000
0241102190939FRANK            4111413  2MAGCON      0000000000000000000000000000000
0241202191415FRANK            4111413  2MAGCON      0000000000000000000000000000000
0241302200013BILLING10        1 44355  0ACTG        0000000000000000000000000000000
0241402210800DANIELSR         1142734  0FILE SAVE   0000000000000000000000000000000
0241602210957BILLING10        1 44355  0MAGCON      0000000000000000000000000000000
0241702211039BILLING10        1 44355  0ACTG        0000000000000000000000000000000
0242702221614FRANK            4111413  2MAGCON      0000000000000000000000000000000
0242802221800FRANK            4111413  2ACTG        0000000000000000000000000000000
0242902230901FRANK            4111413  2MAGCON      0000000000000000000000000000000
0243002230957BILLING10        1 44355  0ACTG        0000000000000000000000000000000
0243102231402DCSFRS       16316177547249LJB         0000000000000000000000000000000
0243202231404DCSFRS       16316177547249LJB         0000000000000000000000000000000
0243402240011BILLING10        1 44355  0ACTG        0000000000000000000000000000000
0243502240042BILLING10        1 44355  0MAGCON      0000000000000000000000000000000
0243702241543FRANK            4111413  2MAGCON      0000000000000000000000000000000
0243802242354BILLING10        1 44355  0ACTG        0000000000000000000000000000000
0243902250840FRANK            4111413  2MAGCON      0000000000000000000000000000000
0244102260814BILLING10        1 44355  0ACTG        0000000000000000000000000000000
0244202260828FRANK            4111413  2MAGCON      0000000000000000000000000000000
0244302271057BILLING10        1 44355  0MAGCON      0000000000000000000000000000000
0244402271602BILLING10        1 44355  0ACTG        0000000000000000000000000000000
0244502280006BILLING10        1 44355  0MAGCON      0000000000000000000000000000000
0244702282019BILLING10        1 44355  0ACTG        0000000000000000000000000000000
0244802282247BILLING10        1 44355  0MAGCON      0000000000000000000000000000000
0245803011925SILVAM           1230617  0MTHFEB      0 1     8 10000000      0930301
0245903020755SRA              1215254  0USEVAL DIREC0000000000000000000000000000000
0246003020843BILLING10        1 44355  0ACTG        0000000000000000000000000000000
0246103020841SRA              1215254  0USEVAL FILES0000000000000000000000000000000
0246203020850FRANK            4111413  2MAGCON      0000000000000000000000000000000
0246303021455DCSFRS       16316177547249LJB         0000000000000000000000000000000
0246403021540DCSFRS       16316177547249LJB         0000000000000000000000000000000
0246603022239BILLING10        1 44355  0ACTG        0000000000000000000000000000000
0146703030857FRANK            4111413  2ATTT TAPE MV0000000000000000000000000000000
0246803031102FRANK            4111413  2MAGCON      0000000000000000000000000000000
0246903032003BILLING10        1 44355  0ACTG        0000000000000000000000000000000
0247003040810FRANK            4111413  2MAGCON      0000000000000000000000000000000
0247103041504FRANK            4111413  2MAGCON      0000000000000000000000000000000
0247303042108KLPGTMP      42460313476249Y           1000000000000000000000000000000
0247403042139PNZOTMP      44425217245249Y           1000000000000000000000000000000
0247503050824BILLING10        1 44355  0ACTG        0000000000000000000000000000000
0247603051032DCSFRS       16316177547249LJB         0000000000000000000000000000000
0247703051347FRANK            4111413  2MAGCON      0000000000000000000000000000000
0247803061135PNZOTMP      44425217245249LOAD PNZOTMP1000000000000000000000000000000
0247903061136PNZOTMP      44425217245249LOAD PNZOTMP1000000000000000000000000000000
0248003061234DCSMINN      16316365203249PURGE3      0000000000000000000000000000000
0248103061246DCSMINN      16316365203249PURGE4      0000000000000000000000000000000
0248203061346DCSMINN      16316365203249PURGE2      0000000000000000000000000000000
0248303061444PNZOTMP      44425217245249LOAD PNZOTMP1000000000000000000000000000000
0248403061446PNZOTMP      44425217245249LOAD PNZOTMP1000000000000000000000000000000
0248503061446PNZOTMP      44425217245249LOAD PNZOTMP1000000000000000000000000000000
0248603061542DCSMINN      16316365203249PURGE1      0000000000000000000000000000000
0249203061628BILLING10        1 44355  0ACTG        0000000000000000000000000000000
0249303061652BILLING10        1 44355  0MAGCON      0000000000000000000000000000000
0249403062SMINN      16316365203249PURGE2      0000000000000000000000000000000
0249503070822BILLING10        1 44355  0ACTG        0000000000000000000000000000000
0149803072224DCSMINN      16316365203249PURGE6      0000000000000000000000000000000
0249903072226DCSMINN      16316365203249PURGE6      0000000000000000000000000000000
0250003072316BILLING10        1 44355  0MAGCON      0000000000000000000000000000000
0250103080832BILLING10        1 44355  0ACTG        0000000000000000000000000000000
0250203081228BILLING10        1 44355  0MAGCON      0000000000000000000000000000000
0250403081748SILVAM           1230617  0WK0301      0 1     6 10000000      0930308
0250503090817BILLING10        1 44355  0ACTG        0000000000000000000000000000000
0250603090901FRANK            4111413  2MAGCON      0000000000000000000000000000000
0250703091119JCLMIN       11447271412  0JCLMIN      0000000000000000000000000000000
0250903092345BILLING10        1 44355  0ACTG        0000000000000000000000000000000
0251103111622FRANK            4111413  2MAGCON      0000000000000000000000000000000
0251303112205BILLING10        1 44355  0ACTG        0000000000000000000000000000000
0251403121156FRANK            4111413  2MAGCON      0000000000000000000000000000000
0251503130834BILLING10        1 44355  0ACTG        0000000000000000000000000000000
0251603131035DCSMINN      16316365203249PURGE6      0000000000000000000000000000000
0251703131253BILLING10        1 44355  0MAGCON      0000000000000000000000000000000
0251803140815BILLING10        1 44355  0ACTG        0000000000000000000000000000000
0251903140942BILLING10        1 44355  0MAGCON      0000000000000000000000000000000
0152003141850ZUMMO        11020 33411  3NONE        0000000000000000000000000000000
0252303142326FREMUR           1 16367  0WK0308      0 1     6 10000000      0930314
0252403150933DCSFRS       16316177547249LJB         0000000000000000000000000000000
0252503150936DCSFRS       16316177547249LJB         0000000000000000000000000000000
0252603150815BILLING10        1 44355  0ACTG        0000000000000000000000000000000
0252703151010FRANK            4111413  2MAGCON      0000000000000000000000000000000
0252803152000BILLING10        1 44355  0ACTG        0000000000000000000000000000000
0252903160516BILLING10        1 44355  0ACTG        0000000000000000000000000000000
0253003160850FRANK            4111413  2MAGCON      0000000000000000000000000000000
0253603171533FRANK            4111413  2MAGCON      0000000000000000000000000000000
0253703180000BILLING10        1 44355  0ACTG        0000000000000000000000000000000
0253803181407FRANK            4111413  2MAGCON      0000000000000000000000000000000
0254003182233BILLING10        1 44355  0ACTG        0000000000000000000000000000000
0254103191343FRANK            4111413  2MAGCON      0000000000000000000000000000000
0254203192342BILLING10        1 44355  0ACTG        0000000000000000000000000000000
0254303201542BILLING10        1 44355  0MAGCON      0000000000000000000000000000000
0254403210803DANIELSR         1142734  0FILE SAVE   0000000000000000000000000000000
0254503211004BILLING10        1 44355  0ACTG        0000000000000000000000000000000
0254903212337BILLING10        1 44355  0MAGCON      0000000000000000000000000000000
0255103220327DCSMINN      16316365203249PURGE1      0000000000000000000000000000000
0255203220551BILLING10        1 44355  0ACTG        0000000000000000000000000000000
0255303221052DCSFRS       16316177547249LJB         0000000000000000000000000000000
0255403221104DCSFRS       16316177547249LJB         0000000000000000000000000000000
0255503221449FRANK            4111413  2MAGCON      0000000000000000000000000000000
0255603230156BILLING10        1 44355  0ACTG        0000000000000000000000000000000
0255703231304FRANK            4111413  2MAGCON      0000000000000000000000000000000
0255903231917BILLING10        1 44355  0ACTG        0000000000000000000000000000000
0256003241553FRANK            4111413  2MAGCON      0000000000000000000000000000000
0256103251220BILLING10        1 44355  0ACTG        0000000000000000000000000000000
0256203251843CONXTMP      42460317534249Y           1000000000000000000000000000000
0256303251851KLPGTMP      42460313476249Y           1000000000000000000000000000000
0256503261248BILLING10        1 44355  0ACTG        0000000000000000000000000000000
0256603261306FRANK            4111413  2MAGCON      0000000000000000000000000000000
0256803261902KLPGTMP      42460313476249LOAD KLPGTMP1000000000000000000000000000000
0256903261903KLPGTMP      42460313476249LOAD KLPGTMP1000000000000000000000000000000
0257003261917CONXTMP      42460317534249Y           1000000000000000000000000000000
0257103261918CONXTMP      42460317534249Y           1000000000000000000000000000000
0257403290102DCSMINN      16316365203249PURGE2      0000000000000000000000000000000
0257503282311BILLING10        1 44355  0MAGCON      0000000000000000000000000000000
0257303282240FREMUR           1 16367  0WK0322      0 1     6 10000000       930328
0257603290821BILLING10        1 44355  0ACTG        0000000000000000000000000000000
0257703291502FRANK            4111413  2MAGCON      0000000000000000000000000000000
0257803300814BILLING10        1 44355  0ACTG        0000000000000000000000000000000
0257903301408BILLING10        1 44355  0ACTG        0000000000000000000000000000000
0258003301411FRANK            4111413  2MAGCON      0000000000000000000000000000000
0258204010041BILLING10        1 44355  0ACTG        0000000000000000000000000000000
0258304010809BILLING10        1 44355  0MAGCON      0000000000000000000000000000000
0258504011037BILLING10        1 44355  0MAGCON      0000000000000000000000000000000
0259404021549FRANK            4111413  2MAGCON      0000000000000000000000000000000
0259504021559BILLING10        1 44355  0ACTG        0000000000000000000000000000000
0259904031524BILLING10        1 44355  0ACTG        0000000000000000000000000000000
0260304041240BILLING10        1 44355  0ACTG        0000000000000000000000000000000
0260404041244BILLING10        1 44355  0MAGCON      0000000000000000000000000000000
0260604051535FRANK            4111413  2MAGCON      0000000000000000000000000000000
0260804051942BILLING10        1 44355  0ACTG        0000000000000000000000000000000
0260904052106BILLING10        1 44355  0MAGCON      0000000000000000000000000000000
0161304060835FRANK            4111413  2ATTT TAPE MV0000000000000000000000000000000
0261404061120BILLING10        1 44355  0ACTG        0000000000000000000000000000000
0261504061601FRANK            4111413  2MAGCON      0000000000000000000000000000000
0261704062344BILLING10        1 44355  0ACTG        0000000000000000000000000000000
0261804070311DCSMINN      16316365203249PURGE3      0000000000000000000000000000000
0261904071742BILLING10        1 44355  0MAGCON      0000000000000000000000000000000
0262004080840BILLING10        1 44355  0ACTG        0000000000000000000000000000000
0262104080957BILLING10        1 44355  0MAGCON      0000000000000000000000000000000
0262204091023JCLMIN       11447271412  0JULIAN      0000000000000000000000000000000
0262304091425BILLING10        1 44355  0ACTG        0000000000000000000000000000000
0262404102324BILLING10        1 44355  0MAGCON      0000000000000000000000000000000
0262504111023BILLING10        1 44355  0ACTG        0000000000000000000000000000000
0262604111032BILLING10        1 44355  0MAGCON      0000000000000000000000000000000
0263604120523DCSMINN      16316365203249PURGE4      0000000000000000000000000000000
0263704122132RAILDATA     16316764607249RESTORE RAIL0000000000000000000000000000000
0263804130810BILLING10        1 44355  0ACTG        0000000000000000000000000000000
0263904131554FRANK            4111413  2MAGCON      0000000000000000000000000000000
0264004141111BILLING10        1 44355  0ACTG        0000000000000000000000000000000
0264104141300FRANK            4111413  2MAGCON      0000000000000000000000000000000
0264204150817BILLING10        1 44355  0ACTG        0000000000000000000000000000000
0264304151406FRANK            4111413  2MAGCON      0000000000000000000000000000000
0264504161053BILLING10        1 44355  0ACTG        0000000000000000000000000000000
0264604161317FRANK            4111413  2MAGCON      0000000000000000000000000000000
0264704171157BILLING10        1 44355  0ACTG        0000000000000000000000000000000
0264804171651BILLING10        1 44355  0MAGCON      0000000000000000000000000000000
0265104181203BILLING10        1 44355  0ACTG        0000000000000000000000000000000
0265504190824FRANK            4111413  2MAGCON      0000000000000000000000000000000
0265604192151BILLING10        1 44355  0ACTG        0000000000000000000000000000000
0265704192306BILLING10        1 44355  0MAGCON      0000000000000000000000000000000
0265804200728DCSMINN      16316365203249PURGE1      0000000000000000000000000000000
0265904200839BILLING10        1 44355  0ACTG        0000000000000000000000000000000
0266104210800DANIELSR         1142734  0FILE SAVE   0000000000000000000000000000000
0266204210821FRANK            4111413  2MAGCON      0000000000000000000000000000000
0266604220034BILLING10        1 44355  0ACTG        0000000000000000000000000000000
0266804221246FRANK            4111413  2MAGCON      0000000000000000000000000000000
0266904231222BILLING10        1 44355  0ACTG        0000000000000000000000000000000
0267004231256FRANK            4111413  2MAGCON      0000000000000000000000000000000
0267104252316BILLING10        1 44355  0ACTG        0000000000000000000000000000000
0167204252326BILLING10        1 44355  0MAGCON      0000000000000000000000000000000
0267304260916FRANK            4111413  2MAGCON      0000000000000000000000000000000
0267404261847CONXTMP      42460317534249CONOCO '92 T1000000000000000000000000000000
0167704270853FRANK            4111413  2ATT TAPE MVS0000000000000000000000000000000
0267804271127DCSFRS       16316177547249LJB         0000000000000000000000000000000
0267904280517DCSMINN      16316365203249PURGE2      0000000000000000000000000000000
0268104280851BILLING10        1 44355  0ACTG        0000000000000000000000000000000
0268204281052FRANK            4111413  2MAGCON      0000000000000000000000000000000
0268404282254BILLING10        1 44355  0ACTG        0000000000000000000000000000000
0268504291019FRANK            4111413  2MAGCON      0000000000000000000000000000000
0268804300848BILLING10        1 44355  0ACTG        0000000000000000000000000000000
0268904300859FRANK            4111413  2MAGCON      0000000000000000000000000000000
0269004301950BILLING10        1 44355  0ACTG        0000000000000000000000000000000
0269105010746DCSMINN      16316365203249AIRCO       0 1   516 10000000       930501
0269305011744BILLING10        1 44355  0ACTG        0000000000000000000000000000000
0269405012247BILLING10        1 44355  0MAGCON      0000000000000000000000000000000
0169505020240BILLING10        1 44355  0MAGCON      0000000000000000000000000000000
0269605020923BILLING10        1 44355  0MAGCON      0000000000000000000000000000000
0269705021528BILLING10        1 44355  0MAGCON      0000000000000000000000000000000
0270005022324FREMUR           1 16367  0MUR         0 1     6 10000000       930503
0270305022329FREMUR           1 16367  0            0 1     8 10000000       930503
0270505030917BILLING10        1 44355  0ACTG        0000000000000000000000000000000
0270705040239DCSMINN      16316365203249PURGE3      0000000000000000000000000000000
0270805040824BILLING10        1 44355  0ACTG        0000000000000000000000000000000
0270905040941FRANK            4111413  2MAGCON      0000000000000000000000000000000
0271105041519BILLING10        1 44355  0ACTG        0000000000000000000000000000000
0271005041515DCSMINN      16316365203249AIRCO2      0 1    27 10000000       930504
0171405051520FRANK            4111413  2MAGCON      0000000000000000000000000000000
0271505060655DCSMINN      16316365203249PURGE4      0000000000000000000000000000000
0271905061011BILLING10        1 44355  0ACTG        0000000000000000000000000000000
0272105061322FRANK            4111413  2MAGCON      0000000000000000000000000000000
0272305071346FRANK            4111413  2MAGCON      0000000000000000000000000000000
0272405081331BILLING10        1 44355  0ACTG        0000000000000000000000000000000
0272505082252BILLING10        1 44355  0MAGCON      0000000000000000000000000000000
0272805101219BILLING10        1 44355  0ACTG        0000000000000000000000000000000
0272905101222BILLING10        1 44355  0MAGCON      0000000000000000000000000000000
0273005102204BILLING10        1 44355  0ACTG        0000000000000000000000000000000
0273505111055BILLING10        1 44355  0ACTG        0000000000000000000000000000000
0273605111602BILLING10        1 44355  0MAGCON      0000000000000000000000000000000
0273705121407BILLING10        1 44355  0MAGCON      0000000000000000000000000000000
0273805130145DCSMINN      16316365203249PURGE1      0000000000000000000000000000000
0273905130017BILLING10        1 44355  0ACTG        0000000000000000000000000000000
0274005130849BILLING10        1 44355  0MAGCON      0000000000000000000000000000000
0274205150813BILLING10        1 44355  0ACTG        0000000000000000000000000000000
0274305150821BILLING10        1 44355  0MAGCON      0000000000000000000000000000000
0274405152316BILLING10        1 44355  0MAGCON      0000000000000000000000000000000
0274505161047BILLING10        1 44355  0ACTG        0000000000000000000000000000000
0274605161058BILLING10        1 44355  0MAGCON      0000000000000000000000000000000
0274905170256BILLING10        1 44355  0ACTG        0000000000000000000000000000000
0275005171358BILLING10        1 44355  0ACTG        0000000000000000000000000000000
0275105171451FRANK            4111413  2MAGCON      0000000000000000000000000000000
0275305181104NETSTAT      21477205635201FILES 34 TO 0000000000000000000000000000000
0275405181340FRANK            4111413  2MAGCON      0000000000000000000000000000000
0175605182000BILLING10        1 44355  0ACTG        0000000000000000000000000000000
0275705182007BILLING10        1 44355  0ACTG        0000000000000000000000000000000
0275805191520DCSFRS       16316177547249LJB         0000000000000000000000000000000
0275905191453FRANK            4111413  2MAGCON      0000000000000000000000000000000
0276005200000BILLING10        1 44355  0ACTG        0000000000000000000000000000000
0176105201306FRANK            4111413  2ATT TAPE MVS0000000000000000000000000000000
0276205201412FRANK            4111413  2MAGCON      0000000000000000000000000000000
0276405210800DANIELSR         1142734  0FILE SAVE   0000000000000000000000000000000
0276505210850BILLING10        1 44355  0ACTG        0000000000000000000000000000000
0276605211446FRANK            4111413  2MAGCON      0000000000000000000000000000000
0276705220720BILLING10        1 44355  0ACTG        0000000000000000000000000000000
0276805230839BILLING10        1 44355  0MAGCON      0000000000000000000000000000000
0276905231005BILLING10        1 44355  0MAGCON      0000000000000000000000000000000
0277005231310BILLING10        1 44355  0ACTG        0000000000000000000000000000000
0277705240122FREMUR           1 16367  0            0 1     6 10000000       930524
0277805241042FRANK            4111413  2MAGCON      0000000000000000000000000000000
0277905250948BILLING10        1 44355  0ACTG        0000000000000000000000000000000
0278005251310FRANK            4111413  2MAGCON      0000000000000000000000000000000
0278105251607BILLING10        1 44355  0ACTG        0000000000000000000000000000000
0278305261350FRANK            4111413  2MAGCON      0000000000000000000000000000000
0278405271318DCSFRS       16316177547249LJB         0000000000000000000000000000000
0278505271217BILLING10        1 44355  0ACTG        0000000000000000000000000000000
0278905281202BILLING10        1 44355  0ACTG        0000000000000000000000000000000
0279005281205FRANK            4111413  2MAGCON      0000000000000000000000000000000
0279105281551FRANK            4111413  2MAGCON      0000000000000000000000000000000
0279205291439BILLING10        1 44355  0ACTG        0000000000000000000000000000000
0279305291520BILLING10        1 44355  0MAGCON      0000000000000000000000000000000
0279405301121BILLING10        1 44355  0ACTG        0000000000000000000000000000000
0279505301551BILLING10        1 44355  0MAGCON      0000000000000000000000000000000
0279605302336BILLING10        1 44355  0ACTG        0000000000000000000000000000000
0279705311033BILLING10        1 44355  0MAGCON      0000000000000000000000000000000
0279805311035BILLING10        1 44355  0MAGCON      0000000000000000000000000000000
0279905311226BILLING10        1 44355  0ACTG        0000000000000000000000000000000
0280105312223SILVAM           1230617  0WK0524      0 1     6 10000000       930531
0280305312246SILVAM           1230617  0MTHMAY      0 1     8 10000000       930531
0280506011548BILLING10        1 44355  0ACTG        0000000000000000000000000000000
0280706021406FRANK            4111413  2MAGCON      0000000000000000000000000000000
0280906021924DCSMINN      16316365203249AIRCO2      0 1     4 10000000       930603
0280806021922DCSMINN      16316365203249AIRCO       0 1    14 10000000       930603
0281006021953DCSMINN      16316365203249AIRCO       0 1   567 10000000       930603
0281106021954DCSMINN      16316365203249AIRCO2      0 1    27 10000000       930603
0280406010726DCSMINN      16316365203249AIRCO       0 1    14 10000000       930603
0281306041420FRANK            4111413  2MAGCON      0000000000000000000000000000000
0281406041421FRANK            4111413  2MAGCON      0000000000000000000000000000000
0281506042352BILLING10        1 44355  0ACTG        0000000000000000000000000000000
0281606060806BILLING10        1 44355  0MAGCON      0000000000000000000000000000000
0281706061506BILLING10        1 44355  0MAGCON      0000000000000000000000000000000
0281906062341BILLING10        1 44355  0ACTG        0000000000000000000000000000000
0282206070837DCSFRS       16316177547249LJB         0000000000000000000000000000000
0282306070842DCSFRS       16316177547249LJB         0000000000000000000000000000000
0282506081237BILLING10        1 44355  0ACTG        0000000000000000000000000000000
0282606081526FRANK            4111413  2MAGCON      0000000000000000000000000000000
0282806082059BILLING10        1 44355  0ACTG        0000000000000000000000000000000
0283106091159FRANK            4111413  2MAGCON      0000000000000000000000000000000
0283306100346BILLING10        1 44355  0ACTG        0000000000000000000000000000000
0283406101421FRANK            4111413  2MAGCON      0000000000000000000000000000000
0283606110854BILLING10        1 44355  0ACTG        0000000000000000000000000000000
0283706111457BILLING10        1 44355  0MAGCON      0000000000000000000000000000000
0283806112333BILLING10        1 44355  0ACTG        0000000000000000000000000000000
0283906121415BILLING10        1 44355  0MAGCON      0000000000000000000000000000000
0284006131103BILLING10        1 44355  0ACTG        0000000000000000000000000000000
0284106131111BILLING10        1 44355  0MAGCON      0000000000000000000000000000000
0284206131528BILLING10        1 44355  0MAGCON      0000000000000000000000000000000
0284406132346BILLING10        1 44355  0ACTG        0000000000000000000000000000000
0284806140628DCSMINN      16316365203249PURGE1      0000000000000000000000000000000
0284906141336BILLING10        1 44355  0ACTG        0000000000000000000000000000000
0285006141501FRANK            4111413  2MAGCON      0000000000000000000000000000000
0285106161331FRANK            4111413  2MAGCON      0000000000000000000000000000000
0285206170159BILLING10        1 44355  0ACTG        0000000000000000000000000000000
0285306171616JMS              3431116238            0000000000000000000000000000000
0285406181028DCSOPEN      16316 23665249            0000000000000000000000000000000
0285506190044BILLING10        1 44355  0MAGCON      0000000000000000000000000000000
0285606191145BILLING10        1 44355  0ACTG        0000000000000000000000000000000
0285706200002BILLING10        1 44355  0MAGCON      0000000000000000000000000000000
0285806202310BILLING10        1 44355  0MAGCON      0000000000000000000000000000000
0286006210017FREMUR           1 16367  0            0 1     6 10000000       930621
0286106210144BILLING10        1 44355  0ACTG        0000000000000000000000000000000
0286206210402DCSMINN      16316365203249PURGE2      0000000000000000000000000000000
0286306210800DANIELSR         1142734  0FILE SAVE   0000000000000000000000000000000
0286506211517BILLING10        1 44355  0ACTG        0000000000000000000000000000000
0286606211524BILLING10        1 44355  0MAGCON      0000000000000000000000000000000
0286706212228BILLING10        1 44355  0MAGCON      0000000000000000000000000000000
0186806230915FRANK            4111413  2ATT TAPE MVS0000000000000000000000000000000
0287006240046BILLING10        1 44355  0MAGCON      0000000000000000000000000000000
0287106240839BILLING10        1 44355  0ACTG        0000000000000000000000000000000
0287206241451FRANK            4111413  2MAGCON      0000000000000000000000000000000
0287306250816BILLING10        1 44355  0ACTG        0000000000000000000000000000000
0287406251511FRANK            4111413  2MAGCON      0000000000000000000000000000000
0287506252350BILLING10        1 44355  0ACTG        0000000000000000000000000000000
0287606262312BILLING10        1 44355  0MAGCON      0000000000000000000000000000000
0287706272339BILLING10        1 44355  0ACTG        0000000000000000000000000000000
0287806272344BILLING10        1 44355  0MAGCON      0000000000000000000000000000000
0188106280758DBAMIKE      32120 67260201            0000000000000000000000000000000
0288006272349FREMUR           1 16367  0            0 1     6 10000000      0930628
0288506290534NETDETAIL    21477 54130201            0000000000000000000000000000000
0288606290818BILLING10        1 44355  0ACTG        0000000000000000000000000000000
0288706291331FRANK            4111413  2MAGCON      0000000000000000000000000000000
0288806291503BILLING10        1 44355  0ACTG        0000000000000000000000000000000
0288906300357NETDETAIL    21477 54130201            0000000000000000000000000000000
0289007010524NETDETAIL    21477 54130201            0000000000000000000000000000000
0289507011502FRANK            4111413  2MAGCON      0000000000000000000000000000000
0289607020355DCSMINN      16316365203249PURGE3      0000000000000000000000000000000
0289707020620NETDETAIL    21477 54130201            0000000000000000000000000000000
0290207021015SRA              1215254  0TAPELIB     0000000000000000000000000000000
0290507030004BILLING10        1 44355  0MAGCON      0000000000000000000000000000000
0290607030045NETDETAIL    21477 54130201            0000000000000000000000000000000
0290707030408BILLING10        1 44355  0ACTG        0000000000000000000000000000000
0290807031213BILLING10        1 44355  0MAGCON      0000000000000000000000000000000
0290907040216NETDETAIL    21477 54130201            0000000000000000000000000000000
0291007041127NETDETAIL    21477 54130201            0000000000000000000000000000000
0291107041204BILLING10        1 44355  0ACTG        0000000000000000000000000000000
0291207041552BILLING10        1 44355  0MAGCON      0000000000000000000000000000000
0291307042347BILLING10        1 44355  0ACTG        0000000000000000000000000000000
0291507050200NETDETAIL    21477 54130201            0000000000000000000000000000000
0291607051422BILLING10        1 44355  0MAGCON      0000000000000000000000000000000
0291707051423BILLING10        1 44355  0MAGCON      0000000000000000000000000000000
0292007060238NETDETAIL    21477 54130201            0000000000000000000000000000000
0292107060628BILLING10        1 44355  0ACTG        0000000000000000000000000000000
0292207061424BILLING10        1 44355  0ACTG        0000000000000000000000000000000
0292307070529DCSMINN      16316365203249PURGE4      0000000000000000000000000000000
0292407070427NETDETAIL    21477 54130201            0000000000000000000000000000000
0293107071516UAS              4125552  2FILE RECOVER0000000000000000000000000000000
0293207080415NETDETAIL    21477 54130201            0000000000000000000000000000000
0293307090409NETDETAIL    21477 54130201            0000000000000000000000000000000
0293407091134FRANK            4111413  2MAGCON      0000000000000000000000000000000
0293507100155NETDETAIL    21477 54130201            0000000000000000000000000000000
0293607102334BILLING10        1 44355  0MAGCON      0000000000000000000000000000000
0293707110339NETDETAIL    21477 54130201            0000000000000000000000000000000
0294007111927BILLING10        1 44355  0ACTG        0000000000000000000000000000000
0294107112056BILLING10        1 44355  0MAGCON      0000000000000000000000000000000
0294207120537NETDETAIL    21477 54130201            0000000000000000000000000000000
0294307121119SRA              1215254  0USEVAL      0000000000000000000000000000000
0294407122216KLPGTMP      42460313476249Y           1000000000000000000000000000000
0294507122217KLPGTMP      42460313476249Y           1000000000000000000000000000000
0294607130001BILLING10        1 44355  0ACTG        0000000000000000000000000000000
0294707130456NETDETAIL    21477 54130201            0000000000000000000000000000000
0294807130722DCSMINN      16316365203249PURGE1      0000000000000000000000000000000
0194907130921FRANK            4111413  2MVS RESTORE 0000000000000000000000000000000
0295007131507BILLING10        1 44355  0MAGCON      0000000000000000000000000000000
0295107131915KLPGTMP      42460313476249LOAD KLPGTMP1000000000000000000000000000000
0295207140409NETDETAIL    21477 54130201            0000000000000000000000000000000
0295307140909BILLING10        1 44355  0ACTG        0000000000000000000000000000000
0295407141022BILLING10        1 44355  0MAGCON      0000000000000000000000000000000
0295507150323NETDETAIL    21477 54130201            0000000000000000000000000000000
0295607151037BILLING10        1 44355  0MAGCON      0000000000000000000000000000000
0295707152144PNZOTMP      44425217245249LOAD PNZOTMP1000000000000000000000000000000
0295807152145PNZOTMP      44425217245249LOAD PNZOTMP1000000000000000000000000000000
0295907152145PNZOTMP      44425217245249LOAD PNZOTMP1000000000000000000000000000000
0296007152146PNZOTMP      44425217245249LOAD PNZOTMP1000000000000000000000000000000
0296107152146PNZOTMP      44425217245249LOAD PNZOTMP1000000000000000000000000000000
0296207161434NETDETAIL    21477 54130201            0000000000000000000000000000000
0296307170436NETDETAIL    21477 54130201            0000000000000000000000000000000
0296407171023KLPGTMP      42460313476249Y           1000000000000000000000000000000
0296607171352KLPGTMP      42460313476249LOAD KLPGTMP1000000000000000000000000000000
0296707171538BILLING10        1 44355  0ACTG        0000000000000000000000000000000
0296807171540BILLING10        1 44355  0MAGCON      0000000000000000000000000000000
0296907180239NETDETAIL    21477 54130201            0000000000000000000000000000000
0197007180713BILLING10        1 44355  0MAGCON      0000000000000000000000000000000
0297307181817FREMUR           1 16367  0MUR         0 1     5 10000000      0930718
0297507182037FREMUR           1 16367  0            0 1     5 10000000      0930718
0297607190639DCSMINN      16316365203249PURGE2      0000000000000000000000000000000
0297707190449NETDETAIL    21477 54130201            0000000000000000000000000000000
0298007191452BILLING10        1 44355  0ACTG        0000000000000000000000000000000
0298307191513BILLING10        1 44355  0MAGCON      0000000000000000000000000000000
0298407200422NETDETAIL    21477 54130201            0000000000000000000000000000000
0298507201526BILLING10        1 44355  0ACTG        0000000000000000000000000000000
0298607210800DANIELSR         1142734  0FILE SAVE   0000000000000000000000000000000
0298707210911OPER             1    21  0            0000000000000000000000000000000
0199007220733DANIELSR         1142734  0TGEST       0000000000000000000000000000000
0299407221230BILLING10        1 44355  0MAGCON      0000000000000000000000000000000
0299507221707NETDETAIL    21477 54130201            0000000000000000000000000000000
0299607230732NETDETAIL    21477 54130201            0000000000000000000000000000000
0299707232146BILLING10        1 44355  0ACTG        0000000000000000000000000000000
0299807232338BILLING10        1 44355  0MAGCON      0000000000000000000000000000000
0299907240346NETDETAIL    21477 54130201            0000000000000000000000000000000
0200107241515BILLING10        1 44355  0ACTG        0000000000000000000000000000000
0200207250254NETDETAIL    21477 54130201            0000000000000000000000000000000
0200307250726BILLING10        1 44355  0ACTG        0000000000000000000000000000000
0200407251132BILLING10        1 44355  0MAGCON      0000000000000000000000000000000
0200507252355BILLING10        1 44355  0MAGCON      0000000000000000000000000000000
0200907260811DCSMINN      16316365203249PURGE3      0000000000000000000000000000000
0201007260942NETDETAIL    21477 54130201            0000000000000000000000000000000
0201107261409SRA              1215254  0JAN         0000000000000000000000000000000
0201207261420BILLING10        1 44355  0ACTG        0000000000000000000000000000000
0201307261550FRANK            4111413  2MAGCON      0000000000000000000000000000000
0201407262224BILLING10        1 44355  0ACTG        0000000000000000000000000000000
0201507271144NETDETAIL    21477 54130201            0000000000000000000000000000000
0201607271356SRA              1215254  0DNANCARROW  0000000000000000000000000000000
0201907281244FRANK            4111413  2MAGCON      0000000000000000000000000000000
0202007281408NETDETAIL    21477 54130201            0000000000000000000000000000000
0202107290642NETDETAIL    21477 54130201            0000000000000000000000000000000
0202207291245BILLING10        1 44355  0ACTG        0000000000000000000000000000000
0202307300730NETDETAIL    21477 54130201            0000000000000000000000000000000
0202407310505NETDETAIL    21477 54130201            0000000000000000000000000000000
0202507311102BILLING10        1 44355  0ACTG        0000000000000000000000000000000
0202808010452NETDETAIL    21477 54130201            0000000000000000000000000000000
0202908010550BILLING10        1 44355  0MAGCON      0000000000000000000000000000000
0202608010635DCSMINN      16316365203249AIRCO       0 1   555 10000000      0930801
0203008011202KLPGTMP      42460313476249LOAD KLPGTMP1000000000000000000000000000000
0103108011203KLPGTMP      42460313476249LOAD KLPGTMP1000000000000000000000000000000
0103208011208KLPGTMP      42460313476249LOAD KLPGTMP1000000000000000000000000000000
0103308011209KLPGTMP      42460313476249CANCEL 340321000000000000000000000000000000
0103408011638KLPGTMP      42460313476249LOAD KLPGTMP1000000000000000000000000000000
0203508011700KLPGTMP      42460313476249KOCH SEARCH 1000000000000000000000000000000
0203608012101KLPGTMP      42460313476249LOAD KLPGTMP1000000000000000000000000000000
0203708012108KLPGTMP      42460313476249LOAD KLPGTMP1000000000000000000000000000000
0204108020825NETDETAIL    21477 54130201            0000000000000000000000000000000
0204208021310BILLING10        1 44355  0ACTG        0000000000000000000000000000000
0204308021535FRANK            4111413  2MAGCON      0000000000000000000000000000000
0204408031117JCLMIN       11447271412  0JCLMIN      0000000000000000000000000000000
0204708031256NETDETAIL    21477 54130201            0000000000000000000000000000000
0206108040511DCSMINN      16316365203249PURGE4      0000000000000000000000000000000
0206208040744NETDETAIL    21477 54130201            0000000000000000000000000000000
0206308041537FRANK            4111413  2MAGCON      0000000000000000000000000000000
0206408051144DCSFRS       16316177547249LJB         0000000000000000000000000000000
0206508050950ACCG1        21477215544201OTC SETTLEME0000000000000000000000000000000
0206808051033NETDETAIL    21477 54130201            0000000000000000000000000000000
0207108051216BILLING10        1 44355  0ACTG        0000000000000000000000000000000
0207208060751NETDETAIL    21477 54130201            0000000000000000000000000000000
0207308062359BILLING10        1 44355  0ACTG        0000000000000000000000000000000
0207408070550NETDETAIL    21477 54130201            0000000000000000000000000000000
0207508071141BILLING10        1 44355  0MAGCON      0000000000000000000000000000000
0207608080357NETDETAIL    21477 54130201            0000000000000000000000000000000
0207708080951BILLING10        1 44355  0ACTG        0000000000000000000000000000000
0207808081300PNZOTMP      44425217245249LOAD PNZOTMP1000000000000000000000000000000
0207908081301PNZOTMP      44425217245249LOAD PNZOTMP1000000000000000000000000000000
0208008081302PNZOTMP      44425217245249LOAD PNZOTMP1000000000000000000000000000000
0208108081305PNZOTMP      44425217245249LOAD PNZOTMP1000000000000000000000000000000
0208208081306PNZOTMP      44425217245249LOAD PNZOTMP1000000000000000000000000000000
0208308081347BILLING10        1 44355  0MAGCON      0000000000000000000000000000000
0208508082205FREMUR           1 16367  0            0 1     5 10000000      0930808
0208608090423BILLING10        1 44355  0ACTG        0000000000000000000000000000000
0208708090524NETDETAIL    21477 54130201            0000000000000000000000000000000
0208808091317FRANK            4111413  2MAGCON      0000000000000000000000000000000
0208908100745NETDETAIL    21477 54130201            0000000000000000000000000000000
0109008110531DCSMINN      16316365203249PURGE4      0000000000000000000000000000000
0209108110630NETDETAIL    21477 54130201            0000000000000000000000000000000
0209208111624FRANK            4111413  2MAGCON      0000000000000000000000000000000
0209308111653JCLMIN       11447271412  0JCLMIN      0000000000000000000000000000000
0209408120739NETDETAIL    21477 54130201            0000000000000000000000000000000
0209508120818BILLING10        1 44355  0ACTG        0000000000000000000000000000000
0209608121316DCSFRS       16316177547249LJB         0000000000000000000000000000000
0209708130539NETDETAIL    21477 54130201            0000000000000000000000000000000
0209808131116DCSFRS       16316177547249LJB         0000000000000000000000000000000
0210008131556FRANK            4111413  2MAGCON      0000000000000000000000000000000
0210108140402NETDETAIL    21477 54130201            0000000000000000000000000000000
0210208140648BILLING10        1 44355  0ACTG        0000000000000000000000000000000
0210308140801DCSOPEN      16316 23665249CANCEL RAILT0000000000000000000000000000000
0210408150616NETDETAIL    21477 54130201            0000000000000000000000000000000
0210708151840BILLING10        1 44355  0ACTG        0000000000000000000000000000000
0210808151846FREMUR           1 16367  0MUR         0 1     5 10000000      0930815
0211108160540BILLING10        1 44355  0MAGCON      0000000000000000000000000000000
0211208160738NETDETAIL    21477 54130201            0000000000000000000000000000000
0211308161340BILLING10        1 44355  0ACTG        0000000000000000000000000000000
0211408170326NETDETAIL    21477 54130201            0000000000000000000000000000000
0211508171115SRA              1215254  0EDI FILES   0000000000000000000000000000000
0211608171255FRANK            4111413  2MAGCON      0000000000000000000000000000000
0211708180149NETDETAIL    21477 54130201            0000000000000000000000000000000
0211808190347NETDETAIL    21477 54130201            0000000000000000000000000000000
0211908191745BILLING10        1 44355  0ACTG        0000000000000000000000000000000
0212008200131NETDETAIL    21477 54130201            0000000000000000000000000000000
0212108210231NETDETAIL    21477 54130201            0000000000000000000000000000000
0212208210308BILLING10        1 44355  0MAGCON      0000000000000000000000000000000
0212308210800DANIELSR         1142734  0FILE SAVE   0000000000000000000000000000000
0212408211524BILLING10        1 44355  0MAGCON      0000000000000000000000000000000
0212508220408NETDETAIL    21477 54130201            0000000000000000000000000000000
0212608220548BILLING10        1 44355  0ACTG        0000000000000000000000000000000
0212708221351BILLING10        1 44355  0MAGCON      0000000000000000000000000000000
0212908221830FREMUR           1 16367  0MUR         0 1     5 10000000      0930822
0213008222034BILLING10        1 44355  0ACTG        0000000000000000000000000000000
0213108230308NETDETAIL    21477 54130201            0000000000000000000000000000000
0213208230327BILLING10        1 44355  0MAGCON      0000000000000000000000000000000
0213308230347BILLING10        1 44355  0ACTG        0000000000000000000000000000000
0213408231231BILLING10        1 44355  0ACTG        0000000000000000000000000000000
0213508231236BILLING10        1 44355  0MAGCON      0000000000000000000000000000000
0213608240145NETDETAIL    21477 54130201            0000000000000000000000000000000
0213808250227NETDETAIL    21477 54130201            0000000000000000000000000000000
0213908251545BILLING10        1 44355  0ACTG        0000000000000000000000000000000
0214008251555FRANK            4111413  2MAGCON      0000000000000000000000000000000
0214108260148NETDETAIL    21477 54130201            0000000000000000000000000000000
0214208270253NETDETAIL    21477 54130201            0000000000000000000000000000000
0214308271146BILLING10        1 44355  0ACTG        0000000000000000000000000000000
0214508280222NETDETAIL    21477 54130201            0000000000000000000000000000000
0214608281439BILLING10        1 44355  0MAGCON      0000000000000000000000000000000
0214708281527BILLING10        1 44355  0MAGCON      0000000000000000000000000000000
0214808290302NETDETAIL    21477 54130201            0000000000000000000000000000000
0214908291053BILLING10        1 44355  0ACTG        0000000000000000000000000000000
0215008292128BILLING10        1 44355  0ACTG        0000000000000000000000000000000
0215108292316BILLING10        1 44355  0MAGCON      0000000000000000000000000000000
0215208300138NETDETAIL    21477 54130201            0000000000000000000000000000000
0115308300812DANIELSR         1142734  0SPOOL.GDF   0000000000000000000000000000000
0215408301118BILLING10        1 44355  0ACTG        0000000000000000000000000000000
0215608310201NETDETAIL    21477 54130201            0000000000000000000000000000000
0215708311243FRANK            4111413  2MAGCON      0000000000000000000000000000000
0215809010136NETDETAIL    21477 54130201            0000000000000000000000000000000
0216209012320BILLING10        1 44355  0MAGCON      0000000000000000000000000000000
0216309020343NETDETAIL    21477 54130201            0000000000000000000000000000000
0216409021136CNFE         11020136151  3            0000000000000000000000000000000
0216509021314BILLING10        1 44355  0ACTG        0000000000000000000000000000000
0216709030215NETDETAIL    21477 54130201            0000000000000000000000000000000
0216909040200NETDETAIL    21477 54130201            0000000000000000000000000000000
0217009040332BILLING10        1 44355  0ACTG        0000000000000000000000000000000
0217109041506BILLING10        1 44355  0MAGCON      0000000000000000000000000000000
0217209050357NETDETAIL    21477 54130201            0000000000000000000000000000000
0217309051030BILLING10        1 44355  0MAGCON      0000000000000000000000000000000
0217409051306BILLING10        1 44355  0ACTG        0000000000000000000000000000000
0217509052228FREMUR           1 16367  0            0 1     5 10000000      0930905
0217709060228NETDETAIL    21477 54130201            0000000000000000000000000000000
0217809060231BILLING10        1 44355  0ACTG        0000000000000000000000000000000
0217909060522BILLING10        1 44355  0MAGCON      0000000000000000000000000000000
0218009061320BILLING10        1 44355  0ACTG        0000000000000000000000000000000
0218109061324BILLING10        1 44355  0MAGCON      0000000000000000000000000000000
0218209070149NETDETAIL    21477 54130201            0000000000000000000000000000000
0218309071317BILLING10        1 44355  0ACTG        0000000000000000000000000000000
0218409071507FRANK            4111413  2MAGCON      0000000000000000000000000000000
0218509072221CNFE         11020136151  3.ND FILES   0000000000000000000000000000000
0218609080157NETDETAIL    21477 54130201            0000000000000000000000000000000
0218709081158BILLING10        1 44355  0MAGCON      0000000000000000000000000000000
0218809090132NETDETAIL    21477 54130201            0000000000000000000000000000000
0219709092315BILLING10        1 44355  0ACTG        0000000000000000000000000000000
0219809100258NETDETAIL    21477 54130201            0000000000000000000000000000000
0219909101459FRANK            4111413  2MAGCON      0000000000000000000000000000000
0220009110302NETDETAIL    21477 54130201            0000000000000000000000000000000
0220109110406BILLING10        1 44355  0ACTG        0000000000000000000000000000000
0220209120304NETDETAIL    21477 54130201            0000000000000000000000000000000
0220309120858BILLING10        1 44355  0MAGCON      0000000000000000000000000000000
0220409121538BILLING10        1 44355  0ACTG        0000000000000000000000000000000
0220609122209FREMUR           1 16367  0            0 1     4 10000000      0930912
0220709130258NETDETAIL    21477 54130201            0000000000000000000000000000000
0220809130419BILLING10        1 44355  0MAGCON      0000000000000000000000000000000
0220909131035BILLING10        1 44355  0ACTG        0000000000000000000000000000000
0221009131555BILLING10        1 44355  0ACTG        0000000000000000000000000000000
0221109140142NETDETAIL    21477 54130201            0000000000000000000000000000000
0221209141411FRANK            4111413  2MAGCON      0000000000000000000000000000000
0221309150159NETDETAIL    21477 54130201            0000000000000000000000000000000
0221409151306FRANK            4111413  2MAGCON      0000000000000000000000000000000
0221509151438ACCG1        21477215544201SETTLEMENTS 0000000000000000000000000000000
0221609160155NETDETAIL    21477 54130201            0000000000000000000000000000000
0221709161041BURNS1           1161424  0STORE       0000000000000000000000000000000
0221809162248BILLING10        1 44355  0ACTG        0000000000000000000000000000000
0221909170317NETDETAIL    21477 54130201            0000000000000000000000000000000
0222009171513BILLING10        1 44355  0MAGCON      0000000000000000000000000000000
0222209180142BILLING10        1 44355  0ACTG        0000000000000000000000000000000
0222309180214NETDETAIL    21477 54130201            0000000000000000000000000000000
0222409181043BILLING10        1 44355  0MAGCON      0000000000000000000000000000000
0222509190149NETDETAIL    21477 54130201            0000000000000000000000000000000
0222609191314BILLING10        1 44355  0ACTG        0000000000000000000000000000000
0222909191824FREMUR           1 16367  0            0 1     4 10000000      0930919
0223009200136NETDETAIL    21477 54130201            0000000000000000000000000000000
0223209210214NETDETAIL    21477 54130201            0000000000000000000000000000000
0223309210800DANIELSR         1142734  0FILE SAVE   0000000000000000000000000000000
0223509212037BILLING10        1 44355  0ACTG        0000000000000000000000000000000
0223609212159BILLING10        1 44355  0MAGCON      0000000000000000000000000000000
0223709220202NETDETAIL    21477 54130201            0000000000000000000000000000000
0223809220948BURNS1           1161424  0STORE       0000000000000000000000000000000
0223909222259BILLING10        1 44355  0MAGCON      0000000000000000000000000000000
0224009230226NETDETAIL    21477 54130201            0000000000000000000000000000000
0224109230349BILLING10        1 44355  0ACTG        0000000000000000000000000000000
0224209231429FRANK            4111413  2MAGCON      0000000000000000000000000000000
0224309232227BILLING10        1 44355  0ACTG        0000000000000000000000000000000
0224409240209NETDETAIL    21477 54130201            0000000000000000000000000000000
0224509250413NETDETAIL    21477 54130201            0000000000000000000000000000000
0224609251533BILLING10        1 44355  0ACTG        0000000000000000000000000000000
0224709260314NETDETAIL    21477 54130201            0000000000000000000000000000000
0224909261055BILLING10        1 44355  0MAGCON      0000000000000000000000000000000
0225009261103BILLING10        1 44355  0ACTG        0000000000000000000000000000000
0225209262018FREMUR           1 16367  0            0 1     4 10000000      0930926
0125309262256BILLING10        1 44355  0ACTG        0000000000000000000000000000000
0225409262259BILLING10        1 44355  0ACTG        0000000000000000000000000000000
0225509262305BILLING10        1 44355  0MAGCON      0000000000000000000000000000000
0225709270135NETDETAIL    21477 54130201            0000000000000000000000000000000
0225809271559BILLING10        1 44355  0ACTG        0000000000000000000000000000000
0225909280146NETDETAIL    21477 54130201            0000000000000000000000000000000
0226009281508FRANK            4111413  2MAGCON      0000000000000000000000000000000
0226109290146NETDETAIL    21477 54130201            0000000000000000000000000000000
0226209300418NETDETAIL    21477 54130201            0000000000000000000000000000000
0226909301458BILLING10        1 44355  0ACTG        0000000000000000000000000000000
0227009301625FRANK            4111413  2MAGCON      0000000000000000000000000000000
0227109302340BILLING10        1 44355  0MAGCON      0000000000000000000000000000000
0227210010351NETDETAIL    21477 54130201            0000000000000000000000000000000
0127710011256FRANK            4111413  2MAGCON      0000000000000000000000000000000
0227810011304FRANK            4111413  2MAGCON      0000000000000000000000000000000
0227910011617JCLMIN       11447271412  0JCLMIN      0000000000000000000000000000000
0228010012244BILLING10        1 44355  0ACTG        0000000000000000000000000000000
0228110020258NETDETAIL    21477 54130201            0000000000000000000000000000000
0228210021334BILLING10        1 44355  0ACTG        0000000000000000000000000000000
0228310030322NETDETAIL    21477 54130201            0000000000000000000000000000000
0228410030702BILLING10        1 44355  0MAGCON      0000000000000000000000000000000
0228510031409BILLING10        1 44355  0ACTG        0000000000000000000000000000000
0228610031420BILLING10        1 44355  0MAGCON      0000000000000000000000000000000
0228710032301BILLING10        1 44355  0ACTG        0000000000000000000000000000000
0229010032312FREMUR           1 16367  0            0 1    10 10000000      0931003
0229110040134NETDETAIL    21477 54130201            0000000000000000000000000000000
0229210041904BILLING10        1 44355  0ACTG        0000000000000000000000000000000
0229310050139NETDETAIL    21477 54130201            0000000000000000000000000000000
0230010051556FRANK            4111413  2MAGCON      0000000000000000000000000000000
0230110052153CARL             3352477238FILE RESTORE0000000000000000000000000000000
0230210060154NETDETAIL    21477 54130201            0000000000000000000000000000000
0230310070159NETDETAIL    21477 54130201            0000000000000000000000000000000
0230410071553FRANK            4111413  2MAGCON      0000000000000000000000000000000
0230510080637NETDETAIL    21477 54130201            0000000000000000000000000000000
0230610081432FRANK            4111413  2MAGCON      0000000000000000000000000000000
0230710082003BILLING10        1 44355  0ACTG        0000000000000000000000000000000
0230810090902NETDETAIL    21477 54130201            0000000000000000000000000000000
0230910101022NETDETAIL    21477 54130201            0000000000000000000000000000000
0231010101255BILLING10        1 44355  0MAGCON      0000000000000000000000000000000
0231310102058FREMUR           1 16367  0MUR         0 1     4 10000000      0931010
0231410110536BILLING10        1 44355  0ACTG        0000000000000000000000000000000
0231510111001FRANK            4111413  2MAGCON      0000000000000000000000000000000
0231610111016NETDETAIL    21477 54130201            0000000000000000000000000000000
0231710120832NETSTAT      2147720563520134 2 38     0000000000000000000000000000000
0231810121056NETDETAIL    21477 54130201            0000000000000000000000000000000
0231910121945SRA              1215254  0SRATECH REST0000000000000000000000000000000
0232010130052BILLING10        1 44355  0ACTG        0000000000000000000000000000000
0232110130752NETDETAIL    21477 54130201            0000000000000000000000000000000
0132210130852SRATECH          1173236  1SRATECH     0000000000000000000000000000000
0232310131458FRANK            4111413  2MAGCON      0000000000000000000000000000000
0232410140700DANIELSR         1142734  0FILE TRANSFE0000000000000000000000000000000
0232510140819NETDETAIL    21477 54130201            0000000000000000000000000000000
0232610140910BILLING10        1 44355  0ACTG        0000000000000000000000000000000
0232710141551FRANK            4111413  2MAGCON      0000000000000000000000000000000
0232810150700DANIELSR         1142734  0FILE TRANSFE0000000000000000000000000000000
0232910150732NETDETAIL    21477 54130201            0000000000000000000000000000000
0233210160526NETDETAIL    21477 54130201            0000000000000000000000000000000
0233310160634BILLING10        1 44355  0ACTG        0000000000000000000000000000000
0233410170641NETDETAIL    21477 54130201            0000000000000000000000000000000
0133510170914BILLING10        1 44355  0MAGCON      0000000000000000000000000000000
0233610170917BILLING10        1 44355  0MAGCON      0000000000000000000000000000000
0233810172253FREMUR           1 16367  0            0 1     4 10000000      0931017
0234010180556NETDETAIL    21477 54130201            0000000000000000000000000000000
0234110180700DANIELSR         1142734  0FILE TRANSFE0000000000000000000000000000000
0234210180733BILLING10        1 44355  0ACTG        0000000000000000000000000000000
0234310181225DANIELSR         1142734  0FILE TRANSFE0000000000000000000000000000000
0234410181525FRANK            4111413  2MAGCON      0000000000000000000000000000000
0234510190603NETDETAIL    21477 54130201            0000000000000000000000000000000
0234610190713BILLING10        1 44355  0ACTG        0000000000000000000000000000000
0234710191430DANIELSR         1142734  0FILE TRANSFE0000000000000000000000000000000
0234810200506NETDETAIL    21477 54130201            0000000000000000000000000000000
0234910200817DANIELSR         1142734  0FILE TRANSFE0000000000000000000000000000000
0235010201430DANIELSR         1142734  0FILE TRANSFE0000000000000000000000000000000
0235110201518FRANK            4111413  2MAGCON      0000000000000000000000000000000
0235210210800DANIELSR         1142734  0FILE SAVE   0000000000000000000000000000000
0235310210818NETDETAIL    21477 54130201            0000000000000000000000000000000
0135410211430DANIELSR         1142734  0FILE TRANSFE0000000000000000000000000000000
0235510211543FRANK            4111413  2MAGCON      0000000000000000000000000000000
0235710220716DANIELSR         1142734  0FILE TRANSFE0000000000000000000000000000000
0235810220718DANIELSR         1142734  0FILE TRANSFE0000000000000000000000000000000
0235910221231BILLING10        1 44355  0ACTG        0000000000000000000000000000000
0236010221449NETDETAIL    21477 54130201            0000000000000000000000000000000
0236110230943NETDETAIL    21477 54130201            0000000000000000000000000000000
0236210231457BILLING10        1 44355  0MAGCON      0000000000000000000000000000000
0236310240519NETDETAIL    21477 54130201            0000000000000000000000000000000
0236510242240FREMUR           1 16367  0            0 1     4 10000000      0931024
0236610250259NETDETAIL    21477 54130201            0000000000000000000000000000000
0236710250344BILLING10        1 44355  0ACTG        0000000000000000000000000000000
0236810251238FRANK            4111413  2MAGCON      0000000000000000000000000000000
0236910251430DANIELSR         1142734  0FILE TRANSFE0000000000000000000000000000000
0237010251543FRANK            4111413  2MAGCON      0000000000000000000000000000000
0237110252010BILLING10        1 44355  0ACTG        0000000000000000000000000000000
0237210260331NETDETAIL    21477 54130201            0000000000000000000000000000000
0237310260526BILLING10        1 44355  0ACTG        0000000000000000000000000000000
0237410261000BURNS1           1161424  0STORE       0000000000000000000000000000000
0237510261209DANIELSR         1142734  0FILE TRANSFE0000000000000000000000000000000
0237610261430DANIELSR         1142734  0FILE TRANSFE0000000000000000000000000000000
0237710261453FRANK            4111413  2MAGCON      0000000000000000000000000000000
0237810270225BILLING10        1 44355  0ACTG        0000000000000000000000000000000
0237910270233NETDETAIL    21477 54130201            0000000000000000000000000000000
0238610271430DANIELSR         1142734  0FILE TRANSFE0000000000000000000000000000000
0238710280227NETDETAIL    21477 54130201            0000000000000000000000000000000
0238810281430DANIELSR         1142734  0FILE TRANSFE0000000000000000000000000000000
0238910281902BILLING10        1 44355  0ACTG        0000000000000000000000000000000
0239010282135BILLING10        1 44355  0MAGCON      0000000000000000000000000000000
0239110290149NETDETAIL    21477 54130201            0000000000000000000000000000000
0239210291414FRANK            4111413  2MAGCON      0000000000000000000000000000000
0239310291430DANIELSR         1142734  0FILE TRANSFE0000000000000000000000000000000
0239410300219NETDETAIL    21477 54130201            0000000000000000000000000000000
0239510302044BILLING10        1 44355  0ACTG        0000000000000000000000000000000
0239610310154NETDETAIL    21477 54130201            0000000000000000000000000000000
0240311010110FREMUR           1 16367  0            0 1     2 10000000      0931101
0240511010212NETDETAIL    21477 54130201            0000000000000000000000000000000
0240711010213FREMUR           1 16367  0            0 1     4 10000000      0931101
0241011010246FREMUR           1 16367  0            0 1     6 10000000      0931101
0241111011444FRANK            4111413  2MAGCON      0000000000000000000000000000000
0241411011944BILLING10        1 44355  0ACTG        0000000000000000000000000000000
0241511020152NETDETAIL    21477 54130201            0000000000000000000000000000000
0241611022331BILLING10        1 44355  0ACTG        0000000000000000000000000000000
0241711030222NETDETAIL    21477 54130201            0000000000000000000000000000000
0241811030719BILLING10        1 44355  0MAGCON      0000000000000000000000000000000
0241911040051BILLING10        1 44355  0ACTG        0000000000000000000000000000000
0242011040212NETDETAIL    21477 54130229            0000000000000000000000000000000
0242111041218FRANK            4111413  2MAGCON      0000000000000000000000000000000
0242211050147NETDETAIL    21477 54130229            0000000000000000000000000000000
0242311051423FRANK            4111413  2MAGCON      0000000000000000000000000000000
0242411060215NETDETAIL    21477 54130229            0000000000000000000000000000000
0242511070301NETDETAIL    21477 54130229            0000000000000000000000000000000
0242611071236BILLING10        1 44355  0ACTG        0000000000000000000000000000000
0242911072117FREMUR           1 16367  0            0 1     4 10000000      0931107
0243111080518BILLING10        1 44355  0MAGCON      0000000000000000000000000000000
0243211080554NETDETAIL    21477 54130229            0000000000000000000000000000000
0243311081320BILLING10        1 44355  0MAGCON      0000000000000000000000000000000
0243411081821BILLING10        1 44355  0ACTG        0000000000000000000000000000000
0243511090248NETDETAIL    21477 54130229            0000000000000000000000000000000
0243611090439BILLING10        1 44355  0ACTG        0000000000000000000000000000000
0243711091550BILLING10        1 44355  0MAGCON      0000000000000000000000000000000
0243811091809BILLING10        1 44355  0ACTG        0000000000000000000000000000000
0243911100139NETDETAIL    21477 54130229            0000000000000000000000000000000
0244011110142NETDETAIL    21477 54130229            0000000000000000000000000000000
0244111111310BILLING10        1 44355  0MAGCON      0000000000000000000000000000000
0244211120004BILLING10        1 44355  0ACTG        0000000000000000000000000000000
0244311120134NETDETAIL    21477 54130229            0000000000000000000000000000000
0244411130021BILLING10        1 44355  0ACTG        0000000000000000000000000000000
0244511130141NETDETAIL    21477 54130229            0000000000000000000000000000000
0244611130753BILLING10        1 44355  0MAGCON      0000000000000000000000000000000
0244711140257NETDETAIL    21477 54130229            0000000000000000000000000000000
0244811140737BILLING10        1 44355  0ACTG        0000000000000000000000000000000
0244911141143BILLING10        1 44355  0MAGCON      0000000000000000000000000000000
0245111142137FREMUR           1 16367  0            0 1     4 10000000      0931114
0245211150036BILLING10        1 44355  0ACTG        0000000000000000000000000000000
0245311150148NETDETAIL    21477 54130229            0000000000000000000000000000000
0245411151338BILLING10        1 44355  0MAGCON      0000000000000000000000000000000
0245511151350BILLING10        1 44355  0ACTG        0000000000000000000000000000000
0245711160152NETDETAIL    21477 54130229            0000000000000000000000000000000
0245811161351NETSTAT      21477205635229FILES 34 2 30000000000000000000000000000000
0245911170109BILLING10        1 44355  0ACTG        0000000000000000000000000000000
0246011170144NETDETAIL    21477 54130229            0000000000000000000000000000000
0246111171402FRANK            4111413  2MAGCON      0000000000000000000000000000000
0246211180148NETDETAIL    21477 54130229            0000000000000000000000000000000
0246311181525FRANK            4111413  2MAGCON      0000000000000000000000000000000
0246411190021BILLING10        1 44355  0ACTG        0000000000000000000000000000000
0246511190236NETDETAIL    21477 54130229            0000000000000000000000000000000
0246611200154NETDETAIL    21477 54130229            0000000000000000000000000000000
0246711210241NETDETAIL    21477 54130229            0000000000000000000000000000000
0246811210800DANIELSR         1142734  0FILE SAVE   0000000000000000000000000000000
0246911210936BILLING10        1 44355  0ACTG        0000000000000000000000000000000
0247011211614BILLING10        1 44355  0MAGCON      0000000000000000000000000000000
0247211212053FREMUR           1 16367  0            0 1     4 10000000      0931121
0247311220251NETDETAIL    21477 54130229            0000000000000000000000000000000
0247411220503BILLING10        1 44355  0MAGCON      0000000000000000000000000000000
0247511220727BILLING10        1 44355  0ACTG        0000000000000000000000000000000
0247611221851BILLING10        1 44355  0ACTG        0000000000000000000000000000000
0247711230150NETDETAIL    21477 54130229            0000000000000000000000000000000
0247811231421FRANK            4111413  2MAGCON      0000000000000000000000000000000
0247911240134NETDETAIL    21477 54130229            0000000000000000000000000000000
0248011241325FRANK            4111413  2MAGCON      0000000000000000000000000000000
0248111242253BILLING10        1 44355  0ACTG        0000000000000000000000000000000
0248211250150NETDETAIL    21477 54130229            0000000000000000000000000000000
0248511260158BILLING10        1 44355  0ACTG        0000000000000000000000000000000
0248611260158NETDETAIL    21477 54130229            0000000000000000000000000000000
0248711260937BILLING10        1 44355  0MAGCON      0000000000000000000000000000000
0248811261547BILLING10        1 44355  0ACTG        0000000000000000000000000000000
0248911270141NETDETAIL    21477 54130229            0000000000000000000000000000000
0249011271115OPER             1    21  0MAGCON      0000000000000000000000000000000
0249111271134OPER             1    21  0MAGCON      0000000000000000000000000000000
0249211280242NETDETAIL    21477 54130229            0000000000000000000000000000000
0249311280724BILLING10        1 44355  0ACTG        0000000000000000000000000000000
0249511282304FREMUR           1 16367  0            0 1     8 10000000      0931128
0249711282342BILLING10        1 44355  0ACTG        0000000000000000000000000000000
0250011290013FREMUR           1 16367  0            0 1     4 10000000      0931129
0250111290145NETDETAIL    21477 54130229            0000000000000000000000000000000
0250211291012BILLING10        1 44355  0ACTG        0000000000000000000000000000000
0250311291601FRANK            4111413  2MAGCON      0000000000000000000000000000000
0250411300154NETDETAIL    21477 54130229            0000000000000000000000000000000
0250811301556FRANK            4111413  2MAGCON      0000000000000000000000000000000
0150911302002BILLING10        1 44355  0ACTG        0000000000000000000000000000000
0251011302004BILLING10        1 44355  0ACTG        0000000000000000000000000000000
0251112010140NETDETAIL    21477 54130229            0000000000000000000000000000000
0251212011059SRA              1215254  0DUMP TO TAPE0000000000000000000000000000000
0251312011416FRANK            4111413  2MAGCON      0000000000000000000000000000000
0251412020152BILLING10        1 44355  0ACTG        0000000000000000000000000000000
0251512020213NETDETAIL    21477 54130229            0000000000000000000000000000000
0251712021012SRA              1215254  0TAPELIB     0000000000000000000000000000000
0252612021748FREMUR           1 16367  0            0 1     4 10000000      0931202
0252812022111FREMUR           1 16367  0            0 1     6 10000000      0931202
0252912030401NETDETAIL    21477 54130229            0000000000000000000000000000000
0253012030757BILLING10        1 44355  0ACTG        0000000000000000000000000000000
0253112030808FRANK            4111413  2MAGCON      0000000000000000000000000000000
0253212031522FRANK            4111413  2MAGCON      0000000000000000000000000000000
0253312040206NETDETAIL    21477 54130229            0000000000000000000000000000000
0253412050340NETDETAIL    21477 54130229            0000000000000000000000000000000
0253512050949BILLING10        1 44355  0ACTG        0000000000000000000000000000000
0253612051108BILLING10        1 44355  0MAGCON      0000000000000000000000000000000
0254012052120FREMUR           1 16367  0            0 1     4 10000000      0931205
0254112052316BILLING10        1 44355  0ACTG        0000000000000000000000000000000
0254212060248NETDETAIL    21477 54130229            0000000000000000000000000000000
0254312060324BILLING10        1 44355  0MAGCON      0000000000000000000000000000000
0254412060729BILLING10        1 44355  0ACTG        0000000000000000000000000000000
0254512061250FRANK            4111413  2MAGCON      0000000000000000000000000000000
0254612061259BILLING10        1 44355  0ACTG        0000000000000000000000000000000
0254712070138NETDETAIL    21477 54130229            0000000000000000000000000000000
0254812071345FRANK            4111413  2MAGCON      0000000000000000000000000000000
0254912072056BILLING10        1 44355  0ACTG        0000000000000000000000000000000
0255012080137NETDETAIL    21477 54130229            0000000000000000000000000000000
0255112081230FRANK            4111413  2MAGCON      0000000000000000000000000000000
0255212082353BILLING10        1 44355  0ACTG        0000000000000000000000000000000
0255312090155NETDETAIL    21477 54130229            0000000000000000000000000000000
0255412091553FRANK            4111413  2MAGCON      0000000000000000000000000000000
0255512100015BILLING10        1 44355  0ACTG        0000000000000000000000000000000
0255612100151NETDETAIL    21477 54130229            0000000000000000000000000000000
0255712110144NETDETAIL    21477 54130229            0000000000000000000000000000000
0255812120244NETDETAIL    21477 54130229            0000000000000000000000000000000
0255912120434BILLING10        1 44355  0ACTG        0000000000000000000000000000000
0256412122133FREMUR           1 16367  0            0 1     4 10000000      0931212
0256512130132BILLING10        1 44355  0MAGCON      0000000000000000000000000000000
0256612130132NETDETAIL    21477 54130229            0000000000000000000000000000000
0256712130939BILLING10        1 44355  0MAGCON      0000000000000000000000000000000
0256812131601BILLING10        1 44355  0ACTG        0000000000000000000000000000000
0256912131608BILLING10        1 44355  0MAGCON      0000000000000000000000000000000
0257012132247BILLING10        1 44355  0ACTG        0000000000000000000000000000000
0257112140150NETDETAIL    21477 54130229            0000000000000000000000000000000
0257212150158NETDETAIL    21477 54130229            0000000000000000000000000000000
0257312151621FRANK            4111413  2MAGCON      0000000000000000000000000000000
0257412160003BILLING10        1 44355  0ACTG        0000000000000000000000000000000
0257512160152NETDETAIL    21477 54130229            0000000000000000000000000000000
0257612161544FRANK            4111413  2MAGCON      0000000000000000000000000000000
0257712170023BILLING10        1 44355  0ACTG        0000000000000000000000000000000
0257812170254NETDETAIL    21477 54130229            0000000000000000000000000000000
0257912171623FRANK            4111413  2MAGCON      0000000000000000000000000000000
0258012172346BILLING10        1 44355  0ACTG        0000000000000000000000000000000
0258112180157NETDETAIL    21477 54130229            0000000000000000000000000000000
0258212181502BILLING10        1 44355  0MAGCON      0000000000000000000000000000000
0258312190329NETDETAIL    21477 54130229            0000000000000000000000000000000
0258412191103BILLING10        1 44355  0ACTG        0000000000000000000000000000000
0258512191508BILLING10        1 44355  0MAGCON      0000000000000000000000000000000
0258812192209FREMUR           1 16367  0            0 1     4 10000000      0931219
0259012200133NETDETAIL    21477 54130229            0000000000000000000000000000000
0259112201557BILLING10        1 44355  0ACTG        0000000000000000000000000000000
0259212201619BILLING10        1 44355  0MAGCON      0000000000000000000000000000000
0259312210145NETDETAIL    21477 54130229            0000000000000000000000000000000
0259412210800DANIELSR         1142734  0FILE SAVE   0000000000000000000000000000000
0259512211153BILLING10        1 44355  0ACTG        0000000000000000000000000000000
0259612211357FRANK            4111413  2MAGCON      0000000000000000000000000000000
0259712220233NETDETAIL    21477 54130229            0000000000000000000000000000000
0259812221140BILLING10        1 44355  0ACTG        0000000000000000000000000000000
0259912221255OPER             1    21  0MAGCON      0000000000000000000000000000000
0260012230033BILLING10        1 44355  0ACTG        0000000000000000000000000000000
0260112230142NETDETAIL    21477 54130229            0000000000000000000000000000000
0260212231606BILLING10        1 44355  0MAGCON      0000000000000000000000000000000
0260312232358BILLING10        1 44355  0ACTG        0000000000000000000000000000000
0260412240203NETDETAIL    21477 54130229            0000000000000000000000000000000
0260512241506BILLING10        1 44355  0MAGCON      0000000000000000000000000000000
0260612242126BILLING10        1 44355  0ACTG        0000000000000000000000000000000
0260712250213NETDETAIL    21477 54130229            0000000000000000000000000000000
0260812250834BILLING10        1 44355  0ACTG        0000000000000000000000000000000
0260912251335BILLING10        1 44355  0MAGCON      0000000000000000000000000000000
0261012260208NETDETAIL    21477 54130229            0000000000000000000000000000000
0261112260856BILLING10        1 44355  0MAGCON      0000000000000000000000000000000
0261212260859BILLING10        1 44355  0MAGCON      0000000000000000000000000000000
0261312260909BILLING10        1 44355  0ACTG        0000000000000000000000000000000
0261812262246FREMUR           1 16367  0            0 1     4 10000000      0931226
0261912270224NETDETAIL    21477 54130229            0000000000000000000000000000000
0262012270630BILLING10        1 44355  0ACTG        0000000000000000000000000000000
0262112271059BILLING10        1 44355  0MAGCON      0000000000000000000000000000000
0262212271101BILLING10        1 44355  0MAGCON      0000000000000000000000000000000
0262312280341NETDETAIL    21477 54130229            0000000000000000000000000000000
0262412281110BILLING10        1 44355  0ACTG        0000000000000000000000000000000
0262512290245NETDETAIL    21477 54130229            0000000000000000000000000000000
0262612291204BILLING10        1 44355  0MAGCON      0000000000000000000000000000000
0262712291206BILLING10        1 44355  0MAGCON      0000000000000000000000000000000
0262812291527BILLING10        1 44355  0ACTG        0000000000000000000000000000000
0262912300201NETDETAIL    21477 54130229            0000000000000000000000000000000
0263012301613ACCG1        21477215544201SETTLEMENTS 0000000000000000000000000000000
0263112302306BILLING10        1 44355  0ACTG        0000000000000000000000000000000
0263212310244NETDETAIL    21477 54130229            0000000000000000000000000000000
0263301010040BILLING10        1 44355  0ACTG        0000000000000000000000000000000
0263401010252NETDETAIL    21477 54130229            0000000000000000000000000000000
0263501011155BILLING10        1 44355  0ACTG        0000000000000000000000000000000
0263601011436BILLING10        1 44355  0MAGCON      0000000000000000000000000000000
0263701020223NETDETAIL    21477 54130229            0000000000000000000000000000000
0263801021336BILLING10        1 44355  0ACTG        0000000000000000000000000000000
0263901021348BILLING10        1 44355  0MAGCON      0000000000000000000000000000000
0264201022149FREMUR           1 16367  0            0 1     4 10000000      0940102
0264401022233FREMUR           1 16367  0            0 1    29 10000000      0940102
0264501030131NETDETAIL    21477 54130229            0000000000000000000000000000000
0265801031509BILLING10        1 44355  0MAGCON      0000000000000000000000000000000
0265901031822BILLING10        1 44355  0ACTG        0000000000000000000000000000000
0266001040135NETDETAIL    21477 54130229            0000000000000000000000000000000
0266101041518BILLING10        1 44355  0MAGCON      0000000000000000000000000000000
0266201050250NETDETAIL    21477 54130229            0000000000000000000000000000000
0266301050437BILLING10        1 44355  0ACTG        0000000000000000000000000000000
0266401050919BILLING10        1 44355  0MAGCON      0000000000000000000000000000000
0266501050922BILLING10        1 44355  0MAGCON      0000000000000000000000000000000
0266601052326BILLING10        1 44355  0ACTG        0000000000000000000000000000000
0266701060150NETDETAIL    21477 54130229            0000000000000000000000000000000
0266801070244NETDETAIL    21477 54130229            0000000000000000000000000000000
0266901070734BILLING10        1 44355  0ACTG        0000000000000000000000000000000
0267001071513BILLING10        1 44355  0MAGCON      0000000000000000000000000000000
0267701080004BILLING10        1 44355  0ACTG        0000000000000000000000000000000
0267801080302NETDETAIL    21477 54130229            0000000000000000000000000000000
0267901081526BILLING10        1 44355  0MAGCON      0000000000000000000000000000000
0268001090254NETDETAIL    21477 54130229            0000000000000000000000000000000
0268101090640BILLING10        1 44355  0ACTG        0000000000000000000000000000000
0268201091020BILLING10        1 44355  0MAGCON      0000000000000000000000000000000
0268301091023BILLING10        1 44355  0MAGCON      0000000000000000000000000000000
0268401091826BILLING10        1 44355  0ACTG        0000000000000000000000000000000
0268701091922FREMUR           1 16367  0            0 1     4 10000000      0940109
0268901100130NETDETAIL    21477 54130229            0000000000000000000000000000000
0269001100837BILLING10        1 44355  0MAGCON      0000000000000000000000000000000
0269101101617BILLING10        1 44355  0ACTG        0000000000000000000000000000000
0269701110137NETDETAIL    21477 54130229            0000000000000000000000000000000
0269801120247NETDETAIL    21477 54130229            0000000000000000000000000000000
0269901120642NETDETAIL    21477 54130229            0000000000000000000000000000000
0270001121504BILLING10        1 44355  0MAGCON      0000000000000000000000000000000
0270101130246OPER             1    21  0ACTG        0000000000000000000000000000000
0270201130307NETDETAIL    21477 54130229            0000000000000000000000000000000
0270301140321NETDETAIL    21477 54130229            0000000000000000000000000000000
0270401141138BILLING10        1 44355  0ACTG        0000000000000000000000000000000
0270601141452BILLING10        1 44355  0MAGCON      0000000000000000000000000000000
0270701150403NETDETAIL    21477 54130229            0000000000000000000000000000000
0270801150837BILLING10        1 44355  0ACTG        0000000000000000000000000000000
0270901151359BILLING10        1 44355  0MAGCON      0000000000000000000000000000000
0271001160415NETDETAIL    21477 54130229            0000000000000000000000000000000
0271101161107BILLING10        1 44355  0ACTG        0000000000000000000000000000000
0271201161541BILLING10        1 44355  0MAGCON      0000000000000000000000000000000
0271401161741FREMUR           1 16367  0            0 1     4 10000000      0940116
0271701161808FREMUR           1 16367  0            0 1     4 10000000      0940116
0271801162352BILLING10        1 44355  0ACTG        0000000000000000000000000000000
0271901170149NETDETAIL    21477 54130229            0000000000000000000000000000000
0272001171205BILLING10        1 44355  0MAGCON      0000000000000000000000000000000
0272101171207BILLING10        1 44355  0MAGCON      0000000000000000000000000000000
0272201171228BILLING10        1 44355  0ACTG        0000000000000000000000000000000
0272301180133NETDETAIL    21477 54130229            0000000000000000000000000000000
0272401181309BILLING10        1 44355  0ACTG        0000000000000000000000000000000
0272501181431BILLING10        1 44355  0MAGCON      0000000000000000000000000000000
0272601190226NETDETAIL    21477 54130229            0000000000000000000000000000000
0272701190228BILLING10        1 44355  0ACTG        0000000000000000000000000000000
0272801190854BILLING10        1 44355  0MAGCON      0000000000000000000000000000000
0272901190858BILLING10        1 44355  0MAGCON      0000000000000000000000000000000
0173001200231NETDETAIL    21477 54130229            0000000000000000000000000000000
0173101200531NETDETAIL    21477 54130229            0000000000000000000000000000000
0273201200657BILLING10        1 44355  0ACTG        0000000000000000000000000000000
0273301200840NETDETAIL    21477 54130229            0000000000000000000000000000000
0273401201028ACCG1        21477215544201NIS SETTLEME0000000000000000000000000000000
0273501210241NETDETAIL    21477 54130229            0000000000000000000000000000000
0273601210800DANIELSR         1142734  0FILE SAVE   0000000000000000000000000000000
0273701211452BILLING10        1 44355  0ACTG        0000000000000000000000000000000
0273801211551BILLING10        1 44355  0MAGCON      0000000000000000000000000000000
0273901220248NETDETAIL    21477 54130229            0000000000000000000000000000000
0274001220708BILLING10        1 44355  0ACTG        0000000000000000000000000000000
0274101230238NETDETAIL    21477 54130229            0000000000000000000000000000000
0274201230239BILLING10        1 44355  0ACTG        0000000000000000000000000000000
0274301231501BILLING10        1 44355  0MAGCON      0000000000000000000000000000000
0274401231504BILLING10        1 44355  0MAGCON      0000000000000000000000000000000
0274701231947FREMUR           1 16367  0            0 1     4 10000000      0940123
0174801240440NETDETAIL    21477 54130229            0000000000000000000000000000000
0274901240929NETDETAIL    21477 54130229            0000000000000000000000000000000
0275001240955BILLING10        1 44355  0ACTG        0000000000000000000000000000000
0275101241000BILLING10        1 44355  0MAGCON      0000000000000000000000000000000
0275201242232BILLING10        1 44355  0ACTG        0000000000000000000000000000000
0275301250218NETDETAIL    21477 54130229            0000000000000000000000000000000
0275401250436NETDETAIL    21477 54130229            0000000000000000000000000000000
0275501260137NETDETAIL    21477 54130229            0000000000000000000000000000000
0275601261536BILLING10        1 44355  0MAGCON      0000000000000000000000000000000
0275701261538BILLING10        1 44355  0MAGCON      0000000000000000000000000000000
0175801270221NETDETAIL    21477 54130229            0000000000000000000000000000000
0275901270250BILLING10        1 44355  0ACTG        0000000000000000000000000000000
0276001270622NETDETAIL    21477 54130229            0000000000000000000000000000000
0176201280441NETDETAIL    21477 54130229            0000000000000000000000000000000
0276301280847NETDETAIL    21477 54130229            0000000000000000000000000000000
0276401290321NETDETAIL    21477 54130229            0000000000000000000000000000000
0276501290825BILLING10        1 44355  0ACTG        0000000000000000000000000000000
0276601291146BILLING10        1 44355  0MAGCON      0000000000000000000000000000000
0276701291545BILLING10        1 44355  0MAGCON      0000000000000000000000000000000
0276801300219NETDETAIL    21477 54130229            0000000000000000000000000000000
0276901300918BILLING10        1 44355  0MAGCON      0000000000000000000000000000000
0277101302304FREMUR           1 16367  0            0 1     4 10000000      0940130
0277301310422NETDETAIL    21477 54130229            0000000000000000000000000000000
0277402010433NETDETAIL    21477 54130229            0000000000000000000000000000000
0277502011135BILLING10        1 44355  0ACTG        0000000000000000000000000000000
0277602011137BILLING10        1 44355  0ACTG        0000000000000000000000000000000
0277702011203BILLING10        1 44355  0MAGCON      0000000000000000000000000000000
0278602012240BILLING10        1 44355  0ACTG        0000000000000000000000000000000
0278702012344BILLING10        1 44355  0MAGCON      0000000000000000000000000000000
0178802020429NETDETAIL    21477 54130229            0000000000000000000000000000000
0278902020650BILLING10        1 44355  0ACTG        0000000000000000000000000000000
0279102021041NETDETAIL    21477 54130229            0000000000000000000000000000000
0279202021303BILLING10        1 44355  0MAGCON      0000000000000000000000000000000
0279302021305BILLING10        1 44355  0MAGCON      0000000000000000000000000000000
0279402030349NETDETAIL    21477 54130229            0000000000000000000000000000000
0279502030838BILLING10        1 44355  0ACTG        0000000000000000000000000000000
0279602040214NETDETAIL    21477 54130229            0000000000000000000000000000000
0280102042357BILLING10        1 44355  0ACTG        0000000000000000000000000000000
0280202050310NETDETAIL    21477 54130229            0000000000000000000000000000000
0280302050352BILLING10        1 44355  0MAGCON      0000000000000000000000000000000
0280402051308BILLING10        1 44355  0MAGCON      0000000000000000000000000000000
0280502060121BILLING10        1 44355  0ACTG        0000000000000000000000000000000
0280602060228NETDETAIL    21477 54130229            0000000000000000000000000000000
0280702060931BILLING10        1 44355  0MAGCON      0000000000000000000000000000000
0280902061723FREMUR           1 16367  0            0 1     4 10000000      0940206
0281002070140OPER             1    21  0MAGCON      0000000000000000000000000000000
0281102070331NETDETAIL    21477 54130229            0000000000000000000000000000000
0281202070830BILLING10        1 44355  0ACTG        0000000000000000000000000000000
0281302071425BILLING10        1 44355  0MAGCON      0000000000000000000000000000000
0281402071713BILLING10        1 44355  0ACTG        0000000000000000000000000000000
