1F94013389QBP94020409114200                                                                              ALASCOM INC.                                       0054366940131940131000                                                            0000000000          3423      060959401019401310000049640000000000000000000000000000000000000000000000000000000000000000000000000000000000000000000000000000000000000000000000000000000000000000000000000000000000000000000000000000000000000000000000000000000000000000000000000000000000000000000003950000000000000000000000000000000000000000000000000053590000000                                                                                                                                                                                                                                                                                        PUC   NN     000000000000                          
2F94013389QMCTUSA  00000-0000                            000000395000000000000000000000000000000000000000                              
3F94013389QMCUSA  00000-0000                    000100O00PNETDEBIT      PNINSTALLATION OF EQUIPMENT               0000001000000250000000EACH      0000250000   0000000000000000M0000000000000000000000000000000000000000000000000000   940101940131                 0000000000                                
3F94013389QMCUSA  00000-0000                    000200O00PNETDEBIT      PNCDM SAT, WORKSTATION                    0000001000000125000000EACH      0000125000   0000000000000000M0000000000000000000000000000000000000000000000000000   940101940131                 0000000000                                
3F94013389QMCUSA  00000-0000                    000300O00PNETDEBIT      PNINSTALLATION OF EQUIPMENT               0000001000000020000000EACH      0000020000   0000000000000000M0000000000000000000000000000000000000000000000000000   940101940131                 0000000000                                
2F94013389QPUTUSA  00000-0000                            000004964000000000000000000000000000000000000000                              
3F94013389QPUUSA  00000-0000                    000400O00PNETDEBIT      PNTAPES W/CDM SW FILES                    0000001000004500000000EACH      0004500000   0000000000000000M0000000000000000000000000000000000000000000000000000   940101940131                 0000000000                                
3F94013389QPUUSA  00000-0000                    000500O00PNETDEBIT      PNCDM READ-ME-FIRST                       0000001000000010000000EACH      0000010000   0000000000000000M0000000000000000000000000000000000000000000000000000   940101940131                 0000000000                                
3F94013389QPUUSA  00000-0000                    000600O00PNETDEBIT      PNCDM BINDER VOLUME                       0000001000000400000000EACH      0000400000   0000000000000000M0000000000000000000000000000000000000000000000000000   940101940131                 0000000000                                
3F94013389QPUUSA  00000-0000                    000700O00PNETDEBIT      PNSYBASE DOCUMENT SET                     0000001000000054000000EACH      0000054000   0000000000000000M0000000000000000000000000000000000000000000000000000   940101940131                 0000000000                                
1F94013390QBP94020409114200                                                                              ALASCOM INC.                                       0054367940131940131000                                                            0000000000          3423      060959401019401310000000000000000000000000000000000000000000000000000000750000000000000000000000000000000000000000000000000000000000000000000000000000000000000000000000000000000000000000000000000000000000000000000000000000000000000000000000000000000000000000000000000000000000000000000000000000000000000000000000000000750000000                                                                                                                                                                                                                                                                                        PUC   NN     000000000000                          
2F94013390QLRTUSA  00000-0000                            000000075000000000000000000000000000000000000000                              
3F94013390QLRUSA  00000-0000                    000100O00PNETDEBIT      PNLEASE OF SEATTLE FACILITY               0000001000000075000000EACH      0000075000   0000000000000000M0000000000000000000000000000000000000000000000000000   940101940131                 0000000000                                
1F94013391QBP94020409114200                                                                              ALASCOM INC.                                       0054368940131940131000                                                            0000000000          3423      060959401019401310000000000000000000000000000000000000000000000000000000000000000000000000000000000000000000000000000001750000000000133000000000000000000000000000000000000000000000000000000000000000000000000000000000000000000000000000000000000000000000000000000000000000000000000000000000000000000000000000000000000001883000000                                                                                                                                                                                                                                                                                        PUC   NN     000000000000                          
2F94013391QMSTUSAWA00000-0000VANCOUVER                   000000175000000000013300000000000000000000000000                              
3F94013391QMSUSAWA00000-0000VANCOUVER           000100O00PNETDEBIT      PNHARDWARE MAINTENANCE SEATTLE N          0000001000000175000000EACH      0000175000   0000000000000000M0007600000133000000000000000000000000000000000000000   940101940131                 0000000000                                
1F94013392QBP94020409114200                                                                              ALASCOM INC.                                       0054366940131940131000                                                            0000000000          3423      060959401019401310000000000000000000000000000000000000000000000000000008496000000000000000000000000000000000000000000000000000000000000000000000000000000000000000000000000000000000000000000000000000000000000000000000000000000000000000000000000000000000000000000000000000000000000000000000000000000000000000000000000008496000000                                                                                                                                                                                                                                                                                        PUC   NN     000000000000                          
2F94013392QLRTUSA  00000-0000                            000000849600000000000000000000000000000000000000                              
3F94013392QLRUSA  00000-0000                    000100O00PNETDEBIT      PNISIS NODE CODE                          0000001000000027500000EACH      0000027500   0000000000000000M0000000000000000000000000000000000000000000000000000   940101940131                 0000000000                                
3F94013392QLRUSA  00000-0000                    000200O00PNETDEBIT      PNSUPERVISOR                              0000001000000068500000EACH      0000068500   0000000000000000M0000000000000000000000000000000000000000000000000000   940101940131                 0000000000                                
3F94013392QLRUSA  00000-0000                    000300O00PNETDEBIT      PNPROBE & UTILITIES                       0000001000000027500000EACH      0000027500   0000000000000000M0000000000000000000000000000000000000000000000000000   940101940131                 0000000000                                
3F94013392QLRUSA  00000-0000                    000400O00PNETDEBIT      PNRAM                                     0000001000000041000000EACH      0000041000   0000000000000000M0000000000000000000000000000000000000000000000000000   940101940131                 0000000000                                
3F94013392QLRUSA  00000-0000                    000500O00PNETDEBIT      PNNETVAL                                  0000001000000041000000EACH      0000041000   0000000000000000M0000000000000000000000000000000000000000000000000000   940101940131                 0000000000                                
3F94013392QLRUSA  00000-0000                    000600O00PNETDEBIT      PNELF                                     0000001000000034500000EACH      0000034500   0000000000000000M0000000000000000000000000000000000000000000000000000   940101940131                 0000000000                                
3F94013392QLRUSA  00000-0000                    000700O00PNETDEBIT      PNTMCS                                    0000001000000041000000EACH      0000041000   0000000000000000M0000000000000000000000000000000000000000000000000000   940101940131                 0000000000                                
3F94013392QLRUSA  00000-0000                    000800O00PNETDEBIT      PN3270 HOST INTERFACE                     0000001000000034400000EACH      0000034400   0000000000000000M0000000000000000000000000000000000000000000000000000   940101940131                 0000000000                                
3F94013392QLRUSA  00000-0000                    000900O00PNETDEBIT      PN3270 TRM INTERFACE                      0000001000000027500000EACH      0000027500   0000000000000000M0000000000000000000000000000000000000000000000000000   940101940131                 0000000000                                
3F94013392QLRUSA  00000-0000                    001000O00PNETDEBIT      PN2780/3780/HASP                          0000001000000061900000EACH      0000061900   0000000000000000M0000000000000000000000000000000000000000000000000000   940101940131                 0000000000                                
3F94013392QLRUSA  00000-0000                    001100O00PNETDEBIT      PNSDLC HOST & TRM INTERFACE               0000001000000055000000EACH      0000055000   0000000000000000M0000000000000000000000000000000000000000000000000000   940101940131                 0000000000                                
3F94013392QLRUSA  00000-0000                    001200O00PNETDEBIT      PNX.25 HDLC INTERFACE                     0000001000000055000000EACH      0000055000   0000000000000000M0000000000000000000000000000000000000000000000000000   940101940131                 0000000000                                
3F94013392QLRUSA  00000-0000                    001300O00PNETDEBIT      PNX.75 INTERNATIONAL GATEWAY              0000001000000055000000EACH      0000055000   0000000000000000M0000000000000000000000000000000000000000000000000000   940101940131                 0000000000                                
3F94013392QLRUSA  00000-0000                    001400O00PNETDEBIT      PNASYNC TYMSAT                            0000001000000034400000EACH      0000034400   0000000000000000M0000000000000000000000000000000000000000000000000000   940101940131                 0000000000                                
3F94013392QLRUSA  00000-0000                    001500O00PNETDEBIT      PNASYNC TYMCOM (HOST INTERFACE)           0000001000000034400000EACH      0000034400   0000000000000000M0000000000000000000000000000000000000000000000000000   940101940131                 0000000000                                
3F94013392QLRUSA  00000-0000                    001600O00PNETDEBIT      PNONTYME II MESSAGE SWITCH                0000001000000109500000EACH      0000109500   0000000000000000M0000000000000000000000000000000000000000000000000000   940101940131                 0000000000                                
3F94013392QLRUSA  00000-0000                    001700O00PNETDEBIT      PNCODE MANAGEMENT FACILITIES              0000029000000003500000EACH      0000101500   0000000000000000M0000000000000000000000000000000000000000000000000000   940101940131                 0000000000                                
1F94013393QBP94020409114200                                                                              C&W BERMUDA                                        0066696940131940131000                                                            0000000000          3411      010559401019401310000000000000000000000000000000000000000000000000000000000000000000000000000000000000000000000000000005280000000000000000000000000000000000000000000000000000000000000000000000000000000000000000000000000000000000000000000000000000000000000000000000000000000000000000000000000000000000000000000000000005280000000                                                                                                                                                                                                                                                                                        PUC   NN     000000000000                          
2F94013393QMSTUSA  00000-0000                            000000528000000000000000000000000000000000000000                              
3F94013393QMSUSA  00000-0000                    000100O00PNETDEBIT      PNMONTHLY SUPERVISORY                     0000001000000450000000EACH      0000450000   0000000000000000M0000000000000000000000000000000000000000000000000000   940101940131                 0000000000                                
3F94013393QMSUSA  00000-0000                    000200O00PNETDEBIT      PNMONTHLY CODE MANAGEMENT                 0000001000000078000000EACH      0000078000   0000000000000000M0000000000000000000000000000000000000000000000000000   940101940131                 0000000000                                
1F94013394QBP94020409114200                                                                              DOI - PRIVATE NET                                  0052400940131940131000                                                            0000000000          3445      030569401019401310000000000000000000000000000000000000000000000000000000000000000000000000000000000000000000000000000000000000000000000000000000000000000000000000000000000000000000000000000000000000000000000000000000000000000000000000000000000000000000000000000039062420000000000000000000000000000000000000000000000039062420000                                                                                                                                                                                                                                                                                        PUC   NN     000000000000                          
2F94013394QMCTUSA  00000-0000                            000003906242000000000000000000000000000000000000                              
3F94013394QMCUSA  00000-0000                    000100O00PNETDEBIT      PNHARDWARE MAINTENANCE                    0000001000001110232000EACH      0001110232   0000000000000000M0000000000000000000000000000000000000000000000000000   940101940131                 0000000000                                
3F94013394QMCUSA  00000-0000                    000200O00PNETDEBIT      PNHARDWARE RENTAL                         0000001000000350630000EACH      0000350630   0000000000000000M0000000000000000000000000000000000000000000000000000   940101940131                 0000000000                                
3F94013394QMCUSA  00000-0000                    000300O00PNETDEBIT      PNSOFTWARE MAINTENANCE                    0000001000000430572000EACH      0000430572   0000000000000000M0000000000000000000000000000000000000000000000000000   940101940131                 0000000000                                
3F94013394QMCUSA  00000-0000                    000400O00PNETDEBIT      PNSOFTWARE RENTAL                         0000001000000343200000EACH      0000343200   0000000000000000M0000000000000000000000000000000000000000000000000000   940101940131                 0000000000                                
3F94013394QMCUSA  00000-0000                    000500O00PNETDEBIT      PNNETWORK MANAGEMENT                      0000001000000695000000EACH      0000695000   0000000000000000M0000000000000000000000000000000000000000000000000000   940101940131                 0000000000                                
3F94013394QMCUSA  00000-0000                    000600O00PNETDEBIT      PNCIRCUIT LINES                           0000001000000923308000EACH      0000923308   0000000000000000M0000000000000000000000000000000000000000000000000000   940101940131                 0000000000                                
3F94013394QMCUSA  00000-0000                    000700O00PNETDEBIT      PNCIRCUIT INSTALLATION CHARGES            0000001000000000000000EACH      0000000000   0000000000000000M0000000000000000000000000000000000000000000000000000   940101940131                 0000000000                                
3F94013394QMCUSA  00000-0000                    000800O00PNETDEBIT      PNCIRCUIT BACKBILLING CHARGES             0000001000000000000000EACH      0000000000   0000000000000000M0000000000000000000000000000000000000000000000000000   940101940131                 0000000000                                
3F94013394QMCUSA  00000-0000                    000900O00PNETDEBIT      PNSERVICE CHARGE - 15%                    0000001000000000000000EACH      0000000000   0000000000000000M0000000000000000000000000000000000000000000000000000   940101940131                 0000000000                                
3F94013394QMCUSA  00000-0000                    001000O00PNETDEBIT      PNMODEM RENTAL                            0000001000000038600000EACH      0000038600   0000000000000000M0000000000000000000000000000000000000000000000000000   940101940131                 0000000000                                
3F94013394QMCUSA  00000-0000                    001100O00PNETDEBIT      PNMODEM MAINTENANCE                       0000001000000014700000EACH      0000014700   0000000000000000M0000000000000000000000000000000000000000000000000000   940101940131                 0000000000                           
1F94013395QBP94020409114200                                                                              E.I. DUPONT DEMOURS & COMPANY                      0054388940131940131000                                                            0000000000          3504      060559401019401310000000000000000000000000000000000000000000000000000000000000000000000000000000000000000000000000000001800000000000000000000000000000000000000000000000000000000000000000000000000000000000000000000000000000000000000000000000000000000000000000000000000000000000000000000000000000000000000000000000000001800000000                                                                                                                                                                                                                                                                                        PUC   NN     000000000000                          
2F94013395QMSTUSA  00000-0000                            000000180000000000000000000000000000000000000000                              
3F94013395QMSUSA  00000-0000                    000100O00PNETDEBIT      PNNODE 2230 ENGINE                        0000001000000045000000EACH      0000045000   0000000000000000M0000000000000000000000000000000000000000000000000000   940101940131                 0000000000                                
3F94013395QMSUSA  00000-0000                    000200O00PNETDEBIT      PNNODE 2231 ENGINE                        0000001000000045000000EACH      0000045000   0000000000000000M0000000000000000000000000000000000000000000000000000   940101940131                 0000000000                                
3F94013395QMSUSA  00000-0000                    000300O00PNETDEBIT      PNNODE 2001 ENGINE                        0000001000000045000000EACH      0000045000   0000000000000000M0000000000000000000000000000000000000000000000000000   940101940131                 0000000000                                
3F94013395QMSUSA  00000-0000                    000400O00PNETDEBIT      PNNODE 2002 ENGINE                        0000001000000045000000EACH      0000045000   0000000000000000M0000000000000000000000000000000000000000000000000000   940101940131                 0000000000                                
1F94013396QBP94020409114200                                                                              DUPONT                                             0058963940131940131000                                                            0000000000          3504      060559401019401310000000000000000000000000000000000000000000000000000000000000000000000000000000000000000000000000000000000000000000000000000000000000000000000000000000000000000000000000000000000000000000000000000000000000000000000000000000000000000000000000000005000000000000000000000000000000000000000000000000000005000000000                                                                                                                                                                                                                                                                                        PUC   NN     000000000000                          
2F94013396QMCTUSA  00000-0000                            000000500000000000000000000000000000000000000000                              
3F94013396QMCUSA  00000-0000                    000100O00PNETDEBIT      PNSOFTWARE LICENSE FEES                   0000001000000500000000EACH      0000500000   0000000000000000M0000000000000000000000000000000000000000000000000000   940101940131                 0000000000                                
1F94013397QBP94020409114200                                                                              EXXON COMPUTING SERVICES COMPANY                   0058700940131940131000                                                            0000000000          3433      010659401019401310000000000000000000000000000000000000000000000000000000000000000000000000000000000000000000000000000000668000000000055120000000000000000000000000000000000000000000000000000000000000000000000000000000000000000000000000000000000000000000000000000000000000000000000000000000000000000000000000000000000000723120000                                                                                                                                                                                                                                                                                        PUC   NN     000000000000                          
2F94013397QMSTUSATX00000-0000HOUSTON                     000000066800000000005512000000000000000000000000                              
3F94013397QMSUSATX00000-0000HOUSTON             000100O00PNETDEBIT      PNMINI-ENGINE, MAC III 1024 KB M          0000001000000031500000EACH      0000031500   0000000000000000M0008300000025990000000000000000000000000000000000000   940101940131                 0000000000                                
3F94013397QMSUSATX00000-0000HOUSTON             000200O00PNETDEBIT      PNASYNCHRONOUS BOARD MAINT.               0000001000000004700000EACH      0000004700   0000000000000000M0008300000003880000000000000000000000000000000000000   940101940131                 0000000000                                
3F94013397QMSUSATX00000-0000HOUSTON             000300O00PNETDEBIT      PNASYNCHRONOUS UNSWITCHED CARD M          0000004000000000600000EACH      0000002400   0000000000000000M0008300000001980000000000000000000000000000000000000   940101940131                 0000000000                                
3F94013397QMSUSATX00000-0000HOUSTON             000400O00PNETDEBIT      PNSIO COMM CONTROLLER BOARD MAIN          0000001000000005300000EACH      0000005300   0000000000000000M0008300000004370000000000000000000000000000000000000   940101940131                 0000000000                                
3F94013397QMSUSATX00000-0000HOUSTON             000500O00PNETDEBIT      PNSIO SYNC. V.24 UNSW CARD MAINT          0000002000000005200000EACH      0000010400   0000000000000000M0008300000008580000000000000000000000000000000000000   940101940131                 0000000000                                
3F94013397QMSUSATX00000-0000HOUSTON             000600O00PNETDEBIT      PNSYNCHRONOUS BREAKOUT CABLE, MA          0000002000000000400000EACH      0000000800   0000000000000000M0008300000000660000000000000000000000000000000000000   940101940131                 0000000000                                
3F94013397QMSUSATX00000-0000HOUSTON             000700O00PNETDEBIT      PNASYNCHRONOUS BREAKOUT CABLE, M          0000006000000001200000EACH      0000007200   0000000000000000M0008300000005940000000000000000000000000000000000000   940101940131                 0000000000                                
3F94013397QMSUSATX00000-0000HOUSTON             000800O00PNETDEBIT      PNSIO OCL UNSWITCHED CARD MAINT.          0000001000000002600000EACH      0000002600   0000000000000000M0008300000002150000000000000000000000000000000000000   940101940131                 0000000000                                
3F94013397QMSUSATX00000-0000HOUSTON             000900O00PNETDEBIT      PNOCL BREAKOUT CABLE 4' MAINT.            0000001000000000200000EACH      0000000200   0000000000000000M0008300000000170000000000000000000000000000000000000   940101940131                 0000000000                                
3F94013397QMSUSATX00000-0000HOUSTON             001000O00PNETDEBIT      PNOCL CROSSOVER CABLE 25' MAINT.          0000002000000000400000EACH      0000000800   0000000000000000M0008300000000660000000000000000000000000000000000000   940101940131                 0000000000                                
3F94013397QMSUSATX00000-0000HOUSTON             001100O00PNETDEBIT      PNASYNCH UNSW CARD                        0000003000000000300000EACH      0000000900   0000000000000000M0008300000000740000000000000000000000000000000000000   940101940131                 0000000000                                
1F94013398QBP94020409114200                                                                              EXXON COMPUTING SERVICES COMPANY                   0058742940131940131000                                                            0000000000          3433      010659401019401310000000000000000000000000000000000000000000000000000000000000000000000000000000000000000000000000000000000000000000000000000000000000000000000000000000000000000000000000000000000000000000000000000000000000000000000000000000000000000000000000000000660000000000054450000000000000000000000000000000000000714450000                                                                                                                                                                                                                                                                                        PUC   NN     000000000000                          
2F94013398QMCTUSATX00000-0000HOUSTON                     000000066000000000005445000000000000000000000000                              
3F94013398QMCUSATX00000-0000HOUSTON             000100O00PNETDEBIT      PNCODE MANAGEMENT CUSTOMER SERVI          0000001000000066000000EACH      0000066000   0000000000000000M0008300000054450000000000000000000000000000000000000   940101940131                 0000000000                                
1F94013399QBP94020409114200                                                                              EXXON COMPUTING SERVICES COMPANY                   0058742940131940131000                                                            0000000000          3433      010659401019401310000000000000000000000000000000000000000000000000000000000000000000000000000000000000000000000000000001200000000000000000000000000000000000000000000000000000000000000000000000000000000000000000000000000000000000000000000000000000000000000000000000000000000000000000000000000000000000000000000000000001200000000                                                                                                                                                                                                                                                                                        PUC   NN     000000000000                          
2F94013399QMSTUSA  00000-0000                            000000120000000000000000000000000000000000000000                              
3F94013399QMSUSA  00000-0000                    000100O00PNETDEBIT      PNCODE MANAGEMENT SERVICE                 0000001000000120000000EACH      0000120000   0000000000000000M0000000000000000000000000000000000000000000000000000   940101940131                 0000000000                                
1F94013400QBP94020409114200                                                                              EXXON COMPUTING SERVICES COMPANY                   0058700940131940131000                                                            0000000000          3433      010659401019401310000000000000000000000000000000000000000000000000000000000000000000000000000000000000000000000000000000000000000000000000000000000000000000000000000000000000000000000000000000000000000000000000000000000000000000000000000000000000000000000000000002400000000000198000000000000000000000000000000000000002598000000                                                                                                                                                                                                                                                                                        PUC   NN     000000000000                          
2F94013400QMCTUSATX00000-0000HOUSTON                     000000240000000000019800000000000000000000000000                              
3F94013400QMCUSATX00000-0000HOUSTON             000100O00PNETDEBIT      PNONGOING SUPPORT OF ENHANCED             0000001000000240000000EACH      0000240000   0000000000000000M0008300000198000000000000000000000000000000000000000   940101940131                 0000000000                                
1F94013401QBP94020409114200                                                                              EXXON COMPUTING SERVICES COMPANY                   0058700940131940131000                                                            0000000000          3433      010659401019401310000000000000000000000000000000000000000000000000000000000000000000000000000000000000000000000000000005790000000000477710000000000000000000000000000000000000000000000000000000000000000000000000000000000000000000000000000000000000000000000000000000000000000000000000000000000000000000000000000000000006267710000                                                                                                                                                                                                                                                                                        PUC   NN     000000000000                          
2F94013401QMSTUSATX00000-0000HOUSTON                     000000579000000000047771000000000000000000000000                              
3F94013401QMSUSATX00000-0000HOUSTON             000100O00PNETDEBIT      PNISIS KERNEL AND TYMNET NODE CO          0000001000000043800000EACH      0000043800   0000000000000000M0008300000036140000000000000000000000000000000000000   940101940131                 0000000000                                
3F94013401QMSUSATX00000-0000HOUSTON             000200O00PNETDEBIT      PNASYNC TYMSAT (TERMINAL INTERFA          0000001000000043800000EACH      0000043800   0000000000000000M0008300000036140000000000000000000000000000000000000   940101940131                 0000000000                                
3F94013401QMSUSATX00000-0000HOUSTON             000300O00PNETDEBIT      PNX.25 (HDLC LAP-B)                       0000001000000062500000EACH      0000062500   0000000000000000M0008300000051560000000000000000000000000000000000000   940101940131                 0000000000                                
3F94013401QMSUSATX00000-0000HOUSTON             000400O00PNETDEBIT      PNSUPERVISOR                              0000001000000108800000EACH      0000108800   0000000000000000M0008300000089760000000000000000000000000000000000000   940101940131                 0000000000                                
3F94013401QMSUSATX00000-0000HOUSTON             000500O00PNETDEBIT      PNPROBE & SUP UTILS.                      0000001000000043800000EACH      0000043800   0000000000000000M0008300000036140000000000000000000000000000000000000   940101940131                 0000000000                                
3F94013401QMSUSATX00000-0000HOUSTON             000600O00PNETDEBIT      PNRAW ACCOUNTING MERGER                   0000001000000065000000EACH      0000065000   0000000000000000M0008300000053630000000000000000000000000000000000000   940101940131                 0000000000                                
3F94013401QMSUSATX00000-0000HOUSTON             000700O00PNETDEBIT      PNNETVAL USER VALIDATION                  0000001000000065000000EACH      0000065000   0000000000000000M0008300000053630000000000000000000000000000000000000   940101940131                 0000000000                                
3F94013401QMSUSATX00000-0000HOUSTON             000800O00PNETDEBIT      PNELF NETWORK LOADER                      0000001000000053800000EACH      0000053800   0000000000000000M0008300000044390000000000000000000000000000000000000   940101940131                 0000000000                                
3F94013401QMSUSATX00000-0000HOUSTON             000900O00PNETDEBIT      PNTYMNET MONITORING & CONTROL SY          0000001000000065000000EACH      0000065000   0000000000000000M0008300000053630000000000000000000000000000000000000   940101940131                 0000000000                                
3F94013401QMSUSATX00000-0000HOUSTON             001000O00PNETDEBIT      PNCIRCUIT MULTIPLEXOR                     0000001000000027500000EACH      0000027500   0000000000000000M0008300000022690000000000000000000000000000000000000   940101940131                 0000000000                                
1F94013402QBP94020409114200                                                                              EXXON COMPUTING SERVICES COMPANY                   0058700940131940131000                                                            0000000000          3433      010659401019401310000000000000000000000000000000000000000000000000000000000000000000000000000000000000000000000000000000271000000000022360000000000000000000000000000000000000000000000000000000000000000000000000000000000000000000000000000000000000000000000000000000000000000000000000000000000000000000000000000000000000293360000                                                                                                                                                                                                                                                                                        PUC   NN     000000000000                          
2F94013402QMSTUSATN00000-0000MEMPHIS                     000000027100000000002236000000000000000000000000                              
3F94013402QMSUSATN00000-0000MEMPHIS             000100O00PNETDEBIT      PNMICRO-ENGINE N 2265 MAINT.              0000001000000026500000EACH      0000026500   0000000000000000M0008300000021860000000000000000000000000000000000000   940101940131                 0000000000                                
3F94013402QMSUSATN00000-0000MEMPHIS             000200O00PNETDEBIT      PNASYNC CABLE 1X5                         0000003000000000200000EACH      0000000600   0000000000000000M0008300000000500000000000000000000000000000000000000   940101940131                 0000000000                                
1F94013403QBP94020409114200                                                                              EXXON COMPUTING SERVICES COMPANY                   0058700940131940131000                                                            0000000000          3433      010659401019401310000000000000000000000000000000000000000000000000000000000000000000000000000000000000000000000000000000570000000000047040000000000000000000000000000000000000000000000000000000000000000000000000000000000000000000000000000000000000000000000000000000000000000000000000000000000000000000000000000000000000617040000                                                                                                                                                                                                                                                                                        PUC   NN     000000000000                          
2F94013403QMSTUSATX00000-0000HOUSTON                     000000057000000000004704000000000000000000000000                              
3F94013403QMSUSATX00000-0000HOUSTON             000100O00PNETDEBIT      PNMINI-ENGINE, 1024 KB MEMORY             0000001000000031500000EACH      0000031500   0000000000000000M0008300000025990000000000000000000000000000000000000   940101940131                 0000000000                                
3F94013403QMSUSATX00000-0000HOUSTON             000200O00PNETDEBIT      PNSYNCHRONOUS BOARD                       0000001000000005300000EACH      0000005300   0000000000000000M0008300000004370000000000000000000000000000000000000   940101940131                 0000000000                                
3F94013403QMSUSATX00000-0000HOUSTON             000300O00PNETDEBIT      PNASYNCHRONOUS BOARD                      0000001000000004700000EACH      0000004700   0000000000000000M0008300000003880000000000000000000000000000000000000   940101940131                 0000000000                                
3F94013403QMSUSATX00000-0000HOUSTON             000400O00PNETDEBIT      PNSIO CONTROLLER - MINI                   0000001000000005300000EACH      0000005300   0000000000000000M0008300000004370000000000000000000000000000000000000   940101940131                 0000000000                                
3F94013403QMSUSATX00000-0000HOUSTON             000500O00PNETDEBIT      PNSIO SYNC V.24 DUAL INTERFACE            0000003000000002100000EACH      0000006300   0000000000000000M0008300000005200000000000000000000000000000000000000   940101940131                 0000000000                                
3F94013403QMSUSATX00000-0000HOUSTON             000600O00PNETDEBIT      PNSIO OCL COAX DUAL INTERFACE             0000001000000002100000EACH      0000002100   0000000000000000M0008300000001730000000000000000000000000000000000000   940101940131                 0000000000                                
3F94013403QMSUSATX00000-0000HOUSTON             000700O00PNETDEBIT      PNBATTERY BACKUP 110V ENG/MINI            0000001000000000400000EACH      0000000400   0000000000000000M0008300000000330000000000000000000000000000000000000   940101940131                 0000000000                                
3F94013403QMSUSATX00000-0000HOUSTON             000800O00PNETDEBIT      PNSYNC DATA SET CABLES, 1X4, 25'          0000001000000000200000EACH      0000000200   0000000000000000M0008300000000170000000000000000000000000000000000000   940101940131                 0000000000                                
3F94013403QMSUSATX00000-0000HOUSTON             000900O00PNETDEBIT      PNASYNC DATA SET CABLES, 1X5, 25          0000002000000000200000EACH      0000000400   0000000000000000M0008300000000330000000000000000000000000000000000000   940101940131                 0000000000                                
3F94013403QMSUSATX00000-0000HOUSTON             001000O00PNETDEBIT      PNSIO OCL COAX CABLE, 25'                 0000001000000000200000EACH      0000000200   0000000000000000M0008300000000170000000000000000000000000000000000000   940101940131                 0000000000                                
3F94013403QMSUSATX00000-0000HOUSTON             001100O00PNETDEBIT      PNASYNCHRONOUS UNSWITCHED CARD M          0000001000000000600000EACH      0000000600   0000000000000000M0008300000000500000000000000000000000000000000000000   940101940131                 0000000000                                
1F94013404QBP94020409114200                                                                              EXXON COMPUTING SERVICES COMPANY                   0058700940131940131000                                                            0000000000          3433      010659401019401310000000000000000000000000000000000000000000000000000000000000000000000000000000000000000000000000000000246000000000020300000000000000000000000000000000000000000000000000000000000000000000000000000000000000000000000000000000000000000000000000000000000000000000000000000000000000000000000000000000000000266300000                                                                                                                                                                                                                                                                                        PUC   NN     000000000000                          
2F94013404QMSTUSATX00000-0000HOUSTON                     000000024600000000002030000000000000000000000000                              
3F94013404QMSUSATX00000-0000HOUSTON             000100O00PNETDEBIT      PNMICRO-ENGINE MODEL 2, 512 KB            0000001000000024000000EACH      0000024000   0000000000000000M0008300000019800000000000000000000000000000000000000   940101940131                 0000000000                                
3F94013404QMSUSATX00000-0000HOUSTON             000200O00PNETDEBIT      PNASYNC DATA SET CABLES, 1X5, 15          0000003000000000200000EACH      0000000600   0000000000000000M0008300000000500000000000000000000000000000000000000   940101940131                 0000000000                                
1F94013405QBP94020409114200                                                                              EXXON COMPUTING SERVICES COMPANY                   0058700940131940131000                                                            0000000000          3433      010659401019401310000000000000000000000000000000000000000000000000000000000000000000000000000000000000000000000000000000246000000000020300000000000000000000000000000000000000000000000000000000000000000000000000000000000000000000000000000000000000000000000000000000000000000000000000000000000000000000000000000000000000266300000                                                                                                                                                                                                                                                                                        PUC   NN     000000000000                          
2F94013405QMSTUSATX00000-0000HOUSTON                     000000024600000000002030000000000000000000000000                              
3F94013405QMSUSATX00000-0000HOUSTON             000100O00PNETDEBIT      PNMICRO-ENGINE MODEL 2, 512 KB            0000001000000024000000EACH      0000024000   0000000000000000M0008300000019800000000000000000000000000000000000000   940101940131                 0000000000                                
3F94013405QMSUSATX00000-0000HOUSTON             000200O00PNETDEBIT      PNASYNC DATA SET CABLES, 1X5, 15          0000003000000000200000EACH      0000000600   0000000000000000M0008300000000500000000000000000000000000000000000000   940101940131                 0000000000                                
1F94013406QBP94020409114200                                                                              EXXON COMPUTING SERVICES COMPANY                   0058700940131940131000                                                            0000000000          3433      010659401019401310000000000000000000000000000000000000000000000000000000000000000000000000000000000000000000000000000000511000000000042170000000000000000000000000000000000000000000000000000000000000000000000000000000000000000000000000000000000000000000000000000000026000000000002150000000000000000000000000000000000000581320000                                                                                                                                                                                                                                                                                        PUC   NN     000000000000                          
2F94013406QMCTUSATX00000-0000HOUSTON                     000000002600000000000215000000000000000000000000                              
3F94013406QMCUSATX00000-0000HOUSTON             000100O00PNETDEBIT      PNSIO ASYNC UNSWITCHED CARD               0000001000000002600000EACH      0000002600   0000000000000000M0008300000002150000000000000000000000000000000000000   940101940131                 0000000000                                
2F94013406QMSTUSATX00000-0000HOUSTON                     000000051100000000004217000000000000000000000000                              
3F94013406QMSUSATX00000-0000HOUSTON             000200O00PNETDEBIT      PNMINI-ENGINE, 1024 KB MEMORY             0000001000000031500000EACH      0000031500   0000000000000000M0008300000025990000000000000000000000000000000000000   940101940131                 0000000000                                
3F94013406QMSUSATX00000-0000HOUSTON             000300O00PNETDEBIT      PNASYNCHRONOUS BOARD                      0000001000000004700000EACH      0000004700   0000000000000000M0008300000003880000000000000000000000000000000000000   940101940131                 0000000000                                
3F94013406QMSUSATX00000-0000HOUSTON             000400O00PNETDEBIT      PNSIO CONTROLLER - MINI                   0000001000000005300000EACH      0000005300   0000000000000000M0008300000004370000000000000000000000000000000000000   940101940131                 0000000000                                
3F94013406QMSUSATX00000-0000HOUSTON             000500O00PNETDEBIT      PNBATTERY BACKUP 110V ENG/MINI            0000001000000000400000EACH      0000000400   0000000000000000M0008300000000330000000000000000000000000000000000000   940101940131                 0000000000                                
3F94013406QMSUSATX00000-0000HOUSTON             000600O00PNETDEBIT      PNASYNCHRONOUS UNSWITCHED CARD            0000004000000000600000EACH      0000002400   0000000000000000M0008300000001980000000000000000000000000000000000000   940101940131                 0000000000                                
3F94013406QMSUSATX00000-0000HOUSTON             000700O00PNETDEBIT      PNSIO SYNC. V.24 UNSW. CARD               0000002000000002600000EACH      0000005200   0000000000000000M0008300000004290000000000000000000000000000000000000   940101940131                 0000000000                                
3F94013406QMSUSATX00000-0000HOUSTON             000800O00PNETDEBIT      PNSYNCHRONOUS BREAKOUT CABLE 4'           0000002000000000200000EACH      0000000400   0000000000000000M0008300000000330000000000000000000000000000000000000   940101940131                 0000000000                                
3F94013406QMSUSATX00000-0000HOUSTON             000900O00PNETDEBIT      PNASYNCHRONOUS BREAKOUT CABLE 4'          0000001000000000200000EACH      0000000200   0000000000000000M0008300000000170000000000000000000000000000000000000   940101940131                 0000000000                                
3F94013406QMSUSATX00000-0000HOUSTON             001000O00PNETDEBIT      PNSYNCHRONOUS BREAKOUT CABLE 25'          0000001000000000200000EACH      0000000200   0000000000000000M0008300000000170000000000000000000000000000000000000   940101940131                 0000000000                                
3F94013406QMSUSATX00000-0000HOUSTON             001100O00PNETDEBIT      PNASYNCHRONOUS BREAKOUT CABLE 25          0000004000000000200000EACH      0000000800   0000000000000000M0008300000000660000000000000000000000000000000000000   940101940131                 0000000000                                
1F94013407QBP94020409114200                                                                              EXXON COMPUTING SERVICES COMPANY                   0058700940131940131000                                                            0000000000          3433      010659401019401310000000000000000000000000000000000000000000000000000000000000000000000000000000000000000000000000000000608000000000050180000000000000000000000000000000000000000000000000000000000000000000000000000000000000000000000000000000000000000000000000000000000000000000000000000000000000000000000000000000000000658180000                                                                                                                                                                                                                                                                                        PUC   NN     000000000000                          
2F94013407QMSTUSATX00000-0000HOUSTON                     000000060800000000005018000000000000000000000000                              
3F94013407QMSUSATX00000-0000HOUSTON             000100O00PNETDEBIT      PNMINI-ENGINE, 1024 KB MEMORY             0000001000000031500000EACH      0000031500   0000000000000000M0008300000025990000000000000000000000000000000000000   940101940131                 0000000000                                
3F94013407QMSUSATX00000-0000HOUSTON             000200O00PNETDEBIT      PNASYNCHRONOUS BOARD                      0000002000000004700000EACH      0000009400   0000000000000000M0008300000007760000000000000000000000000000000000000   940101940131                 0000000000                                
3F94013407QMSUSATX00000-0000HOUSTON             000300O00PNETDEBIT      PNSIO CONTROLLER - MINI                   0000001000000005300000EACH      0000005300   0000000000000000M0008300000004370000000000000000000000000000000000000   940101940131                 0000000000                                
3F94013407QMSUSATX00000-0000HOUSTON             000400O00PNETDEBIT      PNSIO SYNC. V.24 UNSW. CARD               0000002000000002600000EACH      0000005200   0000000000000000M0008300000004290000000000000000000000000000000000000   940101940131                 0000000000                                
3F94013407QMSUSATX00000-0000HOUSTON             000500O00PNETDEBIT      PNBATTERY BACKUP 110V ENG/MINI            0000001000000000400000EACH      0000000400   0000000000000000M0008300000000330000000000000000000000000000000000000   940101940131                 0000000000                                
3F94013407QMSUSATX00000-0000HOUSTON             000600O00PNETDEBIT      PNASYNC DATA SET CABLES, 1X5, 25          0000006000000000200000EACH      0000001200   0000000000000000M0008300000000990000000000000000000000000000000000000   940101940131                 0000000000                                
3F94013407QMSUSATX00000-0000HOUSTON             000700O00PNETDEBIT      PNSIO OCL UNSWITCHED CARD                 0000001000000002600000EACH      0000002600   0000000000000000M0008300000002150000000000000000000000000000000000000   940101940131                 0000000000                                
3F94013407QMSUSATX00000-0000HOUSTON             000800O00PNETDEBIT      PNSIO OCL COAX CABLE, 25'                 0000001000000000200000EACH      0000000200   0000000000000000M0008300000000170000000000000000000000000000000000000   940101940131                 0000000000                                
3F94013407QMSUSATX00000-0000HOUSTON             000900O00PNETDEBIT      PNASYNCHRONOUS UNSWITCHED CARD            0000006000000000600000EACH      0000003600   0000000000000000M0008300000002970000000000000000000000000000000000000   940101940131                 0000000000                                
3F94013407QMSUSATX00000-0000HOUSTON             001000O00PNETDEBIT      PNASYNCHRONOUS UNSWITCHED CARD M          0000001000000000600000EACH      0000000600   0000000000000000M0008300000000500000000000000000000000000000000000000   940101940131                 0000000000                                
3F94013407QMSUSATX00000-0000HOUSTON             001100O00PNETDEBIT      PNASYNCHRONOUS BREAKOUT CABLE, M          0000002000000000400000EACH      0000000800   0000000000000000M0008300000000660000000000000000000000000000000000000   940101940131                 0000000000                                
1F94013408QBP94020409114200                                                                              EXXON COMPUTING SERVICES COMPANY                   0058700940131940131000                                                            0000000000          3433      010659401019401310000000000000000000000000000000000000000000000000000000000000000000000000000000000000000000000000000000548000000000032880000000000000000000000000000000000000000000000000000000000000000000000000000000000000000000000000000000000000000000000000000000000000000000000000000000000000000000000000000000000000580880000                                                                                                                                                                                                                                                                                        PUC   NN     000000000000                          
2F94013408QMSTUSAFL00000-0000FT. LAUDERDALE              000000054800000000003288000000000000000000000000                              
3F94013408QMSUSAFL00000-0000FT. LAUDERDALE      000100O00PNETDEBIT      PNMINI-ENGINE, 1024 KB MEMORY             0000001000000031500000EACH      0000031500   0000000000000000M0006000000018900000000000000000000000000000000000000   940101940131                 0000000000                                
3F94013408QMSUSAFL00000-0000FT. LAUDERDALE      000200O00PNETDEBIT      PNSYNCHRONOUS BOARD                       0000001000000005300000EACH      0000005300   0000000000000000M0006000000003180000000000000000000000000000000000000   940101940131                 0000000000                                
3F94013408QMSUSAFL00000-0000FT. LAUDERDALE      000300O00PNETDEBIT      PNASYNCHRONOUS BOARD                      0000001000000004700000EACH      0000004700   0000000000000000M0006000000002820000000000000000000000000000000000000   940101940131                 0000000000                                
3F94013408QMSUSAFL00000-0000FT. LAUDERDALE      000400O00PNETDEBIT      PNSIO CONTROLLER - MINI                   0000001000000005300000EACH      0000005300   0000000000000000M0006000000003180000000000000000000000000000000000000   940101940131                 0000000000                                
3F94013408QMSUSAFL00000-0000FT. LAUDERDALE      000500O00PNETDEBIT      PNBATTERY BACKUP 110V ENG/MINI            0000001000000000400000EACH      0000000400   0000000000000000M0006000000000240000000000000000000000000000000000000   940101940131                 0000000000                                
3F94013408QMSUSAFL00000-0000FT. LAUDERDALE      000600O00PNETDEBIT      PNSIO ASYNC UNSWITCHED CARD               0000001000000002600000EACH      0000002600   0000000000000000M0006000000001560000000000000000000000000000000000000   940101940131                 0000000000                                
3F94013408QMSUSAFL00000-0000FT. LAUDERDALE      000700O00PNETDEBIT      PNASYNCHRONOUS BREAKOUT CABLE 4'          0000001000000000200000EACH      0000000200   0000000000000000M0006000000000120000000000000000000000000000000000000   940101940131                 0000000000                                
3F94013408QMSUSAFL00000-0000FT. LAUDERDALE      000800O00PNETDEBIT      PNSIO SYNC. V.24 UNSW. CARD               0000001000000002600000EACH      0000002600   0000000000000000M0006000000001560000000000000000000000000000000000000   940101940131                 0000000000                                
3F94013408QMSUSAFL00000-0000FT. LAUDERDALE      000900O00PNETDEBIT      PNSYNCHRONOUS BREAKOUT CABLE 4'           0000003000000000200000EACH      0000000600   0000000000000000M0006000000000360000000000000000000000000000000000000   940101940131                 0000000000                                
3F94013408QMSUSAFL00000-0000FT. LAUDERDALE      001000O00PNETDEBIT      PNASYNCHRONOUS BREAKOUT CABLE 25          0000002000000000200000EACH      0000000400   0000000000000000M0006000000000240000000000000000000000000000000000000   940101940131                 0000000000                                
3F94013408QMSUSAFL00000-0000FT. LAUDERDALE      001100O00PNETDEBIT      PNASYNCHRONOUS UNSWITCHED CARD            0000002000000000600000EACH      0000001200   0000000000000000M0006000000000720000000000000000000000000000000000000   940101940131                 0000000000                                
1F94013409QBP94020409114200                                                                              EXXON COMPUTING SERVICES COMPANY                   0058700940131940131000                                                            0000000000          3433      010659401019401310000000000000000000000000000000000000000000000000000000000000000000000000000000000000000000000000000001237000000000102070000000000000000000000000000000000000000000000000000000000000000000000000000000000000000000000000000000000000000000000000000000000000000000000000000000000000000000000000000000000001339070000                                                                                                                                                                                                                                                                                        PUC   NN     000000000000                          
2F94013409QMSTUSATX00000-0000HOUSTON                     000000123700000000010207000000000000000000000000                              
3F94013409QMSUSATX00000-0000HOUSTON             000100O00PNETDEBIT      PNENGINE, 1024 KB MEMORY, 1 C/C           0000001000000045000000EACH      0000045000   0000000000000000M0008300000037130000000000000000000000000000000000000   940101940131                 0000000000                                
3F94013409QMSUSATX00000-0000HOUSTON             000200O00PNETDEBIT      PNSUPER CLOCK                             0000001000000004200000EACH      0000004200   0000000000000000M0008300000003470000000000000000000000000000000000000   940101940131                 0000000000                                
3F94013409QMSUSATX00000-0000HOUSTON             000300O00PNETDEBIT      PNSYNCHRONOUS BOARD                       0000001000000005300000EACH      0000005300   0000000000000000M0008300000004370000000000000000000000000000000000000   940101940131                 0000000000                                
3F94013409QMSUSATX00000-0000HOUSTON             000400O00PNETDEBIT      PNBATTERY BACKUP MODULE                   0000001000000000400000EACH      0000000400   0000000000000000M0008300000000330000000000000000000000000000000000000   940101940131                 0000000000                                
3F94013409QMSUSATX00000-0000HOUSTON             000500O00PNETDEBIT      PNSYNC DATA SET CABLES, 1X4, 25'          0000001000000000200000EACH      0000000200   0000000000000000M0008300000000170000000000000000000000000000000000000   940101940131                 0000000000                                
3F94013409QMSUSATX00000-0000HOUSTON             000600O00PNETDEBIT      PNEXTENDED SELECTOR CHANNEL               0000001000000003200000EACH      0000003200   0000000000000000M0008300000002640000000000000000000000000000000000000   940101940131                 0000000000                                
3F94013409QMSUSATX00000-0000HOUSTON             000700O00PNETDEBIT      PN160/300 MB DISK CONTROLLER              0000001000000009000000EACH      0000009000   0000000000000000M0008300000007430000000000000000000000000000000000000   940101940131                 0000000000                                
3F94013409QMSUSATX00000-0000HOUSTON             000800O00PNETDEBIT      PN300 MB DISK DRIVE, 60 HZ                0000001000000030000000EACH      0000030000   0000000000000000M0008300000024750000000000000000000000000000000000000   940101940131                 0000000000                                
3F94013409QMSUSATX00000-0000HOUSTON             000900O00PNETDEBIT      PNTAPE CONTROLLER                         0000001000000009500000EACH      0000009500   0000000000000000M0008300000007840000000000000000000000000000000000000   940101940131                 0000000000                                
3F94013409QMSUSATX00000-0000HOUSTON             001000O00PNETDEBIT      PNTAPE DRIVE, 45 IPS                      0000001000000009500000EACH      0000009500   0000000000000000M0008300000007840000000000000000000000000000000000000   940101940131                 0000000000                                
3F94013409QMSUSATX00000-0000HOUSTON             001100O00PNETDEBIT      PNSIO COMMUNICATIONS CONTROLLER           0000001000000005300000EACH      0000005300   0000000000000000M0008300000004370000000000000000000000000000000000000   940101940131                 0000000000                                
3F94013409QMSUSATX00000-0000HOUSTON             001200O00PNETDEBIT      PNSIO OCL COAX DUAL INTERFACE             0000001000000002100000EACH      0000002100   0000000000000000M0008300000001730000000000000000000000000000000000000   940101940131                 0000000000                                
1F94013410QBP94020409114200                                                                              EXXON COMPUTING SERVICES COMPANY                   0058700940131940131000                                                            0000000000          3433      010659401019401310000000000000000000000000000000000000000000000000000000000000000000000000000000000000000000000000000000842000000000069480000000000000000000000000000000000000000000000000000000000000000000000000000000000000000000000000000000000000000000000000000000397000000000032760000000000000000000000000000000000001341240000                                                                                                                                                                                                                                                                                        PUC   NN     000000000000                          
2F94013410QMCTUSATX00000-0000HOUSTON                     000000039700000000003276000000000000000000000000                              
3F94013410QMCUSATX00000-0000HOUSTON             000100O00PNETDEBIT      PN160 MB DISK DRIVE, 60 HZ                0000001000000030000000EACH      0000030000   0000000000000000M0008300000024750000000000000000000000000000000000000   940101940131                 0000000000                                
3F94013410QMCUSATX00000-0000HOUSTON             000200O00PNETDEBIT      PNTAPE DRIVE, 45 IPS                      0000001000000009500000EACH      0000009500   0000000000000000M0008300000007840000000000000000000000000000000000000   940101940131                 0000000000                                
3F94013410QMCUSATX00000-0000HOUSTON             000300O00PNETDEBIT      PNOCL DATA SET CABLE                      0000001000000000200000EACH      0000000200   0000000000000000M0008300000000170000000000000000000000000000000000000   940101940131                 0000000000                                
2F94013410QMSTUSATX00000-0000HOUSTON                     000000084200000000006948000000000000000000000000                              
3F94013410QMSUSATX00000-0000HOUSTON             000400O00PNETDEBIT      PNENGINE, 1024 KB MEMORY, 1 C/C           0000001000000045000000EACH      0000045000   0000000000000000M0008300000037130000000000000000000000000000000000000   940101940131                 0000000000                                
3F94013410QMSUSATX00000-0000HOUSTON             000500O00PNETDEBIT      PNSUPER CLOCK                             0000001000000004200000EACH      0000004200   0000000000000000M0008300000003470000000000000000000000000000000000000   940101940131                 0000000000                                
3F94013410QMSUSATX00000-0000HOUSTON             000600O00PNETDEBIT      PNSYNCHRONOUS BOARD                       0000001000000005300000EACH      0000005300   0000000000000000M0008300000004370000000000000000000000000000000000000   940101940131                 0000000000                                
3F94013410QMSUSATX00000-0000HOUSTON             000700O00PNETDEBIT      PNBATTERY BACKUP MODULE                   0000001000000000400000EACH      0000000400   0000000000000000M0008300000000330000000000000000000000000000000000000   940101940131                 0000000000                                
3F94013410QMSUSATX00000-0000HOUSTON             000800O00PNETDEBIT      PNSYNC DATA SET CABLES, 1X4, 25'          0000001000000000200000EACH      0000000200   0000000000000000M0008300000000170000000000000000000000000000000000000   940101940131                 0000000000                                
3F94013410QMSUSATX00000-0000HOUSTON             000900O00PNETDEBIT      PNEXTENDED SELECTOR CHANNEL               0000001000000003200000EACH      0000003200   0000000000000000M0008300000002640000000000000000000000000000000000000   940101940131                 0000000000                                
3F94013410QMSUSATX00000-0000HOUSTON             001000O00PNETDEBIT      PN160/300 MB DISK CONTROLLER              0000001000000009000000EACH      0000009000   0000000000000000M0008300000007430000000000000000000000000000000000000   940101940131                 0000000000                                
3F94013410QMSUSATX00000-0000HOUSTON             001100O00PNETDEBIT      PNTAPE CONTROLLER                         0000001000000009500000EACH      0000009500   0000000000000000M0008300000007840000000000000000000000000000000000000   940101940131                 0000000000                                
3F94013410QMSUSATX00000-0000HOUSTON             001200O00PNETDEBIT      PNSIO OCL COAX DUAL INTERFACE             0000001000000002100000EACH      0000002100   0000000000000000M0008300000001730000000000000000000000000000000000000   940101940131                 0000000000                                
3F94013410QMSUSATX00000-0000HOUSTON             001300O00PNETDEBIT      PNSIO COMMUNICATIONS CONTROLLER           0000001000000005300000EACH      0000005300   0000000000000000M0008300000004370000000000000000000000000000000000000   940101940131                 0000000000                                
1F94013411QBP94020409114200                                                                              EXXON COMPUTING SERVICES COMPANY                   0058700940131940131000                                                            0000000000          3433      010659401019401310000000000000000000000000000000000000000000000000000000000000000000000000000000000000000000000000000000246000000000020300000000000000000000000000000000000000000000000000000000000000000000000000000000000000000000000000000000000000000000000000000000000000000000000000000000000000000000000000000000000000266300000                                                                                                                                                                                                                                                                                        PUC   NN     000000000000                          
2F94013411QMSTUSATX00000-0000HOUSTON                     000000024600000000002030000000000000000000000000                              
3F94013411QMSUSATX00000-0000HOUSTON             000100O00PNETDEBIT      PNMICRO-ENGINE MODEL 2, 512 KB            0000001000000024000000EACH      0000024000   0000000000000000M0008300000019800000000000000000000000000000000000000   940101940131                 0000000000                                
3F94013411QMSUSATX00000-0000HOUSTON             000200O00PNETDEBIT      PNMICRO ENGINE SHELF                      0000001000000000000000EACH      0000000000   0000000000000000M0008300000000000000000000000000000000000000000000000   940101940131                 0000000000                                
3F94013411QMSUSATX00000-0000HOUSTON             000300O00PNETDEBIT      PNASYNC DATA SET CABLES, 1X5, 15          0000003000000000200000EACH      0000000600   0000000000000000M0008300000000500000000000000000000000000000000000000   940101940131                 0000000000                                
1F94013412QBP94020409114200                                                                              EXXON COMPUTING SERVICES COMPANY                   0058700940131940131000                                                            0000000000          3433      010659401019401310000000000000000000000000000000000000000000000000000000000000000000000000000000000000000000000000000000555000000000045790000000000000000000000000000000000000000000000000000000000000000000000000000000000000000000000000000000000000000000000000000000000000000000000000000000000000000000000000000000000000600790000                                                                                                                                                                                                                                                                                        PUC   NN     000000000000                          
2F94013412QMSTUSATX00000-0000HOUSTON                     000000055500000000004579000000000000000000000000                              
3F94013412QMSUSATX00000-0000HOUSTON             000100O00PNETDEBIT      PNMINI-ENGINE, 1024 KB MEMORY             0000001000000031500000EACH      0000031500   0000000000000000M0008300000025990000000000000000000000000000000000000   940101940131                 0000000000                                
3F94013412QMSUSATX00000-0000HOUSTON             000200O00PNETDEBIT      PNSYNCHRONOUS BOARD                       0000001000000005300000EACH      0000005300   0000000000000000M0008300000004370000000000000000000000000000000000000   940101940131                 0000000000                                
3F94013412QMSUSATX00000-0000HOUSTON             000300O00PNETDEBIT      PNSIO CONTROLLER - MINI                   0000001000000005300000EACH      0000005300   0000000000000000M0008300000004370000000000000000000000000000000000000   940101940131                 0000000000                                
3F94013412QMSUSATX00000-0000HOUSTON             000400O00PNETDEBIT      PNSIO SYNC V.24 DUAL INTERFACE            0000004000000002100000EACH      0000008400   0000000000000000M0008300000006930000000000000000000000000000000000000   940101940131                 0000000000                                
3F94013412QMSUSATX00000-0000HOUSTON             000500O00PNETDEBIT      PNSIO OCL COAX DUAL INTERFACE             0000001000000002100000EACH      0000002100   0000000000000000M0008300000001730000000000000000000000000000000000000   940101940131                 0000000000                                
3F94013412QMSUSATX00000-0000HOUSTON             000600O00PNETDEBIT      PNBATTERY BACKUP 110V ENG/MINI            0000001000000000400000EACH      0000000400   0000000000000000M0008300000000330000000000000000000000000000000000000   940101940131                 0000000000                                
3F94013412QMSUSATX00000-0000HOUSTON             000700O00PNETDEBIT      PNSYNC DATA SET CABLES, 1X4, 25'          0000001000000000200000EACH      0000000200   0000000000000000M0008300000000170000000000000000000000000000000000000   940101940131                 0000000000                                
3F94013412QMSUSATX00000-0000HOUSTON             000800O00PNETDEBIT      PNSIO OCL COAX CABLE, 25'                 0000001000000000200000EACH      0000000200   0000000000000000M0008300000000170000000000000000000000000000000000000   940101940131                 0000000000                                
3F94013412QMSUSATX00000-0000HOUSTON             000900O00PNETDEBIT      PNSIO SYNC V.24 DUAL INTERFACE            0000001000000002100000EACH      0000002100   0000000000000000M0008300000001730000000000000000000000000000000000000   940101940131                 0000000000                                
1F94013413QBP94020409114200                                                                              EXXON COMPUTING SERVICES COMPANY                   0058700940131940131000                                                            0000000000          3433      010659401019401310000000000000000000000000000000000000000000000000000000000000000000000000000000000000000000000000000000543000000000044820000000000000000000000000000000000000000000000000000000000000000000000000000000000000000000000000000000000000000000000000000000000000000000000000000000000000000000000000000000000000587820000                                                                                                                                                                                                                                                                                        PUC   NN     000000000000                          
2F94013413QMSTUSATX00000-0000HOUSTON                     000000054300000000004482000000000000000000000000                              
3F94013413QMSUSATX00000-0000HOUSTON             000100O00PNETDEBIT      PNMINI-ENGINE, 1024 KB MEMORY             0000001000000031500000EACH      0000031500   0000000000000000M0008300000025990000000000000000000000000000000000000   940101940131                 0000000000                                
3F94013413QMSUSATX00000-0000HOUSTON             000200O00PNETDEBIT      PNASYNCHRONOUS BOARD                      0000001000000004700000EACH      0000004700   0000000000000000M0008300000003880000000000000000000000000000000000000   940101940131                 0000000000                                
3F94013413QMSUSATX00000-0000HOUSTON             000300O00PNETDEBIT      PNSIO CONTROLLER - MINI                   0000001000000005300000EACH      0000005300   0000000000000000M0008300000004370000000000000000000000000000000000000   940101940131                 0000000000                                
3F94013413QMSUSATX00000-0000HOUSTON             000400O00PNETDEBIT      PNBATTERY BACKUP 110V ENG/MINI            0000001000000000400000EACH      0000000400   0000000000000000M0008300000000330000000000000000000000000000000000000   940101940131                 0000000000                                
3F94013413QMSUSATX00000-0000HOUSTON             000500O00PNETDEBIT      PNASYNCHRONOUS UNSWITCHED CARD            0000004000000000600000EACH      0000002400   0000000000000000M0008300000001980000000000000000000000000000000000000   940101940131                 0000000000                                
3F94013413QMSUSATX00000-0000HOUSTON             000600O00PNETDEBIT      PNSIO SYNC. V.24 UNSW. CARD               0000002000000002600000EACH      0000005200   0000000000000000M0008300000004290000000000000000000000000000000000000   940101940131                 0000000000                                
3F94013413QMSUSATX00000-0000HOUSTON             000700O00PNETDEBIT      PNSIO ASYNC UNSWITCHED CARD               0000001000000002600000EACH      0000002600   0000000000000000M0008300000002150000000000000000000000000000000000000   940101940131                 0000000000                                
3F94013413QMSUSATX00000-0000HOUSTON             000800O00PNETDEBIT      PNSYNCHRONOUS BREAKOUT CABLE 4'           0000002000000000200000EACH      0000000400   0000000000000000M0008300000000330000000000000000000000000000000000000   940101940131                 0000000000                                
3F94013413QMSUSATX00000-0000HOUSTON             000900O00PNETDEBIT      PNASYNCHRONOUS BREAKOUT CABLE 4'          0000001000000000200000EACH      0000000200   0000000000000000M0008300000000170000000000000000000000000000000000000   940101940131                 0000000000                                
3F94013413QMSUSATX00000-0000HOUSTON             001000O00PNETDEBIT      PNSYNCHRONOUS BREAKOUT CABLE 4'           0000001000000000200000EACH      0000000200   0000000000000000M0008300000000170000000000000000000000000000000000000   940101940131                 0000000000                                
3F94013413QMSUSATX00000-0000HOUSTON             001100O00PNETDEBIT      PNASYNCHRONOUS BREAKOUT CABLE 25          0000004000000000200000EACH      0000000800   0000000000000000M0008300000000660000000000000000000000000000000000000   940101940131                 0000000000                                
3F94013413QMSUSATX00000-0000HOUSTON             001200O00PNETDEBIT      PNSYNCHRONOUS UNSWITCHED CARD             0000001000000000600000EACH      0000000600   0000000000000000M0008300000000500000000000000000000000000000000000000   940101940131                 0000000000                                
1F94013414QBP94020409114200                                                                              EXXON COMPUTING SERVICES COMPANY                   0058700940131940131000                                                            0000000000          3433      010659401019401310000000000000000000000000000000000000000000000000000000000000000000000000000000000000000000000000000000606000000000042420000000000000000000000000000000000000000000000000000000000000000000000000000000000000000000000000000000000000000000000000000000000000000000000000000000000000000000000000000000000000648420000                                                                                                                                                                                                                                                                                        PUC   NN     000000000000                          
2F94013414QMSTUSANJ00000-0000LINDEN                      000000060600000000004242000000000000000000000000                              
3F94013414QMSUSANJ00000-0000LINDEN              000100O00PNETDEBIT      PNMINI-ENGINE, 1024 KB MEMORY             0000001000000031500000EACH      0000031500   0000000000000000M0007000000022050000000000000000000000000000000000000   940101940131                 0000000000                                
3F94013414QMSUSANJ00000-0000LINDEN              000200O00PNETDEBIT      PNASYNCHRONOUS BOARD                      0000001000000004700000EACH      0000004700   0000000000000000M0007000000003290000000000000000000000000000000000000   940101940131                 0000000000                                
3F94013414QMSUSANJ00000-0000LINDEN              000300O00PNETDEBIT      PNSIO CONTROLLER - MINI                   0000001000000005300000EACH      0000005300   0000000000000000M0007000000003710000000000000000000000000000000000000   940101940131                 0000000000                                
3F94013414QMSUSANJ00000-0000LINDEN              000400O00PNETDEBIT      PNBATTERY BACKUP 110V ENG/MINI            0000001000000000400000EACH      0000000400   0000000000000000M0007000000000280000000000000000000000000000000000000   940101940131                 0000000000                                
3F94013414QMSUSANJ00000-0000LINDEN              000500O00PNETDEBIT      PNASYNCHRONOUS UNSWITCHED CARD            0000004000000000600000EACH      0000002400   0000000000000000M0007000000001680000000000000000000000000000000000000   940101940131                 0000000000                                
3F94013414QMSUSANJ00000-0000LINDEN              000600O00PNETDEBIT      PNSIO SYNC. V.24 UNSW. CARD               0000002000000002600000EACH      0000005200   0000000000000000M0007000000003640000000000000000000000000000000000000   940101940131                 0000000000                                
3F94013414QMSUSANJ00000-0000LINDEN              000700O00PNETDEBIT      PNSIO ASYNC UNSWITCHED CARD               0000001000000002600000EACH      0000002600   0000000000000000M0007000000001820000000000000000000000000000000000000   940101940131                 0000000000                                
3F94013414QMSUSANJ00000-0000LINDEN              000800O00PNETDEBIT      PNSYNCHRONOUS BREAKOUT CABLE 4'           0000002000000000200000EACH      0000000400   0000000000000000M0007000000000280000000000000000000000000000000000000   940101940131                 0000000000                                
3F94013414QMSUSANJ00000-0000LINDEN              000900O00PNETDEBIT      PNASYNCHRONOUS BREAKOUT CABLE 4'          0000001000000000200000EACH      0000000200   0000000000000000M0007000000000140000000000000000000000000000000000000   940101940131                 0000000000                                
3F94013414QMSUSANJ00000-0000LINDEN              001000O00PNETDEBIT      PNASYNCHRONOUS BREAKOUT CABLE 25          0000004000000000200000EACH      0000000800   0000000000000000M0007000000000560000000000000000000000000000000000000   940101940131                 0000000000                                
3F94013414QMSUSANJ00000-0000LINDEN              001100O00PNETDEBIT      PNASYNCHRONOUS BOARD                      0000001000000004700000EACH      0000004700   0000000000000000M0007000000003290000000000000000000000000000000000000   940101940131                 0000000000                                
3F94013414QMSUSANJ00000-0000LINDEN              001200O00PNETDEBIT      PNASYNCHRONOUS UNSWITCHED CARD            0000003000000000600000EACH      0000001800   0000000000000000M0007000000001260000000000000000000000000000000000000   940101940131                 0000000000                                
3F94013414QMSUSANJ00000-0000LINDEN              001300O00PNETDEBIT      PNASYNCHRONOUS BREAKOUT CABLE 4'          0000003000000000200000EACH      0000000600   0000000000000000M0007000000000420000000000000000000000000000000000000   940101940131                 0000000000                                
1F94013415QBP94020409114200                                                                              EXXON COMPUTING SERVICES COMPANY                   0058700940131940131000                                                            0000000000          3433      010659401019401310000000000000000000000000000000000000000000000000000000000000000000000000000000000000000000000000000000602000000000049680000000000000000000000000000000000000000000000000000000000000000000000000000000000000000000000000000000000000000000000000000000000000000000000000000000000000000000000000000000000000651680000                                                                                                                                                                                                                                                                                        PUC   NN     000000000000                          
2F94013415QMSTUSATX00000-0000HOUSTON                     000000060200000000004968000000000000000000000000                              
3F94013415QMSUSATX00000-0000HOUSTON             000100O00PNETDEBIT      PNMINI-ENGINE, 1024 KB MEMORY             0000001000000031500000EACH      0000031500   0000000000000000M0008300000025990000000000000000000000000000000000000   940101940131                 0000000000                                
3F94013415QMSUSATX00000-0000HOUSTON             000200O00PNETDEBIT      PNSYNCHRONOUS BOARD                       0000001000000005300000EACH      0000005300   0000000000000000M0008300000004370000000000000000000000000000000000000   940101940131                 0000000000                                
3F94013415QMSUSATX00000-0000HOUSTON             000300O00PNETDEBIT      PNASYNCHRONOUS BOARD                      0000001000000004700000EACH      0000004700   0000000000000000M0008300000003880000000000000000000000000000000000000   940101940131                 0000000000                                
3F94013415QMSUSATX00000-0000HOUSTON             000400O00PNETDEBIT      PNSIO CONTROLLER - MINI                   0000001000000005300000EACH      0000005300   0000000000000000M0008300000004370000000000000000000000000000000000000   940101940131                 0000000000                                
3F94013415QMSUSATX00000-0000HOUSTON             000500O00PNETDEBIT      PNBATTERY BACKUP 110V ENG/MINI            0000001000000000400000EACH      0000000400   0000000000000000M0008300000000330000000000000000000000000000000000000   940101940131                 0000000000                                
3F94013415QMSUSATX00000-0000HOUSTON             000600O00PNETDEBIT      PNSYNCHRONOUS UNSWITCHED CARD             0000001000000000600000EACH      0000000600   0000000000000000M0008300000000500000000000000000000000000000000000000   940101940131                 0000000000                                
3F94013415QMSUSATX00000-0000HOUSTON             000700O00PNETDEBIT      PNASYNCHRONOUS UNSWITCHED CARD            0000004000000000600000EACH      0000002400   0000000000000000M0008300000001980000000000000000000000000000000000000   940101940131                 0000000000                                
3F94013415QMSUSATX00000-0000HOUSTON             000800O00PNETDEBIT      PNSIO SYNC. V.24 UNSW. CARD               0000002000000002600000EACH      0000005200   0000000000000000M0008300000004290000000000000000000000000000000000000   940101940131                 0000000000                                
3F94013415QMSUSATX00000-0000HOUSTON             000900O00PNETDEBIT      PNSIO ASYNC UNSWITCHED CARD               0000001000000002600000EACH      0000002600   0000000000000000M0008300000002150000000000000000000000000000000000000   940101940131                 0000000000                                
3F94013415QMSUSATX00000-0000HOUSTON             001000O00PNETDEBIT      PNSYNCHRONOUS BREAKOUT CABLE 4'           0000002000000000200000EACH      0000000400   0000000000000000M0008300000000330000000000000000000000000000000000000   940101940131                 0000000000                                
3F94013415QMSUSATX00000-0000HOUSTON             001100O00PNETDEBIT      PNASYNCHRONOUS BREAKOUT CABLE 4'          0000001000000000200000EACH      0000000200   0000000000000000M0008300000000170000000000000000000000000000000000000   940101940131                 0000000000                                
3F94013415QMSUSATX00000-0000HOUSTON             001200O00PNETDEBIT      PNSYNCHRONOUS BREAKOUT CABLE 25'          0000004000000000200000EACH      0000000800   0000000000000000M0008300000000660000000000000000000000000000000000000   940101940131                 0000000000                                
3F94013415QMSUSATX00000-0000HOUSTON             001300O00PNETDEBIT      PNASYNCHRONOUS BREAKOUT CABLE 25          0000004000000000200000EACH      0000000800   0000000000000000M0008300000000660000000000000000000000000000000000000   940101940131                 0000000000                                
1F94013416QBP94020409114200                                                                              EXXON COMPUTING SERVICES COMPANY                   0058700940131940131000                                                            0000000000          3433      010659401019401310000000000000000000000000000000000000000000000000000000000000000000000000000000000000000000000000000000562000000000046380000000000000000000000000000000000000000000000000000000000000000000000000000000000000000000000000000000000000000000000000000000000000000000000000000000000000000000000000000000000000608380000                                                                                                                                                                                                                                                                                        PUC   NN     000000000000                          
2F94013416QMSTUSATX00000-0000HOUSTON                     000000056200000000004638000000000000000000000000                              
3F94013416QMSUSATX00000-0000HOUSTON             000100O00PNETDEBIT      PNMINI-ENGINE, 1024 KB MEMORY             0000001000000031500000EACH      0000031500   0000000000000000M0008300000025990000000000000000000000000000000000000   940101940131                 0000000000                                
3F94013416QMSUSATX00000-0000HOUSTON             000200O00PNETDEBIT      PNSYNCHRONOUS BOARD                       0000001000000005300000EACH      0000005300   0000000000000000M0008300000004370000000000000000000000000000000000000   940101940131                 0000000000                                
3F94013416QMSUSATX00000-0000HOUSTON             000300O00PNETDEBIT      PNASYNCHRONOUS BOARD                      0000001000000004700000EACH      0000004700   0000000000000000M0008300000003880000000000000000000000000000000000000   940101940131                 0000000000                                
3F94013416QMSUSATX00000-0000HOUSTON             000400O00PNETDEBIT      PNSIO CONTROLLER - MINI                   0000001000000005300000EACH      0000005300   0000000000000000M0008300000004370000000000000000000000000000000000000   940101940131                 0000000000                                
3F94013416QMSUSATX00000-0000HOUSTON             000500O00PNETDEBIT      PNSIO SYNC V.24 DUAL INTERFACE            0000003000000002100000EACH      0000006300   0000000000000000M0008300000005200000000000000000000000000000000000000   940101940131                 0000000000                                
3F94013416QMSUSATX00000-0000HOUSTON             000600O00PNETDEBIT      PNBATTERY BACKUP 110V ENG/MINI            0000001000000000400000EACH      0000000400   0000000000000000M0008300000000330000000000000000000000000000000000000   940101940131                 0000000000                                
3F94013416QMSUSATX00000-0000HOUSTON             000700O00PNETDEBIT      PNASYNC DATA SET CABLES, 1X5, 25          0000001000000000200000EACH      0000000200   0000000000000000M0008300000000170000000000000000000000000000000000000   940101940131                 0000000000                                
3F94013416QMSUSATX00000-0000HOUSTON             000800O00PNETDEBIT      PNSYNC DATA SET CABLES, 1X4, 25'          0000001000000000200000EACH      0000000200   0000000000000000M0008300000000170000000000000000000000000000000000000   940101940131                 0000000000                                
3F94013416QMSUSATX00000-0000HOUSTON             000900O00PNETDEBIT      PNSIO OCL COAX DUAL INTERFACE             0000001000000002100000EACH      0000002100   0000000000000000M0008300000001730000000000000000000000000000000000000   940101940131                 0000000000                                
3F94013416QMSUSATX00000-0000HOUSTON             001000O00PNETDEBIT      PNSIO OCL COAX CABLE, 25'                 0000001000000000200000EACH      0000000200   0000000000000000M0008300000000170000000000000000000000000000000000000   940101940131                 0000000000                                
1F94013417QBP94020409114200                                                                              EXXON COMPUTING SERVICES COMPANY                   0058700940131940131000                                                            0000000000          3433      010659401019401310000000000000000000000000000000000000000000000000000000000000000000000000000000000000000000000000000000594000000000049020000000000000000000000000000000000000000000000000000000000000000000000000000000000000000000000000000000000000000000000000000000000000000000000000000000000000000000000000000000000000643020000                                                                                                                                                                                                                                                                                        PUC   NN     000000000000                          
2F94013417QMSTUSATX00000-0000HOUSTON                     000000059400000000004902000000000000000000000000                              
3F94013417QMSUSATX00000-0000HOUSTON             000100O00PNETDEBIT      PNMINI-ENGINE, 1024 KB MEMORY             0000001000000031500000EACH      0000031500   0000000000000000M0008300000025990000000000000000000000000000000000000   940101940131                 0000000000                                
3F94013417QMSUSATX00000-0000HOUSTON             000200O00PNETDEBIT      PNASYNCHRONOUS BOARD                      0000001000000004700000EACH      0000004700   0000000000000000M0008300000003880000000000000000000000000000000000000   940101940131                 0000000000                                
3F94013417QMSUSATX00000-0000HOUSTON             000300O00PNETDEBIT      PNSIO CONTROLLER - MINI                   0000001000000005300000EACH      0000005300   0000000000000000M0008300000004370000000000000000000000000000000000000   940101940131                 0000000000                                
3F94013417QMSUSATX00000-0000HOUSTON             000400O00PNETDEBIT      PNBATTERY BACKUP 110V ENG/MINI            0000001000000000400000EACH      0000000400   0000000000000000M0008300000000330000000000000000000000000000000000000   940101940131                 0000000000                                
3F94013417QMSUSATX00000-0000HOUSTON             000500O00PNETDEBIT      PNASYNCHRONOUS UNSWITCHED CARD            0000004000000000600000EACH      0000002400   0000000000000000M0008300000001980000000000000000000000000000000000000   940101940131                 0000000000                                
3F94013417QMSUSATX00000-0000HOUSTON             000600O00PNETDEBIT      PNSIO SYNC. V.24 UNSW. CARD               0000002000000002600000EACH      0000005200   0000000000000000M0008300000004290000000000000000000000000000000000000   940101940131                 0000000000                                
3F94013417QMSUSATX00000-0000HOUSTON             000700O00PNETDEBIT      PNSIO ASYNC UNSWITCHED CARD               0000001000000002600000EACH      0000002600   0000000000000000M0008300000002150000000000000000000000000000000000000   940101940131                 0000000000                                
3F94013417QMSUSATX00000-0000HOUSTON             000800O00PNETDEBIT      PNASSY CABLE CNTRL CD                     0000001000000000000000EACH      0000000000   0000000000000000M0008300000000000000000000000000000000000000000000000   940101940131                 0000000000                                
3F94013417QMSUSATX00000-0000HOUSTON             000900O00PNETDEBIT      PNS RIBBON CABLE                          0000001000000000000000EACH      0000000000   0000000000000000M0008300000000000000000000000000000000000000000000000   940101940131                 0000000000                                
3F94013417QMSUSATX00000-0000HOUSTON             001000O00PNETDEBIT      PNASYNCHRONOUS BREAKOUT CABLE 4'          0000001000000000200000EACH      0000000200   0000000000000000M0008300000000170000000000000000000000000000000000000   940101940131                 0000000000                                
3F94013417QMSUSATX00000-0000HOUSTON             001100O00PNETDEBIT      PNSYNC B/O CABLE, 1x4, MICRO, 25          0000002000000000200000EACH      0000000400   0000000000000000M0008300000000330000000000000000000000000000000000000   940101940131                 0000000000                                
3F94013417QMSUSATX00000-0000HOUSTON             001200O00PNETDEBIT      PNSYNCHRONOUS BREAKOUT CABLE 25'          0000004000000000200000EACH      0000000800   0000000000000000M0008300000000660000000000000000000000000000000000000   940101940131                 0000000000                                
3F94013417QMSUSATX00000-0000HOUSTON             001300O00PNETDEBIT      PNSYNCHRONOUS BOARD                       0000001000000005300000EACH      0000005300   0000000000000000M0008300000004370000000000000000000000000000000000000   940101940131                 0000000000                                
3F94013417QMSUSATX00000-0000HOUSTON             001400O00PNETDEBIT      PNSYNCHRONOUS UNSWITCHED CARD             0000001000000000600000EACH      0000000600   0000000000000000M0008300000000500000000000000000000000000000000000000   940101940131                 0000000000                                
1F94013418QBP94020409114200                                                                              EXXON COMPUTING SERVICES COMPANY                   0058700940131940131000                                                            0000000000          3433      010659401019401310000000000000000000000000000000000000000000000000000000000000000000000000000000000000000000000000000000856000000000070630000000000000000000000000000000000000000000000000000000000000000000000000000000000000000000000000000000000000000000000000000000238000000000019640000000000000000000000000000000000001184270000                                                                                                                                                                                                                                                                                        PUC   NN     000000000000                          
2F94013418QMCTUSATX00000-0000HOUSTON                     000000023800000000001964000000000000000000000000                              
3F94013418QMCUSATX00000-0000HOUSTON             000100O00PNETDEBIT      PNSYNCHRONOUS BOARD MAINT.                0000001000000005300000EACH      0000005300   0000000000000000M0008300000004370000000000000000000000000000000000000   940101940131                 0000000000                                
3F94013418QMCUSATX00000-0000HOUSTON             000200O00PNETDEBIT      PN160/300 MB DISK CONTROLLER MAI          0000001000000009000000EACH      0000009000   0000000000000000M0008300000007430000000000000000000000000000000000000   940101940131                 0000000000                                
3F94013418QMCUSATX00000-0000HOUSTON             000300O00PNETDEBIT      PNTAPE DRIVE, 45 IPS MAINT.               0000001000000009500000EACH      0000009500   0000000000000000M0008300000007840000000000000000000000000000000000000   940101940131                 0000000000                                
2F94013418QMSTUSATX00000-0000HOUSTON                     000000085600000000007063000000000000000000000000                              
3F94013418QMSUSATX00000-0000HOUSTON             000400O00PNETDEBIT      PNENGINE MAINT.                           0000001000000045000000EACH      0000045000   0000000000000000M0008300000037130000000000000000000000000000000000000   940101940131                 0000000000                                
3F94013418QMSUSATX00000-0000HOUSTON             000500O00PNETDEBIT      PNTAPE CONTROLLER MAINT.                  0000001000000009500000EACH      0000009500   0000000000000000M0008300000007840000000000000000000000000000000000000   940101940131                 0000000000                                
