UPDLUD - ACCTG., LUD UPDATER	MACRO 12.5-46.0 17:15 19-SEP-89 PAGE 1
UPDLUD.MAC	24-MAY-89 18:55		- J. MARCIN 9/10/75

     1				TITLE UPDLUD - ACCTG., LUD UPDATER
     2				SUBTTL - J. MARCIN 9/10/75
     3
     4			000021	TYMSPC==21
     5			000002	TYMREL==2
     6
     7			000137	JOBVER=137
     8	000137			LOC JOBVER 	;PUT VERSION NUMBER IN JOB DATA AREA
     9	000137	000021	000002	XWD TYMSPC,TYMREL
    10
    11	000000'			RELOC
    12
    13				;.SELECT
    14				;&.NOFILL
    15				;&.LEFT MARGIN 2
    16				;&.RIGHT MARGIN 70
    17				;&.PAGE SIZE 60,79
    18				;&.CENTER
    19				;&COMMAND CODES FOR UPDLUD - UPDATED 12/16/80
    20				;&.SKIP 1
    21
    22				;TO DEBUG FOR A SLAVE
    23				;
    24				;INCH(CH)$B	OUCH(CH)$B
    25				;INCH/ POPJ P,0
    26				;OUCH/ POPJ P,0
    27				;AWYBLK-1/ JRST INITIA
    28				;
    29
    30				;VERSION	DESCRIPTION
    31				;21.2(05/24/89) Overflow blocks are numbered starting with 0.
    32				;21.1(03/xx/89) Don't go past end of block
    33				;21.0(02/18/87) MODIFY COMMAND 234,221 ADD COMMAND 46, 235
    34				;20.6(07/18/86) MODIFY COMMAND 76
    35				;20.4(05/07/86) MODIFY COMMAND 122 -- INCLUDE CODE 205 AND 211
    36				;20.2(10/31/85) ADDED COMMAND 32 -- GET CUSNUM
    37				;20.0 (9/17/85) CARRIED THE OLD COSTCODE WHEN CHANGE DISTRICT CODE 31, 117
    38				;               AND 233.
    39				;20.0 (4/18/85) MODIFY UPDACS ROUTINE
    40				;20.0 (1/18/85) PROMPT COSTCODE IN ADD NEW USER TO TUSRDB (CODE 205)
    41				;17.6 (2/27/84) UUN INCREASED FROM 17 TO 18 BITS.
    42				;               CHANGED UUN MASK ACCORDINGLY
    43				;17.4 (1/15/81) ADDED COMMANDS  12, 33, 66, 67, 164, & 170
    44				                ;CODE 12 IS CHANGE A USER'S GAN IN LUD,DUL
    45				                ;CODE 33 IS CHANGE CUST. FLAT FOCUS FEE
    46				                ;CODE 66 IS LIST ALL CUST.S FOR A COSTCODE
    47				                ;CODE 67 IS LIST ALL USERS FOR A COSTCODE
    48				                ;CODE 71 IS CHANGE A USER'S GAN IN ACCOUNTING
    49				                ;CODE 164 IS LIST ALL GANS FOR A COSTCODE
    50				                ;CODE 170 IS LIST ALL COSTCODES FOR A DISTRICT
    51				;17.3 (12/23/81) COMMANDS 50 & 106 (LIST CUS. ACCT. &
    52				                 ;LIST USER ACCT.) BOTH OUTPUT COSTCODE.  LIST CUS. ACCT.
    53				                 ;ALSO OUTPUTS FLAT FOCUS FEE BIT FIELD FROM CUSTDB.DMS
UPDLUD - ACCTG., LUD UPDATER	MACRO 12.5-46.0 17:15 19-SEP-89 PAGE 1-2
UPDLUD.MAC	24-MAY-89 18:55		- J. MARCIN 9/10/75

    54				;17.2 (10/29/81) COMMANDS 31,75,117,233 (DISTRICT CHANGING COMMANDS
    55				                 ;FOR CUSTDB USERDB TUSRDB) NOW SET COSTCODE TO ZERO
    56				                 ;IN NEW ACTIVE RECORDS WHEN THEY ARE CREATED
    57				;17.1 (9/21/81)  USE (SRATECH)UPDLUD.ACS SECURITY FILE...
    58				                 ;CHANGES TO ACCOMODATE NEW COSTCODE ATTRIB IN TUSRDB
    59				;17.0 (8/1/81)   ADD CODE 234 - CHANGE CUSNUM IN TUSRDB
    60				                 ;CHANGES TO ACCOMODATE NEW COSTCODE ATTRIB IN CUSTDB
    61				                 ; & NEW COSTCODE AND NON-LUD-HOST ATTRIBS IN USERDB
    62				;16.1            ADD CODE 6 - CHANGE USER TRU BUDGET
    63				;16.0            CHANGED ALL HOST INPUT/OUTPUT TO 2 BYTES (INCLUDING
    64				;                PREVIOUS OUTPUT THAT USED 1 BIT PER HOST.
    65				;15.9 (11/11/80) ADD CODE 103 - LIST USER CUSTOMER NUMBER.
    66				;15.8 (10/16/80) CHG CODE 112 AND 54 TO REQUIRE ASYSCODE AS WELL AS
    67				;                CUSNUM.  (E. GAUCI)
    68				;15.7 (10/7/80) ADD CODE 210; CHG CODE 220 TO STOP ALL OTHERS IF ADDING
    69				;               HOST 'ALL'.  (E. GAUCI)
    70				;15.2 (10/2/78) INCREASE MXTHST
    71				;15.0 (4/11/78) CHANGE INPUT, OUTPUT OF P-CODE TO 2 BYTES
    72				;14.6 (4/10/78) INCREASE MAX HOST TO 47, FIX DEFAULT TYMUSE DATA
    73				;	CHANGE LISTING OF HOST MAP, ALLOW CHG CUST ON 940 USER
    74				;14.5 (3/6/78) INCREASE MAX P-CODE TO 999
    75				;14.4 (2/28/78) FIX DSTOP IN TYMUSR
    76				;14.3 (2/2/78) ADD CODE 36
    77				;14.2 (1/18/78) ANOTHER FIX TO STOP DATE IN TUSRDB
    78				;14.1 (1/4/78) FIX STOP DATE IN TUSRDB
    79				;14.0 (12/7/77) REMOVE UNNECESSARY ATTRIBUTES, ADD INTERNAL INV. CODE
    80				;13.4 (8/29/77) FIX RDTMP BUG
    81				;13.3 (8/23/77) ADD CODE 65
    82				;13.2 (8/15/) FIX TO CODE 154 AND FIX GETTMP ROUTINE
    83				;13.1 (8/5/77) CODE 130
    84				;13.0 (7/7/77) TYMUSE AND CONSOLIDATION OF DEFINITIONS
    85				;12.5 (6/28/77)FIX CANCEL CUST. ON A REMOVE USER
    86				;12.4 (6/23/77)DON'T ALLOW CANCELLING OF MAIL NAME IF USERS ARE LEFT
    87				;12.3 (6/21/77)ALPHABETIZE NAMES ON CODE 213-LIST NAMES FOR A MAIL NAME
    88				;12.2 (6/14/77)FIX CANCEL CUST BUG IF USER ON > 1 AST
    89				;12.1 (6/10/77)ADD CODE 127 FOR TYMIII CONSIS CHECK
    90				;12.0 (5/23/77)REMOVE ATTRIBUTES WE DO NOT NEED, STOP DATES FOR CUSTS
    91				;11.4	(5/3/77)ALLOW -1 AS HOST IN TYMHST
    92				;11.3	(4/29/77)TYMCOM-III VAL, AND DEF. CORE=256
    93				;11.2	(4/22/77)CHECK FOR LEGAL DATES (MONTH<13, DAY <32)
    94				;11.1	(4/13/77)CHECK AST IN DATA BASE
    95				;11.0	DON'T CHECK FOR LEGAL DATES (>12/31/99 AND <5/19/71)
    96				;10.0	TAKE OUT CODE FOR DELETING FILES PRE PO30 MONITOR
    97				;1.0	ORIGINAL X22 VERSION - FROM LUDUPD
    98
    99				INTERN DYNDV., DEVTB.
   100
   101				EXTERN DBSTRT, DBERR, DBOPEN, DBFIND, DBNREC, DBGET, DBCHNG, DBCLOS
   102				EXTERN DBDATN, DBNDAT, DBADDR, DBEND, DBSYSV, DBSET, DBSORT
   103				EXTERN DBDEL, DBMAP
   104
   105				;AC'S
   106			000000	F=0	;FLAG AC
UPDLUD - ACCTG., LUD UPDATER	MACRO 12.5-46.0 17:15 19-SEP-89 PAGE 1-3
UPDLUD.MAC	24-MAY-89 18:55		- J. MARCIN 9/10/75

   107			000001	A=1
   108			000002	B=2
   109			000003	C=3
   110			000004	D=4
   111			000005	E=5
   112			000006	N=6
   113			000007	N1=7
   114			000010	N2=10
   115			000011	N3==11
   116			000013	CH=13
   117			000014	Z=14	;# OF BYTES (1-3) FOR 940 I/O
   118			000017	P=17
   119			000015	BP=15
   120			000012	INDEX=12
   121				SUBTTL FLAGS
   122
   123				;FLAGS IN RIGHT HALF OF F
   124			000001	ACTSYS==1	;THIS SYSTEM IS THE ACCTG. SYSTEM
   125			000004	ADDDUL==4
   126			000002	CHDUL==2
   127			000010	TTYOUT==10	;I/O IS TO TTY
   128			000020	ERRF==20	;ERROR MADE
   129			000040	NEWF==40	;TYPE "NEW" BEFORE ASKING QUESTION
   130			000100	ALLIOI==100	;ALL IO HAS BEEN INPUT, STOP IF ERROR FOUND
   131				;ACTCMD==400	;COMMAND (DEFINED LATER) IS AN ACCOUNTING COMMAND
   132			001000	LIST==1000	;LISTING COMMAND TYPED
   133			002000	SHORTS==2000	;SHORTEN STRING AND ADD 377
   134			010000	SELHST==10000	;LIST HOSTS FOR AN AST ONLY
   135			020000	NOHSTS==20000	;DO NOT ADD HOST IN MOVE CUST AND MOVE ACCT COMMANDS
   136			100000	WAITF==100000	;X22 IS TRYING TO EXECUTE AN ADD, CHANGE OR
   137						;DELETE, EKKP TRYING IF BUSY
   138
   139				;FLAGS IN LEFT HALF OF F
   140			000001	ONESIT==1	;LOOKING FOR 1 HOST FOR A CUSTOMER
   141			000020	CHANGE==20	;BLK READ IN HAS BEEN CHANGED
   142			400000	OVFLF==400000	;USED TO MARK FOR AN OVERFLOW BLK
   143			000002	ENDTYD==2	;SET WHEN A 377 OR ALT-MODE INPUT
   144			000004	UNLOK==4	;STRUCTURE NEEDS TO BE UNLOCKED
   145			000010	OCTINF==10	;OCTAL INPUT AND OUTPUT
   146			000040	DIGINF==40	;INPUT IS IN DIGITS
   147			000100	NAMESO==100	;ONLY OUTPUT NAMES
   148			000400	INITF==400	;INIT FLAG SET
   149			001000	NOCR==1000	;NO CR
   150			002000	TRUF==2000	;TRU BUDGET FLAG
   151			004000	ASCIO==4000	;ASCII I/O
   152			010000	DELADD==10000	;DELETE ADDRESS BEFORE ADDING NEW ONE
   153
   154				;I/O CHANNELS
   155			000017	DSK==17
   156			000015	DSK1==15
   157			000014	BILFIL==14
   158			000013	DFIL==13
   159				SUBTTL INDEX'S INTO X22 DATA
UPDLUD - ACCTG., LUD UPDATER	MACRO 12.5-46.0 17:15 19-SEP-89 PAGE 1-4
UPDLUD.MAC	24-MAY-89 18:55		INDEX'S INTO X22 DATA

   160
   161				;INDEX INTO UINFO
   162			000000	NGAN==0
   163			000001	NUUN==1
   164			000002	NUNAME==2
   165			000005	NUDIST==5
   166			000006	NUCUSN==6
   167			000007	NCURR==7
   168			000010	NLANG==^D8
   169			000011	NUSTART==^D9
   170			000012	NUSTOP==^D10
   171			000015	NUCOST==^D13
   172			000016	NNLUDH==^D14
   173			000017	MXUINF==^D15
   174
   175				;INDEX INTO CINFO
   176			000000	NCUSNUM==0
   177			000001	NCSYSC==1
   178			000002	NCDIST==2
   179			000003	NCDSTART==3
   180			000004	NCDSTOP==4
   181			000005	NCDETC==5
   182			000006	NCINVC==6
   183			000007	NCSLS==7
   184			000010	NCMINC==^D8
   185			000011	NPO==^D9
   186			000017	NPOMAX==^D15
   187			000020	NPOSTART==^D16
   188			000021	NPOSTOP==^D17
   189			000022	NVPF==^D18
   190			000023	NDPRI==^D19
   191			000026	NCCOST==^D22
   192			000027	NFOCF==^D23
   193			000030	NANNDT==^D24
   194			000031	MXCINF==^D25
   195
   196				;INDEX INTO VINFO
   197				;NUSUUN==0
   198			000001	NHOST==1
   199			000002	NVSTART==2
   200			000003	NVSTOP==3
   201			000004	NVGAN==4
   202			000007	MXVINF==7
UPDLUD - ACCTG., LUD UPDATER	MACRO 12.5-46.0 17:15 19-SEP-89 PAGE 2
UPDLUD.MAC	24-MAY-89 18:55		INDEX'S INTO X22 DATA

   203				;INDEX INTO USINFO
   204			000000	NUSUUN==0
   205			000001	NUSYSC==1
   206			000002	NUSLSM==2
   207			000003	NPRICOD==3
   208			000004	NRES==4
   209			000005	NUZONE==5
   210			000006	NDST==6
   211			000007	NSYSTART==7
   212			000010	NSYSTOP==^D8
   213			000013	MXUSINF==^D11
   214
   215				;INDEX INTO AINFO
   216			000000	NACUSNUM==^D0
   217			000001	NASYSC==^D1
   218			000002	NCUSNAM==^D2
   219			000015	NATTN==^D13
   220			000030	NSTRT1==^D24
   221			000043	NSTRT2==^D35
   222			000056	NCITY==^D46
   223			000061	NSTATE==^D49
   224			000062	NZIP==^D50
   225			000064	NXL==^D52
   226			000077	NCOUNTRY==^D63
   227			000121	MXAINF==^D81
   228
   229				;INDEX INTO HINFO
   230			000000	NHHOST==0
   231			000001	NASTYP==1
   232			000006	MXHINF==6
UPDLUD - ACCTG., LUD UPDATER	MACRO 12.5-46.0 17:15 19-SEP-89 PAGE 3
UPDLUD.MAC	24-MAY-89 18:55		INDEX'S INTO X22 DATA

   233				;INDEX INTO UINFO WHEN BEING USED FOR TYMHST
   234			000000	NMHUUN==0
   235			000001	NMHOST==1
   236				;NVSTART==2
   237				;NVSTOP==3
   238
   239				;INDEX INTO UINFO WHEN BEING USED FOR TYMCNV
   240			000000	NTRHST==0
   241			000001	NTRSTART==1
   242			000002	NTRSTOP==2
   243
   244
   245				;INDEX INTO USINFO WHEN BEING USED FOR TUSRDB
   246				;NGAN==0
   247				;NUUN==1
   248				;NUNAME==2
   249				;NUDIST==5
   250				;NUCUSN==6
   251			000007	NTSTART==7
   252			000010	NTSTOP==^D8
   253			000011	NTMUUN==^D9
   254			000014	NTCOST==^D12
   255
   256
   257				;INDEX INTO AINFO WHEN GEING USED FOR TYMUSR
   258				;NCUSNUM==0
   259				;NUUN==1
   260				;NVSTART==2
   261				;NVSTOP==3
   262			000004	NTUDAY==4
   263
   264				;INDEX INTO CINFO WHEN BEING USED FOR TYMCUS
   265				;NCUSNUM==0
   266			000001	NTCREC==1
   267				;NVSTART==2
   268				;NVSTOP==3
UPDLUD - ACCTG., LUD UPDATER	MACRO 12.5-46.0 17:15 19-SEP-89 PAGE 4
UPDLUD.MAC	24-MAY-89 18:55		MISCELLANEOUS PARAMETERS

   269				SUBTTL MISCELLANEOUS PARAMETERS
   270
   271			000014	SIZNAM==^D12
   272			000063	SIZLIN==^D51
   273			000001	SZFOCF==^D1
   274			000036	SZPO==^D30
   275			000015	SZCITY==^D13
   276			000002	SZSTATE==2
   277			000005	SZZIP==5
   278			000005	SZCOUNTRY==5
   279
   280			000001	MINSIT==1
   281			000036	MAX940==^D30
   282			000310	MXTHST==^D200    ;MAXIMUM TYMSHARE HOST(EXTRA SIZE TO SEND TO MASTER
   283						;ON LIST CUSTOMER HOSTS)
   284			000311	MXTHSX==MXTHST+1
   285
   286
   287			000011	ASTIII==^D9
   288			077777	ALHSTS==77777	;MAIL NAME CAN VALIDATE ON ALL HOSTS
UPDLUD - ACCTG., LUD UPDATER	MACRO 12.5-46.0 17:15 19-SEP-89 PAGE 5
UPDLUD.MAC	24-MAY-89 18:55		MISCELLANEOUS PARAMETERS

   289			000001	MINCUS==1
   290			303237	MAXCUS==^D99999
   291			000000	MINCCO==0
   292		000003	641077	MAXCCO==^D999999
   293			000000	MINDIS==0
   294			000377	MAXDIS==^D255
   295			000001	MINDET==1
   296			001747	MAXDET==^D999
   297			000001	MININV==1
   298			001747	MAXINV==^D999
   299			000000	MINSLS==0
   300			000143	MAXSLS==^D99
   301			000000	MINFFF==0
   302			000001	MAXFFF==1
   303			000001	MINMIN==1
   304			000143	MAXMIN==^D99
   305			000034	MAXZON==^D28
   306			000001	MINCUR==1
   307			001747	MAXCUR==^D999
   308			000001	MINPC==1
   309			001747	MAXPC==^D999
   310			000001	MINLAN==1
   311			000143	MAXLAN==^D99
UPDLUD - ACCTG., LUD UPDATER	MACRO 12.5-46.0 17:15 19-SEP-89 PAGE 6
UPDLUD.MAC	24-MAY-89 18:55		INITIALIZATION

   312				SUBTTL INITIALIZATION
   313
   314	000000'	334040	023052'	LUDUP:	SKIPA A,[TTYOUT]	;RUN FROM TELETYPE
   315	000001'	400040	000000		SETZ A,
   316	000002'	200000	000001		MOVE F,A
   317	000003'	047000	000000		RESET
   318	000004'	400100	000000		SETZ B,
   319	000005'	200040	023053'		MOVE 1,[XWD 2,3]
   320	000006'	251040	000017		BLT 1,17
   321	000007'	402000	022777'		SETZM FIRSTF#
   322	000010'	200740	022634'		MOVE	P,PDP
   323	000011'	260740	013606'		PUSHJ   P,UPDACS
   324	000012'	331000	000003		SKIPL   C
   325	000013'	254000	000025'		JRST BYEBYE
   326	000014'	602000	000010		TRNE F,TTYOUT
   327	000015'	254000	000062'		JRST INITIA
   328	000016'	254000	000031'		JRST SHAKE
   329
   330
   331	000017'	637163	000000	AWYBLK:	SIXBIT /SYS/
   332	000020'	545747	576564		SIXBIT /LOGOUT/
   333	000021'	000000	000000		0
   334	000022'	000000	000000		0
   335	000023'	000001	000004		XWD 1,4
   336	000024'	000000	000000		0
   337
   338	000025'	515040	000001	BYEBYE:	HRLZI A,1
   339	000026'	541040	000017'		HRRI A,AWYBLK
   340	000027'	047040	000035		RUN A,
   341	000030'	047000	000012		EXIT
UPDLUD - ACCTG., LUD UPDATER	MACRO 12.5-46.0 17:15 19-SEP-89 PAGE 7
UPDLUD.MAC	24-MAY-89 18:55		HANDSHAKE

   342				SUBTTL HANDSHAKE
   343
   344	000031'	201040	000214	SHAKE:	MOVEI A,214	;SET NO ECHO MODE
   345	000032'	047040	777752		SETMOD A,
   346	000033'	561040	000004		HRROI A,4
   347	000034'	042040	000001		AUXCAL A,1
   348	000035'	042040	000002		AUXCAL A,2
   349	000036'	042040	000003		AUXCAL A,3
   350	000037'	042040	000004		AUXCAL A,4
   351	000040'	561040	000000		HRROI A,0
   352	000041'	042040	000013	TRYAGN:	AUXCAL A,CH
   353	000042'	254000	000041'		JRST .-1
   354	000043'	302540	000001		CAIE CH,1
   355	000044'	254000	000041'		JRST TRYAGN
   356	000045'	042040	000013		AUXCAL A,CH
   357	000046'	254000	000045'		JRST .-1
   358	000047'	302540	000002		CAIE CH,2
   359	000050'	254000	000041'		JRST TRYAGN
   360	000051'	042040	000013		AUXCAL A,CH
   361	000052'	254000	000051'		JRST .-1
   362	000053'	302540	000003		CAIE CH,3
   363	000054'	254000	000041'		JRST TRYAGN
   364	000055'	042040	000013		AUXCAL A,CH
   365	000056'	254000	000055'		JRST .-1
   366	000057'	302540	000004		CAIE CH,4
   367	000060'	254000	000041'		JRST TRYAGN
   368	000061'	254000	000062'		JRST INITIA
UPDLUD - ACCTG., LUD UPDATER	MACRO 12.5-46.0 17:15 19-SEP-89 PAGE 8
UPDLUD.MAC	24-MAY-89 18:55		GET SYSTEM INFORMATION FROM PJ'S MAP

   369				SUBTTL GET SYSTEM INFORMATION FROM PJ'S MAP
   370
   371	000062'	041600	000017	INITIA:	INIT BILFIL,17
   372	000063'	446353	000000		SIXBIT /DSK/
   373	000064'	000000	000000		0
   374	000065'	260740	000670'		PUSHJ P,IOERR
   375	000066'	076600	020424'		LOOKUP BILFIL,CNTFIL
   376	000067'	260740	000651'		PUSHJ P,BADBIL
   377	000070'	066600	020454'		INPUT BILFIL,BILLST
   378	000071'	063600	760000		STATZ BILFIL,760000
   379	000072'	260740	000670'		PUSHJ P,IOERR
   380	000073'	070600	000000		CLOSE BILFIL,
   381	000074'	071600	000000		RELEASE BILFIL,
   382	000075'	200300	020457'		MOVE N,BILBLK+1
   383	000076'	202300	023035'		MOVEM N,SYSTEM#
   384	000077'	200640	023054'		MOVE BP,[POINT 1,BILBLK+^D113(A),5]
   385	000100'	260740	000203'		PUSHJ P,FINSYS
   386	000101'	350000	022777'		AOS FIRSTF
   387	000102'	316040	023035'		CAMN A,SYSTEM
   388	000103'	660000	000001		TRO F,ACTSYS
   389	000104'	200640	023055'		MOVE BP,[POINT 1,BILBLK+^D113(A),9]
   390	000105'	260740	000203'		PUSHJ P,FINSYS
   391	000106'	202040	023046'		MOVEM A,TYMSYS#
   392	000107'	606000	000001		TRNN F,ACTSYS
   393	000110'	254000	000137'		JRST LUDUP1
   394	000111'	200040	023056'		MOVE 1,[JFCL]	;FOR X22 - IGNORE THE USER UUO EXECUTED
   395	000112'	202040	000000*		MOVEM 1,JOB41##	;IN DBSTRT
   396	000113'	202000	023033'		MOVEM F,SAVF
   397	000114'	266700	000000*		JSA 16,DBSTRT
   398	000115'	200040	023057'		MOVE 1,[HALT]	;RESET TO HALT ON ALL
   399	000116'	202040	000112*		MOVEM 1,JOB41##	;USER UUO'S
   400	000117'	266700	000000*		JSA 16,DBERR
   401	000120'	320000	000626'		ARG BADX22
   402	000121'	320000	023010'		ARG IERT#
   403	000122'	320000	023007'		ARG IERC#
   404	000123'	320000	020331'		ARG ZERO
   405	000124'	266700	000000*		JSA 16,DBSYSV	;BE SURE MESSAGES DO NOT GO TO TTY
   406	000125'	320000	023060'		ARG [^D103]
   407	000126'	320000	020332'		ARG ONE
   408	000127'	320000	020332'		ARG ONE
   409	000130'	266700	000124*		JSA 16,DBSYSV
   410	000131'	320000	023061'		ARG [^D104]
   411	000132'	320000	020332'		ARG ONE
   412	000133'	320000	020332'		ARG ONE
   413				;	JSA 16,DBNOER	;DON'T REPORT ANY ERRORS TO TTY
   414	000134'	260740	014505'		PUSHJ P,BLDHST	;GET HOST MAP NOW
   415	000135'	260740	014550'		PUSHJ P,BLDAST
   416	000136'	200000	023033'		MOVE F,SAVF
UPDLUD - ACCTG., LUD UPDATER	MACRO 12.5-46.0 17:15 19-SEP-89 PAGE 9
UPDLUD.MAC	24-MAY-89 18:55		COMMAND DISPATCHER

   417				SUBTTL COMMAND DISPATCHER
   418
   419	000137'	336000	022777'	LUDUP1:	SKIPN FIRSTF
   420	000140'	047000	000012		EXIT
   421	000141'	620000	737766		TRZ F,737766
   422	000142'	200740	022634'		MOVE P,PDP
   423	000143'	505000	000000		HRLI	F,0	;ZERO LEFT HALF OF F
   424	000144'	602000	000010		TRNE F,TTYOUT
   425	000145'	051140	023062'		OUTSTR [ASCIZ /*/]
   426	000146'	661000	000010		TLO F,OCTINF
   427	000147'	515040	000013		HRLZI A,13	;WAIT FOR INPUT CHARACTER ON COMMAND PORT
   428	000150'	606000	000010		TRNN FUT	;ONLY IF COMING IN OVER AN AUX. CIRCUIT
   429	000151'	047040	000072		HIBER A,	;HIBERNATE UNTIL ONE FOUND
   430	000152'	255000	000000		 JFCL
   431	000153'	260740	015066'		PUSHJ P,GETONE
   432	000154'	202300	022773'		MOVEM	N,CODE#
   433	000155'	303300	000241		CAILE N,MAXCOD
   434	000156'	254000	000752'		JRST BADCOD
   435	000157'	402000	022032'		SETZM ZERST
   436	000160'	200040	023063'		MOVE A,[XWD ZERST,ZERST+1]
   437	000161'	251040	022633'		BLT A,ZEREND
   438	000162'	200100	022773'		MOVE B,CODE
   439	000163'	200042	000252'		MOVE A,DISTAB(B)
   440	000164'	603040	000400		TLNE A,ACTCMD
   441					JRST [TRO F,ACTCMD
   442						TRNN F,ACTSYS	;IS THIS THE ACCTG. SYSTEM?
   443						PUSHJ P,NTHERE	;NO, CANNOT DO THIS COMMAND
   444	000165'	254000	023064'			JRST .+1]
   445	000166'	603040	000002		TLNE A,LISCMD
   446	000167'	260740	000210'		PUSHJ P,SETUPL
   447	000170'	603040	000004		TLNE A,CUSUPD
   448	000171'	260740	002611'		PUSHJ P,SCUPD	;SET UP FOR CUSTOMER UPDATE
   449	000172'	603040	000010		TLNE A,ADRUPD
   450	000173'	260740	002630'		PUSHJ P,SADUPD	;SET UP FOR ADDRESS UPDATE
   451	000174'	603040	000020		TLNE A,USRUPD
   452	000175'	260740	002621'		PUSHJ P,SUSUPD	;SET UP FOR USER UPDATE
   453	000176'	603040	000040		TLNE A,USYSUPD
   454	000177'	260740	002640'		PUSHJ P,SSYSUPD
   455	000200'	553000	000001		HRRZS A
   456	000201'	255000	000000	        JFCL
   457	000202'	254020	000001		JRST @A
   458
   459
   460				;BP SET UP
   461	000203'	211040	000144	FINSYS:	MOVNI A,^D100
   462	000204'	135100	000015		LDB B,BP
   463					JUMPN B,[HRRZ A,BILBLK+^D113(A)
   464	000205'	326100	023070'			POPJ P,0]
   465	000206'	341040	000204'		AOJL A,.-2
   466	000207'	254000	000670'		JRST IOERR
   467				SUBTTL SET UP FOR LISTING COMMANDS
   468
   469	000210'	660000	001000	SETUPL:	TRO F,LIST
UPDLUD - ACCTG., LUD UPDATER	MACRO 12.5-46.0 17:15 19-SEP-89 PAGE 9-2
UPDLUD.MAC	24-MAY-89 18:55		SET UP FOR LISTING COMMANDS

   470	000211'	603040	001000		TLNE A,LOKCUS
   471	000212'	254000	000236'		JRST SETUPC
   472	000213'	607040	002000		TLNN A,LOKUUN
   473	000214'	263740	000000		POPJ P,0
   474	000215'	261740	000001		PUSH P,A
   475	000216'	260740	012160'		PUSHJ P,UUNIN
   476	000217'	260740	012257'		PUSHJ P,ASYSIN
   477	000220'	660000	000100		TRO F,ALLIOI
   478	000221'	260740	015452'		PUSHJ P,USFIND
   479	000222'	260740	000622'		PUSHJ P,NOTFND
   480	000223'	202000	023033'		MOVEM F,SAVF
   481	000224'	266700	000000*		JSA 16,DBCLOS
   482	000225'	200000	023033'		MOVE F,SAVF
   483	000226'	260740	015424'		PUSHJ P,UFIND
   484	000227'	260740	000622'		PUSHJ P,NOTFND
   485	000230'	202000	023033'	SETUP1:	MOVEM F,SAVF
   486	000231'	266700	000224*		JSA 16,DBCLOS
   487	000232'	200000	023033'		MOVE F,SAVF
   488	000233'	262740	000001		POP P,A
   489	000234'	260740	013540'		PUSHJ P,SENDOK
   490	000235'	263740	000000		POPJ P,0
   491
   492	000236'	261740	000001	SETUPC:	PUSH P,A
   493	000237'	260740	012242'		PUSHJ P,CUSTIN
   494	000240'	260740	012257'		PUSHJ P,ASYSIN
   495	000241'	660000	000100		TRO F,ALLIOI
   496	000242'	260740	015503'		PUSHJ P,CFIND
   497	000243'	260740	000622'		PUSHJ P,NOTFND
   498	000244'	202000	023033'		MOVEM F,SAVF
   499	000245'	266700	000231*		JSA 16,DBCLOS
   500	000246'	200000	023033'		MOVE F,SAVF
   501	000247'	260740	015564'		PUSHJ P,AFIND
   502	000250'	260740	000622'		PUSHJ P,NOTFND
   503	000251'	254000	000230'		JRST SETUP1
UPDLUD - ACCTG., LUD UPDATER	MACRO 12.5-46.0 17:15 19-SEP-89 PAGE 10
UPDLUD.MAC	24-MAY-89 18:55		DISPATCH TABLE

   504				SUBTTL DISPATCH TABLE
   505
   506			000002	LISCMD==2	;COMMAND IS A LISTING COMMAND
   507			000004	CUSUPD==4	;CUSTOMER RECORD UPDATE
   508			000010	ADRUPD==10	;ADDRESS UPDATE
   509			000020	USRUPD==20	;USER UPDATE
   510			000040	USYSUPD==40	;USYSDB UDATE
   511			000100	REVIT==100	;CAN REVERSE THIS COMMAND
   512			000400	ACTCMD==400	;HAS TO BE ON ACTSYS TO DO THIS COMMAND
   513			001000	LOKCUS==1000	;LOOK UP CUSTOMER AND ADDRESS
   514			002000	LOKUUN==2000	;LOOK UP USER
   515
   516	000252'	000000	000513'	DISTAB:	DONE				;0 DONE!
   517	000253'	000100	001221'		XWD REVIT,DELNAM		;1 DELETE USER FROM LUD,DUL
   518	000254'	000100	001460'		XWD REVIT,NEWNAM		;2 ADD A USER TO LUD,DUL
   519	000255'	000100	001574'		XWD REVIT,CHNAME		;3 CHANGE USERS NAME IN LUD,DUL
   520	000256'	000100	001712'		XWD REVIT,CHPBITS		;4 CHANGE PRIVILEGE BITS
   521	000257'	000000	001733'		CHQUO				;5 CHANGE QUOTA IN THE LUD
   522	000260'	000000	001754'	        CHBUD                           ;6 CHANGE TRU BUDGET IN LUD
   523	000261'	000002	002067'		XWD LISCMD,LISALL		;7 LIST ALL USERS IN THE LUD
   524	000262'	000100	002106'		XWD REVIT,CHDIST		;10 CHANGE DISTRICT IN LUD
   525	000263'	000100	002122'		XWD REVIT,CHZONE		;11 CHANGE ZONE IN LUD
   526	000264'	000100	002140'		XWD REVIT,CHLGAN                ;12 CHANGE GAN IN LUD,DUL
   527	000265'	000000	000752'		BADCOD
   528	000266'	000000	000752'		BADCOD
   529	000267'	000000	000752'		BADCOD
   530	000270'	000000	000752'		BADCOD
   531	000271'	000000	000752'		BADCOD
   532	000272'	000002	002220'		XWD LISCMD,LISLUD		;20 LIST LUD ENTRY
   533	000273'	000002	002240'		XWD LISCMD,LISGAN		;21 LIST ALL USERS FOR A GAN
   534	000274'	000000	002332'		CKNAME				;22 CHECK NAME IN LUD
   535	000275'	000002	002335'		XWD LISCMD,MULLUD		;23 MOVE USERS - LIST LUD INFO
   536	000276'	000000	002365'		MUALUD				;24 MOVE USERS - ADD LUD INFO
   537	000277'	000002	002453'		XWD LISCMD,DELGAN		;25 DELETE ACCOUNT
   538	000300'	000002	002473'		XWD LISCMD,LSGANN		;26 LIST ONLY USER NAMES FOR A GAN
   539	000301'	000002	002475'		XWD LISCMD,LISHST		;27 LIST ALL VALID HOSTS AND THEIR AST
   540	000302'	000500	002516'		XWD ACTCMD+REVIT,NEWCUS		;30 ADD A CUSTOMER TO CUSTDB, ADDRDB
   541	000303'	000404	002650'		XWD ACTCMD+CUSUPD,CHCDIS	;31 CHANGE CUSTOMER DISTRICT
   542	000304'	000000	002727'		GETCID                          ;32 GET CUSTOMER NUMBER
   543	000305'	000404	002773'		XWD ACTCMD+CUSUPD,CHCFFF        ;33 CHANGE CUST. FLAT FOCUS FEE
   544	000306'	000404	003002'		XWD ACTCMD+CUSUPD,CHDET		;34 CHANGE CUSTOMER DETAIL CODE
   545	000307'	000404	003010'		XWD ACTCMD+CUSUPD,CHINV		;35 CHANGE CUSTOMER INVOICE CODE
   546	000310'	000404	003016'		XWD ACTCMD+CUSUPD,CHASLS	;36 CHANGE CUST SLS AND ALL USER SLS
   547	000311'	000404	003120'		XWD ACTCMD+CUSUPD,CHPSLS	;37 CHANGE CUSTOMER SALESMAN
   548	000312'	000404	003122'		XWD ACTCMD+CUSUPD,CHPO		;40 CHANGE CUSTOMER PO NUMBER
   549	000313'	000404	003130'		XWD ACTCMD+CUSUPD,CHPOMX	;41 CHANGE CUSTOMER PO MAX
   550	000314'	000404	003136'		XWD ACTCMD+CUSUPD,CHPOD1	;42 CHANGE CUSTOMER PO START DATE
   551	000315'	000404	003144'		XWD ACTCMD+CUSUPD,CHPOD2	;43 CHANGE CUSTOMER PO STOP DATE
   552	000316'	000410	003152'		XWD ACTCMD+ADRUPD,CHCNAM	;44 CHANGE CUSTOMER NAME
   553	000317'	000410	003162'		XWD ACTCMD+ADRUPD,CHCADD	;45 CHANGE CUSTOMER ADDRESS
   554	000320'	000404	003214'	        XWD ACTCMD+CUSUPD,CHDPRI        ;46 CHANGE CUSTOMER DEF. PRICING CODE
   555	000321'	000000	000752'		BADCOD
   556	000322'	000402	003222'		XWD ACTCMD+LISCMD,LISCUS	;50 LIST CUSTOMER ACCOUNTING ENTRY
UPDLUD - ACCTG., LUD UPDATER	MACRO 12.5-46.0 17:15 19-SEP-89 PAGE 10-2
UPDLUD.MAC	24-MAY-89 18:55		DISPATCH TABLE

   557	000323'	000402	003265'		XWD ACTCMD+LISCMD,LISNAM	;51 LIST CUSTOMER NAME
   558	000324'	000402	003304'		XWD ACTCMD+LISCMD,LISAST	;52 LIST CUSTOMER AST'S
   559	000325'	000402	003335'		XWD ACTCMD+LISCMD,LUAST		;53 LIST USER AST'S
   560	000326'	000402	003357'		XWD ACTCMD+LISCMD,LUHCST	;54 LIST ALL USERS AND HOSTS FOR A CUSTOMER
   561	000327'	000402	003361'		XWD ACTCMD+LISCMD,LGNCST	;55 LIST ALL GANS FOR A CUSTOMER
   562	000330'	000402	003460'		XWD ACTCMD+LISCMD,LACUD1	;56 LIST ALL CUSTOMERS FOR A DISTRICT
   563	000331'	000402	003544'		XWD ACTCMD+LISCMD,LAUSD1	;57 LIST ALL USERS FOR A DISTRICT
   564	000332'	000500	003630'		XWD ACTCMD+REVIT,NEWUUN		;60 NEW USER FOR ACCOUNTING
   565	000333'	000500	003715'		XWD ACTCMD+REVIT,ADDSIT		;61 ADD HOST FOR A USER
   566	000334'	000520	003754'		XWD ACTCMD+REVIT+USRUPD,CHUNAM	;62 CHANGE USER NAME IN ACCOUNTING
   567	000335'	000420	003766'		XWD ACTCMD+USRUPD,CHGCUS	;63 CHANGE CUSTOMER FOR USER
   568	000336'	000440	004124'		XWD ACTCMD+USYSUPD,CHUSLS	;64 CHANGE SALESMAN FOR USER
   569	000337'	000402	004126'		XWD ACTCMD+LISCMD,LISTALL	;65 LIST ALL USERS (MUD CHECK)
   570	000340'	000402	004201'		XWD ACTCMD+LISCMD,LACUC1        ;66 LIST ALL CUST.S FOR A COSTCODE
   571	000341'	000402	004273'		XWD ACTCMD+LISCMD,LAUSC1        ;67 LIST ALL USERS FOR A COSTCODE
   572	000342'	000420	004353'		XWD ACTCMD+USRUPD,CHCURR	;70 CHANGE USER CURRENCY CODE
   573	000343'	000420	004355'		XWD ACTCMD+USRUPD,CHUGAN        ;71 CHANGE USER GAN
   574	000344'	000440	004476'		XWD ACTCMD+USYSUPD,CHUZON	;72 CHANGE ZONE FOR ACCTG.
   575	000345'	000000	000752'		BADCOD
   576	000346'	000500	004500'		XWD ACTCMD+REVIT,DELSIT		;74 REMOVE HOST FOR A USER
   577	000347'	000420	004771'		XWD ACTCMD+USRUPD,CHUDIS	;75 CHANGE USER'S ACCTG. DISTRICT
   578	000350'	000500	004773'		XWD ACTCMD+REVIT,DELUUN		;76 INVALIDATE USER
   579	000351'	000000	000752'		BADCOD
   580	000352'	000420	005145'		XWD ACTCMD+USRUPD,CHLAN		;100 CHANGE LANGUAGE CODE FOR A USER
   581	000353'	000500	005153'		XWD ACTCMD+REVIT,ADDAST		;101 ADD ACCTG. SYS. TYPE FOR A USER
   582	000354'	000000	000752'		BADCOD
   583	000355'	000402	005232'	        XWD ACTCMD+LISCMD,LISUCU        ;103 LIST USER CUSTOMER NUMBER.
   584				        XWD ACTCMD+LISCMD,LSUGSY        ;104 OUTPUT NUMBER OF DIRECTORIESAFFECTED BY A CANCEL A
   585	000356'	000402	005244'	CCOUNT
   586	000357'	000402	005313'		XWD ACTCMD+LISCMD,LSUSYS	;105 LIST HOSTS FOR A USER
   587	000360'	000402	005325'		XWD ACTCMD+LISCMD,LISUUN	;106 LIST USER ACCOUNTING
   588	000361'	000402	005403'		XWD ACTCMD+LISCMD,LSCSYS	;107 LIST HOSTS FOR A CUSTOMER
   589	000362'	000402	005503'		XWD ACTCMD+LISCMD,CHUUNT	;110 CHECK UUN FOR AN ACCTG. SYS.
   590	000363'	000402	005517'		XWD ACTCMD+LISCMD,CHUUNS	;111 CHECK UUN FOR A HOST
   591	000364'	000402	005560'		XWD ACTCMD+LISCMD,LUCUST	;112 LIST ALL USERS FOR A CUSTOMER
   592	000365'	000402	005703'		XWD ACTCMD+LISCMD,LUGAN		;113 LIST ALL USERS FOR A GAN
   593	000366'	000402	005755'		XWD ACTCMD+LISCMD,CHGANS	;114 CHECK GAN FOR A HOST
   594	000367'	000402	006000'		XWD ACTCMD+LISCMD,CHCUST	;115 CHECK CUST FOR A HOST
   595	000370'	000402	006022'		XWD ACTCMD+LISCMD,LSGAN		;116 LIST HOSTS FOR A GAN
   596	000371'	000406	006054'		XWD ACTCMD+LISCMD+CUSUPD,CHADIS	;117 CHANGE DIST FOR ALL USERS FOR A CUST
   597	000372'	000402	006352'		XWD ACTCMD+LISCMD,CHONHT	;120 CHECK FOR USER ON SPECIFIED HOST ONLY
   598	000373'	000000	006423'		REVLUD				;121 REVERSE LUD ENTRY
   599	000374'	000400	006373'		XWD ACTCMD,REVBIL		;122 REVERSE LAST BILLING ENTRY MADE
   600	000375'	000402	006735'		XWD ACTCMD+LISCMD,LAHOST	;123 LIST ALL USERS FOR A HOST
   601	000376'	000402	006776'		XWD ACTCMD+LISCMD,LUCST1	;124 LIST CUSTOMER NO. FOR A USR
   602	000377'	000402	007054'		XWD ACTCMD+LISCMD,LDCUST	;125 LIST DIST FOR A CUST (ANY AST)
   603	000400'	000402	007072'		XWD ACTCMD+LISCMD,LAUHD1	;126 LIST ALL USERS & HOSTS FOR A DIST
   604	000401'	000402	007074'		XWD ACTCMD+LISCMD,LAAST		;127 LIST ALL USERS FOR AN AST
   605	000402'	000402	007101'		XWD ACTCMD+LISCMD,LACUST	;130 LIST ALL CUSTS FOR A HOST
   606	000403'	001402	007170'		XWD ACTCMD+LISCMD+LOKCUS,LCDIS		;131 LIST CUSTOMER DISTRICT
   607	000404'	001402	007173'		XWD ACTCMD+LISCMD+LOKCUS,LCDET		;132 LIST CUSTOMER DETAIL
   608	000405'	001402	007176'		XWD ACTCMD+LISCMD+LOKCUS,LCINV		;133 LIST CUSTOMER INVOICE CODE
   609	000406'	001402	007200'		XWD ACTCMD+LISCMD+LOKCUS,LCMIN		;134 LIST CUSTOMER MINIMUM CODE
UPDLUD - ACCTG., LUD UPDATER	MACRO 12.5-46.0 17:15 19-SEP-89 PAGE 10-3
UPDLUD.MAC	24-MAY-89 18:55		DISPATCH TABLE

   610	000407'	001402	007202'		XWD ACTCMD+LISCMD+LOKCUS,LCSLS		;135 LIST CUSTOMER SALESMAN
   611	000410'	001402	007205'		XWD ACTCMD+LISCMD+LOKCUS,LPO		;136 LIST CUSTOMER PO NUMBER
   612	000411'	001402	007207'		XWD ACTCMD+LISCMD+LOKCUS,LPOMAX	;137 LIST CUSTOMER PO MAX
   613	000412'	001402	007211'		XWD ACTCMD+LISCMD+LOKCUS,LPOSTA		;140 LIST CUSTOMER PO START DATE
   614	000413'	001402	007213'		XWD ACTCMD+LISCMD+LOKCUS,LPOSTO		;141 LIST CUSTOMER PO STOP DATE
   615	000414'	001402	007215'		XWD ACTCMD+LISCMD+LOKCUS,LSTREET	;142 LIST CUSTOMER STREET ADDRESS
   616	000415'	001402	007217'		XWD ACTCMD+LISCMD+LOKCUS,LCITY		;143 LIST CUSTOMER CITY
   617	000416'	001402	007221'		XWD ACTCMD+LISCMD+LOKCUS,LSTATE		;144 LIST CUSTOMER STATE
   618	000417'	001402	007223'		XWD ACTCMD+LISCMD+LOKCUS,LCOUN		;145 LIST CUSTOMER COUNTRY
   619	000420'	001402	007225'		XWD ACTCMD+LISCMD+LOKCUS,LATTN		;146 LIST CUSTOMER ATTN LINE
   620	000421'	000000	000752'		BADCOD
   621	000422'	001402	007227'		XWD ACTCMD+LISCMD+LOKCUS,LDEFP		;150 LIST DEFAULT PRICING CODE
   622	000423'	001402	007231'		XWD ACTCMD+LISCMD+LOKCUS,LZIP		;151 LIST CUSTOMER ZIP CODE
   623	000424'	000400	007233'		XWD ACTCMD,SETTYM			;152 SET TYMUSE
   624	000425'	000400	007302'		XWD ACTCMD,STPTYM			;153 UNSET TYMUSE
   625	000426'	000402	007324'		XWD ACTCMD+LISCMD,LISTYM		;154 LIST A TYMUSE CUSTOMER
   626	000427'	000400	007411'		XWD ACTCMD,SETDAY			;155 CHANGE TYMUSE NO. OF DAYS
   627	000430'	000400	007431'		XWD ACTCMD,SETCUS			;156 CHANGE TYMUSE CUST
   628	000431'	000402	007474'		XWD ACTCMD+LISCMD,LALTYM		;157 LIST ALL TYMUSE CUSTS
   629	000432'	000402	007557'		XWD ACTCMD+LISCMD,LCUSTN		;160 LIST CUSTOMER FOR A USER
   630	000433'	002402	007606'		XWD ACTCMD+LISCMD+LOKUUN,LUSLS		;161 LIST USER'S SALESMAN
   631	000434'	000000	000752'		BADCOD
   632	000435'	000402	007611'		XWD ACTCMD+LISCMD,CHKTYM		;163 CHECK FOR TYMUSE FOR A CUST
   633	000436'	000402	007616'		XWD ACTCMD+LISCMD,LGNCCO                ;164 LIST ALL GANS FOR A COSTCODE
   634	000437'	002402	007663'		XWD ACTCMD+LISCMD+LOKUUN,LUCURR		;165 LIST USER'S CURRENCY CODE
   635	000440'	000000	000752'		BADCOD
   636	000441'	002402	007665'		XWD ACTCMD+LISCMD+LOKUUN,LZONE		;167 LIST USER'S TIME ZONE
   637	000442'	000402	007667'		XWD ACTCMD+LISCMD,LACCD1		;170 LIST ALL COSTCODES FOR A DISTRICT
   638	000443'	002402	007732'		XWD ACTCMD+LISCMD+LOKUUN,LUDIST		;171 LIST USER'S DISTRICT
   639	000444'	000000	000752'		BADCOD
   640	000445'	002402	007735'		XWD ACTCMD+LISCMD+LOKUUN,LLANG		;173 LIST USER'S LANGUAGE
   641	000446'	000000	000752'		BADCOD
   642	000447'	000000	000752'		BADCOD
   643	000450'	000000	000752'		BADCOD
   644					XWD ACTCMD+LISCMD,MUALGN	;177 - MOVE USERS - RETURN USRS FOR A GAN FOR A HOST AN
   645	000451'	000402	007737'	D ADD NEW HOST (IGNORE CUST)
   646					XWD ACTCMD+LISCMD,MUAUSR	;200 MOVE USERS - RETURN USERS FOR A CUST FOR A HOST AN
   647	000452'	000402	007762'	D ADD NEW HOST
   648					XWD ACTCMD+LISCMD,MUAGAN	;201 MOVE USERS - RETURN USERS FOR A CUST FOR A GAN FOR
   649	000453'	000402	010123'	 A HOST AND ADD NEW HOST
   650	000454'	000000	001221'		DELNAM				;202 MOVE USERS - DELETE USER FROM LUD/DUL
   651					XWD ACTCMD+LISCMD,MUUSR1	;203 MOVE USERS - RETURN USERS FOR A CUSTOMER FOR A HOS
   652	000455'	000402	010152'	T
   653					XWD ACTCMD+LISCMD,MUGAN1	;204 MOVE USERS - RETURN USERS FOR A CUST FOR A GAN FOR
   654	000456'	000402	010154'	 A HOST
   655	000457'	000500	010156'		XWD ACTCMD+REVIT,NWTUUN	        ;205 ADD A USER TO TUSRDB
   656	000460'	000400	010222'		XWD ACTCMD,CHTNAM	        ;206 CHANGE USER NAME IN TUSRDB
   657	000461'	000402	010246'		XWD ACTCMD+LISCMD,DLTACC	;207 CANCEL ACCOUNT IN TUSRDB
   658	000462'	000400	010305'		XWD ACTCMD,TUSNUM       ; 210 NUM OF USERS FOR A GAN IN TUSRDB
   659	000463'	000500	010326'		XWD ACTCMD+REVIT,DLTUUN	        ;211 CANCEL USER FROM TUSRDB
   660	000464'	000402	010343'		XWD ACTCMD+LISCMD,LISTUU	;212 LIST USER IN TUSRDB
   661	000465'	000402	010402'		XWD ACTCMD+LISCMD,LAUMNM	;213 LIST USERS FOR A MAIL UUN
   662	000466'	000402	010462'		XWD ACTCMD+LISCMD,CKMNMC	;214 CHECK MAIL UUN FOR A CUST
UPDLUD - ACCTG., LUD UPDATER	MACRO 12.5-46.0 17:15 19-SEP-89 PAGE 10-4
UPDLUD.MAC	24-MAY-89 18:55		DISPATCH TABLE

   663	000467'	000400	010527'		XWD ACTCMD,CHMNAM	;215 CHANGE MAIL NAME
   664	000470'	000402	010537'		XWD ACTCMD+LISCMD,CKMNMU	;216 CHECK MAIL UUN FOR A USER
   665	000471'	000402	010561'		XWD ACTCMD+LISCMD,LTYMNT ;217 LIST ALL USERS IN TUSRDB
   666	000472'	000400	010571'		XWD ACTCMD,MAIADD	;220 ADD UUN-HOST TO TYMHST
   667	000473'	000400	010640'		XWD ACTCMD,MAIREM	;221 REMOVE UUN-HOST TO TYMHST
   668	000474'	000402	010726'		XWD ACTCMD+LISCMD,MHLIST	;222 LIST ALL MAIL UUNS AND THEIR HOSTS
   669	000475'	000402	011033'		XWD ACTCMD+LISCMD,MAILST	;223 LIST ALL HOSTS FOR A UUN
   670	000476'	000400	011071'		XWD ACTCMD,TRIADD	;224 ADD HOST TO TYMCNV
   671	000477'	000400	011110'		XWD ACTCMD,TRIDEL	;225 DELETE HOST FROM TYMCNV
   672	000500'	000402	011127'		XWD ACTCMD+LISCMD,TRILIS	;226 LIST HOSTS IN TYMCNV
   673	000501'	000402	011160'		XWD ACTCMD+LISCMD,LUTGAN	;227 LIST USERS IN A GAN IN TUSRDB
   674	000502'	000402	011202'		XWD ACTCMD+LISCMD,CKMNHT	;230 CHECK MAIL NAME FOR A HOST
   675	000503'	000402	011212'		XWD ACTCMD+LISCMD,CKTRIP	;231 CHECK HOST IN TYMCNV
   676	000504'	000402	011220'		XWD ACTCMD+LISCMD,CKHOST	;232 CHECK HOST FOR TYMCOM-III'S
   677				        XWD ACTCMD+LISCMD+CUSUPD,CHTADS        ;233 CHANGE DISTRICT FOR ALL USERS FOR A CUSTOME
   678	000505'	000406	011231'	R IN TUSRDB
   679	000506'	000400	011316'	        XWD ACTCMD,CHTUCS       ;234 CHANGE CUSNUM FOR USER IN TUSRDB
   680	000507'	000400	011344'	        XWD ACTCMD,CHTGAN       ;235 CHANGE GAN FOR A UUN IN TUSRDB
   681	000510'	000000	000752'	        BADCOD
   682	000511'	000000	000752'	        BADCOD
   683	000512'	000400	011354'	        XWD ACTCMD,HSTASY                      ;240 LIST ASYSCODE FOR HOST.
   684
   685			000241	MAXCOD==.-DISTAB
   686
   687	000513'	602000	000010	DONE:	TRNE F,TTYOUT	;IF TO TTY
   688	000514'	047000	000012		EXIT		;EXIT
   689	000515'	254000	000025'		JRST BYEBYE	;OTHERWISE, LOGOUT
UPDLUD - ACCTG., LUD UPDATER	MACRO 12.5-46.0 17:15 19-SEP-89 PAGE 11
UPDLUD.MAC	24-MAY-89 18:55		DISPATCH TABLE

   690
   691				SUBTTL FILE OPERATIONS (OPEN, LOOKUP, ENTER)
   692
   693	000516'	041740	000017	GETSYS:	INIT DSK,17	;OPEN SYS
   694	000517'	637163	000000	TST1:	SIXBIT /SYS/
   695				;TST1:   SIXBIT  /DSK/
   696	000520'	000000	000000		0
   697	000521'	254000	000664'		JRST INIERR
   698	000522'	263740	000000		POPJ P,0
   699
   700	000523'	076740	020416'	OPLUD:	LOOKUP DSK,LUDLOK	;LOOKUP LUD
   701	000524'	260740	000666'		PUSHJ P,LEERR
   702	000525'	263740	000000		POPJ P,0
   703
   704	000526'	201300	000012	GETLUD:	MOVEI N,^D10
   705	000527'	076740	020416'		LOOKUP DSK,LUDLOK	;ENTER LUD
   706	000530'	260740	000666'		PUSHJ P,LEERR
   707	000531'	077740	020416'		ENTER DSK,LUDLOK
   708					JRST [HRRZ A,LUDLOK+3
   709						CAIE A,3	;FILE BUSY?
   710						PUSHJ P,LEERR	;NO, SOME OTHER ERROR
   711						MOVEI A,^D10	;YES, SLEEP FOR 10 SEC.
   712						SLEEP A,
   713						SOJG N,GETLUD+1
   714	000532'	254000	023072'			JRST FILBZY]
   715	000533'	074760	023002'		USETI DSK,@HLOC#
   716	000534'	066740	020412'		INPUT DSK,LUDLST
   717	000535'	063740	760000		STATZ DSK,760000
   718	000536'	260740	000670'		PUSHJ P,IOERR
   719	000537'	263740	000000		POPJ P,0
   720
   721	000540'	201300	000012	GETDUL:	MOVEI N,^D10
   722	000541'	076740	020404'		LOOKUP DSK,DULLOK
   723	000542'	260740	000666'		PUSHJ P,LEERR
   724	000543'	077740	020404'		ENTER DSK,DULLOK
   725					JRST [HRRZ A,DULLOK+3
   726						CAIE A,3	;BUSY?
   727						PUSHJ P,LEERR	;NO, SOME OTHER ERROR
   728						MOVEI A,^D10
   729						SLEEP A,
   730						SOJG N,GETDUL+1
   731	000544'	254000	023101'			JRST FILBZY]
   732	000545'	260740	000601'		PUSHJ P,GETLAS
   733	000546'	200040	022037'		MOVE A,LPPN
   734	000547'	231040	000145		IDIVI	A,^D101
   735	000550'	271100	000001		ADDI B,1
   736	000551'	202100	023002'		MOVEM B,HLOC
   737	000552'	074760	000002		USETI	DSK,@B
   738	000553'	066740	020412'		INPUT	DSK,LUDLST
   739	000554'	063740	760000		STATZ DSK,760000
   740	000555'	260740	000670'		PUSHJ P,IOERR
   741	000556'	263740	000000		POPJ	P,0
UPDLUD - ACCTG., LUD UPDATER	MACRO 12.5-46.0 17:15 19-SEP-89 PAGE 12
UPDLUD.MAC	24-MAY-89 18:55		FILE OPERATIONS (OPEN, LOOKUP, ENTER)

   742	000557'	550152	022100'	ROVBLK:	HRRZ	C,LUDBLK(INDEX)	;READ OVERFLOW BLOCK
   743	000560'	202140	023026'		MOVEM	C,OVBLK#	;SAVE BLOCK NO.
   744	000561'	607000	000020		TLNN F,CHANGE
   745	000562'	254000	000571'		JRST ROVBL1
   746	000563'	075760	023002'		USETO DSK,@HLOC
   747	000564'	602000	000020		TRNE F,ERRF
   748	000565'	254000	000571'		JRST ROVBL1
   749	000566'	067740	020412'		OUTPUT DSK,LUDLST
   750	000567'	063740	740000		STATZ DSK,740000
   751	000570'	260740	000670'		PUSHJ P,IOERR
   752	000571'	350000	023026'	ROVBL1:	AOS	OVBLK		;[JMS] USETI needs block + 1
   753	000572'	074760	023026'		USETI	DSK,@OVBLK
   754	000573'	370000	023026'		SOS	OVBLK		;[JMS] What a hack!
   755	000574'	066740	020412'		INPUT	DSK,LUDLST	;READIT!
   756	000575'	063740	760000		STATZ DSK,760000
   757	000576'	260740	000670'		PUSHJ P,IOERR
   758	000577'	400500	000000		SETZ INDEX,
   759	000600'	263740	000000		POPJ	P,0
   760
   761	000601'	574300	000004	GETLAS:	HLRE N,D	;PUT LAST BLOCK # IN LASBLK
   762	000602'	217000	000006		MOVMS N
   763	000603'	275300	000001		SUBI N,1
   764	000604'	241300	777771		ROT N,-7
   765	000605'	271300	000001		ADDI N,1
   766	000606'	602000	000006		TRNE F,ADDDUL+CHDUL
   767					JRST [CAIGE N,^D101
   768						MOVEI N,^D101
   769	000607'	254000	023110'			JRST LASBAK]
   770	000610'	305300	001567		CAIGE N,^D887
   771	000611'	201300	001567		MOVEI N,^D887
   772	000612'	202300	023012'	LASBAK:	MOVEM N,LASBLK#
   773	000613'	263740	000000		POPJ P,0
   774
   775	000614'	332040	023026'	GETBLK:	SKIPE A,OVBLK
   776	000615'	202040	023002'		MOVEM A,HLOC
   777	000616'	402000	023026'		SETZM OVBLK
   778	000617'	263740	000000		POPJ P,0
UPDLUD - ACCTG., LUD UPDATER	MACRO 12.5-46.0 17:15 19-SEP-89 PAGE 13
UPDLUD.MAC	24-MAY-89 18:55		ERROR CODES

   779				SUBTTL ERROR CODES
   780
   781	000620'	201540	000002	FND:	MOVEI	CH,2	;USER NAME ALLREADY THERE...IT SHOULD NOT BE
   782	000621'	254000	000726'		JRST	NOGOOD
   783	000622'	201540	000003	NOTFND:	MOVEI	CH,3	;USER NAME NOT THERE...IT SHOULD BE
   784	000623'	254000	000726'		JRST	NOGOOD
   785	000624'	201540	000004	DATERR:	MOVEI CH,4	;ILLEGAL DATE
   786	000625'	254000	000726'		JRST NOGOOD
   787	000626'	201540	000005	BADX22:	MOVEI CH,5	;X22 ERROR
   788	000627'	202540	022776'		MOVEM CH,ERRCOD#
   789	000630'	200000	023033'		MOVE F,SAVF
   790					JRST [MOVE A,IERT	;GET ERROR TYPE
   791						CAIE A,7	;UPDATE ERROR?
   792						JRST .+1	;NO
   793						MOVE A,IERC	;GET ERROR CODE
   794						CAIE A,1	;FILE BUSY?
   795						JRST .+1	;NO
   796						TRNN F,WAITF	;UPDATING A DATA BASE?
   797						JRST FILBZY	;NO, SAY FILE IS REALLY BUSY?????
   798						MOVEI A,^D10
   799						SLEEP A,	;SLEEP FOR 10 SECONDS AND TRY AGAIN
   800	000631'	254000	023113'			JRST @AGNLOC]
   801	000632'	606000	000010		TRNN F,TTYOUT
   802	000633'	254000	000735'		JRST NOG1
   803	000634'	200300	023010'		MOVE N,IERT
   804	000635'	260740	015151'		PUSHJ P,NUMOUT
   805	000636'	260740	015242'		PUSHJ P,CRLF
   806	000637'	200300	023007'		MOVE N,IERC
   807	000640'	260740	015151'		PUSHJ P,NUMOUT
   808	000641'	260740	015242'		PUSHJ P,CRLF
   809	000642'	254000	000735'		JRST NOG1
   810	000643'	201540	000006	DSKERR:	MOVEI	CH,6	;SOME KIND OF DISK ERROR...
   811	000644'	254000	000726'		JRST NOGOOD
   812	000645'	201540	000007	BADSIT:	MOVEI CH,7	;BAD HOST
   813	000646'	254000	000726'		JRST NOGOOD
   814	000647'	201540	000011	BADCUS:	MOVEI CH,11	;CUSTOMER NO. ERROR
   815	000650'	254000	000726'		JRST NOGOOD
   816	000651'	201540	000012	BADBIL:	MOVEI CH,12	;BILLING FILE ERROR
   817	000652'	254000	000726'		JRST NOGOOD
   818	000653'	201540	000014	FILBZY:	MOVEI CH,14	;SOME FILE IS BUSY, TRY LATER
   819	000654'	254000	000747'		JRST ERROUT+1
   820	000655'	201540	000015	BADVAL:	MOVEI CH,15	;ERROR IN INPUT VALUE
   821	000656'	254000	000726'		JRST NOGOOD
   822	000657'	201540	000016	DELERR:	MOVEI CH,16	;ERROR IN DELETING FILE
   823	000660'	254000	000726'		JRST NOGOOD
   824	000661'	201540	000017	AINDUL:	MOVEI CH,17	;USER IN DUL.
   825	000662'	070740	000000		CLOSE DSK,
   826	000663'	254000	000763'		JRST DULERR+1
   827	000664'	201540	000024	INIERR:	MOVEI CH,24	; BAD INIT
   828	000665'	254000	000747'		JRST ERROUT+1
   829				;DO NOT USE ERROR CODE 21!!!
   830	000666'	201540	000022	LEERR:	MOVEI CH,22	;BAD LOOKUP OR ENTER
   831	000667'	254000	000747'		JRST ERROUT+1
UPDLUD - ACCTG., LUD UPDATER	MACRO 12.5-46.0 17:15 19-SEP-89 PAGE 13-2
UPDLUD.MAC	24-MAY-89 18:55		ERROR CODES

   832	000670'	201540	000023	IOERR:	MOVEI CH,23	;BAD INPUT OR OUTPUT
   833	000671'	254000	000747'		JRST ERROUT+1
   834	000672'	201540	000025	BADUSR:	MOVEI CH,25	;THIS USER RESTRICTED FROM THIS COMMAND
   835	000673'	254000	000747'		JRST ERROUT+1
   836	000674'	201540	000026	ZNERR:	MOVEI CH,26
   837	000675'	254000	000726'		JRST NOGOOD	;ZERO GAN OR UUN
   838	000676'	201540	000027	DUPERR:	MOVEI CH,27	;> 1 RECORD RETURNED FROM DB
   839	000677'	254000	000726'		JRST NOGOOD
   840	000700'	201540	000030	USRLFT:	MOVEI CH,30	;THERE ARE NO RECORD LEFT FOR THIS USRER
   841	000701'	254000	000726'		JRST NOGOOD
   842	000702'	201540	000031	NOADDR:	MOVEI CH,31
   843	000703'	254000	000726'		JRST NOGOOD	;NO ADDRESS FOR THIS CUSTOMER
   844	000704'	201540	000033	NTHERE:	MOVEI CH,33	;MUST BE ON ACCT. SYS. TO DO THIS COMMAND
   845	000705'	254000	000726'		JRST NOGOOD
   846	000706'	201540	000034	ERON9:	MOVEI CH,34	;CHANGE CUSTOMER CNNOT BE DONE BECAUSE USER IS
   847	000707'	254000	000726'		JRST NOGOOD	;VALID ON A 940 SYSTEM
   848	000710'	201540	000035	MHFND:	MOVEI CH,35	;MAIL-UUN HOST ALLREADY THERE
   849	000711'	254000	000726'		JRST NOGOOD
   850	000712'	201540	000036	MHNFND:	MOVEI CH,36	;MAIL-UUN HOST NOT FOUND
   851	000713'	254000	000726'		JRST NOGOOD
   852	000714'	201540	000040	TRFND:	MOVEI CH,40	;HOST IN TYMCNV NOT FOUND
   853	000715'	254000	000726'		JRST NOGOOD
   854	000716'	201540	000041	TRNFND:	MOVEI CH,41	;HOST IN TYMCNV ALLREADY THERE
   855	000717'	254000	000726'		JRST NOGOOD
   856	000720'	201540	000044	MNVALD:	MOVEI CH,44	;MAIL NAME CANNOT BE CANCELLED
   857	000721'	254000	000726'	        JRST NOGOOD
   858	000722'	201540	000045	ILLAST: MOVEI CH,45     ;INVALID ACC.SYS.TYP. FOR THIS COMMAND
   859	000723'	254000	000747'	        JRST ERROUT+1
   860	000724'	201540	000046	BADGAN: MOVEI CH,46     ;NEW GAN DOESN'T BELONG TO USER'S DIST.
   861	000725'	254000	000747'	        JRST ERROUT+1
UPDLUD - ACCTG., LUD UPDATER	MACRO 12.5-46.0 17:15 19-SEP-89 PAGE 14
UPDLUD.MAC	24-MAY-89 18:55		ERROR CODES

   862	000726'	666000	000020	NOGOOD:	TRON F,ERRF
   863	000727'	202540	022776'		MOVEM CH,ERRCOD
   864	000730'	261740	000001		PUSH P,A
   865	000731'	200040	023033'		MOVE A,SAVF
   866	000732'	660040	000020		TRO A,ERRF
   867	000733'	202040	023033'		MOVEM A,SAVF
   868	000734'	262740	000001		POP P,A
   869	000735'	622000	000100	NOG1:	TRZE F,ALLIOI
   870	000736'	254000	000741'		JRST	NOG2
   871	000737'	606000	000010		TRNN F,TTYOUT
   872	000740'	263740	000000		POPJ P,0
   873	000741'	202000	023033'	NOG2:	MOVEM F,SAVF
   874	000742'	602000	000400		TRNE F,ACTCMD
   875	000743'	266700	000000*		JSA 16,DBEND
   876	000744'	200000	023033'		MOVE F,SAVF
   877	000745'	254000	000746'		JRST ERROUT
   878
   879	000746'	200540	022776'	ERROUT:	MOVE CH,ERRCOD
   880	000747'	620000	001000		TRZ F,LIST
   881	000750'	260740	014757'		PUSHJ P,OUCH
   882	000751'	254000	000137'		JRST LUDUP1
   883
   884	000752'	660000	000100	BADCOD:	TRO F,ALLIOI
   885	000753'	201540	000020		MOVEI CH,20
   886	000754'	260740	014757'		PUSHJ P,OUCH
   887	000755'	602000	000010		TRNE F,TTYOUT
   888	000756'	254000	000137'		JRST LUDUP1
   889	000757'	200540	022773'		MOVE CH,CODE
   890	000760'	260740	014757'		PUSHJ P,OUCH
   891	000761'	254000	000137'		JRST LUDUP1
UPDLUD - ACCTG., LUD UPDATER	MACRO 12.5-46.0 17:15 19-SEP-89 PAGE 15
UPDLUD.MAC	24-MAY-89 18:55		DUL ERROR - REVERSE LUD ENTRY

   892				SUBTTL DUL ERROR - REVERSE LUD ENTRY
   893
   894	000762'	201540	000010	DULERR:	MOVEI CH,10	;SET ERROR CODE FOR DUL ERROR
   895	000763'	660000	000020		TRO F,ERRF
   896	000764'	202540	022776'		MOVEM CH,ERRCOD
   897	000765'	260740	000523'		PUSHJ P,OPLUD
   898	000766'	070740	000000		CLOSE DSK,
   899	000767'	200040	022011'		MOVE A,SAVORG+LBLK
   900	000770'	202040	023002'		MOVEM A,HLOC
   901	000771'	074760	023002'		USETI DSK,@HLOC
   902	000772'	066740	020412'		INPUT DSK,LUDLST
   903	000773'	063740	740000		STATZ DSK,740000
   904	000774'	254000	000746'		JRST ERROUT
   905	000775'	200500	022007'		MOVE INDEX,SAVORG+LINDEX
   906	000776'	200040	022773'		MOVE A,CODE	;IF CODE WAS INSERT, DELETE IT
   907	000777'	306040	000002		CAIN A,2
   908	001000'	254000	001025'		JRST DELENT
   909	001001'	306040	000001		CAIN A,1
   910	001002'	254000	001022'		JRST ADDENT
   911	001003'	302040	000003		CAIE A,3
   912	001004'	254000	000746'		JRST ERROUT
   913	001005'	200300	022074'		MOVE N,NNAME	;GET RID OF NEW NAME FIRST
   914	001006'	200340	022075'		MOVE N1,NNAME+1
   915	001007'	260740	015301'		PUSHJ P,HASHER
   916	001010'	202340	023002'		MOVEM N1,HLOC
   917	001011'	200040	022077'		MOVE A,HNNAME
   918	001012'	260740	001113'		PUSHJ P,SETDEX+1
   919	001013'	254000	000746'		JRST ERROUT
   920	001014'	402012	022104'		SETZM ,LUDBLK+4(INDEX)
   921	001015'	260740	000614'		PUSHJ P,GETBLK
   922	001016'	075760	023002'		USETO DSK,@HLOC
   923	001017'	067740	020412'		OUTPUT DSK,LUDLST
   924	001020'	063740	740000		STATZ DSK,740000
   925	001021'	254000	000746'		JRST ERROUT
   926
   927	001022'	200040	022010'	ADDENT:	MOVE A,SAVORG+HASH
   928	001023'	202052	022104'		MOVEM A,LUDBLK+4(INDEX)
   929	001024'	334000	000000		SKIPA
   930	001025'	402012	022104'	DELENT:	SETZM ,LUDBLK+4(INDEX)
   931	001026'	075760	023002'		USETO DSK,@HLOC
   932	001027'	067740	020412'		OUTPUT DSK,LUDLST
   933	001030'	063740	740000		STATZ DSK,740000
   934	001031'	254000	000746'		JRST ERROUT
   935	001032'	070740	000000		CLOSE DSK,
   936	001033'	254000	001034'		JRST ENDLUD
   937	001034'	260740	000614'	ENDLUD:	PUSHJ P,GETBLK
   938	001035'	075760	023002'		USETO DSK,@HLOC
   939	001036'	067740	020412'		OUTPUT DSK,LUDLST
   940	001037'	063740	740000		STATZ DSK,740000
   941	001040'	260740	000670'		PUSHJ P,IOERR
   942	001041'	070740	000000		CLOSE DSK,
   943	001042'	263740	000000		POPJ P,0
UPDLUD - ACCTG., LUD UPDATER	MACRO 12.5-46.0 17:15 19-SEP-89 PAGE 16
UPDLUD.MAC	24-MAY-89 18:55		LUD CHANGE COMPLETED

   944				SUBTTL LUD CHANGE COMPLETED
   945
   946	001043'	602000	000020	DIDIT:	TRNE F,ERRF
   947	001044'	254000	000746'		JRST ERROUT
   948	001045'	260740	001034'		PUSHJ P,ENDLUD
   949	001046'	606000	000006	DULAGN:	TRNN	F,ADDDUL+CHDUL
   950	001047'	254000	001067'		JRST	DIDIT2
   951	001050'	200040	022773'		MOVE A,CODE
   952	001051'	202040	023025'		MOVEM A,OLLCOD#
   953	001052'	260740	000540'		PUSHJ P,GETDUL
   954	001053'	200040	022037'		MOVE A,LPPN
   955	001054'	622000	000004		TRZE	F,ADDDUL
   956	001055'	254000	001142'		JRST	DULADD
   957	001056'	622000	000002		TRZE	F,CHDUL
   958	001057'	254000	001201'		JRST	DULCH
   959	001060'	254000	000762'		JRST DULERR
   960	001061'	260740	000614'	DULEND:	PUSHJ P,GETBLK
   961	001062'	075760	023002'		USETO DSK,@HLOC
   962	001063'	067740	020412'		OUTPUT DSK,LUDLST
   963	001064'	063740	740000		STATZ DSK,740000
   964	001065'	254000	000762'		JRST DULERR
   965	001066'	070740	000000		CLOSE DSK,
   966	001067'	071740	000000	DIDIT2:	RELEASE	DSK,
   967	001070'	200040	022773'	DIDIT3:	MOVE A,CODE
   968	001071'	202040	023023'		MOVEM A,OLDCOD#
   969	001072'	602000	000020		TRNE F,ERRF
   970	001073'	254000	000746'		JRST ERROUT
   971	001074'	201540	000001		MOVEI	CH,1
   972	001075'	260740	014757'		PUSHJ P,OUCH
   973	001076'	200040	022773'		MOVE A,CODE
   974	001077'	302040	000001		CAIE A,1
   975	001100'	254000	000137'		JRST LUDUP1
   976	001101'	602000	000010		TRNE F,TTYOUT
   977	001102'	254000	000137'		JRST LUDUP1
   978	001103'	554300	022037'		HLRZ N,LPPN
   979	001104'	661000	000010		TLO F,OCTINF
   980	001105'	260740	015151'		PUSHJ P,NUMOUT
   981	001106'	550300	022037'		HRRZ N,LPPN
   982	001107'	661000	000010		TLO F,OCTINF
   983	001110'	260740	015151'		PUSHJ P,NUMOUT
   984	001111'	254000	000137'		JRST LUDUP1
UPDLUD - ACCTG., LUD UPDATER	MACRO 12.5-46.0 17:15 19-SEP-89 PAGE 17
UPDLUD.MAC	24-MAY-89 18:55		LUD AND DUL SEARCHES

   985				SUBTTL LUD AND DUL SEARCHES
   986
   987				;A ROUTINE TO FIND A USER NAME IN A BLOCK
   988	001112'	200040	022043'	SETDEX:	MOVE	A,HUNAME	;IF ENTRY IS HERE, FIND HUNAME
   989	001113'	400500	000000		SETZ	INDEX,
   990	001114'	336012	022100'		SKIPN	,LUDBLK(INDEX)
   991				NONE:	JRST [SETZB C,OVBLK	;IN CASE NONE FOUND-RESET FROM ORIG BLK
   992						USETI DSK,@HLOC
   993						INPUT DSK,LUDLST
   994						STATZ DSK,760000
   995						PUSHJ P,IOERR
   996	001115'	254000	023126'			POPJ  P,0]
   997	001116'	135140	020346'		LDB	C,NENTP	;GET SIZ OF ENTRY
   998	001117'	316052	022104'		CAMN	A,LUDBLK+4(INDEX)	;MATCH?
   999					JRST	[MOVEM	C,NENTRY#	;SAVE SIZE OF ENTRY
  1000						MOVE C,LUDBLK(INDEX)
  1001						MOVEM C,LPPN
  1002				                LDB C,INIPTR            ;LOAD 1 BYTE
  1003						TLZ F,INITF+TRUF                ;SET INITF & TRUF TO ZERO
  1004						SKIPE C
  1005						TLO F,INITF             ;IF INIPTR WAS SET THEN SET INITF
  1006						LDB C,TRUPTR
  1007						SKIPE C
  1008						TLO F,TRUF              ;IF TRUPTR WAS SET THEN SET TRUF
  1009						AOS	(P)
  1010	001120'	254000	023134'			POPJ	P,0]
  1011	001121'	337012	022100'		SKIPG	,LUDBLK(INDEX)	;WAS NO. NEGATIVE?
  1012	001122'	254000	001125'		JRST	.+3		;YES, GO GET  OVERFLOW BLOCK
  1013	001123'	270500	000003		ADD	INDEX,C	;NO, GOOD ENTRY, ADD SIZE OF IT TO INDEX
  1014	001124'	254000	001114'		JRST	SETDEX+2	;AND GO TRY NEXT ONE
  1015	001125'	260740	000557'		PUSHJ	P,ROVBLK	;READ OVERFLOW BLOCK IN
  1016	001126'	254000	001113'		JRST	SETDEX+1
  1017
  1018	001127'	400140	000000	FINDUL:	SETZ	C,
  1019	001130'	301140	000200		CAIL	C,200		;[20.5] ARE WE STILL IN BLOCK
  1020	001131'	263740	000000		  POPJ	P,		;[20.5] NO, DIDN'T FIND ENTRY
  1021	001132'	336003	022100'		SKIPN	,LUDBLK(C)
  1022	001133'	254000	001115'		JRST NONE
  1023	001134'	337003	022100'		SKIPG	,LUDBLK(C)
  1024					JRST	[MOVE INDEX,C
  1025						PUSHJ P,ROVBLK
  1026	001135'	254000	023150'			JRST FINDUL]
  1027	001136'	316043	022100'		CAMN	A,LUDBLK(C)
  1028	001137'	254000	015533'		JRST	RET1
  1029	001140'	271140	000003		ADDI	C,3
  1030	001141'	254000	001130'		JRST	FINDUL+1
UPDLUD - ACCTG., LUD UPDATER	MACRO 12.5-46.0 17:15 19-SEP-89 PAGE 18
UPDLUD.MAC	24-MAY-89 18:55		DUL OPERATIONS

  1031				SUBTTL DUL OPERATIONS
  1032
  1033	001142'	260740	001127'	DULADD:	PUSHJ P,FINDUL
  1034	001143'	334000	000000		SKIPA
  1035	001144'	254000	000661'		JRST AINDUL
  1036	001145'	260740	001160'		PUSHJ P,DULFRE	;SETS C
  1037	001146'	332043	022100'		SKIPE A,LUDBLK(C)
  1038	001147'	202043	022103'		MOVEM A,LUDBLK+3(C)
  1039	001150'	200040	022037'		MOVE A,LPPN
  1040	001151'	202043	022100'		MOVEM A,LUDBLK(C)
  1041	001152'	200040	022033'		MOVE A,UNAME
  1042	001153'	202043	022101'		MOVEM A,LUDBLK+1(C)
  1043	001154'	200040	022034'		MOVE A,UNAME+1
  1044	001155'	202043	022102'		MOVEM A,LUDBLK+2(C)
  1045	001156'	260740	001563'		PUSHJ P,ORGSV1
  1046	001157'	254000	001061'		JRST DULEND
  1047
  1048	001160'	400140	000000	DULFRE:	SETZ C,
  1049	001161'	332043	022100'		SKIPE A,LUDBLK(C)	;ZERO ENTRY FOUND?
  1050					JRST [JUMPL A,DULFR3	;NO,GO CHECK IT - NEGATIVE?
  1051						ADDI C,3	;NO REGULAR ENTRY, GO GET NXT
  1052	001162'	254000	023153'			JRST DULFRE+1]
  1053	001163'	200300	000003		MOVE N,C
  1054	001164'	271300	000003		ADDI N,3
  1055	001165'	305300	000200		CAIGE N,200	;SEE IF ENTRY WILL FIT HERE
  1056	001166'	263740	000000		POPJ P,0	;IT WILL, RETURN
  1057	001167'	200500	000003		MOVE INDEX,C
  1058	001170'	260740	013506'		PUSHJ P,NOFIT	;NO MAKE OVERFLOW BLOCK
  1059	001171'	254000	001160'		JRST DULFRE
  1060	001172'	200300	000003	DULFR3:	MOVE N,C
  1061	001173'	271300	000003		ADDI N,3
  1062	001174'	303300	000200		CAILE N,200	;WILL IT FIT BEFORE OVFL PTR?
  1063					JRST [MOVE INDEX,C
  1064						PUSHJ P,ROVBLK	;NO, GET OVERFLOW BLOCK
  1065	001175'	254000	023156'			JRST DULFRE]
  1066	001176'	200203	022100'		MOVE D,LUDBLK(C)
  1067	001177'	202203	022103'		MOVEM D,LUDBLK+3(C)	;SAVE PTR
  1068	001200'	263740	000000		POPJ P,0
UPDLUD - ACCTG., LUD UPDATER	MACRO 12.5-46.0 17:15 19-SEP-89 PAGE 19
UPDLUD.MAC	24-MAY-89 18:55		DUL OPERATIONS

  1069	001201'	260740	001127'	DULCH:	PUSHJ P,FINDUL
  1070	001202'	254000	000762'		JRST DULERR
  1071	001203'	200043	022101'		MOVE A,LUDBLK+1(C)
  1072	001204'	202040	022013'		MOVEM A,SAVORG+DNAME
  1073	001205'	200043	022102'		MOVE A,LUDBLK+2(C)
  1074	001206'	202040	022014'		MOVEM A,SAVORG+DNAME+1
  1075	001207'	200040	022074'		MOVE A,NNAME
  1076	001210'	202040	022013'		MOVEM A,SAVORG+DNAME
  1077	001211'	202043	022101'		MOVEM A,LUDBLK+1(C)
  1078	001212'	200040	022075'		MOVE A,NNAME+1
  1079	001213'	202040	022014'		MOVEM A,SAVORG+DNAME+1
  1080	001214'	202043	022102'		MOVEM A,LUDBLK+2(C)
  1081	001215'	202140	022012'		MOVEM C,SAVORG+DINDEX
  1082	001216'	200040	023002'		MOVE A,HLOC
  1083	001217'	202040	022015'		MOVEM A,SAVORG+DBLK
  1084	001220'	254000	001061'		JRST DULEND
UPDLUD - ACCTG., LUD UPDATER	MACRO 12.5-46.0 17:15 19-SEP-89 PAGE 20
UPDLUD.MAC	24-MAY-89 18:55		CODE 1 - REMOVE USER FROM LUD

  1085				SUBTTL CODE 1 - REMOVE USER FROM LUD
  1086
  1087				;&.SKIP 2
  1088				;&CODE 1: REMOVE USER FROM LUD/DUL, DELETE ALL FILES AND UFD
  1089	001221'	260740	012212'	DELNAM:	PUSHJ P,USERCM	;&####INPUT USER NAME (TWELVE BYTES)
  1090	001222'	260740	000622'		PUSHJ	P,NOTFND		;NONE FOUND
  1091	001223'	260740	001227'		PUSHJ P,DELIT	;ACTAULLY REMOVE FROM LUD, DUL
  1092	001224'	200040	022773'		MOVE A,CODE
  1093	001225'	202040	023025'		MOVEM A,OLLCOD
  1094	001226'	254000	001070'		JRST DIDIT3
UPDLUD - ACCTG., LUD UPDATER	MACRO 12.5-46.0 17:15 19-SEP-89 PAGE 21
UPDLUD.MAC	24-MAY-89 18:55		CODE 1 - REMOVE USER FROM LUD

  1095	001227'	200052	022100'	DELIT:	MOVE A,LUDBLK(INDEX)
  1096	001230'	312040	020261'		CAME A,UFDPPN
  1097	001231'	316040	023161'		CAMN A,[XWD 1,4]
  1098	001232'	254000	000672'		JRST BADUSR
  1099	001233'	312040	020260'		CAME A,CUD10
  1100	001234'	316040	023162'		CAMN A,[XWD 11653,115244]	;DON'T REMOVE SPOOLING!
  1101	001235'	254000	000672'		JRST BADUSR
  1102	001236'	260740	013362'		PUSHJ P,CHKINF
  1103	001237'	260740	001274'		PUSHJ P,DELFIL
  1104	001240'	260740	000526'		PUSHJ P,GETLUD
  1105	001241'	260740	001112'		PUSHJ P,SETDEX
  1106	001242'	260740	000622'		PUSHJ P,NOTFND
  1107	001243'	260740	001554'		PUSHJ P,ORGSAV
  1108	001244'	402012	022104'		SETZM	,LUDBLK+4(INDEX)	;ZERO IT
  1109	001245'	602000	000020		TRNE F,ERRF
  1110	001246'	254000	000746'		JRST ERROUT
  1111	001247'	260740	001034'		PUSHJ P,ENDLUD
  1112	001250'	260740	000540'		PUSHJ P,GETDUL
  1113	001251'	200040	022037'		MOVE A,LPPN
  1114	001252'	260740	001127'	DULDEL:	PUSHJ P,FINDUL
  1115	001253'	254000	000762'		JRST DULERR
  1116	001254'	260740	001563'		PUSHJ P,ORGSV1
  1117	001255'	541040	022100'		HRRI A,LUDBLK
  1118	001256'	270040	000003		ADD A,C
  1119	001257'	271040	000003		ADDI A,3
  1120	001260'	507040	000001		HRLS A,A
  1121	001261'	541040	022100'		HRRI A,LUDBLK
  1122	001262'	270040	000003		ADD A,C
  1123	001263'	251040	022274'		BLT A,LUDBLK+174
  1124	001264'	260740	000614'		PUSHJ P,GETBLK
  1125	001265'	075760	023002'		USETO DSK,@HLOC
  1126	001266'	067740	020412'		OUTPUT DSK,LUDLST
  1127	001267'	063740	760000		STATZ DSK,760000
  1128	001270'	254000	000762'		JRST DULERR
  1129	001271'	070740	000000		CLOSE DSK,
  1130	001272'	071740	000000		RELEASE DSK,
  1131	001273'	263740	000000		POPJ P,0
UPDLUD - ACCTG., LUD UPDATER	MACRO 12.5-46.0 17:15 19-SEP-89 PAGE 22
UPDLUD.MAC	24-MAY-89 18:55		DELETE ALL FILES AND UFD FOR A USER

  1132				SUBTTL DELETE ALL FILES AND UFD FOR A USER
  1133
  1134	001274'	621000	000004	DELFIL:	TLZ F,UNLOK
  1135	001275'	200300	023163'		MOVE N,[XWD 20,12]
  1136	001276'	047300	000041		CALLI N,41
  1137	001277'	254000	001366'		 JRST DERR
  1138	001300'	514100	000006	CHKJOB:	HRLZ B,N	;SEE IF USER IS LOGGED IN
  1139	001301'	541100	000002		HRRI B,2
  1140	001302'	047100	000041		CALLI B,41
  1141	001303'	254000	001366'		 JRST DERR
  1142	001304'	316100	022037'		CAMN B,LPPN
  1143	001305'	254000	001366'		 JRST DERR
  1144	001306'	367300	001300'		SOJG N,CHKJOB
  1145	001307'	041740	000017		INIT DSK,17
  1146	001310'	446353	000000		SIXBIT /DSK/
  1147	001311'	000000	000000		0
  1148	001312'	254000	001366'		 JRST DERR
  1149	001313'	200040	022037'		MOVE A,LPPN
  1150	001314'	515100	654644		HRLZI B,(SIXBIT/UFD/)
  1151	001315'	400140	000000		SETZ C,
  1152	001316'	200200	020261'		MOVE D,UFDPPN
  1153	001317'	076740	000001		LOOKUP DSK,A
  1154	001320'	263740	000000		POPJ P,0
  1155	001321'	041540	000017		INIT DFIL,17
  1156	001322'	446353	000000		SIXBIT /DSK/
  1157	001323'	000000	000000		0
  1158	001324'	254000	001366'		 JRST DERR
  1159	001325'	200040	023164'		MOVE A,[XWD FILINF+1,FILINF+2]
  1160	001326'	251040	021067'		BLT A,FILINF+7			;ZERO AREA FOR EACH USER
  1161	001327'	200040	023165'	NXTGRP:	MOVE A,[XWD 33,DSK]
  1162	001330'	043040	021060'		CHANIO A,FILINF
  1163					 JRST [STATZ DSK,20000
  1164						JRST DELUFD
  1165						SKIPE FILINF+7
  1166						JRST DERR
  1167	001331'	254000	023166'			JRST NXTGRP]
  1168	001332'	336300	021067'		SKIPN N,FILINF+7
  1169	001333'	254000	001327'		JRST NXTGRP
  1170	001334'	400500	000000		SETZ INDEX,
  1171	001335'	200052	022100'	NXTFIL:	MOVE A,LUDBLK(INDEX)
  1172	001336'	510112	022101'		HLLZ B,LUDBLK+1(INDEX)
  1173	001337'	400140	000000		SETZ C,
  1174	001340'	200200	022037'		MOVE D,LPPN
  1175	001341'	076540	000001		LOOKUP DFIL,A
  1176	001342'	254000	001366'		 JRST DERR
  1177	001343'	403040	000002		SETZB A,B
  1178	001344'	400140	000000		SETZ C,
  1179	001345'	200200	022037'		MOVE D,LPPN
  1180	001346'	055540	000001		RENAME DFIL,A
  1181	001347'	254000	001366'		 JRST DERR
  1182	001350'	271500	000002		ADDI INDEX,2
  1183	001351'	367300	001335'		SOJG N,NXTFIL
  1184	001352'	254000	001327'		JRST NXTGRP
UPDLUD - ACCTG., LUD UPDATER	MACRO 12.5-46.0 17:15 19-SEP-89 PAGE 22-2
UPDLUD.MAC	24-MAY-89 18:55		DELETE ALL FILES AND UFD FOR A USER

  1185	001353'	071540	000000	DELUFD:	RELEASE DFIL,
  1186	001354'	260740	001371'		PUSHJ P,FINUFD
  1187	001355'	254000	001366'		 JRST DERR
  1188	001356'	263740	000000		POPJ P,0	;NO UFD
  1189	001357'	402000	020264'		SETZM UFDFIL+1
  1190	001360'	402000	020265'		SETZM UFDFIL+2
  1191	001361'	402000	020266'		SETZM UFDFIL+3
  1192	001362'	055540	020263'		RENAME UFD,UFDFIL
  1193	001363'	254000	001366'		 JRST DERR
  1194	001364'	260740	001442'		PUSHJ P,LETGO
  1195	001365'	263740	000000		POPJ P,0
  1196
  1197	001366'	623000	000004	DERR:	TLZE F,UNLOK
  1198	001367'	260740	001442'		PUSHJ P,LETGO
  1199	001370'	254000	000657'		JRST DELERR
UPDLUD - ACCTG., LUD UPDATER	MACRO 12.5-46.0 17:15 19-SEP-89 PAGE 23
UPDLUD.MAC	24-MAY-89 18:55		UFD ROUTINES

  1200				SUBTTL UFD ROUTINES
  1201
  1202			000013	UFD==13
  1203			000000	JBTSTS==0
  1204			000001	JACCT==1
  1205
  1206	001371'	201040	000032	FINUFD:	MOVEI A,32
  1207	001372'	202040	020263'		MOVEM A,UFDFIL
  1208	001373'	200040	020261'		MOVE A,UFDPPN
  1209	001374'	202040	020264'		MOVEM A,UFDFIL+1
  1210	001375'	200040	022037'		MOVE A,LPPN
  1211	001376'	202040	020265'		MOVEM A,UFDFIL+2
  1212	001377'	515040	654644		HRLZI A,(SIXBIT /UFD/)
  1213	001400'	202040	020266'		MOVEM A,UFDFIL+3
  1214	001401'	561040	000000		HRROI A,JBTSTS
  1215	001402'	047040	000041		GETTAB A,
  1216	001403'	263740	000000		 POPJ P,0
  1217	001404'	661040	000001		TLO A,JACCT
  1218	001405'	661000	000004		TLO F,UNLOK
  1219	001406'	047040	777757		SETJAL A,
  1220	001407'	263740	000000		 POPJ P,0
  1221	001410'	260740	001431'		PUSHJ P,LOKSTR
  1222	001411'	263740	000000		 POPJ P,0
  1223	001412'	201040	000017		MOVEI A,17
  1224	001413'	505040	400000		HRLI A,400000
  1225	001414'	400140	000000		SETZ C,
  1226	001415'	200100	020323'		MOVE B,DSKB
  1227	001416'	050540	000001		OPEN UFD,A
  1228	001417'	263740	000000		 POPJ P,0
  1229	001420'	076540	020263'		LOOKUP UFD,UFDFIL
  1230					 JRST [PUSHJ P,LETGO
  1231						AOS (P)
  1232	001421'	254000	023173'			POPJ P,0]
  1233	001422'	350017	000000		AOS (P)
  1234	001423'	350017	000000		AOS (P)
  1235	001424'	263740	000000		POPJ P,0
  1236
  1237	001425'	363340	015534'	WTLOK:	SOJLE N1,RET0
  1238	001426'	201040	000001		MOVEI A,1
  1239	001427'	047040	000031		SLEEP A,
  1240	001430'	334000	000000		SKIPA ;TRY AGAIN
  1241	001431'	201340	000074	LOKSTR:	MOVEI N1,^D60
  1242	001432'	201100	000006		MOVEI B,6
  1243	001433'	200140	020323'		MOVE C,DSKB
  1244	001434'	200200	022037'		MOVE D,LPPN
  1245	001435'	200040	020262'		MOVE A,STRARG
  1246	001436'	047040	000050		STRUUO A,
  1247	001437'	254000	001425'		 JRST WTLOK
  1248	001440'	350017	000000		AOS (P)
  1249	001441'	263740	000000		POPJ P,0
  1250
  1251	001442'	201100	000007	LETGO:	MOVEI B,7	;UNLOCK
  1252	001443'	200200	022037'		MOVE D,LPPN
UPDLUD - ACCTG., LUD UPDATER	MACRO 12.5-46.0 17:15 19-SEP-89 PAGE 23-2
UPDLUD.MAC	24-MAY-89 18:55		UFD ROUTINES

  1253	001444'	200140	020323'	LETGO1:	MOVE C,DSKB
  1254	001445'	200040	020262'		MOVE A,STRARG
  1255	001446'	047040	000050		STRUUO A,
  1256	001447'	255000	000000		 JFCL
  1257	001450'	071540	000000		RELEASE UFD,
  1258	001451'	561040	000000		HRROI A,JBTSTS
  1259	001452'	047040	000041		GETTAB A,
  1260	001453'	263740	000000		 POPJ P,0
  1261	001454'	621040	000001		TLZ A,JACCT
  1262	001455'	047040	777757		SETJAL A,
  1263	001456'	255000	000000		 JFCL
  1264	001457'	263740	000000		POPJ P,0
UPDLUD - ACCTG., LUD UPDATER	MACRO 12.5-46.0 17:15 19-SEP-89 PAGE 24
UPDLUD.MAC	24-MAY-89 18:55		CODE 2 - ADD USER TO LUD

  1265				SUBTTL CODE 2 - ADD USER TO LUD
  1266
  1267				;&.SKIP 2
  1268				;&CODE 2: ADD USER TO LUD/DUL
  1269	001460'	260740	012212'	NEWNAM:	PUSHJ P,USERCM	;&####INPUT USER NAME (TWELVE BYTES)
  1270	001461'	334000	000000		SKIPA
  1271	001462'	260740	000620'		PUSHJ P,FND
  1272	001463'	260740	012157'		PUSHJ P,USERIN	;&####INPUT GAN (THREE BYTES)
  1273							;&####INPUT UUN (THREE BYTES)
  1274	001464'	260740	012436'		PUSHJ P,GETDIS	;&####INPUT DISTRICT (ONE BYTE)
  1275	001465'	200040	022037'		MOVE A,LPPN
  1276	001466'	312040	020261'		CAME A,UFDPPN
  1277	001467'	316040	023161'		CAMN A,[XWD 1,4]
  1278	001470'	260740	001550'		PUSHJ P,SNOLOG	;ADDING SYS OR UFD - SET NO LOGINS
  1279	001471'	260740	012304'		PUSHJ P,GETPBT	;&####INPUT PRIVILEGE BITS (SEE BELOW)
  1280	001472'	550040	020335'		HRRZ A,STCORE	;GET AMOUNT OF STANDARD CORE
  1281	001473'	507000	000001		HRLS	A
  1282	001474'	272040	022042'		ADDM A,PRIV
  1283	001475'	260740	012361'		PUSHJ P,GETZONE	;&####INPUT USER TIME ZONE (ONE BYTE)
  1284	001476'	137300	023176'		DPB N,[POINT 6,PRIV,7]	;SAVE TIME ZONE INFO IN PRIV. WORD
  1285	001477'	260740	013105'		PUSHJ P,GETSTR	;&####INPUT QUOTAS (SIX BYTES)
  1286	001500'	260740	013362'		PUSHJ P,CHKINF
  1287	001501'	260740	000526'		PUSHJ P,GETLUD
  1288	001502'	260740	001112'		PUSHJ P,SETDEX
  1289	001503'	334000	000000		SKIPA
  1290	001504'	260740	000620'		PUSHJ P,FND
  1291	001505'	201300	000010		MOVEI N,^D8
  1292	001506'	336000	022771'		SKIPN BILABL#
  1293	001507'	340300	000000		AOJ N,
  1294	001510'	260740	013431'		PUSHJ P,GETFRE	;GET NEXT FREE SPACE BIG ENUF
  1295	001511'	202312	022102'		MOVEM N,LUDBLK+2(INDEX)
  1296	001512'	200040	022037'		MOVE A,LPPN
  1297	001513'	202052	022100'		MOVEM A,LUDBLK(INDEX)
  1298	001514'	200040	022040'		MOVE A,DIST
  1299	001515'	202052	022101'		MOVEM A,LUDBLK+1(INDEX)
  1300	001516'	200040	022041'	        MOVE A,MISC
  1301	001517'	272052	022102'	        ADDM  A,LUDBLK+2(INDEX)
  1302	001520'	200040	022042'		MOVE A,PRIV
  1303	001521'	202052	022103'		MOVEM A,LUDBLK+3(INDEX)
  1304	001522'	200040	022043'		MOVE A,HUNAME
  1305	001523'	202052	022104'		MOVEM A,LUDBLK+4(INDEX)
  1306	001524'	261740	000012		PUSH P,INDEX
  1307	001525'	336040	022771'		SKIPN A,BILABL
  1308	001526'	260740	001541'		 PUSHJ P,SETBUD
  1309	001527'	200040	022044'		MOVE A,STR
  1310	001530'	202052	022105'		MOVEM A,LUDBLK+5(INDEX)
  1311	001531'	200040	022045'		MOVE A,QIN
  1312	001532'	202052	022106'		MOVEM A,LUDBLK+6(INDEX)
  1313	001533'	200040	022046'		MOVE A,QOUT
  1314	001534'	202052	022107'		MOVEM A,LUDBLK+7(INDEX)
  1315	001535'	262740	000012		POP P,INDEX
  1316	001536'	260740	001554'		PUSHJ P,ORGSAV
  1317	001537'	660000	000004		TRO F,ADDDUL
UPDLUD - ACCTG., LUD UPDATER	MACRO 12.5-46.0 17:15 19-SEP-89 PAGE 24-2
UPDLUD.MAC	24-MAY-89 18:55		CODE 2 - ADD USER TO LUD

  1318	001540'	254000	001043'		JRST DIDIT
UPDLUD - ACCTG., LUD UPDATER	MACRO 12.5-46.0 17:15 19-SEP-89 PAGE 25
UPDLUD.MAC	24-MAY-89 18:55		CODE 2 - ADD USER TO LUD

  1319	001541'	201040	000764	SETBUD:	MOVEI A,764
  1320	001542'	221040	023420	        IMULI A,^D10000
  1321	001543'	202052	022105'		MOVEM A,LUDBLK+5(INDEX)
  1322	001544'	201040	000001		MOVEI A,1
  1323	001545'	137040	020345'		DPB A,TRUPTR
  1324	001546'	340500	000000		AOJ INDEX,
  1325	001547'	263740	000000		POPJ P,0
  1326
  1327	001550'	200040	022041'	SNOLOG:	MOVE A,DIST+1	;ADDING SYS OR UFD - NO LOGINS
  1328	001551'	661040	400000		TLO A,400000
  1329	001552'	202040	022041'		MOVEM A,DIST+1
  1330	001553'	263740	000000		POPJ P,0
UPDLUD - ACCTG., LUD UPDATER	MACRO 12.5-46.0 17:15 19-SEP-89 PAGE 26
UPDLUD.MAC	24-MAY-89 18:55		SAVE ORIGINAL INFORMATION

  1331				SUBTTL SAVE ORIGINAL INFORMATION
  1332
  1333				;SAVE LUD INFO
  1334	001554'	202500	022007'	ORGSAV:	MOVEM INDEX,SAVORG+LINDEX	;SAVE INDEX TO LUD ENTRY
  1335	001555'	200052	022104'		MOVE A,LUDBLK+4(INDEX)
  1336	001556'	202040	022010'		MOVEM A,SAVORG+HASH	;SAVE HASHED NAME
  1337	001557'	260740	000614'		PUSHJ P,GETBLK
  1338	001560'	200040	023002'		MOVE A,HLOC
  1339	001561'	202040	022011'		MOVEM A,SAVORG+LBLK	;SAVE HASH LOCATION
  1340	001562'	263740	000000		POPJ P,0
  1341
  1342				;SAVE DUL INFO
  1343	001563'	202140	022012'	ORGSV1:	MOVEM C,SAVORG+DINDEX	;SAVE INDEX TO DUL ENTRY
  1344	001564'	200040	022033'		MOVE A,UNAME
  1345	001565'	202040	022013'		MOVEM A,SAVORG+DNAME	;SAVE USER NAME
  1346	001566'	200040	022034'		MOVE A,UNAME+1
  1347	001567'	202040	022014'		MOVEM A,SAVORG+DNAME+1
  1348	001570'	260740	000614'		PUSHJ P,GETBLK
  1349	001571'	200040	023002'		MOVE A,HLOC
  1350	001572'	202040	022015'		MOVEM A,SAVORG+DBLK	;SAVE HASH LOCATION
  1351	001573'	263740	000000		POPJ P,0
UPDLUD - ACCTG., LUD UPDATER	MACRO 12.5-46.0 17:15 19-SEP-89 PAGE 27
UPDLUD.MAC	24-MAY-89 18:55		CODE 3 - CHANGE USER NAME IN LUD

  1352				SUBTTL CODE 3 - CHANGE USER NAME IN LUD
  1353
  1354				;&.SKIP 2
  1355				;&CODE 3: CHANGE USER NAME IN LUD/DUL
  1356	001574'	260740	012212'	CHNAME:	PUSHJ P,USERCM	;&####INPUT USER NAME (TWELVE BYTES)
  1357	001575'	260740	000622'		PUSHJ P,NOTFND	;NOT FOUND, SET ERROR CODE
  1358	001576'	200040	022033'		MOVE A,UNAME
  1359	001577'	202040	022020'		MOVEM A,SAVORG+ONAME
  1360	001600'	200040	022034'		MOVE A,UNAME+1
  1361	001601'	202040	022021'		MOVEM A,SAVORG+ONAME+1
  1362	001602'	260740	012275'		PUSHJ P,GNWNAM	;&####INPUT NEW USER NAME (TWELVE BYTES)
  1363	001603'	200040	022074'		MOVE A,NNAME
  1364	001604'	202040	022013'		MOVEM A,SAVORG+DNAME
  1365	001605'	200040	022075'		MOVE A,NNAME+1
  1366	001606'	202040	022014'		MOVEM A,SAVORG+DNAME+1
  1367	001607'	260740	013362'		PUSHJ P,CHKINF
  1368	001610'	260740	001662'		PUSHJ P,CHUFD
  1369	001611'	260740	000526'		PUSHJ P,GETLUD
  1370	001612'	260740	001112'		PUSHJ P,SETDEX
  1371	001613'	260740	000622'		PUSHJ P,NOTFND
  1372	001614'	202500	022022'		MOVEM INDEX,SAVORG+OINDEX
  1373	001615'	202052	022104'		MOVEM A,LUDBLK+4(INDEX)
  1374	001616'	202040	022023'		MOVEM A,SAVORG+OHASH
  1375	001617'	200040	023002'		MOVE A,HLOC
  1376	001620'	202040	022024'		MOVEM A,SAVORG+OBLK
  1377	001621'	260740	013635'		PUSHJ P,SAVIT	;SAVE ALL OLD INFO AS IS
  1378	001622'	402012	022104'		SETZM ,LUDBLK+4(INDEX)	;ZERO OLD ENTRY IN BLK
  1379	001623'	075760	023002'		USETO DSK,@HLOC
  1380	001624'	067740	020412'		OUTPUT DSK,LUDLST
  1381	001625'	063740	740000		STATZ DSK,740000
  1382	001626'	260740	000670'		PUSHJ P,IOERR
  1383	001627'	602000	000020		TRNE F,ERRF
  1384	001630'	254000	001043'		JRST DIDIT
  1385	001631'	200300	022074'		MOVE N,NNAME
  1386	001632'	200340	022075'		MOVE N1,NNAME+1
  1387	001633'	260740	015301'		PUSHJ P,HASHER
  1388	001634'	202300	022077'		MOVEM N,HNNAME
  1389	001635'	202340	023002'		MOVEM N1,HLOC
  1390	001636'	200040	023002'		MOVE A,HLOC
  1391	001637'	202040	022011'		MOVEM A,SAVORG+LBLK
  1392	001640'	074760	023002'		USETI DSK,@HLOC
  1393	001641'	066740	020412'		INPUT DSK,LUDLST
  1394	001642'	063740	760000		STATZ DSK,760000
  1395	001643'	260740	000670'		PUSHJ P,IOERR
  1396	001644'	606000	000020		TRNN F,ERRF
  1397					JRST [MOVE A,HNNAME
  1398						PUSHJ P,SETDEX+1
  1399	001645'	254000	023177'			JRST CHNAM1]
  1400	001646'	074760	022011'		USETI DSK,@SAVORG+LBLK	;RETURN OLD INFO IF NAME ALLREADY THERE
  1401	001647'	066740	020412'		INPUT DSK,LUDLST
  1402	001650'	063740	760000		STATZ DSK,760000
  1403	001651'	260740	000670'		PUSHJ P,IOERR
  1404	001652'	200500	022007'		MOVE INDEX,SAVORG+LINDEX
UPDLUD - ACCTG., LUD UPDATER	MACRO 12.5-46.0 17:15 19-SEP-89 PAGE 27-2
UPDLUD.MAC	24-MAY-89 18:55		CODE 3 - CHANGE USER NAME IN LUD

  1405	001653'	260740	013646'		PUSHJ P,RETIT
  1406	001654'	075760	022011'		USETO DSK,@SAVORG+LBLK
  1407	001655'	067740	020412'		OUTPUT DSK,LUDLST
  1408	001656'	063740	740000		STATZ DSK,740000
  1409	001657'	260740	000670'		PUSHJ P,IOERR
  1410	001660'	260740	000620'		PUSHJ P,FND
  1411	001661'	254000	001043'		JRST DIDIT
UPDLUD - ACCTG., LUD UPDATER	MACRO 12.5-46.0 17:15 19-SEP-89 PAGE 28
UPDLUD.MAC	24-MAY-89 18:55		CODE 3 - CHANGE USER NAME IN LUD

  1412	001662'	260740	001371'	CHUFD:	PUSHJ P,FINUFD
  1413	001663'	255000	000000		 JFCL
  1414	001664'	263740	000000		 POPJ P,0
  1415	001665'	200040	022074'		MOVE A,NNAME
  1416	001666'	202040	020312'		MOVEM A,UFDFIL+27
  1417	001667'	200040	022075'		MOVE A,NNAME+1
  1418	001670'	202040	020313'		MOVEM A,UFDFIL+30
  1419	001671'	476000	020310'		SETOM UFDFIL+25
  1420	001672'	055540	020263'		RENAME UFD,UFDFIL
  1421	001673'	255000	000000		 JFCL
  1422	001674'	260740	001442'		PUSHJ P,LETGO
  1423	001675'	263740	000000		POPJ P,0
UPDLUD - ACCTG., LUD UPDATER	MACRO 12.5-46.0 17:15 19-SEP-89 PAGE 29
UPDLUD.MAC	24-MAY-89 18:55		CODE 3 - CHANGE USER NAME IN LUD

  1424	001676'	200300	023016'	CHNAM1:	MOVE N,NENTRY
  1425	001677'	260740	013431'		PUSHJ P,GETFRE
  1426	001700'	260740	013646'		PUSHJ P,RETIT
  1427	001701'	200040	022077'		MOVE A,HNNAME
  1428	001702'	202052	022104'		MOVEM A,LUDBLK+4(INDEX)
  1429	001703'	202040	022010'		MOVEM A,SAVORG+HASH
  1430	001704'	202500	022007'		MOVEM INDEX,SAVORG+LINDEX
  1431	001705'	200052	022100'		MOVE A,LUDBLK(INDEX)
  1432	001706'	202040	022037'		MOVEM A,LPPN
  1433	001707'	202040	022016'		MOVEM A,SAVORG+PPN
  1434	001710'	660000	000002		TRO F,CHDUL
  1435	001711'	254000	001043'		JRST DIDIT
UPDLUD - ACCTG., LUD UPDATER	MACRO 12.5-46.0 17:15 19-SEP-89 PAGE 30
UPDLUD.MAC	24-MAY-89 18:55		CODE 4 - CHANGE PRIVILEGE BITS IN LUD

  1436				SUBTTL CODE 4 - CHANGE PRIVILEGE BITS IN LUD
  1437
  1438				;&.SKIP 2
  1439				;&CODE 4: CHANGE PRIVILEGE BITS IN LUD
  1440	001712'	260740	012212'	CHPBIT:	PUSHJ P,USERCM	;&####INPUT USER NAME (TWELVE BYTES)
  1441	001713'	260740	000622'		PUSHJ P,NOTFND		;USER NAME NOT FOUND
  1442	001714'	660000	000040		TRO F,NEWF
  1443	001715'	260740	012304'		PUSHJ P,GETPBT	;&####INPUT NEW PRIVILEGE BITS (SEE BELOW)
  1444
  1445	001716'	260740	013362'		PUSHJ P,CHKINF
  1446	001717'	260740	000526'		PUSHJ P,GETLUD
  1447	001720'	260740	001112'		PUSHJ P,SETDEX
  1448	001721'	260740	000622'		PUSHJ P,NOTFND
  1449	001722'	200312	022102'		MOVE N,LUDBLK+2(INDEX)
  1450	001723'	404300	023202'		AND N,[XWD 637777,777777]
  1451	001724'	434300	022041'		IOR N,MISC
  1452	001725'	202312	022102'		MOVEM N,LUDBLK+2(INDEX)
  1453	001726'	200312	022103'		MOVE N,LUDBLK+3(INDEX)
  1454	001727'	404300	023203'		AND N,[XWD 777777,716177]
  1455	001730'	434300	022042'		IOR N,PRIV
  1456	001731'	202312	022103'		MOVEM N,LUDBLK+3(INDEX)
  1457	001732'	254000	001043'		JRST	DIDIT
  1458
  1459
  1460				;&.SKIP 2
  1461				;&CODE 5: CHANGE QUOTAS IN LUD
  1462	001733'	260740	012212'	CHQUO:	PUSHJ P,USERCM	;&####INPUT USER NAME (TWELVE BYTES)
  1463	001734'	260740	000622'		PUSHJ P,NOTFND	;USER NAME NOT THERE
  1464	001735'	260740	013105'		PUSHJ P,GETSTR	;&####INPUT NEW QUOTAS (SIX BYTES)
  1465	001736'	260740	013362'		PUSHJ P,CHKINF
  1466	001737'	260740	000526'		PUSHJ P,GETLUD
  1467	001740'	260740	001112'		PUSHJ P,SETDEX
  1468	001741'	260740	000622'		PUSHJ P,NOTFND
  1469	001742'	603000	002000		TLNE F,TRUF
  1470	001743'	271500	000001		ADDI INDEX,1
  1471	001744'	603000	000400		TLNE F,INITF
  1472	001745'	271500	000003		ADDI INDEX,3
  1473	001746'	271500	000005		ADDI INDEX,5
  1474	001747'	200040	022045'		MOVE A,QIN
  1475	001750'	202052	022101'		MOVEM A,LUDBLK+1(INDEX)
  1476	001751'	200040	022046'		MOVE A,QOUT
  1477	001752'	202052	022102'		MOVEM A,LUDBLK+2(INDEX)
  1478	001753'	254000	001043'		JRST DIDIT
UPDLUD - ACCTG., LUD UPDATER	MACRO 12.5-46.0 17:15 19-SEP-89 PAGE 31
UPDLUD.MAC	24-MAY-89 18:55		CODE 6 CHANGE BUDGET IN LUD

  1479				SUBTTL CODE 6 CHANGE BUDGET IN LUD
  1480				;&CODE 6: CHANGE TRU BUDGET IN LUD
  1481	001754'	260740	012212'	CHBUD:  PUSHJ   P,USERCM        ;&####INPUT USER NAME (TWELVE BYTES)
  1482	001755'	260740	000622'	        PUSHJ   P,NOTFND
  1483	001756'	260740	013200'	        PUSHJ   P,GETBUD        ;&####INPUT BUDGET (THREE BYTES)
  1484	001757'	322300	002027'	        JUMPE   N,CHBUDZ        ; GO TO CHBUDZ IF NEW BUDGET IS 0 (NO BUDGET)
  1485	001760'	607000	002000	        TLNN    F,TRUF          ; SKIP IF PREVIOUS BUDGET PRESENT
  1486	001761'	254000	001771'	         JRST   CHBUD2          ; GO TO CHBUD2 IF WE HAVE TO CREATE BUDGET
  1487	001762'	260740	013362'	        PUSHJ   P,CHKINF
  1488	001763'	260740	000526'	        PUSHJ   P,GETLUD        ; GET THE LUD
  1489	001764'	260740	001112'	        PUSHJ   P,SETDEX        ; FIND THE BLOCK
  1490	001765'	260740	000622'	        PUSHJ   P,NOTFND
  1491	001766'	200300	022047'	        MOVE    N,BUDGET        ; PUT THE BUDGET IN PLACE
  1492	001767'	202312	022105'	        MOVEM   N,LUDBLK+5(INDEX)
  1493	001770'	254000	001043'	        JRST    DIDIT           ; GO WRITE IT OUT AND FINISH
  1494	001771'			CHBUD2: ; HERE WHEN OLD BUD ZERO, NEW BUD NE 0
  1495	001771'	260740	013362'	        PUSHJ   P,CHKINF
  1496	001772'	260740	013635'	        PUSHJ   P,SAVIT         ; SAVE OLD LUD RECORD
  1497	001773'	260740	000526'	        PUSHJ   P,GETLUD
  1498	001774'	402012	022104'	        SETZM   LUDBLK+4(INDEX) ; MARK RECORD AS CANCELLED
  1499	001775'	075760	023002'	        USETO   DSK,@HLOC       ; FIND THE BLOCK
  1500	001776'	067740	020412'	        OUTPUT  DSK,LUDLST      ; WRITE IT OUT
  1501	001777'	063740	740000	        STATZ   DSK,740000
  1502	002000'	260740	000670'	        PUSHJ   P,IOERR
  1503	002001'	602000	000020	        TRNE    F,ERRF
  1504	002002'	254000	001043'	        JRST    DIDIT
  1505	002003'	200300	022621'	        MOVE    N,SAVLUD+2      ; COMPUTE LENGTH OF NEW RECORD
  1506	002004'	405300	000177	        ANDI    N,177
  1507	002005'	340300	000000	        AOJ     N,
  1508	002006'	260740	013431'	        PUSHJ   P,GETFRE        ; GO FIND SPACE
  1509	002007'	200300	023204'	        MOVE    N,[SAVLUD,,LUDBLK]      ; PREPARE TO COPY FIRST WORDS
  1510	002010'	270300	000012	        ADD     N,INDEX
  1511	002011'	251312	022105'	        BLT     N,LUDBLK+5(INDEX)       ; DO IT
  1512	002012'	201300	000001	        MOVEI   N,1                     ; SET FLAG INDICATING BUDGET WORD
  1513	002013'	137300	020345'	        DPB     N,TRUPTR
  1514	002014'	200300	023205'	        MOVE    N,[SAVLUD+5,,LUDBLK+6]  ; COPY LAST PART OF RECORD
  1515	002015'	270300	000012	        ADD     N,INDEX
  1516	002016'	135140	020346'	        LDB     C,NENTP                 ; AND PUT IN THE NEW LENGTH
  1517	002017'	340140	000000	        AOJ     C,
  1518	002020'	137140	020346'	        DPB     C,NENTP
  1519	002021'	275140	000007	        SUBI    C,7
  1520	002022'	271152	022106'	        ADDI    C,LUDBLK+6(INDEX)
  1521	002023'	251320	000003	        BLT     N,@C                    ; DO IT
  1522	002024'	200300	022047'	        MOVE    N,BUDGET
  1523	002025'	202312	022105'	        MOVEM   N,LUDBLK+5(INDEX)       ; PUT IN THE BUDGET
  1524	002026'	254000	001043'	        JRST    DIDIT           ; WRITE IT AND EXIT
  1525	002027'			CHBUDZ: ; HERE WHEN NEW BUD 0
  1526	002027'	607000	002000	        TLNN    F,TRUF  ; SKIP IF OLD BUDGET WORD IS PRESENT
  1527	002030'	254000	002065'	         JRST   CHBDZ2
  1528				; HERE WHEN OLD BUD NE 0, NEW BUD EQ 0
  1529	002031'	260740	013362'	        PUSHJ   P,CHKINF
  1530	002032'	260740	013635'	        PUSHJ   P,SAVIT
  1531	002033'	260740	000526'	        PUSHJ   P,GETLUD
UPDLUD - ACCTG., LUD UPDATER	MACRO 12.5-46.0 17:15 19-SEP-89 PAGE 31-2
UPDLUD.MAC	24-MAY-89 18:55		CODE 6 CHANGE BUDGET IN LUD

  1532	002034'	402012	022104'	        SETZM   LUDBLK+4(INDEX) ; CANCEL OLD RECORD
  1533	002035'	075760	023002'	        USETO   DSK,@HLOC
  1534	002036'	067740	020412'	        OUTPUT  DSK,LUDLST
  1535	002037'	063740	740000	        STATZ   DSK,740000
  1536	002040'	260740	000670'	        PUSHJ   P,IOERR
  1537	002041'	602000	000020	        TRNE    F,ERRF
  1538	002042'	254000	001043'	        JRST    DIDIT
  1539	002043'	200300	022621'	        MOVE    N,SAVLUD+2
  1540	002044'	405300	000177	        ANDI    N,177
  1541	002045'	360300	000000	        SOJ     N,
  1542	002046'	260740	013431'	        PUSHJ   P,GETFRE        ; FIND A NEW SLOT
  1543	002047'	200300	023204'	        MOVE    N,[SAVLUD,,LUDBLK]
  1544	002050'	270300	000012	        ADD     N,INDEX
  1545	002051'	251312	022105'	        BLT     N,LUDBLK+5(INDEX) ; COPY FIRST PART
  1546	002052'	400300	000000	        SETZ    N,
  1547	002053'	137300	020345'	        DPB     N,TRUPTR        ; TURN OFF BUDGET FLAG
  1548	002054'	200300	023206'	        MOVE    N,[SAVLUD+6,,LUDBLK+5]  ; COPY THE REST
  1549	002055'	270300	000012	        ADD     N,INDEX
  1550	002056'	135140	020346'	        LDB     C,NENTP
  1551	002057'	360140	000000	        SOJ     C,
  1552	002060'	137140	020346'	        DPB     C,NENTP         ; PUT IN THE NEW LENGTH
  1553	002061'	275140	000007	        SUBI    C,7
  1554	002062'	271152	022105'	        ADDI    C,LUDBLK+5(INDEX)
  1555	002063'	251320	000003	        BLT     N,@C            ; DO THE COPY
  1556	002064'	254000	001043'	        JRST    DIDIT
  1557	002065'	260740	013362'	CHBDZ2: PUSHJ   P,CHKINF
  1558	002066'	254000	001070'	        JRST    DIDIT3          ; NOTHING TO DO, JUST SAY IT'S DONE.
UPDLUD - ACCTG., LUD UPDATER	MACRO 12.5-46.0 17:15 19-SEP-89 PAGE 33
UPDLUD.MAC	24-MAY-89 18:55		CODE 7 - LIST ALL USERS IN THE LUD

  1559				SUBTTL CODE 7 - LIST ALL USERS IN THE LUD
  1560
  1561				;&.SKIP 2
  1562				;&CODE 7: LIST ALL USERS IN THE LUD
  1563				;&####FOR EACH USER, OUTPUT:
  1564	002067'	260740	002253'	LISALL:	PUSHJ P,NGANIN
  1565	002070'	200140	000001		MOVE C,A
  1566	002071'	271140	000003	NXTU:	ADDI C,3
  1567	002072'	337103	022414'		SKIPG B,DULBLK(C)
  1568					JRST [PUSHJ P,RDBLK
  1569						JRST LSTU
  1570						MOVE C,A
  1571	002073'	254000	023207'			JRST NXTU]
  1572	002074'	200640	020343'		MOVE BP,NAMPTR
  1573	002075'	260740	011761'		PUSHJ P,NAMOUT+1	;&####OUTPUT USER NAME (TWELVE BYTES)
  1574	002076'	200303	022414'		MOVE N,DULBLK(C)	;&####OUTPUT PPN (SIX BYTES)
  1575	002077'	202300	023047'		MOVEM N,WD
  1576	002100'	260740	011414'		PUSHJ P,PPNOUT
  1577	002101'	260740	015242'		PUSHJ P,CRLF
  1578	002102'	254000	002071'		JRST NXTU
  1579	002103'	070640	000000	LSTU:	CLOSE DSK1,
  1580	002104'	260740	013530'		PUSHJ P,SENDEND	;&####END WITH 377B
  1581
  1582	002105'	254000	000137'		JRST LUDUP1
UPDLUD - ACCTG., LUD UPDATER	MACRO 12.5-46.0 17:15 19-SEP-89 PAGE 34
UPDLUD.MAC	24-MAY-89 18:55		CODE 10 - CHANGE USER DISTRICT IN THE LUD

  1583				SUBTTL CODE 10 - CHANGE USER DISTRICT IN THE LUD
  1584
  1585				;&.SKIP 2
  1586				;&CODE 10: CHANGE USER DISTRICT IN THE LUD
  1587	002106'	260740	012212'	CHDIST:	PUSHJ P,USERCM	;&####INPUT USER NAME (TWELVE BYTES)
  1588	002107'	260740	000622'		PUSHJ P,NOTFND
  1589	002110'	660000	000040		TRO F,NEWF
  1590	002111'	260740	012436'		PUSHJ P,GETDIS	;&####INPUT NEW DISTRICT (ONE BYTE)
  1591	002112'	202300	022040'		MOVEM N,DIST
  1592	002113'	260740	013362'		PUSHJ P,CHKINF
  1593	002114'	260740	000526'		PUSHJ P,GETLUD
  1594	002115'	260740	001112'		PUSHJ P,SETDEX
  1595	002116'	260740	000622'		PUSHJ P,NOTFND
  1596	002117'	200300	022040'		MOVE N,DIST
  1597	002120'	137300	020344'		DPB N,DISBP
  1598	002121'	254000	001043'		JRST	DIDIT
UPDLUD - ACCTG., LUD UPDATER	MACRO 12.5-46.0 17:15 19-SEP-89 PAGE 35
UPDLUD.MAC	24-MAY-89 18:55		CODE 11 - CHANGE USER TIME ZONE IN THE LUD

  1599				SUBTTL CODE 11 - CHANGE USER TIME ZONE IN THE LUD
  1600				;&.SKIP 2
  1601				;&CODE 11: CHANGE USER TIME ZONE IN THE LUD
  1602	002122'	260740	012212'	CHZONE:	PUSHJ P,USERCM	;&####INPUT USER NAME (TWELVE BYTES)
  1603	002123'	260740	000622'		PUSHJ P,NOTFND
  1604	002124'	660000	000040		TRO F,NEWF
  1605	002125'	200052	022100'		MOVE A,LUDBLK(INDEX)
  1606	002126'	316040	023213'		CAMN A,[XWD 1,21]
  1607	002127'	254000	000672'		JRST BADUSR
  1608	002130'	260740	012361'		PUSHJ P,GETZONE	;&####INPUT NEW TIME ZONE (ONE BYTE)
  1609	002131'	260740	013362'		PUSHJ P,CHKINF
  1610	002132'	260740	000526'		PUSHJ P,GETLUD
  1611	002133'	260740	001112'		PUSHJ P,SETDEX
  1612	002134'	260740	000622'		PUSHJ P,NOTFND
  1613	002135'	200300	023051'		MOVE N,ZONE#
  1614	002136'	137300	020350'		DPB N,ZONEBP
  1615	002137'	254000	001043'		JRST DIDIT
  1616
  1617
  1618
  1619				;&.SKIP 2
  1620				;&CODE 12: CHANGE GAN IN LUD,DUL
  1621	002140'	260740	012212'	CHLGAN: PUSHJ P,USERCM  ;&####INPUT USER NAME (TWELVE BYTES)
  1622	002141'	260740	000622'	        PUSHJ P,NOTFND
  1623	002142'	200040	023002'	        MOVE A,HLOC
  1624	002143'	202040	023003'	        MOVEM A,HLOCSV# ;SAVE HLOC OF LUD ENTRY
  1625	002144'	260740	012176'	        PUSHJ P,GANIN   ;&####INPUT NEW GAN (THREE BYTES)
  1626	002145'	202300	023000'	        MOVEM N,GAN
  1627	002146'	260740	000526'		PUSHJ P,GETLUD
  1628	002147'	260740	001112'		PUSHJ P,SETDEX
  1629	002150'	260740	000622'		PUSHJ P,NOTFND
  1630	002151'	070740	000000		CLOSE DSK,
  1631	002152'	260740	013362'		PUSHJ P,CHKINF
  1632	002153'	260740	000540'	        PUSHJ P,GETDUL
  1633	002154'	200040	022037'	        MOVE A,LPPN
  1634	002155'	260740	001252'	        PUSHJ P,DULDEL  ;DUL ENTRY REMOVED
  1635	002156'	260740	002175'	        PUSHJ P,RENUFD  ;UFD ENTRY RENAMED
  1636	002157'	255000	000000	         JFCL
  1637	002160'	260740	000516'	        PUSHJ P,GETSYS
  1638	002161'	200040	023003'	        MOVE A,HLOCSV
  1639	002162'	202040	023002'	        MOVEM A,HLOC
  1640	002163'	260740	000526'	        PUSHJ P,GETLUD
  1641	002164'	260740	001112'	        PUSHJ P,SETDEX
  1642	002165'	260740	000622'	        PUSHJ P,NOTFND
  1643	002166'	200040	022037'	        MOVE A,LPPN
  1644	002167'	504040	023000'	        HRL A,GAN
  1645	002170'	202040	022037'	        MOVEM A,LPPN
  1646	002171'	202052	022100'	        MOVEM A,LUDBLK(INDEX)
  1647	002172'	260740	001554'	        PUSHJ P,ORGSAV
  1648	002173'	660000	000004	        TRO    F,ADDDUL
  1649	002174'	254000	001043'	        JRST DIDIT      ;DUL ENTRY ADDED & LUD ENTRY CHANGED
  1650
  1651	002175'	071540	000000	RENUFD: RELEASE DFIL,
UPDLUD - ACCTG., LUD UPDATER	MACRO 12.5-46.0 17:15 19-SEP-89 PAGE 35-2
UPDLUD.MAC	24-MAY-89 18:55		CODE 11 - CHANGE USER TIME ZONE IN THE LUD

  1652	002176'	260740	001371'	        PUSHJ P,FINUFD
  1653	002177'	254000	001366'	         JRST DERR      ;COUDN'T OPEN UFD FILE
  1654	002200'	263740	000000	        POPJ P,0        ;COULDN'T FIND A UFD FOR THIS USER
  1655	002201'	200300	022037'	        MOVE N,LPPN     ;FOUND THE UFD, NOW RENAME IT
  1656	002202'	504300	023000'	        HRL N,GAN
  1657	002203'	202300	020263'	        MOVEM N,UFDFIL
  1658	002204'	515300	654644	        HRLZI N,(SIXBIT/UFD/)
  1659	002205'	202300	020264'	        MOVEM N,UFDFIL+1
  1660	002206'	402000	020265'	        SETZM UFDFIL+2
  1661	002207'	200300	020261'	        MOVE N,UFDPPN
  1662	002210'	202300	020266'	        MOVEM N,UFDFIL+3
  1663	002211'	055540	020263'	        RENAME UFD,UFDFIL
  1664	002212'	254000	001366'	         JRST DERR
  1665	002213'	201100	000007	        MOVEI B,7       ;UNLOCK
  1666	002214'	200200	020263'	        MOVE D,UFDFIL
  1667	002215'	260740	001444'	        PUSHJ P,LETGO1
  1668	002216'	350017	000000	        AOS (P)
  1669	002217'	263740	000000	        POPJ P,0
UPDLUD - ACCTG., LUD UPDATER	MACRO 12.5-46.0 17:15 19-SEP-89 PAGE 36
UPDLUD.MAC	24-MAY-89 18:55		CODE 20 - LIST LUD ENTRY

  1670				SUBTTL CODE 20 - LIST LUD ENTRY
  1671
  1672				;&.SKIP 2
  1673				;&CODE 20: LIST USER LUD ENTRY
  1674	002220'	260740	012212'	LISLUD:	PUSHJ P,USERCM	;&####INPUT USER NAME (TWELVE BYTES)
  1675	002221'	260740	000622'		PUSHJ P,NOTFND
  1676	002222'	260740	013540'		PUSHJ P,SENDOK	;&####ANSWER 1 (IF FOUND), 3 (IF NOT FOUND) OR ERROR
  1677	002223'	200312	022100'		MOVE N,LUDBLK(INDEX)
  1678	002224'	202300	023047'		MOVEM N,WD#
  1679	002225'	260740	011414'		PUSHJ P,PPNOUT	;&####OUTPUT PPN (SIX BYTES)
  1680	002226'	135300	020344'		LDB N,DISBP
  1681	002227'	260740	015242'		PUSHJ P,CRLF
  1682	002230'	661000	001000		TLO F,NOCR
  1683	002231'	260740	011516'		PUSHJ P,DISOUT	;&####OUTPUT DISTRICT (ONE BYTE)
  1684	002232'	260740	011420'		PUSHJ P,PBOUT	;&####OUTPUT PRIVILEGE BITS (SEE BELOW)
  1685	002233'	260740	015242'		PUSHJ P,CRLF
  1686	002234'	260740	011570'		PUSHJ P,LZONOUT	;&####OUTPUT TIME ZONE (ONE BYTE)
  1687	002235'	260740	011615'		PUSHJ P,STROUT	;&####OUTPUT QUOTAS (SIX BYTES)
  1688	002236'	071740	000000		RELEASE DSK,
  1689	002237'	254000	000137'		JRST LUDUP1
UPDLUD - ACCTG., LUD UPDATER	MACRO 12.5-46.0 17:15 19-SEP-89 PAGE 37
UPDLUD.MAC	24-MAY-89 18:55		CODE 21 - LIST ALL USERS FOR A PROJECT

  1690				SUBTTL CODE 21 - LIST ALL USERS FOR A PROJECT
  1691
  1692				;&.SKIP 2
  1693				;&CODE 21: LIST ALL LUD USERS FOR A GAN
  1694	002240'	260740	012212'	LISGAN:	PUSHJ P,USERCM	;&####INPUT USER NAME (TWELVE BYTES)
  1695	002241'	260740	000622'		PUSHJ P,NOTFND
  1696	002242'	260740	013540'		PUSHJ P,SENDOK	;&####ANSWER 1 (IF FOUND), 3 (IF NOT FOUND) OR ERROR
  1697	002243'	554312	022100'		HLRZ N,LUDBLK(INDEX)
  1698	002244'	516300	023000'		HRLZM N,GAN	;SAVE GAN
  1699	002245'	260740	011564'		PUSHJ P,GANOUT	;&####FIRST OUTPUT THE GAN (THREE BYTES)
  1700							;&####THEN FOR EACH USER, OUTPUT:
  1701	002246'	260740	002253'		PUSHJ P,NGANIN	;INITIALIZE READING THRU DUL
  1702	002247'	260740	002275'	NXT:	PUSHJ P,NXTGAN	;GET NEXT GAN
  1703					JRST [CLOSE DSK1,
  1704						PUSHJ P,SENDEND
  1705	002250'	254000	023214'			JRST LUDUP1]
  1706	002251'	260740	002314'		PUSHJ P,INFOUT
  1707	002252'	254000	002247'		JRST NXT
UPDLUD - ACCTG., LUD UPDATER	MACRO 12.5-46.0 17:15 19-SEP-89 PAGE 38
UPDLUD.MAC	24-MAY-89 18:55		CODE 21 - LIST ALL USERS FOR A PROJECT

  1708				;INITIALIZE READING THRU DUL SEARCHING FOR GANS
  1709	002253'	041640	000017	NGANIN:	INIT DSK1,17
  1710	002254'	637163	000000	TST2:	SIXBIT /SYS/
  1711				;TST2:	SIXBIT /DSK/
  1712	002255'	000000	000000		0
  1713	002256'	254000	000664'		JRST INIERR
  1714	002257'	076640	020404'		LOOKUP DSK1,DULLOK
  1715	002260'	260740	000666'		PUSHJ P,LEERR
  1716	002261'	260740	002264'		PUSHJ P,RDBLK
  1717	002262'	255000	000000		 JFCL
  1718	002263'	263740	000000		POPJ P,0
  1719
  1720	002264'	066640	020414'	RDBLK:	INPUT DSK1,DULLST
  1721	002265'	063640	020000		STATZ DSK1,20000
  1722					JRST [CLOSE DSK1,
  1723	002266'	254000	023217'			POPJ P,0]
  1724	002267'	063640	760000		STATZ DSK1,760000
  1725	002270'	260740	000670'		PUSHJ P,IOERR
  1726	002271'	211040	000003		MOVNI A,3
  1727	002272'	202040	023001'		MOVEM A,GANDEX#
  1728	002273'	350017	000000		AOS (P)
  1729	002274'	263740	000000		POPJ P,0
  1730
  1731	002275'	200140	023001'	NXTGAN:	MOVE C,GANDEX
  1732	002276'	271140	000003		ADDI C,3
  1733	002277'	202140	023001'		MOVEM C,GANDEX
  1734	002300'	337103	022414'		SKIPG B,DULBLK(C)
  1735					JRST [PUSHJ P,RDBLK
  1736						POPJ P,0
  1737	002301'	254000	023221'			JRST NXTGAN]
  1738	002302'	510100	000002		HLLZ B,B
  1739	002303'	312100	023000'		CAME B,GAN
  1740	002304'	254000	002275'		JRST NXTGAN
  1741	002305'	200303	022415'		MOVE N,DULBLK+1(C)
  1742	002306'	200343	022416'		MOVE N1,DULBLK+2(C)
  1743	002307'	260740	012215'		PUSHJ P,USERCM+3
  1744	002310'	254000	002275'		JRST NXTGAN
  1745	002311'	200140	023001'		MOVE C,GANDEX
  1746	002312'	350017	000000		AOS (P)
  1747	002313'	263740	000000		POPJ P,0
UPDLUD - ACCTG., LUD UPDATER	MACRO 12.5-46.0 17:15 19-SEP-89 PAGE 39
UPDLUD.MAC	24-MAY-89 18:55		CODE 21 - LIST ALL USERS FOR A PROJECT

  1748	002314'	260740	015242'	INFOUT:	PUSHJ P,CRLF
  1749	002315'	200640	020343'		MOVE BP,NAMPTR
  1750	002316'	260740	011761'		PUSHJ P,NAMOUT+1	;&####OUTPUT USER NAME (TWELVE BYTES)
  1751	002317'	603000	000100		TLNE F,NAMESO
  1752	002320'	263740	000000		POPJ P,0
  1753	002321'	602000	000010		TRNE F,TTYOUT
  1754	002322'	051140	020023'		OUTSTR MUUN
  1755	002323'	550312	022100'		HRRZ N,LUDBLK(INDEX)
  1756	002324'	661000	000010		TLO F,OCTINF
  1757	002325'	260740	015151'		PUSHJ P,NUMOUT	;&####OUTPUT UUN (THREE BYTES)
  1758	002326'	260740	011420'		PUSHJ P,PBOUT	;&####OUTPUT PRIVILEGE BITS (SEE BELOW)
  1759	002327'	260740	015242'		PUSHJ P,CRLF
  1760	002330'	260740	011570'		PUSHJ P,LZONOUT	;&####OUTPUT TIME ZONE (ONE BYTE)
  1761	002331'	254000	011615'		JRST STROUT	;&####OUTPUT QUOTAS (SIX BYTES)
  1762							;&####END WITH 377B
UPDLUD - ACCTG., LUD UPDATER	MACRO 12.5-46.0 17:15 19-SEP-89 PAGE 40
UPDLUD.MAC	24-MAY-89 18:55		CODE 22 - CHECK USER'S NAME IN LUD

  1763				SUBTTL CODE 22 - CHECK USER'S NAME IN LUD
  1764
  1765				;&.SKIP 2
  1766				;&CODE 22: CHECK USER'S NAME IN THE LUD
  1767	002332'	260740	012212'	CKNAME:	PUSHJ P,USERCM	;&####INPUT USER NAME (TWELVE BYTES)
  1768	002333'	260740	000622'		PUSHJ P,NOTFND
  1769	002334'	254000	001070'		JRST DIDIT3	;&####ANSWER 1 (IF FOUND), 3 (IF NOT FOUND) OR ERROR
  1770
  1771
  1772
  1773				;&.SKIP 2
  1774				;&CODE 23: MOVE USERS - LIST LUD INFORMATION
  1775	002335'	260740	012212'	MULLUD:	PUSHJ P,USERCM	;&####INPUT USERNAME (12 BYTES)
  1776	002336'	260740	000622'		PUSHJ P,NOTFND
  1777	002337'	260740	013540'		PUSHJ P,SENDOK	;&####ANSWER 1 (IF FOUND), 3 (IF NOT), OR ERROR
  1778	002340'	200312	022100'		MOVE N,LUDBLK(INDEX)
  1779	002341'	202300	023047'		MOVEM N,WD
  1780	002342'	260740	011414'		PUSHJ P,PPNOUT	;&####OUTPUT PPN (SIX BYTES)
  1781	002343'	260740	015242'		PUSHJ P,CRLF
  1782	002344'	135300	020344'		LDB N,DISBP
  1783	002345'	260740	011516'		PUSHJ P,DISOUT	;&####OUTPUT DISTRICT (ONE BYTE)
  1784	002346'	260740	012107'		PUSHJ P,MISOUT	;&####OUTPUT MISCELLANEOUS BITS (ONE BYTE)
  1785	002347'	603000	002000		TLNE F,TRUF
  1786	002350'	260740	012121'		PUSHJ P,BUDOUT	;&####IF TRU BIT ON, OUTPUT BUDGET (THREE BYTES)
  1787	002351'	603000	000400		TLNE F,INITF
  1788	002352'	260740	012127'		PUSHJ P,INIOUT	;&####IF INIT FILE, OUTPUT USER NAME (TWELVE BYTES)
  1789	002353'	200312	022103'		MOVE N,LUDBLK+3(INDEX)	;&#######AND FILE NAME (SIX BYTES)
  1790
  1791	002354'	202300	023047'		MOVEM N,WD
  1792	002355'	606000	000010		TRNN F,TTYOUT
  1793					JRST [HLRZ N,WD
  1794						PUSHJ P,NUMOUT
  1795						HRRZ N,WD
  1796						PUSHJ P,NUMOUT
  1797	002356'	254000	023224'			JRST MULUD1]
  1798	002357'	051140	020151'		OUTSTR MPRIV
  1799	002360'	260740	011503'		PUSHJ P,HALVOT	;&####OUTPUT PRIVILEGE WORD (SIX BYTES)
  1800	002361'	260740	015242'		PUSHJ P,CRLF
  1801	002362'	260740	011615'	MULUD1:	PUSHJ P,STROUT	;&####OUTPUT QUOTAS (SIX BYTES)
  1802	002363'	071740	000000		RELEASE DSK,
  1803	002364'	254000	000137'		JRST LUDUP1
UPDLUD - ACCTG., LUD UPDATER	MACRO 12.5-46.0 17:15 19-SEP-89 PAGE 41
UPDLUD.MAC	24-MAY-89 18:55		CODE 24 - MOVE USERS ADD LUD INFORMATION

  1804				SUBTTL CODE 24 - MOVE USERS ADD LUD INFORMATION
  1805
  1806				;&.SKIP 2
  1807				;&CODE 24: MOVE USERS - ADD LUD INFORMATION
  1808	002365'	260740	012212'	MUALUD:	PUSHJ P,USERCM	;&####INPUT USER NAME (TWELVE BYTES)
  1809	002366'	334000	000000		SKIPA
  1810	002367'	260740	000620'		PUSHJ P,FND
  1811	002370'	201300	000010		MOVEI N,^D8
  1812	002371'	202300	022053'		MOVEM N,SIZE	;SAVE SIZE OF MINIMUM ENTRY
  1813	002372'	260740	012157'		PUSHJ P,USERIN	;&####INPUT GAN, UUN (THREE BYTES EACH)
  1814	002373'	260740	012436'		PUSHJ P,GETDIS	;&####INPUT DISTRICT (ONE BYTE)
  1815	002374'	260740	013165'		PUSHJ P,GETMIS	;&####INPUT MISCELLANEOUS BITS (ONE BYTE)
  1816	002375'	135040	023231'		LDB A,[POINT 1,MISC,4]	;BUDGET FOR THIS USER?
  1817	002376'	322040	002400'		JUMPE A,.+2
  1818					PUSHJ P,[TLO F,TRUF
  1819						PUSHJ P,GETBUD	;&####IF TRU BIT ON, INPUT BUDGET (THREE BYTES)
  1820						AOS SIZE	;COUNT BUDGET WORD
  1821	002377'	260740	023232'			POPJ P,0]
  1822	002400'	135040	023236'		LDB A,[POINT 1,MISC,27] ;INIT FILE?
  1823	002401'	322040	002403'		JUMPE A,.+2
  1824					PUSHJ P,[TLO F,INITF
  1825						PUSHJ P,GETINI	;&####IF INIT FILE, INPUT USER NAME (TWELVE BYTES)
  1826								;&#######AND FILE NAME (SIX BYTES)
  1827						AOS SIZE	;COUNT INIT INFORMATION
  1828						AOS SIZE
  1829						AOS SIZE
  1830	002402'	260740	023237'			POPJ P,0]
  1831	002403'	602000	000010		TRNE F,TTYOUT
  1832	002404'	051140	020154'		OUTSTR MPRIV1
  1833	002405'	661000	000010		TLO F,OCTINF
  1834	002406'	260740	015071'		PUSHJ P,GETNUM	;&####INPUT PRIVILEGE WORD (SIX BYTES)
  1835	002407'	516300	022042'		HRLZM N,PRIV
  1836	002410'	602000	000010		TRNE F,TTYOUT
  1837	002411'	051140	020162'		OUTSTR MPRIV2
  1838	002412'	661000	000010		TLO F,OCTINF
  1839	002413'	260740	015071'		PUSHJ P,GETNUM
  1840	002414'	542300	022042'		HRRM N,PRIV
  1841	002415'	260740	013105'		PUSHJ P,GETSTR	;&####INPUT QUOTAS (SIX BYTES)
  1842	002416'	260740	013362'		PUSHJ P,CHKINF
  1843	002417'	260740	000526'		PUSHJ P,GETLUD
  1844	002420'	260740	001112'		PUSHJ P,SETDEX
  1845	002421'	334000	000000		SKIPA
  1846	002422'	260740	000620'		PUSHJ P,FND
  1847	002423'	200300	022053'		MOVE N,SIZE
  1848	002424'	260740	013431'		PUSHJ P,GETFRE
  1849	002425'	272300	022041'		ADDM N,MISC	;SAVE SIZE OF ENTRY
  1850	002426'	200040	023245'		MOVE A,[XWD LPPN,LUDBLK]
  1851	002427'	270040	000012		ADD A,INDEX
  1852	002430'	550100	000001		HRRZ B,A
  1853	002431'	271100	000003		ADDI B,3
  1854	002432'	251060	000002		BLT A,@B
  1855	002433'	200040	022043'		MOVE A,HUNAME
  1856	002434'	202052	022104'		MOVEM A,LUDBLK+4(INDEX) ;SAVE HASHED USER NAME
UPDLUD - ACCTG., LUD UPDATER	MACRO 12.5-46.0 17:15 19-SEP-89 PAGE 41-2
UPDLUD.MAC	24-MAY-89 18:55		CODE 24 - MOVE USERS ADD LUD INFORMATION

  1857	002435'	261740	000012		PUSH P,INDEX
  1858	002436'	603000	002000		TLNE F,TRUF
  1859					PUSHJ P,[MOVE N,BUDGET
  1860						MOVEM N,LUDBLK+5(INDEX)
  1861						AOJ INDEX,
  1862	002437'	260740	023246'			POPJ P,0]
  1863	002440'	603000	000400		TLNE F,INITF
  1864					PUSHJ P,[MOVE A,[XWD INIFIL,LUDBLK+5]
  1865						ADD A,INDEX
  1866						HRRZ B,A
  1867						ADDI B,3
  1868						BLT A,@B
  1869						ADDI INDEX,3
  1870	002441'	260740	023253'			POPJ P,0]
  1871	002442'	200040	023262'		MOVE A,[XWD STR,LUDBLK+5]
  1872	002443'	270040	000012		ADD A,INDEX
  1873	002444'	550100	000001		HRRZ B,A
  1874	002445'	271100	000002		ADDI B,2
  1875	002446'	251060	000002		BLT A,@B
  1876	002447'	262740	000012		POP P,INDEX
  1877	002450'	260740	001554'		PUSHJ P,ORGSAV
  1878	002451'	660000	000004		TRO F,ADDDUL
  1879	002452'	254000	001043'		JRST DIDIT
UPDLUD - ACCTG., LUD UPDATER	MACRO 12.5-46.0 17:15 19-SEP-89 PAGE 42
UPDLUD.MAC	24-MAY-89 18:55		CODE 25 - DELETE ALL USERS FOR AN ACCOUNT

  1880				SUBTTL CODE 25 - DELETE ALL USERS FOR AN ACCOUNT
  1881
  1882				;&.SKIP 2
  1883				;&CODE 25: DELETE ALL USERS FOR AN ACCOUNT FROM THE LUD
  1884	002453'	260740	012176'	DELGAN:	PUSHJ P,GANIN	;&####INPUT GAN (THREE BYTES)
  1885	002454'	516300	023000'		HRLZM N,GAN#
  1886	002455'	260740	002253'		PUSHJ P,NGANIN	;INITIALIZE SEARCH
  1887	002456'	260740	013540'		PUSHJ P,SENDOK	;&####ANSWER 1 (IF NO ERRORS) OR AN ERROR
  1888	002457'	260740	002275'	DELNXT:	PUSHJ P,NXTGAN
  1889					JRST [CLOSE DSK1,
  1890						PUSHJ P,SENDEND	;&####FOR EACH USER DELETED, OUTPUT:
  1891	002460'	254000	023214'			JRST LUDUP1]
  1892	002461'	260740	015242'		PUSHJ P,CRLF
  1893	002462'	200640	020343'		MOVE BP,NAMPTR
  1894	002463'	260740	011761'		PUSHJ P,NAMOUT+1	;&####USER NAME (TWELVE BYTES)
  1895	002464'	200312	022100'		MOVE N,LUDBLK(INDEX)	;&####PPN (SIX BYTES)
  1896	002465'	202300	023047'		MOVEM N,WD
  1897	002466'	260740	011414'		PUSHJ P,PPNOUT
  1898	002467'	260740	015242'		PUSHJ P,CRLF
  1899	002470'	260740	001227'		PUSHJ P,DELIT
  1900	002471'	260740	013540'		PUSHJ P,SENDOK		;&####1 OR ERROR CODE
  1901	002472'	254000	002457'		JRST DELNXT	;&####END WITH 377B
  1902
  1903
  1904				;&.SKIP 2
  1905				;&CODE 26: LIST ALL USERS FOR A PROJECT (NAME ONLY)
  1906	002473'	661000	000100	LSGANN:	TLO F,NAMESO	;SET FLAG
  1907	002474'	254000	002240'		JRST LISGAN	;AND GO OUTPUT INFORMATION
  1908				;&####INPUT IS THE SAME AS CODE 21
  1909				;&####OUTPUT IS THE SAME AS CODE 21 EXCEPT ONLY THE NAME IS OUTPUT
UPDLUD - ACCTG., LUD UPDATER	MACRO 12.5-46.0 17:15 19-SEP-89 PAGE 43
UPDLUD.MAC	24-MAY-89 18:55		CODE 27 - LIST VALID HOSTS <= 200 AND THEIR AST'S

  1910				SUBTTL CODE 27 - LIST VALID HOSTS <= 200 AND THEIR AST'S
  1911
  1912				;&.SKIP 2
  1913				;&CODE 27: LIST ALL VALID HOSTS <= 200 AND THEIR AST'S
  1914				;&##FOR EACH VALID HOST NUMBER <= 200
  1915	002475'	400500	000000	LISHST:	SETZ INDEX,	;INIT INDEX
  1916	002476'	211300	000310		MOVNI N,MXTHST	;NUMBER OF HOSTS TO CHECK
  1917	002477'	336052	013664'		SKIPN A,HSTLST(INDEX)	;FOUND A VALID HOST?
  1918	002500'	254000	002512'		JRST NLHST	;NO, GO CHECK NEXT ONE
  1919	002501'	261740	000006		PUSH P,N
  1920	002502'	261740	000001		PUSH P,A
  1921	002503'	200300	000012		MOVE N,INDEX	;&####OUTPUT HOST NUMBER (1 BYTE)
  1922	002504'	260740	015146'		PUSHJ P,ONEOUT
  1923	002505'	260740	015247'		PUSHJ P,SPAOUT
  1924	002506'	262740	000006		POP P,N	;&####OUTPUT AST (1 BYTE)
  1925	002507'	260740	015146'		PUSHJ P,ONEOUT
  1926	002510'	260740	015242'		PUSHJ P,CRLF
  1927	002511'	262740	000006		POP P,N
  1928	002512'	340500	000000	NLHST:	AOJ INDEX,
  1929	002513'	341300	002477'		AOJL N,LISHST+2
  1930	002514'	260740	013530'		PUSHJ P,SENDEND	;OUTPUT 377 (1 BYTE)
  1931	002515'	254000	000137'		JRST LUDUP1
UPDLUD - ACCTG., LUD UPDATER	MACRO 12.5-46.0 17:15 19-SEP-89 PAGE 44
UPDLUD.MAC	24-MAY-89 18:55		CODE 30 - NEW CUSTOMER

  1932				SUBTTL CODE 30 - NEW CUSTOMER
  1933				;&.SKIP 2
  1934				;&CODE 30: NEW CUSTOMER
  1935	002516'	260740	012242'	NEWCUS:	PUSHJ P,CUSTIN	;&####INPUT CUSTOMER NUMBER (THREE BYTES)
  1936	002517'	202300	022025'		MOVEM N,SAVORG+OCUST	;SAVE CUSTOMER NUMBER
  1937	002520'	260740	012257'		PUSHJ P,ASYSIN	;&####INPUT ACCOUNTING SYSTEM TYPE (ONE BYTE)
  1938	002521'	202300	022026'		MOVEM N,SAVORG+OAST
  1939	002522'	260740	015503'		PUSHJ P,CFIND
  1940	002523'	334000	000000		SKIPA
  1941	002524'	260740	000620'		PUSHJ P,FND
  1942	002525'	200040	022026'		MOVE A,SAVORG+OAST
  1943	002526'	302040	000011		CAIE A,ASTIII
  1944	002527'	254000	002545'		JRST NWCS1
  1945	002530'	266700	000000*		JSA 16,DBFIND
  1946	002531'	320000	022722'		ARG TCCNUM
  1947	002532'	320000	022707'		ARG EQUALS
  1948	002533'	320000	021514'		ARG CINFO+NCUSNUM
  1949	002534'	320000	022711'		ARG X22AND
  1950	002535'	320000	022732'		ARG TCSTP
  1951	002536'	320000	022707'		ARG EQUALS
  1952	002537'	320000	022706'		ARG NSTOP
  1953	002540'	266700	000000*		JSA 16,DBNREC
  1954	002541'	320000	023021'		ARG NUMRET
  1955	002542'	200000	023033'		MOVE F,SAVF
  1956	002543'	332000	023021'		SKIPE NUMRET
  1957	002544'	260740	000647'		PUSHJ P,BADCUS
  1958	002545'	202000	023033'	NWCS1:	MOVEM F,SAVF
  1959	002546'	266700	000245*		JSA 16,DBCLOS
  1960	002547'	200000	023033'		MOVE F,SAVF
  1961	002550'	260740	015564'		PUSHJ P,AFIND
  1962	002551'	334000	000000		SKIPA
  1963	002552'	661000	010000		TLO F,DELADD	;SET FLAG TO DELETE ADDRESS
  1964	002553'	260740	012664'		PUSHJ P,GETNAM	;&####INPUT CUSTOMER NAME (51 BYTES)
  1965	002554'	260740	012436'		PUSHJ P,GETDIS	;&####INPUT CUSTOMER DISTRICT (ONE BYTE)
  1966	002555'	260740	012544'		PUSHJ P,GETDET	;&####INPUT CUSTOMER DETAIL CODE (TWO BYTES)
  1967	002556'	260740	013035'		PUSHJ P,GSTINV	;&####INPUT CUSTOMER INVOICE CODE (2 BYTES)
  1968	002557'	260740	012557'		PUSHJ P,GETMIN	;&####INPUT CUSTOMER MINIMUM CODE (ONE BYTE)
  1969	002560'	260740	013063'		PUSHJ P,GETSLS	;&####INPUT SALESMAN (ONE BYTE)
  1970	002561'	260740	012572'		PUSHJ P,GETPO	;&####INPUT PO NUMBER (THIRTY BYTES)
  1971	002562'	260740	013001'		PUSHJ P,GETPMX	;&####INPUT PO MAXIMUM (THREE BYTES)
  1972	002563'	260740	013013'		PUSHJ P,GETPD1	;&####INPUT PO START DATE (THREE BYTES-YYMMDD)
  1973	002564'	260740	013023'		PUSHJ P,GETPD2	;&####INPUT PO STOP DATE (THREE BYTES-YYMMDD)
  1974	002565'	260740	012502'		PUSHJ P,GETVPF	;&####INPUT VARIABLE PRICING FLAG (ONE BYTE)
  1975	002566'	260740	012511'		PUSHJ P,GETDPR  ;&####INPUT DEFAULT PRICING CODE (TWO BYTES)
  1976	002567'	260740	012716'		PUSHJ P,GETADD	;&####INPUT CUSTOMER ADDRESS (SEE BELOW)
  1977	002570'	260740	012453'	        PUSHJ P,COCOIN  ;&####INPUT COST CODE (THREE BYTES)
  1978	002571'	260740	013362'		PUSHJ P,CHKINF
  1979	002572'	260740	014703'		PUSHJ P,GETTOD	;GET TODAY'S DATE
  1980	002573'	202300	021517'		MOVEM N,CINFO+NCDSTART
  1981	002574'	200300	022706'		MOVE N,NSTOP	;NULL STOP DATE
  1982	002575'	202300	021520'		MOVEM N,CINFO+NCDSTOP
  1983	002576'	202300	021544'	        MOVEM N,CINFO+NANNDT
  1984	002577'	623000	010000		TLZE F,DELADD
UPDLUD - ACCTG., LUD UPDATER	MACRO 12.5-46.0 17:15 19-SEP-89 PAGE 44-2
UPDLUD.MAC	24-MAY-89 18:55		CODE 30 - NEW CUSTOMER

  1985					PUSHJ P,[JSA 16,DBDEL
  1986						MOVE F,SAVF
  1987	002600'	260740	023263'			POPJ P,0]
  1988	002601'	201040	021545'		MOVEI A,AINFO
  1989	002602'	260740	011372'		PUSHJ P,ADDIT
  1990	002603'	266700	002546*		JSA 16,DBCLOS
  1991	002604'	200000	023033'		MOVE F,SAVF
  1992	002605'	260740	015354'		PUSHJ P,CINIT
  1993	002606'	201040	021514'		MOVEI A,CINFO
  1994	002607'	260740	011372'		PUSHJ P,ADDIT
  1995	002610'	254000	003157'		JRST CHEND
UPDLUD - ACCTG., LUD UPDATER	MACRO 12.5-46.0 17:15 19-SEP-89 PAGE 46
UPDLUD.MAC	24-MAY-89 18:55		SET UP FOR UPDATES

  1996				SUBTTL SET UP FOR UPDATES
  1997
  1998				;CUSTDB UPDATE
  1999	002611'	261740	000001	SCUPD:	PUSH P,A	;SAVE CODE
  2000	002612'	260740	012242'		PUSHJ P,CUSTIN
  2001	002613'	260740	012257'		PUSHJ P,ASYSIN
  2002	002614'	260740	015503'		PUSHJ P,CFIND
  2003	002615'	260740	000622'		PUSHJ P,NOTFND
  2004	002616'	660000	000040		TRO F,NEWF
  2005	002617'	262740	000001		POP P,A
  2006	002620'	263740	000000		POPJ P,0
  2007
  2008				;USERDB UPDATE
  2009	002621'	261740	000001	SUSUPD:	PUSH P,A
  2010	002622'	260740	012160'		PUSHJ P,UUNIN
  2011	002623'	260740	015424'		PUSHJ P,UFIND
  2012	002624'	260740	000622'		PUSHJ P,NOTFND
  2013	002625'	660000	000040		TRO F,NEWF
  2014	002626'	262740	000001		POP P,A
  2015	002627'	263740	000000		POPJ P,0
  2016
  2017				;ADDRDB UPDATE
  2018	002630'	261740	000001	SADUPD:	PUSH P,A
  2019	002631'	260740	012242'		PUSHJ P,CUSTIN
  2020	002632'	260740	012257'		PUSHJ P,ASYSIN
  2021	002633'	260740	015564'		PUSHJ P,AFIND
  2022	002634'	260740	000702'		PUSHJ P,NOADDR
  2023	002635'	660000	000040		TRO F,NEWF
  2024	002636'	262740	000001		POP P,A
  2025	002637'	263740	000000		POPJ P,0
  2026
  2027				;USYSDB UPDATE
  2028	002640'	261740	000001	SSYSUPD:	PUSH P,A
  2029	002641'	260740	012160'		PUSHJ P,UUNIN
  2030	002642'	260740	012257'		PUSHJ P,ASYSIN
  2031	002643'	260740	015452'		PUSHJ P,USFIND
  2032	002644'	260740	000622'		PUSHJ P,NOTFND
  2033	002645'	660000	000040		TRO F,NEWF
  2034	002646'	262740	000001		POP P,A
  2035	002647'	263740	000000		POPJ P,0
UPDLUD - ACCTG., LUD UPDATER	MACRO 12.5-46.0 17:15 19-SEP-89 PAGE 47
UPDLUD.MAC	24-MAY-89 18:55		CODE 31 - CHANGE CUSTOMER'S DISTRICT

  2036				SUBTTL CODE 31 - CHANGE CUSTOMER'S DISTRICT
  2037
  2038				;&.SKIP 2
  2039				;&CODE 31: CHANGE CUSTOMER'S DISTRICT
  2040				;&####INPUT CUSTOMER NUMBER (THREE BYTES)
  2041				;&####INPUT ACCOUNTING SYSTEM TYPE (ONE BYTE)
  2042	002650'	260740	012436'	CHCDIS:	PUSHJ P,GETDIS	;&####INPUT NEW DISTRICT (ONE BYTE)
  2043				        ;SETZM CINFO+NCCOST      ;ZERO THE COSTCODE IN NEW RECORD
  2044	002651'	254000	002652'		JRST NEWCRC	;CREATE A NEW RECORD
UPDLUD - ACCTG., LUD UPDATER	MACRO 12.5-46.0 17:15 19-SEP-89 PAGE 48
UPDLUD.MAC	24-MAY-89 18:55		CREATE A NEW RECORD FOR THIS CHANGE

  2045				SUBTTL CREATE A NEW RECORD FOR THIS CHANGE
  2046
  2047				;CREATE A NEW CUSTOMER RECORD
  2048	002652'	260740	013362'	NEWCRC:	PUSHJ P,CHKINF
  2049	002653'	260740	002655'		PUSHJ P,MKNCUS
  2050	002654'	254000	003157'		JRST CHEND
  2051
  2052	002655'	260740	014703'	MKNCUS:	PUSHJ P,GETTOD	;GET TODAY'S DATE
  2053	002656'	202300	021520'		MOVEM N,CINFO+NCDSTOP
  2054	002657'	201040	022732'		MOVEI A,TCSTP
  2055	002660'	201100	021520'		MOVEI B,CINFO+NCDSTOP
  2056	002661'	260740	011402'		PUSHJ P,CHGIT
  2057	002662'	260740	014713'		PUSHJ P,GETTOM
  2058	002663'	202300	021517'		MOVEM N,CINFO+NCDSTART
  2059	002664'	200300	022706'		MOVE N,NSTOP	;NULL STOP DATE
  2060	002665'	202300	021520'		MOVEM N,CINFO+NCDSTOP
  2061	002666'	201040	021514'		MOVEI A,CINFO
  2062	002667'	260740	011372'		PUSHJ P,ADDIT
  2063	002670'	263740	000000		POPJ P,0
  2064
  2065				;CREATE A NEW USER RECORD
  2066	002671'	260740	013362'	NEWURC:	PUSHJ P,CHKINF
  2067	002672'	260740	002674'		PUSHJ P,MKNUSR
  2068	002673'	254000	003157'		JRST CHEND
  2069
  2070	002674'	260740	014703'	MKNUSR:	PUSHJ P,GETTOD
  2071	002675'	202300	021153'		MOVEM N,UINFO+NUSTOP
  2072	002676'	201040	022731'		MOVEI A,TUSTP
  2073	002677'	201100	021153'		MOVEI B,UINFO+NUSTOP
  2074	002700'	260740	011402'		PUSHJ P,CHGIT
  2075	002701'	260740	014713'		PUSHJ P,GETTOM
  2076	002702'	202300	021152'		MOVEM N,UINFO+NUSTART
  2077	002703'	200300	022706'		MOVE N,NSTOP
  2078	002704'	202300	021153'		MOVEM N,UINFO+NUSTOP
  2079	002705'	201040	021141'		MOVEI A,UINFO
  2080	002706'	260740	011372'		PUSHJ P,ADDIT
  2081	002707'	263740	000000		POPJ P,0
UPDLUD - ACCTG., LUD UPDATER	MACRO 12.5-46.0 17:15 19-SEP-89 PAGE 49
UPDLUD.MAC	24-MAY-89 18:55		CREATE A NEW RECORD FOR THIS CHANGE

  2082				;CREATE A NEW USYSDB RECORD
  2083	002710'	260740	013362'	NEWUSRC:	PUSHJ P,CHKINF
  2084	002711'	260740	002713'		PUSHJ P,MKNUS
  2085	002712'	254000	003157'		JRST CHEND
  2086
  2087	002713'	260740	014703'	MKNUS:	PUSHJ P,GETTOD
  2088	002714'	202300	021170'		MOVEM N,USINFO+NSYSTOP
  2089	002715'	201040	022730'		MOVEI A,TUSSTP
  2090	002716'	201100	021170'		MOVEI B,USINFO+NSYSTOP
  2091	002717'	260740	011402'		PUSHJ P,CHGIT
  2092	002720'	260740	014713'		PUSHJ P,GETTOM
  2093	002721'	202300	021167'		MOVEM N,USINFO+NSYSTART
  2094	002722'	200300	022706'		MOVE N,NSTOP
  2095	002723'	202300	021170'		MOVEM N,USINFO+NSYSTOP
  2096	002724'	201040	021160'		MOVEI A,USINFO
  2097	002725'	260740	011372'		PUSHJ P,ADDIT
  2098	002726'	263740	000000		POPJ P,0
  2099
  2100
  2101
  2102
UPDLUD - ACCTG., LUD UPDATER	MACRO 12.5-46.0 17:15 19-SEP-89 PAGE 50
UPDLUD.MAC	24-MAY-89 18:55		CODE 32 - GET CUSTOMER NUMBER

  2103				SUBTTL CODE 32 - GET CUSTOMER NUMBER
  2104				;&.SKIP 2
  2105				;&CODE 32: GET CUSTOMER NUMBER
  2106				;&####OUTPUT CUSTOMER NUMBER (THREE BYTES)
  2107				; This routine read file CID.FIL (only contains one word) to get current
  2108				; cid, increment by 1 then write the new cid back. We use buffer i/o here
  2109				; and will try 6 times with 10 seconds apart when file is busy
  2110
  2111	002727'	202000	023033'	GETCID: MOVEM   F,SAVF
  2112	002730'	201300	000006	        MOVEI   N,6
  2113	002731'	050740	020440'	        OPEN    DSK,OPNBLK
  2114	002732'	254000	000664'	         JRST   INIERR
  2115	002733'	064740	000001	        INBUF   DSK,1
  2116	002734'	065740	000001	        OUTBUF  DSK,1
  2117	002735'	076740	020432'	GECID2: LOOKUP  DSK,FILNAM
  2118	002736'	254000	000666'	         JRST   LEERR                 ; lookup error
  2119	002737'	077740	020432'	        ENTER   DSK,FILNAM
  2120				         JRST   [HRRZ A,FILNAM+3
  2121				                 CAIE A,3             ; file busy
  2122				                  JRST LEERR          ; no, other i/o error
  2123				                 MOVEI A,^D10         ; sleep for 10 sec.
  2124				                 SLEEP A,
  2125				                 SOJG  N,GECID2
  2126	002740'	254000	023266'	                 JRST  FILBZY]
  2127	002741'	056740	000000	L1:     IN      DSK,                  ; read the file
  2128	002742'	254000	002745'	        JRST    L2                    ; normal return
  2129	002743'	070740	000000	        CLOSE   DSK,
  2130	002744'	254000	000666'	        JRST    LEERR                 ; eof or other error
  2131	002745'	375000	020445'	L2:     SOSGE   IBCT
  2132	002746'	254000	002741'	         JRST   L1                    ; should neve been here!
  2133	002747'	134300	020444'	        ILDB    N,IBPTR               ; load in current cid
  2134	002750'	350000	000006	        AOS     N                     ; increment by 1
  2135	002751'	377000	020450'	L3:     SOSG    OBCT
  2136	002752'	254000	002761'	         JRST   L4
  2137	002753'	075740	000001	        USETO   DSK,1                 ; point to the first block of the file
  2138	002754'	136300	020447'	        IDPB    N,OBPTR               ; deposit new cid to the output buffer
  2139	002755'	057740	000000	        OUT     DSK,                  ; write to the file
  2140	002756'	070740	000000	        CLOSE   DSK,
  2141	002757'	071740	000000	        RELEASE DSK,
  2142	002760'	254000	002763'	        JRST    L5
  2143	002761'	057740	000000	L4:     OUT     DSK,                   ; flush output buffer
  2144	002762'	254000	002751'	        JRST    L3
  2145	002763'	202300	022073'	L5:     MOVEM   N,CID                 ; N will be used for other purpose
  2146	002764'	260740	013540'	        PUSHJ   P,SENDOK
  2147	002765'	200300	022073'	        MOVE    N,CID
  2148	002766'	602000	000010	        TRNE    F,TTYOUT
  2149	002767'	051140	017746'	        OUTSTR  MCSTNO
  2150	002770'	260740	015151'	        PUSHJ   P,NUMOUT              ; output cid
  2151	002771'	200000	023033'	        MOVE    F,SAVF
  2152	002772'	254000	000062'	        JRST    INITIA
  2153
  2154
  2155
UPDLUD - ACCTG., LUD UPDATER	MACRO 12.5-46.0 17:15 19-SEP-89 PAGE 50-2
UPDLUD.MAC	24-MAY-89 18:55		CODE 32 - GET CUSTOMER NUMBER

  2156				;&CODE 33: CHANGE CUSTOMER FLAT FOCUS FEE
  2157				;&####INPUT CUSTOMER NUMBER (THREE BYTES)
  2158				;&####INPUT ACCOUNTING SYSTEM TYPE (ONE BYTE)
  2159	002773'	260740	012416'	CHCFFF: PUSHJ P,GETFFF  ;&####INPUT FLAT FOCUS FEE (ONE BYTE)...1=Y,0=N
  2160	002774'	200300	021515'	        MOVE N,CINFO+NCSYSC
  2161	002775'	312300	020334'	        CAME N,THREE    ;SKIP IF ASYSCODE TO CHANGE IS THREE
  2162	002776'	254000	000722'	        JRST ILLAST     ;SEND 'ILLEGAL AST FOR THIS COMD.' MESG
  2163	002777'	260740	013362'	        PUSHJ P,CHKINF
  2164	003000'	260740	002655'	        PUSHJ P,MKNCUS
  2165	003001'	254000	003157'	        JRST CHEND
UPDLUD - ACCTG., LUD UPDATER	MACRO 12.5-46.0 17:15 19-SEP-89 PAGE 51
UPDLUD.MAC	24-MAY-89 18:55		CODE 34 - CHANGE CUSTOMER'S DETAIL CODE

  2166				SUBTTL CODE 34 - CHANGE CUSTOMER'S DETAIL CODE
  2167
  2168				;&.SKIP 2
  2169				;&CODE 34: CHANGE CUSTOMER'S DETAIL CODE
  2170				;&####INPUT CUSTOMER NUMBER (THREE BYTES)
  2171				;&####INPUT ACCOUNTING SYSTEM TYPE (ONE BYTE)
  2172	003002'	260740	012544'	CHDET:	PUSHJ P,GETDET	;&####INPUT NEW DETAIL CODE (TWO BYTES)
  2173	003003'	260740	013362'		PUSHJ P,CHKINF
  2174	003004'	201040	022737'		MOVEI A,TCDETCOD
  2175	003005'	201100	021521'		MOVEI B,CINFO+NCDETC
  2176	003006'	260740	011402'		PUSHJ P,CHGIT
  2177	003007'	254000	003157'		JRST CHEND
  2178
  2179
  2180				;&.SKIP 2
  2181				;&CODE 35: CHANGE CUSTOMER'S INVOICE CODE
  2182				;&####INPUT CUSTOMER NUMBER (THREE BYTES)
  2183				;&####INPUT ACCOUNTING SYSTEM TYPE (ONE BYTE)
  2184	003010'	260740	013035'	CHINV:	PUSHJ P,GSTINV	;&####INPUT NEW INVOICE CODE (TWO BYTES)
  2185	003011'	260740	013362'		PUSHJ P,CHKINF
  2186	003012'	201040	022740'		MOVEI A,TINVCODE
  2187	003013'	201100	021522'		MOVEI B,CINFO+NCINVC
  2188	003014'	260740	011402'		PUSHJ P,CHGIT
  2189	003015'	254000	003157'		JRST CHEND
UPDLUD - ACCTG., LUD UPDATER	MACRO 12.5-46.0 17:15 19-SEP-89 PAGE 52
UPDLUD.MAC	24-MAY-89 18:55		CODE 36 - CHANGE CUST SLS AND ALL USER SLS'S

  2190				SUBTTL CODE 36 - CHANGE CUST SLS AND ALL USER SLS'S
  2191
  2192				;&.SKIP 2
  2193				;&CODE 36: CHANGE CUSTOMER SLS AND ALL USR SLS
  2194				;&####INPUT SAME AS CODE 37
  2195	003016'	260740	013063'	CHASLS:	PUSHJ P,GETSLS
  2196	003017'	260740	013362'		PUSHJ P,CHKINF
  2197	003020'	260740	002655'		PUSHJ P,MKNCUS
  2198	003021'	266700	002603*		JSA 16,DBCLOS
  2199	003022'	266700	000000*		JSA 16,DBOPEN
  2200	003023'	320240	021074'		ARG 5,USERDB
  2201	003024'	320240	021076'		ARG 5,USYSDB
  2202	003025'	260740	005452'		PUSHJ P,GTALL1	;GET ALL USRS FOR THIS CUST
  2203	003026'	266700	000000*		JSA 16,DBMAP
  2204	003027'	320000	020333'		ARG TWO
  2205	003030'	320000	022721'		ARG TUUUN
  2206	003031'	320000	022720'		ARG TUSUUN
  2207	003032'	266700	002530*		JSA 16,DBFIND	;FIND ALL VALID RECORDS FOR THIS AST
  2208	003033'	320000	022704'		ARG LAST
  2209	003034'	320000	022711'		ARG X22AND
  2210	003035'	320000	022730'		ARG TUSSTP
  2211	003036'	320000	022707'		ARG EQUALS
  2212	003037'	320000	022706'		ARG NSTOP
  2213	003040'	320000	022711'		ARG X22AND
  2214	003041'	320000	022735'		ARG TASYSC
  2215	003042'	320000	022707'		ARG EQUALS
  2216	003043'	320000	021161'		ARG USINFO+NUSYSC
  2217	003044'	266700	002540*		JSA 16,DBNREC
  2218	003045'	320000	023022'		ARG NUUNS
  2219	003046'	200000	023033'		MOVE F,SAVF
  2220	003047'	336000	023022'		SKIPN NUUNS
  2221	003050'	254000	001070'		JRST DIDIT3
  2222	003051'	260740	006255'		PUSHJ P,INITMP	;INIT TEMP FILE TO SAVE UUNS
  2223	003052'	266700	000000*	CHSLS1:	JSA 16,DBGET
  2224	003053'	320000	021160'		ARG USINFO
  2225	003054'	320000	003062'		ARG CHSLST
  2226	003055'	200040	021160'		MOVE A,USINFO+NUSUUN
  2227	003056'	202040	021173'		MOVEM A,VINFO+NUSUUN
  2228	003057'	260740	006303'		PUSHJ P,WRTMP
  2229	003060'	372000	023022'		SOSE NUUNS
  2230	003061'	254000	003052'		JRST CHSLS1
  2231	003062'	260740	006317'	CHSLST:	PUSHJ P,CLSTMP
  2232	003063'	260740	006330'	CHSLS2:	PUSHJ P,GETTMP
  2233	003064'	254000	003113'		JRST CHSLS5
  2234	003065'	266700	003032*		JSA 16,DBFIND
  2235	003066'	320000	022720'		ARG TUSUUN
  2236	003067'	320000	022707'		ARG EQUALS
  2237	003070'	320000	021142'		ARG UINFO+NUUN
  2238	003071'	320000	022711'		ARG X22AND
  2239	003072'	320000	022730'		ARG TUSSTP
  2240	003073'	320000	022707'		ARG EQUALS
  2241	003074'	320000	022706'		ARG NSTOP
  2242	003075'	320000	022711'		ARG X22AND
UPDLUD - ACCTG., LUD UPDATER	MACRO 12.5-46.0 17:15 19-SEP-89 PAGE 52-2
UPDLUD.MAC	24-MAY-89 18:55		CODE 36 - CHANGE CUST SLS AND ALL USER SLS'S

  2243	003076'	320000	022735'		ARG TASYSC
  2244	003077'	320000	022707'		ARG EQUALS
  2245	003100'	320000	021161'		ARG USINFO+NUSYSC
  2246	003101'	266700	003052*		JSA 16,DBGET
  2247	003102'	320000	021160'		ARG USINFO
  2248	003103'	320000	003104'		ARG .+1
  2249	003104'	200300	021523'		MOVE N,CINFO+NCSLS
  2250	003105'	316300	021162'		CAMN N,USINFO+NUSLSM
  2251	003106'	254000	003063'		JRST CHSLS2
  2252	003107'	202300	021162'		MOVEM N,USINFO+NUSLSM
  2253	003110'	200000	023033'		MOVE F,SAVF
  2254	003111'	260740	002713'		PUSHJ P,MKNUS
  2255	003112'	254000	003063'		JRST CHSLS2
  2256	003113'	260740	006203'	CHSLS5:	PUSHJ P,DELTMP
  2257	003114'	266700	003021*		JSA 16,DBCLOS
  2258	003115'	266700	003114*		JSA 16,DBCLOS
  2259	003116'	200000	023033'		MOVE F,SAVF
  2260	003117'	254000	001070'		JRST DIDIT3
UPDLUD - ACCTG., LUD UPDATER	MACRO 12.5-46.0 17:15 19-SEP-89 PAGE 53
UPDLUD.MAC	24-MAY-89 18:55		CODE 37 - CHANGE CUSTOMER SALESMAN NUMBER

  2261				SUBTTL CODE 37 - CHANGE CUSTOMER SALESMAN NUMBER
  2262
  2263				;&.SKIP 2
  2264				;&CODE 37: CHANGE CUSTOMER SALESMAN NUMBER
  2265				;&####INPUT CUSTOMER NUMBER (THREE BYTES)
  2266				;&####INPUT ACCOUNTING SYSTEM TYPE (ONE BYTE)
  2267	003120'	260740	013063'	CHPSLS:	PUSHJ P,GETSLS	;&####INPUT NEW SALESMAN NUMBER (ONE BYTE)
  2268	003121'	254000	002652'		JRST NEWCRC
  2269
  2270
  2271				;&.SKIP 2
  2272				;&CODE 40: CHANGE CUSTOMER PO
  2273				;&####INPUT CUSTOMER NUMBER (THREE BYTES)
  2274				;&####INPUT ACCOUNTING SYSTEM TYPE (ONE BYTE)
  2275	003122'	260740	012572'	CHPO:	PUSHJ P,GETPO	;&####INPUT NEW PO (THIRTY BYTES)
  2276	003123'	260740	013362'		PUSHJ P,CHKINF
  2277	003124'	201040	022741'		MOVEI A,TPO
  2278	003125'	201100	021525'		MOVEI B,CINFO+NPO
  2279	003126'	260740	011402'		PUSHJ P,CHGIT
  2280	003127'	254000	003157'		JRST CHEND
UPDLUD - ACCTG., LUD UPDATER	MACRO 12.5-46.0 17:15 19-SEP-89 PAGE 55
UPDLUD.MAC	24-MAY-89 18:55		CODE 41 - CHANGE CUSTOMER PO MAXIMUM

  2281				SUBTTL CODE 41 - CHANGE CUSTOMER PO MAXIMUM
  2282
  2283				;&.SKIP 2
  2284				;&CODE 41: CHANGE CUSTOMR PO MAXIMUM
  2285				;&####INPUT CUSTOMER NUMBER (THREE BYTES)
  2286				;&####INPUT ACCOUNTING SYSTEM TYPE (ONE BYTE)
  2287	003130'	260740	013001'	CHPOMX:	PUSHJ P,GETPMX	;&####INPUT NEW PO MAXIMUM (THREE BYTES)
  2288	003131'	260740	013362'		PUSHJ P,CHKINF
  2289	003132'	201040	022742'		MOVEI A,TPOMAX
  2290	003133'	201100	021533'		MOVEI B,CINFO+NPOMAX
  2291	003134'	260740	011402'		PUSHJ P,CHGIT
  2292	003135'	254000	003157'		JRST CHEND
  2293
  2294				;&.SKIP 2
  2295				;&CODE 42: CHANGE PO START DATE
  2296				;&####INPUT CUSTOMER NUMBER (THREE BYTES)
  2297				;&####INPUT ACCOUNTING SYSTEM TYPE (ONE BYTE)
  2298	003136'	260740	013013'	CHPOD1:	PUSHJ P,GETPD1	;&####INPUT NEW PO START DATE (THREE BYTES-YYMMDD)
  2299	003137'	260740	013362'		PUSHJ P,CHKINF
  2300	003140'	201040	022743'		MOVEI A,TPSTRT
  2301	003141'	201100	021534'		MOVEI B,CINFO+NPOSTART
  2302	003142'	260740	011402'		PUSHJ P,CHGIT
  2303	003143'	254000	003157'		JRST CHEND
  2304
  2305
  2306				;&.SKIP 2
  2307				;&CODE 43: CHANGE PO STOP DATE
  2308				;&####INPUT CUSTOMER NUMBER (THREE BYTES)
  2309				;&####INPUT ACCOUNTING SYSTEM TYPE (ONE BYTE)
  2310	003144'	260740	013023'	CHPOD2:	PUSHJ P,GETPD2	;&####INPUT NEW PO STOP DATE (THREE 8 BUT BYTES-YYMMDD)
  2311	003145'	260740	013362'		PUSHJ P,CHKINF
  2312	003146'	201040	022744'		MOVEI A,TPSTOP
  2313	003147'	201100	021535'		MOVEI B,CINFO+NPOSTOP
  2314	003150'	260740	011402'		PUSHJ P,CHGIT
  2315	003151'	254000	003157'		JRST CHEND
  2316
  2317
  2318				;&.SKIP 2
  2319				;&CODE 44: CHANGE CUSTOMER NAME
  2320				;&####INPUT CUSTOMER NUMBER (THREE BYTES)
  2321				;&####INPUT ACCOUNTING SYSTEM TYPE (ONE BYTE)
  2322	003152'	260740	012664'	CHCNAM:	PUSHJ P,GETNAM	;&####INPUT NEW CUSTOMER NAME (51 BYTES)
  2323	003153'	260740	013362'		PUSHJ P,CHKINF
  2324	003154'	201040	022747'		MOVEI A,TCNAM
  2325	003155'	201100	021547'		MOVEI B,AINFO+NCUSNAM
  2326	003156'	260740	011402'		PUSHJ P,CHGIT
  2327	003157'	266700	003115*	CHEND:	JSA 16,DBCLOS
  2328	003160'	200000	023033'		MOVE F,SAVF
  2329	003161'	254000	001070'		JRST DIDIT3
UPDLUD - ACCTG., LUD UPDATER	MACRO 12.5-46.0 17:15 19-SEP-89 PAGE 56
UPDLUD.MAC	24-MAY-89 18:55		CODE 45 - CHANGE CUSTOMER ADDRESS

  2330				SUBTTL CODE 45 - CHANGE CUSTOMER ADDRESS
  2331
  2332				;&.SKIP 2
  2333				;&CODE 45: CHANGE CUSTOMER ADDRESS
  2334				;&####INPUT CUSTOMER NUMBER (THREE BYTES)
  2335				;&####INPUT ACCOUNTING SYSTEM TYPE (ONE BYTE)
  2336	003162'	260740	012716'	CHCADD:	PUSHJ P,GETADD	;&####INPUT NEW ADDRESS (SEE BELOW)
  2337	003163'	260740	013362'		PUSHJ P,CHKINF
  2338	003164'	660000	100000		TRO F,WAITF
  2339	003165'	202000	023033'		MOVEM F,SAVF
  2340	003166'	201040	003170'		MOVEI A,CHCAD1
  2341	003167'	202040	022767'		MOVEM A,AGNLOC
  2342	003170'	266700	000000*	CHCAD1:	JSA 16,DBCHNG
  2343	003171'	320000	022750'		ARG TATTN
  2344	003172'	320240	021562'		ARG 5,AINFO+NATTN
  2345	003173'	320000	022751'		ARG TSTRT1
  2346	003174'	320240	021575'		ARG 5,AINFO+NSTRT1
  2347	003175'	320000	022752'		ARG TSTRT2
  2348	003176'	320240	021610'		ARG 5,AINFO+NSTRT2
  2349	003177'	320000	022753'		ARG TCITY
  2350	003200'	320240	021623'		ARG 5,AINFO+NCITY
  2351	003201'	320000	022754'		ARG TSTATE
  2352	003202'	320240	021626'		ARG 5,AINFO+NSTATE
  2353	003203'	320000	022755'		ARG TZIP
  2354	003204'	320240	021627'		ARG 5,AINFO+NZIP
  2355	003205'	320000	022757'		ARG TXL
  2356	003206'	320240	021631'		ARG 5,AINFO+NXL
  2357	003207'	320000	022756'		ARG TCOUNTRY
  2358	003210'	320240	021644'		ARG 5,AINFO+NCOUNTRY
  2359	003211'	200000	023033'		MOVE F,SAVF
  2360	003212'	620000	100000		TRZ F,WAITF
  2361	003213'	254000	003157'		JRST CHEND
  2362
  2363
  2364
  2365
  2366
  2367				;&CODE 46: CHANGE CUSTOMER'S DEFAULT PRICING CODE
  2368				;&####INPUT CUSTOMER NUMBER (THREE BYTES)
  2369				;&####INPUT ACCOUNTING SYSTEM TYPE (ONE BYTE)
  2370	003214'	260740	013050'	CHDPRI:	PUSHJ P,GETPRI	;&####INPUT NEW PRICING CODE (TWO BYTES)
  2371	003215'	260740	013362'		PUSHJ P,CHKINF
  2372	003216'	201040	022745'		MOVEI A,TDFPRI
  2373	003217'	201100	021537'		MOVEI B,CINFO+NDPRI
  2374	003220'	260740	011402'		PUSHJ P,CHGIT
  2375	003221'	254000	003157'		JRST CHEND
UPDLUD - ACCTG., LUD UPDATER	MACRO 12.5-46.0 17:15 19-SEP-89 PAGE 57
UPDLUD.MAC	24-MAY-89 18:55		CODE 50 - LIST ACCOUNTING ENTRY FOR A CUSTOMER

  2376				SUBTTL CODE 50 - LIST ACCOUNTING ENTRY FOR A CUSTOMER
  2377
  2378				;&.SKIP 2
  2379				;&CODE 50: LIST ACCOUNTING ENTRY FOR A CUSTOMER
  2380	003222'	260740	012242'	LISCUS:PUSHJ P,CUSTIN	;&####INPUT CUSTOMER NUMBER (THREE BYTES)
  2381	003223'	260740	012257'		PUSHJ P,ASYSIN	;&####INPUT ACCOUNTING SYSTEM TYPE (ONE BYTE)
  2382	003224'	660000	000100		TRO F,ALLIOI
  2383	003225'	260740	015503'		PUSHJ P,CFIND
  2384	003226'	260740	000622'		PUSHJ P,NOTFND
  2385	003227'	202000	023033'		MOVEM F,SAVF
  2386	003230'	266700	003157*		JSA 16,DBCLOS
  2387	003231'	200000	023033'		MOVE F,SAVF
  2388	003232'	260740	015564'		PUSHJ P,AFIND
  2389	003233'	260740	000702'		PUSHJ P,NOADDR
  2390	003234'	202000	023033'		MOVEM F,SAVF
  2391	003235'	266700	003230*		JSA 16,DBCLOS
  2392	003236'	200000	023033'		MOVE F,SAVF
  2393	003237'	260740	013540'		PUSHJ P,SENDOK	;&####ANSWER 1 (IF FOUND), 3 (IF NOT FOUND) OR ERROR
  2394	003240'	260740	011704'		PUSHJ P,CNAMOUT	;&####OUTPUT CUSTOMER NAME (51 BYTES)
  2395	003241'	200300	021516'		MOVE N,CINFO+NCDIST
  2396	003242'	260740	011516'		PUSHJ P,DISOUT	;&####OUTPUT CUSTOMER DISTRICT (ONE BYTE)
  2397	003243'	200300	021542'		MOVE N,CINFO+NCCOST
  2398	003244'	260740	011542'		PUSHJ P,CCOOUT  ;&####OUTPUT COSTCODE  (THREE BYTES)
  2399	003245'	200300	021521'		MOVE N,CINFO+NCDETC
  2400	003246'	260740	011772'		PUSHJ P,DETOUT	;&####OUTPUT DETAIL CODE (TWO BYTES)
  2401	003247'	260740	012003'		PUSHJ P,INVOUT	;&####OUTPUT INVOICE CODE (TWO BYTES)
  2402	003250'	260740	011776'		PUSHJ P,MINOUT	;&####OUTPUT MINIMUM CODE (ONE BYTE)
  2403	003251'	200300	021523'		MOVE N,CINFO+NCSLS
  2404	003252'	260740	011560'		PUSHJ P,SLSOUT	;&####OUTPUT SALESMAN (ONE BYTE)
  2405	003253'	260740	012010'		PUSHJ P,POOUT	;&####OUTPUT PO NUMBER (30 BYTES)
  2406	003254'	260740	012016'		PUSHJ P,POMOUT	;&####OUTPUT PO MAXIMUM (THREE BYTES)
  2407	003255'	260740	012023'		PUSHJ P,POSTAO	;&####OUTPUT PO START DATE (THREE BYTES-YYMMDD)
  2408	003256'	260740	012030'		PUSHJ P,POSTOO	;&####OUTPUT PO STOP DATE (THREE BYTES-YYMMDD)
  2409	003257'	260740	011531'		PUSHJ P,VPFOUT	;&####OUTPUT VARIABLE PRICING FLAG (ONE BYTE)
  2410	003260'	260740	011553'		PUSHJ P,CPOUT	;&####OUTPUT DEFAULT PRICING (TWO BYTES)
  2411	003261'	260740	011546'		PUSHJ P,FFFOUT  ;&####OUTPUT FLAT FOCUS FEED  (ONE BYTE)
  2412	003262'	260740	012035'	        PUSHJ P,ADTOUT  ;&####OUTPUT ANNIVERSARY DATE (THREE BYTES-YYMMDD)
  2413	003263'	260740	011710'		PUSHJ P,ADDOUT	;&####OUTPUT ADDRESS (SEE BELOW)
  2414	003264'	254000	000137'		JRST LUDUP1
UPDLUD - ACCTG., LUD UPDATER	MACRO 12.5-46.0 17:15 19-SEP-89 PAGE 58
UPDLUD.MAC	24-MAY-89 18:55		CODE 51 - LIST CUSTOMER NAME

  2415				SUBTTL CODE 51 - LIST CUSTOMER NAME
  2416				;&.SKIP 2
  2417				;&CODE 51: LIST CUSTOMER NAME ONLY
  2418	003265'	260740	012242'	LISNAM:	PUSHJ P,CUSTIN	;&####INPUT CUSTOMER NUMBER (THREE BYTES)
  2419	003266'	260740	012257'		PUSHJ P,ASYSIN	;&####INPUT ACCOUNTING SYSTEM TYPE
  2420	003267'	660000	000100		TRO F,ALLIOI
  2421	003270'	260740	015564'		PUSHJ P,AFIND
  2422	003271'	260740	000622'		PUSHJ P,NOTFND
  2423	003272'	202000	023033'		MOVEM F,SAVF
  2424	003273'	266700	003235*		JSA 16,DBCLOS
  2425	003274'	200000	023033'		MOVE F,SAVF
  2426	003275'	260740	015503'		PUSHJ P,CFIND
  2427	003276'	260740	000622'		PUSHJ P,NOTFND
  2428	003277'	266700	003273*		JSA 16,DBCLOS
  2429	003300'	200000	023033'		MOVE F,SAVF
  2430	003301'	260740	013540'		PUSHJ P,SENDOK	;&####ANSWER 1 (IF FOUND), 3 (IF NOT FOUND) OR ERROR
  2431	003302'	260740	011704'		PUSHJ P,CNAMOUT	;&####OUTPUT CUSTOMER NAME (51 BYTES)
  2432	003303'	254000	000137'		JRST LUDUP1
  2433
  2434				;&.SKIP 2
  2435				;&CODE 52: LIST ACCTG. SYS. TYPES FOR A CUSTOMER
  2436	003304'	260740	012242'	LISAST:	PUSHJ P,CUSTIN	;&####INPUT CUSTOMER NUMBER (THREE BYTES)
  2437	003305'	660000	000100		TRO F,ALLIOI
  2438	003306'	260740	015535'		PUSHJ P,CFINDA
  2439	003307'	260740	000622'		PUSHJ P,NOTFND
  2440	003310'	260740	013540'		PUSHJ P,SENDOK	;&####ANSWER 1 (IF FOUND), 3 (IF NOT) OR ERROR
  2441	003311'	402000	022770'		SETZM AST
  2442	003312'	266700	003101*	LASTNX:	JSA 16,DBGET
  2443	003313'	320000	021514'		ARG CINFO
  2444	003314'	320000	003315'		ARG .+1
  2445	003315'	260740	003324'		PUSHJ P,SETAST
  2446	003316'	372000	023021'		SOSE NUMRET
  2447	003317'	254000	003312'		JRST LASTNX
  2448	003320'	266700	003277*		JSA 16,DBCLOS
  2449	003321'	200000	023033'		MOVE F,SAVF
  2450	003322'	260740	012152'		PUSHJ P,ASTOUT	;&####OUTPUT ACCTG. SYS. TYPES (ONE BYTE)
  2451	003323'	254000	000137'		JRST LUDUP1
  2452
  2453	003324'	200300	021515'	SETAST:	MOVE N,CINFO+NCSYSC
  2454	003325'	303300	000003		CAILE N,ASTMAX
  2455	003326'	263740	000000		POPJ P,0
  2456	003327'	200306	003331'		MOVE N,ASTTAB-1(N)
  2457	003330'	272300	022770'		ADDM N,AST
  2458	003331'	263740	000000		POPJ P,0
  2459
  2460	003332'	000000	000002	ASTTAB:	2	;&#######IF PDP, SET BIT 6
  2461	003333'	000000	000001		1	;&#######IF 940, SET BIT 7
  2462	003334'	000000	000004		4	;&#######IF 370, SET BIT 5
  2463			000003	ASTMAX=.-ASTTAB
UPDLUD - ACCTG., LUD UPDATER	MACRO 12.5-46.0 17:15 19-SEP-89 PAGE 59
UPDLUD.MAC	24-MAY-89 18:55		CODE 53 - LIST AST'S FOR A USER

  2464				SUBTTL CODE 53 - LIST AST'S FOR A USER
  2465
  2466				;&.SKIP 2
  2467				;&CODE 53: LIST ACCTG. SYS. TYPES FOR A USER
  2468	003335'	260740	012160'	LUAST:	PUSHJ P,UUNIN	;&####INPUT UUN
  2469	003336'	660000	000100		TRO F,ALLIOI
  2470	003337'	260740	015342'		PUSHJ P,USINIT
  2471	003340'	266700	003065*		JSA 16,DBFIND
  2472	003341'	320000	022720'		ARG TUSUUN
  2473	003342'	320000	022707'		ARG EQUALS
  2474	003343'	320000	021160'		ARG USINFO+NUSUUN
  2475	003344'	320000	022711'		ARG X22AND
  2476	003345'	320000	022730'		ARG TUSSTP
  2477	003346'	320000	022707'		ARG EQUALS
  2478	003347'	320000	022706'		ARG NSTOP
  2479	003350'	266700	003044*		JSA 16,DBNREC
  2480	003351'	320000	023021'		ARG NUMRET
  2481	003352'	200000	023033'		MOVE F,SAVF
  2482	003353'	336300	023021'		SKIPN N,NUMRET
  2483	003354'	260740	000622'		PUSHJ P,NOTFND
  2484	003355'	260740	013540'		PUSHJ P,SENDOK	;&####ANSWER 1 (IF FOUND), 3 (IF NOT) OR ERROR
  2485	003356'	254000	003311'		JRST LASTNX-1	;&####OUTPUT IS THE SAME AS CODE 52
  2486
  2487				;&.SKIP 2
  2488				;&CODE 54: LIST ALL USERS AND THEIR HOSTS FOR A CUSTOMER
  2489				;&####INPUT CUSTOMER NUMBER (THREE BYTES)
  2490				;&####INPUT ACCOUNTING SYSTEM TYPE (ONE BYTE)
  2491				;&####OUTPUT 1 (IF FOUND), 3 (IF NOT) OR ERROR
  2492				;&####OUTPUT DISTRICT (ONE BYTE)
  2493				;&####FOR EACH USER:
  2494				;&#######OUTPUT USER NAME (TWELVE BYTES)
  2495				;&#######OUTPUT GAN (THREE BYTES)
  2496				;&#######OUTPUT HOSTS - SEE BELOW
  2497				;&####END WITH A 377B
  2498	003357'	621000	000100	LUHCST:	TLZ F,NAMESO
  2499	003360'	254000	005561'		JRST LUCUST+1
UPDLUD - ACCTG., LUD UPDATER	MACRO 12.5-46.0 17:15 19-SEP-89 PAGE 60
UPDLUD.MAC	24-MAY-89 18:55		CODE 55 - LIST ALL GANS FOR A CUSTOMER

  2500				SUBTTL CODE 55 - LIST ALL GANS FOR A CUSTOMER
  2501
  2502				;&.SKIP 2
  2503				;&CODE 55: LIST ALL GANS FOR A CUSTOMER
  2504	003361'	260740	012242'	LGNCST:	PUSHJ P,CUSTIN	;&####INPUT CUSTOMER NUMBER (THREE BYTES)
  2505	003362'	660000	000100		TRO F,ALLIOI
  2506	003363'	201040	000011		MOVEI A,ASTIII
  2507	003364'	202040	021515'		MOVEM A,CINFO+NCSYSC
  2508	003365'	260740	015503'		PUSHJ P,CFIND
  2509	003366'	334000	000000		SKIPA
  2510	003367'	254000	003417'		JRST LGNIII
  2511	003370'	266700	003320*		JSA 16,DBCLOS
  2512	003371'	200000	023033'		MOVE F,SAVF
  2513	003372'	260740	005446'		PUSHJ P,GTALL
  2514	003373'	336000	023022'		SKIPN NUUNS
  2515	003374'	254000	005751'		JRST LSTUAC
  2516	003375'	266700	000000*		JSA 16,DBSORT
  2517	003376'	320000	022716'		ARG TGAN
  2518	003377'	200000	023033'		MOVE F,SAVF
  2519	003400'	402000	023000'		SETZM GAN
  2520	003401'	266700	003312*	NXTGN:	JSA 16,DBGET
  2521	003402'	320000	021141'		ARG UINFO
  2522	003403'	320000	003404'		ARG .+1
  2523	003404'	200000	023033'		MOVE F,SAVF
  2524	003405'	200300	021141'		MOVE N,UINFO+NGAN
  2525	003406'	316300	023000'		CAMN N,GAN
  2526	003407'	254000	003414'		JRST NXTG1
  2527	003410'	202300	023000'		MOVEM N,GAN	;SAVE LAST GAN
  2528	003411'	260740	013334'		PUSHJ P,DECOCT	;&####FOR EACH ACCOUNT, OUTPUT:
  2529	003412'	260740	011564'		PUSHJ P,GANOUT	;&####OUTPUT GAN (THREE BYTES)
  2530	003413'	260740	015242'		PUSHJ P,CRLF	;&####END WITH 377B
  2531	003414'	373000	023022'	NXTG1:	SOSLE NUUNS
  2532	003415'	254000	003401'		JRST NXTGN
  2533	003416'	254000	005751'		JRST LSTUAC
UPDLUD - ACCTG., LUD UPDATER	MACRO 12.5-46.0 17:15 19-SEP-89 PAGE 61
UPDLUD.MAC	24-MAY-89 18:55		CODE 55 - LIST ALL GANS FOR A CUSTOMER

  2534	003417'	266700	003370*	LGNIII:	JSA 16,DBCLOS
  2535	003420'	200000	023033'		MOVE F,SAVF
  2536	003421'	260740	015405'		PUSHJ P,YINIT
  2537	003422'	266700	003340*		JSA 16,DBFIND
  2538	003423'	320000	022723'		ARG TUCNUM
  2539	003424'	320000	022707'		ARG EQUALS
  2540	003425'	320000	021514'		ARG CINFO+NCUSNUM
  2541	003426'	320000	022711'		ARG X22AND
  2542	003427'	320000	022733'		ARG TUCSTP
  2543	003430'	320000	022707'		ARG EQUALS
  2544	003431'	320000	022706'		ARG NSTOP
  2545	003432'	266700	003350*		JSA 16,DBNREC
  2546	003433'	320000	023022'		ARG NUUNS
  2547	003434'	336000	023022'	        SKIPN NUUNS
  2548	003435'	254000	005751'	         JRST LSTUAC
  2549	003436'	266700	003375*	        JSA   16,DBSORT
  2550	003437'	320000	022716'	        ARG   TGAN
  2551	003440'	200000	023033'		MOVE F,SAVF
  2552	003441'	402000	023000'		SETZM GAN
  2553	003442'	266700	003401*	NXTTGN:	JSA 16,DBGET
  2554	003443'	320000	021160'		ARG USINFO
  2555	003444'	320000	003445'		ARG .+1
  2556	003445'	200000	023033'		MOVE F,SAVF
  2557	003446'	200300	021160'		MOVE N,USINFO+NGAN
  2558	003447'	316300	023000'		CAMN N,GAN
  2559	003450'	254000	003455'		JRST NXTTG1
  2560	003451'	202300	023000'		MOVEM N,GAN
  2561	003452'	260740	013334'		PUSHJ P,DECOCT
  2562	003453'	260740	011564'		PUSHJ P,GANOUT
  2563	003454'	260740	015242'		PUSHJ P,CRLF
  2564	003455'	373000	023022'	NXTTG1:	SOSLE NUUNS
  2565	003456'	254000	003442'		JRST NXTTGN
  2566	003457'	254000	005751'		JRST LSTUAC
UPDLUD - ACCTG., LUD UPDATER	MACRO 12.5-46.0 17:15 19-SEP-89 PAGE 62
UPDLUD.MAC	24-MAY-89 18:55		CODE 56 - LIST ALL CUSTOMERS FOR A DISTRICT

  2567				SUBTTL CODE 56 - LIST ALL CUSTOMERS FOR A DISTRICT
  2568
  2569				;&.SKIP 2
  2570				;&CODE 56: LIST ALL CUSTOMERS FOR A DISTRICT
  2571	003460'	260740	012436'	LACUD1:	PUSHJ P,GETDIS	;&###INPUT DISTRICT (ONE BYTE)
  2572	003461'	660000	000100		TRO F,ALLIOI
  2573	003462'	202000	023033'		MOVEM F,SAVF
  2574	003463'	266700	003022*		JSA 16,DBOPEN
  2575	003464'	320240	021070'		ARG 5,CUSTDB
  2576	003465'	320240	021072'		ARG 5,ADDRDB
  2577	003466'	266700	003422*		JSA 16,DBFIND
  2578	003467'	320000	022726'		ARG TCDIST
  2579	003470'	320000	022707'		ARG EQUALS
  2580	003471'	320000	021516'		ARG CINFO+NCDIST
  2581	003472'	320000	022711'		ARG X22AND
  2582	003473'	320000	022732'		ARG TCSTP
  2583	003474'	320000	022707'		ARG EQUALS
  2584	003475'	320000	022706'		ARG NSTOP
  2585	003476'	266700	003436*	LACUD2:	JSA 16,DBSORT
  2586	003477'	320000	022722'		ARG TCCNUM
  2587	003500'	320000	022735'		ARG TASYSC
  2588	003501'	266700	000000*	LACUD3: JSA     16,DBSET
  2589	003502'	320000	020332'	        ARG     ONE
  2590	003503'	266700	003442*	        JSA     16,DBGET
  2591	003504'	320000	021514'	        ARG     CINFO
  2592	003505'	320000	005647'	        ARG     LSTUSR
  2593	003506'	266700	003501*	        JSA     16,DBSET
  2594	003507'	320000	020333'	        ARG     TWO
  2595	003510'	266700	003466*	        JSA     16,DBFIND
  2596	003511'	320000	022722'	        ARG TCCNUM
  2597	003512'	320000	022707'	        ARG EQUALS
  2598	003513'	320000	021514'	        ARG     CINFO + NCUSNUM
  2599	003514'	320000	022711'	        ARG     X22AND
  2600	003515'	320000	022735'	        ARG     TASYSC
  2601	003516'	320000	022707'	        ARG EQUALS
  2602	003517'	320000	021515'	        ARG     CINFO + NCSYSC
  2603	003520'	266700	003432*		JSA 16,DBNREC
  2604	003521'	320000	023021'		ARG NUMRET
  2605	003522'	200000	023033'		MOVE F,SAVF
  2606	003523'	336300	023021'		SKIPN N,NUMRET
  2607	003524'	254000	003501'		JRST LACUD3
  2608	003525'	266700	003503*	NACUD1:	JSA 16,DBGET
  2609	003526'	320000	021545'		ARG AINFO
  2610	003527'	320000	003501'		ARG LACUD3
  2611	003530'	200300	021545'		MOVE N,AINFO+NACUSNUM
  2612	003531'	200000	023033'		MOVE F,SAVF	;&####FOR EACH CUSTOMER:
  2613	003532'	260740	015151'		PUSHJ P,NUMOUT	;&####OUTPUT CUSTOMER NUMBER (THREE BYTES)
  2614	003533'	602000	000010		TRNE F,TTYOUT
  2615	003534'	051140	020065'		OUTSTR M2SPACE
  2616	003535'	200300	021546'		MOVE N,AINFO+NASYSC
  2617	003536'	260740	015146'		PUSHJ P,ONEOUT	;&####OUTPUT ACCTG. SYS. TYPE (ONE BYTE)
  2618	003537'	602000	000010		TRNE F,TTYOUT
  2619	003540'	051140	020065'		OUTSTR M2SPACE
UPDLUD - ACCTG., LUD UPDATER	MACRO 12.5-46.0 17:15 19-SEP-89 PAGE 62-2
UPDLUD.MAC	24-MAY-89 18:55		CODE 56 - LIST ALL CUSTOMERS FOR A DISTRICT

  2620	003541'	260740	011704'		PUSHJ P,CNAMOUT	;&####OUTPUT CUSTOMER NAME (FIFTY-ONE BYTES)
  2621	003542'	254000	003501'		JRST LACUD3
  2622	003543'	254000	005647'		JRST LSTUSR
UPDLUD - ACCTG., LUD UPDATER	MACRO 12.5-46.0 17:15 19-SEP-89 PAGE 63
UPDLUD.MAC	24-MAY-89 18:55		CODE 57 - LIST ALL USERS FOR A DISTRICT

  2623				SUBTTL CODE 57 - LIST ALL USERS FOR A DISTRICT
  2624
  2625				;&.SKIP 2
  2626				;&CODE 57: LIST ALL USERS FOR A DISTRIST
  2627	003544'	661000	000100	LAUSD1:	TLO F,NAMESO
  2628	003545'	260740	012436'		PUSHJ P,GETDIS	;&####INPUT DISTRICT (ONE BYTE)
  2629	003546'	660000	000100		TRO F,ALLIOI	;&####FOR EACH USER:
  2630	003547'	202000	023033'		MOVEM F,SAVF
  2631	003550'	266700	003463*		JSA 16,DBOPEN
  2632	003551'	320240	021074'		ARG 5,USERDB
  2633	003552'	320240	021100'		ARG 5,VALDB
  2634	003553'	266700	003510*		JSA 16,DBFIND
  2635	003554'	320000	022727'		ARG TUDIST
  2636	003555'	320000	022707'		ARG EQUALS
  2637	003556'	320000	021146'		ARG UINFO+NUDIST
  2638	003557'	320000	022711'		ARG X22AND
  2639	003560'	320000	022731'		ARG TUSTP
  2640	003561'	320000	022707'		ARG EQUALS
  2641	003562'	320000	022706'		ARG NSTOP
  2642	003563'	266700	003520*		JSA 16,DBNREC
  2643	003564'	320000	023022'		ARG NUUNS
  2644	003565'	200000	023033'		MOVE F,SAVF
  2645	003566'	336000	023022'		SKIPN NUUNS
  2646	003567'	254000	005647'		JRST LSTUSR
  2647	003570'	266700	003476*		JSA 16,DBSORT
  2648	003571'	320000	022723'		ARG TUCNUM
  2649	003572'	320000	022716'		ARG TGAN
  2650	003573'	320000	022715'	        ARG TUNAME
  2651	003574'	266700	003525*	NAUSD1:	JSA 16,DBGET
  2652	003575'	320000	021141'		ARG UINFO
  2653	003576'	320000	005647'		ARG LSTUSR
  2654	003577'	260740	005465'		PUSHJ P,GTHSTS
  2655	003600'	336300	023020'		SKIPN N,NSITES
  2656					JRST [PUSHJ P,CLRSIT
  2657	003601'	254000	023275'			JRST .+2]
  2658	003602'	260740	015632'		PUSHJ P,VFIND+2
  2659	003603'	255000	000000		 JFCL
  2660	003604'	200000	023033'		MOVE F,SAVF
  2661	003605'	200300	021147'		MOVE N,UINFO+NUCUSN
  2662	003606'	260740	015151'		PUSHJ P,NUMOUT	;&####OUTPUT CUSTOMER NUMBER (THREE BYTES)
  2663	003607'	602000	000010		TRNE F,TTYOUT
  2664	003610'	051140	020065'		OUTSTR M2SPACE
  2665	003611'	200300	021141'		MOVE N,UINFO+NGAN
  2666	003612'	260740	013334'		PUSHJ P,DECOCT
  2667	003613'	661000	000010		TLO F,OCTINF
  2668	003614'	260740	015151'		PUSHJ P,NUMOUT	;&####OUTPUT GLOBAL ACCOUNT (THREE BYTES)
  2669	003615'	602000	000010		TRNE F,TTYOUT
  2670	003616'	051140	020065'		OUTSTR M2SPACE
  2671	003617'	661000	004000		TLO F,ASCIO
  2672	003620'	260740	011760'		PUSHJ P,NAMOUT	;&####OUTPUT USER NAME (TWELVE BYTES)
  2673	003621'	607000	000100		TLNN F,NAMESO
  2674	003622'	260740	011642'		PUSHJ P,SITOUT
  2675	003623'	266700	003506*		JSA 16,DBSET
UPDLUD - ACCTG., LUD UPDATER	MACRO 12.5-46.0 17:15 19-SEP-89 PAGE 63-2
UPDLUD.MAC	24-MAY-89 18:55		CODE 57 - LIST ALL USERS FOR A DISTRICT

  2676	003624'	320000	020332'		ARG ONE
  2677	003625'	373000	023022'		SOSLE NUUNS
  2678	003626'	254000	003574'		JRST NAUSD1
  2679	003627'	254000	005647'		JRST LSTUSR	;&####END WITH 377B
UPDLUD - ACCTG., LUD UPDATER	MACRO 12.5-46.0 17:15 19-SEP-89 PAGE 65
UPDLUD.MAC	24-MAY-89 18:55		CODE 60 - NEW A USER ENTRY IN ACCOUNTING

  2680				SUBTTL CODE 60 - NEW A USER ENTRY IN ACCOUNTING
  2681
  2682				;&.SKIP 2
  2683				;&CODE 60: NEW USER IN ACCOUNTING
  2684	003630'	260740	012157'	NEWUUN:	PUSHJ P,USERIN	;&####INPUT PPN (SIX BYTES)
  2685	003631'	260740	012257'		PUSHJ P,ASYSIN	;&####INPUT ACCOUNTING SYSTEM TYPE (ONE BYTE)
  2686	003632'	202300	022026'		MOVEM N,SAVORG+OAST
  2687	003633'	260740	015424'		PUSHJ P,UFIND
  2688	003634'	334000	000000		SKIPA
  2689	003635'	260740	000620'		PUSHJ P,FND
  2690	003636'	202000	023033'		MOVEM F,SAVF
  2691	003637'	266700	003417*		JSA 16,DBCLOS
  2692	003640'	200000	023033'		MOVE F,SAVF
  2693	003641'	260740	015452'		PUSHJ P,USFIND
  2694	003642'	334000	000000		SKIPA
  2695	003643'	260740	000620'		PUSHJ P,FND
  2696	003644'	202000	023033'		MOVEM F,SAVF
  2697	003645'	266700	003637*		JSA 16,DBCLOS
  2698	003646'	200000	023033'		MOVE F,SAVF
  2699	003647'	260740	012233'		PUSHJ P,GTUNAM	;&####INPUT USER NAME (TWELVE BYTES)
  2700	003650'	260740	012242'		PUSHJ P,CUSTIN	;&####INPUT CUSTOMER NUMBER (THREE BYTES)
  2701	003651'	260740	013546'		PUSHJ P,CHKCUS
  2702	003652'	260740	000647'		PUSHJ P,BADCUS
  2703	003653'	266700	003645*		JSA 16,DBCLOS
  2704	003654'	200000	023033'		MOVE F,SAVF
  2705	003655'	260740	012436'		PUSHJ P,GETDIS	;&####INPUT DISTRICT (ONE BYTE)
  2706	003656'	260740	012524'		PUSHJ P,GETLAN	;&####INPUT LANGUAGE CODE (ONE BYTE)
  2707	003657'	260740	013152'		PUSHJ P,GETCUR	;&####INPUT CURRENCY CODE (ONE BYTE)
  2708	003660'	260740	013063'		PUSHJ P,GETSLS	;&####INPUT SALESMAN (ONE BYTE)
  2709	003661'	260740	013126'		PUSHJ P,GETPRC	;&####INPUT PRICING CODE (TWO BYTES)
  2710	003662'	260740	012361'		PUSHJ P,GETZONE	;&####INPUT USER TIME ZONE (ONE BYTE)
  2711	003663'	260740	012537'		PUSHJ P,GTRESM	;&####INPUT RESOURCE CODE (ONE BYTE)
  2712	003664'	660000	010000		TRO F,SELHST	;INPUT ONLY HOSTS FOR THIS AST
  2713	003665'	260740	012644'		PUSHJ P,GETSIT	;&####INPUT A HOST FOR THIS AST (TWO BYTES)
  2714	003666'	260740	012453'	        PUSHJ P,COCOIN  ;&####INPUT COST CODE (THREE BYTES)
  2715	003667'	260740	012611'	        PUSHJ P,GTNLUD  ;&####GET 'VALID ON NON-LUD HOST' BIT (SET TO ZERO)
  2716	003670'	260740	013362'		PUSHJ P,CHKINF
UPDLUD - ACCTG., LUD UPDATER	MACRO 12.5-46.0 17:15 19-SEP-89 PAGE 66
UPDLUD.MAC	24-MAY-89 18:55		CODE 60 - NEW A USER ENTRY IN ACCOUNTING

  2717	003671'	260740	013656'		PUSHJ P,SAVB
  2718	003672'	260740	014703'		PUSHJ P,GETTOD
  2719	003673'	200300	022706'		MOVE N,NSTOP
  2720	003674'	202300	021153'		MOVEM N,UINFO+NUSTOP
  2721	003675'	202300	021176'		MOVEM N,VINFO+NVSTOP
  2722	003676'	202300	021170'		MOVEM N,USINFO+NSYSTOP
  2723	003677'	260740	015347'		PUSHJ P,UINIT
  2724	003700'	201040	021141'		MOVEI A,UINFO
  2725	003701'	260740	011372'		PUSHJ P,ADDIT
  2726	003702'	266700	003653*		JSA 16,DBCLOS
  2727	003703'	200000	023033'		MOVE F,SAVF
  2728	003704'	260740	015342'		PUSHJ P,USINIT
  2729	003705'	201040	021160'		MOVEI A,USINFO
  2730	003706'	260740	011372'		PUSHJ P,ADDIT
  2731	003707'	266700	003702*		JSA 16,DBCLOS
  2732	003710'	200000	023033'		MOVE F,SAVF
  2733	003711'	260740	015366'		PUSHJ P,VINIT
  2734	003712'	201040	021173'		MOVEI A,VINFO
  2735	003713'	260740	011372'		PUSHJ P,ADDIT
  2736	003714'	254000	003157'		JRST CHEND
UPDLUD - ACCTG., LUD UPDATER	MACRO 12.5-46.0 17:15 19-SEP-89 PAGE 67
UPDLUD.MAC	24-MAY-89 18:55		CODE 61 - ADD HOST FOR A USER

  2737				SUBTTL CODE 61 - ADD HOST FOR A USER
  2738
  2739				;&.SKIP 2
  2740				;&CODE 61: ADD HOST FOR UUN
  2741	003715'	260740	012160'	ADDSIT:	PUSHJ P,UUNIN	;&####INPUT UUN (THREE BYTES)
  2742	003716'	260740	012644'		PUSHJ P,GETSIT	;&####INPUT HOST (TWO BYTES)
  2743	003717'	202300	022017'		MOVEM N,SAVORG+SITE
  2744	003720'	200300	023004'	ASITE:	MOVE N,HOST
  2745	003721'	201040	000001	        MOVEI A,A
  2746	003722'	261740	000001	        PUSH P,A
  2747	003723'	261740	000006	        PUSH P,N
  2748	003724'	264000	014600'	        JSR WATTYP      ; GET TYPE
  2749	003725'	202040	021161'		MOVEM A,USINFO+NUSYSC
  2750	003726'	260740	015452'		PUSHJ P,USFIND
  2751	003727'	260740	000622'		PUSHJ P,NOTFND
  2752	003730'	202000	023033'		MOVEM F,SAVF
  2753	003731'	266700	003707*		JSA 16,DBCLOS
  2754	003732'	200000	023033'		MOVE F,SAVF
  2755	003733'	260740	015630'		PUSHJ P,VFIND
  2756	003734'	255000	000000		JFCL
  2757	003735'	200300	023004'		MOVE N,HOST
  2758	003736'	260740	014631'		PUSHJ P,FNDSIT
  2759	003737'	334000	000000	        SKIPA
  2760	003740'	254000	003157'		JRST CHEND
  2761	003741'	260740	013362'		PUSHJ P,CHKINF
  2762	003742'	260740	013660'		PUSHJ P,SAVB1
  2763	003743'	260740	014703'		PUSHJ P,GETTOD
  2764	003744'	200300	022706'		MOVE N,NSTOP
  2765	003745'	202300	021176'		MOVEM N,VINFO+NVSTOP
  2766	003746'	200300	023004'		MOVE N,HOST
  2767	003747'	202300	021174'		MOVEM N,VINFO+NHOST
  2768	003750'	200000	023033'		MOVE F,SAVF
  2769	003751'	201040	021173'		MOVEI A,VINFO
  2770	003752'	260740	011372'		PUSHJ P,ADDIT
  2771	003753'	254000	003157'		JRST CHEND
  2772
  2773
  2774				;&.SKIP 2
  2775				;&CODE 62: CHANGE USER NAME IN ACCOUNTING
  2776				;&####INPUT UUN (THREE BYTES)
  2777	003754'	260740	013660'	CHUNAM:	PUSHJ P,SAVB1
  2778	003755'	200040	023277'		MOVE A,[XWD UINFO+NUNAME,OLDNAM]
  2779	003756'	251040	022031'		BLT A,OLDNAM+2
  2780	003757'	661000	004000		TLO F,ASCIO
  2781	003760'	260740	012275'		PUSHJ P,GNWNAM	;&####INPUT NEW USER NAME (TWELVE BYTES)
  2782	003761'	260740	015424'		PUSHJ P,UFIND
  2783	003762'	260740	000622'		PUSHJ P,NOTFND
  2784	003763'	200040	023300'		MOVE A,[XWD NNAME,UINFO+NUNAME]
  2785	003764'	251040	021145'		BLT A,UINFO+NUNAME+2
  2786	003765'	254000	002671'		JRST NEWURC
UPDLUD - ACCTG., LUD UPDATER	MACRO 12.5-46.0 17:15 19-SEP-89 PAGE 68
UPDLUD.MAC	24-MAY-89 18:55		CODE 63 - CHANGE CUSTOMER NUMBER

  2787				SUBTTL CODE 63 - CHANGE CUSTOMER NUMBER
  2788				;&.SKIP 2
  2789				;&CODE 63: CHANGE CUSTOMER NUMBER FOR A UUN
  2790				;&####INPUT UUN (THREE BYTES)
  2791	003766'	260740	012242'	CHGCUS:	PUSHJ P,CUSTIN	;&####INPUT CUSTOMER NUMBER (THREE BYTES)
  2792	003767'	260740	013362'		PUSHJ P,CHKINF
  2793	003770'	202000	023033'		MOVEM F,SAVF
  2794	003771'	260740	015424'		PUSHJ P,UFIND	;LOOKUP USER SO DIST CAN BE CHECKED
  2795	003772'	260740	000622'		PUSHJ P,NOTFND
  2796	003773'	266700	003731*		JSA 16,DBCLOS
  2797	003774'	200000	023033'		MOVE F,SAVF
  2798	003775'	200300	021147'	        MOVE N,UINFO+NUCUSN
  2799	003776'	202300	022025'	        MOVEM N,OLDNUM
  2800	003777'	402000	022614'		SETZM CPCODE	;CLEAR AREA TO SAVE P-CODE FOR EACH AST
  2801	004000'	402000	022615'		SETZM CPCODE+1
  2802	004001'	402000	022616'		SETZM CPCODE+2
  2803	004002'	202000	023033'		MOVEM F,SAVF
  2804	004003'	266700	003550*		JSA 16,DBOPEN
  2805	004004'	320240	021076'		ARG 5,USYSDB
  2806	004005'	320240	021070'		ARG 5,CUSTDB
  2807	004006'	200000	023033'		MOVE F,SAVF
  2808	004007'	260740	005055'		PUSHJ P,USFNDA	;FIND ALL USYSDB RECORDS
  2809	004010'	336040	023021'		SKIPN A,NUMRET
  2810	004011'	260740	000622'		PUSHJ P,NOTFND
  2811	004012'	202040	023015'		MOVEM A,NASTS#
  2812	004013'	266700	003623*	CHGC1:	JSA 16,DBSET
  2813	004014'	320000	020332'		ARG ONE
  2814	004015'	266700	003574*		JSA 16,DBGET	;GET NEXT USYSDB RECORD
  2815	004016'	320000	021160'		ARG USINFO
  2816	004017'	320000	004042'		ARG CHGC2
  2817	004020'	200300	021161'		MOVE N,USINFO+NUSYSC	;SAVE AST
  2818	004021'	202300	021515'		MOVEM N,CINFO+NCSYSC
  2819	004022'	266700	004013*		JSA 16,DBSET
  2820	004023'	320000	020333'		ARG TWO
  2821	004024'	260740	013547'		PUSHJ P,CHKCUS+1	;LOOKUP CUST FOR AST
  2822	004025'	260740	000647'		PUSHJ P,BADCUS
  2823	004026'	200040	021516'		MOVE A,CINFO+NCDIST
  2824	004027'	312040	021146'		CAME A,UINFO+NUDIST	;IF DISTS DO NOT MATCH,
  2825	004030'	260740	000647'		PUSHJ P,BADCUS	;ERROR
  2826	004031'	200040	021536'		MOVE A,CINFO+NVPF	;CHECK VARIABLE PRICING FLAG
  2827	004032'	302040	000001		CAIE A,1		;IF NOT 1, DON'T BOTHER CHANGING P CODE
  2828	004033'	254000	004040'		JRST CHGC6
  2829	004034'	200040	021537'		MOVE A,CINFO+NDPRI
  2830	004035'	200100	021515'		MOVE B,CINFO+NCSYSC
  2831	004036'	312040	021163'		CAME A,USINFO+NPRICOD
  2832	004037'	202042	022613'		MOVEM A,CPCODE-1(B)	;SAVE CUST PCODE IF IT DOES NOT MATCH
  2833	004040'	373000	023015'	CHGC6:	SOSLE NASTS
  2834	004041'	254000	004013'		JRST CHGC1
  2835	004042'	266700	004022*	CHGC2:	JSA 16,DBSET
  2836	004043'	320000	020333'		ARG TWO
  2837	004044'	266700	003773*		JSA 16,DBCLOS
  2838	004045'	200000	023033'		MOVE F,SAVF
  2839	004046'	201100	000003		MOVEI B,3
UPDLUD - ACCTG., LUD UPDATER	MACRO 12.5-46.0 17:15 19-SEP-89 PAGE 68-2
UPDLUD.MAC	24-MAY-89 18:55		CODE 63 - CHANGE CUSTOMER NUMBER

  2840	004047'	202100	023015'		MOVEM B,NASTS
  2841	004050'	202100	021161'	CHGC4:	MOVEM B,USINFO+NUSYSC
  2842	004051'	336042	022613'		SKIPN A,CPCODE-1(B)
  2843	004052'	254000	004061'		JRST CHGC5
  2844	004053'	260740	015452'		PUSHJ P,USFIND
  2845	004054'	254000	004063'		 JRST CHGC3
  2846	004055'	200042	022613'		MOVE A,CPCODE-1(B)
  2847	004056'	202040	021163'		MOVEM A,USINFO+NPRICOD
  2848	004057'	260740	002713'		PUSHJ P,MKNUS
  2849	004060'	200000	023033'		MOVE F,SAVF
  2850	004061'	373100	023015'	CHGC5:	SOSLE B,NASTS
  2851	004062'	254000	004050'		JRST CHGC4
  2852	004063'	266700	004044*	CHGC3:	JSA 16,DBCLOS
  2853	004064'	200000	023033'		MOVE F,SAVF
  2854	004065'	260740	015424'		PUSHJ P,UFIND
  2855	004066'	260740	000622'		PUSHJ P,NOTFND
  2856	004067'	200300	021514'	   	MOVE N,CINFO+NCUSNUM
  2857	004070'	202300	021147'		MOVEM N,UINFO+NUCUSN
  2858	004071'	260740	002674'	        PUSHJ P,MKNUSR
  2859	004072'	200300	022025'	        MOVE N,OLDNUM
  2860	004073'	202300	021147'	        MOVEM N,UINFO+NUCUSN
  2861	004074'	260740	004076'	        PUSHJ P,CKCST
  2862	004075'	254000	003157'	        JRST CHEND
  2863
  2864
  2865	004076'	200000	023033'	CKCST:  MOVE F,SAVF
  2866	004077'	266700	003553*	        JSA 16,DBFIND
  2867	004100'	320000	022723'	        ARG TUCNUM
  2868	004101'	320000	022707'	        ARG EQUALS
  2869	004102'	320000	021147'	        ARG UINFO+NUCUSN
  2870	004103'	320000	022711'	        ARG X22AND
  2871	004104'	320000	022731'	        ARG TUSTP
  2872	004105'	320000	022707'	        ARG EQUALS
  2873	004106'	320000	022706'	        ARG NSTOP
  2874	004107'	266700	003563*	        JSA 16,DBNREC
  2875	004110'	320000	023022'	        ARG NUUNS
  2876	004111'	200000	023033'	        MOVE F,SAVF
  2877	004112'	336000	023022'	        SKIPN NUUNS
  2878	004113'	260740	004115'	        PUSHJ P,CNCCUS  ;&####NO USERS LEFT FOR OLD CUST NUM, CANCEL OLD
  2879	004114'	263740	000000	        POPJ P,0
  2880
  2881
  2882	004115'	201100	000003	CNCCUS: MOVEI B,3
  2883	004116'	202100	023015'	        MOVEM B,NASTS
  2884	004117'	260740	004701'	CNCC1:  PUSHJ P,CNCUS
  2885	004120'	372100	023015'	        SOSE B,NASTS
  2886	004121'	254000	004117'	        JRST CNCC1
  2887	004122'	200000	023033'	        MOVE F,SAVF
  2888	004123'	263740	000000	        POPJ P,0
  2889
UPDLUD - ACCTG., LUD UPDATER	MACRO 12.5-46.0 17:15 19-SEP-89 PAGE 69
UPDLUD.MAC	24-MAY-89 18:55		CODE 64 - CHANGE SALESMAN FOR A USER

  2890				SUBTTL CODE 64 - CHANGE SALESMAN FOR A USER
  2891
  2892				;&.SKIP 2
  2893				;&CODE 64: CHANGE SALESMAN FOR A USER
  2894				;&####INPUT UUN (THREE BYTES)
  2895				;&####INPUT ACCOUNTING SYSTEM TYPE (ONE BYTE)
  2896	004124'	260740	013063'	CHUSLS:	PUSHJ P,GETSLS	;&####INPUT SALESMAN (ONE BYTE)
  2897	004125'	254000	002710'		JRST NEWUSRC
  2898
  2899
  2900				;&.SKIP 2
  2901				;&CODE 65: LIST ALL USERS (FOR MUD CHECK)
  2902	004126'	660000	000100	LISTAL:	TRO F,ALLIOI	;&####FOR EACH TYMSHARE USER:
  2903	004127'	260740	015347'		PUSHJ P,UINIT
  2904	004130'	266700	004077*		JSA 16,DBFIND
  2905	004131'	320000	022731'		ARG TUSTP
  2906	004132'	320000	022707'		ARG EQUALS
  2907	004133'	320000	022706'		ARG NSTOP
  2908	004134'	266700	004107*		JSA 16,DBNREC
  2909	004135'	320000	023021'		ARG NUMRET
  2910	004136'	266700	004015*	LSTNXT:	JSA 16,DBGET
  2911	004137'	320000	021141'		ARG UINFO
  2912	004140'	320000	004147'		ARG LSTAL1
  2913	004141'	200000	023033'		MOVE F,SAVF
  2914	004142'	661000	004000		TLO F,ASCIO
  2915	004143'	260740	013540'		PUSHJ P,SENDOK	;&########OUTPUT 1 OR ERROR
  2916	004144'	260740	011760'		PUSHJ P,NAMOUT	;&########OUTPUT USER NAME (TWELVE BYTES)
  2917	004145'	373000	023021'		SOSLE NUMRET
  2918	004146'	254000	004136'		JRST LSTNXT
  2919	004147'	201300	000376	LSTAL1:	MOVEI N,376
  2920	004150'	606000	000010		TRNN F,TTYOUT
  2921	004151'	260740	015146'		PUSHJ P,ONEOUT	;&####END WITH 376B
  2922	004152'	266700	004063*		JSA 16,DBCLOSE
  2923	004153'	200000	023033'		MOVE F,SAVF
  2924	004154'	260740	015405'		PUSHJ P,YINIT	;&####FOR EACH TYMCOM-III USER:
  2925	004155'	266700	004130*		JSA 16,DBFIND
  2926	004156'	320000	022733'		ARG TUCSTP
  2927	004157'	320000	022707'		ARG EQUALS
  2928	004160'	320000	022706'		ARG NSTOP
  2929	004161'	266700	004134*		JSA 16,DBNREC
  2930	004162'	320000	023021'		ARG NUMRET
  2931	004163'	266700	004136*	LSTNX1:	JSA 16,DBGET
  2932	004164'	320000	021160'		ARG USINFO
  2933	004165'	320000	004175'		ARG LSTAL2
  2934	004166'	200000	023033'		MOVE F,SAVF
  2935	004167'	661000	004000		TLO F,ASCIO
  2936	004170'	260740	013540'		PUSHJ P,SENDOK	;&########OUTPUT 1 OR ERROR
  2937	004171'	200640	023301'		MOVE BP,[POINT 7,USINFO+NUNAME]
  2938	004172'	260740	011761'		PUSHJ P,NAMOUT+1	;&########OUTPUT USER NAME (TWELVE BYTES)
  2939	004173'	373000	023021'		SOSLE NUMRET
  2940	004174'	254000	004163'		JRST LSTNX1
  2941	004175'	266700	004152*	LSTAL2:	JSA 16,DBCLOSE
  2942	004176'	200000	023033'		MOVE F,SAVF
UPDLUD - ACCTG., LUD UPDATER	MACRO 12.5-46.0 17:15 19-SEP-89 PAGE 69-2
UPDLUD.MAC	24-MAY-89 18:55		CODE 64 - CHANGE SALESMAN FOR A USER

  2943	004177'	260740	013530'		PUSHJ P,SENDEND	;&####END WITH 377B
  2944	004200'	254000	000137'		JRST LUDUP1
UPDLUD - ACCTG., LUD UPDATER	MACRO 12.5-46.0 17:15 19-SEP-89 PAGE 70
UPDLUD.MAC	24-MAY-89 18:55		CODE 64 - CHANGE SALESMAN FOR A USER

  2945				;&.SKIP 2
  2946				;&CODE 66:  LIST ALL CUSTOMERS FOR A COSTCODE
  2947	004201'	260740	012453'	LACUC1: PUSHJ P,COCOIN  ;&####INPUT COSTCODE (THREE BYTES)
  2948	004202'	660000	000100	        TRO F,ALLIOI    ;&####FOR EACH CUSTOMER:
  2949	004203'	202000	023033'	        MOVEM F,SAVF
  2950	004204'	266700	004003*	        JSA 16,DBOPEN
  2951	004205'	320240	021070'	        ARG 5,CUSTDB
  2952	004206'	320240	021072'	        ARG 5,ADDRDB
  2953	004207'	266700	004155*	        JSA 16,DBFIND
  2954	004210'	320000	022724'	        ARG TCCOCO
  2955	004211'	320000	022707'	        ARG EQUALS
  2956	004212'	320000	021542'	        ARG CINFO+NCCOST
  2957	004213'	320000	022711'	        ARG X22AND
  2958	004214'	320000	022732'	        ARG TCSTP
  2959	004215'	320000	022707'	        ARG EQUALS
  2960	004216'	320000	022706'	        ARG NSTOP
  2961	004217'	266700	004161*	        JSA 16,DBNREC
  2962	004220'	320000	023021'	        ARG NUMRET
  2963	004221'	200000	023033'	        MOVE F,SAVF
  2964	004222'	336000	023021'	        SKIPN NUMRET
  2965	004223'	260740	000622'	         PUSHJ P,NOTFND
  2966	004224'	260740	013540'	        PUSHJ P,SENDOK
  2967	004225'	266700	003570*	        JSA 16,DBSORT
  2968	004226'	320000	022722'	        ARG TCCNUM
  2969	004227'	320000	022735'	        ARG TASYSC
  2970	004230'	266700	004042*	LACUC3: JSA 16,DBSET
  2971	004231'	320000	020332'	        ARG ONE
  2972	004232'	266700	004163*	        JSA 16,DBGET
  2973	004233'	320000	021514'	        ARG CINFO
  2974	004234'	320000	005647'	        ARG LSTUSR
  2975	004235'	266700	004230*	        JSA 16,DBSET
  2976	004236'	320000	020333'	        ARG TWO
  2977	004237'	266700	004207*	        JSA 16,DBFIND
  2978	004240'	320000	022722'	        ARG TCCNUM
  2979	004241'	320000	022707'	        ARG EQUALS
  2980	004242'	320000	021514'	        ARG CINFO+NCUSNUM
  2981	004243'	320000	022711'	        ARG X22AND
  2982	004244'	320000	022735'	        ARG TASYSC
  2983	004245'	320000	022707'	        ARG EQUALS
  2984	004246'	320000	021515'	        ARG CINFO+NCSYSC
  2985	004247'	266700	004217*	        JSA 16,DBNREC
  2986	004250'	320000	023021'	        ARG NUMRET
  2987	004251'	200000	023033'	        MOVE F,SAVF
  2988	004252'	336300	023021'	        SKIPN N,NUMRET
  2989	004253'	254000	004230'	        JRST LACUC3
  2990	004254'	266700	004232*	NACUC1: JSA 16,DBGET
  2991	004255'	320000	021545'	        ARG AINFO
  2992	004256'	320000	004230'	        ARG LACUC3
  2993	004257'	200300	021545'	        MOVE N,AINFO+NACUSNUM
  2994	004260'	200000	023033'	        MOVE F,SAVF
  2995	004261'	260740	015151'	        PUSHJ P,NUMOUT  ;&####OUTPUT CUSTOMER NUMBER (THREE BYTES)
  2996	004262'	602000	000010	        TRNE F,TTYOUT
  2997	004263'	051140	020065'	        OUTSTR M2SPACE
UPDLUD - ACCTG., LUD UPDATER	MACRO 12.5-46.0 17:15 19-SEP-89 PAGE 70-2
UPDLUD.MAC	24-MAY-89 18:55		CODE 64 - CHANGE SALESMAN FOR A USER

  2998	004264'	200300	021546'	        MOVE N,AINFO+NASYSC
  2999	004265'	260740	015146'	        PUSHJ P,ONEOUT  ;&####OUTPUT ACCTG. SYS. TYPE (ONE BYTE)
  3000	004266'	602000	000010	        TRNE F,TTYOUT
  3001	004267'	051140	020065'	        OUTSTR M2SPACE
  3002	004270'	260740	011704'	        PUSHJ P,CNAMOUT ;&####OUTPUT CUSTOMER NAME (FIFTY-ONE BYTES)
  3003	004271'	254000	004230'	        JRST LACUC3
  3004	004272'	254000	005647'	        JRST LSTUSR
  3005
  3006
UPDLUD - ACCTG., LUD UPDATER	MACRO 12.5-46.0 17:15 19-SEP-89 PAGE 71
UPDLUD.MAC	24-MAY-89 18:55		CODE 64 - CHANGE SALESMAN FOR A USER

  3007				;&.SKIP 2
  3008				;&CODE 67:  LIST ALL USERS FOR A COSTCODE
  3009	004273'	661000	000100	LAUSC1: TLO F,NAMESO
  3010	004274'	260740	012453'	        PUSHJ P,COCOIN  ;&####INPUT COSTCODE (THREE BYTES)
  3011	004275'	660000	000100	        TRO F,ALLIOI    ;&####FOR EACH USER:
  3012	004276'	202000	023033'	        MOVEM F,SAVF
  3013	004277'	266700	004204*	        JSA 16,DBOPEN
  3014	004300'	320240	021074'	        ARG 5,USERDB
  3015	004301'	320240	021100'	        ARG 5,VALDB
  3016	004302'	266700	004237*	        JSA 16,DBFIND
  3017	004303'	320000	022725'	        ARG TUCOCO
  3018	004304'	320000	022707'	        ARG EQUALS
  3019	004305'	320000	021156'	        ARG UINFO+NUCOST
  3020	004306'	320000	022711'	        ARG X22AND
  3021	004307'	320000	022731'	        ARG TUSTP
  3022	004310'	320000	022707'	        ARG EQUALS
  3023	004311'	320000	022706'	        ARG NSTOP
  3024	004312'	266700	004247*	        JSA 16,DBNREC
  3025	004313'	320000	023022'	        ARG NUUNS
  3026	004314'	200000	023033'	        MOVE F,SAVF
  3027	004315'	336000	023022'	        SKIPN NUUNS
  3028	004316'	260740	000622'	         PUSHJ P,NOTFND
  3029	004317'	260740	013540'	        PUSHJ P,SENDOK
  3030	004320'	266700	004225*	        JSA 16,DBSORT
  3031	004321'	320000	022723'	        ARG TUCNUM
  3032	004322'	320000	022716'	        ARG TGAN
  3033	004323'	320000	022715'	        ARG TUNAME
  3034	004324'	266700	004254*	NAUSC1: JSA 16,DBGET
  3035	004325'	320000	021141'	        ARG UINFO
  3036	004326'	320000	005647'	        ARG LSTUSR
  3037				;       PUSHJ P,GTHSTS
  3038				;       SKIPN N,NSITES
  3039				;       JRST [PUSHJ P,CLRSIT
  3040				;               JRST .+2]
  3041				;       PUSHJ P,VFIND+2
  3042				;        JFCL
  3043	004327'	200000	023033'	        MOVE F,SAVF
  3044	004330'	200300	021147'	        MOVE N,UINFO+NUCUSN
  3045	004331'	260740	015151'	        PUSHJ P,NUMOUT  ;&####OUTPUT CUSTOMER NUMBER (THREE BYTES)
  3046	004332'	602000	000010	        TRNE F,TTYOUT
  3047	004333'	051140	020065'	        OUTSTR M2SPACE
  3048	004334'	200300	021141'	        MOVE N,UINFO+NGAN
  3049	004335'	260740	013334'	        PUSHJ P,DECOCT
  3050	004336'	661000	000010	        TLO F,OCTINF
  3051	004337'	260740	015151'	        PUSHJ P,NUMOUT  ;&####OUTPUT GLOBAL ACCOUNT (THREE BYTES)
  3052	004340'	602000	000010	        TRNE F,TTYOUT
  3053	004341'	051140	020065'	        OUTSTR M2SPACE
  3054	004342'	661000	004000	        TLO F,ASCIO
  3055	004343'	260740	011760'	        PUSHJ P,NAMOUT  ;&####OUTPUT USER NAME (TWELVE BYTES)
  3056	004344'	607000	000100	        TLNN F,NAMESO
  3057	004345'	260740	011642'	        PUSHJ P,SITOUT
  3058	004346'	266700	004235*	        JSA 16,DBSET
  3059	004347'	320000	020332'	        ARG ONE
UPDLUD - ACCTG., LUD UPDATER	MACRO 12.5-46.0 17:15 19-SEP-89 PAGE 71-2
UPDLUD.MAC	24-MAY-89 18:55		CODE 64 - CHANGE SALESMAN FOR A USER

  3060	004350'	373000	023022'	        SOSLE NUUNS
  3061	004351'	254000	004324'	        JRST NAUSC1
  3062	004352'	254000	005647'	        JRST LSTUSR     ;&####END WITH 377B
UPDLUD - ACCTG., LUD UPDATER	MACRO 12.5-46.0 17:15 19-SEP-89 PAGE 72
UPDLUD.MAC	24-MAY-89 18:55		CODE 64 - CHANGE SALESMAN FOR A USER

  3063				;&.SKIP 2
  3064				;&CODE 70: CHANGE USER CURRENCY CODE
  3065				;&####INPUT UUN (THREE BYTES)
  3066	004353'	260740	013152'	CHCURR:	PUSHJ P,GETCUR  ;&####INPUT CURRENCY CODE (ONE BYTE)
  3067	004354'	254000	002671'		JRST NEWURC
  3068				;&SKIP 2
  3069				;&CODE 71: CHANGE USER GAN
  3070				;&####INPUT UUN (THREE BYTES)
  3071	004355'	260740	012176'	CHUGAN: PUSHJ P,GANIN   ;&####INPUT GAN (THREE BYTES)
  3072	004356'	200300	021141'	        MOVE N,UINFO+NGAN
  3073	004357'	202300	023000'	        MOVEM N,GAN     ;SAVE NEW GAN BEFORE OVERWITING IT WITH DBGET
  3074	004360'	202000	023033'	        MOVEM F,SAVF
  3075	004361'	266700	004277*	        JSA 16,DBOPEN
  3076	004362'	320000	021074'	        ARG USERDB
  3077	004363'	320000	021100'	        ARG VALDB
  3078	004364'	266700	004346*	        JSA 16,DBSET
  3079	004365'	320000	020332'	        ARG ONE
  3080	004366'	266700	004302*	        JSA 16,DBFIND
  3081	004367'	320000	022721'	        ARG TUUUN
  3082	004370'	320000	022707'	        ARG EQUALS
  3083	004371'	320000	021142'	        ARG UINFO+NUUN
  3084	004372'	320000	022711'	        ARG X22AND
  3085	004373'	320000	022731'	        ARG TUSTP
  3086	004374'	320000	022707'	        ARG EQUALS
  3087	004375'	320000	022706'	        ARG NSTOP
  3088	004376'	200000	023033'	        MOVE F,SAVF
  3089	004377'	266700	004324*	        JSA 16,DBGET
  3090	004400'	320000	021141'	        ARG UINFO
  3091	004401'	320000	004475'	        ARG NCHGAN
  3092	004402'	200300	023000'	        MOVE N,GAN
  3093	004403'	202300	021141'	        MOVEM N,UINFO+NGAN      ;PUT NEW GAN BACK IN UINFO TABLE
  3094	004404'	266700	004366*	        JSA 16,DBFIND
  3095	004405'	320000	022716'	        ARG TGAN
  3096	004406'	320000	022707'	        ARG EQUALS
  3097	004407'	320000	021141'	        ARG UINFO+NGAN
  3098	004410'	320000	022711'	        ARG X22AND
  3099	004411'	320000	022727'	        ARG TUDIST
  3100	004412'	320000	022707'	        ARG EQUALS
  3101	004413'	320000	021146'	        ARG UINFO+NUDIST
  3102	004414'	320000	022711'	        ARG X22AND
  3103	004415'	320000	022731'	        ARG TUSTP
  3104	004416'	320000	022707'	        ARG EQUALS
  3105	004417'	320000	022706'	        ARG NSTOP
  3106	004420'	266700	004312*	        JSA 16,DBNREC
  3107	004421'	320000	023021'	        ARG NUMRET
  3108	004422'	200000	023033'	        MOVE F,SAVF
  3109	004423'	337000	023021'	        SKIPG NUMRET
  3110	004424'	254000	000724'	        JRST BADGAN
  3111	004425'	260740	013362'	        PUSHJ P,CHKINF
  3112	004426'	266700	004364*	        JSA 16,DBSET
  3113	004427'	320000	020333'	        ARG TWO
  3114	004430'	266700	004404*	        JSA 16,DBFIND           ;FIND VALDAT RECS TO CHANGE
  3115	004431'	320000	022720'	        ARG TUSUUN              ;UUN IN VALDAT
UPDLUD - ACCTG., LUD UPDATER	MACRO 12.5-46.0 17:15 19-SEP-89 PAGE 72-2
UPDLUD.MAC	24-MAY-89 18:55		CODE 64 - CHANGE SALESMAN FOR A USER

  3116	004432'	320000	022707'	        ARG EQUALS
  3117	004433'	320000	021173'	        ARG VINFO+NUSUUN
  3118	004434'	320000	022711'	        ARG X22AND
  3119	004435'	320000	022734'	        ARG TVSTP
  3120	004436'	320000	022707'	        ARG EQUALS
  3121	004437'	320000	022706'	        ARG NSTOP
  3122	004440'	266700	004420*	        JSA 16,DBNREC
  3123	004441'	320000	023021'	        ARG NUMRET
  3124	004442'	200000	023033'	        MOVE F,SAVF
  3125	004443'	375000	023021'	CVGNXT: SOSGE NUMRET
  3126	004444'	254000	004457'	        JRST CVGEND
  3127	004445'	266700	004377*	        JSA 16,DBGET
  3128	004446'	320000	021173'	        ARG VINFO
  3129	004447'	320000	004457'	        ARG CVGEND
  3130	004450'	201040	022717'	        MOVEI A,TVGAN
  3131	004451'	201100	021177'	        MOVEI B,VINFO+NVGAN
  3132	004452'	200300	023000'	        MOVE N,GAN
  3133	004453'	202300	021177'	        MOVEM N,VINFO+NVGAN
  3134	004454'	200000	023033'	        MOVE F,SAVF
  3135	004455'	260740	011402'	        PUSHJ P,CHGIT
  3136	004456'	254000	004443'	        JRST CVGNXT
  3137	004457'	255000	000000	CVGEND: JFCL
  3138	004460'	266700	004426*	        JSA 16,DBSET
  3139	004461'	320000	020332'	        ARG ONE
  3140	004462'	266700	004430*	        JSA 16,DBFIND
  3141	004463'	320000	022721'	        ARG TUUUN
  3142	004464'	320000	022707'	        ARG EQUALS
  3143	004465'	320000	021142'	        ARG UINFO+NUUN
  3144	004466'	320000	022711'	        ARG X22AND
  3145	004467'	320000	022731'	        ARG TUSTP
  3146	004470'	320000	022707'	        ARG EQUALS
  3147	004471'	320000	022706'	        ARG NSTOP
  3148	004472'	200000	023033'	        MOVE F,SAVF
  3149	004473'	260740	002674'	        PUSHJ P,MKNUSR
  3150	004474'	254000	003157'	        JRST CHEND
  3151	004475'	260740	000622'	NCHGAN: PUSHJ P,NOTFND
  3152
  3153
  3154
  3155				;&.SKIP 2
  3156				;&CODE 72: CHANGE USER TIME ZONE IN ACCOUNTING
  3157				;&####INPUT UUN (THREE BYTES)
  3158				;&####INPUT ACCOUNTING SYSTEM TYPE (ONE BYTE)
  3159	004476'	260740	012361'	CHUZON:	PUSHJ P,GETZONE	;&####INPUT USER TIME ZONE (ONE BYTE)
  3160	004477'	254000	002710'		JRST NEWUSRC
  3161
  3162
UPDLUD - ACCTG., LUD UPDATER	MACRO 12.5-46.0 17:15 19-SEP-89 PAGE 73
UPDLUD.MAC	24-MAY-89 18:55		CODE 74 - DELETE AN ENTRY IN ACCOUNTING

  3163				SUBTTL CODE 74 - DELETE AN ENTRY IN ACCOUNTING
  3164
  3165				;&.SKIP 2
  3166				;&CODE 74: DELETE AN ENTRY FOR A UUN FOR A HOST IN ACCOUNTING
  3167	004500'	260740	012160'	DELSIT:	PUSHJ P,UUNIN	;&####INPUT UUN (THREE BYTES)
  3168	004501'	260740	012644'		PUSHJ P,GETSIT	;&####INPUT HOST (TWO BYTES)
  3169	004502'	260740	013362'		PUSHJ P,CHKINF
  3170	004503'	402000	020451'		SETZM DAST
  3171	004504'	402000	020452'		SETZM DAST+1
  3172	004505'	402000	020453'		SETZM DAST+2
  3173	004506'	260740	013656'		PUSHJ P,SAVB
  3174	004507'	260740	004757'		PUSHJ P,REMSIT	;REMOVE A HOST FOR A USER
  3175	004510'	201300	000006	        MOVEI N,N
  3176	004511'	261740	000006	        PUSH P,N
  3177	004512'	261740	021174'	        PUSH P,VINFO+NHOST
  3178	004513'	264000	014600'	        JSR WATTYP
  3179	004514'	202300	022770'		MOVEM N,AST#	;SAVE ACCTG. SYS. TYPE
  3180	004515'	260740	015366'		PUSHJ P,VINIT
  3181	004516'	260740	015630'		PUSHJ P,VFIND
  3182	004517'	255000	000000		JFCL
  3183	004520'	266700	004175*		JSA 16,DBCLOS
  3184	004521'	200000	023033'		MOVE F,SAVF
  3185	004522'	336300	023021'		SKIPN N,NUMRET
  3186	004523'	254000	004537'		JRST NOAST
  3187	004524'	201300	000311		MOVEI N,MXTHST+1
  3188	004525'	362300	004537'	NXTS:	SOJE N,NOAST
  3189	004526'	336046	021201'		SKIPN A,SITES-1(N)	;GET HOST NUMBER
  3190	004527'	254000	004525'		JRST NXTS
  3191	004530'	201100	000001	        MOVEI B,A
  3192	004531'	261740	000002	        PUSH P,B
  3193	004532'	261740	000001	        PUSH P,A
  3194	004533'	264000	014600'	        JSR WATTYP
  3195	004534'	316040	022770'		CAMN A,AST		;VALID HOST BELONGS TO THIS AST?
  3196	004535'	254000	001070'		JRST DIDIT3		;DONE
  3197	004536'	254000	004525'		JRST NXTS		;NO
  3198	004537'	200040	022770'	NOAST:	MOVE A,AST
  3199	004540'	202040	021161'		MOVEM A,USINFO+NUSYSC
  3200	004541'	260740	015452'		PUSHJ P,USFIND
  3201	004542'	254000	001070'		JRST DIDIT3
  3202	004543'	200300	023043'		MOVE N,TODAY
  3203	004544'	202300	021170'		MOVEM N,USINFO+NSYSTOP
  3204	004545'	201040	022730'		MOVEI A,TUSSTP
  3205	004546'	201100	021170'		MOVEI B,USINFO+NSYSTOP
  3206	004547'	260740	011402'		PUSHJ P,CHGIT
  3207	004550'	266700	004520*		JSA 16,DBCLOS
  3208	004551'	200000	023033'		MOVE F,SAVF
  3209	004552'	200040	022770'		MOVE A,AST
  3210	004553'	202041	020450'		MOVEM A,DAST-1(A)
  3211	004554'	260740	015342'		PUSHJ P,USINIT
  3212	004555'	266700	004462*		JSA 16,DBFIND
  3213	004556'	320000	022720'		ARG TUSUUN
  3214	004557'	320000	022707'		ARG EQUALS
  3215	004560'	320000	021160'		ARG USINFO+NUSUUN
UPDLUD - ACCTG., LUD UPDATER	MACRO 12.5-46.0 17:15 19-SEP-89 PAGE 73-2
UPDLUD.MAC	24-MAY-89 18:55		CODE 74 - DELETE AN ENTRY IN ACCOUNTING

  3216	004561'	320000	022711'		ARG X22AND
  3217	004562'	320000	022730'		ARG TUSSTP
  3218	004563'	320000	022707'		ARG EQUALS
  3219	004564'	320000	022706'		ARG NSTOP
  3220	004565'	266700	004440*		JSA 16,DBNREC
  3221	004566'	320000	023021'		ARG NUMRET
  3222	004567'	200000	023033'		MOVE F,SAVF
UPDLUD - ACCTG., LUD UPDATER	MACRO 12.5-46.0 17:15 19-SEP-89 PAGE 74
UPDLUD.MAC	24-MAY-89 18:55		CODE 74 - DELETE AN ENTRY IN ACCOUNTING

  3223	004570'	332000	023021'		SKIPE NUMRET
  3224	004571'	254000	004575'		JRST CKCCUS
  3225	004572'	260740	004605'		PUSHJ P,CANUSR
  3226	004573'	260740	000700'		PUSHJ P,USRLFT
  3227	004574'	254000	001070'		JRST DIDIT3
  3228
  3229
  3230	004575'	266700	004361*	CKCCUS:	JSA 16,DBOPEN
  3231	004576'	320240	021074'		ARG 5,USERDB
  3232	004577'	320240	021076'		ARG 5,USYSDB
  3233	004600'	200000	023033'		MOVE F,SAVF
  3234	004601'	260740	015425'		PUSHJ P,UFIND+1
  3235	004602'	263740	000000		POPJ P,0
  3236	004603'	260740	004617'		PUSHJ P,CANCUS
  3237	004604'	254000	001070'		JRST DIDIT3
  3238
  3239
  3240	004605'	202000	023033'	CANUSR:	MOVEM F,SAVF
  3241	004606'	266700	004575*		JSA 16,DBOPEN
  3242	004607'	320240	021074'		ARG 5,USERDB
  3243	004610'	320240	021076'		ARG 5,USYSDB
  3244	004611'	200000	023033'		MOVE F,SAVF
  3245	004612'	260740	015425'		PUSHJ P,UFIND+1
  3246	004613'	254000	004617'		JRST CANCUS
  3247	004614'	201040	022731'		MOVEI A,TUSTP
  3248	004615'	201100	023043'		MOVEI B,TODAY
  3249	004616'	260740	011402'		PUSHJ P,CHGIT
  3250	004617'	200040	021147'	CANCUS:	MOVE A,UINFO+NUCUSN
  3251	004620'	306040	000001		CAIN A,1
  3252	004621'	254000	004674'		JRST NCANCS+2
  3253	004622'	202000	023033'		MOVEM F,SAVF
  3254	004623'	266700	004460*		JSA 16,DBSET
  3255	004624'	320000	020332'		ARG ONE
  3256	004625'	200000	023033'		MOVE F,SAVF
  3257	004626'	201100	000003		MOVEI B,3
  3258	004627'	202100	023015'		MOVEM B,NASTS
  3259	004630'	336042	020450'	CANCS1:	SKIPN A,DAST-1(B)
  3260	004631'	254000	004672'		JRST NCANCS
  3261	004632'	202000	023033'		MOVEM F,SAVF
  3262	004633'	266700	004555*		JSA 16,DBFIND
  3263	004634'	320000	022723'		ARG TUCNUM
  3264	004635'	320000	022707'		ARG EQUALS
  3265	004636'	320000	021147'		ARG UINFO+NUCUSN
  3266	004637'	320000	022711'		ARG X22AND
  3267	004640'	320000	022731'		ARG TUSTP
  3268	004641'	320000	022707'		ARG EQUALS
  3269	004642'	320000	022706'		ARG NSTOP
  3270	004643'	266700	003026*		JSA 16,DBMAP
  3271	004644'	320000	020333'		ARG TWO
  3272	004645'	320000	022721'		ARG TUUUN
  3273	004646'	320000	022720'		ARG TUSUUN
  3274	004647'	266700	004633*		JSA 16,DBFIND
  3275	004650'	320000	022704'		ARG LAST
UPDLUD - ACCTG., LUD UPDATER	MACRO 12.5-46.0 17:15 19-SEP-89 PAGE 74-2
UPDLUD.MAC	24-MAY-89 18:55		CODE 74 - DELETE AN ENTRY IN ACCOUNTING

  3276	004651'	320000	022711'		ARG X22AND
  3277	004652'	320000	022730'		ARG TUSSTP
  3278	004653'	320000	022707'		ARG EQUALS
  3279	004654'	320000	022706'		ARG NSTOP
  3280	004655'	320000	022711'		ARG X22AND
  3281	004656'	320000	022735'		ARG TASYSC
  3282	004657'	320000	022707'		ARG EQUALS
  3283	004660'	320000	023015'		ARG NASTS
  3284	004661'	266700	004565*		JSA 16,DBNREC
  3285	004662'	320000	023022'		ARG NUUNS
  3286	004663'	200000	023033'		MOVE F,SAVF
  3287	004664'	336000	023022'		SKIPN NUUNS
  3288	004665'	260740	004701'		PUSHJ P,CNCUS
  3289	004666'	202000	023033'		MOVEM F,SAVF
  3290	004667'	266700	004623*		JSA 16,DBSET
  3291	004670'	320000	020332'		ARG ONE
  3292	004671'	200000	023033'		MOVE F,SAVF
  3293	004672'	372100	023015'	NCANCS:	SOSE B,NASTS
  3294	004673'	254000	004630'		JRST CANCS1
  3295	004674'	202000	023033'		MOVEM F,SAVF
  3296	004675'	266700	004550*		JSA 16,DBCLOS
  3297	004676'	266700	004675*		JSA 16,DBCLOS
  3298	004677'	200000	023033'		MOVE F,SAVF
  3299	004700'	263740	000000		POPJ P,0
  3300
  3301
  3302	004701'	200040	021147'	CNCUS:	MOVE A,UINFO+NUCUSN
  3303	004702'	202040	021514'		MOVEM A,CINFO+NCUSNUM
  3304	004703'	200100	023015'		MOVE B,NASTS
  3305	004704'	202100	021515'		MOVEM B,CINFO+NCSYSC
  3306	004705'	202000	023033'		MOVEM F,SAVF
  3307	004706'	266700	004606*	CNCUS1:	JSA 16,DBOPEN
  3308	004707'	320000	022701'		ARG NOCLOS
  3309	004710'	320000	021070'		ARG CUSTDB
  3310	004711'	200000	023033'		MOVE F,SAVF
  3311	004712'	260740	015504'		PUSHJ P,CFIND+1
  3312	004713'	254000	004721'		JRST CNCUSR
  3313	004714'	200300	023043'		MOVE N,TODAY
  3314	004715'	202300	021520'		MOVEM N,CINFO+NCDSTOP
  3315	004716'	201040	022732'		MOVEI A,TCSTP
  3316	004717'	201100	021520'		MOVEI B,CINFO+NCDSTOP
  3317	004720'	260740	011402'		PUSHJ P,CHGIT
  3318	004721'	266700	004676*	CNCUSR:	JSA 16,DBCLOSE
  3319	004722'	200000	023033'		MOVE F,SAVF
  3320	004723'	263740	000000		POPJ P,0
UPDLUD - ACCTG., LUD UPDATER	MACRO 12.5-46.0 17:15 19-SEP-89 PAGE 75
UPDLUD.MAC	24-MAY-89 18:55		CODE 74 - DELETE AN ENTRY IN ACCOUNTING

  3321	004724'	260740	015366'	V1FIND:	PUSHJ P,VINIT
  3322	004725'	202000	023033'		MOVEM F,SAVF
  3323	004726'	266700	004647*		JSA 16,DBFIND
  3324	004727'	320000	022720'		ARG TUSUUN
  3325	004730'	320000	022707'		ARG EQUALS
  3326	004731'	320000	022714'		ARG DBUUN
  3327	004732'	320000	022711'		ARG X22AND
  3328	004733'	320000	022734'		ARG TVSTP
  3329	004734'	320000	022707'		ARG EQUALS
  3330	004735'	320000	022706'		ARG NSTOP
  3331	004736'	320000	022711'		ARG X22AND
  3332	004737'	320000	022746'		ARG TVHOST
  3333	004740'	320000	022707'		ARG EQUALS
  3334	004741'	320000	021174'		ARG VINFO+NHOST
  3335	004742'	266700	004661*		JSA 16,DBNREC
  3336	004743'	320000	023021'		ARG NUMRET#
  3337	004744'	200000	023033'		MOVE F,SAVF
  3338	004745'	336300	023021'		SKIPN N,NUMRET
  3339	004746'	263740	000000		POPJ P,0
  3340	004747'	302300	000001		CAIE N,1
  3341	004750'	260740	000676'		PUSHJ P,DUPERR
  3342	004751'	266700	004445*		JSA 16,DBGET
  3343	004752'	320000	021173'		ARG VINFO
  3344	004753'	320000	004754'		ARG .+1
  3345	004754'	200000	023033'		MOVE F,SAVF
  3346	004755'	350017	000000		AOS (P)
  3347	004756'	263740	000000		POPJ P,0
  3348
  3349	004757'	260740	004724'	REMSIT:	PUSHJ P,V1FIND
  3350	004760'	263740	000000		POPJ P,0
  3351	004761'	260740	014703'		PUSHJ P,GETTOD
  3352	004762'	202300	021176'		MOVEM N,VINFO+NVSTOP
  3353	004763'	201040	022734'		MOVEI A,TVSTP
  3354	004764'	201100	021176'		MOVEI B,VINFO+NVSTOP
  3355	004765'	260740	011402'		PUSHJ P,CHGIT
  3356	004766'	266700	004721*		JSA 16,DBCLOS
  3357	004767'	200000	023033'		MOVE F,SAVF
  3358	004770'	263740	000000		POPJ P,0
UPDLUD - ACCTG., LUD UPDATER	MACRO 12.5-46.0 17:15 19-SEP-89 PAGE 76
UPDLUD.MAC	24-MAY-89 18:55		CODE 75 CHANGE USER'S DISTRICT IN ACCOUNTING

  3359				SUBTTL CODE 75 CHANGE USER'S DISTRICT IN ACCOUNTING
  3360
  3361				;&.SKIP 2
  3362				;&CODE 75: CHANGE USER'S DISTRICT IN ACCOUNTING
  3363				;&####INPUT UUN (THREE BYTES)
  3364	004771'	260740	012436'	CHUDIS:	PUSHJ P,GETDIS	;&####INPUT DISTRICT (ONE BYTE)
  3365				        ;SETZM UINFO+NUCOST      ;ZERO THE COSTCODE IN NEW RECORD
  3366	004772'	254000	002671'		JRST NEWURC
  3367
  3368
  3369				;&.SKIP 2
  3370				;&CODE 76: CANCEL USER
  3371	004773'	260740	012160'	DELUUN:	PUSHJ P,UUNIN	;&####INPUT UUN (THREE BYTES)
  3372	004774'	260740	012630'		PUSHJ P,GETSI1	;&####INPUT HOST (TWO BYTES)
  3373	004775'	260740	013362'		PUSHJ P,CHKINF
  3374	004776'	402000	020451'		SETZM DAST
  3375	004777'	402000	020452'		SETZM DAST+1
  3376	005000'	402000	020453'		SETZM DAST+2
  3377	005001'	260740	013656'		PUSHJ P,SAVB
  3378	005002'	260740	014703'		PUSHJ P,GETTOD	;GET TODAY'S DATE
  3379	005003'	260740	015611'		PUSHJ P,VFINDA		;GET ALL VALID HOSTS FOR USER
  3380	005004'	254000	005016'		JRST DLLSIT		;THERE ARE NONE, BE SURE AST'S ARE GONE
  3381	005005'	266700	004751*	DLNSIT:	JSA 16,DBGET		;GET NEXT HOST
  3382	005006'	320000	021173'		ARG VINFO
  3383	005007'	320000	005016'		ARG DLLSIT
  3384	005010'	200000	023033'		MOVE F,SAVF
  3385	005011'	201040	022734'		MOVEI A,TVSTP
  3386	005012'	201100	023043'		MOVEI B,TODAY
  3387	005013'	260740	011402'		PUSHJ P,CHGIT	;SET DSTOP TO TODAY
  3388	005014'	373000	023021'		SOSLE NUMRET		;HAVE WE DONE ALL HOSTS?
  3389	005015'	254000	005005'		JRST DLNSIT		;NO, GO DO NEXT ONE
  3390	005016'	266700	004766*	DLLSIT:	JSA 16,DBCLOS		;CLOSE HOST FILE
  3391	005017'	200000	023033'		MOVE F,SAVF
  3392	005020'	260740	015342'	DLAST:	PUSHJ P,USINIT		;OPEN AST FILE
  3393	005021'	260740	005055'		PUSHJ P,USFNDA
  3394	005022'	336000	023021'		SKIPN NUMRET
  3395	005023'	254000	005037'		JRST DLLAST	;IF NONE, CHECK USER RECORD
  3396	005024'	266700	005005*	DLNAST:	JSA 16,DBGET	;GET NEXT AST FOR THIS USER
  3397	005025'	320000	021160'		ARG USINFO
  3398	005026'	320000	005037'		ARG DLLAST
  3399	005027'	200000	023033'		MOVE F,SAVF
  3400	005030'	200040	021161'		MOVE A,USINFO+NUSYSC
  3401	005031'	202041	020450'		MOVEM A,DAST-1(A)
  3402	005032'	201040	022730'		MOVEI A,TUSSTP
  3403	005033'	201100	023043'		MOVEI B,TODAY
  3404	005034'	260740	011402'		PUSHJ P,CHGIT
  3405	005035'	373000	023021'		SOSLE NUMRET
  3406	005036'	254000	005024'		JRST DLNAST
  3407	005037'	266700	005016*	DLLAST:	JSA    16,DBCLOS
  3408	005040'	200000	023033'		MOVE   F,SAVF
  3409	005041'	202000	023033'		MOVEM  F,SAVF
  3410				        ;  PUSHJ  P,CANUSR
  3411				        ;  PUSHJ P,TYUINI
UPDLUD - ACCTG., LUD UPDATER	MACRO 12.5-46.0 17:15 19-SEP-89 PAGE 76-2
UPDLUD.MAC	24-MAY-89 18:55		CODE 75 CHANGE USER'S DISTRICT IN ACCOUNTING

  3412					;  JSA 16,DBFIND
  3413					;  ARG TUUUN
  3414					;  ARG EQUALS
  3415					;  ARG DBUUN
  3416					;  ARG X22AND
  3417					;  ARG TVSTP
  3418					;  ARG EQUALS
  3419					;  ARG NSTOP
  3420					;  JSA 16,DBNREC
  3421					;  ARG NUMRET
  3422					;  MOVE F,SAVF
  3423					;  SKIPN NUMRET
  3424					;  JRST DIDIT3
  3425					;  MOVEI A,TVSTP
  3426					;  MOVEI B,TODAY
  3427					;  PUSHJ P,CHGIT
  3428				        ; cancel user record in userdb
  3429	005042'	266700	004706*	        JSA    16,DBOPEN
  3430	005043'	320240	021074'	        ARG    5,USERDB
  3431	005044'	320240	021076'	        ARG    5,USYSDB
  3432	005045'	200000	023033'	        MOVE   F,SAVF
  3433	005046'	260740	015425'	        PUSHJ  P,UFIND+1
  3434	005047'	263740	000000	         POPJ  P,
  3435	005050'	201040	022731'	        MOVEI  A,TUSTP
  3436	005051'	201100	023043'	        MOVEI  B,TODAY
  3437	005052'	260740	011402'	        PUSHJ  P,CHGIT
  3438	005053'	260740	005071'	        PUSHJ  P,CNCUS2            ; cancel customer if no more user
  3439	005054'	254000	001070'		JRST   DIDIT3
  3440
  3441	005055'	202000	023033'	USFNDA:	MOVEM F,SAVF
  3442	005056'	266700	004726*		JSA 16,DBFIND	;FIND ALL VALID AST'S FOR THIS USER
  3443	005057'	320000	022720'		ARG TUSUUN
  3444	005060'	320000	022707'		ARG EQUALS
  3445	005061'	320000	021160'		ARG USINFO+NUSUUN
  3446	005062'	320000	022711'		ARG X22AND
  3447	005063'	320000	022730'		ARG TUSSTP
  3448	005064'	320000	022707'		ARG EQUALS
  3449	005065'	320000	022706'		ARG NSTOP
  3450	005066'	266700	004742*		JSA 16,DBNREC	;GET NUMBER OF AST'S
  3451	005067'	320000	023021'		ARG NUMRET
  3452	005070'	263740	000000		POPJ P,0
  3453
  3454	005071'			CNCUS2: ; cancel customer if no more user
  3455	005071'	260740	005130'	        PUSHJ   P,GTALLU              ;  get all users for this customer
  3456	005072'	332000	023021'	        SKIPE   NUMRET                ;  skip if 0 record
  3457				         JRST   [JSA   16,DBCLOS
  3458				                 MOVE  F,SAVF
  3459	005073'	254000	023302'	                 POPJ  P,0]
  3460	005074'	266700	005037*	        JSA     16,DBCLOS             ; close userdb
  3461	005075'	200000	023033'	        MOVE    F,SAVF
  3462	005076'	260740	015354'	        PUSHJ   P,CINIT               ;  open custdb
  3463	005077'	266700	005056*	        JSA     16,DBFIND
  3464	005100'	320000	022722'	        ARG     TCCNUM
UPDLUD - ACCTG., LUD UPDATER	MACRO 12.5-46.0 17:15 19-SEP-89 PAGE 76-3
UPDLUD.MAC	24-MAY-89 18:55		CODE 75 CHANGE USER'S DISTRICT IN ACCOUNTING

  3465	005101'	320000	022707'	        ARG     EQUALS
  3466	005102'	320000	021514'	        ARG     CINFO+NCUSNUM
  3467	005103'	320000	022711'	        ARG     X22AND
  3468	005104'	320000	022732'	        ARG     TCSTP
  3469	005105'	320000	022707'	        ARG     EQUALS
  3470	005106'	320000	022706'	        ARG     NSTOP
  3471	005107'	266700	005066*	        JSA     16,DBNREC
  3472	005110'	320000	023021'	        ARG     NUMRET
  3473	005111'	200000	023033'	        MOVE    F,SAVF
  3474	005112'	336000	023021'	        SKIPN   NUMRET
  3475	005113'	254000	005125'	         JRST   ALLSET
  3476	005114'			LOOPA:
  3477	005114'	266700	005024*	        JSA     16,DBGET
  3478	005115'	320000	021514'	        ARG     CINFO
  3479	005116'	320000	005125'	        ARG     ALLSET
  3480	005117'	200000	023033'	        MOVE    F,SAVF
  3481	005120'	201040	022732'	        MOVEI   A,TCSTP
  3482	005121'	201100	023043'	        MOVEI   B,TODAY
  3483	005122'	260740	011402'	        PUSHJ   P,CHGIT
  3484	005123'	373000	023021'	        SOSLE   NUMRET
  3485	005124'	254000	005114'	        JRST    LOOPA
  3486	005125'			ALLSET:
  3487	005125'	266700	005074*	        JSA     16,DBCLOS
  3488	005126'	200000	023033'	        MOVE    F,SAVF
  3489	005127'	263740	000000	        POPJ    P,0
  3490
  3491
  3492	005130'			GTALLU: ; get all user for a customer
  3493	005130'	200040	021147'	        MOVE    A,UINFO+NUCUSN
  3494	005131'	202040	021514'	        MOVEM   A,CINFO+NCUSNUM       ; for finding cid in custdb
  3495	005132'	266700	005077*	        JSA     16,DBFIND
  3496	005133'	320000	022723'	        ARG     TUCNUM
  3497	005134'	320000	022707'	        ARG     EQUALS
  3498	005135'	320000	021147'	        ARG     UINFO+NUCUSN
  3499	005136'	320000	022711'	        ARG     X22AND
  3500	005137'	320000	022731'	        ARG     TUSTP
  3501	005140'	320000	022707'	        ARG     EQUALS
  3502	005141'	320000	022706'	        ARG     NSTOP
  3503	005142'	266700	005107*	        JSA     16,DBNREC
  3504	005143'	320000	023021'	        ARG     NUMRET
  3505	005144'	263740	000000	        POPJ    P,0
UPDLUD - ACCTG., LUD UPDATER	MACRO 12.5-46.0 17:15 19-SEP-89 PAGE 77
UPDLUD.MAC	24-MAY-89 18:55		CODE 75 CHANGE USER'S DISTRICT IN ACCOUNTING

  3506				;&.SKIP 2
  3507				;&CODE 100: CHANGE USER LANGUAGE CODE
  3508				;&####INPUT UUN (THREE BYTES)
  3509	005145'	260740	012524'	CHLAN:	PUSHJ P,GETLAN	;&####INPUT LANGUAGE CODE (ONE BYTE)
  3510	005146'	260740	013362'		PUSHJ P,CHKINF
  3511	005147'	201040	022760'		MOVEI A,TLAN
  3512	005150'	201100	021151'		MOVEI B,UINFO+NLANG
  3513	005151'	260740	011402'		PUSHJ P,CHGIT
  3514	005152'	254000	003157'		JRST CHEND
UPDLUD - ACCTG., LUD UPDATER	MACRO 12.5-46.0 17:15 19-SEP-89 PAGE 78
UPDLUD.MAC	24-MAY-89 18:55		CODE 101 NEW USER FOR ACCTG. SYSTEM TYPE

  3515				SUBTTL CODE 101 NEW USER FOR ACCTG. SYSTEM TYPE
  3516
  3517				;&.SKIP 2
  3518				;&CODE 101: NEW USER FOR AN ACCOUNTING SYSTEM TYPE
  3519	005153'	260740	012157'	ADDAST:	PUSHJ P,USERIN	;&####INPUT GAN, UUN (THREE BYTES EACH)
  3520	005154'	260740	012257'		PUSHJ P,ASYSIN	;&####INPUT ACCOUNTING SYSTEM TYPE (ONE BYTE)
  3521	005155'	202300	022026'		MOVEM N,SAVORG+OAST
  3522	005156'	260740	015424'		PUSHJ P,UFIND
  3523	005157'	260740	000622'		PUSHJ P,NOTFND
  3524	005160'	202000	023033'		MOVEM F,SAVF
  3525	005161'	266700	005125*		JSA 16,DBCLOS
  3526	005162'	200000	023033'		MOVE F,SAVF
  3527	005163'	200300	021147'		MOVE N,UINFO+NUCUSN
  3528	005164'	202300	021514'		MOVEM N,CINFO+NCUSNUM
  3529	005165'	260740	015452'		PUSHJ P,USFIND
  3530	005166'	334000	000000		SKIPA
  3531	005167'	260740	000620'		PUSHJ P,FND
  3532	005170'	202000	023033'		MOVEM F,SAVF
  3533	005171'	266700	005161*		JSA 16,DBCLOS
  3534	005172'	200000	023033'		MOVE F,SAVF
  3535	005173'	260740	013546'		PUSHJ P,CHKCUS
  3536	005174'	260740	000647'		PUSHJ P,BADCUS
  3537	005175'	266700	005171*		JSA 16,DBCLOS
  3538	005176'	200000	023033'		MOVE F,SAVF
  3539	005177'	260740	013063'		PUSHJ P,GETSLS	;&####INPUT SALESMAN (ONE BYTE)
  3540	005200'	260740	013126'		PUSHJ P,GETPRC	;&####INPUT PRICING CODE (ONE BYTE)
  3541	005201'	260740	012361'		PUSHJ P,GETZONE	;&####INPUT USER TIME ZONE (ONE BYTE)
  3542	005202'	260740	012537'		PUSHJ P,GTRESM		;&####INPUT RESOURCE CODE (ONE BYTE)
  3543	005203'	660000	010000		TRO F,SELHST	;INPUT HOST ONLY FOR THIS AST
  3544	005204'	260740	012644'		PUSHJ P,GETSIT	;&####INPUT A HOST FOR THIS AST (TWO BYTES)
  3545	005205'	202300	022017'		MOVEM N,SAVORG+SITE
  3546	005206'	606000	000020		TRNN F,ERRF
  3547	005207'	254000	005213'		JRST .+4
  3548	005210'	200040	022776'		MOVE A,ERRCOD
  3549	005211'	306040	000002		CAIN A,2
  3550					JRST [TRZ F,ERRF
  3551	005212'	254000	023305'			JRST ASITE]
  3552	005213'	260740	013362'		PUSHJ P,CHKINF
  3553	005214'	260740	013656'		PUSHJ P,SAVB
  3554	005215'	260740	014703'		PUSHJ P,GETTOD
  3555	005216'	200300	022706'		MOVE N,NSTOP
  3556	005217'	202300	021170'		MOVEM N,USINFO+NSYSTOP
  3557	005220'	202300	021176'		MOVEM N,VINFO+NVSTOP
  3558	005221'	260740	015342'		PUSHJ P,USINIT
  3559	005222'	201040	021160'		MOVEI A,USINFO
  3560	005223'	260740	011372'		PUSHJ P,ADDIT
  3561	005224'	266700	005175*		JSA 16,DBCLOS
  3562	005225'	200000	023033'		MOVE F,SAVF
  3563	005226'	260740	015366'		PUSHJ P,VINIT
  3564	005227'	201040	021173'		MOVEI A,VINFO
  3565	005230'	260740	011372'		PUSHJ P,ADDIT
  3566	005231'	254000	003157'	        JRST CHEND
UPDLUD - ACCTG., LUD UPDATER	MACRO 12.5-46.0 17:15 19-SEP-89 PAGE 79
UPDLUD.MAC	24-MAY-89 18:55		CODE 103 LIST USER CUSTOMER NUMBER

  3567				SUBTTL CODE 103 LIST USER CUSTOMER NUMBER
  3568				;&.SKIP 2
  3569				;&CODE 103: LIST USER CUSTOMER NUMBER
  3570	005232'	260740	012160'	LISUCU: PUSHJ   P,UUNIN         ;&####INPUT UUN (THREE BYTES)
  3571	005233'	660000	000100	        TRO     F,ALLIOI
  3572	005234'	260740	015424'	        PUSHJ   P,UFIND
  3573	005235'	260740	000622'	        PUSHJ   P,NOTFND
  3574	005236'	260740	013540'	        PUSHJ   P,SENDOK        ;&####OUTPUT 1 (IF FOUND), 3 (IF NOT) OR ERROR
  3575	005237'	202000	023033'	        MOVEM   F,SAVF
  3576	005240'	266700	005224*	        JSA     16,DBCLOSE
  3577	005241'	200000	023033'	        MOVE    F,SAVF
  3578	005242'	260740	012051'	        PUSHJ   P,UCUOUT        ;&####OUTPUT CUSTOMER NUMBER (3 BYTES)
  3579	005243'	254000	000137'	        JRST    LUDUP1
  3580				SUBTTL CODE 104 OUTPUT NUMBER OF DIRECTORIES TO BE CANCELED FOR CANCEL ACCOUNT
  3581				;&.SKIP 2
  3582				;&CODE 104: OUTPUT NUMBER OF DIRECTORIES TO BE CANCELED
  3583				;&####INPUT SAME AS 114
  3584	005244'	260740	005757'	LSUGSY: PUSHJ P,GTGANS   ;FIND VALID VALDAT ENTRIES FOR A GAN AND A HOST
  3585	005245'	266700	005142*	        JSA 16,DBNREC
  3586	005246'	320000	023022'	        ARG NUUNS
  3587	005247'	047300	000030	        PJOB N,
  3588	005250'	202300	021514'	        MOVEM N,CINFO
  3589	005251'	200000	023033'	        MOVE F,SAVF
  3590	005252'	336000	023022'	        SKIPN NUUNS
  3591	005253'	254000	005304'	        JRST LSUG4+1
  3592	005254'	260740	006255'	        PUSHJ P,INITMP  ;WRITE USERS TO TEMP FILE
  3593	005255'	266700	005114*	LSUG1:  JSA 16,DBGET
  3594	005256'	320000	021173'	        ARG VINFO
  3595	005257'	320000	005263'	        ARG LSUG2
  3596	005260'	260740	006303'	        PUSHJ P,WRTMP
  3597	005261'	372000	023022'	        SOSE NUUNS
  3598	005262'	254000	005255'	        JRST LSUG1
  3599	005263'	260740	006317'	LSUG2:  PUSHJ P,CLSTMP
  3600	005264'	260740	006330'	LSUG3:  PUSHJ P,GETTMP  ;GET EACH USER FROM TEMP FILE
  3601	005265'	254000	005303'	        JRST LSUG4
  3602	005266'	266700	005132*	        JSA 16,DBFIND    ;FIND ALL VALID ENTRIES IN VALDAT FOR EACH USER IN TEMP FILE
  3603	005267'	320000	022720'	        ARG TUSUUN
  3604	005270'	320000	022707'	        ARG EQUALS
  3605	005271'	320000	021173'	        ARG VINFO+NUSUUN
  3606	005272'	320000	022711'	        ARG X22AND
  3607	005273'	320000	022734'	        ARG TVSTP
  3608	005274'	320000	022707'	        ARG EQUALS
  3609	005275'	320000	022706'	        ARG NSTOP
  3610	005276'	266700	005245*	        JSA 16,DBNREC
  3611	005277'	320000	023021'	        ARG NUMRET
  3612	005300'	200300	023021'	        MOVE N,NUMRET
  3613	005301'	272300	022772'	        ADDM N,CANCNT#  ;ADD NUMBER OF ENTRIES TO TOTAL
  3614	005302'	254000	005264'	        JRST LSUG3
  3615	005303'	260740	006203'	LSUG4:  PUSHJ P,DELTMP
  3616	005304'	266700	005240*	        JSA 16,DBCLOS
  3617	005305'	200000	023033'	        MOVE F,SAVF
  3618	005306'	200300	022772'	        MOVE N,CANCNT
  3619	005307'	260740	015151'	        PUSHJ P,NUMOUT  ;OUTPUT TOTAL NUMBER
UPDLUD - ACCTG., LUD UPDATER	MACRO 12.5-46.0 17:15 19-SEP-89 PAGE 79-2
UPDLUD.MAC	24-MAY-89 18:55		CODE 104 OUTPUT NUMBER OF DIRECTORIES TO BE CANCELED FOR CANCEL ACCOUNT

  3620	005310'	260740	015242'	        PUSHJ P,CRLF
  3621	005311'	402000	022772'	        SETZM CANCNT
  3622	005312'	254000	000137'	        JRST LUDUP1
UPDLUD - ACCTG., LUD UPDATER	MACRO 12.5-46.0 17:15 19-SEP-89 PAGE 80
UPDLUD.MAC	24-MAY-89 18:55		CODE 105 LIST HOSTS FOR A USER

  3623				SUBTTL CODE 105 LIST HOSTS FOR A USER
  3624
  3625				;&.SKIP 2
  3626				;&CODE 105: LIST HOSTS FOR A USER
  3627	005313'	260740	012160'	LSUSYS:	PUSHJ P,UUNIN	;&####INPUT UUN (THREE BYTES)
  3628	005314'	660000	000100		TRO F,ALLIOI
  3629	005315'	260740	015630'		PUSHJ P,VFIND
  3630	005316'	260740	000622'		PUSHJ P,NOTFND
  3631	005317'	202000	023033'		MOVEM F,SAVF
  3632	005320'	266700	005304*		JSA 16,DBCLOS
  3633	005321'	200000	023033'		MOVE F,SAVF
  3634	005322'	260740	013540'		PUSHJ P,SENDOK	;&####OUTPUT 1 (IF FOUND), 3 (IF NOT) OR ERROR
  3635	005323'	260740	011642'		PUSHJ P,SITOUT	;&####OUTPUT HOSTS (SEE BELOW)
  3636	005324'	254000	000137'		JRST LUDUP1
UPDLUD - ACCTG., LUD UPDATER	MACRO 12.5-46.0 17:15 19-SEP-89 PAGE 81
UPDLUD.MAC	24-MAY-89 18:55		CODE 106 - LIST ACCOUNTING ENTRY FOR A USER

  3637				SUBTTL CODE 106 - LIST ACCOUNTING ENTRY FOR A USER
  3638
  3639				;&.SKIP 2
  3640				;&CODE 106: LIST ACCOUNTING FOR A UUN
  3641	005325'	260740	012160'	LISUUN:	PUSHJ P,UUNIN	;&####INPUT UUN (THREE BYTES)
  3642	005326'	260740	012257'		PUSHJ P,ASYSIN	;&####INPUT ACCOUNTING SYSTEM TYPE (ONE BYTE)
  3643	005327'	660000	000100		TRO F,ALLIOI
  3644	005330'	260740	015424'		PUSHJ P,UFIND
  3645	005331'	260740	000622'		PUSHJ P,NOTFND
  3646	005332'	202000	023033'		MOVEM F,SAVF
  3647	005333'	266700	005320*		JSA 16,DBCLOS
  3648	005334'	200000	023033'		MOVE F,SAVF
  3649	005335'	200300	021147'		MOVE N,UINFO+NUCUSN
  3650	005336'	202300	021545'		MOVEM N,AINFO+NACUSNUM
  3651	005337'	260740	015564'		PUSHJ P,AFIND	;FIND ANY CUSTOMER INFO
  3652	005340'	260740	000702'		PUSHJ P,NOADDR
  3653	005341'	202000	023033'		MOVEM F,SAVF
  3654	005342'	266700	005333*		JSA 16,DBCLOS
  3655	005343'	200000	023033'		MOVE F,SAVF
  3656	005344'	260740	015630'		PUSHJ P,VFIND
  3657	005345'	260740	000622'		PUSHJ P,NOTFND
  3658	005346'	202000	023033'		MOVEM F,SAVF
  3659	005347'	266700	005342*		JSA 16,DBCLOS
  3660	005350'	200000	023033'		MOVE F,SAVF
  3661	005351'	260740	015452'		PUSHJ P,USFIND
  3662	005352'	260740	000622'		PUSHJ P,NOTFND
  3663	005353'	202000	023033'		MOVEM F,SAVF
  3664	005354'	266700	005347*		JSA 16,DBCLOS
  3665	005355'	200000	023033'		MOVE F,SAVF
  3666	005356'	260740	013540'		PUSHJ P,SENDOK	;&####OUTPUT 1 (IF FOUND), OR 3 (IF NOT) OR ERROR
  3667	005357'	200300	021141'		MOVE N,UINFO+NGAN
  3668	005360'	260740	013334'		PUSHJ P,DECOCT
  3669	005361'	260740	011564'		PUSHJ P,GANOUT	;&####OUTPUT GAN (THREE BYTES)
  3670	005362'	260740	015242'		PUSHJ P,CRLF
  3671	005363'	661000	004000		TLO F,ASCIO
  3672	005364'	260740	011760'		PUSHJ P,NAMOUT	;&####OUTPUT USER NAME (TWELVE BYTES)
  3673	005365'	200300	021146'		MOVE N,UINFO+NUDIST
  3674	005366'	260740	011516'		PUSHJ P,DISOUT	;&####OUTPUT DISTRICT (ONE BYTE)
  3675	005367'	260740	012042'		PUSHJ P,UCSOUT	;&####OUTPUT CUSTOMER NUMBER (THREE BYTES)
  3676				                                ;&####OUTPUT CUSTOMER NAME (51 BYTES)
  3677	005370'	200300	021156'		MOVE N,UINFO+NUCOST
  3678	005371'	260740	011542'		PUSHJ   P,CCOOUT		;&####OUTPUT COSTCODE (THREE BYTES)
  3679	005372'	200300	021162'		MOVE N,USINFO+NUSLSM
  3680	005373'	260740	011560'		PUSHJ P,SLSOUT	;&####OUTPUT SALESMAN (ONE BYTE)
  3681	005374'	260740	012056'		PUSHJ P,PRIOUT	;&####OUTPUT PRICING CODE (TWO BYTE)
  3682	005375'	260740	012063'		PUSHJ P,RESOUT	;&####OUTPUT RESOURCE CODE (ONE BYTE)
  3683	005376'	260740	012070'		PUSHJ P,CUROUT	;&####OUTPUT CURRENCY CODE (ONE BYTE)
  3684	005377'	260740	012075'		PUSHJ P,LANOUT	;&####OUTPUT LANGUAGE CODE (ONE BYTE)
  3685	005400'	260740	011573'		PUSHJ P,AZONOUT	;&####OUTPUT TIME ZONE (ONE BYTE)
  3686	005401'	260740	011642'		PUSHJ P,SITOUT	;&####OUTPUT ALL HOSTS FOR THIS AST (SEE BELOW)
  3687	005402'	254000	000137'		JRST LUDUP1
UPDLUD - ACCTG., LUD UPDATER	MACRO 12.5-46.0 17:15 19-SEP-89 PAGE 82
UPDLUD.MAC	24-MAY-89 18:55		CODE 107 LIST HOSTS FOR A CUSTOMER

  3688				SUBTTL CODE 107 LIST HOSTS FOR A CUSTOMER
  3689
  3690				;&.SKIP 2
  3691				;&CODE 107: LIST ALL HOSTS FOR A CUSTOMER
  3692	005403'	260740	012242'	LSCSYS:	PUSHJ P,CUSTIN	;&####INPUT CUSTOMER NUMBER (THREE BYTES)
  3693	005404'	660000	000100		TRO F,ALLIOI
  3694	005405'	260740	015535'		PUSHJ P,CFINDA
  3695	005406'	260740	000622'		PUSHJ P,NOTFND	;CUSTOMER NOT FOUND
  3696	005407'	260740	013540'		PUSHJ P,SENDOK
  3697	005410'	202000	023033'		MOVEM F,SAVF
  3698	005411'	266700	005354*		JSA 16,DBCLOS
  3699	005412'	200000	023033'		MOVE F,SAVF
  3700	005413'	260740	013374'		PUSHJ P,CLRSIT
  3701	005414'	200040	021514'		MOVE A,CINFO+NCUSNUM
  3702	005415'	260740	005446'	LSC1:	PUSHJ P,GTALL
  3703	005416'	336000	023022'		SKIPN NUUNS
  3704	005417'	254000	005441'		JRST LSTUUN
  3705	005420'	266700	004643*		JSA 16,DBMAP
  3706	005421'	320000	020333'		ARG TWO
  3707	005422'	320000	022721'		ARG TUUUN
  3708	005423'	320000	022720'		ARG TUSUUN
  3709	005424'	266700	005266*		JSA 16,DBFIND
  3710	005425'	320000	022704'		ARG LAST
  3711	005426'	320000	022711'		ARG X22AND
  3712	005427'	320000	022734'		ARG TVSTP
  3713	005430'	320000	022707'		ARG EQUALS
  3714	005431'	320000	022706'		ARG NSTOP
  3715	005432'	266700	005276*		JSA 16,DBNREC
  3716	005433'	320000	023020'		ARG NSITES#
  3717	005434'	200000	023033'		MOVE F,SAVF
  3718	005435'	336300	023020'		SKIPN N,NSITES
  3719	005436'	254000	005441'		JRST LSTUUN
  3720	005437'	260740	015633'	        PUSHJ   P,FILSIT
  3721	005440'	255000	000000		 JFCL		;DUMMY ERROR RETURN
  3722	005441'	266700	005411*	LSTUUN:	JSA 16,DBCLOS
  3723	005442'	266700	005441*		JSA 16,DBCLOS
  3724	005443'	200000	023033'		MOVE F,SAVF
  3725	005444'	260740	011642'		PUSHJ P,SITOUT	;&####OUTPUT HOSTS (SEE BELOW)
  3726	005445'	254000	000137'		JRST LUDUP1
UPDLUD - ACCTG., LUD UPDATER	MACRO 12.5-46.0 17:15 19-SEP-89 PAGE 83
UPDLUD.MAC	24-MAY-89 18:55		CODE 107 LIST HOSTS FOR A CUSTOMER

  3727	005446'	202000	023033'	GTALL:	MOVEM F,SAVF
  3728	005447'	266700	005042*		JSA 16,DBOPEN
  3729	005450'	320240	021074'		ARG 5,USERDB
  3730	005451'	320240	021100'		ARG 5,VALDB
  3731	005452'	266700	005424*	GTALL1:	JSA 16,DBFIND	;FIND ALL USERS FOR THIS CUSTOMER
  3732	005453'	320000	022723'		ARG TUCNUM	;WITH A NULL STOP DATE
  3733	005454'	320000	022707'		ARG EQUALS
  3734	005455'	320000	021514'		ARG CINFO+NCUSNUM
  3735	005456'	320000	022711'		ARG X22AND
  3736	005457'	320000	022731'		ARG TUSTP
  3737	005460'	320000	022707'		ARG EQUALS
  3738	005461'	320000	022706'		ARG NSTOP
  3739	005462'	266700	005432*		JSA 16,DBNREC
  3740	005463'	320000	023022'		ARG NUUNS#	;SAVE NUMBER OF UUN'S FOUND
  3741	005464'	263740	000000		POPJ P,0
  3742
  3743	005465'	266700	004667*	GTHSTS:	JSA 16,DBSET	;GET HOSTS THIS USER IS VALID ON
  3744	005466'	320000	020333'		ARG TWO
  3745	005467'	266700	005452*		JSA 16,DBFIND
  3746	005470'	320000	022720'		ARG TUSUUN
  3747	005471'	320240	022707'		ARG 5,EQUALS
  3748	005472'	320000	021142'		ARG UINFO+NUUN
  3749	005473'	320240	022711'		ARG 5,X22AND
  3750	005474'	320000	022734'		ARG TVSTP
  3751	005475'	320000	022707'		ARG EQUALS
  3752	005476'	320000	022706'		ARG NSTOP
  3753	005477'	266700	005462*		JSA 16,DBNREC	;GET # OF HOSTS
  3754	005500'	320000	023020'		ARG NSITES
  3755	005501'	200000	023033'		MOVE F,SAVF
  3756	005502'	263740	000000		POPJ P,0
UPDLUD - ACCTG., LUD UPDATER	MACRO 12.5-46.0 17:15 19-SEP-89 PAGE 84
UPDLUD.MAC	24-MAY-89 18:55		CODE 110 CHECK UUN FOR AN ACCTG. SYS TYPE

  3757				SUBTTL CODE 110 CHECK UUN FOR AN ACCTG. SYS TYPE
  3758
  3759				;&.SKIP 2
  3760				;&CODE 110: CHECK UUN FOR AN ACCOUNTING SYSTEM TYPE
  3761	005503'	260740	012160'	CHUUNT:	PUSHJ P,UUNIN	;&####INPUT UUN (THREE BYTES)
  3762	005504'	260740	012257'		PUSHJ P,ASYSIN	;&####INPUT ACCOUNTING SYSTEM TYPE (ONE BYTE)
  3763	005505'	660000	000100		TRO F,ALLIOI
  3764	005506'	260740	015452'		PUSHJ P,USFIND
  3765	005507'	260740	000622'		PUSHJ P,NOTFND
  3766	005510'	202000	023033'		MOVEM F,SAVF
  3767	005511'	266700	005442*		JSA 16,DBCLOS
  3768	005512'	200000	023033'		MOVE F,SAVF
  3769	005513'	602000	000010		TRNE F,TTYOUT
  3770					JRST [PUSHJ P,FND
  3771	005514'	254000	023307'		JRST LUDUP1]
  3772	005515'	260740	013540'		PUSHJ P,SENDOK	;&####OUTPUT 1 (IF FOUND), 3 (IF NOT), OR ERROR
  3773	005516'	254000	000137'		JRST LUDUP1
UPDLUD - ACCTG., LUD UPDATER	MACRO 12.5-46.0 17:15 19-SEP-89 PAGE 85
UPDLUD.MAC	24-MAY-89 18:55		CODE 111 CHECK UUN FOR A HOST

  3774				SUBTTL CODE 111 CHECK UUN FOR A HOST
  3775
  3776				;&.SKIP 2
  3777				;&CODE 111: CHECK UUN FOR A HOST
  3778	005517'	260740	012160'	CHUUNS:	PUSHJ P,UUNIN	;&####INPUT UUN (THREE BYTES)
  3779	005520'	260740	012644'		PUSHJ P,GETSIT	;&####INPUT HOST (TWO BYTES)
  3780	005521'	660000	000100		TRO F,ALLIOI
  3781	005522'	260740	005531'		PUSHJ P,F1HOST
  3782	005523'	336000	023021'	CHKA3:	SKIPN NUMRET
  3783	005524'	260740	000622'	CHKA1:	PUSHJ P,NOTFND
  3784	005525'	602000	000010	CHKA2:	TRNE F,TTYOUT
  3785					JRST [PUSHJ P,FND
  3786	005526'	254000	023307'			JRST LUDUP1]
  3787	005527'	260740	013540'		PUSHJ P,SENDOK	;&####OUTPUT 1 (IF FOUND), 3 (IF NOT) OR ERROR
  3788	005530'	254000	000137'		JRST LUDUP1
  3789
  3790
  3791	005531'	260740	015366'	F1HOST:	PUSHJ P,VINIT
  3792	005532'	266700	005467*		JSA 16,DBFIND
  3793	005533'	320000	022720'		ARG TUSUUN
  3794	005534'	320000	022707'		ARG EQUALS
  3795	005535'	320000	022714'		ARG DBUUN
  3796	005536'	320000	022711'		ARG X22AND
  3797	005537'	320000	022734'		ARG TVSTP
  3798	005540'	320000	022707'		ARG EQUALS
  3799	005541'	320000	022706'		ARG NSTOP
  3800	005542'	320000	022711'		ARG X22AND
  3801	005543'	320000	022746'		ARG TVHOST
  3802	005544'	320000	022707'		ARG EQUALS
  3803	005545'	320000	021174'		ARG VINFO+NHOST
  3804	005546'	266700	005477*		JSA 16,DBNREC
  3805	005547'	320000	023021'		ARG NUMRET
  3806	005550'	266700	005511*		JSA 16,DBCLOS
  3807	005551'	200000	023033'		MOVE F,SAVF
  3808	005552'	263740	000000		POPJ P,0
  3809
  3810	005553'	266700	005546*	CHKANS:	JSA 16,DBNREC
  3811	005554'	320000	023021'		ARG NUMRET
  3812	005555'	266700	005550*		JSA 16,DBCLOS
  3813	005556'	200000	023033'		MOVE F,SAVF
  3814	005557'	254000	005523'		JRST CHKA3
UPDLUD - ACCTG., LUD UPDATER	MACRO 12.5-46.0 17:15 19-SEP-89 PAGE 86
UPDLUD.MAC	24-MAY-89 18:55		CODE 111 CHECK UUN FOR A HOST

  3815				;&.SKIP 2
  3816				;&CODE 112: LIST ALL USERS FOR A CUSTOMER
  3817	005560'	661000	000100	LUCUST:	TLO F,NAMESO	;OUTPUT NAMES AND GANS ONLY
  3818	005561'	260740	012242'		PUSHJ P,CUSTIN	;&####INPUT CUSTOMER NUMBER (THREE BYTES)
  3819	005562'	260740	012257'	        PUSHJ P,ASYSIN ;&####INPUT ACCOUNTING SYSTEM TYPE (ONE BYTE)
  3820	005563'	660000	000100		TRO F,ALLIOI
  3821	005564'	202000	023033'	        MOVEM F,SAVF
  3822	005565'	260740	015354'	        PUSHJ P,CINIT
  3823	005566'	266700	005532*	        JSA 16,DBFIND
  3824	005567'	320000	022722'	        ARG TCCNUM
  3825	005570'	320000	022707'	        ARG EQUALS
  3826	005571'	320000	021514'	        ARG CINFO+NCUSNUM
  3827	005572'	320000	022711'	        ARG X22AND
  3828	005573'	320000	022732'	        ARG TCSTP
  3829	005574'	320000	022707'	        ARG EQUALS
  3830	005575'	320000	022706'	        ARG NSTOP
  3831	005576'	320000	022711'	        ARG X22AND
  3832	005577'	320000	022735'	        ARG TASYSC
  3833	005600'	320000	022707'	        ARG EQUALS
  3834	005601'	320000	021515'	        ARG CINFO+NCSYSC
  3835	005602'	266700	005553*	        JSA 16,DBNREC
  3836	005603'	320000	023021'	        ARG NUMRET
  3837	005604'	337300	023021'	        SKIPG N,NUMRET
  3838	005605'	260740	000622'		PUSHJ P,NOTFND
  3839	005606'	266700	005255*		JSA 16,DBGET
  3840	005607'	320000	021514'		ARG CINFO
  3841	005610'	320000	005611'		ARG .+1
  3842	005611'	266700	005555*		JSA 16,DBCLOS
  3843	005612'	200000	023033'		MOVE F,SAVF
  3844	005613'	260740	013540'		PUSHJ P,SENDOK	;&####OUTPUT 1 (IF FOUND), 3 (IF NOT) OR ERROR
  3845	005614'	200040	021515'		MOVE A,CINFO+NCSYSC
  3846	005615'	306040	000011		CAIN A,ASTIII
  3847	005616'	254000	005654'		JRST LUCIII
  3848	005617'	200300	021516'		MOVE N,CINFO+NCDIST
  3849	005620'	260740	011516'		PUSHJ P,DISOUT	;&####OUTPUT DISTRICT (ONE BYTE)
  3850	005621'	260740	005446'		PUSHJ P,GTALL
  3851	005622'	336000	023022'		SKIPN NUUNS
  3852	005623'	254000	005647'		JRST LSTUSR
  3853	005624'	200000	023033'		MOVE F,SAVF
  3854	005625'	266700	005606*	LNUSR:	JSA 16,DBGET
  3855	005626'	320000	021141'		ARG UINFO
  3856	005627'	320000	005630'		ARG .+1
  3857	005630'	260740	005465'		PUSHJ P,GTHSTS
  3858	005631'	200000	023033'		MOVE F,SAVF
  3859	005632'	661000	004000		TLO F,ASCIO	;&####FOR EACH USER:
  3860	005633'	260740	011760'		PUSHJ P,NAMOUT	;&#######OUTPUT USER NAME (TWELVE BYTES)
  3861	005634'	200300	021141'		MOVE N,UINFO+NGAN
  3862	005635'	260740	013334'		PUSHJ P,DECOCT
  3863	005636'	260740	011564'		PUSHJ P,GANOUT	;&#######OUTPUT GAN (THREE BYTES)
  3864	005637'	260740	015242'		PUSHJ P,CRLF
  3865	005640'	607000	000100		TLNN F,NAMESO
  3866	005641'	260740	011635'		PUSHJ P,UHSTO
  3867	005642'	260740	015242'		PUSHJ P,CRLF
UPDLUD - ACCTG., LUD UPDATER	MACRO 12.5-46.0 17:15 19-SEP-89 PAGE 86-2
UPDLUD.MAC	24-MAY-89 18:55		CODE 111 CHECK UUN FOR A HOST

  3868	005643'	266700	005465*		JSA 16,DBSET
  3869	005644'	320000	020332'		ARG ONE
  3870	005645'	373000	023022'		SOSLE NUUNS
  3871	005646'	254000	005625'		JRST LNUSR
  3872	005647'	266700	005611*	LSTUSR:	JSA 16,DBCLOS
  3873	005650'	266700	005647*		JSA 16,DBCLOS
  3874	005651'	200000	023033'		MOVE F,SAVF
  3875	005652'	260740	013530'		PUSHJ P,SENDEND	;&####END WITH A 377B
  3876	005653'	254000	000137'		JRST LUDUP1
UPDLUD - ACCTG., LUD UPDATER	MACRO 12.5-46.0 17:15 19-SEP-89 PAGE 87
UPDLUD.MAC	24-MAY-89 18:55		CODE 111 CHECK UUN FOR A HOST

  3877	005654'	260740	015405'	LUCIII:	PUSHJ P,YINIT
  3878	005655'	266700	005566*		JSA 16,DBFIND
  3879	005656'	320000	022723'		ARG TUCNUM
  3880	005657'	320000	022707'		ARG EQUALS
  3881	005660'	320000	021514'		ARG CINFO+NCUSNUM
  3882	005661'	320000	022711'		ARG X22AND
  3883	005662'	320000	022733'		ARG TUCSTP
  3884	005663'	320000	022707'		ARG EQUALS
  3885	005664'	320000	022706'		ARG NSTOP
  3886	005665'	266700	005602*		JSA 16,DBNREC
  3887	005666'	320000	023022'		ARG NUUNS
  3888	005667'	200000	023033'		MOVE F,SAVF
  3889	005670'	266700	005625*	LNUIII:	JSA 16,DBGET
  3890	005671'	320000	021160'		ARG USINFO
  3891	005672'	320000	005650'		ARG LSTUSR+1
  3892	005673'	200000	023033'		MOVE F,SAVF
  3893	005674'	661000	004000		TLO F,ASCIO
  3894	005675'	200640	023301'		MOVE BP,[POINT 7,USINFO+NUNAME]
  3895	005676'	260740	011761'		PUSHJ P,NAMOUT+1
  3896	005677'	260740	015242'		PUSHJ P,CRLF
  3897	005700'	373000	023022'		SOSLE NUUNS
  3898	005701'	254000	005670'		JRST LNUIII
  3899	005702'	254000	005650'		JRST LSTUSR+1
UPDLUD - ACCTG., LUD UPDATER	MACRO 12.5-46.0 17:15 19-SEP-89 PAGE 88
UPDLUD.MAC	24-MAY-89 18:55		CODE 113 LIST ALL USERS FOR A GAN

  3900				SUBTTL CODE 113 LIST ALL USERS FOR A GAN
  3901
  3902				;&.SKIP 2
  3903				;&CODE 113: LIST ALL USERS FOR A GAN
  3904	005703'	260740	012176'	LUGAN:	PUSHJ P,GANIN	;&####INPUT GAN (THREE BYTES)
  3905	005704'	660000	000100		TRO F,ALLIOI
  3906	005705'	260740	015347'		PUSHJ P,UINIT
  3907	005706'	266700	005655*		JSA 16,DBFIND
  3908	005707'	320000	022716'		ARG TGAN
  3909	005710'	320000	022707'		ARG EQUALS
  3910	005711'	320000	021141'		ARG UINFO+NGAN
  3911	005712'	320000	022711'		ARG X22AND
  3912	005713'	320000	022731'		ARG TUSTP
  3913	005714'	320000	022707'		ARG EQUALS
  3914	005715'	320000	022706'		ARG NSTOP
  3915	005716'	266700	005665*		JSA 16,DBNREC	;&####OUTPUT SAME AS CODE 112
  3916	005717'	320000	023022'		ARG NUUNS
  3917	005720'	200000	023033'		MOVE F,SAVF
  3918	005721'	332000	023022'		SKIPE NUUNS
  3919	005722'	254000	005725'		JRST .+3
  3920	005723'	260740	000622'		PUSHJ P,NOTFND
  3921	005724'	254000	000137'		JRST LUDUP1
  3922	005725'	260740	013540'		PUSHJ P,SENDOK
  3923	005726'	200300	021146'		MOVE N,UINFO+NUDIST
  3924	005727'	260740	011516'		PUSHJ P,DISOUT
  3925	005730'	336000	023022'		SKIPN NUUNS
  3926	005731'	254000	005751'		JRST LSTUAC
  3927	005732'	200000	023033'		MOVE F,SAVF
  3928	005733'	266700	004320*		JSA 16,DBSORT
  3929	005734'	320000	017744'		ARG AUNAME
  3930	005735'	266700	005670*	LNACC:	JSA 16,DBGET
  3931	005736'	320000	021141'		ARG UINFO
  3932	005737'	320000	005740'		ARG .+1
  3933	005740'	200000	023033'		MOVE F,SAVF
  3934	005741'	661000	004000		TLO F,ASCIO
  3935	005742'	260740	011760'		PUSHJ P,NAMOUT
  3936	005743'	200300	021141'		MOVE N,UINFO+NGAN
  3937	005744'	260740	013334'		PUSHJ P,DECOCT
  3938	005745'	260740	011564'		PUSHJ P,GANOUT
  3939	005746'	260740	015242'		PUSHJ P,CRLF
  3940	005747'	373000	023022'		SOSLE NUUNS
  3941	005750'	254000	005735'		JRST LNACC
  3942	005751'	266700	005650*	LSTUAC:	JSA 16,DBCLOS
  3943	005752'	200000	023033'		MOVE F,SAVF
  3944	005753'	260740	013530'		PUSHJ P,SENDEND
  3945	005754'	254000	000137'		JRST LUDUP1
UPDLUD - ACCTG., LUD UPDATER	MACRO 12.5-46.0 17:15 19-SEP-89 PAGE 89
UPDLUD.MAC	24-MAY-89 18:55		CODE 114 CHECK GAN FOR A HOST

  3946				SUBTTL CODE 114 CHECK GAN FOR A HOST
  3947				;&.SKIP 2
  3948				;&CODE 114: CHECK GAN FOR A HOST
  3949	005755'	260740	005757'	CHGANS: PUSHJ P,GTGANS
  3950	005756'	254000	005553'	        JRST CHKANS     ;&####OUTPUT 1 (IF FOUND), 3 (IF NOT) OR ERROR
  3951
  3952	005757'	260740	012176'	GTGANS:	PUSHJ P,GANIN	;&####INPUT GAN (THREE BYTES)
  3953	005760'	260740	012644'		PUSHJ P,GETSIT	;&####INPUT HOST (TWO BYTES)
  3954	005761'	660000	000100		TRO F,ALLIOI
  3955	005762'	260740	015366'		PUSHJ P,VINIT
  3956	005763'	266700	005706*		JSA 16,DBFIND
  3957	005764'	320000	022717'		ARG TVGAN
  3958	005765'	320000	022707'		ARG EQUALS
  3959	005766'	320000	021177'		ARG VINFO+NVGAN
  3960	005767'	320000	022711'		ARG X22AND
  3961	005770'	320000	022746'		ARG TVHOST
  3962	005771'	320000	022707'		ARG EQUALS
  3963	005772'	320000	021174'		ARG VINFO+NHOST
  3964	005773'	320000	022711'		ARG X22AND
  3965	005774'	320000	022734'		ARG TVSTP
  3966	005775'	320000	022707'		ARG EQUALS
  3967	005776'	320000	022706'		ARG NSTOP
  3968	005777'	263740	000000	        POPJ P,0
UPDLUD - ACCTG., LUD UPDATER	MACRO 12.5-46.0 17:15 19-SEP-89 PAGE 90
UPDLUD.MAC	24-MAY-89 18:55		CODE 115 CHECK CUSTOMER NUMBER FOR A HOST

  3969				SUBTTL CODE 115 CHECK CUSTOMER NUMBER FOR A HOST
  3970				;&.SKIP 2
  3971				;&CODE 115: CHECK CUSTOMER NUMBER FOR A HOST
  3972	006000'	661000	000001	CHCUST:	TLO F,ONESIT
  3973	006001'	260740	012242'		PUSHJ P,CUSTIN	;&####INPUT CUSTOMER NUMBER (THREE BYTES)
  3974	006002'	260740	012644'		PUSHJ P,GETSIT	;&####INPUT HOST (TWO BYTES)
  3975	006003'	660000	000100		TRO F,ALLIOI
  3976	006004'	200300	021174'		MOVE N,VINFO+NHOST
  3977	006005'	202300	023011'		MOVEM N,ISITE#
  3978	006006'	254000	005415'		JRST LSC1	;&####OUTPUT 1 (IF FOUND), 3 (IF NOT), OR ERROR
  3979
  3980	006007'	266700	005735*	CHKONE:	JSA 16,DBGET
  3981	006010'	320000	021173'		ARG VINFO
  3982	006011'	320000	006012'		ARG .+1
  3983	006012'	200040	021174'		MOVE A,VINFO+NHOST
  3984	006013'	200000	023033'		MOVE F,SAVF
  3985	006014'	316040	023011'		CAMN A,ISITE
  3986	006015'	254000	005525'		JRST CHKA2
  3987	006016'	365300	006007'		SOJGE N,CHKONE
  3988	006017'	200000	023033'		MOVE F,SAVF
  3989	006020'	350017	000000		AOS (P)
  3990	006021'	263740	000000		POPJ P,0
  3991
  3992
  3993				;&.SKIP 2
  3994				;&CODE 116: LIST HOSTS FOR A GAN
  3995	006022'	260740	012176'	LSGAN:	PUSHJ P,GANIN	;&####INPUT GAN (THREE BYTES)
  3996	006023'	660000	000100		TRO F,ALLIOI
  3997	006024'	260740	015366'		PUSHJ P,VINIT
  3998	006025'	266700	005763*		JSA 16,DBFIND
  3999	006026'	320000	022717'		ARG TVGAN
  4000	006027'	320000	022707'		ARG EQUALS
  4001	006030'	320000	021177'		ARG VINFO+NVGAN
  4002	006031'	320000	022711'		ARG X22AND
  4003	006032'	320000	022734'		ARG TVSTP
  4004	006033'	320000	022707'		ARG EQUALS
  4005	006034'	320000	022706'		ARG NSTOP
  4006	006035'	266700	005716*		JSA 16,DBNREC
  4007	006036'	320000	023021'		ARG NUMRET
  4008	006037'	200000	023033'		MOVE F,SAVF
  4009	006040'	336300	023021'		SKIPN N,NUMRET
  4010	006041'	260740	000622'		PUSHJ P,NOTFND
  4011	006042'	202300	023020'		MOVEM N,NSITES
  4012	006043'	260740	013540'		PUSHJ P,SENDOK	;&####OUTPUT 1 (IF FOUND), 3 (IF NOT) OR ERROR
  4013	006044'	200300	023020'		MOVE N,NSITES
  4014	006045'	260740	015633'		PUSHJ P,FILSIT
  4015	006046'	255000	000000		 JFCL
  4016	006047'	202000	023033'		MOVEM F,SAVF
  4017	006050'	266700	005751*		JSA 16,DBCLOS
  4018	006051'	200000	023033'		MOVE F,SAVF
  4019	006052'	260740	011642'		PUSHJ P,SITOUT	;&####OUTPUT HOSTS (SEE BELOW)
  4020	006053'	254000	000137'		JRST LUDUP1
UPDLUD - ACCTG., LUD UPDATER	MACRO 12.5-46.0 17:15 19-SEP-89 PAGE 92
UPDLUD.MAC	24-MAY-89 18:55		CODE 117 - CHANGE DISTRICT FOR ALL USERS FOR A CUSTOMER

  4021				SUBTTL CODE 117 - CHANGE DISTRICT FOR ALL USERS FOR A CUSTOMER
  4022
  4023				;&.SKIP 2
  4024				;&CODE 117: CHANGE DISTRICT FOR ALL USERS FOR A CUSTOMER
  4025				;&####INPUT CUTOMER NUMBER (THREE BYTES)
  4026				;&####INPUT ACCOUNTING SYSTEM TYPE (ONE BYTE)
  4027	006054'	200040	021516'	CHADIS:	MOVE A,CINFO+NCDIST	;SAVE CUSTOMER'S OLD DISTRICT
  4028	006055'	202040	023034'		MOVEM A,SDIST#
  4029				        ;SETZM CINFO+NCCOST      ;ZERO THE COSTCODE IN NEW RECORD
  4030	006056'	260740	012436'		PUSHJ P,GETDIS	;&####INPUT NEW DISTRICT (ONE BYTE)
  4031	006057'	260740	012644'		PUSHJ P,GETSIT	;&####INPUT HOST (TWO BYTES)
  4032	006060'	260740	013362'		PUSHJ P,CHKINF
  4033	006061'	200040	022040'		MOVE A,DIST
  4034	006062'	312040	023034'		CAME A,SDIST
  4035	006063'	260740	002655'		PUSHJ P,MKNCUS
  4036	006064'	266700	006050*		JSA 16,DBCLOS
  4037	006065'	200000	023033'		MOVE F,SAVF
  4038	006066'	260740	013540'		PUSHJ P,SENDOK	;&####OUTPUT 1 (IF CHANGED), 3 (IF NOT FOUND) OR ERROR
  4039	006067'	260740	005446'		PUSHJ P,GTALL	;FIND ALL USERS FOR THIS CUSTOMER
  4040	006070'	336000	023022'		SKIPN NUUNS
  4041				CHDSEN:	JRST [JSA 16,DBCLOS
  4042						JSA 16,DBCLOS
  4043						MOVE F,SAVF
  4044						PUSHJ P,SENDEND
  4045	006071'	254000	023311'			JRST LUDUP1]
  4046	006072'	200000	023033'		MOVE F,SAVF
  4047	006073'	266700	005420*		JSA 16,DBMAP
  4048	006074'	320000	020333'		ARG TWO
  4049	006075'	320000	022721'		ARG TUUUN
  4050	006076'	320000	022720'		ARG TUSUUN
  4051	006077'	200040	021174'		MOVE A,VINFO+NHOST
  4052	006100'	306040	000001		CAIN A,1
  4053	006101'	254000	006210'		JRST CHN940
  4054	006102'	266700	006025*		JSA 16,DBFIND
  4055	006103'	320000	022704'		ARG LAST
  4056	006104'	320240	022711'		ARG 5,X22AND
  4057	006105'	320000	022734'		ARG TVSTP
  4058	006106'	320240	022707'		ARG 5,EQUALS
  4059	006107'	320000	022706'		ARG NSTOP
  4060	006110'	320240	022711'		ARG 5,X22AND
  4061	006111'	320000	022746'		ARG TVHOST
  4062	006112'	320000	022707'		ARG EQUALS
  4063	006113'	320000	021174'		ARG VINFO+NHOST
  4064	006114'	266700	006035*	CHNU1:	JSA 16,DBNREC
  4065	006115'	320000	023022'		ARG NUUNS
  4066	006116'	200000	023033'		MOVE F,SAVF
  4067	006117'	336000	023022'		SKIPN NUUNS
  4068	006120'	254000	006071'		JRST CHDSEN	;NO VALID USERS
  4069	006121'	260740	006255'		PUSHJ P,INITMP
  4070	006122'	266700	006007*	CHNUSR:	JSA 16,DBGET
  4071	006123'	320000	021173'		ARG VINFO
  4072	006124'	320000	006130'		ARG CNALST
  4073	006125'	260740	006303'		PUSHJ P,WRTMP
UPDLUD - ACCTG., LUD UPDATER	MACRO 12.5-46.0 17:15 19-SEP-89 PAGE 92-2
UPDLUD.MAC	24-MAY-89 18:55		CODE 117 - CHANGE DISTRICT FOR ALL USERS FOR A CUSTOMER

  4074	006126'	372000	023022'		SOSE NUUNS
  4075	006127'	254000	006122'		JRST CHNUSR
  4076	006130'	266700	005643*	CNALST:	JSA 16,DBSET
  4077	006131'	320000	020333'		ARG TWO
  4078	006132'	266700	006064*		JSA 16,DBCLOS
  4079	006133'	200000	023033'		MOVE F,SAVF
  4080	006134'	260740	006317'		PUSHJ P,CLSTMP
  4081	006135'	260740	006330'	NXTTMP:	PUSHJ P,GETTMP
  4082	006136'	254000	006175'		JRST LSTTMP
  4083	006137'	202000	023033'		MOVEM F,SAVF
  4084	006140'	266700	006102*		JSA 16,DBFIND
  4085	006141'	320000	022721'		ARG TUUUN
  4086	006142'	320000	022707'		ARG EQUALS
  4087	006143'	320000	021142'		ARG UINFO+NUUN
  4088	006144'	320000	022711'		ARG X22AND
  4089	006145'	320000	022731'		ARG TUSTP
  4090	006146'	320000	022707'		ARG EQUALS
  4091	006147'	320000	022706'		ARG NSTOP
  4092	006150'	266700	006114*		JSA 16,DBNREC
  4093	006151'	320000	023021'		ARG NUMRET
  4094	006152'	200000	023033'		MOVE F,SAVF
  4095	006153'	336300	023021'		SKIPN N,NUMRET
  4096	006154'	254000	006135'		JRST NXTTMP
  4097	006155'	266700	006122*		JSA 16,DBGET
  4098	006156'	320000	021141'		ARG UINFO
  4099	006157'	320000	006160'		ARG .+1
  4100	006160'	200000	023033'		MOVE F,SAVF
  4101	006161'	661000	004000		TLO F,ASCIO
  4102	006162'	260740	011760'		PUSHJ P,NAMOUT	;&####OUTPUT USER NAMES (TWELVE BYTES)
  4103	006163'	200300	022040'		MOVE N,DIST
  4104	006164'	316300	021146'		CAMN N,UINFO+NUDIST
  4105	006165'	254000	006171'		JRST .+4
  4106	006166'	202300	021146'		MOVEM N,UINFO+NUDIST
  4107				        ;SETZM UINFO+NUCOST      ;ZERO THE COSTCODE IN NEW RECORD
  4108	006167'	201040	022727'	        MOVEI    A,TUDIST
  4109	006170'	201100	021146'	        MOVEI    B,UINFO+NUDIST
  4110	006171'	260740	011402'	        PUSHJ    P,CHGIT
  4111				    ;   PUSHJ    P, MKNUSR
  4112	006172'	200000	023033'		MOVE F,SAVF
  4113	006173'	260740	013540'		PUSHJ P,SENDOK	;&####AND '1' OR ERROR
  4114	006174'	254000	006135'		JRST NXTTMP
  4115	006175'	260740	006203'	LSTTMP:	PUSHJ P,DELTMP
  4116	006176'	202000	023033'		MOVEM F,SAVF
  4117	006177'	266700	006132*		JSA 16,DBCLOS
  4118	006200'	200000	023033'		MOVE F,SAVF
  4119	006201'	260740	013530'		PUSHJ P,SENDEND	;&####END WITH A 377B
  4120	006202'	254000	000137'		JRST LUDUP1
  4121
  4122	006203'	403040	000002	DELTMP:	SETZB A,B
  4123	006204'	403140	000004		SETZB C,D
  4124	006205'	055640	000001		RENAME DSK1,A
  4125	006206'	255000	000000		 JFCL
  4126	006207'	263740	000000		POPJ P,0
UPDLUD - ACCTG., LUD UPDATER	MACRO 12.5-46.0 17:15 19-SEP-89 PAGE 92-3
UPDLUD.MAC	24-MAY-89 18:55		CODE 117 - CHANGE DISTRICT FOR ALL USERS FOR A CUSTOMER

  4127
  4128	006210'	266700	006140*	CHN940:	JSA 16,DBFIND
  4129	006211'	320000	022704'		ARG LAST
  4130	006212'	320240	022711'		ARG 5,X22AND
  4131	006213'	320000	022734'		ARG TVSTP
  4132	006214'	320240	022707'		ARG 5,EQUALS
  4133	006215'	320000	022706'		ARG NSTOP
  4134	006216'	320240	022711'		ARG 5,X22AND
  4135	006217'	320000	022746'		ARG TVHOST
  4136	006220'	320240	022712'		ARG 5,LESSTN
  4137	006221'	320000	022713'		ARG M940
  4138	006222'	266700	006073*		JSA 16,DBMAP
  4139	006223'	320000	020332'		ARG ONE
  4140	006224'	320000	022720'		ARG TUSUUN
  4141	006225'	320000	022721'		ARG TUUUN
  4142	006226'	266700	006210*		JSA 16,DBFIND
  4143	006227'	320000	022704'		ARG LAST
  4144	006230'	320240	022711'		ARG 5,X22AND
  4145	006231'	320000	022731'		ARG TUSTP
  4146	006232'	320240	022707'		ARG 5,EQUALS
  4147	006233'	320000	022706'		ARG NSTOP
  4148	006234'	266700	005733*		JSA 16,DBSORT
  4149	006235'	320000	022721'		ARG TUUUN
  4150	006236'	266700	006150*		JSA 16,DBNREC
  4151	006237'	320000	023022'		ARG NUUNS
  4152	006240'	200000	023033'		MOVE F,SAVF
  4153	006241'	336000	023022'		SKIPN NUUNS
  4154	006242'	254000	006071'		JRST CHDSEN	;DO VALID USERS
  4155	006243'	260740	006255'		PUSHJ P,INITMP
  4156	006244'	266700	006155*	CH9401:	JSA 16,DBGET
  4157	006245'	320000	021141'		ARG UINFO
  4158	006246'	320000	006130'		ARG CNALST
  4159	006247'	200040	021142'		MOVE A,UINFO+NUUN
  4160	006250'	202040	021173'		MOVEM A,VINFO+NUSUUN
  4161	006251'	260740	006303'		PUSHJ P,WRTMP
  4162	006252'	372000	023022'		SOSE NUUNS
  4163	006253'	254000	006244'		JRST CH9401
  4164	006254'	254000	006130'		JRST CNALST
  4165
  4166	006255'	041640	000017	INITMP:	INIT DSK1,17	;OPEN TEMP DISK FILE
  4167	006256'	446353	000000		SIXBIT /DSK/
  4168	006257'	000000	000000		0
  4169	006260'	254000	000664'		JRST INIERR
  4170	006261'	200640	023316'		MOVE BP,[POINT 3,CINFO,17]
  4171	006262'	200100	023317'		MOVE B,[POINT 6,A]
  4172	006263'	201300	000006		MOVEI N,6
  4173	006264'	134540	000015		ILDB CH,BP
  4174	006265'	271540	000020		ADDI CH,20	;MAKE SIXBIT
  4175	006266'	136540	000002		IDPB CH,B	;MAKE FILE NAME THE CUST. NO.
  4176	006267'	367300	006264'		SOJG N,.-3
  4177	006270'	202040	023042'		MOVEM A,TMPNAM#	;SAVE FILE NAME
  4178	006271'	515100	445163		HRLZI B,(SIXBIT /DIS/) ;EXTENSION
  4179	006272'	403140	000004		SETZB C,D
UPDLUD - ACCTG., LUD UPDATER	MACRO 12.5-46.0 17:15 19-SEP-89 PAGE 92-4
UPDLUD.MAC	24-MAY-89 18:55		CODE 117 - CHANGE DISTRICT FOR ALL USERS FOR A CUSTOMER

  4180	006273'	077640	000001		ENTER DSK1,A
  4181	006274'	254000	000666'		JRST LEERR
  4182	006275'	254000	006276'		JRST CLRTMP
  4183
  4184	006276'	402000	022100'	CLRTMP:	SETZM LUDBLK
  4185	006277'	200040	023320'		MOVE A,[XWD LUDBLK,LUDBLK+1]
  4186	006300'	251040	022277'		BLT A,LUDBLK+177
  4187	006301'	402000	023041'		SETZM TMPDEX#
  4188	006302'	263740	000000		POPJ P,0
  4189
  4190	006303'	200500	023041'	WRTMP:	MOVE INDEX,TMPDEX
  4191	006304'	200100	021173'		MOVE B,VINFO+NUSUUN
  4192	006305'	202112	022100'		MOVEM B,LUDBLK(INDEX)
  4193	006306'	340500	000000		AOJ INDEX,
  4194	006307'	202500	023041'		MOVEM INDEX,TMPDEX
  4195	006310'	301500	000176		CAIL INDEX,^D126
  4196	006311'	260740	006313'		PUSHJ P,TMPEND
  4197	006312'	263740	000000		POPJ P,0
  4198
  4199	006313'	067640	020412'	TMPEND:	OUTPUT DSK1,LUDLST
  4200	006314'	063640	740000		STATZ DSK1,740000
  4201	006315'	254000	000670'		JRST IOERR
  4202	006316'	254000	006276'		JRST CLRTMP
  4203
  4204
  4205	006317'	332000	023041'	CLSTMP:	SKIPE TMPDEX
  4206	006320'	260740	006313'		PUSHJ P,TMPEND
  4207	006321'	070640	000000		CLOSE DSK1,
  4208	006322'	200040	023042'		MOVE A,TMPNAM
  4209	006323'	515100	445163		HRLZI B,(SIXBIT /DIS/)
  4210	006324'	403140	000004		SETZB C,D
  4211	006325'	076640	000001		LOOKUP DSK1,A
  4212	006326'	254000	000666'		JRST LEERR
  4213	006327'	254000	006345'		JRST RDTMP
  4214
  4215	006330'	200500	023041'	GETTMP:	MOVE INDEX,TMPDEX
  4216	006331'	305500	000176		CAIGE INDEX,^D126
  4217	006332'	254000	006336'		JRST .+4
  4218	006333'	260740	006345'		PUSHJ P,RDTMP
  4219	006334'	063640	020000		STATZ DSK1,20000
  4220	006335'	263740	000000		POPJ P,0
  4221	006336'	200052	022100'		MOVE A,LUDBLK(INDEX)
  4222	006337'	202040	021142'		MOVEM A,UINFO+NUUN
  4223	006340'	202040	021173'		MOVEM A,VINFO+NUSUUN
  4224	006341'	350500	023041'		AOS INDEX,TMPDEX
  4225	006342'	332000	021142'		SKIPE UINFO+NUUN
  4226	006343'	350017	000000		AOS (P)
  4227	006344'	263740	000000		POPJ P,0
  4228
  4229	006345'	066640	020412'	RDTMP:	INPUT DSK1,LUDLST
  4230	006346'	063640	740000		STATZ DSK1,740000
  4231	006347'	254000	000670'		JRST IOERR
  4232	006350'	403500	023041'		SETZB INDEX,TMPDEX
UPDLUD - ACCTG., LUD UPDATER	MACRO 12.5-46.0 17:15 19-SEP-89 PAGE 92-5
UPDLUD.MAC	24-MAY-89 18:55		CODE 117 - CHANGE DISTRICT FOR ALL USERS FOR A CUSTOMER

  4233	006351'	263740	000000		POPJ P,0
UPDLUD - ACCTG., LUD UPDATER	MACRO 12.5-46.0 17:15 19-SEP-89 PAGE 93
UPDLUD.MAC	24-MAY-89 18:55		CODE 120 CHECK UUN ON SPECIFIED HOST ONLY

  4234				SUBTTL CODE 120 CHECK UUN ON SPECIFIED HOST ONLY
  4235
  4236				;&.SKIP 2
  4237				;&CODE 120: CHECK TO SEE IF USER IS VALID ONLY ON SPECIFIED HOST
  4238	006352'	260740	012160'	CHONHT:	PUSHJ P,UUNIN	;&####INPUT UUN (THREE BYTES)
  4239	006353'	260740	012644'		PUSHJ P,GETSIT	;&####INPUT HOST (TWO BYTES)
  4240	006354'	660000	000100		TRO F,ALLIOI
  4241	006355'	260740	015366'		PUSHJ P,VINIT
  4242	006356'	266700	006226*		JSA 16,DBFIND
  4243	006357'	320000	022720'		ARG TUSUUN
  4244	006360'	320000	022707'		ARG EQUALS
  4245	006361'	320000	022714'		ARG DBUUN
  4246	006362'	320000	022711'		ARG X22AND
  4247	006363'	320000	022734'		ARG TVSTP
  4248	006364'	320000	022707'		ARG EQUALS
  4249	006365'	320000	022706'		ARG NSTOP
  4250	006366'	320000	022711'		ARG X22AND
  4251	006367'	320000	022746'		ARG TVHOST
  4252	006370'	320000	022710'		ARG NEQUALS
  4253	006371'	320000	021174'		ARG VINFO+NHOST
  4254	006372'	254000	005553'		JRST CHKANS
UPDLUD - ACCTG., LUD UPDATER	MACRO 12.5-46.0 17:15 19-SEP-89 PAGE 94
UPDLUD.MAC	24-MAY-89 18:55		CODE 122 - REVERSE LAST ACCOUNTING ENTRY MADE

  4255				SUBTTL CODE 122 - REVERSE LAST ACCOUNTING ENTRY MADE
  4256
  4257				;&.SKIP 2
  4258				;&CODE 122: REVERSE LAST ACCOUNTING ENTRY
  4259				;&####VALID CODE ONLY IF LAST BILLING COMMAND WAS 30,60,61,62,74,76 OR 101
  4260	006373'	660000	000100	REVBIL:	TRO F,ALLIOI
  4261	006374'	200040	023023'		MOVE A,OLDCOD
  4262	006375'	200101	000252'		MOVE B,DISTAB(A)
  4263	006376'	607100	000100		TLNN B,REVIT
  4264	006377'	254000	000752'		JRST BADCOD
  4265	006400'	306040	000030		CAIN A,30
  4266	006401'	254000	006501'		JRST RVNCST
  4267	006402'	306040	000061		CAIN A,61
  4268	006403'	254000	006550'		JRST RVADDS
  4269	006404'	306040	000074		CAIN A,74
  4270	006405'	254000	006571'		JRST RVDELS
  4271	006406'	306040	000060		CAIN A,60
  4272	006407'	254000	006522'		JRST RVNEWU
  4273	006410'	306040	000101		CAIN A,101
  4274	006411'	254000	006630'		JRST RVADDU
  4275	006412'	306040	000062		CAIN A,62
  4276	006413'	254000	006561'		JRST RVCHUN
  4277	006414'	306040	000076		CAIN A,76
  4278	006415'	254000	006650'		JRST RVDELU
  4279	006416'	306040	000205	        CAIN A,205
  4280	006417'	254000	006651'	        JRST RVNEWT
  4281	006420'	306040	000211	        CAIN A,211
  4282	006421'	254000	006657'	        JRST RVDELT
  4283	006422'	254000	000752'		JRST BADCOD
  4284				SUBTTL CODE 121 REVERSE LAST LUD ENTRY
  4285
  4286				;&.SKIP 2
  4287				;&CODE 121: REVERSE LAST LUD ENTRY
  4288				;&####VALID CODE ONLY IF LAST LUD COMMAND WAS 1, 2, OR 3
  4289	006423'	660000	000100	REVLUD:	TRO F,ALLIOI
  4290	006424'	200040	023023'		MOVE A,OLDCOD
  4291	006425'	323040	000752'		JUMPLE A,BADCOD
  4292	006426'	303040	000003		CAILE A,3
  4293	006427'	254000	000752'		JRST BADCOD
  4294	006430'	250040	022773'		EXCH A,CODE
  4295	006431'	202040	023023'		MOVEM A,OLDCOD
  4296	006432'	200040	022011'		MOVE A,SAVORG+LBLK
  4297	006433'	202040	023002'		MOVEM A,HLOC
  4298	006434'	260740	000516'		PUSHJ P,GETSYS
  4299	006435'	260740	000526'		PUSHJ P,GETLUD
  4300	006436'	200100	022010'		MOVE B,SAVORG+HASH	;FOUND ENTRY IN SAVORG+LINDEX
  4301	006437'	200500	022007'		MOVE INDEX,SAVORG+LINDEX
  4302	006440'	200052	022100'		MOVE A,LUDBLK(INDEX)
  4303	006441'	202040	022037'		MOVEM A,LPPN
  4304	006442'	200040	022773'		MOVE A,CODE
  4305	006443'	306040	000003		CAIN A,3
  4306	006444'	254000	006710'		JRST FIXCH	;IF CHG. NAME WAS LAST CODE...GO DO IT
  4307	006445'	306040	000001		CAIN A,1
UPDLUD - ACCTG., LUD UPDATER	MACRO 12.5-46.0 17:15 19-SEP-89 PAGE 94-2
UPDLUD.MAC	24-MAY-89 18:55		CODE 121 REVERSE LAST LUD ENTRY

  4308	006446'	202112	022104'		MOVEM B,LUDBLK+4(INDEX)
  4309	006447'	306040	000002		CAIN A,2
  4310	006450'	402012	022104'		SETZM ,LUDBLK+4(INDEX)
  4311	006451'	260740	001034'		PUSHJ P,ENDLUD
  4312	006452'	200040	022773'		MOVE A,CODE
  4313	006453'	306040	000001		CAIN A,1
  4314	006454'	254000	006470'		JRST FIXDEL
  4315	006455'	302040	000002		CAIE A,2
  4316	006456'	254000	001046'		JRST DULAGN
  4317	006457'	260740	000540'		PUSHJ P,GETDUL
  4318	006460'	200100	022015'		MOVE B,SAVORG+DBLK
  4319	006461'	312100	023002'		CAME B,HLOC
  4320	006462'	260740	000643'		PUSHJ P,DSKERR
  4321	006463'	200500	022012'		MOVE INDEX,SAVORG+DINDEX
  4322	006464'	402012	022100'		SETZM ,LUDBLK(INDEX)	;GET RID OF OLD DUL ENTRY
  4323	006465'	402012	022101'		SETZM ,LUDBLK+1(INDEX)
  4324	006466'	402012	022102'		SETZM ,LUDBLK+2(INDEX)
  4325	006467'	254000	001045'		JRST DIDIT+2
  4326
  4327	006470'	260740	000540'	FIXDEL:	PUSHJ P,GETDUL
  4328	006471'	260740	001160'		PUSHJ P,DULFRE
  4329	006472'	200040	022037'		MOVE A,LPPN
  4330	006473'	202043	022100'		MOVEM A,LUDBLK(C)
  4331	006474'	200040	022013'		MOVE A,SAVORG+DNAME
  4332	006475'	202043	022101'		MOVEM A,LUDBLK+1(C)
  4333	006476'	200040	022014'		MOVE A,SAVORG+DNAME+1
  4334	006477'	202043	022102'		MOVEM A,LUDBLK+2(C)
  4335	006500'	254000	001045'		JRST DIDIT+2
UPDLUD - ACCTG., LUD UPDATER	MACRO 12.5-46.0 17:15 19-SEP-89 PAGE 95
UPDLUD.MAC	24-MAY-89 18:55		CODE 121 REVERSE LAST LUD ENTRY

  4336				;REVERSE ADD CUSTOMER
  4337	006501'	200040	022025'	RVNCST:	MOVE A,SAVORG+OCUST
  4338	006502'	202040	021514'		MOVEM A,CINFO+NCUSNUM ;GET CUSTOMER NUMBER
  4339	006503'	202040	021545'		MOVEM A,AINFO+NACUSNUM
  4340	006504'	200040	022026'		MOVE A,SAVORG+OAST
  4341	006505'	202040	021515'		MOVEM A,CINFO+NCSYSC
  4342	006506'	202040	021546'		MOVEM A,AINFO+NASYSC
  4343	006507'	260740	015503'		PUSHJ P,CFIND
  4344	006510'	254000	006516'		JRST RVNC1
  4345	006511'	260740	011362'		PUSHJ P,DELLIT
  4346	006512'	202000	023033'		MOVEM F,SAVF
  4347	006513'	266700	000000*		JSA 16,DBDEL
  4348	006514'	266700	006177*		JSA 16,DBCLOS
  4349	006515'	200000	023033'		MOVE F,SAVF
  4350	006516'	260740	015564'	RVNC1:	PUSHJ P,AFIND
  4351	006517'	254000	001070'		JRST DIDIT3
  4352	006520'	260740	011362'		PUSHJ P,DELLIT
  4353	006521'	254000	003157'		JRST CHEND
  4354
  4355				;REVERSE NEW USER
  4356	006522'	200040	022016'	RVNEWU:	MOVE A,SAVORG+PPN
  4357	006523'	202040	022714'		MOVEM A,DBUUN
  4358	006524'	202040	021160'		MOVEM A,USINFO+NUSUUN
  4359	006525'	202040	021173'		MOVEM A,VINFO+NUSUUN
  4360	006526'	200040	022017'		MOVE A,SAVORG+SITE
  4361	006527'	202040	021174'		MOVEM A,VINFO+NHOST
  4362	006530'	200040	022026'		MOVE A,SAVORG+OAST
  4363	006531'	202040	021161'		MOVEM A,USINFO+NUSYSC
  4364	006532'	260740	004724'		PUSHJ P,V1FIND
  4365	006533'	254000	006535'		JRST RVNU1
  4366	006534'	260740	011362'		PUSHJ P,DELLIT
  4367	006535'	266700	006514*	RVNU1:	JSA 16,DBCLOS
  4368	006536'	200000	023033'		MOVE F,SAVF
  4369	006537'	260740	015452'		PUSHJ P,USFIND
  4370	006540'	254000	006542'		JRST RVNU2
  4371	006541'	260740	011362'		PUSHJ P,DELLIT
  4372	006542'	266700	006535*	RVNU2:	JSA 16,DBCLOS
  4373	006543'	200000	023033'		MOVE F,SAVF
  4374	006544'	260740	015424'		PUSHJ P,UFIND
  4375	006545'	254000	001070'		JRST DIDIT3
  4376	006546'	260740	011362'		PUSHJ P,DELLIT
  4377	006547'	254000	003157'		JRST CHEND
  4378
  4379				;REVERSE ADD SITE FOR A UUN
  4380	006550'	200040	022016'	RVADDS:	MOVE A,SAVORG+PPN
  4381	006551'	202040	021173'		MOVEM A,VINFO+NUSUUN
  4382	006552'	202040	022714'		MOVEM A,DBUUN
  4383	006553'	200040	022017'		MOVE A,SAVORG+SITE
  4384	006554'	202040	021174'		MOVEM A,VINFO+NHOST
  4385	006555'	260740	004724'		PUSHJ P,V1FIND
  4386	006556'	254000	001070'		JRST DIDIT3
  4387	006557'	260740	011362'		PUSHJ P,DELLIT
  4388	006560'	254000	003157'		JRST CHEND
UPDLUD - ACCTG., LUD UPDATER	MACRO 12.5-46.0 17:15 19-SEP-89 PAGE 95-2
UPDLUD.MAC	24-MAY-89 18:55		CODE 121 REVERSE LAST LUD ENTRY

  4389
  4390				;REVERSE CHANGE NAME IN ACCOUNTING
  4391	006561'	200040	022016'	RVCHUN:	MOVE A,SAVORG+PPN
  4392	006562'	202040	022714'		MOVEM A,DBUUN
  4393	006563'	260740	015424'		PUSHJ P,UFIND
  4394	006564'	254000	001070'		JRST DIDIT3
  4395	006565'	201040	022715'		MOVEI A,TUNAME
  4396	006566'	201100	022027'		MOVEI B,OLDNAM
  4397	006567'	260740	011402'		PUSHJ P,CHGIT
  4398	006570'	254000	003157'		JRST CHEND
  4399
  4400				;REVERSE DELETE HOST FOR A UUN
  4401	006571'	200040	022016'	RVDELS:	MOVE A,SAVORG+PPN
  4402	006572'	202040	021173'		MOVEM A,VINFO+NUSUUN
  4403	006573'	200040	022017'		MOVE A,SAVORG+SITE
  4404	006574'	202040	021174'		MOVEM A,VINFO+NHOST
  4405	006575'	260740	015366'		PUSHJ P,VINIT
  4406	006576'	202000	023033'		MOVEM F,SAVF
  4407	006577'	266700	006356*		JSA 16,DBFIND
  4408	006600'	320000	022720'		ARG TUSUUN
  4409	006601'	320000	022707'		ARG EQUALS
  4410	006602'	320000	021173'		ARG VINFO+NUSUUN
  4411	006603'	320000	022711'		ARG X22AND
  4412	006604'	320000	022746'		ARG TVHOST
  4413	006605'	320000	022707'		ARG EQUALS
  4414	006606'	320000	021174'		ARG VINFO+NHOST
  4415	006607'	320000	022711'		ARG X22AND
  4416	006610'	320000	022734'		ARG TVSTP
  4417	006611'	320000	022707'		ARG EQUALS
  4418	006612'	320000	023043'		ARG TODAY
  4419	006613'	266700	006236*		JSA 16,DBNREC
  4420	006614'	320000	023021'		ARG NUMRET
  4421	006615'	200000	023033'		MOVE F,SAVF
  4422	006616'	336000	023021'		SKIPN NUMRET
  4423	006617'	254000	001070'		JRST DIDIT3
  4424	006620'	266700	006244*		JSA 16,DBGET
  4425	006621'	320000	021173'		ARG VINFO
  4426	006622'	320000	006623'		ARG .+1
  4427	006623'	200000	023033'		MOVE F,SAVF
  4428	006624'	201040	022734'		MOVEI A,TVSTP
  4429	006625'	201100	022706'		MOVEI B,NSTOP
  4430	006626'	260740	011402'		PUSHJ P,CHGIT
  4431	006627'	254000	003157'		JRST CHEND
  4432
  4433
  4434				;REVERSE NEW USER FOR AN AST
  4435	006630'	200040	022016'	RVADDU:	MOVE A,SAVORG+PPN
  4436	006631'	202040	021160'		MOVEM A,USINFO+NUSUUN
  4437	006632'	202040	021173'		MOVEM A,VINFO+NUSUUN
  4438	006633'	200040	022017'		MOVE A,SAVORG+SITE
  4439	006634'	202040	021142'		MOVEM A,UINFO+NHOST
  4440	006635'	200040	022010'		MOVE A,SAVORG+NUSYSC
  4441	006636'	260740	004724'		PUSHJ P,V1FIND
UPDLUD - ACCTG., LUD UPDATER	MACRO 12.5-46.0 17:15 19-SEP-89 PAGE 95-3
UPDLUD.MAC	24-MAY-89 18:55		CODE 121 REVERSE LAST LUD ENTRY

  4442	006637'	254000	006641'		JRST RVAU1
  4443	006640'	260740	011362'		PUSHJ P,DELLIT
  4444	006641'	266700	006542*	RVAU1:	JSA 16,DBCLOS
  4445	006642'	200000	023033'		MOVE F,SAVF
  4446	006643'	260740	015452'		PUSHJ P,USFIND
  4447	006644'	254000	001070'		JRST DIDIT3
  4448	006645'	200000	023033'		MOVE F,SAVF
  4449	006646'	260740	011362'		PUSHJ P,DELLIT
  4450	006647'	254000	003157'		JRST CHEND
  4451
  4452
  4453	006650'	254000	001070'	RVDELU:	JRST DIDIT3
  4454
  4455				; reverse new user in TUSRDB
  4456	006651'			RVNEWT:
  4457	006651'	200040	022016'	        MOVE    A,SAVORG+PPN          ; load in saved uun
  4458	006652'	202040	021161'	        MOVEM   A,USINFO+NUUN
  4459	006653'	260740	015766'	        PUSHJ   P,YFIND               ; find uun in TUSRDB
  4460	006654'	254000	001070'	         JRST   DIDIT3                ; not found
  4461	006655'	260740	011362'	        PUSHJ   P,DELLIT
  4462	006656'	254000	003157'	        JRST    CHEND
  4463
  4464				; reverse delete user in TUSRDB
  4465	006657'			RVDELT:
  4466	006657'	200040	022016'	        MOVE    A,SAVORG+PPN
  4467	006660'	202040	021161'	        MOVEM   A,USINFO+NUUN
  4468	006661'	260740	015405'	        PUSHJ P,YINIT
  4469	006662'	202000	023033'	        MOVEM F,SAVF
  4470	006663'	266700	006577*		JSA 16,DBFIND
  4471	006664'	320000	022721'		ARG TUUUN
  4472	006665'	320000	022707'		ARG EQUALS
  4473	006666'	320000	021161'		ARG USINFO+NUUN
  4474	006667'	320000	022711'		ARG X22AND
  4475	006670'	320000	022733'		ARG TUCSTP
  4476	006671'	320000	022707'		ARG EQUALS
  4477	006672'	320000	023043'		ARG TODAY
  4478	006673'	266700	006613*		JSA 16,DBNREC
  4479	006674'	320000	023021'		ARG NUMRET
  4480	006675'	200000	023033'		MOVE F,SAVF
  4481	006676'	336300	023021'		SKIPN N,NUMRET
  4482	006677'	254000	001070'		 JRST DIDIT3
  4483	006700'	266700	006620*		JSA 16,DBGET
  4484	006701'	320000	021160'		ARG USINFO
  4485	006702'	320000	006703'		ARG .+1
  4486	006703'	200000	023033'		MOVE F,SAVF
  4487	006704'	201040	022733'	        MOVEI   A,TUCSTP              ; load attribute 'DSTOP'
  4488	006705'	201100	022706'	        MOVEI   B,NSTOP               ; load value '12/31/99'
  4489	006706'	260740	011402'	        PUSHJ   P,CHGIT
  4490	006707'	254000	003157'	        JRST    CHEND
UPDLUD - ACCTG., LUD UPDATER	MACRO 12.5-46.0 17:15 19-SEP-89 PAGE 96
UPDLUD.MAC	24-MAY-89 18:55		CODE 121 REVERSE LAST LUD ENTRY

  4491	006710'	402012	022104'	FIXCH:	SETZM ,LUDBLK+4(INDEX)	;REMOVE NEWER NAME
  4492	006711'	260740	001034'		PUSHJ P,ENDLUD
  4493	006712'	260740	000526'		PUSHJ P,GETLUD
  4494	006713'	200040	022024'		MOVE A,SAVORG+OBLK
  4495	006714'	202040	023002'		MOVEM A,HLOC
  4496	006715'	074760	023002'		USETI DSK,@HLOC
  4497	006716'	066740	020412'		INPUT DSK,LUDLST
  4498	006717'	063740	740000		STATZ DSK,740000
  4499	006720'	260740	000670'		PUSHJ P,IOERR
  4500	006721'	200500	022022'		MOVE INDEX,SAVORG+OINDEX
  4501	006722'	200040	022023'		MOVE A,SAVORG+OHASH
  4502	006723'	202052	022104'		MOVEM A,LUDBLK+4(INDEX)	;RESTORE ORIG. NAME
  4503	006724'	260740	001034'		PUSHJ P,ENDLUD
  4504	006725'	260740	000540'		PUSHJ P,GETDUL
  4505	006726'	200500	022012'		MOVE INDEX,SAVORG+DINDEX
  4506	006727'	200040	022020'		MOVE A,SAVORG+ONAME
  4507	006730'	202052	022101'		MOVEM A,LUDBLK+1(INDEX)
  4508	006731'	200040	022021'		MOVE A,SAVORG+ONAME+1
  4509	006732'	202052	022102'		MOVEM A,LUDBLK+2(INDEX)	;RESTORE ORIG. NAME IN DUL
  4510	006733'	260740	001034'		PUSHJ P,ENDLUD
  4511	006734'	254000	001067'		JRST DIDIT2
UPDLUD - ACCTG., LUD UPDATER	MACRO 12.5-46.0 17:15 19-SEP-89 PAGE 97
UPDLUD.MAC	24-MAY-89 18:55		CODE 123 - LIST ALL USERS FOR A HOST

  4512				SUBTTL CODE 123 - LIST ALL USERS FOR A HOST
  4513
  4514				;&.SKIP 2
  4515				;&CODE 123: LIST ALL USERS FOR A HOST
  4516	006735'	260740	012644'	LAHOST:	PUSHJ P,GETSIT	;&####INPUT HOST (TWO BYTES)
  4517	006736'	260740	013362'		PUSHJ P,CHKINF
  4518	006737'	260740	013540'		PUSHJ P,SENDOK	;&####OUTPUT 1 OR ERROR
  4519	006740'	260740	007013'		PUSHJ P,GTACUS
  4520	006741'	266700	006700*	LHST1:	JSA 16,DBGET	;&####FOR EACH USER:
  4521	006742'	320000	021141'		ARG UINFO
  4522	006743'	320000	006744'		ARG .+1
  4523	006744'	200000	023033'		MOVE F,SAVF
  4524	006745'	661000	004000		TLO F,ASCIO
  4525	006746'	260740	011760'		PUSHJ P,NAMOUT	;&####OUTPUT USER NAME (TWELVE BYTES)
  4526	006747'	200300	021147'		MOVE N,UINFO+NUCUSN	;&####OUTPUT CUSTOMER NUMBER (THREE BYTES)
  4527	006750'	602000	000010		TRNE F,TTYOUT
  4528	006751'	051140	017746'		OUTSTR MCSTNO
  4529	006752'	260740	015151'		PUSHJ P,NUMOUT
  4530	006753'	260740	015242'		PUSHJ P,CRLF
  4531	006754'	200300	021141'		MOVE N,UINFO+NGAN
  4532	006755'	260740	013334'		PUSHJ P,DECOCT
  4533	006756'	260740	011564'		PUSHJ P,GANOUT	;&####OUTPUT GAN (THREE BYTES)
  4534	006757'	260740	015242'		PUSHJ P,CRLF
  4535	006760'	200300	021142'		MOVE N,UINFO+NUUN
  4536	006761'	260740	013334'		PUSHJ P,DECOCT
  4537	006762'	602000	000010		TRNE F,TTYOUT
  4538	006763'	051140	020023'		OUTSTR MUUN
  4539	006764'	661000	000010		TLO F,OCTINF
  4540	006765'	260740	015151'		PUSHJ P,NUMOUT	;&####OUTPUT UUN (THREE BYTES)
  4541	006766'	260740	015242'		PUSHJ P,CRLF
  4542	006767'	373000	023022'		SOSLE NUUNS
  4543	006770'	254000	006741'		JRST LHST1
  4544	006771'	260740	013530'	LSTHST:	PUSHJ P,SENDEND	;&####END WITH 377B
  4545	006772'	266700	006641*		JSA 16,DBCLOS
  4546	006773'	266700	006772*		JSA 16,DBCLOS
  4547	006774'	200000	023033'		MOVE F,SAVF
  4548	006775'	254000	000137'		JRST LUDUP1
  4549
  4550
  4551				;&.SKIP 2
  4552				;&CODE 124: LIST CUSTOMER NUMBER FOR A UUN (NO AST NEEDED)
  4553	006776'	260740	012160'	LUCST1:	PUSHJ P,UUNIN	;&####INPUT UUN (THREE BYTES)
  4554	006777'	660000	000100		TRO F,ALLIOI
  4555	007000'	260740	015424'		PUSHJ P,UFIND
  4556	007001'	260740	000622'		PUSHJ P,NOTFND
  4557	007002'	202000	023033'		MOVEM F,SAVF
  4558	007003'	266700	006773*		JSA 16,DBCLOS
  4559	007004'	200000	023033'		MOVE F,SAVF
  4560	007005'	260740	013540'		PUSHJ P,SENDOK	;&####OUTPUT 1 IF FOUND, 3 IF NOT, OR ERROR
  4561	007006'	200300	021147'		MOVE N,UINFO+NUCUSN
  4562	007007'	602000	000010		TRNE F,TTYOUT
  4563	007010'	051140	017746'		OUTSTR MCSTNO
  4564	007011'	260740	015151'		PUSHJ P,NUMOUT	;&####OUTPUT CUSTOMER NUMBER (THREE BYTES)
UPDLUD - ACCTG., LUD UPDATER	MACRO 12.5-46.0 17:15 19-SEP-89 PAGE 97-2
UPDLUD.MAC	24-MAY-89 18:55		CODE 123 - LIST ALL USERS FOR A HOST

  4565	007012'	254000	000137'		JRST LUDUP1
UPDLUD - ACCTG., LUD UPDATER	MACRO 12.5-46.0 17:15 19-SEP-89 PAGE 98
UPDLUD.MAC	24-MAY-89 18:55		CODE 123 - LIST ALL USERS FOR A HOST

  4566	007013'	202000	023033'	GTACUS:	MOVEM F,SAVF
  4567	007014'	266700	005447*		JSA 16,DBOPEN
  4568	007015'	320240	021100'		ARG 5,VALDB
  4569	007016'	320240	021074'		ARG 5,USERDB
  4570	007017'	266700	006663*		JSA 16,DBFIND	;FIND ALL USERS FOR THIS HOST
  4571	007020'	320000	022746'		ARG TVHOST
  4572	007021'	320000	022707'		ARG EQUALS
  4573	007022'	320000	021174'		ARG VINFO+NHOST
  4574	007023'	320000	022711'		ARG X22AND
  4575	007024'	320000	022734'		ARG TVSTP
  4576	007025'	320000	022707'		ARG EQUALS
  4577	007026'	320000	022706'		ARG NSTOP
  4578	007027'	266700	006673*		JSA 16,DBNREC
  4579	007030'	320000	023022'		ARG NUUNS
  4580	007031'	200000	023033'		MOVE F,SAVF
  4581	007032'	336000	023022'		SKIPN NUUNS
  4582	007033'	254000	006771'		JRST LSTHST
  4583	007034'	266700	006222*		JSA 16,DBMAP
  4584	007035'	320000	020333'		ARG TWO
  4585	007036'	320000	022720'		ARG TUSUUN
  4586	007037'	320000	022721'		ARG TUUUN
  4587	007040'	266700	007017*		JSA 16,DBFIND
  4588	007041'	320000	022704'		ARG LAST
  4589	007042'	320000	022711'		ARG X22AND
  4590	007043'	320000	022731'		ARG TUSTP
  4591	007044'	320000	022707'		ARG EQUALS
  4592	007045'	320000	022706'		ARG NSTOP
  4593	007046'	266700	007027*		JSA 16,DBNREC
  4594	007047'	320000	023022'		ARG NUUNS
  4595	007050'	200000	023033'		MOVE F,SAVF
  4596	007051'	336000	023022'		SKIPN NUUNS
  4597	007052'	254000	006771'		JRST LSTHST
  4598	007053'	263740	000000		POPJ P,0
UPDLUD - ACCTG., LUD UPDATER	MACRO 12.5-46.0 17:15 19-SEP-89 PAGE 99
UPDLUD.MAC	24-MAY-89 18:55		CODE 125 - LIST DISTRICT FOR A CUSTOMER (ANY AST)

  4599				SUBTTL CODE 125 - LIST DISTRICT FOR A CUSTOMER (ANY AST)
  4600
  4601				;&.SKIP 2
  4602				;&CODE 125: LIST DISTRICT FOR A CUSTOMER FOR ANY AST
  4603	007054'	260740	012242'	LDCUST:	PUSHJ P,CUSTIN	;&####INPUT CUSTOMER NUMBER (THREE BYTES)
  4604	007055'	660000	000100		TRO F,ALLIOI
  4605	007056'	260740	015535'		PUSHJ P,CFINDA
  4606	007057'	260740	000622'		PUSHJ P,NOTFND
  4607	007060'	260740	013540'		PUSHJ P,SENDOK	;&####OUTPUT 1 IF CUSTOMER FOUND, 3 IF NOT, OR ERROR
  4608	007061'	202000	023033'		MOVEM F,SAVF
  4609	007062'	266700	006741*		JSA 16,DBGET
  4610	007063'	320000	021514'		ARG CINFO
  4611	007064'	320000	007065'		ARG .+1
  4612	007065'	266700	007003*		JSA 16,DBCLOS
  4613	007066'	200000	023033'		MOVE F,SAVF
  4614	007067'	200300	021516'		MOVE N,CINFO+NCDIST
  4615	007070'	260740	011516'		PUSHJ P,DISOUT	;&####OUTPUT DISTRICT (ONE BYTE)
  4616	007071'	254000	000137'		JRST LUDUP1
  4617
  4618
  4619				;&.SKIP 2
  4620				;&CODE 126: LIST ALL USERS AND THEIR HOSTS FOR A DISTRICT
  4621				;&####INPUT DISTRICT (ONE BYTE)
  4622				;&####FOR EACH USER:
  4623				;&####OUTPUT CUSTOMER NUMBER (THREE BYTES)
  4624				;&####OUTPUT GAN (THREE BYTES)
  4625				;&####OUTPUT USERNAME (TWELVE BYTES)
  4626				;&####OUTPUT HOSTS (SEE BELOW)
  4627				;&####END WITH 377B
  4628	007072'	621000	000100	LAUHD1:	TLZ F,NAMESO
  4629	007073'	254000	003545'		JRST LAUSD1+1
  4630
  4631
  4632				;&.SKIP 2
  4633				;&CODE 127: LIST ALL USERS FOR AN ACCTG. SYS. TYPE
  4634				;&####INPUT ACCOUNTING SYSTEM TYPE (ONE BYTE)****MUST BE =9 FOR NOW
  4635				;&####OUTPUT 1 IF OK, OR ERROR
  4636				;&####FOR EACH USER:
  4637				;&########OUTPUT USER NAME (TWELVE BYTES)
  4638				;&########OUTPUT GAN (THREE BYTES)
  4639				;&########OUTPUT UUN (THREE BYTES)
  4640				;&####END WITH 377B
  4641	007074'	621000	000100	LAAST:	TLZ F,NAMESO
  4642	007075'	260740	012257'		PUSHJ P,ASYSIN
  4643	007076'	302300	000011		CAIE N,ASTIII
  4644	007077'	260740	000655'		PUSHJ P,BADVAL
  4645	007100'	254000	010562'		JRST LTYMNT+1
UPDLUD - ACCTG., LUD UPDATER	MACRO 12.5-46.0 17:15 19-SEP-89 PAGE 100
UPDLUD.MAC	24-MAY-89 18:55		CODE 130 - LIST ALL CUSTOMERS FOR A HOST

  4646				SUBTTL CODE 130 - LIST ALL CUSTOMERS FOR A HOST
  4647
  4648				;&.SKIP 2
  4649				;&CODE 130: LIST ALL CUSTOMERS FOR A HOST
  4650	007101'	260740	012644'	LACUST:	PUSHJ P,GETSIT	;&####INPUT HOST (TWO BYTES)
  4651	007102'	260740	013362'		PUSHJ P,CHKINF
  4652	007103'	260740	007013'		PUSHJ P,GTACUS
  4653	007104'	266700	006234*		JSA 16,DBSORT
  4654	007105'	320000	022723'		ARG TUCNUM
  4655	007106'	260740	006255'		PUSHJ P,INITMP
  4656	007107'	402000	023040'		SETZM TMPCUS#
  4657	007110'	266700	007062*	LACST1:	JSA 16,DBGET
  4658	007111'	320000	021141'		ARG UINFO
  4659	007112'	320000	007113'		ARG .+1
  4660	007113'	200000	023033'		MOVE F,SAVF
  4661	007114'	200100	021147'		MOVE B,UINFO+NUCUSN
  4662	007115'	312100	023040'		CAME B,TMPCUS
  4663					JRST [MOVEM B,TMPCUS
  4664						MOVEM B,VINFO+NUSUUN
  4665						PUSHJ P,WRTMP
  4666	007116'	254000	023321'			JRST .+1]
  4667	007117'	373000	023022'		SOSLE NUUNS
  4668	007120'	254000	007110'		JRST LACST1
  4669	007121'	266700	007065*		JSA 16,DBCLOSE
  4670	007122'	266700	007121*		JSA 16,DBCLOSE
  4671	007123'	200000	023033'		MOVE F,SAVF
  4672	007124'	260740	006317'		PUSHJ P,CLSTMP
  4673	007125'	266700	007014*		JSA 16,DBOPEN
  4674	007126'	320240	021070'		ARG 5,CUSTDB
  4675	007127'	260740	006330'	NXTACT:	PUSHJ P,GETTMP
  4676	007130'	254000	006175'		JRST LSTTMP
  4677	007131'	266700	007040*		JSA 16,DBFIND
  4678	007132'	320000	022722'		ARG TCCNUM
  4679	007133'	320000	022707'		ARG EQUALS
  4680	007134'	320000	021142'		ARG UINFO+NUUN
  4681	007135'	320000	022711'		ARG X22AND
  4682	007136'	320000	022732'		ARG TCSTP
  4683	007137'	320000	022707'		ARG EQUALS
  4684	007140'	320000	022706'		ARG NSTOP
  4685	007141'	320000	022711'		ARG X22AND
  4686	007142'	320000	022735'		ARG TASYSC
  4687	007143'	320000	022707'		ARG EQUALS
  4688	007144'	320000	020333'		ARG TWO
  4689	007145'	266700	007046*		JSA 16,DBNREC
  4690	007146'	320000	023021'		ARG NUMRET
  4691	007147'	200000	023033'		MOVE F,SAVF
  4692	007150'	336300	023021'		SKIPN N,NUMRET
  4693	007151'	254000	007127'		JRST NXTACT
  4694	007152'	266700	007110*		JSA 16,DBGET
  4695	007153'	320000	021514'		ARG CINFO
  4696	007154'	320000	007155'		ARG .+1
  4697	007155'	200000	023033'		MOVE F,SAVF	;&####FOR EACH CUSTOMER:
  4698	007156'	260740	013540'		PUSHJ P,SENDOK	;&########OUTPUT 1, 377 (IF DONE) OR ERROR
UPDLUD - ACCTG., LUD UPDATER	MACRO 12.5-46.0 17:15 19-SEP-89 PAGE 100-2
UPDLUD.MAC	24-MAY-89 18:55		CODE 130 - LIST ALL CUSTOMERS FOR A HOST

  4699	007157'	200300	021514'		MOVE N,CINFO
  4700	007160'	260740	015151'		PUSHJ P,NUMOUT	;&########OUTPUT CUSTOMER NUMBER (THREE BYTES)
  4701	007161'	260740	015242'		PUSHJ P,CRLF
  4702	007162'	260740	011776'		PUSHJ P,MINOUT	;&########OUTPUT MINIMUM CODE (ONE BYTE)
  4703	007163'	200300	021521'		MOVE N,CINFO+NCDETC
  4704	007164'	260740	011772'		PUSHJ P,DETOUT	;&########OUTPUT DETAIL CODE (TWO BYTES)
  4705	007165'	260740	011553'		PUSHJ P,CPOUT	;&########OUTPUT PRICING CODE (ONE BYTE)
  4706	007166'	260740	012003'		PUSHJ P,INVOUT	;&########OUTPUT INVOICE CODE (TWO BYTES)
  4707	007167'	254000	007127'		JRST NXTACT
UPDLUD - ACCTG., LUD UPDATER	MACRO 12.5-46.0 17:15 19-SEP-89 PAGE 102
UPDLUD.MAC	24-MAY-89 18:55		CUSTOMER LISTING ROUTINE CODE 131-136

  4708				SUBTTL CUSTOMER LISTING ROUTINE CODE 131-136
  4709
  4710				;&.SKIP 2
  4711				;&CODE 131: LIST CUSTOMER DISTRICT
  4712				;&####INPUT CUSTOMER NUMBER (THREE BYTES)
  4713				;&####INPUT ACCOUNTING SYSTEM TYPE (ONE BYTE)
  4714	007170'	200300	021516'	LCDIS:	MOVE N,CINFO+NCDIST	;&####OUTPUT 1 (IF FOUND), 3 (IF NOT) OR ERROR
  4715	007171'	260740	011516'		PUSHJ P,DISOUT	;&####OUTPUT CUSTOMER DISTRICT (ONE BYTE)
  4716	007172'	254000	000137'		JRST LUDUP1
  4717
  4718				;&.SKIP 2
  4719				;&CODE 132: LIST CUSTOMER DETAIL CODE
  4720				;&####INPUT CUSTOMER NUMBER (THREE BYTES)
  4721				;&####INPUT ACCOUNTING SYSTEM TYPE (ONE BYTE)
  4722	007173'	200300	021521'	LCDET:	MOVE N,CINFO+NCDETC
  4723	007174'	260740	011772'		PUSHJ P,DETOUT	;&####OUTPUT DETAIL CODE (ONE BYTE)
  4724	007175'	254000	000137'		JRST LUDUP1
  4725
  4726				;&.SKIP 2
  4727				;&CODE 133: LIST INVOICE CODE
  4728				;&####INPUT CUSTOMER NUMBER (THREE BYTES)
  4729				;&####INPUT ACCOUNTING SYSTEM TYPE (ONE BYTE)
  4730	007176'	260740	012003'	LCINV:	PUSHJ P,INVOUT	;&####OUTPUT INVOICE CODE (TWO BYTES)
  4731	007177'	254000	000137'		JRST LUDUP1
  4732
  4733				;&.SKIP 2
  4734				;&CODE 134: LIST CUSTOMER MINIMUM CODE
  4735				;&####INPUT CUSTOMER NUMBER (THREE BYTES)
  4736				;&####INPUT ACCOUNTING SYSTEM TYPE (ONE BYTE)
  4737	007200'	260740	011776'	LCMIN:	PUSHJ P,MINOUT	;&####OUTPUT MINIMUM CODE (ONE BYTE)
  4738	007201'	254000	000137'		JRST LUDUP1
  4739
  4740				;&.SKIP 2
  4741				;&CODE 135: LIST CUSTOMER SALESMAN
  4742				;&####INPUT CUSTOMER NUMBER (THREE BYTES)
  4743				;&####INPUT ACCOUNTING SYSTEM TYPE (ONE BYTE)
  4744	007202'	200300	021523'	LCSLS:	MOVE N,CINFO+NCSLS
  4745	007203'	260740	011560'		PUSHJ P,SLSOUT	;&####OUTPUT SALESMAN (ONE BYTE)
  4746	007204'	254000	000137'		JRST LUDUP1
  4747
  4748				;&.SKIP 2
  4749				;&CODE 136: LIST CUSTOMER PO
  4750				;&####INPUT CUSTOMER NUMBER (THREE BYTES)
  4751				;&####INPUT ACCOUNTING SYSTEM TYPE (ONE BYTE)
  4752	007205'	260740	012010'	LPO:	PUSHJ P,POOUT	;&####OUTPUT PO NUMBER (THIRTY BYTES)
  4753	007206'	254000	000137'		JRST LUDUP1
UPDLUD - ACCTG., LUD UPDATER	MACRO 12.5-46.0 17:15 19-SEP-89 PAGE 103
UPDLUD.MAC	24-MAY-89 18:55		CUSTOMER LISTING ROUTINES, CODES 137-143

  4754				SUBTTL CUSTOMER LISTING ROUTINES, CODES 137-143
  4755
  4756				;&.SKIP 2
  4757				;&CODE 137: LIST PO MINIMUM
  4758				;&####INPUT CUSTOMER NUMBER (THREE BYTES)
  4759				;&####INPUT ACCOUNTING SYSTEM TYPE (ONE BYTE)
  4760	007207'	260740	012016'	LPOMAX:	PUSHJ P,POMOUT	;&####OUTPUT PO MAXIMUM (THREE BYTES)
  4761	007210'	254000	000137'		JRST LUDUP1
  4762				;&.SKIP 2
  4763				;&CODE 140: LIST PO START DATE
  4764				;&####INPUT CUSTOMER NUMBER (THREE BYTES)
  4765				;&####INPUT ACCOUNTING SYSTEM TYPE (ONE BYTE)
  4766	007211'	260740	012023'	LPOSTA:	PUSHJ P,POSTAO	;&####OUTPUT PO START DATE (THREE BYTES-YYMMDD)
  4767	007212'	254000	000137'		JRST LUDUP1
  4768
  4769				;&.SKIP 2
  4770				;&CODE 141: LIST PO STOP DATE
  4771				;&####INPUT CUSTOMER NUMBER (THREE BYTES)
  4772				;&####INPUT ACCOUNTING SYSTEM TYPE (ONE BYTE)
  4773	007213'	260740	012030'	LPOSTO:	PUSHJ P,POSTOO	;&####OUTPUT PO STOP DATE (THREE 8 BIIT BYTES-YYMMDD)
  4774	007214'	254000	000137'		JRST LUDUP1
  4775
  4776				;&.SKIP 2
  4777				;&CODE 142: LIST STREET ADDRESS FOR A CUSTOMER ADDRESS
  4778				;&####INPUT CUSTOMER NUMBER (THREE BYTES)
  4779				;&####INPUT ACCOUNTING SYSTEM TYPE (ONE BYTE)
  4780	007215'	260740	011724'	LSTREET: PUSHJ P,STOUT	;&####OUTPUT 3 LINES OF STREET ADDRESS (51 BYTES EACH)
  4781	007216'	254000	000137'		JRST LUDUP1
  4782
  4783				;&.SKIP 2
  4784				;&CODE 143: OUTPUT CITY FOR A CUSTOMER ADDRESS
  4785				;&####INPUT CUSTOMER NUMBER (THREE BYTES)
  4786				;&####INPUT ACCOUNTING SYSTEM TYPE (ONE BYTE)
  4787	007217'	260740	011740'	LCITY:	PUSHJ P,CITOUT	;&####OUTPUT CITY (THIRTEEN BYTES)
  4788	007220'	254000	000137'		JRST LUDUP1
UPDLUD - ACCTG., LUD UPDATER	MACRO 12.5-46.0 17:15 19-SEP-89 PAGE 105
UPDLUD.MAC	24-MAY-89 18:55		CUSTOMR LISTING ROUTINES, CODES 144-151

  4789				SUBTTL CUSTOMR LISTING ROUTINES, CODES 144-151
  4790				;&.SKIP 2
  4791				;&CODE 144: LIST STATE FOR A CUSTOMER ADDRESS
  4792				;&####INPUT CUSTOMER NUMBER (THREE BYTES)
  4793				;&####INPUT ACCOUNTING SYSTEM TYPE (ONE BYTE)
  4794	007221'	260740	011743'	LSTATE:	PUSHJ P,STAOUT	;&####OUTPUT STATE (TWO BYTES)
  4795	007222'	254000	000137'		JRST LUDUP1
  4796
  4797				;&.SKIP 2
  4798				;&CODE 145: LIST COUNTRY FOR A CUSTOMER ADDRESS
  4799				;&####INPUT CUSTOMER NUMBER (THREE BYTES)
  4800				;&####INPUT ACCOUNTING SYSTEM TYPE (ONE BYTE)
  4801	007223'	260740	011751'	LCOUN:	PUSHJ P,COUOUT	;&####OUTPUT COUNTRY (FIVE BYTES)
  4802	007224'	254000	000137'		JRST LUDUP1
  4803
  4804				;&.SKIP 2
  4805				;&CODE 146: LIST ATTENTION LINE FOR A CUSTOMER ADDRESS
  4806				;&####INPUT CUSTOMER NUMBER (THREE BYTES)
  4807				;&####INPUT ACCOUNTING SYSTEM TYPE (ONE BYTE)
  4808	007225'	260740	011754'	LATTN:	PUSHJ P,ATTOUT	;&####OUTPUT ATTENTION LINE (51 BYTES)
  4809	007226'	254000	000137'		JRST LUDUP1
  4810				;&.SKIP 2
  4811				;&CODE 150: LIST DEFAULT PRICING CODE
  4812				;&####INPUT CUSTOMER NUMBER (THREE BYTES)
  4813				;&####INPUT ACCOUNTING SYSTEM TYPE (ONE BYTE)
  4814	007227'	260740	011553'	LDEFP:	PUSHJ P,CPOUT	;&####OUTPUT DEFAULT PRICING CODE (ONE BYTE)
  4815	007230'	254000	000137'		JRST LUDUP1
  4816
  4817				;&.SKIP 2
  4818				;&CODE 151: LIST ZIP CODE FOR A CUSTOMER ADDRESS
  4819				;&####INPUT CUSTOMER NUMBER (THREE BYTES)
  4820				;&####INPUT ACCOUNTING SYSTEM TYPE (ONE BYTE)
  4821	007231'	260740	011746'	LZIP:	PUSHJ P,ZIPOUT	;&####OUTPUT ZIP CODE (FIVE BYTES)
  4822	007232'	254000	000137'		JRST LUDUP1
UPDLUD - ACCTG., LUD UPDATER	MACRO 12.5-46.0 17:15 19-SEP-89 PAGE 106
UPDLUD.MAC	24-MAY-89 18:55		CODE 152 - SET TYMUSE

  4823				SUBTTL CODE 152 - SET TYMUSE
  4824
  4825				;&.SKIP 2
  4826				;&CODE 152: SET TYMUSE
  4827	007233'	201040	000001	SETTYM:	MOVEI A,1
  4828	007234'	202040	021546'		MOVEM A,AINFO+NUUN	;STORE DEFAULT UUN
  4829	007235'	201040	000074		MOVEI A,^D60
  4830	007236'	202040	021551'		MOVEM A,AINFO+NTUDAY	;AND DATADAYS
  4831	007237'	260740	012242'		PUSHJ P,CUSTIN	;&####INPUT CUSTOMER NUMBER (THREE BYTES)
  4832	007240'	260740	013263'		PUSHJ P,GETSTA	;&####INPUT START DATE (THREE BYTES )
  4833	007241'	202300	021547'		MOVEM N,AINFO+NVSTART
  4834	007242'	202300	021516'		MOVEM N,CINFO+NVSTART
  4835	007243'	260740	013224'		PUSHJ P,GTYINF	;&####INPUT RECIEVING CUSTOMER (THREE BYTES)
  4836	007244'	200040	022706'		MOVE A,NSTOP		;&####INPUT FLAG(1=USER, 2=NO USER)
  4837	007245'	202040	021550'		MOVEM A,AINFO+NVSTOP	;&####IF FLAG = 1:
  4838	007246'	202040	021517'		MOVEM A,CINFO+NVSTOP	;&########INPUT UUN (THREE BYTES)
  4839	007247'	260740	013362'		PUSHJ P,CHKINF		;&########INPUT NO. OF DAYS (TWO BYTES)
  4840	007250'	200040	021515'		MOVE A,CINFO+NTCREC
  4841	007251'	322040	007263'		JUMPE A,SETTY1
  4842	007252'	260740	016013'		PUSHJ P,TUFIND
  4843	007253'	260740	000647'		PUSHJ P,BADCUS
  4844	007254'	266700	007152*		JSA 16,DBGET
  4845	007255'	320000	021160'		ARG USINFO
  4846	007256'	320000	007257'		ARG .+1
  4847	007257'	266700	007122*		JSA 16,DBCLOSE
  4848	007260'	200000	023033'		MOVE F,SAVF
  4849	007261'	336000	021161'		SKIPN USINFO+NUUN
  4850	007262'	260740	000647'		PUSHJ P,BADCUS
  4851	007263'	200040	021545'	SETTY1:	MOVE A,AINFO+NCUSNUM
  4852	007264'	260740	016013'		PUSHJ P,TUFIND
  4853	007265'	334000	000000		SKIPA
  4854	007266'	260740	000620'		PUSHJ P,FND
  4855	007267'	260740	015412'		PUSHJ P,TYUINI
  4856	007270'	201040	021545'		MOVEI A,AINFO
  4857	007271'	260740	011372'		PUSHJ P,ADDIT
  4858	007272'	336040	021515'		SKIPN A,CINFO+NTCREC
  4859	007273'	254000	003157'		JRST CHEND
  4860	007274'	266700	007257*		JSA 16,DBCLOSE
  4861	007275'	200000	023033'		MOVE F,SAVF
  4862	007276'	260740	015417'		PUSHJ P,TYCINI
  4863	007277'	201040	021514'		MOVEI A,CINFO
  4864	007300'	260740	011372'		PUSHJ P,ADDIT
  4865	007301'	254000	003157'		JRST CHEND
UPDLUD - ACCTG., LUD UPDATER	MACRO 12.5-46.0 17:15 19-SEP-89 PAGE 107
UPDLUD.MAC	24-MAY-89 18:55		CODE 153 - UNSET TYMUSE

  4866				SUBTTL CODE 153 - UNSET TYMUSE
  4867				;&.SKIP 2
  4868				;&CODE 153: UNSET TYMUSE
  4869	007302'	260740	012242'	STPTYM:	PUSHJ P,CUSTIN	;&####INPUT CUSTOMER NUMBER (THREE BYTES)
  4870	007303'	260740	013267'		PUSHJ P,GETSTO		;&####INPUT STOP DATE (THREE BYTES)
  4871	007304'	202300	021550'		MOVEM N,AINFO+NVSTOP
  4872	007305'	260740	013362'		PUSHJ P,CHKINF
  4873	007306'	200040	021545'		MOVE A,AINFO+NCUSNUM
  4874	007307'	260740	016013'		PUSHJ P,TUFIND
  4875	007310'	260740	000622'		PUSHJ P,NOTFND
  4876	007311'	201040	022734'		MOVEI A,TVSTP
  4877	007312'	201100	021550'		MOVEI B,AINFO+NVSTOP
  4878	007313'	260740	011402'		PUSHJ P,CHGIT
  4879	007314'	266700	007274*		JSA 16,DBCLOS
  4880	007315'	200000	023033'		MOVE F,SAVF
  4881	007316'	260740	016033'		PUSHJ P,TCFIND
  4882	007317'	254000	001070'		JRST DIDIT3
  4883	007320'	201040	022734'		MOVEI A,TVSTP
  4884	007321'	201100	021550'		MOVEI B,AINFO+NVSTOP
  4885	007322'	260740	011402'		PUSHJ P,CHGIT
  4886	007323'	254000	003157'		JRST CHEND
UPDLUD - ACCTG., LUD UPDATER	MACRO 12.5-46.0 17:15 19-SEP-89 PAGE 108
UPDLUD.MAC	24-MAY-89 18:55		CODE 154 - LIST TYMUSE CUSTOMER

  4887				SUBTTL CODE 154 - LIST TYMUSE CUSTOMER
  4888
  4889				;&.SKIP 2
  4890				;&CODE 154: LIST TYMUSE CUSTOMER
  4891	007324'	260740	012242'	LISTYM:	PUSHJ P,CUSTIN	;&####INPUT CUSTOMER NUMBER (THREE BYTES)
  4892	007325'	200040	000006		MOVE A,N
  4893	007326'	260740	016013'		PUSHJ P,TUFIND
  4894	007327'	260740	000622'		PUSHJ P,NOTFND
  4895	007330'	266700	007254*		JSA 16,DBGET
  4896	007331'	320000	021545'		ARG AINFO
  4897	007332'	320000	007333'		ARG .+1
  4898	007333'	200000	023033'		MOVE F,SAVF
  4899	007334'	200040	021545'		MOVE A,AINFO+NCUSNUM
  4900	007335'	202040	021514'		MOVEM A,CINFO+NCUSNUM
  4901	007336'	402000	021515'		SETZM CINFO+1
  4902	007337'	200040	023325'		MOVE A,[XWD CINFO+1,CINFO+2]
  4903	007340'	251040	021517'		BLT A,CINFO+NVSTOP
  4904	007341'	260740	016033'		PUSHJ P,TCFIND
  4905	007342'	254000	007346'		JRST .+4
  4906	007343'	266700	007330*		JSA 16,DBGET
  4907	007344'	320000	021514'		ARG CINFO
  4908	007345'	320000	007346'		ARG .+1
  4909	007346'	266700	007314*		JSA 16,DBCLOSE
  4910	007347'	200000	023033'		MOVE F,SAVF
  4911	007350'	336300	021546'		SKIPN N,AINFO+NUUN
  4912	007351'	254000	007357'		JRST .+6
  4913	007352'	202300	022714'		MOVEM N,DBUUN
  4914	007353'	260740	015424'		PUSHJ P,UFIND
  4915	007354'	260740	000622'		PUSHJ P,NOTFND
  4916	007355'	266700	007346*		JSA 16,DBCLOSE
  4917	007356'	200000	023033'		MOVE F,SAVF
  4918	007357'	260740	013540'		PUSHJ P,SENDOK	;&####OUTPUT 1 IF FOUND, 3 IF NOT, OR ERROR
  4919	007360'	200300	021547'		MOVE N,AINFO+NVSTART
  4920	007361'	602000	000010		TRNE F,TTYOUT
  4921	007362'	051140	020207'		OUTSTR MSTART
  4922	007363'	260740	011656'		PUSHJ P,DATOUT	;&####OUTPUT START DATE (THREE BYTES)
  4923	007364'	260740	015242'		PUSHJ P,CRLF
  4924	007365'	200300	021515'		MOVE N,CINFO+NTCREC
  4925	007366'	602000	000010		TRNE F,TTYOUT
  4926	007367'	051140	020202'		OUTSTR MRCUST
  4927	007370'	260740	015151'		PUSHJ P,NUMOUT	;&####OUTPUT RECIEVING CUSTOMER (THREE BYTES)
  4928	007371'	260740	015242'		PUSHJ P,CRLF
  4929	007372'	201300	000002		MOVEI N,2
  4930	007373'	332000	021546'		SKIPE AINFO+NUUN
  4931	007374'	201300	000001		MOVEI N,1
  4932	007375'	606000	000010		TRNN F,TTYOUT
  4933	007376'	260740	015146'		PUSHJ P,ONEOUT	;&####OUTPUT FLAG (1=USER FOLLOWS, 2=NO USER)
  4934	007377'	336300	021546'		SKIPN N,AINFO+NUUN
  4935	007400'	254000	000137'		JRST LUDUP1
  4936	007401'	661000	004000		TLO F,ASCIO
  4937	007402'	260740	011760'		PUSHJ P,NAMOUT	;&####OUTPUT USER NAME (TWELVE BYTES)
  4938	007403'	200300	021551'		MOVE N,AINFO+NTUDAY
  4939	007404'	602000	000010		TRNE F,TTYOUT
UPDLUD - ACCTG., LUD UPDATER	MACRO 12.5-46.0 17:15 19-SEP-89 PAGE 108-2
UPDLUD.MAC	24-MAY-89 18:55		CODE 154 - LIST TYMUSE CUSTOMER

  4940	007405'	051140	020173'		OUTSTR MNDAYS
  4941	007406'	260740	015147'		PUSHJ P,TWOOUT	;&####OUTPUT NO. OF DAYS (TWO BYTES)
  4942	007407'	260740	015242'		PUSHJ P,CRLF
  4943	007410'	254000	000137'		JRST LUDUP1
UPDLUD - ACCTG., LUD UPDATER	MACRO 12.5-46.0 17:15 19-SEP-89 PAGE 109
UPDLUD.MAC	24-MAY-89 18:55		CODE 155 - CHANGE NO. OF TYMUSE DAYS

  4944				SUBTTL CODE 155 - CHANGE NO. OF TYMUSE DAYS
  4945				;&.SKIP 2
  4946				;&CODE 155: CHANGE NO. OF DAYS
  4947	007411'	260740	012242'	SETDAY:	PUSHJ P,CUSTIN	;&####INPUT CUSTOMER NUMBER (THREE BYTES)
  4948	007412'	260740	013251'		PUSHJ P,GETDAY	;&####INPUT NO. OF DAYS (TWO BYTES)
  4949	007413'	260740	013362'		PUSHJ P,CHKINF
  4950	007414'	200040	021545'		MOVE A,AINFO+NCUSNUM
  4951	007415'	260740	016013'		PUSHJ P,TUFIND
  4952	007416'	260740	000622'		PUSHJ P,NOTFND
  4953	007417'	266700	007343*		JSA 16,DBGET
  4954	007420'	320000	021160'		ARG USINFO
  4955	007421'	320000	007422'		ARG .+1
  4956	007422'	200000	023033'		MOVE F,SAVF
  4957	007423'	336000	021161'		SKIPN USINFO+NUUN
  4958	007424'	260740	000622'		PUSHJ P,NOTFND
  4959	007425'	201040	022761'		MOVEI A,TVDAYS
  4960	007426'	201100	021551'		MOVEI B,AINFO+NTUDAY
  4961	007427'	260740	011402'		PUSHJ P,CHGIT
  4962	007430'	254000	003157'		JRST CHEND
UPDLUD - ACCTG., LUD UPDATER	MACRO 12.5-46.0 17:15 19-SEP-89 PAGE 110
UPDLUD.MAC	24-MAY-89 18:55		CODE 156 - CHANGE RECIEVING CUSTOMER

  4963				SUBTTL CODE 156 - CHANGE RECIEVING CUSTOMER
  4964
  4965				;&.SKIP 2
  4966				;&CODE 156: CHANGE RECIEVING CUSTOMER INFO
  4967	007431'	260740	012242'	SETCUS:	PUSHJ P,CUSTIN	;&####INPUT CUSTOMER NUMBER (THREE BYTES)
  4968	007432'	260740	013224'		PUSHJ P,GTYINF	;&####INPUT RECIEVING CUSTOMER (THREE BYTES)
  4969	007433'	260740	013362'		PUSHJ P,CHKINF
  4970	007434'	200040	021514'		MOVE A,CINFO+NCUSNUM	;&####INPUT FLAG (1=USER, 2 =NO USER)
  4971	007435'	260740	016013'		PUSHJ P,TUFIND	;&####IF FLAG = 1:
  4972	007436'	260740	000622'		PUSHJ P,NOTFND	;&########INPUT UUN (THREE BYTES)
  4973	007437'	201040	022721'		MOVEI A,TUUUN	;&########INPUT NO. OF DAYS (TWO BYTES)
  4974	007440'	201100	021546'		MOVEI B,AINFO+NUUN
  4975	007441'	260740	011402'		PUSHJ P,CHGIT
  4976	007442'	201040	022761'		MOVEI A,TVDAYS
  4977	007443'	201100	021551'		MOVEI B,AINFO+NTUDAY
  4978	007444'	260740	011402'		PUSHJ P,CHGIT
  4979	007445'	266700	007355*		JSA 16,DBCLOSE
  4980	007446'	200000	023033'		MOVE F,SAVF
  4981	007447'	260740	016033'		PUSHJ P,TCFIND
  4982	007450'	254000	007457'		JRST SETCU1
  4983	007451'	336000	021515'		SKIPN CINFO+NTCREC
  4984	007452'	254000	007466'		JRST SETCU2
  4985	007453'	201040	022762'		MOVEI A,TURCUS
  4986	007454'	201100	021515'		MOVEI B,CINFO+NTCREC
  4987	007455'	260740	011402'		PUSHJ P,CHGIT
  4988	007456'	254000	003157'		JRST CHEND
  4989	007457'	260740	014703'	SETCU1:	PUSHJ P,GETTOD
  4990	007460'	202300	021516'		MOVEM N,CINFO+NVSTART
  4991	007461'	200040	022706'		MOVE A,NSTOP
  4992	007462'	202040	021517'		MOVEM A,CINFO+NVSTOP
  4993	007463'	201040	021514'		MOVEI A,CINFO
  4994	007464'	260740	011372'		PUSHJ P,ADDIT
  4995	007465'	254000	003157'		JRST CHEND
  4996	007466'	260740	014703'	SETCU2:	PUSHJ P,GETTOD
  4997	007467'	202300	021517'		MOVEM N,CINFO+NVSTOP
  4998	007470'	201040	022734'		MOVEI A,TVSTP
  4999	007471'	201100	021517'		MOVEI B,CINFO+NVSTOP
  5000	007472'	260740	011402'		PUSHJ P,CHGIT
  5001	007473'	254000	003157'		JRST CHEND
  5002
  5003				;&.SKIP 2
  5004				;&CODE 157: LIST ALL TYMUSE CUSTOMERS
  5005	007474'	260740	012436'	LALTYM:	PUSHJ P,GETDIS	;&####INPUT DISTRICT (ONE BYTE)
  5006	007475'	660000	000100		TRO F,ALLIOI
  5007	007476'	202000	023033'		MOVEM F,SAVF
  5008	007477'	332000	021516'		SKIPE CINFO+NCDIST
  5009	007500'	254000	007526'		JRST L1DIS
  5010	007501'	266700	007125*		JSA 16,DBOPEN	;&####OUTPUT SAME AS CODE 56
  5011	007502'	320000	021070'		ARG CUSTDB
  5012	007503'	320000	021072'		ARG ADDRDB
  5013	007504'	320000	021114'		ARG TYMUSR
  5014	007505'	266700	006130*	        JSA 16,DBSET
  5015	007506'	320000	020334'	        ARG THREE
UPDLUD - ACCTG., LUD UPDATER	MACRO 12.5-46.0 17:15 19-SEP-89 PAGE 110-2
UPDLUD.MAC	24-MAY-89 18:55		CODE 156 - CHANGE RECIEVING CUSTOMER

  5016	007507'	266700	007131*		JSA 16,DBFIND
  5017	007510'	320000	022734'		ARG TVSTP
  5018	007511'	320000	022707'		ARG EQUALS
  5019	007512'	320000	022706'		ARG NSTOP
  5020	007513'	266700	007034*		JSA 16,DBMAP
  5021	007514'	320000	020332'		ARG ONE
  5022	007515'	320000	022722'		ARG TCCNUM
  5023	007516'	320000	022722'		ARG TCCNUM
  5024	007517'	266700	007507*		JSA 16,DBFIND
  5025	007520'	320000	022704'		ARG LAST
  5026	007521'	320000	022711'		ARG X22AND
  5027	007522'	320000	022732'	        ARG TCSTP
  5028	007523'	320000	022707'		ARG EQUALS
  5029	007524'	320000	022706'		ARG NSTOP
  5030	007525'	254000	003476'		JRST LACUD2
  5031
  5032	007526'	266700	007501*	L1DIS:	JSA 16,DBOPEN
  5033	007527'	320000	021070'		ARG CUSTDB
  5034	007530'	320000	021072'		ARG ADDRDB
  5035	007531'	320000	021114'		ARG TYMUSR
  5036	007532'	266700	007505*	        JSA 16,DBSET
  5037	007533'	320000	020334'	        ARG THREE
  5038	007534'	266700	007517*		JSA 16,DBFIND
  5039	007535'	320000	022734'		ARG TVSTP
  5040	007536'	320000	022707'		ARG EQUALS
  5041	007537'	320000	022706'		ARG NSTOP
  5042	007540'	266700	007513*		JSA 16,DBMAP
  5043	007541'	320000	020332'		ARG ONE
  5044	007542'	320000	022722'		ARG TCCNUM
  5045	007543'	320000	022722'		ARG TCCNUM
  5046	007544'	266700	007534*		JSA 16,DBFIND
  5047	007545'	320000	022704'		ARG LAST
  5048	007546'	320000	022711'		ARG X22AND
  5049	007547'	320000	022726'		ARG TCDIST
  5050	007550'	320000	022707'		ARG EQUALS
  5051	007551'	320000	021516'		ARG CINFO+NCDIST
  5052	007552'	320000	022711'	        ARG X22AND
  5053	007553'	320000	022732'	        ARG TCSTP
  5054	007554'	320000	022707'		ARG EQUALS
  5055	007555'	320000	022706'		ARG NSTOP
  5056	007556'	254000	003476'		JRST LACUD2
UPDLUD - ACCTG., LUD UPDATER	MACRO 12.5-46.0 17:15 19-SEP-89 PAGE 111
UPDLUD.MAC	24-MAY-89 18:55		USER LISTING ROUTINES, CODES 160-162

  5057				SUBTTL USER LISTING ROUTINES, CODES 160-162
  5058
  5059				;&.SKIP 2
  5060				;&CODE 160: LIST CUSTOMER NUMBER AND NAME FOR A UUN
  5061	007557'	260740	012160'	LCUSTN:	PUSHJ P,UUNIN	;&####INPUT UUN (THREE BYTES)
  5062	007560'	260740	012257'		PUSHJ P,ASYSIN	;&####INPUT ACCOUNTING SYSTEM TYPE (ONE BYTE)
  5063	007561'	660000	000100		TRO F,ALLIOI
  5064	007562'	260740	015452'		PUSHJ P,USFIND
  5065	007563'	260740	000622'		PUSHJ P,NOTFND
  5066	007564'	202000	023033'		MOVEM F,SAVF
  5067	007565'	266700	007445*		JSA 16,DBCLOS
  5068	007566'	200000	023033'		MOVE F,SAVF
  5069	007567'	260740	015424'		PUSHJ P,UFIND
  5070	007570'	260740	000622'		PUSHJ P,NOTFND
  5071	007571'	202000	023033'		MOVEM F,SAVF
  5072	007572'	266700	007565*		JSA 16,DBCLOS
  5073	007573'	200000	023033'		MOVE F,SAVF
  5074	007574'	200300	021147'		MOVE N,UINFO+NUCUSN
  5075	007575'	202300	021545'		MOVEM N,AINFO+NACUSNUM
  5076	007576'	260740	015564'		PUSHJ P,AFIND
  5077	007577'	260740	000702'		PUSHJ P,NOADDR
  5078	007600'	202000	023033'		MOVEM F,SAVF
  5079	007601'	266700	007572*		JSA 16,DBCLOS
  5080	007602'	200000	023033'		MOVE F,SAVF
  5081	007603'	260740	013540'		PUSHJ P,SENDOK
  5082	007604'	260740	012042'		PUSHJ P,UCSOUT	;&####OUTPUT CUSTOMER NUMBER (THREE BYTES)
  5083	007605'	254000	000137'		JRST LUDUP1	;&####OUTPUT CUSTOMER NAME (51 BYTES)
  5084
  5085				;&.SKIP 2
  5086				;&CODE 161: LIST SALESMAN FOR A UUN
  5087				;&####INPUT UUN (THREE BYTES)
  5088				;&####INPUT ACCOUNTING SYSTEM TYPE (ONE BYTE)
  5089	007606'	200300	021162'	LUSLS:	MOVE N,USINFO+NUSLSM
  5090	007607'	260740	011560'		PUSHJ P,SLSOUT	;&####OUTPUT SALESMAN (ONE BYTE)
  5091	007610'	254000	000137'		JRST LUDUP1
  5092				SUBTTL CODE 163 - CHECK FOR VALID TYMUSE CUSTOMER
  5093
  5094				;&.SKIP 2
  5095				;&CODE 163: CHECK FOR VALID TYMUSE CUSTOMER
  5096	007611'	260740	012242'	CHKTYM:	PUSHJ P,CUSTIN	;&####INPUT CUSTOMER NUMBER (THREE BYTES)
  5097	007612'	200040	000006		MOVE A,N
  5098	007613'	260740	016013'		PUSHJ P,TUFIND
  5099	007614'	254000	005524'		JRST CHKA1
  5100	007615'	254000	005553'		JRST CHKANS
UPDLUD - ACCTG., LUD UPDATER	MACRO 12.5-46.0 17:15 19-SEP-89 PAGE 112
UPDLUD.MAC	24-MAY-89 18:55		CODE 164 - LIST ALL GANS FOR A COSTCODE

  5101				SUBTTL CODE 164 - LIST ALL GANS FOR A COSTCODE
  5102
  5103				;&.SKIP 2
  5104				;&CODE 164:  LIST ALL GANS FOR A COSTCODE
  5105	007616'	260740	012453'	LGNCCO: PUSHJ P,COCOIN  ;&####INPUT COSTCODE (THREE BYTES)
  5106	007617'	660000	000100	        TRO F,ALLIOI    ;&####FOR EACH GAN:
  5107	007620'	202000	023033'	        MOVEM F,SAVF
  5108	007621'	266700	007526*	        JSA 16,DBOPEN
  5109	007622'	320240	021074'	        ARG 5,USERDB
  5110	007623'	266700	007544*	        JSA 16,DBFIND
  5111	007624'	320000	022725'	        ARG TUCOCO
  5112	007625'	320000	022707'	        ARG EQUALS
  5113	007626'	320000	021156'	        ARG UINFO+NUCOST
  5114	007627'	320000	022711'	        ARG X22AND
  5115	007630'	320000	022731'	        ARG TUSTP
  5116	007631'	320000	022707'	        ARG EQUALS
  5117	007632'	320000	022706'	        ARG NSTOP
  5118	007633'	266700	007145*	        JSA 16,DBNREC
  5119	007634'	320000	023022'	        ARG NUUNS
  5120	007635'	200000	023033'	        MOVE F,SAVF
  5121	007636'	336000	023022'	        SKIPN NUUNS
  5122	007637'	260740	000622'	         PUSHJ P,NOTFND
  5123	007640'	260740	013540'	        PUSHJ P,SENDOK
  5124	007641'	266700	007104*	        JSA 16,DBSORT
  5125	007642'	320000	022716'	        ARG TGAN
  5126	007643'	200000	023033'	        MOVE F,SAVF
  5127	007644'	402000	023000'	        SETZM GAN
  5128	007645'	266700	007417*	NGNCCO: JSA 16,DBGET
  5129	007646'	320000	021141'	        ARG UINFO
  5130	007647'	320000	007660'	        ARG NXTGCO
  5131	007650'	200000	023033'	        MOVE F,SAVF
  5132	007651'	200300	021141'	        MOVE N,UINFO+NGAN
  5133	007652'	316300	023000'	        CAMN N,GAN
  5134	007653'	254000	007660'	        JRST NXTGCO     ;SAME AS LAST GAN...GOTO NXTGCO
  5135	007654'	202300	023000'	        MOVEM N,GAN     ;SAVE LAST GAN
  5136	007655'	260740	013334'	        PUSHJ P,DECOCT
  5137	007656'	260740	011564'	        PUSHJ P,GANOUT  ;&####OUTPUT GAN (THREE BYTES)
  5138	007657'	260740	015242'	        PUSHJ P,CRLF
  5139	007660'	373000	023022'	NXTGCO: SOSLE NUUNS
  5140	007661'	254000	007645'	        JRST NGNCCO
  5141	007662'	254000	005751'	        JRST LSTUAC     ;&####END WITH 377B
UPDLUD - ACCTG., LUD UPDATER	MACRO 12.5-46.0 17:15 19-SEP-89 PAGE 113
UPDLUD.MAC	24-MAY-89 18:55		USER LISTING ROUTINES, CODES 165-167

  5142				SUBTTL USER LISTING ROUTINES, CODES 165-167
  5143
  5144				;&.SKIP 2
  5145				;&CODE 165: LIST CURRENCY CODE FOR A UUN
  5146				;&####INPUT UUN (THREE BYTES)
  5147				;&####INPUT ACCOUNTING SYSTEM TYPE (ONE BYTE)
  5148	007663'	260740	012070'	LUCURR:	PUSHJ P,CUROUT	;&####OUTPUT CURRENCY CODE (ONE BYTE)
  5149	007664'	254000	000137'		JRST LUDUP1
  5150
  5151				;&.SKIP 2
  5152				;&CODE 167: LIST TIME ZONE FOR A UUN
  5153				;&####INPUT UUN (THREE BYTES)
  5154				;&####INPUT ACCOUNTING SYSTEM TYPE (ONE BYTE)
  5155	007665'	260740	011573'	LZONE:	PUSHJ P,AZONOUT	;&####OUTPUT TIME ZONE (ONE BYTE)
  5156	007666'	254000	000137'		JRST LUDUP1
UPDLUD - ACCTG., LUD UPDATER	MACRO 12.5-46.0 17:15 19-SEP-89 PAGE 114
UPDLUD.MAC	24-MAY-89 18:55		CODE 170 LIST ALL COSTCODES FOR A DISTRICT

  5157				SUBTTL CODE 170 LIST ALL COSTCODES FOR A DISTRICT
  5158
  5159				;&.SKIP 2
  5160				;&CODE 170: LIST ALL COSTCODES FOR A DISTRICT
  5161	007667'	260740	012436'	LACCD1: PUSHJ P,GETDIS  ;&####INPUT DISTRICT (ONE BYTE)
  5162	007670'	660000	000100	        TRO F,ALLIOI    ;&####FOR EACH COSTCODE:
  5163	007671'	202000	023033'	        MOVEM F,SAVF
  5164	007672'	266700	007621*	        JSA 16,DBOPEN
  5165	007673'	320240	021070'	        ARG 5,CUSTDB
  5166	007674'	266700	007623*	        JSA 16,DBFIND
  5167	007675'	320000	022726'	        ARG TCDIST
  5168	007676'	320000	022707'	        ARG EQUALS
  5169	007677'	320000	021516'	        ARG CINFO+NCDIST
  5170	007700'	320000	022711'	        ARG X22AND
  5171	007701'	320000	022732'	        ARG TCSTP
  5172	007702'	320000	022707'	        ARG EQUALS
  5173	007703'	320000	022706'	        ARG NSTOP
  5174	007704'	266700	007633*	        JSA 16,DBNREC
  5175	007705'	320000	023021'	        ARG NUMRET
  5176	007706'	200000	023033'	        MOVE F,SAVF
  5177	007707'	336000	023021'	        SKIPN NUMRET
  5178	007710'	260740	000622'	         PUSHJ P,NOTFND
  5179	007711'	260740	013540'	        PUSHJ P,SENDOK
  5180	007712'	266700	007641*	        JSA 16,DBSORT
  5181	007713'	320000	022724'	        ARG TCCOCO
  5182	007714'	200000	023033'	        MOVE F,SAVF
  5183	007715'	476000	022774'	        SETOM COSCOD#   ;INITIAL C.C. VALUE -1 SO IT DIFFERS FROM ALL LEGAL VALUES
  5184	007716'	266700	007645*	NACCD1: JSA 16,DBGET
  5185	007717'	320000	021514'	        ARG CINFO
  5186	007720'	320000	007727'	        ARG NXTCCD
  5187	007721'	200000	023033'	        MOVE F,SAVF
  5188	007722'	200300	021542'	        MOVE N,CINFO+NCCOST
  5189	007723'	316300	022774'	        CAMN N,COSCOD
  5190	007724'	254000	007727'	        JRST NXTCCD     ;SAME AS LAST COSTCODE...GOTO NXTCCD
  5191	007725'	202300	022774'	        MOVEM N,COSCOD  ;SAVE LAST COSTCODE
  5192	007726'	260740	011542'	        PUSHJ P,CCOOUT  ;&####OUTPUT COSTCODE (THREE BYTES)
  5193	007727'	373000	023021'	NXTCCD: SOSLE NUMRET
  5194	007730'	254000	007716'	        JRST NACCD1
  5195	007731'	254000	005751'	        JRST LSTUAC
UPDLUD - ACCTG., LUD UPDATER	MACRO 12.5-46.0 17:15 19-SEP-89 PAGE 115
UPDLUD.MAC	24-MAY-89 18:55		USER LISTING ROUTINES, CODES 171-175

  5196				SUBTTL USER LISTING ROUTINES, CODES 171-175
  5197
  5198				;&.SKIP 2
  5199				;&CODE 171: LIST DISTRICT FOR A UUN
  5200				;&####INPUT UUN (THREE BYTES)
  5201				;&####INPUT ACCOUNTING SYSTEM TYPE (ONE BYTE)
  5202	007732'	200300	021146'	LUDIST:	MOVE N,UINFO+NUDIST
  5203	007733'	260740	011516'		PUSHJ P,DISOUT	;&####OUTPUT DISTRICT (ONE BYTE)
  5204	007734'	254000	000137'		JRST LUDUP1
  5205
  5206				;&.SKIP 2
  5207				;&CODE 173: LIST LANGUAGE CODE
  5208				;&####INPUT UUN (THREE BYTES)
  5209				;&####INPUT ACCOUNTING SYSTEM TYPE (ONE BYTE)
  5210	007735'	260740	012075'	LLANG:	PUSHJ P,LANOUT	;&####OUTPUT LANGUAGE CODE (ONE BYTE)
  5211	007736'	254000	000137'		JRST LUDUP1
  5212
UPDLUD - ACCTG., LUD UPDATER	MACRO 12.5-46.0 17:15 19-SEP-89 PAGE 116
UPDLUD.MAC	24-MAY-89 18:55		CODE 177 - MOVE USERS - RETURN USERS FOR A GAN AND ADD NEW HST

  5213				SUBTTL CODE 177 - MOVE USERS - RETURN USERS FOR A GAN AND ADD NEW HST
  5214
  5215				;&.SKIP 2
  5216				;&CODE 177: MOVE USERS - RETURN ALL USERS FOR A GAN AND ADD NEW HOST
  5217
  5218	007737'	260740	012242'	MUALGN:	PUSHJ P,CUSTIN	;&####INPUT SAME AS CODE 201
  5219	007740'	260740	012176'		PUSHJ P,GANIN
  5220	007741'	260740	012675'		PUSHJ P,OLDNEW   ;&####INPUT OLD, NEW HOST RESTART FLAG, IF=2 GET UUN
  5221	007742'	260740	013362'		PUSHJ P,CHKINF
  5222	007743'	202000	023033'		MOVEM F,SAVF
  5223	007744'	266700	007672*		JSA 16,DBOPEN
  5224	007745'	320240	021074'		ARG 5,USERDB
  5225	007746'	320240	021100'		ARG 5,VALDB
  5226	007747'	266700	007674*		JSA 16,DBFIND
  5227	007750'	320000	022731'		ARG TUSTP
  5228	007751'	320000	022707'		ARG EQUALS
  5229	007752'	320000	022706'		ARG NSTOP
  5230	007753'	320000	022711'		ARG X22AND
  5231	007754'	320000	022716'		ARG TGAN
  5232	007755'	320000	022707'		ARG EQUALS
  5233	007756'	320000	021141'		ARG UINFO+NGAN
  5234	007757'	266700	007704*		JSA 16,DBNREC
  5235	007760'	320000	023022'		ARG NUUNS
  5236	007761'	254000	007766'		JRST MUALL	;&####OUTPUT SAME AS CODE 200
UPDLUD - ACCTG., LUD UPDATER	MACRO 12.5-46.0 17:15 19-SEP-89 PAGE 117
UPDLUD.MAC	24-MAY-89 18:55		CODE 200 - MOVE USERS - RETURN USERS FOR A CUSTOMER AND ADD HOST

  5237				SUBTTL CODE 200 - MOVE USERS - RETURN USERS FOR A CUSTOMER AND ADD HOST
  5238
  5239				;&.SKIP 2
  5240				;&CODE 200: MOVE USERS - RETURN USERS FOR A CUSTOMER AND ADD HOST
  5241	007762'	260740	012242'	MUAUSR:	PUSHJ P,CUSTIN	;&####INPUT CUSTOMER NUMBER (THREE BYTES)
  5242	007763'	260740	012675'		PUSHJ P,OLDNEW	;&####INPUT OLD, THEN NEW HOST (TWO BYTES EACH)
  5243	007764'	260740	013362'		PUSHJ P,CHKINF
  5244	007765'	260740	005446'		PUSHJ P,GTALL	;GET ALL USERS FOR A CUST WITH NULL STOP DATE
  5245	007766'	336000	023022'	MUALL:	SKIPN NUUNS
  5246				MUALL1:	JRST [PUSHJ P,SENDOK	;IF NONE, DONE
  5247	007767'	254000	023326'			JRST CHDSEN]
  5248	007770'	200000	023033'		MOVE F,SAVF
  5249	007771'	266700	007540*		JSA 16,DBMAP
  5250	007772'	320000	020333'		ARG TWO
  5251	007773'	320000	022721'		ARG TUUUN
  5252	007774'	320000	022720'		ARG TUSUUN
  5253	007775'	266700	007747*		JSA 16,DBFIND
  5254	007776'	320000	022704'		ARG LAST
  5255	007777'	320240	022711'		ARG 5,X22AND
  5256	010000'	320000	022734'		ARG TVSTP
  5257	010001'	320240	022707'		ARG 5,EQUALS
  5258	010002'	320000	022706'		ARG NSTOP
  5259	010003'	320240	022711'		ARG 5,X22AND
  5260	010004'	320000	022746'		ARG TVHOST
  5261	010005'	320240	022707'		ARG 5,EQUALS
  5262	010006'	320000	023024'		ARG OLDHST
  5263	010007'	266700	007757*		JSA 16,DBNREC
  5264	010010'	320000	023022'		ARG NUUNS
  5265	010011'	200000	023033'		MOVE F,SAVF
  5266	010012'	336000	023022'		SKIPN NUUNS
  5267	010013'	254000	007767'		JRST MUALL1
  5268	010014'	266700	007712*	        JSA 16,DBSORT
  5269	010015'	320000	022720'	        ARG TUSUUN
  5270	010016'	200000	023033'	        MOVE F,SAVF
  5271	010017'	260740	006255'		PUSHJ P,INITMP
  5272	010020'	266700	007716*	MUCHN:	JSA 16,DBGET
  5273	010021'	320000	021173'		ARG VINFO
  5274	010022'	320000	010026'		ARG MUCNA
  5275	010023'	260740	006303'		PUSHJ P,WRTMP	;WRITE OUT UUN
  5276	010024'	372000	023022'		SOSE NUUNS	;DONE ALL UUN'S?
  5277	010025'	254000	010020'		JRST MUCHN	;NO, GO GET NEXT ONE
  5278	010026'	200000	023033'	MUCNA:	MOVE F,SAVF	;YES, SEND USER NAMES
  5279	010027'	260740	006317'		PUSHJ P,CLSTMP	;CLOSE FILE FIRST
  5280	010030'	602000	020000		TRNE F,NOHSTS	;FOR 940 MOVE USERS
  5281	010031'	254000	010040'		JRST MUCNA1
  5282	010032'	200300	023017'		MOVE N,NEWHST	;SET UP FOR NEW RECORDS TO BE ADDED
  5283	010033'	202300	021174'		MOVEM N,VINFO+NHOST
  5284	010034'	260740	014703'		PUSHJ P,GETTOD
  5285	010035'	202300	021175'		MOVEM N,VINFO+NVSTART
  5286	010036'	200300	022706'		MOVE N,NSTOP
  5287	010037'	202300	021176'		MOVEM N,VINFO+NVSTOP
  5288	010040'	260740	013540'	MUCNA1:	PUSHJ P,SENDOK	;&####OUTPUT '1' OR ERROR CODE
UPDLUD - ACCTG., LUD UPDATER	MACRO 12.5-46.0 17:15 19-SEP-89 PAGE 118
UPDLUD.MAC	24-MAY-89 18:55		CODE 200 - MOVE USERS - RETURN USERS FOR A CUSTOMER AND ADD HOST

  5289	010041'	620000	000100	MUNXT:	TRZ F,ALLIOI	;DON'T SEND ERROR UNTIL USER NAME HAS BEEN SENT
  5290	010042'	260740	006330'		PUSHJ P,GETTMP
  5291	010043'	254000	010117'		JRST MULST
  5292	010044'	336000	021546'	        SKIPN AINFO+NUUN
  5293	010045'	254000	010052'	        JRST .+5
  5294	010046'	200300	021142'	        MOVE N,UINFO+NUUN
  5295	010047'	315300	021546'	        CAMGE N,AINFO+NUUN
  5296	010050'	254000	010042'	        JRST .-6
  5297	010051'	402000	021546'	        SETZM AINFO+NUUN
  5298	010052'	202000	023033'		MOVEM F,SAVF
  5299	010053'	266700	007532*		JSA 16,DBSET
  5300	010054'	320000	020332'		ARG ONE
  5301	010055'	200000	023033'		MOVE F,SAVF
  5302	010056'	200040	021142'		MOVE A,UINFO+1
  5303	010057'	202040	022714'		MOVEM  A,DBUUN
  5304	010060'	260740	015425'		PUSHJ P,UFIND+1
  5305	010061'	254000	010041'		JRST MUNXT
  5306	010062'	661000	004000		TLO F,ASCIO	;&####FOR EACH USER:
  5307	010063'	260740	011760'		PUSHJ P,NAMOUT	;&#######OUTPUT USER NAME (TWELVE BYTES)
  5308	010064'	602000	020000		TRNE F,NOHSTS	;FOR CODE 203, 204
  5309	010065'	254000	010041'		JRST MUNXT	;DO NOT ADD HOST
  5310	010066'	202000	023033'		MOVEM F,SAVF
  5311	010067'	266700	010053*		JSA 16,DBSET
  5312	010070'	320000	020333'		ARG TWO
  5313	010071'	266700	007775*		JSA 16,DBFIND
  5314	010072'	320000	022720'		ARG TUSUUN
  5315	010073'	320000	022707'		ARG EQUALS
  5316	010074'	320000	022714'		ARG DBUUN
  5317	010075'	320000	022711'		ARG X22AND
  5318	010076'	320000	022734'		ARG TVSTP
  5319	010077'	320000	022707'		ARG EQUALS
  5320	010100'	320000	022706'		ARG NSTOP
  5321	010101'	320000	022711'		ARG X22AND
  5322	010102'	320000	022746'		ARG TVHOST
  5323	010103'	320000	022707'		ARG EQUALS
  5324	010104'	320000	021174'		ARG VINFO+NHOST
  5325	010105'	266700	010007*		JSA 16,DBNREC
  5326	010106'	320000	023021'		ARG NUMRET
  5327	010107'	200000	023033'		MOVE F,SAVF
  5328	010110'	332000	023021'		SKIPE NUMRET
  5329					JRST [PUSHJ P,SENDOK
  5330	010111'	254000	023330'			JRST MUNXT]
  5331	010112'	201040	021173'		MOVEI A,VINFO
  5332	010113'	260740	011372'		PUSHJ P,ADDIT
  5333	010114'	660000	000100		TRO F,ALLIOI	;CAN SEND ERROR NOW (FOR THIS USER)
  5334	010115'	260740	013540'		PUSHJ P,SENDOK	;&#######AND '1' OR ERROR CODE
  5335	010116'	254000	010041'		JRST MUNXT	;&####AND END WITH A 377B
  5336	010117'	202000	023033'	MULST:	MOVEM F,SAVF
  5337	010120'	266700	007601*		JSA 16,DBCLOS
  5338	010121'	200000	023033'		MOVE F,SAVF
  5339	010122'	254000	006175'		JRST LSTTMP
UPDLUD - ACCTG., LUD UPDATER	MACRO 12.5-46.0 17:15 19-SEP-89 PAGE 119
UPDLUD.MAC	24-MAY-89 18:55		CODE 201 - MOVE USERS - RETURN ALL USERS FOR A CUST FOR A GAN AND ADD NEW HST

  5340				SUBTTL CODE 201 - MOVE USERS - RETURN ALL USERS FOR A CUST FOR A GAN AND ADD NEW HST
  5341
  5342				;&.SKIP 2
  5343				;&CODE 201: MOVE USERS - RETURN ALL USERS FOR A CUSTOMER FOR A GAN AND ADD NEW HOST
  5344
  5345	010123'	260740	012242'	MUAGAN:	PUSHJ P,CUSTIN	;&####INPUT CUSTOMER NUMBER (THREE BYTES)
  5346	010124'	260740	012176'		PUSHJ P,GANIN	;&####INPUT GAN (THREE BYTES)
  5347	010125'	260740	012675'		PUSHJ P,OLDNEW	;&####INPUT OLD THEN NEW HOST (TWO BYTES EACH)
  5348	010126'	260740	013362'		PUSHJ P,CHKINF
  5349	010127'	202000	023033'		MOVEM F,SAVF
  5350	010130'	266700	007744*		JSA 16,DBOPEN
  5351	010131'	320240	021074'		ARG 5,USERDB
  5352	010132'	320240	021100'		ARG 5,VALDB
  5353	010133'	266700	010071*		JSA 16,DBFIND
  5354	010134'	320000	022723'		ARG TUCNUM
  5355	010135'	320000	022707'		ARG EQUALS
  5356	010136'	320000	021514'		ARG CINFO+NCUSNUM
  5357	010137'	320000	022711'		ARG X22AND
  5358	010140'	320000	022731'		ARG TUSTP
  5359	010141'	320000	022707'		ARG EQUALS
  5360	010142'	320000	022706'		ARG NSTOP
  5361	010143'	320000	022711'		ARG X22AND
  5362	010144'	320000	022716'		ARG TGAN
  5363	010145'	320000	022707'		ARG EQUALS
  5364	010146'	320000	021141'		ARG UINFO+NGAN
  5365	010147'	266700	010105*		JSA 16,DBNREC
  5366	010150'	320000	023022'		ARG NUUNS
  5367	010151'	254000	007766'		JRST MUALL	;&####OUTPUT SAME AS CODE 200
  5368
  5369				;&.SKIP 2
  5370				;&CODE 202: DELETE USER FROM LUD/DUL AND DO NOT CHARGE (FOR MOVE USER)
  5371				;&####INPUT AND OUTPUT LIKE CODE 1
  5372
  5373				;&.SKIP 2
  5374				;&CODE 203: MOVE USERS - RETURN USERS FOR A CUSTOMER FOR A HOST (FOR NON PDP-10'S)
  5375				;&####INPUT CUSTOMER NUMBER (THREE BYTES)
  5376				;&####INPUT OLD HOST (TWO BYTES)
  5377				;&####OUTPUT '1' OR ERROR CODE
  5378				;&####AND THEN FOR EACH USER VALID ON THE OLD HOST:
  5379				;&######OUTPUT USER NAME
  5380				;&####END WITH 377B
  5381	010152'	660000	020000	MUUSR1:	TRO F,NOHSTS
  5382	010153'	254000	007762'		JRST MUAUSR
  5383
  5384				;&.SKIP 2
  5385				;&CODE 204: MOVE USERS - RETURN USERS FOR A CUSTOMER FOR A GAN FOR A HOST (FOR NON PDP-10'S)
  5386				;&####INPUT CUSTOMER NUMBER (THREE BYTES)
  5387				;&####INPUT GAN (THREE BYTES
  5388				;&####INPUT OLD HOST (TWO BYTES)
  5389				;&####OUTPUT THE SAME AS 203
  5390	010154'	660000	020000	MUGAN1:	TRO F,NOHSTS
  5391	010155'	254000	010123'		JRST MUAGAN
UPDLUD - ACCTG., LUD UPDATER	MACRO 12.5-46.0 17:15 19-SEP-89 PAGE 120
UPDLUD.MAC	24-MAY-89 18:55		CODE 205 - ADD USER TO TUSRDB

  5392				SUBTTL CODE 205 - ADD USER TO TUSRDB
  5393
  5394				;&.SKIP 2
  5395				;&CODE 205: ADD USER TO TUSRDB
  5396
  5397	010156'	260740	012157'	NWTUUN:	PUSHJ P,USERIN	;&####INPUT PPN (SIX 8 BYTES)
  5398	010157'	202300	021161'		MOVEM N,USINFO+NUUN
  5399	010160'	202300	022016'		MOVEM N,SAVORG+PPN
  5400	010161'	200300	021141'		MOVE N,UINFO+NGAN
  5401	010162'	202300	021160'		MOVEM N,USINFO+NGAN
  5402	010163'	260740	015766'		PUSHJ P,YFIND
  5403	010164'	334000	000000		SKIPA
  5404	010165'	260740	000620'		PUSHJ P,FND
  5405	010166'	202000	023033'		MOVEM F,SAVF
  5406	010167'	266700	010120*		JSA 16,DBCLOS
  5407	010170'	200000	023033'		MOVE F,SAVF
  5408	010171'	260740	012233'		PUSHJ P,GTUNAM	;&####INPUT USER NAME (TWELVE BYTES)
  5409	010172'	200040	023332'		MOVE A,[XWD UINFO+NUNAME,USINFO+NUNAME]
  5410	010173'	251040	021164'		BLT A,USINFO+NUNAME+2
  5411	010174'	260740	012242'		PUSHJ P,CUSTIN	;&####INPUT CUSTOMER NUMBER (THREE BYTES)
  5412	010175'	202300	021166'		MOVEM N,USINFO+NUCUSN
  5413	010176'	201040	000011		MOVEI A,ASTIII
  5414	010177'	202040	021515'		MOVEM A,CINFO+NCSYSC
  5415	010200'	260740	013546'		PUSHJ P,CHKCUS
  5416	010201'	260740	000647'		PUSHJ P,BADCUS
  5417	010202'	266700	010167*		JSA 16,DBCLOS
  5418	010203'	200000	023033'		MOVE F,SAVF
  5419	010204'	260740	012436'		PUSHJ P,GETDIS
  5420	010205'	202300	021165'		MOVEM N,USINFO+NUDIST	;&####INPUT DISTRICT (ONE BYTE)
  5421	010206'	260740	013206'		PUSHJ P,GTMAIL	;&####INPUT MAIL UUN (THREE BYTES)
  5422	010207'	202300	021171'		MOVEM N,USINFO+NTMUUN
  5423	010210'	260740	012467'	        PUSHJ   P,TCOCIN              ; prompt for costcode
  5424	010211'	260740	013362'		PUSHJ P,CHKINF
  5425	010212'	260740	014703'		PUSHJ P,GETTOD
  5426	010213'	202300	021167'		MOVEM N,USINFO+NTSTART
  5427	010214'	200300	022706'		MOVE N,NSTOP
  5428	010215'	202300	021170'		MOVEM N,USINFO+NTSTOP
  5429				   ;    PUSHJ   P,GTCOCT
  5430	010216'	260740	015405'		PUSHJ P,YINIT
  5431	010217'	201040	021160'		MOVEI A,USINFO
  5432	010220'	260740	011372'		PUSHJ P,ADDIT
  5433	010221'	254000	003157'		JRST CHEND
UPDLUD - ACCTG., LUD UPDATER	MACRO 12.5-46.0 17:15 19-SEP-89 PAGE 121
UPDLUD.MAC	24-MAY-89 18:55		CODE 206 - CHANGE USER NAME IN TUSRDB

  5434				SUBTTL CODE 206 - CHANGE USER NAME IN TUSRDB
  5435
  5436				;&.SKIP 2
  5437				;&CODE 206: CHANGE A USER NAME IN TUSRDB
  5438
  5439	010222'	260740	012160'	CHTNAM:	PUSHJ P,UUNIN	;&####INPUT UUN (THREE BYTES)
  5440	010223'	202300	021161'		MOVEM N,USINFO+NUUN
  5441	010224'	260740	015766'		PUSHJ P,YFIND
  5442	010225'	260740	000622'		PUSHJ P,NOTFND
  5443	010226'	661000	004000		TLO F,ASCIO
  5444	010227'	260740	012275'		PUSHJ P,GNWNAM	;&####INPUT NEW NAME (TWELVE BYTES)
  5445	010230'	200040	023333'		MOVE A,[XWD NNAME,USINFO+NUNAME]
  5446	010231'	251040	021164'		BLT A,USINFO+NUNAME+2
  5447	010232'	260740	010234'	        PUSHJ P,MKNTYM
  5448	010233'	254000	003157'	        JRST CHEND
  5449	010234'	260740	013362'	MKNTYM:	PUSHJ P,CHKINF
  5450	010235'	260740	014703'		PUSHJ P,GETTOD
  5451	010236'	201040	022733'		MOVEI A,TUCSTP
  5452	010237'	201100	023043'		MOVEI B,TODAY
  5453	010240'	260740	011402'		PUSHJ P,CHGIT
  5454	010241'	260740	014713'		PUSHJ P,GETTOM
  5455	010242'	202300	021167'		MOVEM N,USINFO+NTSTART
  5456	010243'	201040	021160'		MOVEI A,USINFO
  5457	010244'	260740	011372'		PUSHJ P,ADDIT
  5458	010245'	263740	000000	        POPJ P,0
  5459
  5460
  5461				;&.SKIP 2
  5462				;&CODE 207: CANCEL ACCOUNT IN TUSRDB
  5463
  5464	010246'	260740	012176'	DLTACC:	PUSHJ P,GANIN	;&####INPUT GAN (THREE BYTES)
  5465	010247'	660000	000100		TRO F,ALLIOI
  5466	010250'	260740	015405'		PUSHJ P,YINIT
  5467	010251'	266700	010133*		JSA 16,DBFIND
  5468	010252'	320000	022716'		ARG TGAN
  5469	010253'	320000	022707'		ARG EQUALS
  5470	010254'	320000	021177'		ARG VINFO+NVGAN
  5471	010255'	320000	022711'		ARG X22AND
  5472	010256'	320000	022733'		ARG TUCSTP
  5473	010257'	320000	022707'		ARG EQUALS
  5474	010260'	320000	022706'		ARG NSTOP
  5475	010261'	266700	010147*		JSA 16,DBNREC
  5476	010262'	320000	023022'		ARG NUUNS
  5477	010263'	200000	023033'		MOVE F,SAVF
  5478	010264'	260740	014703'		PUSHJ P,GETTOD
  5479	010265'	266700	010020*	DLTANX:	JSA 16,DBGET
  5480	010266'	320000	021160'		ARG USINFO
  5481	010267'	320000	010302'		ARG DLTALT
  5482	010270'	200000	023033'		MOVE F,SAVF
  5483	010271'	661000	004000		TLO F,ASCIO	;&####FOR EACH USER:
  5484	010272'	200640	023301'		MOVE BP,[POINT 7,USINFO+NUNAME]
  5485	010273'	260740	011761'		PUSHJ P,NAMOUT+1	;&#######OUTPUT USER NAME (TWELVE BYTES)
  5486	010274'	201040	022733'		MOVEI A,TUCSTP
UPDLUD - ACCTG., LUD UPDATER	MACRO 12.5-46.0 17:15 19-SEP-89 PAGE 121-2
UPDLUD.MAC	24-MAY-89 18:55		CODE 206 - CHANGE USER NAME IN TUSRDB

  5487	010275'	201100	023043'		MOVEI B,TODAY
  5488	010276'	260740	011402'		PUSHJ P,CHGIT
  5489	010277'	260740	013540'		PUSHJ P,SENDOK	;&#######SEND '1' OR ERROR CODE
  5490	010300'	373000	023022'		SOSLE NUUNS
  5491	010301'	254000	010265'		JRST DLTANX
  5492	010302'	260740	010504'	DLTALT:	PUSHJ P,CNTCUS
  5493	010303'	260740	013530'		PUSHJ P,SENDEND	;&####END WITH 377B
  5494	010304'	254000	000137'		JRST LUDUP1
UPDLUD - ACCTG., LUD UPDATER	MACRO 12.5-46.0 17:15 19-SEP-89 PAGE 122
UPDLUD.MAC	24-MAY-89 18:55		CODE 210 - RETURN NUMBER OF VALID UUNS FOR A GAN IN TUSRDB

  5495				SUBTTL CODE 210 - RETURN NUMBER OF VALID UUNS FOR A GAN IN TUSRDB
  5496				;&.SKIP 2
  5497				;&CODE 210: RETURN NUMBER OF VALID UUN'S FOR A GAN IN TUSRDB
  5498	010305'	260740	012176'	TUSNUM: PUSHJ   P,GANIN         ;&####INPUT GAN (3 BYTES)
  5499	010306'	660000	000100	        TRO     F,ALLIOI
  5500	010307'	260740	015405'	        PUSHJ   P,YINIT
  5501	010310'	266700	010251*	        JSA     16,DBFIND
  5502	010311'	320000	022716'	        ARG     TGAN
  5503	010312'	320000	022707'	        ARG     EQUALS
  5504	010313'	320000	021177'	        ARG     VINFO+NVGAN
  5505	010314'	320000	022711'	        ARG     X22AND
  5506	010315'	320000	022733'	        ARG     TUCSTP
  5507	010316'	320000	022707'	        ARG     EQUALS
  5508	010317'	320000	022706'	        ARG     NSTOP
  5509	010320'	266700	010261*	        JSA     16,DBNREC
  5510	010321'	320000	023021'	        ARG     NUMRET
  5511	010322'	266700	010202*	        JSA     16,DBCLOSE
  5512	010323'	200000	023033'	        MOVE    F,SAVF
  5513	010324'	260740	012102'	        PUSHJ   P,CNTOUT        ;&####OUTPUT RECORD COUNT (3 BYTES)
  5514	010325'	254000	000137'	        JRST    LUDUP1
UPDLUD - ACCTG., LUD UPDATER	MACRO 12.5-46.0 17:15 19-SEP-89 PAGE 123
UPDLUD.MAC	24-MAY-89 18:55		CODE 211 - REMOVE USER FROM TUSRDB

  5515				SUBTTL CODE 211 - REMOVE USER FROM TUSRDB
  5516
  5517				;&.SKIP 2
  5518				;&CODE 211: REMOVE USER FROM TUSRDB
  5519
  5520	010326'	260740	012160'	DLTUUN:	PUSHJ P,UUNIN	;&####INPUT UUN (THREE BYTES)
  5521	010327'	202300	021161'		MOVEM N,USINFO+NUUN
  5522	010330'	202300	022016'		MOVEM N,SAVORG+PPN
  5523	010331'	260740	013362'		PUSHJ P,CHKINF
  5524	010332'	260740	015766'		PUSHJ P,YFIND
  5525	010333'	254000	001070'		JRST DIDIT3
  5526	010334'	200000	023033'		MOVE F,SAVF
  5527	010335'	260740	014703'		PUSHJ P,GETTOD
  5528	010336'	201040	022733'		MOVEI A,TUCSTP
  5529	010337'	201100	023043'		MOVEI B,TODAY
  5530	010340'	260740	011402'		PUSHJ P,CHGIT
  5531	010341'	260740	010504'		PUSHJ P,CNTCUS
  5532	010342'	254000	001070'		JRST DIDIT3
  5533
  5534				;&.SKIP 2
  5535				;&CODE 212: LIST RECORD FOR A USER IN TUSRDB
  5536	010343'	260740	012160'	LISTUU:	PUSHJ P,UUNIN	;&####INPUT UUN (THREE BYTES)
  5537	010344'	202300	021161'		MOVEM N,USINFO+NUUN
  5538	010345'	660000	000100		TRO F,ALLIOI
  5539	010346'	260740	015766'		PUSHJ P,YFIND
  5540	010347'	260740	000622'		PUSHJ P,NOTFND
  5541	010350'	202000	023033'		MOVEM F,SAVF
  5542	010351'	266700	010322*		JSA 16,DBCLOS
  5543	010352'	200000	023033'		MOVE F,SAVF
  5544	010353'	201040	000011		MOVEI A,ASTIII
  5545	010354'	202040	021546'		MOVEM A,AINFO+NASYSC
  5546	010355'	200300	021166'		MOVE N,USINFO+NUCUSN
  5547	010356'	202300	021545'		MOVEM N,AINFO+NACUSNUM
  5548	010357'	260740	015564'		PUSHJ P,AFIND
  5549	010360'	260740	000702'		PUSHJ P,NOADDR
  5550	010361'	266700	010351*		JSA 16,DBCLOS
  5551	010362'	200000	023033'		MOVE F,SAVF
  5552	010363'	200040	021171'		MOVE A,USINFO+NTMUUN
  5553	010364'	202040	022714'		MOVEM A,DBUUN
  5554	010365'	260740	015424'		PUSHJ P,UFIND
  5555	010366'	260740	000622'		PUSHJ P,NOTFND
  5556	010367'	266700	010361*		JSA 16,DBCLOS
  5557	010370'	200000	023033'		MOVE F,SAVF
  5558	010371'	260740	013540'		PUSHJ P,SENDOK	;&####OUTPUT 1 IF FOUND, 3 IF NOT OR ERROR
  5559	010372'	200300	021166'		MOVE N,USINFO+NUCUSN
  5560	010373'	260740	012043'		PUSHJ P,UCSOUT+1	;&####OUTPUT CUSTOMER NUMBER (THREE BYTES)
  5561	010374'	661000	004000		TLO F,ASCIO	;&####OUTPUT CUSTOMER NAME (FIFTY-ONE BYTES)
  5562	010375'	200640	023334'		MOVE BP,[POINT 7,UINFO+NUNAME]
  5563	010376'	260740	011766'		PUSHJ P,MAILOU+1	;&####OUTPUT MAIL NAME (TWELVE BYTES)
  5564	010377'	200300	021174'	        MOVE N,USINFO+NTCOST
  5565	010400'	260740	011542'	        PUSHJ P,CCOOUT          ;&####OUTPUT COSTCODE (THREE BYTES)
  5566	010401'	254000	000137'		JRST LUDUP1
UPDLUD - ACCTG., LUD UPDATER	MACRO 12.5-46.0 17:15 19-SEP-89 PAGE 124
UPDLUD.MAC	24-MAY-89 18:55		CODE 213 - LIST ALL USERS FOR A MAIL NAME

  5567				SUBTTL CODE 213 - LIST ALL USERS FOR A MAIL NAME
  5568
  5569				;&.SKIP 2
  5570				;&CODE 213: LIST ALL USER NAMES FOR A MAIL NAME
  5571
  5572	010402'	661000	000100	LAUMNM:	TLO F,NAMESO
  5573	010403'	260740	013206'		PUSHJ P,GTMAIL	;&####INPUT MAIL NAME (THREE BYTES)
  5574	010404'	202300	022714'		MOVEM N,DBUUN	;&####FOR EACH USER NAME:
  5575	010405'	660000	000100		TRO F,ALLIOI
  5576	010406'	260740	015405'		PUSHJ P,YINIT
  5577	010407'	266700	010310*		JSA 16,DBFIND
  5578	010410'	320000	022766'		ARG TYMAIL
  5579	010411'	320000	022707'		ARG EQUALS
  5580	010412'	320000	022714'		ARG DBUUN
  5581	010413'	320000	022711'		ARG X22AND
  5582	010414'	320000	022733'		ARG TUCSTP
  5583	010415'	320000	022707'		ARG EQUALS
  5584	010416'	320000	022706'		ARG NSTOP
  5585	010417'	266700	010320*	LTYM1:	JSA 16,DBNREC
  5586	010420'	320000	023021'		ARG NUMRET
  5587	010421'	200000	023033'		MOVE F,SAVF
  5588	010422'	336000	023021'		SKIPN NUMRET
  5589	010423'	260740	000622'		PUSHJ P,NOTFND
  5590	010424'	260740	013540'		PUSHJ P,SENDOK	;&####OUTPUT 1 IF FOUND, 3 IF NOT FOUND, OR ERROR
  5591	010425'	202000	023033'		MOVEM F,SAVF
  5592	010426'	266700	010014*		JSA 16,DBSORT
  5593	010427'	320000	022765'		ARG TYNAME
  5594	010430'	200000	023033'		MOVE F,SAVF
  5595	010431'	266700	010265*	NLAUMN:	JSA 16,DBGET
  5596	010432'	320000	021160'		ARG USINFO
  5597	010433'	320000	010434'		ARG .+1
  5598	010434'	200000	023033'		MOVE F,SAVF
  5599	010435'	661000	004000		TLO F,ASCIO
  5600	010436'	200640	023301'		MOVE BP,[POINT 7,USINFO+NUNAME]
  5601	010437'	260740	011761'		PUSHJ P,NAMOUT+1	;&####OUTPUT USER NAME (TWELVE BYTES)
  5602	010440'	260740	015242'		PUSHJ P,CRLF
  5603	010441'	603000	000100		TLNE F,NAMESO
  5604	010442'	254000	010454'		JRST NLAUM1
  5605	010443'	200300	021160'		MOVE N,USINFO+NGAN
  5606	010444'	260740	013334'		PUSHJ P,DECOCT
  5607	010445'	260740	011564'		PUSHJ P,GANOUT
  5608	010446'	260740	015242'		PUSHJ P,CRLF
  5609	010447'	200300	021161'		MOVE N,USINFO+NUUN
  5610	010450'	260740	013334'		PUSHJ P,DECOCT
  5611	010451'	661000	000010		TLO F,OCTINF
  5612	010452'	260740	015151'		PUSHJ P,NUMOUT
  5613	010453'	260740	015242'		PUSHJ P,CRLF
  5614	010454'	373000	023021'	NLAUM1:	SOSLE NUMRET
  5615	010455'	254000	010431'		JRST NLAUMN
  5616	010456'	266700	010367*	NLALST:	JSA 16,DBCLOS
  5617	010457'	200000	023033'		MOVE F,SAVF
  5618	010460'	260740	013530'		PUSHJ P,SENDEND	;&####END WITH 377B
  5619	010461'	254000	000137'		JRST LUDUP1
UPDLUD - ACCTG., LUD UPDATER	MACRO 12.5-46.0 17:15 19-SEP-89 PAGE 125
UPDLUD.MAC	24-MAY-89 18:55		CODE 214 - CHECK MAIL NAME FOR A CUSTOMER

  5620				SUBTTL CODE 214 - CHECK MAIL NAME FOR A CUSTOMER
  5621				;&.SKIP 2
  5622				;&CODE 214: CHECK MAIL NAME FOR A CUSTOMER
  5623
  5624	010462'	260740	013206'	CKMNMC:	PUSHJ P,GTMAIL	;&####INPUT MAIL UUN (THREE BYTES)
  5625	010463'	202300	021171'		MOVEM N,USINFO+NTMUUN
  5626	010464'	260740	012242'		PUSHJ P,CUSTIN	;&####INPUT CUSTOMER NUMBER (THREE BYTES)
  5627	010465'	661000	000100		TLO F,ALLIOI
  5628	010466'	260740	015405'		PUSHJ P,YINIT
  5629	010467'	266700	010407*		JSA 16,DBFIND
  5630	010470'	320000	022766'		ARG TYMAIL
  5631	010471'	320000	022707'		ARG EQUALS
  5632	010472'	320000	021171'		ARG USINFO+NTMUUN
  5633	010473'	320000	022711'		ARG X22AND
  5634	010474'	320000	022723'		ARG TUCNUM
  5635	010475'	320000	022707'		ARG EQUALS
  5636	010476'	320000	021514'		ARG CINFO+NCUSNUM
  5637	010477'	320000	022711'		ARG X22AND
  5638	010500'	320000	022733'		ARG TUCSTP
  5639	010501'	320000	022707'		ARG EQUALS
  5640	010502'	320000	022706'		ARG NSTOP
  5641	010503'	254000	005553'		JRST CHKANS
  5642
  5643
  5644				;CANCEL TYMCOM-III CUST IF NO MORE USERS
  5645	010504'	260740	010512'	CNTCUS: PUSHJ P,GTTALL
  5646	010505'	332000	023021'	        SKIPE NUMRET
  5647				        JRST [ JSA 16,DBCLOSE
  5648				                MOVE F,SAVF
  5649	010506'	254000	023302'	                POPJ P,0]
  5650	010507'	201040	000011	        MOVEI A,ASTIII
  5651	010510'	202040	021515'	        MOVEM A,CINFO+NCSYSC
  5652	010511'	254000	004706'	        JRST CNCUS1
  5653	010512'	200040	021166'	GTTALL: MOVE A,USINFO+NUCUSN
  5654	010513'	202040	021514'		MOVEM A,CINFO+NCUSNUM
  5655	010514'	266700	010467*		JSA 16,DBFIND
  5656	010515'	320000	022723'		ARG TUCNUM
  5657	010516'	320000	022707'		ARG EQUALS
  5658	010517'	320000	021166'		ARG USINFO+NUCUSN
  5659	010520'	320000	022711'		ARG X22AND
  5660	010521'	320000	022733'		ARG TUCSTP
  5661	010522'	320000	022707'		ARG EQUALS
  5662	010523'	320000	022706'		ARG NSTOP
  5663	010524'	266700	010417*		JSA 16,DBNREC
  5664	010525'	320000	023021'		ARG NUMRET
  5665	010526'	263740	000000	        POPJ P,0
UPDLUD - ACCTG., LUD UPDATER	MACRO 12.5-46.0 17:15 19-SEP-89 PAGE 126
UPDLUD.MAC	24-MAY-89 18:55		CODE 215 - CHANGE MAIL NAME FOR A UUN

  5666				SUBTTL CODE 215 - CHANGE MAIL NAME FOR A UUN
  5667
  5668				;&.SKIP 2
  5669				;&CODE 215: CHANGE MAIL NAME FOR A UUN
  5670
  5671	010527'	260740	012160'	CHMNAM:	PUSHJ P,UUNIN	;&####INPUT UUN (THREE BYTES)
  5672	010530'	202300	021161'		MOVEM N,USINFO+NUUN
  5673	010531'	260740	015766'		PUSHJ P,YFIND
  5674	010532'	260740	000622'		PUSHJ P,NOTFND
  5675	010533'	260740	013206'		PUSHJ P,GTMAIL	;&####INPUT MAIL UUN (THREE BYTES)
  5676	010534'	202300	021171'		MOVEM N,USINFO+NTMUUN
  5677	010535'	260740	010234'	        PUSHJ P,MKNTYM
  5678	010536'	254000	003157'	        JRST CHEND
  5679
  5680				;&.SKIP 2
  5681				;&CODE 216: CHECK MAIL NAME FOR A UUN
  5682
  5683	010537'	260740	013206'	CKMNMU:	PUSHJ P,GTMAIL	;&####INPUT MAIL NAME
  5684	010540'	202300	021171'		MOVEM N,USINFO+NTMUUN	;AND SAVE IT
  5685	010541'	260740	012160'		PUSHJ P,UUNIN	;&####INPUT UUN (THREE BYTES)
  5686	010542'	661000	000100		TLO F,ALLIOI
  5687	010543'	260740	015405'		PUSHJ P,YINIT
  5688	010544'	266700	010514*		JSA 16,DBFIND
  5689	010545'	320000	022766'		ARG TYMAIL
  5690	010546'	320000	022707'		ARG EQUALS
  5691	010547'	320000	021171'		ARG USINFO+NTMUUN
  5692	010550'	320000	022711'		ARG X22AND
  5693	010551'	320000	022721'		ARG TUUUN
  5694	010552'	320000	022707'		ARG EQUALS
  5695	010553'	320000	022714'		ARG DBUUN
  5696	010554'	320000	022711'		ARG X22AND
  5697	010555'	320000	022733'		ARG TUCSTP
  5698	010556'	320000	022707'		ARG EQUALS
  5699	010557'	320000	022706'		ARG NSTOP
  5700	010560'	254000	005553'		JRST CHKANS
  5701
  5702
  5703				;.&SKIP 2
  5704				;&CODE 217: LIST ALL USERS IN TUSRDB
  5705				;&####OUTPUT SAME AS CODE 213
  5706
  5707	010561'	661000	000100	LTYMNT:	TLO F,NAMESO
  5708	010562'	660000	000100		TRO F,ALLIOI
  5709	010563'	260740	015405'		PUSHJ P,YINIT
  5710	010564'	266700	010544*		JSA 16,DBFIND
  5711	010565'	320000	022733'		ARG TUCSTP
  5712	010566'	320000	022707'		ARG EQUALS
  5713	010567'	320000	022706'		ARG NSTOP
  5714	010570'	254000	010417'		JRST LTYM1
UPDLUD - ACCTG., LUD UPDATER	MACRO 12.5-46.0 17:15 19-SEP-89 PAGE 127
UPDLUD.MAC	24-MAY-89 18:55		CODE 220 - ADD UUN-HOST TO TYMHST

  5715				SUBTTL CODE 220 - ADD UUN-HOST TO TYMHST
  5716
  5717				;&.SKIP 2
  5718				;&CODE 220: ADD UUN-HOST TO TYMHST
  5719
  5720	010571'	260740	012160'	MAIADD:	PUSHJ P,UUNIN	;&####INPUT UUN (THREE BYTES)
  5721	010572'	200300	021142'		MOVE N,UINFO+NUUN
  5722	010573'	202300	021141'		MOVEM N,UINFO+NMHUUN
  5723	010574'	260740	012613'		PUSHJ P,GTAHST	;&####INPUT HOST (TWO BYTES)
  5724	010575'	202300	021142'		MOVEM N,UINFO+NMHOST
  5725	010576'	260740	015701'		PUSHJ P,MHFIND
  5726	010577'	334000	000000		SKIPA
  5727	010600'	260740	000710'		PUSHJ P,MHFND   ; ALLREADY THERE
  5728	010601'	260740	013362'	        PUSHJ P,CHKINF
  5729	010602'	331000	021142'	        SKIPL   UINFO+NMHOST    ; SKIP IF HOST ALL (-1)
  5730	010603'	254000	010627'	        JRST    MAIAOK          ; GO ADD IT.
  5731	010604'	202000	023033'	        MOVEM F,SAVF
  5732	010605'	266700	010564*	        JSA 16,DBFIND           ; BEFORE ADDING HOST ALL, STOP ALL OTHERS.
  5733	010606'	320000	022720'	        ARG TUSUUN
  5734	010607'	320000	022707'	        ARG EQUALS
  5735	010610'	320000	021141'	        ARG UINFO+NMHUUN
  5736	010611'	320000	022711'	        ARG X22AND
  5737	010612'	320000	022734'	        ARG TVSTP
  5738	010613'	320000	022707'	        ARG EQUALS
  5739	010614'	320000	022706'	        ARG NSTOP
  5740	010615'	266700	010524*	        JSA 16,DBNREC
  5741	010616'	320000	023021'	        ARG NUMRET
  5742	010617'	200000	023033'	        MOVE F,SAVF
  5743	010620'	337000	023021'	        SKIPG  NUMRET
  5744	010621'	254000	010627'	        JRST MAIAOK             ; NONE FOUND, JUST GO ADD IT.
  5745	010622'	260740	014703'	        PUSHJ P,GETTOD
  5746	010623'	202300	021144'	        MOVEM N,UINFO+NVSTOP
  5747	010624'	201040	022734'	        MOVEI A,TVSTP
  5748	010625'	201100	021144'	        MOVEI B,UINFO+NVSTOP
  5749	010626'	260740	011402'	        PUSHJ P,CHGIT           ; CHANGE DSTOP TO TODAY'S DATE.
  5750	010627'	200040	023004'	MAIAOK: MOVE    A,HOST          ; ADD HOST/UUN TO TYMHST.
  5751	010630'	202040	021142'		MOVEM A,UINFO+NMHOST
  5752	010631'	260740	014703'		PUSHJ P,GETTOD
  5753	010632'	202300	021143'		MOVEM N,UINFO+NVSTART
  5754	010633'	200300	022706'		MOVE N,NSTOP
  5755	010634'	202300	021144'		MOVEM N,UINFO+NVSTOP
  5756	010635'	201040	021141'		MOVEI A,UINFO
  5757	010636'	260740	011372'		PUSHJ P,ADDIT
  5758	010637'	254000	003157'		JRST CHEND
  5759
  5760
  5761				;&.SKIP 2
  5762				;&CODE 221: REMOVE UUN-HOST FROM TYMHST
  5763
  5764	010640'	260740	012160'	MAIREM:	PUSHJ P,UUNIN	;&####INPUT UUN (THREE BYTES)
  5765	010641'	200300	021142'		MOVE N,UINFO+NUUN
  5766	010642'	202300	021141'		MOVEM N,UINFO+NMHUUN
  5767	010643'	260740	012613'		PUSHJ P,GTAHST	;&####INPUT HOST (TWO BYTES)
UPDLUD - ACCTG., LUD UPDATER	MACRO 12.5-46.0 17:15 19-SEP-89 PAGE 127-2
UPDLUD.MAC	24-MAY-89 18:55		CODE 220 - ADD UUN-HOST TO TYMHST

  5768	010644'	202300	021142'		MOVEM N,UINFO+NMHOST
  5769	010645'	260740	015373'		PUSHJ P,MHINIT	;OPEN TYMHST
  5770	010646'	254000	010711'	        JRST    MAIROK                ; skip the following checking
  5771	010647'	266700	010605*		JSA 16,DBFIND	;FIND THIS MAIL NAME VALID FOR ANY OTHER HOST
  5772	010650'	320000	022720'		ARG TUSUUN
  5773	010651'	320000	022707'		ARG EQUALS
  5774	010652'	320000	021141'		ARG UINFO+NMHUUN
  5775	010653'	320000	022711'		ARG X22AND
  5776	010654'	320000	022746'		ARG TVHOST
  5777	010655'	320000	022710'		ARG NEQUALS
  5778	010656'	320000	021142'		ARG UINFO+NMHOST
  5779	010657'	320000	022711'		ARG X22AND
  5780	010660'	320000	022734'		ARG TVSTP
  5781	010661'	320000	022707'		ARG EQUALS
  5782	010662'	320000	022706'		ARG NSTOP
  5783	010663'	266700	010615*		JSA 16,DBNREC
  5784	010664'	320000	023021'		ARG NUMRET
  5785	010665'	266700	010456*		JSA 16,DBCLOSE
  5786	010666'	200000	023033'		MOVE F,SAVF
  5787	010667'	332000	023021'		SKIPE NUMRET
  5788	010670'	254000	010711'		JRST MAIROK
  5789	010671'	260740	015405'		PUSHJ P,YINIT	;OPEN TUSRDB
  5790	010672'	266700	010647*		JSA 16,DBFIND	;SEE IF THERE ARE ANY VALID USRS LEFT
  5791	010673'	320000	022766'		ARG TYMAIL	;ASSIGNED TO THIS MAIL NAME
  5792	010674'	320000	022707'		ARG EQUALS
  5793	010675'	320000	021141'		ARG UINFO+NMHUUN
  5794	010676'	320000	022711'		ARG X22AND
  5795	010677'	320000	022733'		ARG TUCSTP
  5796	010700'	320000	022707'		ARG EQUALS
  5797	010701'	320000	022706'		ARG NSTOP
  5798	010702'	266700	010663*		JSA 16,DBNREC
  5799	010703'	320000	023021'		ARG NUMRET
  5800	010704'	266700	010665*		JSA 16,DBCLOSE
  5801	010705'	200000	023033'		MOVE F,SAVF
  5802	010706'	660000	000100		TRO F,ALLIOI
  5803	010707'	332000	023021'		SKIPE NUMRET
  5804	010710'	260740	000720'		PUSHJ P,MNVALD
  5805	010711'	260740	015656'	MAIROK:	PUSHJ P,FINDMH
  5806	010712'	260740	000712'		PUSHJ P,MHNFND
  5807	010713'	260740	013362'		PUSHJ P,CHKINF
  5808	010714'	266700	010431*		JSA 16,DBGET
  5809	010715'	320000	021141'		ARG UINFO
  5810	010716'	320000	010717'		ARG .+1
  5811	010717'	200000	023033'		MOVE F,SAVF
  5812	010720'	260740	014703'		PUSHJ P,GETTOD
  5813	010721'	202300	021144'		MOVEM N,UINFO+NVSTOP
  5814	010722'	201040	022734'		MOVEI A,TVSTP
  5815	010723'	201100	021144'		MOVEI B,UINFO+NVSTOP
  5816	010724'	260740	011402'		PUSHJ P,CHGIT
  5817	010725'	254000	003157'		JRST CHEND
UPDLUD - ACCTG., LUD UPDATER	MACRO 12.5-46.0 17:15 19-SEP-89 PAGE 128
UPDLUD.MAC	24-MAY-89 18:55		CODE 222: LIST ALL UUN-HOST ENTRIES

  5818				SUBTTL CODE 222: LIST ALL UUN-HOST ENTRIES
  5819
  5820				;&.SKIP 2
  5821				;&CODE 222: LIST ALL UUN-HOST ENTRIES IN TYMHST
  5822	010726'	660000	000100	MHLIST:	TRO F,ALLIOI
  5823	010727'	202000	023033'		MOVEM F,SAVF
  5824	010730'	266700	010130*		JSA 16,DBOPEN
  5825	010731'	320000	021106'		ARG MAILDB
  5826	010732'	320000	021074'		ARG USERDB
  5827	010733'	266700	010672*		JSA 16,DBFIND
  5828	010734'	320000	022734'		ARG TVSTP
  5829	010735'	320000	022707'		ARG EQUALS
  5830	010736'	320000	022706'		ARG NSTOP
  5831	010737'	266700	010702*		JSA 16,DBNREC
  5832	010740'	320000	023021'		ARG NUMRET
  5833	010741'	200000	023033'		MOVE F,SAVF
  5834	010742'	336300	023021'		SKIPN N,NUMRET
  5835	010743'	260740	000622'		PUSHJ P,NOTFND
  5836	010744'	260740	013540'		PUSHJ P,SENDOK	;&####OUTPUT 1 IF FOUND, 3 IF NOT, OR ERROR
  5837	010745'	334000	000000		SKIPA
  5838				MHLLST:	JRST [MOVE F,SAVF
  5839						PUSHJ P,SENDEND
  5840						PUSHJ P,CRLF
  5841	010746'	254000	023335'			JRST LUDUP1]
  5842	010747'	266700	010426*		JSA 16,DBSORT
  5843	010750'	320000	022720'		ARG TUSUUN
  5844	010751'	320000	022746'		ARG TVHOST
  5845	010752'	266700	010714*		JSA 16,DBGET
  5846	010753'	320000	021141'		ARG UINFO
  5847	010754'	320000	010746'		ARG MHLLST
  5848	010755'	200040	021141'		MOVE A,UINFO+NMHUUN
  5849	010756'	202040	022714'		MOVEM A,DBUUN
  5850	010757'	200040	021142'	MHLNXT:	MOVE A,UINFO+NMHOST
  5851	010760'	202040	023004'		MOVEM A,HOST
  5852	010761'	266700	010067*		JSA 16,DBSET
  5853	010762'	320000	020333'		ARG TWO
  5854	010763'	266700	010733*		JSA 16,DBFIND
  5855	010764'	320000	022721'		ARG TUUUN
  5856	010765'	320000	022707'		ARG EQUALS
  5857	010766'	320000	022714'		ARG DBUUN
  5858	010767'	320000	022711'		ARG X22AND
  5859	010770'	320000	022731'		ARG TUSTP
  5860	010771'	320000	022707'		ARG EQUALS
  5861	010772'	320000	022706'		ARG NSTOP
  5862	010773'	266700	010737*		JSA 16,DBNREC
  5863	010774'	320000	023021'		ARG NUMRET
  5864	010775'	332300	023021'		SKIPE N,NUMRET
  5865	010776'	302300	000001		CAIE N,1
  5866	010777'	260740	000676'		PUSHJ P,DUPERR
  5867	011000'	266700	010752*		JSA 16,DBGET
  5868	011001'	320000	021141'		ARG UINFO
  5869	011002'	320000	011003'		ARG .+1
  5870	011003'	200000	023033'		MOVE F,SAVF
UPDLUD - ACCTG., LUD UPDATER	MACRO 12.5-46.0 17:15 19-SEP-89 PAGE 128-2
UPDLUD.MAC	24-MAY-89 18:55		CODE 222: LIST ALL UUN-HOST ENTRIES

  5871	011004'	661000	004000		TLO F,ASCIO	;&####FOR EACH UUN-HOST:
  5872	011005'	260740	011760'		PUSHJ P,NAMOUT	;&####MAIL NAME (TWELVE BYTES)
  5873	011006'	260740	015242'		PUSHJ P,CRLF
  5874	011007'	335300	023004'		SKIPGE N,HOST
  5875	011010'	201300	077777		MOVEI N,ALHSTS
  5876	011011'	260740	015147'		PUSHJ P,TWOOUT	;&####HOST (TWO BYTES)
  5877	011012'	260740	015247'		PUSHJ P,SPAOUT	;&####END WITH 377B
  5878	011013'	266700	010761*	MHNXT:	JSA 16,DBSET
  5879	011014'	320000	020332'		ARG ONE
  5880	011015'	266700	011000*		JSA 16,DBGET
  5881	011016'	320000	021141'		ARG UINFO
  5882	011017'	320000	011030'		ARG MLSTH
  5883	011020'	200000	023033'		MOVE F,SAVF
  5884	011021'	200040	021141'		MOVE A,UINFO+NMHUUN
  5885	011022'	312040	022714'		CAME A,DBUUN
  5886					JRST [MOVEM A,DBUUN
  5887						PUSHJ P,CRLF
  5888						PUSHJ P,SENDEND
  5889	011023'	254000	023341'			JRST MHLNXT]
  5890	011024'	200300	021142'		MOVE N,UINFO+NMHOST
  5891	011025'	260740	015147'		PUSHJ P,TWOOUT
  5892	011026'	260740	015247'		PUSHJ P,SPAOUT
  5893	011027'	254000	011013'		JRST MHNXT
  5894	011030'	200000	023033'	MLSTH:	MOVE F,SAVF
  5895	011031'	260740	013530'		PUSHJ P,SENDEND
  5896	011032'	254000	010746'		JRST MHLLST
UPDLUD - ACCTG., LUD UPDATER	MACRO 12.5-46.0 17:15 19-SEP-89 PAGE 129
UPDLUD.MAC	24-MAY-89 18:55		CODE 223: LIST ALL HOSTS FOR A UUN IN TYMHST

  5897				SUBTTL CODE 223: LIST ALL HOSTS FOR A UUN IN TYMHST
  5898
  5899				;&.SKIP 2
  5900				;&CODE 223: LIST ALL HOSTS FOR A UUN IN TYMHST
  5901	011033'	260740	012160'	MAILST:	PUSHJ P,UUNIN	;&####INPUT UUN (THREE BYTES)
  5902	011034'	202300	021141'		MOVEM N,UINFO+NMHUUN
  5903	011035'	202000	023033'		MOVEM F,SAVF
  5904	011036'	266700	010730*		JSA 16,DBOPEN
  5905	011037'	320000	021106'		ARG MAILDB
  5906	011040'	266700	010763*		JSA 16,DBFIND
  5907	011041'	320000	022720'		ARG TUSUUN
  5908	011042'	320000	022707'		ARG EQUALS
  5909	011043'	320000	021141'		ARG UINFO+NMHUUN
  5910	011044'	320000	022711'		ARG X22AND
  5911	011045'	320000	022734'		ARG TVSTP
  5912	011046'	320000	022707'		ARG EQUALS
  5913	011047'	320000	022706'		ARG NSTOP
  5914	011050'	266700	010773*		JSA 16,DBNREC
  5915	011051'	320000	023021'		ARG NUMRET
  5916	011052'	200000	023033'		MOVE F,SAVF
  5917	011053'	336300	023021'		SKIPN N,NUMRET
  5918	011054'	260740	000622'		PUSHJ P,NOTFND
  5919	011055'	260740	013540'		PUSHJ P,SENDOK	;&####OUTPUT 1 IF FOUND, 3 IF NOT, OR ERROR
  5920	011056'	266700	010747*		JSA 16,DBSORT
  5921	011057'	320000	022746'		ARG TVHOST
  5922	011060'	266700	011015*	MHNEXT:	JSA 16,DBGET
  5923	011061'	320000	021141'		ARG UINFO
  5924	011062'	320000	010746'		ARG MHLLST
  5925	011063'	200000	023033'		MOVE F,SAVF	;&####FOR EACH HOST:
  5926	011064'	335300	021142'		SKIPGE N,UINFO+NMHOST
  5927	011065'	201300	077777		MOVEI N,ALHSTS
  5928	011066'	260740	015147'		PUSHJ P,TWOOUT	;&####OUTPUT HOST (TWO BYTES)
  5929	011067'	260740	015247'		PUSHJ P,SPAOUT	;&####END WITH 377B
  5930	011070'	254000	011060'		JRST MHNEXT
UPDLUD - ACCTG., LUD UPDATER	MACRO 12.5-46.0 17:15 19-SEP-89 PAGE 130
UPDLUD.MAC	24-MAY-89 18:55		CODE 224 - ADD HOST TO TYMCNV

  5931				SUBTTL CODE 224 - ADD HOST TO TYMCNV
  5932
  5933				;&.SKIP 2
  5934				;&CODE 224: ADD HOST TO TYMCNV
  5935
  5936
  5937	011071'	260740	012613'	TRIADD:	PUSHJ P,GTAHST	;&####INPUT HOST (TWO 8 BIT BYTES)
  5938	011072'	202300	021141'		MOVEM N,UINFO+NTRHST
  5939	011073'	260740	015747'		PUSHJ P,TRFIND
  5940	011074'	334000	000000		SKIPA
  5941	011075'	260740	000714'		PUSHJ P,TRFND
  5942	011076'	260740	013362'		PUSHJ P,CHKINF
  5943	011077'	200040	023004'		MOVE A,HOST
  5944	011100'	202040	021141'		MOVEM A,UINFO+NTRHST
  5945	011101'	260740	014703'		PUSHJ P,GETTOD
  5946	011102'	202300	021142'		MOVEM N,UINFO+NTRSTART
  5947	011103'	200300	022706'		MOVE N,NSTOP
  5948	011104'	202300	021143'		MOVEM N,UINFO+NTRSTOP
  5949	011105'	201040	021141'		MOVEI A,UINFO
  5950	011106'	260740	011372'		PUSHJ P,ADDIT
  5951	011107'	254000	003157'		JRST CHEND
  5952
  5953
  5954				;&.SKIP 2
  5955				;&CODE 225: DELETE HOST FROM TYMCNV
  5956
  5957	011110'	260740	012613'	TRIDEL:	PUSHJ P,GTAHST	;&####INPUT HOST (TWO 8 BIT BYTES)
  5958	011111'	202300	021141'		MOVEM N,UINFO+NTRHST
  5959	011112'	260740	015747'		PUSHJ P,TRFIND
  5960	011113'	260740	000716'		PUSHJ P,TRNFND
  5961	011114'	260740	013362'		PUSHJ P,CHKINF
  5962	011115'	266700	011060*		JSA 16,DBGET
  5963	011116'	320000	021141'		ARG UINFO
  5964	011117'	320000	011120'		ARG .+1
  5965	011120'	200000	023033'		MOVE F,SAVF
  5966	011121'	260740	014703'		PUSHJ P,GETTOD
  5967	011122'	202300	021143'		MOVEM N,UINFO+NTRSTOP
  5968	011123'	201040	022764'		MOVEI A,TRSTP
  5969	011124'	201100	021143'		MOVEI B,UINFO+NTRSTOP
  5970	011125'	260740	011402'		PUSHJ P,CHGIT
  5971	011126'	254000	003157'		JRST CHEND
UPDLUD - ACCTG., LUD UPDATER	MACRO 12.5-46.0 17:15 19-SEP-89 PAGE 131
UPDLUD.MAC	24-MAY-89 18:55		CODE 226 - LIST ENTRIES IN TYMCNV

  5972				SUBTTL CODE 226 - LIST ENTRIES IN TYMCNV
  5973
  5974				;&.SKIP 2
  5975				;&CODE 226: LIST ALL ENTRIES IN TYMCNV
  5976	011127'	660000	000100	TRILIS:	TRO F,ALLIOI
  5977	011130'	202000	023033'		MOVEM F,SAVF
  5978	011131'	266700	011036*		JSA 16,DBOPEN
  5979	011132'	320000	021110'		ARG TRIPDB
  5980	011133'	266700	011040*		JSA 16,DBFIND
  5981	011134'	320000	022764'		ARG TRSTP
  5982	011135'	320000	022707'		ARG EQUALS
  5983	011136'	320000	022706'		ARG NSTOP
  5984	011137'	266700	011050*		JSA 16,DBNREC
  5985	011140'	320000	023021'		ARG NUMRET
  5986	011141'	200000	023033'		MOVE F,SAVF
  5987	011142'	336300	023021'		SKIPN N,NUMRET
  5988	011143'	260740	000622'		PUSHJ P,NOTFND
  5989	011144'	260740	013540'		PUSHJ P,SENDOK	;&####OUTPUT 1 IF FOUND, 3 IF NOT, OR ERROR
  5990	011145'	266700	011056*		JSA 16,DBSORT
  5991	011146'	320000	022763'		ARG TRHOST
  5992	011147'	266700	011115*	TRINXT:	JSA 16,DBGET
  5993	011150'	320000	021141'		ARG UINFO
  5994	011151'	320000	010746'		ARG MHLLST
  5995	011152'	200300	021141'		MOVE N,UINFO+NTRHST	;&####FOR EACH HOST:
  5996	011153'	200000	023033'		MOVE F,SAVF
  5997	011154'	260740	015147'		PUSHJ P,TWOOUT	;&####OUTPUT HOST (TWO BYTES)
  5998	011155'	260740	015247'		PUSHJ P,SPAOUT	;&####END WITH 377B
  5999	011156'	254000	011147'		JRST TRINXT
  6000	011157'	254000	000137'		JRST LUDUP1
  6001
  6002				;&.SKIP 2
  6003				;&CODE 227: LIST ALL USERS FOR A GAN IN TUSRDB
  6004	011160'	260740	012176'	LUTGAN:	PUSHJ P,GANIN	;&####INPUT GAN (THREE BYTES)
  6005	011161'	660000	000100		TRO F,ALLIOI
  6006	011162'	260740	015405'		PUSHJ P,YINIT
  6007	011163'	266700	011133*		JSA 16,DBFIND
  6008	011164'	320000	022716'		ARG TGAN
  6009	011165'	320000	022707'		ARG EQUALS
  6010	011166'	320000	021177'		ARG VINFO+NVGAN
  6011	011167'	320000	022711'		ARG X22AND
  6012	011170'	320000	022733'		ARG TUCSTP
  6013	011171'	320000	022707'		ARG EQUALS
  6014	011172'	320000	022706'		ARG NSTOP
  6015	011173'	266700	011137*		JSA 16,DBNREC
  6016	011174'	320000	023022'		ARG NUUNS
  6017	011175'	200000	023033'		MOVE F,SAVF
  6018	011176'	336000	023022'		SKIPN NUUNS
  6019	011177'	260740	000622'		PUSHJ P,NOTFND
  6020	011200'	260740	013540'		PUSHJ P,SENDOK	;&####OUTPUT 1 IF FOUND, 3 IF NOT, OR ERROR
  6021	011201'	254000	005670'		JRST LNUIII
UPDLUD - ACCTG., LUD UPDATER	MACRO 12.5-46.0 17:15 19-SEP-89 PAGE 132
UPDLUD.MAC	24-MAY-89 18:55		CODE 230 - CHECK A MAIL NAME FOR A HOST

  6022				SUBTTL CODE 230 - CHECK A MAIL NAME FOR A HOST
  6023
  6024				;&.SKIP 2
  6025				;&CODE 230: CHECK A MAIL NAME FOR A HOST
  6026	011202'	260740	012160'	CKMNHT:	PUSHJ P,UUNIN	;&####INPUT MAIL UUN (THREE BYTES)
  6027	011203'	202300	021141'		MOVEM N,UINFO+NMHUUN
  6028	011204'	260740	012613'		PUSHJ P,GTAHST	;&####INPUT HOST(TWO BYTES)
  6029	011205'	202300	021142'		MOVEM N,UINFO+NMHOST
  6030	011206'	660000	000100		TRO F,ALLIOI
  6031	011207'	260740	015701'		PUSHJ P,MHFIND
  6032	011210'	254000	005524'		JRST CHKA1
  6033	011211'	254000	005525'		JRST CHKA2
  6034
  6035
  6036				;&.SKIP 2
  6037				;&CODE 231: CHECK A HOST IN TYMCNV
  6038	011212'	260740	012613'	CKTRIP:	PUSHJ P,GTAHST	;&####INPUT HOST (TWO BYTES)
  6039	011213'	660000	000100		TRO F,ALLIOI
  6040	011214'	202300	021141'		MOVEM N,UINFO+NTRHST
  6041	011215'	260740	015747'		PUSHJ P,TRFIND
  6042	011216'	254000	005524'		JRST CHKA1
  6043	011217'	254000	005525'		JRST CHKA2
  6044
  6045
  6046				;&.SKIP 2
  6047				;&CODE 232: CHECK A HOST
  6048	011220'	260740	012644'	CKHOST:	PUSHJ P,GETSIT	;&####INPUT HOST (TWO BYTES)
  6049	011221'	660000	000100		TRO F,ALLIOI
  6050	011222'	201040	000001	        MOVEI A,A
  6051	011223'	261740	000001	        PUSH P,A
  6052	011224'	261740	000006	        PUSH P,N
  6053	011225'	264000	014600'	        JSR WATTYP ; GET SYSTEM TYPE
  6054	011226'	337000	000001	        SKIPG A
  6055	011227'	254000	005524'		JRST CHKA1	;&####RETURN 3 IF NOT A TYMSHARE HOST
  6056	011230'	254000	005525'		JRST CHKA2	;&####RETURN 1 IF A TYMSHARE HOST
  6057				SUBTTL CODE 233 - CHANGE DISTRICT FOR ALL USERS FOR A CUSTOMER IN TUSRDB
  6058
  6059				;&.SKIP 2
  6060				;&CODE 233: CHANGE DISTRICT FOR ALL USERS IN TUSRDB FOR A CUSTOMER
  6061
  6062				        ;&####INPUT CUSTOMER NUMBER (THREE BYTES)
  6063				        ;&####INPUT ACCOUNTING SYSTEM TYPE (ONE BYTE)
  6064	011231'	200040	021516'	CHTADS: MOVE A,CINFO+NCDIST     ;SAVE CUSTOMERS OLD DISTRICT
  6065	011232'	202040	023034'	        MOVEM A,SDIST
  6066				        ; SETZM CINFO+NCCOST      ;ZERO THE COSTCODE IN NEW RECORD
  6067	011233'	260740	012436'	        PUSHJ P,GETDIS  ;&####INPUT NEW DISTRICT (ONE BYTE)
  6068	011234'	260740	013362'	        PUSHJ P,CHKINF
  6069	011235'	200040	022040'	        MOVE A,DIST
  6070	011236'	312040	023034'	        CAME A,SDIST
  6071	011237'	260740	002655'	        PUSHJ P,MKNCUS
  6072	011240'	266700	010704*	        JSA 16,DBCLOS
  6073	011241'	200000	023033'	        MOVE F,SAVF
  6074	011242'	260740	013540'	        PUSHJ P,SENDOK  ;&####OUTPUT 1 (IF CHANGED), 3 (IF NOT FOUND) OR ERROR
UPDLUD - ACCTG., LUD UPDATER	MACRO 12.5-46.0 17:15 19-SEP-89 PAGE 132-2
UPDLUD.MAC	24-MAY-89 18:55		CODE 233 - CHANGE DISTRICT FOR ALL USERS FOR A CUSTOMER IN TUSRDB

  6075	011243'	260740	015405'	        PUSHJ P,YINIT   ;OPEN TUSRDB
  6076	011244'	200300	021514'	        MOVE N,CINFO+NCUSNUM
  6077	011245'	202300	021166'	        MOVEM N,USINFO+NUCUSN
  6078	011246'	260740	010512'	        PUSHJ P,GTTALL  ;GET ALL USERS IN TUSRDB FOR A CUSTOMER
  6079	011247'	336000	023021'	        SKIPN NUMRET
  6080				        JRST [JSA 16,DBCLOS
  6081				                MOVE F,SAVF
  6082				                PUSHJ P,SENDEND
  6083	011250'	254000	023312'	                JRST LUDUP1]
  6084	011251'	200000	023033'	        MOVE F,SAVF
  6085	011252'	200300	023021'	        MOVE N,NUMRET
  6086	011253'	202300	023022'	        MOVEM N,NUUNS
  6087	011254'	260740	006255'	        PUSHJ P,INITMP
  6088	011255'	266700	011147*	CHNTUS: JSA 16,DBGET
  6089	011256'	320000	021160'	        ARG USINFO
  6090	011257'	320000	011265'	        ARG CNTALS
  6091	011260'	200300	021161'	        MOVE N,USINFO+NUUN
  6092	011261'	202300	021173'	        MOVEM N,VINFO+NUSUUN
  6093	011262'	260740	006303'	        PUSHJ P,WRTMP
  6094	011263'	372000	023022'	        SOSE NUUNS
  6095	011264'	254000	011255'	        JRST CHNTUS
  6096	011265'	260740	006317'	CNTALS: PUSHJ P,CLSTMP
  6097	011266'	260740	006330'	NXTTDC: PUSHJ P,GETTMP
  6098	011267'	254000	006175'	        JRST LSTTMP
  6099	011270'	200040	021142'	        MOVE A,UINFO+NUUN
  6100	011271'	202040	021161'	        MOVEM A,USINFO+NUUN
  6101	011272'	200000	023033'	        MOVE F,SAVF
  6102	011273'	260740	015767'	        PUSHJ P,YFIND+1
  6103	011274'	254000	011266'	        JRST NXTTDC
  6104	011275'	266700	011255*	        JSA 16,DBGET
  6105	011276'	320000	021160'	        ARG USINFO
  6106	011277'	320000	011300'	        ARG .+1
  6107	011300'	200000	023033'	        MOVE F,SAVF
  6108	011301'	661000	004000	        TLO F,ASCIO
  6109	011302'	200640	023301'	        MOVE BP,[POINT 7,USINFO+NUNAME]
  6110	011303'	260740	011761'	        PUSHJ P,NAMOUT+1  ;&####OUTPUT USER NAME
  6111	011304'	200300	022040'	        MOVE N,DIST
  6112	011305'	316300	021165'	        CAMN N,USINFO+NUDIST
  6113	011306'	254000	011312'	        JRST .+4
  6114	011307'	202300	021165'	        MOVEM N,USINFO+NUDIST
  6115				        ; SETZM USINFO+NTCOST     ;ZERO THE COSTCODE IN RECORD
  6116	011310'	201040	022727'	        MOVEI    A,TUDIST
  6117	011311'	201100	021165'	        MOVEI    B,USINFO+NUDIST
  6118	011312'	260740	011402'	        PUSHJ    P,CHGIT
  6119				     ;  PUSHJ P,MKNTYM+1
  6120	011313'	200000	023033'	        MOVE F,SAVF
  6121	011314'	260740	013540'	        PUSHJ P,SENDOK  ;&####AND '1' OR ERROR
  6122	011315'	254000	011266'	        JRST NXTTDC
UPDLUD - ACCTG., LUD UPDATER	MACRO 12.5-46.0 17:15 19-SEP-89 PAGE 133
UPDLUD.MAC	24-MAY-89 18:55		CODE 234 - CHANGE CUSTOMER NUMBER FOR A UUN IN TUSRDB

  6123				SUBTTL CODE 234 - CHANGE CUSTOMER NUMBER FOR A UUN IN TUSRDB
  6124				;&.SKIP 2
  6125				;&CODE 234: CHANGE CUSNUM FOR A UUN IN TUSRDB
  6126	011316'	260740	012160'	CHTUCS: PUSHJ   P,UUNIN  ;&####INPUT UUN  (THREE BYTES)
  6127				                         ;put UUN in N<>VINFO+NUSUUN<>UINFO+NUUN
  6128				                         ;and USINFO+NUSUUN
  6129	011317'	202300	021161'	        MOVEM   N,USINFO + NUUN  ;put UUN where we want it
  6130	011320'	260740	012242'	        PUSHJ   P,CUSTIN  ;&####INPUT CUSTOMER NUMBER (THREE BYTES)
  6131				                          ;put cusnum in N<>CINFO+NCUSNUM
  6132				                          ;and  AINFO+NACUSNUM and VINFO+NUCUSN
  6133	011321'	660000	000100	        TRO     F,ALLIOI
  6134	011322'	201040	000011	        MOVEI   A,ASTIII  ;ASTIII = Tymnet ASYSCODE
  6135	011323'	202040	021515'	        MOVEM   A,CINFO + NCSYSC
  6136	011324'	202000	023033'	        MOVEM   F,SAVF
  6137	011325'	260740	015503'	        PUSHJ   P,CFIND   ;Find in CUSTDB using CINFO+NCUSNUM & CINFO+NCSYSC
  6138				                          ;put record in CINFO
  6139	011326'	260740	000622'	        PUSHJ   P,NOTFND  ;not Found
  6140	011327'	200000	023033'	        MOVE    F,SAVF
  6141	011330'	266700	011240*	        JSA     16,DBCLOS
  6142	011331'	200000	023033'	        MOVE    F,SAVF
  6143	011332'	260740	015766'	        PUSHJ   P,YFIND   ;Find in TUSRDB using USINFO+NUUN
  6144				                          ;put record in USINFO
  6145	011333'	260740	000622'	        PUSHJ   P,NOTFND  ;not Found
  6146				   ;    MOVE    N,USINFO + NUDIST  ;move user's dist. to reg. N
  6147				   ;    CAME    N,CINFO + NCDIST   ;compare N w/ new cusnum's dist.
  6148				   ;    PUSHJ   P,BADCUS  ;dists. not the same.  This cusnum rejected
  6149	011334'	200300	021514'	        MOVE    N,CINFO + NCUSNUM  ;put new cusnum in reg.N
  6150	011335'	202300	021166'	        MOVEM   N,USINFO + NUCUSN  ;move new cusnum to USINFO table
  6151	011336'	200300	021516'	        MOVE    N,CINFO + NCDIST   ; load customer's dist.
  6152	011337'	202300	021165'	        MOVEM   N,USINFO + NUDIST  ; put into user's record
  6153	011340'	200300	021542'	        MOVE    N,CINFO + NCCOST   ; load customer's costcode
  6154	011341'	202300	021174'	        MOVEM   N,USINFO + NTCOST  ; put into user's record
  6155	011342'	260740	010234'	        PUSHJ   P,MKNTYM           ;make new TUSRDB record using USINFO
  6156	011343'	254000	003157'	        JRST    CHEND
UPDLUD - ACCTG., LUD UPDATER	MACRO 12.5-46.0 17:15 19-SEP-89 PAGE 134
UPDLUD.MAC	24-MAY-89 18:55		CODE 235 - CHANGE GAN FOR A UUN

  6157				SUBTTL CODE 235 - CHANGE GAN FOR A UUN
  6158
  6159				;&.SKIP 2
  6160				;&CODE 235: CHANGE GAN FOR A UUN
  6161
  6162	011344'	260740	012160'	CHTGAN:	PUSHJ P,UUNIN	;&####INPUT UUN (THREE BYTES)
  6163	011345'	202300	021161'		MOVEM N,USINFO+NUUN
  6164	011346'	260740	015766'		PUSHJ P,YFIND
  6165	011347'	260740	000622'		PUSHJ P,NOTFND
  6166	011350'	260740	012176'		PUSHJ P,GANIN  ;&####INPUT GAN
  6167	011351'	202300	021160'		MOVEM N,USINFO+NGAN
  6168	011352'	260740	010234'	        PUSHJ P,MKNTYM
  6169	011353'	254000	003157'	        JRST CHEND
  6170
UPDLUD - ACCTG., LUD UPDATER	MACRO 12.5-46.0 17:15 19-SEP-89 PAGE 135
UPDLUD.MAC	24-MAY-89 18:55		CODE 240 - LIST ASYSCODE FOR A HOST

  6171				SUBTTL CODE 240 - LIST ASYSCODE FOR A HOST
  6172				;&.SKIP 2
  6173				;&CODE 240: LIST ASYSCODE FOR A HOST
  6174	011354'			HSTASY:
  6175	011354'	260740	012644'	        PUSHJ   P,GETSIT        ;&####INPUT HOST (2 BYTES)
  6176	011355'	660000	000100	        TRO     F,ALLIOI
  6177	011356'	202040	022770'	        MOVEM   A,AST
  6178	011357'	260740	013540'	        PUSHJ   P,SENDOK        ;&####OUTPUT 1 (IF FOUND), OR 7 (IF ERROR)
  6179	011360'	260740	012152'	        PUSHJ   P,ASTOUT        ;&####OUTPUT ACCOUNTING SYSTEM TYPE (1 BYTE)
  6180	011361'	254000	000137'	        JRST    LUDUP1
UPDLUD - ACCTG., LUD UPDATER	MACRO 12.5-46.0 17:15 19-SEP-89 PAGE 136
UPDLUD.MAC	24-MAY-89 18:55		X22 UPDATE ROUTINES

  6181				SUBTTL X22 UPDATE ROUTINES
  6182
  6183	011362'	660000	100000	DELLIT:	TRO F,WAITF
  6184	011363'	202000	023033'		MOVEM F,SAVF
  6185	011364'	201040	011366'		MOVEI A,DELIT1
  6186	011365'	202040	022767'		MOVEM A,AGNLOC#
  6187	011366'	266700	006513*	DELIT1:	JSA 16,DBDEL
  6188	011367'	200000	023033'	UPBAK:	MOVE F,SAVF
  6189	011370'	620000	100000		TRZ F,WAITF
  6190	011371'	263740	000000		POPJ P,0
  6191
  6192
  6193
  6194				;A/ ARRAY TO BE ADDED
  6195	011372'	542040	011400'	ADDIT:	HRRM A,ADDIT2
  6196	011373'	660000	100000		TRO F,WAITF
  6197	011374'	202000	023033'		MOVEM F,SAVF
  6198	011375'	201040	011377'		MOVEI A,ADDIT1
  6199	011376'	202040	022767'		MOVEM A,AGNLOC
  6200	011377'	266700	000000*	ADDIT1:	JSA 16,DBADDR
  6201	011400'	320000	000000	ADDIT2:	ARG 0
  6202	011401'	254000	011367'		JRST UPBAK
  6203
  6204
  6205				;A/ ATTRIBUTE TO CHANGE
  6206				;B/ VALUE TO CHANGE ATTRIBUTE TO
  6207	011402'	542040	011411'	CHGIT:	HRRM A,CHGIT2
  6208	011403'	542100	011412'		HRRM B,CHGIT3
  6209	011404'	660000	100000		TRO F,WAITF
  6210	011405'	202000	023033'		MOVEM F,SAVF
  6211	011406'	201040	011410'		MOVEI A,CHGIT1
  6212	011407'	202040	022767'		MOVEM A,AGNLOC
  6213	011410'	266700	003170*	CHGIT1:	JSA 16,DBCHNG
  6214	011411'	320000	000000	CHGIT2:	ARG 0
  6215	011412'	320000	000000	CHGIT3:	ARG 0
  6216	011413'	254000	011367'		JRST UPBAK
UPDLUD - ACCTG., LUD UPDATER	MACRO 12.5-46.0 17:15 19-SEP-89 PAGE 137
UPDLUD.MAC	24-MAY-89 18:55		OUTPUT ROUTINES

  6217				SUBTTL OUTPUT ROUTINES
  6218
  6219				;OUTPUT PPN
  6220	011414'	602000	000010	PPNOUT:	TRNE F,TTYOUT
  6221	011415'	051140	023345'		OUTSTR [ASCIZ /PPN: /]
  6222	011416'	554300	023047'		HLRZ N,WD
  6223	011417'	254000	011507'		JRST HAL01
  6224
  6225				;OUTPUT PRIVILEGE BITS
  6226	011420'	200312	022102'	PBOUT:	MOVE N,LUDBLK+2(INDEX)
  6227	011421'	202300	022041'		MOVEM N,MISC
  6228	011422'	200312	022103'		MOVE N,LUDBLK+3(INDEX)
  6229	011423'	202300	022042'		MOVEM N,PRIV
  6230	011424'	606000	000010		TRNN F,TTYOUT
  6231	011425'	254000	011452'		JRST PB940O
  6232	011426'	260740	015242'		PUSHJ P,CRLF
  6233	011427'	135300	020364'		LDB N,TYMBIT
  6234	011430'	051140	020036'		OUTSTR MTYM
  6235	011431'	260740	011522'		PUSHJ P,BITOUT
  6236	011432'	135300	020365'		LDB N,ASBIT
  6237	011433'	051140	020073'		OUTSTR MAS
  6238	011434'	260740	011522'		PUSHJ P,BITOUT
  6239	011435'	135300	020357'		LDB N,RUBBIT
  6240	011436'	051140	020106'		OUTSTR MRUB
  6241	011437'	260740	011522'		PUSHJ P,BITOUT
  6242	011440'	135300	020360'		LDB N,GFDBIT
  6243	011441'	051140	020116'		OUTSTR MGFD
  6244	011442'	260740	011522'		PUSHJ P,BITOUT
  6245	011443'	135300	020366'		LDB N,RCMBIT
  6246	011444'	051140	020112'		OUTSTR MRCM
  6247	011445'	260740	011522'		PUSHJ P,BITOUT
  6248	011446'	135300	020367'		LDB N,MODBIT
  6249	011447'	051140	020120'		OUTSTR MMODE
  6250	011450'	051166	014753'		OUTSTR @MODES(N)
  6251	011451'	263740	000000		POPJ P,0
  6252				;&.PAGE
  6253				;&PRIVILEGE BITS (THREE BYTES)
  6254				;&####BIT 0 ON IF USER MAY NOT LOGIN UNDER THIS NAME
  6255				;&####BIT 1 ON IF USER SHOULD NOT RECIEVE TYMSHARE MESSAGE AT LOGIN
  6256				;&####BIT 2 RESTRICTED USER BIT
  6257				;&####BIT 3 GFD BIT
  6258				;&####BIT 4 ON IF THIS USER HAS A BUDGET
  6259				;&####BIT 14 ON IF THERE IS A TIMEOUT ON THE DISCONNECT
  6260				;&####BIT 15 ON IF JOB SHOULD BE DETACHED ON DISCONNECT
  6261				;&####BIT 16 ON IF USER IS TYMSHARE
  6262				;&####BIT 17 ON IF USER IS AN ACCOUNT SUPERVISOR
  6263				;&####BIT 18 ON IF USER IS BILLABLE
  6264				;&####BIT 21 RCM
  6265				;&####BITS 22-23 = 0 IF PDP MODE
  6266				;&###############= 1 IF XEXEC MODE
  6267				;&###############= 2 IF XEXEC-H MODE
  6268	011452'	402000	023047'	PB940O:	SETZM WD
  6269	011453'	135040	020364'		LDB A,TYMBIT
UPDLUD - ACCTG., LUD UPDATER	MACRO 12.5-46.0 17:15 19-SEP-89 PAGE 137-2
UPDLUD.MAC	24-MAY-89 18:55		OUTPUT ROUTINES

  6270	011454'	137040	020377'		DPB A,TYMWD
  6271	011455'	135040	020365'		LDB A,ASBIT
  6272	011456'	137040	020400'		DPB A,ASWD
  6273	011457'	135040	020357'	        LDB A,RUBBIT
  6274	011460'	137040	020372'	        DPB A,RUBWD
  6275	011461'	135040	020360'	        LDB A,GFDBIT
  6276	011462'	137040	020373'	        DPB A,GFDWD
  6277	011463'	135040	020366'	        LDB A,RCMBIT
  6278	011464'	137040	020402'	        DPB A,RCMWD
  6279	011465'	135040	020355'	        LDB A,NLOGBIT
  6280	011466'	137040	020370'	        DPB A,NLOGWD
  6281	011467'	135040	020356'	        LDB A,NMSGBIT
  6282	011470'	137040	020371'	        DPB A,NMSGWD
  6283	011471'	135040	020361'	        LDB A,TRUBIT
  6284	011472'	137040	020374'	        DPB A,TRUWD
  6285	011473'	135040	020362'	        LDB A,TIMBIT
  6286	011474'	137040	020375'	        DPB A,TIMWD
  6287	011475'	135040	020363'	        LDB A,DETBIT
  6288	011476'	137040	020376'	        DPB A,DETWD
  6289	011477'	135040	020367'		LDB A,MODBIT
  6290	011500'	137040	020403'		DPB A,MODWD
  6291	011501'	200300	023047'		MOVE N,WD
  6292	011502'	254000	015151'		JRST NUMOUT
  6293
  6294				;OUTPUT 2 HALF WORDS, SEPARATED BY A COMMA
  6295	011503'	606000	000010	HALVOT:	TRNN  F,TTYOUT
  6296					JRST [MOVE N,WD
  6297	011504'	254000	023347'			JRST NUMOUT]
  6298	011505'	554300	023047'		HLRZ N,WD
  6299	011506'	620300	176000		TRZ N,176000
  6300	011507'	661000	000010	HAL01:	TLO F,OCTINF
  6301	011510'	260740	015151'		PUSHJ P,NUMOUT
  6302	011511'	602000	000010		TRNE F,TTYOUT
  6303	011512'	051040	020342'		OUTCHR COMMA
  6304	011513'	550300	023047'		HRRZ N,WD
  6305	011514'	661000	000010		TLO F,OCTINF
  6306	011515'	254000	015151'		JRST NUMOUT
UPDLUD - ACCTG., LUD UPDATER	MACRO 12.5-46.0 17:15 19-SEP-89 PAGE 138
UPDLUD.MAC	24-MAY-89 18:55		OUTPUT ROUTINES

  6307				;OUTPUT DISTRICT
  6308	011516'	602000	000010	DISOUT:	TRNE F,TTYOUT
  6309	011517'	051140	017752'		OUTSTR MDIST
  6310	011520'	260740	015146'		PUSHJ P,ONEOUT
  6311	011521'	254000	015242'		JRST CRLF
  6312
  6313				;OUTPUT BIT AS NUMBER TO 940, Y/N TO TTY
  6314	011522'	602000	000010	BITOUT:	TRNE F,TTYOUT
  6315					JRST [SKIPN N
  6316						MOVE N,NO
  6317						CAIN N,1
  6318						MOVE N,YES
  6319						MOVE N1,N
  6320						MOVE BP,[POINT 7,N1]
  6321						MOVEI N,1
  6322	011523'	254000	023352'			JRST ASCOUT]
  6323	011524'	200040	000006		MOVE A,N
  6324	011525'	400300	000000		SETZ N,
  6325	011526'	312040	020325'		CAME A,NO
  6326	011527'	340300	000000		AOJ N,
  6327	011530'	254000	015146'		JRST ONEOUT
  6328
  6329	011531'	200300	021536'	VPFOUT:	MOVE N,CINFO+NVPF
  6330	011532'	606000	000010		TRNN F,TTYOUT
  6331	011533'	254000	015146'		JRST ONEOUT
  6332	011534'	302300	000001		CAIE N,1
  6333	011535'	254000	011540'		JRST CANVAR
  6334					OUTSTR [ASCIZ /PRICING CODES MAY NOT VARY.
  6335	011536'	051140	023362'	/]
  6336	011537'	263740	000000		POPJ P,0
  6337				CANVAR:	OUTSTR [ASCIZ /PRICING CODES MAY VARY.
  6338	011540'	051140	023370'	/]
  6339	011541'	263740	000000		POPJ P,0
  6340
  6341	011542'	602000	000010	CCOOUT: TRNE F,TTYOUT
  6342	011543'	051140	020012'	        OUTSTR MCOST
  6343	011544'	260740	015151'	        PUSHJ P,NUMOUT
  6344	011545'	254000	015242'	        JRST CRLF
  6345
  6346	011546'	602000	000010	FFFOUT: TRNE F,TTYOUT
  6347	011547'	051140	020015'	        OUTSTR MFOCF
  6348	011550'	200640	022667'	        MOVE BP,FOCFBP
  6349	011551'	201300	000001		MOVEI N,SZFOCF
  6350	011552'	254000	015226'		JRST ASCOUT
  6351
  6352	011553'	602000	000010	CPOUT:	TRNE F,TTYOUT
  6353	011554'	051140	020132'		OUTSTR MDPR
  6354	011555'	200300	021537'		MOVE N,CINFO+NDPRI
  6355	011556'	260740	015147'		PUSHJ P,TWOOUT
  6356	011557'	254000	015242'		JRST CRLF
  6357
  6358	011560'	602000	000010	SLSOUT:	TRNE F,TTYOUT
  6359	011561'	051140	020007'		OUTSTR MSLS
UPDLUD - ACCTG., LUD UPDATER	MACRO 12.5-46.0 17:15 19-SEP-89 PAGE 138-2
UPDLUD.MAC	24-MAY-89 18:55		OUTPUT ROUTINES

  6360	011562'	260740	015146'		PUSHJ P,ONEOUT
  6361	011563'	254000	015242'		JRST CRLF
  6362
  6363	011564'	602000	000010	GANOUT:	TRNE F,TTYOUT
  6364	011565'	051140	020021'		OUTSTR MGAN
  6365	011566'	661000	000010		TLO F,OCTINF
  6366	011567'	254000	015151'		JRST NUMOUT
UPDLUD - ACCTG., LUD UPDATER	MACRO 12.5-46.0 17:15 19-SEP-89 PAGE 139
UPDLUD.MAC	24-MAY-89 18:55		OUTPUT ROUTINES

  6367				;OUTPUT LUD TIME ZONE
  6368	011570'	135100	023376'	LZONOUT:	LDB B,[POINT 5,LUDBLK+3(INDEX),7]
  6369	011571'	135140	023377'		LDB C,[POINT 1,LUDBLK+3(INDEX),2]
  6370	011572'	254000	011576'		JRST ZONOUT
  6371
  6372				;OUTPUT ACCTG. TIME ZONE
  6373	011573'	200100	021165'	AZONOUT:	MOVE B,USINFO+NUZONE
  6374	011574'	200140	021166'		MOVE C,USINFO+NDST
  6375	011575'	254000	011576'		JRST ZONOUT
  6376
  6377				;OUTPUT TIME ZONE
  6378	011576'	606000	000010	ZONOUT:	TRNN F,TTYOUT
  6379					JRST [MOVE N,B
  6380						CAME C,NO
  6381						TRO N,40
  6382	011577'	254000	023400'			JRST ONEOUT]
  6383	011600'	261740	000003		PUSH P,C
  6384	011601'	051140	020041'		OUTSTR MZONE
  6385	011602'	200302	014720'		MOVE N,ZONES(B)
  6386	011603'	202300	023047'		MOVEM N,WD
  6387	011604'	201300	000006		MOVEI N,6
  6388	011605'	200640	020354'		MOVE BP,WDPTR
  6389	011606'	336000	023047'		SKIPN ,WD
  6390					JRST [OUTSTR [ASCIZ /NOT SET.
  6391				/]
  6392						POP P,C
  6393	011607'	254000	023407'			POPJ P,0]
  6394	011610'	661000	001000		TLO F,NOCR
  6395	011611'	260740	015227'		PUSHJ P,WDSOUT
  6396	011612'	051140	020050'		OUTSTR MDST
  6397	011613'	262740	000006		POP P,N
  6398	011614'	254000	011522'		JRST BITOUT
  6399
  6400				;OUTPUT QUOTAS
  6401	011615'	200400	023016'	STROUT:	MOVE N2,NENTRY
  6402	011616'	603000	002000		TLNE F,TRUF
  6403	011617'	271500	000001		ADDI INDEX,1	;COUNT BUDGET
  6404	011620'	271500	000005		ADDI INDEX,5
  6405	011621'	603000	000400		TLNE F,INITF
  6406	011622'	271500	000003		ADDI INDEX,3	;COUNT INIT FILE
  6407	011623'	602000	000010		TRNE F,TTYOUT
  6408	011624'	051140	020057'		OUTSTR MQIN
  6409	011625'	200312	022101'		MOVE N,LUDBLK+1(INDEX)
  6410	011626'	260740	015151'		PUSHJ P,NUMOUT
  6411	011627'	200312	022102'		MOVE N,LUDBLK+2(INDEX)
  6412	011630'	260740	015242'		PUSHJ P,CRLF
  6413	011631'	602000	000010		TRNE F,TTYOUT
  6414	011632'	051140	020062'		OUTSTR MQOUT
  6415	011633'	260740	015151'		PUSHJ P,NUMOUT
  6416	011634'	254000	015242'		JRST CRLF
UPDLUD - ACCTG., LUD UPDATER	MACRO 12.5-46.0 17:15 19-SEP-89 PAGE 141
UPDLUD.MAC	24-MAY-89 18:55		OUTPUT ROUTINES

  6417				;OUTPUT HOSTS, 1 BIT PER HOST
  6418	011635'			UHSTO:
  6419	011635'	200300	023020'		MOVE N,NSITES
  6420	011636'	260740	015633'		PUSHJ P,FILSIT	;FILL IN SITES
  6421	011637'	255000	000000		 JFCL
  6422	011640'	200000	023033'		MOVE F,SAVF
  6423	011641'	254000	011642'		JRST SITOUT
UPDLUD - ACCTG., LUD UPDATER	MACRO 12.5-46.0 17:15 19-SEP-89 PAGE 142
UPDLUD.MAC	24-MAY-89 18:55		FORMAT OF HOSTS TO BE OUTPUT

  6424				SUBTTL FORMAT OF HOSTS TO BE OUTPUT
  6425				;&.SKIP 2
  6426				;&FORMAT OF HOSTS TO BE OUTPUT
  6427				;&EACH HOST IS OUTPUT AS TWO BYTES, ENDING THE LIST WITH
  6428				;&TWO BYTES OF 377B ( = 177777B).
  6429	011642'	400500	000000	SITOUT:	SETZ    INDEX,
  6430	011643'	602000	000010		TRNE F,TTYOUT
  6431					OUTSTR [ASCIZ /HOSTS:
  6432	011644'	051140	023412'	/]
  6433	011645'	336312	021202'	NXTSIT:	SKIPN N,SITES(INDEX)
  6434	011646'	254000	011651'		JRST SIT01
  6435	011647'	260740	015147'		PUSHJ P,TWOOUT
  6436	011650'	260740	015242'		PUSHJ P,CRLF
  6437	011651'	340500	000000	SIT01:	AOJ     INDEX,
  6438	011652'	305500	000310	        CAIGE   INDEX,MXTHST
  6439	011653'	254000	011645'	         JRST   NXTSIT
  6440	011654'	260740	013534'	        PUSHJ P,SNDEN2
  6441	011655'	263740	000000		POPJ P,0
  6442
  6443				COMMENT ` DISABLE THIS PART
  6444				SNDSIT:	MOVEI N,MXTHST
  6445					IDIVI N,8
  6446					JUMPE N1,.+2
  6447					AOJ N,
  6448					PUSH P,N
  6449					PUSHJ P,ONEOUT
  6450					POP P,A
  6451					SETZ INDEX,
  6452					MOVEI C,1
  6453				NXTBYT:	MOVEI B,^D8
  6454					SETZ N,
  6455					MOVE BP,[POINT 1,N,28]
  6456				NXTBIT:	SKIPE SITES(INDEX)
  6457					DPB C,BP
  6458					IBP BP
  6459					AOJ INDEX,
  6460					SOJG B,NXTBIT
  6461					TLO F,OCTINF
  6462					PUSH P,BP
  6463					PUSH P,A
  6464					PUSHJ P,ONEOUT
  6465					POP P,A
  6466					POP P,BP
  6467					SOJG A,NXTBYT
  6468					POPJ P,0
  6469				`
UPDLUD - ACCTG., LUD UPDATER	MACRO 12.5-46.0 17:15 19-SEP-89 PAGE 143
UPDLUD.MAC	24-MAY-89 18:55		FORMAT OF HOSTS TO BE OUTPUT

  6470				;OUTPUT DATE FROM N (IN X22 CODED FORM)
  6471	011656'	260740	014662'	DATOUT:	PUSHJ P,CDTOD
  6472	011657'	200040	023050'		MOVE A,YEAR
  6473	011660'	231040	000144		IDIVI A,^D100
  6474	011661'	606000	000010		TRNN F,TTYOUT
  6475	011662'	254000	011675'		JRST D940O
  6476	011663'	200300	000002		MOVE N,B
  6477	011664'	260740	015151'		PUSHJ P,NUMOUT
  6478	011665'	602000	000010		TRNE F,TTYOUT
  6479	011666'	051040	020341'		OUTCHR SLASH
  6480	011667'	200300	023014'		MOVE N,MO
  6481	011670'	260740	015151'		PUSHJ P,NUMOUT
  6482	011671'	602000	000010		TRNE F,TTYOUT
  6483	011672'	051040	020341'		OUTCHR SLASH
  6484	011673'	200300	022775'		MOVE N,DAY
  6485	011674'	254000	015151'		JRST NUMOUT
  6486	011675'	200300	000002	D940O:	MOVE N,B
  6487	011676'	221300	023420		IMULI N,^D10000
  6488	011677'	200040	023014'		MOVE A,MO
  6489	011700'	221040	000144		IMULI A,^D100
  6490	011701'	270300	000001		ADD N,A
  6491	011702'	270300	022775'		ADD N,DAY
  6492	011703'	254000	015151'		JRST NUMOUT
  6493
  6494	011704'	200640	022670'	CNAMOUT: MOVE BP,CNAMBP
  6495	011705'	201300	000063		MOVEI N,SIZLIN
  6496	011706'	660000	002000		TRO F,SHORTS
  6497	011707'	254000	015226'		JRST ASCOUT
  6498
  6499				;OUTPUT ADDRESS
  6500	011710'	260740	011724'	ADDOUT:	PUSHJ P,STOUT
  6501	011711'	661000	001000		TLO F,NOCR
  6502	011712'	260740	011740'		PUSHJ P,CITOUT
  6503	011713'	602000	000010		TRNE F,TTYOUT
  6504	011714'	051140	020065'		OUTSTR M2SPACE
  6505	011715'	661000	001000		TLO F,NOCR
  6506	011716'	260740	011743'		PUSHJ P,STAOUT
  6507	011717'	602000	000010		TRNE F,TTYOUT
  6508	011720'	051140	020065'		OUTSTR M2SPACE
  6509	011721'	260740	011746'		PUSHJ P,ZIPOUT
  6510	011722'	260740	011751'		PUSHJ P,COUOUT
  6511	011723'	254000	011754'		JRST ATTOUT
UPDLUD - ACCTG., LUD UPDATER	MACRO 12.5-46.0 17:15 19-SEP-89 PAGE 144
UPDLUD.MAC	24-MAY-89 18:55		FORMAT OF HOSTS TO BE OUTPUT

  6512	011724'	200640	022672'	STOUT:	MOVE BP,STR1BP
  6513	011725'	201300	000063		MOVEI N,SIZLIN
  6514	011726'	660000	002000		TRO F,SHORTS
  6515	011727'	260740	015226'		PUSHJ P,ASCOUT
  6516	011730'	200640	022673'		MOVE BP,STR2BP
  6517	011731'	201300	000063		MOVEI N,SIZLIN
  6518	011732'	660000	002000		TRO F,SHORTS
  6519	011733'	260740	015226'		PUSHJ P,ASCOUT
  6520	011734'	200640	022677'		MOVE BP,XLBP	;EXTRA LINE
  6521	011735'	201300	000063		MOVEI N,SIZLIN
  6522	011736'	660000	002000		TRO F,SHORTS
  6523	011737'	254000	015226'		JRST ASCOUT
  6524
  6525	011740'	200640	022674'	CITOUT:	MOVE BP,CITYBP
  6526	011741'	201300	000015		MOVEI N,SZCITY
  6527	011742'	254000	015226'		JRST ASCOUT
  6528	011743'	200640	022675'	STAOUT:	MOVE BP,STATBP
  6529	011744'	201300	000002		MOVEI N,SZSTATE
  6530	011745'	254000	015226'		JRST ASCOUT
  6531
  6532	011746'	200640	022676'	ZIPOUT:	MOVE BP,ZIPBP
  6533	011747'	201300	000005		MOVEI N,SZZIP
  6534	011750'	254000	015226'		JRST ASCOUT
  6535
  6536	011751'	200640	022700'	COUOUT:	MOVE BP,COUNBP
  6537	011752'	201300	000005		MOVEI N,SZCOUNTRY
  6538	011753'	254000	015226'		JRST ASCOUT
  6539
  6540	011754'	200640	022671'	ATTOUT:	MOVE BP,ATTNBP
  6541	011755'	201300	000063		MOVEI N,SIZLIN
  6542	011756'	660000	002000		TRO F,SHORTS
  6543	011757'	254000	015226'		JRST ASCOUT
  6544
  6545	011760'	200640	023334'	NAMOUT:	MOVE BP,[POINT 7,UINFO+NUNAME]
  6546	011761'	602000	000010		TRNE F,TTYOUT
  6547	011762'	051140	020025'		OUTSTR MUNAME
  6548	011763'	201300	000014		MOVEI N,SIZNAM
  6549	011764'	254000	015227'		JRST WDSOUT
  6550
  6551	011765'	200640	023334'	MAILOU:	MOVE BP,[POINT 7,UINFO+NUNAME]
  6552	011766'	602000	000010		TRNE F,TTYOUT
  6553	011767'	051140	020030'		OUTSTR MANAME
  6554	011770'	201300	000014		MOVEI N,SIZNAM
  6555	011771'	254000	015227'		JRST WDSOUT
  6556				;OUTPUT DETAIL CODE
  6557	011772'	602000	000010	DETOUT:	TRNE F,TTYOUT
  6558	011773'	051140	017755'		OUTSTR MDET
  6559	011774'	260740	015147'		PUSHJ P,TWOOUT	;DETAIL CODE
  6560	011775'	254000	015242'		JRST CRLF
  6561
  6562				;OUTPUT MINIMUM CODE
  6563	011776'	602000	000010	MINOUT:	TRNE F,TTYOUT
  6564	011777'	051140	017760'		OUTSTR MMIN
UPDLUD - ACCTG., LUD UPDATER	MACRO 12.5-46.0 17:15 19-SEP-89 PAGE 144-2
UPDLUD.MAC	24-MAY-89 18:55		FORMAT OF HOSTS TO BE OUTPUT

  6565	012000'	200300	021524'		MOVE N,CINFO+NCMINC
  6566	012001'	260740	015146'		PUSHJ P,ONEOUT
  6567	012002'	254000	015242'		JRST CRLF
UPDLUD - ACCTG., LUD UPDATER	MACRO 12.5-46.0 17:15 19-SEP-89 PAGE 145
UPDLUD.MAC	24-MAY-89 18:55		FORMAT OF HOSTS TO BE OUTPUT

  6568	012003'	602000	000010	INVOUT:	TRNE F,TTYOUT
  6569	012004'	051140	020004'		OUTSTR MINV
  6570	012005'	200300	021522'		MOVE N,CINFO+NCINVC
  6571	012006'	260740	015147'		PUSHJ P,TWOOUT
  6572	012007'	254000	015242'		JRST CRLF
  6573
  6574	012010'	602000	000010	POOUT:	TRNE F,TTYOUT
  6575	012011'	051140	017763'		OUTSTR MPO
  6576	012012'	660000	002000		TRO F,SHORTS
  6577	012013'	200640	022666'		MOVE BP,POBP
  6578	012014'	201300	000036		MOVEI N,SZPO
  6579	012015'	254000	015226'		JRST ASCOUT
  6580
  6581	012016'	602000	000010	POMOUT:	TRNE F,TTYOUT
  6582	012017'	051140	017764'		OUTSTR MPOMAX
  6583	012020'	200300	021533'		MOVE N,CINFO+NPOMAX
  6584	012021'	260740	015151'		PUSHJ P,NUMOUT	;PO MAXIMUM
  6585	012022'	254000	015242'		JRST CRLF
  6586
  6587	012023'	602000	000010	POSTAO:	TRNE F,TTYOUT
  6588	012024'	051140	017766'		OUTSTR MPOSTA
  6589	012025'	200300	021534'		MOVE N,CINFO+NPOSTART
  6590	012026'	260740	011656'		PUSHJ P,DATOUT
  6591	012027'	254000	015242'		JRST CRLF
  6592
  6593	012030'	602000	000010	POSTOO:	TRNE F,TTYOUT
  6594	012031'	051140	017772'		OUTSTR MPOSTO
  6595	012032'	200300	021535'		MOVE N,CINFO+NPOSTOP
  6596	012033'	260740	011656'		PUSHJ P,DATOUT
  6597	012034'	254000	015242'		JRST CRLF
  6598
  6599	012035'	602000	000010	ADTOUT: TRNE F,TTYOUT
  6600	012036'	051140	017775'	        OUTSTR MANNDT
  6601	012037'	200300	021544'	        MOVE N,CINFO+NANNDT
  6602	012040'	260740	011656'	        PUSHJ P,DATOUT
  6603	012041'	254000	015242'	        JRST CRLF
  6604
  6605
  6606	012042'	200300	021147'	UCSOUT:	MOVE N,UINFO+NUCUSN
  6607	012043'	602000	000010		TRNE F,TTYOUT
  6608	012044'	051140	017746'		OUTSTR MCSTNO
  6609	012045'	260740	015151'		PUSHJ P,NUMOUT
  6610	012046'	602000	000010		TRNE F,TTYOUT
  6611	012047'	051140	020065'		OUTSTR M2SPACE
  6612	012050'	254000	011704'		JRST CNAMOU
  6613	012051'	200300	021147'	UCUOUT: MOVE N,UINFO+NUCUSN
  6614	012052'	602000	000010	        TRNE F,TTYOUT
  6615	012053'	051140	017746'	        OUTSTR MCSTNO
  6616	012054'	260740	015151'	        PUSHJ P,NUMOUT
  6617	012055'	254000	015242'	        JRST CRLF
UPDLUD - ACCTG., LUD UPDATER	MACRO 12.5-46.0 17:15 19-SEP-89 PAGE 146
UPDLUD.MAC	24-MAY-89 18:55		FORMAT OF HOSTS TO BE OUTPUT

  6618	012056'	200300	021163'	PRIOUT:	MOVE N,USINFO+NPRICOD
  6619	012057'	602000	000010		TRNE F,TTYOUT
  6620	012060'	051140	020054'		OUTSTR MPCODE
  6621	012061'	260740	015147'		PUSHJ P,TWOOUT
  6622	012062'	254000	015242'		JRST CRLF
  6623
  6624	012063'	602000	000010	RESOUT:	TRNE F,TTYOUT
  6625	012064'	263740	000000		POPJ P,0
  6626	012065'	201300	000001		MOVEI N,1
  6627	012066'	260740	015146'		PUSHJ P,ONEOUT
  6628	012067'	263740	000000		POPJ P,0
  6629
  6630	012070'	602000	000010	CUROUT:	TRNE F,TTYOUT
  6631	012071'	051140	020122'		OUTSTR MCURR
  6632	012072'	200300	021150'		MOVE N,UINFO+NCURR
  6633	012073'	260740	015146'		PUSHJ P,ONEOUT
  6634	012074'	254000	015242'		JRST CRLF
  6635
  6636	012075'	602000	000010	LANOUT:	TRNE F,TTYOUT
  6637	012076'	051140	020126'		OUTSTR MLANG
  6638	012077'	200300	021151'		MOVE N,UINFO+NLANG
  6639	012100'	260740	015146'		PUSHJ P,ONEOUT
  6640	012101'	254000	015242'		JRST CRLF
  6641
  6642	012102'	602000	000010	CNTOUT: TRNE F,TTYOUT
  6643	012103'	051140	023414'	        OUTSTR [ASCIZ /COUNT: /]
  6644	012104'	200300	023021'	        MOVE N,NUMRET
  6645	012105'	260740	015151'	        PUSHJ P,NUMOUT
  6646	012106'	254000	015242'	        JRST CRLF
  6647
UPDLUD - ACCTG., LUD UPDATER	MACRO 12.5-46.0 17:15 19-SEP-89 PAGE 147
UPDLUD.MAC	24-MAY-89 18:55		FORMAT OF HOSTS TO BE OUTPUT

  6648	012107'	400340	000000	MISOUT:	SETZ N1,
  6649	012110'	200312	022102'		MOVE N,LUDBLK+2(INDEX)
  6650	012111'	246300	777767		LSHC N,-^D9
  6651	012112'	242300	777754		LSH N,-^D20
  6652	012113'	246300	000001		LSHC N,1
  6653	012114'	602000	000010		TRNE F,TTYOUT
  6654	012115'	051140	020137'		OUTSTR MMISC
  6655	012116'	661000	000010		TLO F,OCTINF	;OUTPUT IN OCTAL
  6656	012117'	260740	015146'		PUSHJ P,ONEOUT
  6657	012120'	254000	015242'		JRST CRLF
  6658
  6659	012121'	602000	000010	BUDOUT:	TRNE F,TTYOUT
  6660	012122'	051140	020144'		OUTSTR MBUD
  6661	012123'	200312	022105'		MOVE N,LUDBLK+5(INDEX)
  6662	012124'	231300	023420		IDIVI N,^D10000
  6663	012125'	260740	015151'		PUSHJ P,NUMOUT
  6664	012126'	254000	015242'		JRST CRLF
  6665
  6666	012127'	606000	000010	INIOUT:	TRNN F,TTYOUT
  6667	012130'	254000	012133'		JRST .+3
  6668	012131'	051140	020146'		OUTSTR MINIT
  6669	012132'	051040	020337'		OUTCHR LPAREN
  6670	012133'	261740	000012		PUSH P,INDEX
  6671	012134'	603000	002000		TLNE F,TRUF
  6672	012135'	340500	000000		AOJ INDEX,
  6673	012136'	200640	020352'		MOVE BP,INNPTR
  6674	012137'	201300	000014		MOVEI N,SIZNAM
  6675	012140'	661000	001000		TLO F,NOCR
  6676	012141'	260740	015227'		PUSHJ P,WDSOUT
  6677	012142'	602000	000010		TRNE F,TTYOUT
  6678	012143'	051040	020340'		OUTCHR RPAREN
  6679	012144'	200640	020351'		MOVE BP,INPPTR
  6680	012145'	201300	000006		MOVEI N,6
  6681	012146'	661000	001000		TLO F,NOCR
  6682	012147'	260740	015227'		PUSHJ P,WDSOUT
  6683	012150'	262740	000012		POP P,INDEX
  6684	012151'	254000	015242'		JRST CRLF
  6685				;OUTPUT AST'S FOR A CUSTOMER
  6686	012152'	200300	022770'	ASTOUT:	MOVE N,AST
  6687	012153'	602000	000010		TRNE F,TTYOUT
  6688	012154'	051140	023416'		OUTSTR [ASCIZ /ACCOUNTING SYSTEM TYPES: /]
  6689	012155'	260740	015146'		PUSHJ P,ONEOUT
  6690	012156'	254000	015242'		JRST CRLF
UPDLUD - ACCTG., LUD UPDATER	MACRO 12.5-46.0 17:15 19-SEP-89 PAGE 148
UPDLUD.MAC	24-MAY-89 18:55		INPUT ROUTINES

  6691				SUBTTL INPUT ROUTINES
  6692
  6693				;GET UUN, GAN
  6694	012157'	260740	012176'	USERIN:	PUSHJ P,GANIN
  6695	012160'	602000	000010	UUNIN:	TRNE F,TTYOUT
  6696	012161'	051140	020023'		OUTSTR MUUN
  6697	012162'	661000	000010		TLO F,OCTINF
  6698	012163'	260740	015071'		PUSHJ P,GETNUM
  6699					 ; TRZ N,400000       ; mask off 18th bit (only allow 17 bits uun)
  6700	012164'	322300	000674'		JUMPE N,ZNERR
  6701	012165'	542300	022037'		HRRM N,LPPN
  6702	012166'	606000	000400		TRNN F,ACTCMD
  6703	012167'	263740	000000		POPJ P,0
  6704	012170'	260740	013347'		PUSHJ P,OCTDEC
  6705	012171'	202300	022714'		MOVEM N,DBUUN
  6706	012172'	202300	021173'		MOVEM N,VINFO+NUSUUN
  6707	012173'	202300	021142'		MOVEM N,UINFO+NUUN
  6708	012174'	202300	021160'		MOVEM N,USINFO+NUSUUN
  6709	012175'	263740	000000		POPJ P,0
  6710
  6711	012176'	602000	000010	GANIN:	TRNE F,TTYOUT
  6712	012177'	051140	020021'		OUTSTR MGAN
  6713	012200'	661000	000010		TLO F,OCTINF
  6714	012201'	260740	015071'		PUSHJ P,GETNUM
  6715	012202'	322300	000674'		JUMPE N,ZNERR
  6716	012203'	516300	022037'		HRLZM N,LPPN
  6717	012204'	606000	000400		TRNN F,ACTCMD
  6718	012205'	263740	000000		POPJ P,0
  6719	012206'	260740	013347'		PUSHJ P,OCTDEC
  6720	012207'	202300	021141'		MOVEM N,UINFO+NGAN
  6721	012210'	202300	021177'		MOVEM N,VINFO+NVGAN
  6722	012211'	263740	000000		POPJ P,0
  6723
  6724				;GET USER AND LOOK UP IN LUD
  6725	012212'	260740	012235'	USERCM:	PUSHJ P,SIXNAM
  6726	012213'	200300	022033'		MOVE	N,UNAME
  6727	012214'	200340	022034'		MOVE	N1,UNAME+1
  6728	012215'	260740	015301'		PUSHJ	P,HASHER
  6729	012216'	202300	022043'		MOVEM N,HUNAME
  6730	012217'	202340	023002'		MOVEM N1,HLOC
  6731	012220'	260740	000516'		PUSHJ P,GETSYS
  6732	012221'	260740	000523'		PUSHJ P,OPLUD	;LOOKUP LUD
  6733	012222'	074760	023002'		USETI	DSK,@HLOC
  6734	012223'	066740	020412'		INPUT	DSK,LUDLST
  6735	012224'	063740	760000		STATZ DSK,760000
  6736	012225'	260740	000670'		PUSHJ P,IOERR
  6737	012226'	260740	000601'		PUSHJ	P,GETLAS
  6738	012227'	260740	001112'		PUSHJ P,SETDEX
  6739					JRST	[CLOSE DSK,
  6740	012230'	254000	023424'			POPJ P,0]
  6741	012231'	070740	000000		CLOSE DSK,
  6742	012232'	254000	015533'		JRST RET1
  6743
UPDLUD - ACCTG., LUD UPDATER	MACRO 12.5-46.0 17:15 19-SEP-89 PAGE 148-2
UPDLUD.MAC	24-MAY-89 18:55		INPUT ROUTINES

  6744	012233'	661000	004000	GTUNAM:	TLO F,ASCIO
  6745	012234'	334640	023334'		SKIPA BP,[POINT 7,UINFO+NUNAME]
  6746	012235'	200640	023426'	SIXNAM:	MOVE BP,[POINT 6,UNAME]
  6747	012236'	602000	000010		TRNE F,TTYOUT
  6748	012237'	051140	020025'		OUTSTR MUNAME
  6749	012240'	201300	000014		MOVEI	N,SIZNAM
  6750	012241'	254000	015024'		JRST GETWD
UPDLUD - ACCTG., LUD UPDATER	MACRO 12.5-46.0 17:15 19-SEP-89 PAGE 149
UPDLUD.MAC	24-MAY-89 18:55		INPUT ROUTINES

  6751				;GET CUSTOMER NUMBER
  6752	012242'	606000	000010	CUSTIN:	TRNN F,TTYOUT
  6753	012243'	254000	012247'		JRST .+4
  6754	012244'	622000	000040		TRZE F,NEWF
  6755	012245'	051140	020327'		OUTSTR NEWMSG
  6756	012246'	051140	017746'		OUTSTR MCSTNO
  6757	012247'	260740	015071'		PUSHJ P,GETNUM
  6758	012250'	301300	000001		CAIL N,MINCUS
  6759	012251'	303300	303237		CAILE N,MAXCUS
  6760	012252'	260740	000655'		PUSHJ P,BADVAL
  6761	012253'	202300	021514'		MOVEM N,CINFO+NCUSNUM
  6762	012254'	202300	021545'		MOVEM N,AINFO+NACUSNUM
  6763	012255'	202300	021147'		MOVEM N,UINFO+NUCUSN
  6764	012256'	263740	000000		POPJ P,0
  6765
  6766				;GET ACCOUNTING SYSTEM TYPE
  6767	012257'	602000	000010	ASYSIN:	TRNE F,TTYOUT
  6768	012260'	051140	023427'		OUTSTR [ASCIZ /ACCOUNTING SYSTEM TYPE: /]
  6769	012261'	260740	015066'		PUSHJ P,GETONE
  6770	012262'	400140	000000		SETZ C,
  6771	012263'	316303	000000'		CAMN N,LUDUP(C)
  6772	012264'	254000	012271'		JRST .+5
  6773	012265'	340140	000000		AOJ C,
  6774	012266'	331003	000000'		SKIPL LUDUP(C)
  6775	012267'	254000	012263'		JRST .-4
  6776	012270'	260740	000655'		PUSHJ P,BADVAL
  6777	012271'	202300	021546'		MOVEM N,AINFO+NASYSC
  6778	012272'	202300	021515'		MOVEM N,CINFO+NCSYSC
  6779	012273'	202300	021161'		MOVEM N,USINFO+NUSYSC
  6780	012274'	263740	000000		POPJ P,0
  6781
  6782				;GET NEW USER NAME
  6783	012275'	201300	000014	GNWNAM:	MOVEI N,SIZNAM
  6784	012276'	602000	000010		TRNE F,TTYOUT
  6785	012277'	051140	023434'		OUTSTR [ASCIZ /NEW USER NAME: /]
  6786	012300'	200640	023440'		MOVE BP,[POINT 6,NNAME]
  6787	012301'	603000	004000		TLNE F,ASCIO
  6788	012302'	200640	023441'		MOVE BP,[POINT 7,NNAME]
  6789	012303'	254000	015024'		JRST GETWD
UPDLUD - ACCTG., LUD UPDATER	MACRO 12.5-46.0 17:15 19-SEP-89 PAGE 150
UPDLUD.MAC	24-MAY-89 18:55		INPUT ROUTINES

  6790				;GET PRIV BITS
  6791	012304'	402000	022042'	GETPBT:	SETZM PRIV
  6792	012305'	402000	022041'	        SETZM MISC
  6793	012306'	606000	000010		TRNN F,TTYOUT
  6794	012307'	254000	012336'		JRST GETPB2
  6795	012310'	051140	020033'		OUTSTR MATYM
  6796	012311'	260740	013577'		PUSHJ P,GETBIT
  6797	012312'	137300	020364'		DPB N,TYMBIT
  6798	012313'	051140	023442'	        OUTSTR [ASCIZ /BILLABLE? /]
  6799	012314'	260740	013577'	        PUSHJ P,GETBIT
  6800	012315'	202300	022771'	        MOVEM N,BILABL
  6801	012316'	051140	020066'		OUTSTR MAAS
  6802	012317'	260740	013577'		PUSHJ P,GETBIT
  6803	012320'	137300	020365'		DPB N,ASBIT
  6804	012321'	051140	020100'	        OUTSTR MARUB
  6805	012322'	260740	013577'	        PUSHJ P,GETBIT
  6806	012323'	137300	020357'	        DPB N,RUBBIT
  6807	012324'	051140	020114'	        OUTSTR MAGFD
  6808	012325'	260740	013577'	        PUSHJ P,GETBIT
  6809	012326'	137300	020360'	        DPB N,GFDBIT
  6810	012327'	051140	020110'	        OUTSTR MARCM
  6811	012330'	260740	013577'	        PUSHJ P,GETBIT
  6812	012331'	137300	020366'	        DPB N,RCMBIT
  6813	012332'	051140	020120'		OUTSTR MMODE
  6814	012333'	260740	015071'		PUSHJ P,GETNUM
  6815	012334'	137300	020367'		DPB N,MODBIT
  6816	012335'	263740	000000		POPJ P,0
  6817	012336'	260740	015071'	GETPB2:	PUSHJ P,GETNUM
  6818	012337'	202300	023047'		MOVEM N,WD
  6819	012340'	135040	020377'		LDB A,TYMWD
  6820	012341'	137040	020364'		DPB A,TYMBIT
  6821	012342'	135040	020401'	        LDB A,BILWD
  6822	012343'	202040	022771'	        MOVEM A,BILABL
  6823	012344'	135040	020400'		LDB A,ASWD
  6824	012345'	137040	020365'		DPB A,ASBIT
  6825	012346'	135040	020372'	        LDB A,RUBWD
  6826	012347'	137040	020357'	        DPB A,RUBBIT
  6827	012350'	135040	020373'	        LDB A,GFDWD
  6828	012351'	137040	020360'	        DPB A,GFDBIT
  6829	012352'	135040	020402'	        LDB A,RCMWD
  6830	012353'	137040	020366'	        DPB A,RCMBIT
  6831	012354'	135040	020403'		LDB A,MODWD
  6832	012355'	137040	020367'		DPB A,MODBIT
  6833	012356'	135040	020402'		LDB A,RCMWD
  6834	012357'	137040	020366'		DPB A,RCMBIT
  6835	012360'	263740	000000		POPJ P,0
UPDLUD - ACCTG., LUD UPDATER	MACRO 12.5-46.0 17:15 19-SEP-89 PAGE 151
UPDLUD.MAC	24-MAY-89 18:55		INPUT ROUTINES

  6836				;GET TIME ZONE
  6837	012361'	606000	000010	GETZONE:	TRNN F,TTYOUT
  6838	012362'	254000	012401'		JRST GTZON2
  6839	012363'	602000	000040		TRNE F,NEWF
  6840	012364'	051140	020327'		OUTSTR NEWMSG
  6841	012365'	051140	020041'		OUTSTR MZONE
  6842	012366'	260740	015071'		PUSHJ P,GETNUM
  6843	012367'	303300	000034		CAILE N,MAXZON
  6844	012370'	260740	000655'		PUSHJ P,BADVAL
  6845	012371'	202300	023051'		MOVEM N,ZONE
  6846	012372'	051140	020044'		OUTSTR MADST
  6847	012373'	260740	013400'		PUSHJ P,YORN
  6848	012374'	334040	020332'		SKIPA A,ONE
  6849	012375'	400040	000000		SETZ A,
  6850	012376'	137040	020353'		DPB A,DSTBYT
  6851	012377'	200300	023051'		MOVE N,ZONE
  6852	012400'	254000	012403'		JRST FIXZONE
  6853	012401'	260740	015066'	GTZON2:	PUSHJ P,GETONE
  6854	012402'	202300	023051'		MOVEM N,ZONE
  6855	012403'	606000	000400	FIXZONE: TRNN F,ACTCMD
  6856	012404'	263740	000000		POPJ P,0
  6857	012405'	135040	020353'		LDB A,DSTBYT
  6858	012406'	200100	020324'		MOVE B,YES
  6859	012407'	302040	000001		CAIE A,1
  6860	012410'	200100	020325'		MOVE B,NO
  6861	012411'	202100	021166'		MOVEM B,USINFO+NDST
  6862	012412'	200300	023051'		MOVE N,ZONE
  6863	012413'	405300	000037		ANDI N,37
  6864	012414'	202300	021165'		MOVEM N,USINFO+NUZONE
  6865	012415'	263740	000000		POPJ P,0
  6866
  6867
  6868				;GET FLAT FOCUS FEE
  6869	012416'	606000	000010	GETFFF: TRNN F,TTYOUT
  6870	012417'	254000	012423'	        JRST GETFF2
  6871	012420'	602000	000040	        TRNE F,NEWF
  6872	012421'	051140	020327'	        OUTSTR NEWMSG
  6873	012422'	051140	020015'	        OUTSTR MFOCF
  6874	012423'	260740	015066'	GETFF2: PUSHJ P,GETONE
  6875	012424'	301300	000000	        CAIL N,MINFFF
  6876	012425'	303300	000001	        CAILE N,MAXFFF
  6877	012426'	260740	000655'	        PUSHJ P,BADVAL
  6878	012427'	322300	012433'	        JUMPE N,FFFEQN  ;IF N=0, GOTO FFFEQN TO SET FFF = 'N'
  6879	012430'	200300	020324'	        MOVE N,YES
  6880	012431'	202300	021543'	        MOVEM N,CINFO+NFOCF
  6881	012432'	263740	000000	        POPJ P,0
  6882	012433'	200300	020325'	FFFEQN: MOVE N,NO
  6883	012434'	202300	021543'	        MOVEM N,CINFO+NFOCF
  6884	012435'	263740	000000	        POPJ P,0
UPDLUD - ACCTG., LUD UPDATER	MACRO 12.5-46.0 17:15 19-SEP-89 PAGE 152
UPDLUD.MAC	24-MAY-89 18:55		INPUT ROUTINES

  6885				;GET DISTRICT NO.
  6886	012436'	606000	000010	GETDIS:	TRNN F,TTYOUT
  6887	012437'	254000	012443'		JRST DIST2
  6888	012440'	602000	000040		TRNE F,NEWF
  6889	012441'	051140	020327'		OUTSTR NEWMSG
  6890	012442'	051140	017752'		OUTSTR MDIST
  6891	012443'	260740	015066'	DIST2:	PUSHJ P,GETONE
  6892	012444'	301300	000000		CAIL N,MINDIS
  6893	012445'	303300	000377		CAILE N,MAXDIS
  6894	012446'	260740	000655'		PUSHJ P,BADVAL
  6895	012447'	202300	022040'		MOVEM N,DIST
  6896	012450'	202300	021516'		MOVEM N,CINFO+NCDIST
  6897	012451'	202300	021146'		MOVEM N,UINFO+NUDIST
  6898	012452'	263740	000000		POPJ P,0
  6899
  6900				;GET COSTCODE
  6901	012453'	606000	000010	COCOIN: TRNN F,TTYOUT
  6902	012454'	254000	012460'	        JRST .+4
  6903	012455'	622000	000040	        TRZE F,NEWF
  6904	012456'	051140	020327'	        OUTSTR NEWMSG
  6905	012457'	051140	020012'	        OUTSTR MCOST
  6906	012460'	260740	015071'	        PUSHJ P,GETNUM
  6907	012461'	301300	000000	        CAIL N,MINCCO
  6908	012462'	313300	023445'	        CAMLE N,[MAXCCO]
  6909	012463'	260740	000655'	        PUSHJ P,BADVAL
  6910	012464'	202300	021542'	        MOVEM N,CINFO+NCCOST
  6911	012465'	202300	021156'	        MOVEM N,UINFO+NUCOST
  6912				  ;     MOVEM N,USINFO+NTCOST
  6913	012466'	263740	000000	        POPJ P,0
  6914
  6915				;GET COSTCODE FOR TUSRDB
  6916	012467'	606000	000010	TCOCIN: TRNN F,TTYOUT
  6917	012470'	254000	012474'	        JRST .+4
  6918	012471'	622000	000040	        TRZE F,NEWF
  6919	012472'	051140	020327'	        OUTSTR NEWMSG
  6920	012473'	051140	020012'	        OUTSTR MCOST
  6921	012474'	260740	015071'	        PUSHJ P,GETNUM
  6922	012475'	301300	000000	        CAIL N,MINCCO
  6923	012476'	313300	023445'	        CAMLE N,[MAXCCO]
  6924	012477'	260740	000655'	        PUSHJ P,BADVAL
  6925	012500'	202300	021174'	        MOVEM N,USINFO+NTCOST
  6926	012501'	263740	000000	        POPJ P,0
  6927
  6928				;GET VARIABLE PRICING FLAG
  6929	012502'	602000	000010	GETVPF:	TRNE F,TTYOUT
  6930	012503'	051140	023446'		OUTSTR [ASCIZ /MAY PRICING CODES VARY? /]
  6931	012504'	260740	013577'		PUSHJ P,GETBIT
  6932	012505'	602000	000010		TRNE F,TTYOUT
  6933	012506'	340300	000000		AOJ N,
  6934	012507'	202300	021536'		MOVEM N,CINFO+NVPF
  6935	012510'	263740	000000		POPJ P,0
UPDLUD - ACCTG., LUD UPDATER	MACRO 12.5-46.0 17:15 19-SEP-89 PAGE 153
UPDLUD.MAC	24-MAY-89 18:55		INPUT ROUTINES

  6936				;GET DEFAULT PRICING CODE
  6937	012511'	606000	000010	GETDPR:	TRNN F,TTYOUT
  6938	012512'	254000	012516'		JRST .+4
  6939	012513'	602000	000040		TRNE F,NEWF
  6940	012514'	051140	020327'		OUTSTR NEWMSG
  6941	012515'	051140	020132'		OUTSTR MDPR
  6942	012516'	260740	015067'		PUSHJ P,GETTWO
  6943	012517'	301300	000001		CAIL N,MINPC
  6944	012520'	303300	001747		CAILE N,MAXPC
  6945	012521'	260740	000655'		PUSHJ P,BADVAL
  6946	012522'	202300	021537'		MOVEM N,CINFO+NDPRI
  6947	012523'	263740	000000		POPJ P,0
  6948
  6949				;GET LANGUAGE CODE
  6950	012524'	606000	000010	GETLAN:	TRNN F,TTYOUT
  6951	012525'	254000	012531'		JRST .+4
  6952	012526'	602000	000040		TRNE F,NEWF
  6953	012527'	051140	020327'		OUTSTR NEWMSG
  6954	012530'	051140	020126'		OUTSTR MLANG
  6955	012531'	260740	015066'		PUSHJ P,GETONE
  6956	012532'	301300	000001		CAIL N,MINLAN
  6957	012533'	303300	000143		CAILE N,MAXLAN
  6958	012534'	260740	000655'		PUSHJ P,BADVAL
  6959	012535'	202300	021151'		MOVEM N,UINFO+NLANG
  6960	012536'	263740	000000		POPJ P,0
  6961
  6962	012537'	606000	000010	GTRESM:	TRNN F,TTYOUT
  6963	012540'	260740	015066'		PUSHJ P,GETONE
  6964	012541'	201300	000001		MOVEI N,1
  6965	012542'	202300	021164'		MOVEM N,USINFO+NRES
  6966	012543'	263740	000000		POPJ P,0
UPDLUD - ACCTG., LUD UPDATER	MACRO 12.5-46.0 17:15 19-SEP-89 PAGE 154
UPDLUD.MAC	24-MAY-89 18:55		INPUT ROUTINES

  6967				;GET CUSTOMER DETAIL CODE
  6968	012544'	606000	000010	GETDET:	TRNN F,TTYOUT
  6969	012545'	254000	012551'		JRST .+4
  6970	012546'	602000	000040		TRNE F,NEWF
  6971	012547'	051140	020327'		OUTSTR NEWMSG
  6972	012550'	051140	017755'		OUTSTR MDET
  6973	012551'	260740	015067'		PUSHJ P,GETTWO
  6974	012552'	301300	000001		CAIL N,MINDET
  6975	012553'	303300	001747		CAILE N,MAXDET
  6976	012554'	260740	000655'		PUSHJ P,BADVAL
  6977	012555'	202300	021521'		MOVEM N,CINFO+NCDETC
  6978	012556'	263740	000000		POPJ P,0
  6979
  6980				;GET CUSTOMER MINIMUM CODE
  6981	012557'	606000	000010	GETMIN:	TRNN F,TTYOUT
  6982	012560'	254000	012564'		JRST .+4
  6983	012561'	602000	000040		TRNE F,NEWF
  6984	012562'	051140	020327'		OUTSTR NEWMSG
  6985	012563'	051140	017760'		OUTSTR MMIN
  6986	012564'	260740	015066'		PUSHJ P,GETONE
  6987	012565'	301300	000001		CAIL N,MINMIN
  6988	012566'	303300	000143		CAILE N,MAXMIN
  6989	012567'	260740	000655'		PUSHJ P,BADVAL
  6990	012570'	202300	021524'		MOVEM N,CINFO+NCMINC
  6991	012571'	263740	000000		POPJ P,0
  6992
  6993				;GET PURCHASE ORDER
  6994	012572'	200640	022666'	GETPO:	MOVE BP,POBP
  6995	012573'	201300	000036		MOVEI N,SZPO
  6996	012574'	606000	000010		TRNN F,TTYOUT
  6997	012575'	254000	012601'		JRST .+4
  6998	012576'	602000	000040		TRNE F,NEWF
  6999	012577'	051140	020327'		OUTSTR NEWMSG
  7000	012600'	051140	017763'		OUTSTR MPO
  7001	012601'	661000	004000		TLO F,ASCIO
  7002	012602'	254000	015024'		JRST GETWD
  7003
  7004				;GET COST CODE FOR ENTRY INTO CUSTDB
  7005	012603'	402000	021542'	GTCOCC: SETZM   CINFO+NCCOST
  7006	012604'	263740	000000	        POPJ P,0
  7007
  7008				;GET COST CODE FOR ENTRY INTO USERDB
  7009	012605'	402000	021156'	GTCOCU: SETZM   UINFO+NUCOST
  7010	012606'	263740	000000	        POPJ P,0
  7011
  7012				;GET COST CODE FOR ENTRY INTO TUSRDB
  7013	012607'	402000	021174'	GTCOCT: SETZM   USINFO+NTCOST
  7014	012610'	263740	000000	        POPJ    P,0
  7015
  7016				;GET 'VALID ON NON-LUD HOSTS BIT'
  7017	012611'	402000	021157'	GTNLUD: SETZM   UINFO+NNLUDH
  7018	012612'	263740	000000	        POPJ P,0
UPDLUD - ACCTG., LUD UPDATER	MACRO 12.5-46.0 17:15 19-SEP-89 PAGE 155
UPDLUD.MAC	24-MAY-89 18:55		INPUT ROUTINES

  7019				;INPUT  TYMCOM-III HOST
  7020	012613'	602000	000010	GTAHST:	TRNE F,TTYOUT
  7021	012614'	051140	020171'		OUTSTR MHOST
  7022	012615'	260740	015067'		PUSHJ P,GETTWO
  7023	012616'	306300	077777		CAIN N,77777
  7024	012617'	474300	000000		SETO N,
  7025	012620'	202300	023004'		MOVEM N,HOST
  7026	012621'	201040	000001	        MOVEI A,A
  7027	012622'	261740	000001	        PUSH P,A
  7028	012623'	261740	023004'	        PUSH P,HOST
  7029	012624'	264000	014600'	        JSR WATTYP
  7030	012625'	332000	000001	        SKIPE A
  7031	012626'	260740	000645'	         PUSHJ P,BADSIT
  7032	012627'	263740	000000		POPJ P,0
  7033
  7034				;GET HOST
  7035	012630'	602000	000010	GETSI1:	TRNE F,TTYOUT
  7036	012631'	051140	020171'		OUTSTR MHOST
  7037	012632'	260740	015067'		PUSHJ P,GETTWO
  7038	012633'	201040	000001	        MOVEI A,A
  7039	012634'	261740	000001	        PUSH P,A
  7040	012635'	261740	000006	        PUSH P,N
  7041	012636'	264000	014600'	        JSR WATTYP
  7042	012637'	337000	000001	        SKIPG A
  7043	012640'	202300	021174'		MOVEM N,VINFO+NHOST
  7044	012641'	202300	021174'		MOVEM N,VINFO+NHOST
  7045	012642'	202300	023004'		MOVEM N,HOST#
  7046	012643'	263740	000000		POPJ P,0
  7047
  7048
  7049	012644'	602000	000010	GETSIT:	TRNE F,TTYOUT
  7050	012645'	051140	020171'		OUTSTR MHOST
  7051	012646'	260740	015067'		PUSHJ P,GETTWO
  7052	012647'	201040	000001	        MOVEI A,A
  7053	012650'	261740	000001	        PUSH P,A
  7054	012651'	261740	000006	        PUSH P,N
  7055	012652'	264000	014600'	        JSR WATTYP
  7056	012653'	337000	000001	        SKIPG A
  7057	012654'	260740	000645'	        PUSHJ P,BADSIT
  7058	012655'	202300	021174'		MOVEM N,VINFO+NHOST
  7059	012656'	202300	023004'		MOVEM N,HOST#
  7060	012657'	626000	010000		TRZN F,SELHST
  7061	012660'	263740	000000		POPJ P,0
  7062	012661'	312040	021161'		CAME A,USINFO+NUSYSC
  7063	012662'	260740	000645'	GTBADS:	PUSHJ P,BADSIT	;AST DOES NOT MATCH
  7064	012663'	263740	000000		POPJ P,0
  7065
  7066				;GET CUSTOMER NAME
  7067	012664'	200640	022670'	GETNAM:	MOVE BP,CNAMBP
  7068	012665'	201300	000063		MOVEI N,SIZLIN
  7069	012666'	606000	000010		TRNN F,TTYOUT
  7070	012667'	254000	012673'		JRST .+4
  7071	012670'	602000	000040		TRNE F,NEWF
UPDLUD - ACCTG., LUD UPDATER	MACRO 12.5-46.0 17:15 19-SEP-89 PAGE 155-2
UPDLUD.MAC	24-MAY-89 18:55		INPUT ROUTINES

  7072	012671'	051140	020327'		OUTSTR NEWMSG
  7073	012672'	051140	023453'		OUTSTR [ASCIZ /CUSTOMER NAME: /]
  7074	012673'	661000	004000		TLO F,ASCIO
  7075	012674'	254000	015024'		JRST GETWD
  7076
  7077				;INPUT OLD AND NEW HOST FOR MOVE USERS
  7078	012675'	602000	000010	OLDNEW:	TRNE F,TTYOUT
  7079	012676'	051140	023457'		OUTSTR [ASCIZ /OLD /]
  7080	012677'	260740	012644'		PUSHJ P,GETSIT
  7081	012700'	202300	023024'		MOVEM N,OLDHST#
  7082	012701'	602000	020000		TRNE F,NOHSTS	;FOR 940 MOVE USERS, NO NEED FOR NEW HOST
  7083	012702'	263740	000000		POPJ P,0
  7084	012703'	602000	000010		TRNE F,TTYOUT
  7085	012704'	051140	023460'		OUTSTR [ASCIZ /NEW /]
  7086	012705'	260740	012644'		PUSHJ P,GETSIT
  7087	012706'	202300	023017'		MOVEM N,NEWHST#
  7088	012707'	402000	021546'	        SETZM AINFO+NUUN
  7089	012710'	260740	013273'	        PUSHJ P,GETRFL
  7090	012711'	302300	000001	        CAIE N,1
  7091	012712'	263740	000000	        POPJ P,0
  7092	012713'	260740	012160'	        PUSHJ P,UUNIN
  7093	012714'	202300	021546'	        MOVEM N,AINFO+NUUN
  7094	012715'	263740	000000		POPJ P,0
UPDLUD - ACCTG., LUD UPDATER	MACRO 12.5-46.0 17:15 19-SEP-89 PAGE 156
UPDLUD.MAC	24-MAY-89 18:55		INPUT ROUTINES

  7095				;&.SKIP 2
  7096				;&ORDER OF ADDRESS INFORMATION:
  7097	012716'	606000	000010	GETADD:	TRNN F,TTYOUT
  7098	012717'	254000	012724'		JRST .+5
  7099	012720'	051140	023461'		OUTSTR [ASCIZ /ENTER /]
  7100	012721'	602000	000040		TRNE F,NEWF
  7101	012722'	051140	020327'		OUTSTR NEWMSG
  7102					OUTSTR [ASCIZ /CUSTOMER ADDRESS INFORMATION:
  7103	012723'	051140	023463'	/]
  7104	012724'	602000	000010		TRNE F,TTYOUT
  7105					OUTSTR [ASCIZ /STREET ADDRESS:
  7106	012725'	051140	023472'	/]
  7107	012726'	200640	022672'		MOVE BP,STR1BP
  7108	012727'	201300	000063		MOVEI N,SIZLIN	;&####STREET1 (51 BYTES)
  7109				                        ;&####STREET2 (51 BYTES)
  7110				                        ;&####EXTRA LINE (51 BYTES)
  7111	012730'	260740	012770'		PUSHJ P,GETLIN	;INPUT STREET1
  7112	012731'	200640	022673'		MOVE BP,STR2BP
  7113	012732'	201300	000063		MOVEI N,SIZLIN
  7114	012733'	260740	012770'		PUSHJ P,GETLIN	;INPUT STREET2
  7115	012734'	200640	022677'		MOVE BP,XLBP
  7116	012735'	201300	000063		MOVEI N,SIZLIN
  7117	012736'	260740	012770'		PUSHJ P,GETLIN	;INPUT EXTRA LINE
  7118	012737'	602000	000010		TRNE F,TTYOUT
  7119	012740'	051140	023476'		OUTSTR [ASCIZ /CITY: /]
  7120	012741'	200640	022674'		MOVE BP,CITYBP
  7121	012742'	201300	000015		MOVEI N,SZCITY
  7122	012743'	260740	012770'		PUSHJ P,GETLIN	;&####CITY (THIRTEEN BYTES)
  7123	012744'	602000	000010		TRNE F,TTYOUT
  7124	012745'	051140	023500'		OUTSTR [ASCIZ /STATE: /]
  7125	012746'	200640	022675'		MOVE BP,STATBP
  7126	012747'	201300	000002		MOVEI N,SZSTATE
  7127	012750'	260740	012770'		PUSHJ P,GETLIN	;&####STATE (TWO BYTES)
  7128	012751'	602000	000010		TRNE F,TTYOUT
  7129	012752'	051140	023502'		OUTSTR [ASCIZ /ZIP: /]
  7130	012753'	200640	022676'		MOVE BP,ZIPBP
  7131	012754'	201300	000005		MOVEI N,SZZIP
  7132	012755'	260740	013077'		PUSHJ P,GETZIP	;&####ZIP (FIVE BYTES)
  7133	012756'	602000	000010		TRNE F,TTYOUT
  7134	012757'	051140	023504'		OUTSTR [ASCIZ /COUNTRY: /]
  7135	012760'	200640	022700'		MOVE BP,COUNBP
  7136	012761'	201300	000005		MOVEI N,SZCOUNTRY
  7137	012762'	260740	012770'		PUSHJ P,GETLIN	;&####COUNTRY (FIVE BYTES)
  7138	012763'	602000	000010		TRNE F,TTYOUT
  7139					OUTSTR [ASCIZ /ATTENTION LINE:
  7140	012764'	051140	023506'	/]
  7141	012765'	200640	022671'		MOVE BP,ATTNBP
  7142	012766'	201300	000063		MOVEI N,SIZLIN
  7143	012767'	254000	012770'		JRST GETLIN	;&####ATTENTION LINE (51 BYTES)
UPDLUD - ACCTG., LUD UPDATER	MACRO 12.5-46.0 17:15 19-SEP-89 PAGE 157
UPDLUD.MAC	24-MAY-89 18:55		INPUT ROUTINES

  7144				;GET A FULL LINE
  7145	012770'	261740	000015	GETLIN:	PUSH P,BP
  7146	012771'	261740	000006		PUSH P,N
  7147	012772'	200540	020336'		MOVE CH,SPACE
  7148	012773'	136540	000015		IDPB CH,BP
  7149	012774'	367300	012773'		SOJG N,.-1
  7150	012775'	262740	000006		POP P,N
  7151	012776'	262740	000015		POP P,BP
  7152	012777'	661000	004000		TLO F,ASCIO
  7153	013000'	254000	015024'		JRST GETWD
  7154
  7155				;GET PO MAX
  7156	013001'	606000	000010	GETPMX:	TRNN F,TTYOUT
  7157	013002'	254000	013006'		JRST .+4
  7158	013003'	602000	000040		TRNE F,NEWF
  7159	013004'	051140	020327'		OUTSTR NEWMSG
  7160	013005'	051140	017764'		OUTSTR MPOMAX
  7161	013006'	260740	015071'		PUSHJ P,GETNUM
  7162	013007'	313300	023512'		CAMLE N,[^D9999999]
  7163	013010'	260740	000655'		PUSHJ P,BADVAL
  7164	013011'	202300	021533'		MOVEM N,CINFO+NPOMAX
  7165	013012'	263740	000000		POPJ P,0
  7166
  7167				;GET PO START DATE
  7168	013013'	606000	000010	GETPD1:	TRNN F,TTYOUT
  7169	013014'	254000	013020'		JRST .+4
  7170	013015'	602000	000040		TRNE F,NEWF
  7171	013016'	051140	020327'		OUTSTR NEWMSG
  7172	013017'	051140	017766'		OUTSTR MPOSTA
  7173	013020'	260740	013317'		PUSHJ P,DATIN
  7174	013021'	202300	021534'		MOVEM N,CINFO+NPOSTART
  7175	013022'	263740	000000		POPJ P,0
  7176
  7177				;GET PO STOP DATE
  7178	013023'	606000	000010	GETPD2:	TRNN F,TTYOUT
  7179	013024'	254000	013030'		JRST .+4
  7180	013025'	602000	000040		TRNE F,NEWF
  7181	013026'	051140	020327'		OUTSTR NEWMSG
  7182	013027'	051140	017772'		OUTSTR MPOSTO
  7183	013030'	260740	015071'		PUSHJ P,GETNUM
  7184					JUMPE N,[MOVE N,NSTOP
  7185	013031'	322300	023513'			JRST .+2]
  7186	013032'	260740	013320'		PUSHJ P,DATIN+1
  7187	013033'	202300	021535'		MOVEM N,CINFO+NPOSTOP
  7188	013034'	263740	000000		POPJ P,0
UPDLUD - ACCTG., LUD UPDATER	MACRO 12.5-46.0 17:15 19-SEP-89 PAGE 158
UPDLUD.MAC	24-MAY-89 18:55		INPUT ROUTINES

  7189				;GET INVOICE CODE
  7190	013035'	606000	000010	GSTINV:	TRNN F,TTYOUT
  7191	013036'	254000	013042'		JRST .+4
  7192	013037'	602000	000040		TRNE F,NEWF
  7193	013040'	051140	020327'		OUTSTR NEWMSG
  7194	013041'	051140	020004'		OUTSTR MINV
  7195	013042'	260740	015067'		PUSHJ P,GETTWO
  7196	013043'	301300	000001		CAIL N,MININV
  7197	013044'	303300	001747		CAILE N,MAXINV
  7198	013045'	260740	000655'		PUSHJ P,BADVAL
  7199	013046'	202300	021522'		MOVEM N,CINFO+NCINVC
  7200	013047'	263740	000000		POPJ P,0
  7201
  7202	013050'	606000	000010	GETPRI:	TRNN F,TTYOUT
  7203	013051'	254000	013055'		JRST .+4
  7204	013052'	602000	000040		TRNE F,NEWF
  7205	013053'	051140	020327'		OUTSTR NEWMSG
  7206	013054'	051140	020001'		OUTSTR MPRI
  7207	013055'	260740	015067'		PUSHJ P,GETTWO
  7208	013056'	301300	000001		CAIL N,MININV
  7209	013057'	303300	001747		CAILE N,MAXINV
  7210	013060'	260740	000655'		PUSHJ P,BADVAL
  7211	013061'	202300	021537'		MOVEM N,CINFO+NDPRI
  7212	013062'	263740	000000		POPJ P,0
  7213
  7214				;GET SALESMAN CODE
  7215	013063'	606000	000010	GETSLS:	TRNN F,TTYOUT
  7216	013064'	254000	013070'		JRST .+4
  7217	013065'	602000	000040		TRNE F,NEWF
  7218	013066'	051140	020327'		OUTSTR NEWMSG
  7219	013067'	051140	020007'		OUTSTR MSLS
  7220	013070'	260740	015066'		PUSHJ P,GETONE
  7221	013071'	301300	000000		CAIL N,MINSLS
  7222	013072'	303300	000143		CAILE N,MAXSLS
  7223	013073'	260740	000655'		PUSHJ P,BADVAL
  7224	013074'	202300	021523'		MOVEM N,CINFO+NCSLS
  7225	013075'	202300	021162'		MOVEM N,USINFO+NUSLSM
  7226	013076'	263740	000000		POPJ P,0
  7227
  7228
  7229	013077'	260740	012770'	GETZIP:	PUSHJ P,GETLIN
  7230	013100'	200640	022676'		MOVE BP,ZIPBP
  7231	013101'	201300	000005		MOVEI N,SZZIP
  7232	013102'	134540	000015		ILDB CH,BP
  7233	013103'	367300	013102'		SOJG N,.-1
  7234	013104'	263740	000000		POPJ P,0
UPDLUD - ACCTG., LUD UPDATER	MACRO 12.5-46.0 17:15 19-SEP-89 PAGE 159
UPDLUD.MAC	24-MAY-89 18:55		INPUT ROUTINES

  7235				;GET QUOTA INFO INTO STRBLK
  7236	013105'	200040	020323'	GETSTR:	MOVE A,DSKB
  7237	013106'	202040	022044'		MOVEM A,STR
  7238	013107'	606000	000010		TRNN F,TTYOUT
  7239	013110'	254000	013114'		JRST .+4
  7240	013111'	602000	000040		TRNE F,NEWF
  7241	013112'	051140	020327'		OUTSTR NEWMSG
  7242	013113'	051140	020057'		OUTSTR MQIN
  7243	013114'	260740	015071'		PUSHJ	P,GETNUM
  7244	013115'	202300	022045'		MOVEM N,QIN
  7245	013116'	606000	000010		TRNN F,TTYOUT
  7246	013117'	254000	013123'		JRST .+4
  7247	013120'	602000	000040		TRNE F,NEWF
  7248	013121'	051140	020327'		OUTSTR NEWMSG
  7249	013122'	051140	020062'		OUTSTR MQOUT
  7250	013123'	260740	015071'		PUSHJ	P,GETNUM
  7251	013124'	202300	022046'		MOVEM N,QOUT
  7252	013125'	263740	000000		POPJ	P,0
  7253
  7254				;GET PRICING CODE
  7255	013126'	606000	000010	GETPRC:	TRNN F,TTYOUT
  7256	013127'	254000	013133'		JRST .+4
  7257	013130'	602000	000040		TRNE F,NEWF
  7258	013131'	051140	020327'		OUTSTR NEWMSG
  7259	013132'	051140	020054'		OUTSTR MPCODE
  7260	013133'	661000	000010		TLO F,OCTINF
  7261	013134'	260740	015067'		PUSHJ P,GETTWO
  7262	013135'	301300	000001		CAIL N,MINPC
  7263	013136'	303300	001747		CAILE N,MAXPC
  7264	013137'	260740	000655'		PUSHJ P,BADVAL
  7265	013140'	202300	021163'		MOVEM N,USINFO+NPRICOD
  7266	013141'	200040	021514'		MOVE A,CINFO+NCUSNUM
  7267	013142'	306040	000001		CAIN A,1		;CUSTOMER NUMBER 1?
  7268	013143'	263740	000000		POPJ P,0		;YES, KEEP PRICING CODE
  7269	013144'	200040	021536'		MOVE A,CINFO+NVPF	;DOES CUST HAVE A NON-VARYING PRICING CODE?
  7270	013145'	302040	000001		CAIE A,1
  7271	013146'	263740	000000		POPJ P,0	;NO, RETURN
  7272	013147'	200300	021537'		MOVE N,CINFO+NDPRI	;YES, SET USER TO CUST P CODE
  7273	013150'	202300	021163'		MOVEM N,USINFO+NPRICOD
  7274	013151'	263740	000000		POPJ P,0
  7275
  7276
UPDLUD - ACCTG., LUD UPDATER	MACRO 12.5-46.0 17:15 19-SEP-89 PAGE 160
UPDLUD.MAC	24-MAY-89 18:55		INPUT ROUTINES

  7277				;GET USER CURRENCY CODE
  7278	013152'	606000	000010	GETCUR:	TRNN F,TTYOUT
  7279	013153'	254000	013157'		JRST .+4
  7280	013154'	602000	000040		TRNE F,NEWF
  7281	013155'	051140	020327'		OUTSTR NEWMSG
  7282	013156'	051140	020122'		OUTSTR MCURR
  7283	013157'	260740	015066'		PUSHJ P,GETONE
  7284	013160'	301300	000001		CAIL N,MINCUR
  7285	013161'	303300	001747		CAILE N,MAXCUR
  7286	013162'	260740	000655'		PUSHJ P,BADVAL
  7287	013163'	202300	021150'		MOVEM N,UINFO+NCURR
  7288	013164'	263740	000000		POPJ P,0
UPDLUD - ACCTG., LUD UPDATER	MACRO 12.5-46.0 17:15 19-SEP-89 PAGE 161
UPDLUD.MAC	24-MAY-89 18:55		INPUT ROUTINES

  7289	013165'	602000	000010	GETMIS:	TRNE F,TTYOUT
  7290	013166'	051140	020137'		OUTSTR MMISC
  7291	013167'	661000	000010		TLO F,OCTINF
  7292	013170'	661000	000010		TLO F,OCTINF
  7293	013171'	260740	015066'		PUSHJ P,GETONE
  7294	013172'	400340	000000		SETZ N1,
  7295	013173'	246300	777777		LSHC N,-1
  7296	013174'	242300	000024		LSH N,^D20
  7297	013175'	246300	000011		LSHC N,^D9
  7298	013176'	202300	022041'		MOVEM N,MISC
  7299	013177'	263740	000000		POPJ P,0
  7300
  7301	013200'	602000	000010	GETBUD:	TRNE F,TTYOUT
  7302	013201'	051140	020144'		OUTSTR MBUD
  7303	013202'	260740	015071'		PUSHJ P,GETNUM
  7304	013203'	221300	023420		IMULI N,^D10000
  7305	013204'	202300	022047'		MOVEM N,BUDGET
  7306	013205'	263740	000000		POPJ P,0
  7307
  7308				;INPUT MAIL UUN
  7309	013206'	602000	000010	GTMAIL:	TRNE F,TTYOUT
  7310	013207'	051140	023515'		OUTSTR [ASCIZ /MAIL UUN: /]
  7311	013210'	661000	000010		TLO F,OCTINF
  7312	013211'	260740	015071'		PUSHJ P,GETNUM
  7313					 ; TRZ N,400000
  7314	013212'	322300	000674'		JUMPE N,ZNERR
  7315	013213'	260740	013347'		PUSHJ P,OCTDEC
  7316	013214'	263740	000000		POPJ P,0
  7317
  7318
  7319	013215'	200640	023520'	GETINI:	MOVE BP,[POINT 6,INIUSR]
  7320	013216'	260740	012236'		PUSHJ P,SIXNAM+1
  7321	013217'	602000	000010		TRNE F,TTYOUT
  7322	013220'	051140	020146'		OUTSTR MINIT
  7323	013221'	200640	023521'		MOVE BP,[POINT 6,INIFIL]
  7324	013222'	201300	000006		MOVEI N,6
  7325	013223'	254000	015024'		JRST GETWD
UPDLUD - ACCTG., LUD UPDATER	MACRO 12.5-46.0 17:15 19-SEP-89 PAGE 162
UPDLUD.MAC	24-MAY-89 18:55		INPUT ROUTINES

  7326	013224'	260740	013256'	GTYINF:	PUSHJ P,GETREC
  7327	013225'	602000	000010		TRNE F,TTYOUT
  7328	013226'	322300	013232'		JUMPE N,.+4
  7329	013227'	260740	013305'		PUSHJ P,GETFLG
  7330	013230'	302300	000001		CAIE N,1
  7331	013231'	263740	000000		POPJ P,0
  7332	013232'	260740	012160'		PUSHJ P,UUNIN
  7333	013233'	202300	021546'		MOVEM N,AINFO+NUUN
  7334					JUMPE N,[SKIPN CINFO+NTCREC
  7335						PUSHJ P,BADCUS
  7336	013234'	322300	023522'			JRST .+1]
  7337	013235'	260740	015424'		PUSHJ P,UFIND
  7338	013236'	260740	000622'		PUSHJ P,NOTFND
  7339	013237'	200040	021147'		MOVE A,UINFO+NUCUSN
  7340	013240'	312040	021545'		CAME A,AINFO+NCUSNUM
  7341	013241'	260740	000647'		PUSHJ P,BADCUS
  7342	013242'	200040	023046'		MOVE A,TYMSYS
  7343	013243'	202040	021174'		MOVEM A,VINFO+NHOST
  7344	013244'	260740	005531'		PUSHJ P,F1HOST
  7345	013245'	336000	023021'		SKIPN NUMRET
  7346	013246'	260740	000622'		PUSHJ P,NOTFND
  7347	013247'	260740	013251'		PUSHJ P,GETDAY
  7348	013250'	263740	000000		POPJ P,0
  7349
  7350	013251'	602000	000010	GETDAY:	TRNE F,TTYOUT
  7351	013252'	051140	020173'		OUTSTR MNDAYS
  7352	013253'	260740	015067'		PUSHJ P,GETTWO
  7353	013254'	202300	021551'		MOVEM N,AINFO+NTUDAY
  7354	013255'	263740	000000		POPJ P,0
  7355
  7356	013256'	602000	000010	GETREC:	TRNE F,TTYOUT
  7357	013257'	051140	020202'		OUTSTR MRCUST
  7358	013260'	260740	015071'		PUSHJ P,GETNUM
  7359	013261'	202300	021515'		MOVEM N,CINFO+NTCREC
  7360	013262'	263740	000000		POPJ P,0
  7361
  7362	013263'	602000	000010	GETSTA:	TRNE F,TTYOUT
  7363	013264'	051140	020207'		OUTSTR MSTART
  7364	013265'	260740	013317'		PUSHJ P,DATIN
  7365	013266'	263740	000000		POPJ P,0
  7366
  7367	013267'	602000	000010	GETSTO:	TRNE F,TTYOUT
  7368	013270'	051140	023525'		OUTSTR [ASCIZ /STOP DATE: /]
  7369	013271'	260740	013317'		PUSHJ P,DATIN
  7370	013272'	263740	000000		POPJ P,0
  7371
  7372	013273'	602000	000010	GETRFL: TRNE F,TTYOUT
  7373	013274'	254000	013277'	        JRST GETRFT
  7374	013275'	260740	015066'	        PUSHJ P,GETONE
  7375	013276'	263740	000000	        POPJ P,0
  7376	013277'	051140	023530'	GETRFT: OUTSTR [ASCIZ /IS THIS A NEW MOVE?/]
  7377	013300'	260740	013577'	        PUSHJ P,GETBIT
  7378	013301'	340300	000000	        AOJ N,
UPDLUD - ACCTG., LUD UPDATER	MACRO 12.5-46.0 17:15 19-SEP-89 PAGE 162-2
UPDLUD.MAC	24-MAY-89 18:55		INPUT ROUTINES

  7379	013302'	263740	000000	        POPJ P,0
  7380	013303'	340300	000000	        AOJ N,
  7381	013304'	263740	000000	        POPJ P,0
  7382	013305'	602000	000010	GETFLG:	TRNE F,TTYOUT
  7383	013306'	254000	013311'		JRST GETFLT
  7384	013307'	260740	015066'		PUSHJ P,GETONE
  7385	013310'	263740	000000		POPJ P,0
  7386	013311'	051140	023534'	GETFLT:	OUTSTR [ASCIZ /TYMUSE CUST. TO RECIEVE OWN DATA? /]
  7387	013312'	260740	013577'		PUSHJ P,GETBIT
  7388	013313'	340300	000000		AOJ N,
  7389	013314'	263740	000000		POPJ P,0
  7390	013315'	340300	000000		AOJ N,
  7391	013316'	263740	000000		POPJ P,0
  7392				;INPUT DATE
  7393
  7394	013317'	260740	015071'	DATIN:	PUSHJ P,GETNUM
  7395	013320'	200040	000006		MOVE A,N
  7396	013321'	231040	023420		IDIVI A,^D10000
  7397	013322'	231100	000144		IDIVI B,^D100
  7398	013323'	271040	003554		ADDI A,^D1900
  7399	013324'	202040	023050'		MOVEM A,YEAR
  7400	013325'	303100	000014		CAILE B,^D12
  7401	013326'	260740	000655'		PUSHJ P,BADVAL
  7402	013327'	202100	023014'		MOVEM B,MO
  7403	013330'	303100	000037		CAILE B,^D31
  7404	013331'	260740	000655'		PUSHJ P,BADVAL
  7405	013332'	202140	022775'		MOVEM C,DAY
  7406	013333'	254000	014672'		JRST DTOCD
  7407
UPDLUD - ACCTG., LUD UPDATER	MACRO 12.5-46.0 17:15 19-SEP-89 PAGE 163
UPDLUD.MAC	24-MAY-89 18:55		MISC. ROUTINES

  7408				SUBTTL MISC. ROUTINES
  7409
  7410				;TRANSLATE A DECIMAL NUMBER TO ITS OCTAL EQUIVALENT
  7411	013334'	200640	023543'	DECOCT:	MOVE BP,[POINT 3,N1,17]
  7412	013335'	201040	000006		MOVEI A,6
  7413	013336'	200100	000006		MOVE B,N
  7414	013337'	200200	023544'		MOVE D,[^D100000]
  7415	013340'	230100	000004		IDIV B,D
  7416	013341'	136100	000015		IDPB B,BP
  7417	013342'	231200	000012		IDIVI D,^D10
  7418	013343'	200100	000003		MOVE B,C
  7419	013344'	367040	013340'		SOJG A,.-4
  7420	013345'	200300	000007		MOVE N,N1
  7421	013346'	263740	000000		POPJ P,0
  7422
  7423				;TRANSLATE AN OCTAL NUMBER TO ITS DECIMAL EQUIVALENT
  7424	013347'	200640	023545'	OCTDEC:	MOVE BP,[POINT 3,N,17]
  7425	013350'	201340	000006		MOVEI N1,6
  7426	013351'	200100	023544'		MOVE B,[^D100000]
  7427	013352'	400040	000000		SETZ A,
  7428	013353'	134540	000015		ILDB CH,BP
  7429	013354'	220540	000002		IMUL CH,B
  7430	013355'	270040	000013		ADD A,CH
  7431	013356'	231100	000012		IDIVI B,^D10
  7432	013357'	367340	013353'		SOJG N1,.-4
  7433	013360'	200300	000001		MOVE N,A
  7434	013361'	263740	000000		POPJ P,0
  7435
  7436	013362'	606000	000010	CHKINF:	TRNN F,TTYOUT
  7437	013363'	254000	013370'		JRST CHK1
  7438	013364'	051140	023546'		OUTSTR [ASCIZ /ALL ENTRIES CORRECT? /]
  7439	013365'	260740	013400'		PUSHJ P,YORN
  7440	013366'	334000	000000		SKIPA
  7441	013367'	254000	000137'		JRST LUDUP1
  7442	013370'	660000	000100	CHK1:	TRO F,ALLIOI
  7443	013371'	602000	000020		TRNE F,ERRF
  7444	013372'	254000	000746'		JRST ERROUT
  7445	013373'	263740	000000		POPJ P,0
  7446
  7447	013374'	402000	021202'	CLRSIT:	SETZM SITES
  7448	013375'	200040	023553'		MOVE A,[XWD SITES,SITES+1]
  7449	013376'	251040	021511'		BLT A,SITES+MXTHST-1
  7450	013377'	263740	000000		POPJ P,0
UPDLUD - ACCTG., LUD UPDATER	MACRO 12.5-46.0 17:15 19-SEP-89 PAGE 164
UPDLUD.MAC	24-MAY-89 18:55		MISC. ROUTINES

  7451				;YES OR NO ROUTINE - Y=RETURN, N=RETURN+1, NEITHER=CALL-1
  7452	013400'	201300	000001	YORN:	MOVEI N,1
  7453	013401'	200640	023554'		MOVE BP,[POINT 6,A,29]
  7454	013402'	400040	000000		SETZ A,
  7455	013403'	260740	015024'		PUSHJ P,GETWD
  7456	013404'	306040	000071		CAIN A,(SIXBIT /  Y/)
  7457	013405'	263740	000000		POPJ P,0
  7458	013406'	350017	000000		AOS ,(P)
  7459	013407'	306040	000056		CAIN A,(SIXBIT /  N/)
  7460	013410'	263740	000000		POPJ P,0
  7461	013411'	370017	000000		SOS ,(P)
  7462	013412'	370017	000000		SOS ,(P)
  7463	013413'	370017	000000		SOS ,(P)
  7464					OUTSTR [ASCIZ /TYPE "Y" OR "N" PLEASE.
  7465	013414'	051140	023555'	/]
  7466	013415'	263740	000000		POPJ P,0
  7467
  7468				;INPUT A Y OR N - ASCII VALUE RETURNED
  7469	013416'	606000	000010	GETYN:	TRNN F,TTYOUT
  7470	013417'	254000	013426'		JRST GET1
  7471	013420'	255000	000000		JFCL
  7472	013421'	260740	013400'		PUSHJ P,YORN
  7473	013422'	334000	000000		SKIPA
  7474	013423'	334300	020325'	NEG:	SKIPA N,NO
  7475	013424'	200300	020324'	AFFIR:	MOVE N,YES
  7476	013425'	263740	000000		POPJ P,0
  7477	013426'	260740	015066'	GET1:	PUSHJ P,GETONE
  7478	013427'	322300	013423'		JUMPE N,NEG
  7479	013430'	254000	013424'		JRST AFFIR
UPDLUD - ACCTG., LUD UPDATER	MACRO 12.5-46.0 17:15 19-SEP-89 PAGE 165
UPDLUD.MAC	24-MAY-89 18:55		MISC. ROUTINES

  7480	013431'	400500	000000	GETFRE:	SETZ INDEX,	;N/SIZE OF RECORD
  7481	013432'	332052	022100'		SKIPE A,LUDBLK(INDEX)
  7482	013433'	254000	013442'		JRST GETFR2
  7483	013434'	200140	000012		MOVE C,INDEX	;SAVE ROOM AT END OF BLK
  7484	013435'	270140	000006		ADD C,N
  7485	013436'	305140	000200		CAIGE C,200
  7486	013437'	263740	000000		POPJ P,0	;ROOM ENUF THERE
  7487	013440'	260740	013506'		PUSHJ P,NOFIT	;NOT ENUF ROOM, GET OVFLK BLK
  7488	013441'	254000	013431'		JRST GETFRE
  7489	013442'	321040	013462'	GETFR2:	JUMPL A,GETFR3	;PTS TO OVFL BLK - GO GET IT
  7490	013443'	135140	020346'		LDB C,NENTP	;REGUALR ENTRY GET SIZE
  7491	013444'	336012	022104'		SKIPN ,LUDBLK+4(INDEX)	;ZER ENTRY?
  7492	013445'	254000	013450'		JRST .+3	;YES..SEE IF BIG ENUF
  7493	013446'	270500	000003	GETFR4:	ADD INDEX,C	;NO, GET NEXT ENTRY
  7494	013447'	254000	013432'		JRST GETFRE+1	;AND GO LOOK AT IT
  7495	013450'	317300	000003		CAMG N,C	;ZER ENTRY , BIG ENUF?
  7496	013451'	254000	013473'		JRST ZEROIT	;YES, RETURN
  7497	013452'	200200	000003		MOVE D,C
  7498	013453'	270200	000012		ADD D,INDEX
  7499	013454'	200204	022100'		MOVE D,LUDBLK(D)
  7500	013455'	327200	013446'		JUMPG D,GETFR4
  7501	013456'	321200	013462'		JUMPL D,GETFR3
  7502	013457'	305300	000200		CAIGE N,200
  7503	013460'	263740	000000		POPJ P,0
  7504	013461'	254000	013440'		JRST GETFR2-2
  7505	013462'	200340	000012	GETFR3:	MOVE N1,INDEX
  7506	013463'	270340	000006		ADD N1,N
  7507	013464'	303340	000200		CAILE N1,200
  7508					JRST [ADD INDEX,C
  7509						PUSHJ P,ROVBLK	;READ OVERFL BLOCK
  7510	013465'	254000	023563'			JRST GETFRE]
  7511	013466'	270140	000012		ADD C,INDEX
  7512	013467'	200203	022100'		MOVE D,LUDBLK(C)
  7513	013470'	202207	022100'		MOVEM D,LUDBLK(N1)
  7514	013471'	402003	022100'		SETZM ,LUDBLK(C)
  7515	013472'	263740	000000		POPJ P,0
  7516
  7517	013473'	316300	000003	ZEROIT:	CAMN N,C
  7518	013474'	263740	000000		POPJ P,0
  7519	013475'	551040	022100'		HRRZI A,LUDBLK
  7520	013476'	270040	000012		ADD A,INDEX
  7521	013477'	270040	000003		ADD A,C
  7522	013500'	507040	000001		HRLS A,A
  7523	013501'	541040	022100'		HRRI A,LUDBLK
  7524	013502'	270040	000012		ADD A,INDEX
  7525	013503'	270040	000006		ADD A,N
  7526	013504'	251040	022274'		BLT A,LUDBLK+174
  7527	013505'	263740	000000		POPJ P,0
  7528
  7529	013506'	200040	023012'	NOFIT:	MOVE A,LASBLK
  7530	013507'	271040	000001		ADDI	A,1
  7531	013510'	202040	023012'		MOVEM A,LASBLK
  7532	013511'	661040	400000		TLO A,OVFLF
UPDLUD - ACCTG., LUD UPDATER	MACRO 12.5-46.0 17:15 19-SEP-89 PAGE 165-2
UPDLUD.MAC	24-MAY-89 18:55		MISC. ROUTINES

  7533				;24-May-89/JMS  Fix overflow block number - it starts at 0 not 1.
  7534	013512'	275040	000001		SUBI A,1	;[JMS] The overflow block number is 0 based.
  7535	013513'	202052	022100'		MOVEM A,LUDBLK(INDEX)
  7536	013514'	271040	000001		ADDI A,1	;[JMS] But USETI/USETO are 1 based.
  7537	013515'	336100	023026'		SKIPN B,OVBLK
  7538	013516'	200100	023002'		MOVE B,HLOC
  7539	013517'	075760	000002		USETO DSK,@B
  7540	013520'	067740	020412'		OUTPUT DSK,LUDLST
  7541	013521'	063740	740000		STATZ DSK,740000
  7542	013522'	260740	000670'		PUSHJ P,IOERR
  7543	013523'	552040	023026'		HRRZM A,OVBLK
  7544	013524'	403500	022100'		SETZB INDEX,LUDBLK
  7545	013525'	200040	023320'		MOVE A,[XWD LUDBLK,LUDBLK+1]
  7546	013526'	251040	022277'		BLT A,LUDBLK+177
  7547	013527'	263740	000000		POPJ	P,0
  7548
  7549				;SEND 940 A 377 FOR THE END OF THE LIST
  7550	013530'	201300	000377	SENDEN:	MOVEI N,377
  7551	013531'	606000	000010		TRNN F,TTYOUT
  7552	013532'	260740	015146'		PUSHJ P,ONEOUT
  7553	013533'	263740	000000		POPJ P,0
  7554	013534'			SNDEN2: ;SEND A 177777 FOR THE END OF THE LIST (TWO BYTES)
  7555	013534'	201300	177777	        MOVEI   N,177777
  7556	013535'	606000	000010	        TRNN    F,TTYOUT
  7557	013536'	260740	015147'	         PUSHJ  P,TWOOUT
  7558	013537'	263740	000000	        POPJ    P,
  7559
  7560				;SEND 940 CONFIRMATION THAT WE FOUND THE INFORMATION
  7561	013540'	602000	000020	SENDOK:	TRNE F,ERRF	;FOUND ANY ERRORS?
  7562	013541'	254000	000746'		JRST ERROUT	;YES, GO SEND IT
  7563	013542'	201300	000001		MOVEI N,1
  7564	013543'	606000	000010		TRNN F,TTYOUT
  7565	013544'	260740	015146'		PUSHJ P,ONEOUT
  7566	013545'	263740	000000		POPJ P,0
  7567
  7568				;CHECK TO SEE IF A CUSTOMER NO. IS VALID
  7569	013546'	260740	015354'	CHKCUS:	PUSHJ P,CINIT
  7570	013547'	266700	011163*		JSA 16,DBFIND
  7571	013550'	320000	022722'		ARG TCCNUM
  7572	013551'	320000	022707'		ARG EQUALS
  7573	013552'	320000	021514'		ARG CINFO+NCUSNUM
  7574	013553'	320000	022711'		ARG X22AND
  7575	013554'	320000	022735'		ARG TASYSCODE
  7576	013555'	320000	022707'		ARG EQUALS
  7577	013556'	320000	021515'		ARG CINFO+NCSYSC
  7578	013557'	320000	022711'		ARG X22AND
  7579	013560'	320000	022732'		ARG TCSTP
  7580	013561'	320000	022707'		ARG EQUALS
  7581	013562'	320000	022706'		ARG NSTOP
  7582	013563'	266700	011173*		JSA 16,DBNREC
  7583	013564'	320000	023021'		ARG NUMRET
  7584	013565'	200000	023033'		MOVE F,SAVF
  7585	013566'	402000	021536'		SETZM CINFO+NVPF
UPDLUD - ACCTG., LUD UPDATER	MACRO 12.5-46.0 17:15 19-SEP-89 PAGE 165-3
UPDLUD.MAC	24-MAY-89 18:55		MISC. ROUTINES

  7586	013567'	336000	023021'		SKIPN NUMRET
  7587	013570'	263740	000000		POPJ P,0
  7588	013571'	350017	000000		AOS (P)
  7589	013572'	266700	011275*		JSA 16,DBGET
  7590	013573'	320000	021514'		ARG CINFO
  7591	013574'	320000	015534'		ARG RET0
  7592	013575'	200000	023033'		MOVE F,SAVF
  7593	013576'	263740	000000		POPJ P,0
  7594
  7595
  7596				;MAKE Y/N ANSWER = 1,0
  7597	013577'	606000	000010	GETBIT:	TRNN F,TTYOUT
  7598	013600'	254000	015066'		JRST GETONE
  7599	013601'	255000	000000		JFCL
  7600	013602'	260740	013400'		PUSHJ P,YORN
  7601	013603'	336300	020332'		SKIPN N,ONE
  7602	013604'	400300	000000		SETZ N,
  7603	013605'	263740	000000		POPJ P,0
UPDLUD - ACCTG., LUD UPDATER	MACRO 12.5-46.0 17:15 19-SEP-89 PAGE 166
UPDLUD.MAC	24-MAY-89 18:55		MISC. ROUTINES

  7604				;CHECK FOR LOGIN PPN IN UPDLUD.ACS. RET = -1 IF THERE, 0 IF NOT
  7605				; 4/18/85 updated by Julian - skip checking if login user is cud10
  7606	013606'	400140	000000	UPDACS: SETZ    C,      ;SET FOR FALSE RETURN
  7607	013607'	561040	777755	        HRROI   A,-23   ;GET AUN
  7608	013610'	047040	000041	        GETTAB  A,
  7609	013611'	254000	013634'	         JRST   GOBAK
  7610	013612'	316040	020260'	        CAMN    A,CUD10    ; skip if not login through cud10
  7611	013613'	254000	013633'	         JRST   FNDACS
  7612				        OPEN    14,[17
  7613				                    SIXBIT /DSK/
  7614	013614'	050600	023566'	                    0]
  7615	013615'	254200	000000	         HALT
  7616				        LOOKUP  14,[SIXBIT /UPDLUD/
  7617				                    SIXBIT /ACS/
  7618				                    0
  7619	013616'	076600	023571'	                    1,,173236]
  7620				         JRST   [OUTSTR [ASCIZ/NO ACCESS TO UPDLUD. GOOD-BYE./]
  7621	013617'	254000	023604'	                 HALT]
  7622
  7623	013620'	056600	020656'	        IN      14,ACSADR  ;READ A BLOCK
  7624	013621'	334000	000000	         SKIPA
  7625				         JRST   [OUTSTR [ASCIZ/AM UNABLE TO CHECK ACCESS. CALL PROGRMR./]
  7626	013622'	254000	023617'	                 HALT]
  7627	013623'	071600	000000	        RELEAS  14,
  7628
  7629	013624'	515100	777600	        HRLZI   B,-BUFLN        ;SET UP AOBJN COUNTER
  7630	013625'	316042	020660'	LP:     CAMN    A,ACSBUF(B)
  7631	013626'	254000	013633'	         JRST   FNDACS  ;FOUND A MATCH
  7632	013627'	335002	020660'	        SKIPGE  ACSBUF(B) ;END OF THE LINE?
  7633	013630'	254000	013634'	         JRST   GOBAK
  7634	013631'	253100	013625'	        AOBJN   B,LP    ;DO IT AGAIN IF THERE IS ANY MORE
  7635	013632'	254000	013634'	        JRST    GOBAK
  7636
  7637	013633'	474140	000000	FNDACS: SETO    C,      ; TRUE RETURN
  7638	013634'	263740	000000	GOBAK:  POPJ    P,      ;GO BACK
  7639
  7640
UPDLUD - ACCTG., LUD UPDATER	MACRO 12.5-46.0 17:15 19-SEP-89 PAGE 167
UPDLUD.MAC	24-MAY-89 18:55		MISC. ROUTINES

  7641				;A ROUTINE TO SAVE A RECORD IN SAVLUD
  7642	013635'	551040	022100'	SAVIT:	HRRZI	A,LUDBLK
  7643	013636'	270040	000012		ADD	A,INDEX
  7644	013637'	507040	000001		HRLS	A,A
  7645	013640'	541040	022617'		HRRI	A,SAVLUD
  7646	013641'	201100	022617'		MOVEI	B,SAVLUD
  7647	013642'	270100	023016'		ADD	B,NENTRY
  7648	013643'	275100	000001		SUBI B,1
  7649	013644'	251060	000002		BLT	A,@B
  7650	013645'	263740	000000		POPJ	P,0
  7651
  7652				;A ROUTINE TO RETURN TO LUDBLK FROM SAVLUD
  7653	013646'	505040	022617'	RETIT:	HRLI	A,SAVLUD
  7654	013647'	541040	022100'		HRRI	A,LUDBLK
  7655	013650'	270040	000012		ADD	A,INDEX
  7656	013651'	550100	000001		HRRZ	B,A
  7657	013652'	270100	023016'		ADD	B,NENTRY
  7658	013653'	275100	000001		SUBI B,1
  7659	013654'	251060	000002		BLT	A,@B
  7660	013655'	263740	000000		POPJ	P,0
  7661
  7662	013656'	200040	021174'	SAVB:	MOVE A,VINFO+NHOST
  7663	013657'	202040	022017'		MOVEM A,SAVORG+SITE
  7664	013660'	200040	021142'	SAVB1:	MOVE A,UINFO+NUUN
  7665	013661'	202040	022016'		MOVEM A,SAVORG+PPN
  7666	013662'	263740	000000		POPJ P,0
UPDLUD - ACCTG., LUD UPDATER	MACRO 12.5-46.0 17:15 19-SEP-89 PAGE 168
UPDLUD.MAC	24-MAY-89 18:55		MAKE TABLE OF HOSTS AND THEIR TYPES

  7667				SUBTTL MAKE TABLE OF HOSTS AND THEIR TYPES
  7668
  7669
  7670	013663'	000000	000000		0	;ALLOW HOST =-1
  7671	013664'			HSTLST:	BLOCK MXTHST+MXTHSX
  7672
  7673				;INDEX TABLE BY HOST, CONTENTS OF TABLE IS SYSTEM TYPE
  7674	014505'	266700	011131*	BLDHST:	JSA 16,DBOPEN
  7675	014506'	320240	021102'		ARG 5,HOSTDB
  7676	014507'	266700	013547*		JSA 16,DBFIND
  7677	014510'	320000	022734'		ARG TVSTP
  7678	014511'	320000	022707'		ARG EQUALS
  7679	014512'	320000	022706'		ARG NSTOP	;NULL STOP DATES ONLY
  7680	014513'	266700	013563*		JSA 16,DBNREC
  7681	014514'	320000	023021'		ARG NUMRET
  7682	014515'	266700	011145*	        JSA 16,DBSORT
  7683	014516'	320000	022763'	        ARG TRHOST
  7684	014517'	200000	023033'		MOVE F,SAVF
  7685	014520'	336000	023021'		SKIPN NUMRET
  7686	014521'	260740	000626'		PUSHJ P,BADX22
  7687	014522'	202000	023033'		MOVEM F,SAVF
  7688	014523'	400140	000000	        SETZ C,
  7689	014524'	266700	013572*	NXTSYS:	JSA 16,DBGET
  7690	014525'	320000	021666'		ARG HINFO
  7691	014526'	320000	014537'		ARG GNXSYS+2
  7692	014527'	200040	021666'		MOVE A,HINFO+NHHOST	;GET HOST NUMBER
  7693	014530'	200100	021667'		MOVE B,HINFO+NASTYP	;GET TYPE
  7694	014531'	200000	023033'		MOVE F,SAVF
  7695	014532'	303040	000310		CAILE A,MXTHST
  7696	014533'	260740	014541'		PUSHJ P,BIGHST ; BIGHST WILL ALWAYS SKIP RETURN
  7697	014534'	202101	013664'		MOVEM B,HSTLST(A)	;AND SAVE IT
  7698	014535'	372000	023021'	GNXSYS:	SOSE NUMRET
  7699	014536'	254000	014524'		JRST NXTSYS
  7700	014537'	266700	011330*		JSA 16,DBCLOS
  7701	014540'	263740	000000		POPJ P,0
  7702
  7703	014541'			BIGHST:
  7704	014541'	303140	000307	        CAILE   C,MXTHST-1
  7705	014542'	260740	000655'	         PUSHJ  P,BADVAL
  7706	014543'	202043	014175'	        MOVEM   A,HSTLST+MXTHSX(C)
  7707	014544'	202103	014176'	        MOVEM   B,HSTLST+MXTHSX+1(C)
  7708	014545'	271140	000002	        ADDI    C,2
  7709	014546'	350017	000000	        AOS     (P)
  7710	014547'	263740	000000	        POPJ    P,
  7711
  7712
  7713	014550'	266700	014505*	BLDAST:	JSA 16,DBOPEN
  7714	014551'	320240	021104'		ARG 5,ASTDB
  7715	014552'	266700	014507*		JSA 16,DBFIND
  7716	014553'	320000	022734'		ARG TVSTP
  7717	014554'	320000	022707'		ARG EQUALS
  7718	014555'	320000	022706'		ARG NSTOP
  7719	014556'	266700	014513*		JSA 16,DBNREC
UPDLUD - ACCTG., LUD UPDATER	MACRO 12.5-46.0 17:15 19-SEP-89 PAGE 168-2
UPDLUD.MAC	24-MAY-89 18:55		MAKE TABLE OF HOSTS AND THEIR TYPES

  7720	014557'	320000	023021'		ARG NUMRET
  7721	014560'	200000	023033'		MOVE F,SAVF
  7722	014561'	336000	023021'		SKIPN NUMRET
  7723	014562'	260740	000626'		PUSHJ P,BADX22
  7724	014563'	400140	000000		SETZ C,
  7725	014564'	266700	014524*	NXTAST:	JSA 16,DBGET
  7726	014565'	320000	021674'		ARG ASTINF
  7727	014566'	320000	014567'		ARG .+1
  7728	014567'	200040	021674'		MOVE A,ASTINF
  7729	014570'	202043	000000'		MOVEM A,LUDUP(C)
  7730	014571'	340140	000000		AOJ C,
  7731	014572'	372000	023021'		SOSE NUMRET
  7732	014573'	254000	014564'		JRST NXTAST
  7733	014574'	474040	000000		SETO A,
  7734	014575'	202043	000000'		MOVEM A,LUDUP(C)
  7735	014576'	266700	014537*		JSA 16,DBCLOS
  7736	014577'	263740	000000		POPJ P,0
  7737
  7738	014600'	000000	000000	WATTYP: 0       ; THIS ROUTINE RETURNS AST FOR A HOST FROM HSTLST TABLE.
  7739				; CALL AS FOLLOWS;
  7740				;       PUSH    P,ADDR  ; ADDR CONTAINS THE ADDRESS OF WHERE AST WILL BE PUT
  7741				;                       ;  AND MUST NOT CONTAIN B OR C.
  7742				;       PUSH    P,HOSTNUM ; THE HOST NUMBER TO CHECK FOR.
  7743				;       JSR     WATTYP
  7744				;       ONLY RETURN
  7745
  7746	014601'	202100	023032'	        MOVEM   B,SAVEB#
  7747	014602'	262740	000002	        POP     P,B     ; NOW B CONTAINS HOST NUMBER.
  7748	014603'	307100	000310	        CAIG    B,MXTHST ; GREATER THEN MXTHST?
  7749	014604'	254000	014624'	         JRST   WTTYP1 ;NO, QUICK LOOKUP.
  7750	014605'	202100	023005'	        MOVEM   B,HOSTB#
  7751	014606'	202140	023030'	        MOVEM   C,SAVC#
  7752	014607'	400100	000000	        SETZ    B,
  7753	014610'	200142	014175'	WATTLP: MOVE    C,HSTLST+MXTHSX(B)
  7754	014611'	322140	014621'	        JUMPE   C,WTTYP3
  7755	014612'	316140	023005'	        CAMN    C,HOSTB
  7756	014613'	254000	014616'	         JRST   WATTLD
  7757	014614'	271100	000002	        ADDI    B,2
  7758	014615'	254000	014610'	        JRST    WATTLP
  7759	014616'	200102	014176'	WATTLD: MOVE    B,HSTLST+MXTHSX+1(B)
  7760	014617'	200140	023030'	        MOVE    C,SAVC
  7761	014620'	254000	014625'	        JRST    WTTYP2
  7762	014621'	400100	000000	WTTYP3: SETZ    B,
  7763	014622'	200140	023030'	        MOVE    C,SAVC
  7764	014623'	254000	014625'	        JRST    WTTYP2
  7765	014624'	200102	013664'	WTTYP1: MOVE    B,HSTLST(B)
  7766	014625'	202137	000000	WTTYP2: MOVEM   B,@0(P)
  7767	014626'	262740	000002	        POP     P,B
  7768	014627'	200100	023032'	        MOVE    B,SAVEB
  7769	014630'	254020	014600'	        JRST    @WATTYP
  7770
  7771	014631'			FNDSIT: ; FIND A PARTCULAR HOST IN TABLE SITES, SKIP RETURN IF FOUND.
  7772	014631'	202140	023030'	        MOVEM   C,SAVC
UPDLUD - ACCTG., LUD UPDATER	MACRO 12.5-46.0 17:15 19-SEP-89 PAGE 168-3
UPDLUD.MAC	24-MAY-89 18:55		MAKE TABLE OF HOSTS AND THEIR TYPES

  7773	014632'	400140	000000	        SETZ    C,
  7774	014633'	316303	021202'	FNDST0: CAMN    N,SITES(C)
  7775	014634'	254000	014643'	         JRST   FNDST1
  7776	014635'	340140	000000	        AOJ     C,
  7777	014636'	306140	000310	        CAIN    C,MXTHST
  7778	014637'	263740	000000	         POPJ   P,
  7779	014640'	336003	021202'	        SKIPN   SITES(C)
  7780	014641'	263740	000000	         POPJ   P,
  7781	014642'	254000	014633'	        JRST    FNDST0
  7782	014643'	350017	000000	FNDST1: AOS     (P)
  7783	014644'	263740	000000	        POPJ    P,
  7784
  7785
UPDLUD - ACCTG., LUD UPDATER	MACRO 12.5-46.0 17:15 19-SEP-89 PAGE 169
UPDLUD.MAC	24-MAY-89 18:55		DATE ROUTINES

  7786				SUBTTL DATE ROUTINES
  7787
  7788				;GET TODAY'S DATE
  7789	014645'	047040	000014	MAKDAT:	DATE A,
  7790	014646'	231040	000037		IDIVI A,^D31
  7791	014647'	340100	000000		AOJ B,
  7792	014650'	202100	023036'		MOVEM B,TDAY#
  7793	014651'	202100	022775'		MOVEM B,DAY
  7794	014652'	231040	000014		IDIVI A,^D12
  7795	014653'	340100	000000		AOJ B,
  7796	014654'	202100	023037'		MOVEM B,TMON#
  7797	014655'	202100	023014'		MOVEM B,MO
  7798	014656'	271040	003654		ADDI A,^D1964
  7799	014657'	202040	023045'		MOVEM A,TYEAR#
  7800	014660'	202040	023050'		MOVEM A,YEAR
  7801	014661'	263740	000000		POPJ P,0
  7802
  7803	014662'	202000	023033'	CDTOD:	MOVEM F,SAVF
  7804	014663'	266700	000000*		JSA 16,DBNDAT
  7805	014664'	320000	000006		ARG N
  7806	014665'	320000	023014'		ARG MO#
  7807	014666'	320000	022775'		ARG DAY#
  7808	014667'	320000	023050'		ARG YEAR#
  7809	014670'	200000	023033'		MOVE F,SAVF
  7810	014671'	263740	000000		POPJ P,0
  7811
  7812	014672'	202000	023033'	DTOCD:	MOVEM F,SAVF
  7813	014673'	266700	000000*		JSA 16,DBDATN
  7814	014674'	320000	023006'		ARG IDATE#
  7815	014675'	320000	023014'		ARG MO
  7816	014676'	320000	022775'		ARG DAY
  7817	014677'	320000	023050'		ARG YEAR
  7818	014700'	200300	023006'		MOVE N,IDATE
  7819	014701'	200000	023033'		MOVE F,SAVF
  7820	014702'	263740	000000		POPJ P,0
  7821
  7822	014703'	260740	014645'	GETTOD:	PUSHJ P,MAKDAT
  7823	014704'	260740	014672'		PUSHJ P,DTOCD
  7824	014705'	202300	021517'		MOVEM N,CINFO+NCDSTART
  7825	014706'	202300	021152'		MOVEM N,UINFO+NUSTART
  7826	014707'	202300	021175'		MOVEM N,VINFO+NVSTART
  7827	014710'	202300	021167'		MOVEM N,USINFO+NSYSTART
  7828	014711'	202300	023043'		MOVEM N,TODAY#
  7829	014712'	263740	000000		POPJ P,0
  7830
  7831	014713'	260740	014645'	GETTOM:	PUSHJ P,MAKDAT
  7832	014714'	260740	014672'		PUSHJ P,DTOCD
  7833	014715'	340300	000000		AOJ N,
  7834	014716'	350000	023006'		AOS IDATE
  7835	014717'	263740	000000		POPJ P,0
UPDLUD - ACCTG., LUD UPDATER	MACRO 12.5-46.0 17:15 19-SEP-89 PAGE 170
UPDLUD.MAC	24-MAY-89 18:55		TABLES

  7836				SUBTTL TABLES
  7837
  7838				DEFINE MAKSIX(A)
  7839				<IRP A
  7840				<	SIXBIT/A/>>
  7841
  7842	014720'			ZONES: MAKSIX< , , , , , , , ,PST,MST,CST,EST, , , , ,LONDON>^IRP
  7843	014720'	000000	000000		SIXBIT/ /
  7844	014721'	000000	000000		SIXBIT/ /
  7845	014722'	000000	000000		SIXBIT/ /
  7846	014723'	000000	000000		SIXBIT/ /
  7847	014724'	000000	000000		SIXBIT/ /
  7848	014725'	000000	000000		SIXBIT/ /
  7849	014726'	000000	000000		SIXBIT/ /
  7850	014727'	000000	000000		SIXBIT/ /
  7851	014730'	606364	000000		SIXBIT/PST/
  7852	014731'	556364	000000		SIXBIT/MST/
  7853	014732'	436364	000000		SIXBIT/CST/
  7854	014733'	456364	000000		SIXBIT/EST/
  7855	014734'	000000	000000		SIXBIT/ /
  7856	014735'	000000	000000		SIXBIT/ /
  7857	014736'	000000	000000		SIXBIT/ /
  7858	014737'	000000	000000		SIXBIT/ /
  7859	014740'	545756	445756		SIXBIT/LONDON/
  7860					MAKSIX<PARIS, , , , , , , ,TOKYO,BRISBA>^IRP
  7861	014741'	604162	516300		SIXBIT/PARIS/
  7862	014742'	000000	000000		SIXBIT/ /
  7863	014743'	000000	000000		SIXBIT/ /
  7864	014744'	000000	000000		SIXBIT/ /
  7865	014745'	000000	000000		SIXBIT/ /
  7866	014746'	000000	000000		SIXBIT/ /
  7867	014747'	000000	000000		SIXBIT/ /
  7868	014750'	000000	000000		SIXBIT/ /
  7869	014751'	645753	715700		SIXBIT/TOKYO/
  7870	014752'	426251	634241		SIXBIT/BRISBA/
  7871
  7872
  7873				DEFINE MAKASC(A)
  7874				<IRP A
  7875				<	[ASCIZ /A/]>>
  7876
  7877	014753'			MODES:	MAKASC<PDP,XEXEC,XEXECJ,SUDS>^IRP
  7878	014753'	000000	023621'		[ASCIZ /PDP/]
  7879	014754'	000000	023622'		[ASCIZ /XEXEC/]
  7880	014755'	000000	023624'		[ASCIZ /XEXECJ/]
  7881	014756'	000000	023626'		[ASCIZ /SUDS/]
UPDLUD - ACCTG., LUD UPDATER	MACRO 12.5-46.0 17:15 19-SEP-89 PAGE 171
UPDLUD.MAC	24-MAY-89 18:55		I/O ROUTINES

  7882				SUBTTL I/O ROUTINES
  7883
  7884	014757'	606000	000010	OUCH:	TRNN F,TTYOUT
  7885					JRST	[TTCALL 15,CH
  7886	014760'	254000	023627'			POPJ P,0]
  7887	014761'	602000	001000		TRNE F,LIST
  7888					JRST [ADDI CH,40
  7889						TTCALL 1,CH
  7890	014762'	254000	023631'			POPJ P,0]
  7891	014763'	306540	000376		CAIN CH,376
  7892	014764'	201540	000013		MOVEI CH,13
  7893	014765'	360540	000000		SOJ	CH,
  7894	014766'	051173	020212'		OUTSTR @MSG1(CH)
  7895	014767'	263740	000000		POPJ P,0
  7896
  7897	014770'	561540	000000	INCH:	HRROI CH,0
  7898	014771'	042540	023031'		AUXCAL CH,SAVCH#
  7899	014772'	254000	014771'		JRST .-1
  7900	014773'	200540	023031'		MOVE CH,SAVCH
  7901	014774'	263740	000000		POPJ P,0
  7902
  7903	014775'	051200	000013	TINCH:	TTCALL 4,CH
  7904	014776'	306540	000077		CAIN CH,"?"
  7905					JRST [TTCALL 11,0
  7906						OUTSTR HELPMS
  7907	014777'	254000	023634'			JRST LUDUP1]
  7908	015000'	322540	014775'		JUMPE CH,TINCH
  7909	015001'	263740	000000		POPJ P,0
  7910
  7911	015002'	201040	303240	DECDON:	MOVEI A,^D100000
  7912	015003'	254000	015005'		JRST .+2
  7913	015004'	231040	000012		IDIVI A,^D10
  7914	015005'	365340	015004'		SOJGE N1,.-1
  7915	015006'	400300	000000		SETZ N,
  7916	015007'	201340	000006		MOVEI N1,6
  7917	015010'	200547	022054'	NXTDIG:	MOVE CH,ACBLK(N1)
  7918	015011'	220540	000001		IMUL CH,A
  7919	015012'	270300	000013		ADD N,CH
  7920	015013'	363340	015141'		SOJLE N1,GETRES
  7921	015014'	231040	000012		IDIVI A,^D10
  7922	015015'	302040	000001		CAIE A,1
  7923	015016'	254000	015010'		JRST NXTDIG
  7924	015017'	270307	022054'		ADD N,ACBLK(N1)
  7925	015020'	254000	015141'		JRST GETRES
UPDLUD - ACCTG., LUD UPDATER	MACRO 12.5-46.0 17:15 19-SEP-89 PAGE 172
UPDLUD.MAC	24-MAY-89 18:55		I/O ROUTINES

  7926				BADCHR:	OUTSTR [ASCIZ /ILLEGAL CHARACTER TYPED.
  7927	015021'	051140	023637'	/]
  7928	015022'	051440	000000		TTCALL 11,0
  7929	015023'	254000	000137'		JRST LUDUP1
  7930
  7931	015024'	606000	000010	GETWD:	TRNN F,TTYOUT
  7932	015025'	254000	015052'		JRST GET940
  7933	015026'	260740	014775'	GETWD1:	PUSHJ P,TINCH
  7934	015027'	306540	000015		CAIN CH,15
  7935	015030'	254000	015040'		JRST FILLIN
  7936	015031'	306540	000033		CAIN CH,33
  7937	015032'	254000	015047'		JRST ALTMD
  7938	015033'	607000	004000		TLNN F,ASCIO
  7939	015034'	275540	000040		SUBI CH,40
  7940	015035'	136540	000015		IDPB CH,BP
  7941	015036'	367300	015026'		SOJG N,GETWD1
  7942	015037'	254000	015141'		JRST GETRES
  7943	015040'	400540	000000	FILLIN:	SETZ CH,
  7944	015041'	603000	004000		TLNE F,ASCIO
  7945	015042'	201540	000040		MOVEI CH,40
  7946	015043'	136540	000015		IDPB CH,BP
  7947	015044'	367300	015043'		SOJG N,.-1
  7948	015045'	602000	000010	        TRNE F,TTYOUT
  7949	015046'	254000	015141'		JRST GETRES
  7950	015047'	621000	004010	ALTMD:	TLZ F,OCTINF+ASCIO
  7951	015050'	661000	000002		TLO F,ENDTYD
  7952	015051'	263740	000000		POPJ P,0
  7953
  7954	015052'	260740	014770'	GET940:	PUSHJ P,INCH
  7955	015053'	405540	000377		ANDI CH,377
  7956	015054'	603000	000040		TLNE F,DIGINF
  7957	015055'	254000	015060'		JRST .+3
  7958	015056'	306540	000377		CAIN CH,377
  7959	015057'	254000	015040'		JRST FILLIN
  7960	015060'	603000	004000		TLNE F,ASCIO
  7961	015061'	271540	000040		ADDI CH,40
  7962	015062'	136540	000015		IDPB CH,BP
  7963	015063'	367300	015052'		SOJG N,GET940
  7964	015064'	621000	004040		TLZ F,ASCIO+DIGINF
  7965	015065'	263740	000000		POPJ P,0
UPDLUD - ACCTG., LUD UPDATER	MACRO 12.5-46.0 17:15 19-SEP-89 PAGE 173
UPDLUD.MAC	24-MAY-89 18:55		I/O ROUTINES

  7966	015066'	334600	020332'	GETONE:	SKIPA Z,ONE
  7967	015067'	200600	020333'	GETTWO:	MOVE Z,TWO
  7968	015070'	334000	000000		SKIPA
  7969	015071'	200600	020334'	GETNUM:	MOVE Z,THREE
  7970	015072'	606000	000010		TRNN F,TTYOUT
  7971	015073'	254000	015123'		JRST NUM940
  7972	015074'	403140	000006		SETZB C,N
  7973	015075'	201340	000014		MOVEI N1,^D12
  7974	015076'	607000	000010		TLNN F,OCTINF
  7975	015077'	201340	000006		MOVEI N1,6
  7976	015100'	200640	023645'		MOVE BP,[POINT 3,N]
  7977	015101'	260740	014775'	GETNXT:	PUSHJ P,TINCH
  7978	015102'	306540	000015		CAIN CH,15
  7979	015103'	254000	015116'		JRST NUMBAD
  7980	015104'	275540	000060		SUBI CH,60
  7981	015105'	335000	000013		SKIPGE ,CH
  7982	015106'	254000	015021'		JRST BADCHR
  7983	015107'	607000	000010		TLNN F,OCTINF
  7984					JRST [CAILE CH,11
  7985						JRST BADCHR
  7986						MOVEM CH,ACBLK(N1)
  7987						SOJG N1,GETNXT
  7988	015110'	254000	023646'			JRST DECDON]
  7989	015111'	303540	000007		CAILE CH,7
  7990	015112'	254000	015021'		JRST BADCHR
  7991	015113'	136540	000015		IDPB CH,BP
  7992	015114'	367340	015101'		SOJG N1,GETNXT
  7993	015115'	254000	015141'		JRST GETRES
  7994
  7995	015116'	607000	000010	NUMBAD:	TLNN F,OCTINF
  7996	015117'	254000	015002'		JRST DECDON
  7997	015120'	242300	777775		LSH N,-3
  7998	015121'	367340	015120'		SOJG N1,.-1
  7999	015122'	254000	015141'		JRST GETRES
  8000
  8001	015123'	661000	000040	NUM940:	TLO F,DIGINF
  8002	015124'	400340	000000		SETZ N1,
  8003	015125'	201300	000003		MOVEI N,3
  8004	015126'	200640	023653'		MOVE BP,[POINT 8,N1,11]
  8005	015127'	322600	015135'		JUMPE Z,.+6
  8006	015130'	200040	000006		MOVE A,N
  8007	015131'	274300	000014		SUB N,Z
  8008	015132'	322300	015135'		JUMPE N,.+3
  8009	015133'	133000	000015		IBP ,BP
  8010	015134'	367300	015133'		SOJG N,.-1
  8011	015135'	200300	000014		MOVE N,Z
  8012	015136'	260740	015052'		PUSHJ P,GET940
  8013	015137'	200300	000007		MOVE N,N1
  8014	015140'	263740	000000		POPJ P,0
  8015
  8016	015141'	621000	004010	GETRES:	TLZ F,OCTINF+ASCIO
  8017	015142'	260740	014775'		PUSHJ P,TINCH
  8018	015143'	306540	000012		CAIN CH,12
UPDLUD - ACCTG., LUD UPDATER	MACRO 12.5-46.0 17:15 19-SEP-89 PAGE 173-2
UPDLUD.MAC	24-MAY-89 18:55		I/O ROUTINES

  8019	015144'	263740	000000		POPJ P,0
  8020	015145'	254000	015142'		JRST GETRES+1
UPDLUD - ACCTG., LUD UPDATER	MACRO 12.5-46.0 17:15 19-SEP-89 PAGE 174
UPDLUD.MAC	24-MAY-89 18:55		I/O ROUTINES

  8021				;NUMOUT OUTPUTS A NUMBER IN "N" EITHER:
  8022				;TO TTY (CAN BE DECIMAL OR OCTAL) <777777
  8023				;	OR
  8024				;IN IMAGE MODE IN THE FORM OF Z 8-BIT BYTES
  8025
  8026	015146'	334600	020332'	ONEOUT:	SKIPA Z,ONE
  8027	015147'	200600	020333'	TWOOUT:	MOVE Z,TWO
  8028	015150'	334000	000000		SKIPA
  8029	015151'	200600	020334'	NUMOUT:	MOVE Z,THREE
  8030	015152'	602000	000010		TRNE F,TTYOUT
  8031	015153'	254000	015166'		JRST NUM01
  8032	015154'	200640	023654'		MOVE BP,[POINT 8,N,11]
  8033	015155'	201340	000003		MOVEI N1,3
  8034	015156'	274340	000014		SUB N1,Z
  8035	015157'	322340	015162'		JUMPE N1,NUM02
  8036	015160'	133000	000015		IBP BP
  8037	015161'	367340	015160'		SOJG N1,.-1
  8038	015162'	134540	000015	NUM02:	ILDB CH,BP
  8039	015163'	260740	014757'		PUSHJ P,OUCH
  8040	015164'	367600	015162'		SOJG Z,NUM02
  8041	015165'	263740	000000		POPJ P,0
  8042	015166'	623000	000010	NUM01:	TLZE F,OCTINF
  8043	015167'	254000	015214'		JRST OCTOUT
  8044	015170'	400040	000000		SETZ A,
  8045	015171'	201200	000012		MOVEI D,12
  8046	015172'	307300	000000		CAIG N,0
  8047	015173'	254000	015211'		JRST ZEROUT
  8048	015174'	313301	022656'	CHKD:	CAMLE N,TABD(A)
  8049	015175'	254000	015200'		JRST RDXPRT
  8050	015176'	271040	000001		ADDI A,1
  8051	015177'	254000	015174'		JRST CHKD
  8052	015200'	217000	000006	RDXPRT:	MOVMS N
  8053	015201'	231304	000000		IDIVI N,(D)
  8054	015202'	506357	000000		HRLM N1,0(P)
  8055	015203'	332000	000006		SKIPE N
  8056	015204'	260740	015200'		PUSHJ P,RDXPRT
  8057	015205'	554557	000000		HLRZ CH,0(P)
  8058	015206'	271540	000060		ADDI CH,"0"
  8059	015207'	051040	000013		TTCALL 1,CH
  8060	015210'	263740	000000		POPJ P,0
  8061	015211'	201540	000060	ZEROUT:	MOVEI CH,"0"
  8062	015212'	051040	000013		TTCALL 1,CH
  8063	015213'	263740	000000		POPJ P,0
UPDLUD - ACCTG., LUD UPDATER	MACRO 12.5-46.0 17:15 19-SEP-89 PAGE 175
UPDLUD.MAC	24-MAY-89 18:55		I/O ROUTINES

  8064	015214'	201340	000007	OCTOUT:	MOVEI N1,7
  8065	015215'	200640	023545'		MOVE BP,[POINT 3,N,17]
  8066	015216'	134540	000015		ILDB CH,BP
  8067	015217'	363340	015211'		SOJLE N1,ZEROUT
  8068	015220'	322540	015216'		JUMPE CH,.-2
  8069	015221'	271540	000020		ADDI CH,20
  8070	015222'	260740	014757'		PUSHJ P,OUCH
  8071	015223'	134540	000015		ILDB CH,BP
  8072	015224'	367340	015221'		SOJG N1,.-3
  8073	015225'	263740	000000		POPJ P,0
  8074
  8075	015226'	661000	004000	ASCOUT:	TLO F,ASCIO
  8076	015227'	622000	002000	WDSOUT:	TRZE F,SHORTS
  8077	015230'	260740	015252'		PUSHJ P,SHIT	;STANDS FOR SHORTEN IT!
  8078	015231'	322300	015237'		JUMPE N,WDS1
  8079	015232'	134540	000015		ILDB CH,BP
  8080	015233'	603000	004000		TLNE F,ASCIO
  8081	015234'	275540	000040		SUBI CH,40
  8082	015235'	260740	014757'		PUSHJ P,OUCH
  8083	015236'	367300	015232'		SOJG N,WDSOUT+3
  8084	015237'	622000	002000	WDS1:	TRZE F,SHORTS
  8085	015240'	260740	013530'		PUSHJ P,SENDEND
  8086	015241'	621000	004000		TLZ F,ASCIO
  8087	015242'	623000	001000	CRLF:	TLZE F,NOCR
  8088	015243'	263740	000000		POPJ P,0
  8089	015244'	602000	000010		TRNE F,TTYOUT
  8090					OUTSTR [ASCIZ /
  8091	015245'	051140	023475'	/]
  8092	015246'	263740	000000		POPJ P,0
  8093
  8094	015247'	602000	000010	SPAOUT:	TRNE F,TTYOUT
  8095	015250'	051140	023462'		OUTSTR [ASCIZ / /]
  8096	015251'	263740	000000		POPJ P,0
  8097
  8098				;SHORTEN STRING
  8099	015252'	200600	000006	SHIT:	MOVE Z,N
  8100	015253'	402000	023027'		SETZM SAVBP
  8101	015254'	261740	000015		PUSH P,BP	;SAVE ORIGINAL BP,N
  8102	015255'	261740	000006		PUSH P,N
  8103	015256'	134540	000015	SHIT1:	ILDB CH,BP	;GET NEXT CHARACTER
  8104	015257'	603000	004000		TLNE F,ASCIO
  8105	015260'	275540	000040		SUBI CH,40
  8106	015261'	322540	015264'		JUMPE CH,.+3	;A SPACE?
  8107	015262'	202640	023027'		MOVEM BP,SAVBP#	;NO, SAVE BP,N
  8108	015263'	200600	000006		MOVE Z,N
  8109	015264'	367300	015256'		SOJG N,SHIT1	;YES, KEEP GOING
  8110	015265'	262740	000007		POP P,N1
  8111	015266'	262740	000015		POP P,BP
  8112	015267'	316640	023027'		CAMN BP,SAVBP
  8113	015270'	263740	000000		POPJ P,0
  8114	015271'	606000	000010		TRNN F,TTYOUT
  8115	015272'	660000	002000		TRO F,SHORTS
  8116	015273'	316600	000007		CAMN Z,N1	;EMPTY STRING
UPDLUD - ACCTG., LUD UPDATER	MACRO 12.5-46.0 17:15 19-SEP-89 PAGE 175-2
UPDLUD.MAC	24-MAY-89 18:55		I/O ROUTINES

  8117	015274'	263740	000000		POPJ P,0
  8118	015275'	274340	000014		SUB N1,Z
  8119	015276'	340340	000000		AOJ N1,
  8120	015277'	200300	000007		MOVE N,N1
  8121	015300'	263740	000000		POPJ P,0
UPDLUD - ACCTG., LUD UPDATER	MACRO 12.5-46.0 17:15 19-SEP-89 PAGE 176
UPDLUD.MAC	24-MAY-89 18:55		HASH ROUTINE

  8122				SUBTTL HASH ROUTINE
  8123
  8124	015301'	202000	023033'	HASHER:	MOVEM F,SAVF#
  8125	015302'	201100	000000		MOVEI	B,0
  8126	015303'	200140	023655'		MOVE	C,[555555555555]
  8127	015304'	200200	023656'		MOVE	D,[361275431652]
  8128	015305'	200240	023657'		MOVE	E,[612754316523]
  8129	015306'	264000	015323'		JSR	RND
  8130	015307'	264000	015323'		JSR	RND
  8131	015310'	264000	015323'		JSR	RND
  8132	015311'	264000	015323'		JSR	RND
  8133	015312'	430240	000004		XOR	E,D
  8134	015313'	200300	000005		MOVE	N,E
  8135	015314'	621300	400000		TLZ	N,400000
  8136	015315'	231300	001567		IDIVI	N,^D887
  8137	015316'	200300	000005		MOVE	N,E
  8138	015317'	430300	000003		XOR	N,C
  8139	015320'	271340	000001		ADDI N1,1
  8140	015321'	200000	023033'		MOVE F,SAVF
  8141	015322'	263740	000000		POPJ	P,0
  8142
  8143	015323'	000000	000000	RND:	0
  8144	015324'	270200	000006		ADD	D,N
  8145	015325'	245300	777756		ROTC	N,-22
  8146	015326'	201040	000005		MOVEI	A,5
  8147	015327'	200402	000004	RND1:	MOVE	N2,C+1(B)
  8148	015330'	224400	023660'		MUL	N2,[5*5*5*5*5*5*5*5*5*5*5*5*5*5*5]
  8149	015331'	272442	000005		ADDM	N3,D+1(B)
  8150	015332'	342100	015340'		AOJE	B,RND2
  8151	015333'	211100	000001		MOVNI	B,1
  8152	015334'	602200	000001		TRNE	D,1
  8153	015335'	331000	000005		SKIPL	E
  8154	015336'	201100	000000		MOVEI	B,0
  8155	015337'	250140	000005		EXCH	C,E
  8156	015340'	367040	015327'	RND2:	SOJG	A,RND1
  8157	015341'	254020	015323'		JRST	@RND
UPDLUD - ACCTG., LUD UPDATER	MACRO 12.5-46.0 17:15 19-SEP-89 PAGE 178
UPDLUD.MAC	24-MAY-89 18:55		X22 ACCESS ROUTINES

  8158				SUBTTL X22 ACCESS ROUTINES
  8159
  8160				DEFINE INITIT (DATABASE)
  8161				<	MOVEM F,SAVF
  8162					JSA 16,DBOPEN
  8163					ARG 5,DATABASE
  8164					MOVE F,SAVF
  8165					POPJ P,0
  8166				>
  8167	015342'	202000	023033'	USINIT:	INITIT(USYSDB)^	MOVEM F,SAVF
  8168	015343'	266700	014550*		JSA 16,DBOPEN
  8169	015344'	320240	021076'		ARG 5,USYSDB
  8170	015345'	200000	023033'		MOVE F,SAVF
  8171	015346'	263740	000000		POPJ P,0
  8172
  8173	015347'	202000	023033'	UINIT:	INITIT(USERDB)^	MOVEM F,SAVF
  8174	015350'	266700	015343*		JSA 16,DBOPEN
  8175	015351'	320240	021074'		ARG 5,USERDB
  8176	015352'	200000	023033'		MOVE F,SAVF
  8177	015353'	263740	000000		POPJ P,0
  8178
  8179	015354'	202000	023033'	CINIT:	INITIT(CUSTDB)^	MOVEM F,SAVF
  8180	015355'	266700	015350*		JSA 16,DBOPEN
  8181	015356'	320240	021070'		ARG 5,CUSTDB
  8182	015357'	200000	023033'		MOVE F,SAVF
  8183	015360'	263740	000000		POPJ P,0
  8184
  8185	015361'	202000	023033'	AINIT:	INITIT(ADDRDB)^	MOVEM F,SAVF
  8186	015362'	266700	015355*		JSA 16,DBOPEN
  8187	015363'	320240	021072'		ARG 5,ADDRDB
  8188	015364'	200000	023033'		MOVE F,SAVF
  8189	015365'	263740	000000		POPJ P,0
  8190
  8191	015366'	202000	023033'	VINIT:	INITIT(VALDB)^	MOVEM F,SAVF
  8192	015367'	266700	015362*		JSA 16,DBOPEN
  8193	015370'	320240	021100'		ARG 5,VALDB
  8194	015371'	200000	023033'		MOVE F,SAVF
  8195	015372'	263740	000000		POPJ P,0
UPDLUD - ACCTG., LUD UPDATER	MACRO 12.5-46.0 17:15 19-SEP-89 PAGE 179
UPDLUD.MAC	24-MAY-89 18:55		X22 ACCESS ROUTINES

  8196	015373'	202000	023033'	MHINIT:	INITIT(MAILDB)^	MOVEM F,SAVF
  8197	015374'	266700	015367*		JSA 16,DBOPEN
  8198	015375'	320240	021106'		ARG 5,MAILDB
  8199	015376'	200000	023033'		MOVE F,SAVF
  8200	015377'	263740	000000		POPJ P,0
  8201
  8202	015400'	202000	023033'	TINIT:	INITIT(TRIPDB)^	MOVEM F,SAVF
  8203	015401'	266700	015374*		JSA 16,DBOPEN
  8204	015402'	320240	021110'		ARG 5,TRIPDB
  8205	015403'	200000	023033'		MOVE F,SAVF
  8206	015404'	263740	000000		POPJ P,0
  8207
  8208	015405'	202000	023033'	YINIT:	INITIT(TUSRDB)^	MOVEM F,SAVF
  8209	015406'	266700	015401*		JSA 16,DBOPEN
  8210	015407'	320240	021112'		ARG 5,TUSRDB
  8211	015410'	200000	023033'		MOVE F,SAVF
  8212	015411'	263740	000000		POPJ P,0
  8213
  8214	015412'	202000	023033'	TYUINI:	INITIT(TYMUSR)^	MOVEM F,SAVF
  8215	015413'	266700	015406*		JSA 16,DBOPEN
  8216	015414'	320240	021114'		ARG 5,TYMUSR
  8217	015415'	200000	023033'		MOVE F,SAVF
  8218	015416'	263740	000000		POPJ P,0
  8219
  8220	015417'	202000	023033'	TYCINI:	INITIT(TYMCUS)^	MOVEM F,SAVF
  8221	015420'	266700	015413*		JSA 16,DBOPEN
  8222	015421'	320240	021116'		ARG 5,TYMCUS
  8223	015422'	200000	023033'		MOVE F,SAVF
  8224	015423'	263740	000000		POPJ P,0
UPDLUD - ACCTG., LUD UPDATER	MACRO 12.5-46.0 17:15 19-SEP-89 PAGE 180
UPDLUD.MAC	24-MAY-89 18:55		X22 ACCESS ROUTINES

  8225				DEFINE FINDIT (V1,V2,ARRAY)
  8226				<	MOVEM F,SAVF
  8227					JSA 16,DBFIND
  8228					ARG 5,V1
  8229					ARG EQUALS
  8230					ARG V2
  8231					JSA 16,DBNREC
  8232					ARG NUMRET
  8233					MOVE F,SAVF
  8234					SKIPN NUMRET
  8235					POPJ P,0
  8236					JSA 16,DBGET
  8237					ARG ARRAY
  8238					ARG RET0
  8239					MOVE F,SAVF
  8240					JRST RET1
  8241				>
  8242
  8243				;FIND VALID USER RECORD
  8244	015424'	260740	015347'	UFIND:	PUSHJ P,UINIT
  8245	015425'	202000	023033'		MOVEM F,SAVF
  8246	015426'	266700	014552*		JSA 16,DBFIND
  8247	015427'	320000	022721'		ARG TUUUN
  8248	015430'	320000	022707'		ARG EQUALS
  8249	015431'	320000	022714'		ARG DBUUN
  8250	015432'	320000	022711'		ARG X22AND
  8251	015433'	320000	022731'		ARG TUSTP
  8252	015434'	320000	022707'		ARG EQUALS
  8253	015435'	320000	022706'		ARG NSTOP
  8254	015436'	266700	014556*		JSA 16,DBNREC
  8255	015437'	320000	023021'		ARG NUMRET
  8256	015440'	200000	023033'		MOVE F,SAVF
  8257	015441'	336300	023021'		SKIPN N,NUMRET
  8258	015442'	263740	000000		POPJ P,0
  8259	015443'	302300	000001		CAIE N,1	;ONE RECORD FOUND?
  8260	015444'	260740	000676'		PUSHJ P,DUPERR
  8261	015445'	266700	014564*		JSA 16,DBGET
  8262	015446'	320000	021141'		ARG UINFO
  8263	015447'	320000	015534'		ARG RET0
  8264	015450'	200000	023033'		MOVE F,SAVF
  8265	015451'	254000	015533'		JRST RET1
UPDLUD - ACCTG., LUD UPDATER	MACRO 12.5-46.0 17:15 19-SEP-89 PAGE 181
UPDLUD.MAC	24-MAY-89 18:55		X22 ACCESS ROUTINES

  8266				;FIND VALID USYSDB RECORD
  8267	015452'	260740	015342'	USFIND:	PUSHJ P,USINIT
  8268	015453'	266700	015426*		JSA 16,DBFIND
  8269	015454'	320000	022720'		ARG TUSUUN
  8270	015455'	320000	022707'		ARG EQUALS
  8271	015456'	320000	021160'		ARG USINFO+NUSUUN
  8272	015457'	320000	022711'		ARG X22AND
  8273	015460'	320000	022735'		ARG TASYSCODE
  8274	015461'	320000	022707'		ARG EQUALS
  8275	015462'	320000	021161'		ARG USINFO+NUSYSC
  8276	015463'	320000	022711'		ARG X22AND
  8277	015464'	320000	022730'		ARG TUSSTP
  8278	015465'	320000	022707'		ARG EQUALS
  8279	015466'	320000	022706'		ARG NSTOP
  8280	015467'	266700	015436*		JSA 16,DBNREC
  8281	015470'	320000	023021'		ARG NUMRET
  8282	015471'	200000	023033'		MOVE F,SAVF
  8283	015472'	336300	023021'		SKIPN N,NUMRET
  8284	015473'	263740	000000		POPJ P,0
  8285	015474'	302300	000001		CAIE N,1
  8286	015475'	260740	000676'		PUSHJ P,DUPERR
  8287	015476'	266700	015445*		JSA 16,DBGET
  8288	015477'	320000	021160'		ARG USINFO
  8289	015500'	320000	015534'		ARG RET0
  8290	015501'	200000	023033'		MOVE F,SAVF
  8291	015502'	254000	015533'		JRST RET1
UPDLUD - ACCTG., LUD UPDATER	MACRO 12.5-46.0 17:15 19-SEP-89 PAGE 182
UPDLUD.MAC	24-MAY-89 18:55		X22 ACCESS ROUTINES

  8292				;FIND VALID CUSTOMER RECORD
  8293	015503'	260740	015354'	CFIND:	PUSHJ P,CINIT
  8294	015504'	266700	015453*		JSA 16,DBFIND
  8295	015505'	320000	022722'		ARG TCCNUM
  8296	015506'	320000	022707'		ARG EQUALS
  8297	015507'	320000	021514'		ARG CINFO+NCUSNUM
  8298	015510'	320000	022711'		ARG X22AND
  8299	015511'	320000	022735'		ARG TASYSCODE
  8300	015512'	320000	022707'		ARG EQUALS
  8301	015513'	320000	021515'		ARG CINFO+NCSYSC
  8302	015514'	320000	022711'		ARG X22AND
  8303	015515'	320000	022732'		ARG TCSTP
  8304	015516'	320000	022707'		ARG EQUALS
  8305	015517'	320000	022706'		ARG NSTOP
  8306	015520'	266700	015467*		JSA 16,DBNREC
  8307	015521'	320000	023021'		ARG NUMRET
  8308	015522'	200000	023033'		MOVE F,SAVF
  8309	015523'	336300	023021'		SKIPN N,NUMRET
  8310	015524'	263740	000000		POPJ P,0
  8311	015525'	302300	000001		CAIE N,1
  8312	015526'	260740	000676'		PUSHJ P,DUPERR	;MORE THAN 1 RECORD FOUND
  8313	015527'	266700	015476*		JSA 16,DBGET
  8314	015530'	320000	021514'		ARG CINFO
  8315	015531'	320000	015534'		ARG RET0
  8316	015532'	200000	023033'		MOVE F,SAVF
  8317	015533'	350017	000000	RET1:	AOS (P)
  8318	015534'	263740	000000	RET0:	POPJ P,0
  8319
  8320	015535'	260740	015354'	CFINDA:	PUSHJ P,CINIT
  8321	015536'	266700	015504*		JSA 16,DBFIND
  8322	015537'	320000	022722'		ARG TCCNUM
  8323	015540'	320000	022707'		ARG EQUALS
  8324	015541'	320000	021514'		ARG CINFO+NCUSNUM
  8325	015542'	320000	022711'		ARG X22AND
  8326	015543'	320000	022732'		ARG TCSTP
  8327	015544'	320000	022707'		ARG EQUALS
  8328	015545'	320000	022706'		ARG NSTOP
  8329	015546'	266700	015520*		JSA 16,DBNREC
  8330	015547'	320000	023021'		ARG NUMRET
  8331	015550'	200000	023033'		MOVE F,SAVF
  8332	015551'	337300	023021'		SKIPG N,NUMRET
  8333	015552'	263740	000000		POPJ P,
  8334	015553'	350017	000000		AOS (P)
  8335	015554'	307300	000001	        CAIG N,1
  8336	015555'	263740	000000	        POPJ P,
  8337	015556'	202000	023033'	        MOVEM F,SAVF
  8338	015557'	266700	014515*	        JSA  16,DBSORT
  8339	015560'	320000	022735'	        ARG  TASYSC
  8340	015561'	200000	023033'	        MOVE F,SAVF
  8341	015562'	263740	000000	        POPJ P,
  8342	015563'	263740	000000		POPJ P,0
UPDLUD - ACCTG., LUD UPDATER	MACRO 12.5-46.0 17:15 19-SEP-89 PAGE 183
UPDLUD.MAC	24-MAY-89 18:55		X22 ACCESS ROUTINES

  8343				;FIND ADDRESS FOR A SYSTEM TYPE
  8344	015564'	260740	015361'	AFIND:	PUSHJ P,AINIT
  8345	015565'	266700	015536*		JSA 16,DBFIND
  8346	015566'	320000	022722'		ARG TCCNUM
  8347	015567'	320000	022707'		ARG EQUALS
  8348	015570'	320000	021545'		ARG AINFO+NACUSNUM
  8349	015571'	320000	022711'		ARG X22AND
  8350	015572'	320000	022735'		ARG TASYSCODE
  8351	015573'	320000	022707'		ARG EQUALS
  8352	015574'	320000	021546'		ARG AINFO+NASYSC
  8353	015575'	266700	015546*		JSA 16,DBNREC
  8354	015576'	320000	023021'		ARG NUMRET
  8355	015577'	200000	023033'		MOVE F,SAVF
  8356	015600'	336300	023021'		SKIPN N,NUMRET
  8357	015601'	263740	000000		POPJ P,0
  8358	015602'	302300	000001		CAIE N,1	;ONE RECORD FOUND?
  8359	015603'	260740	000676'		PUSHJ P,DUPERR	;NO
  8360	015604'	266700	015527*		JSA 16,DBGET
  8361	015605'	320000	021545'		ARG AINFO
  8362	015606'	320000	015534'		ARG RET0
  8363	015607'	200000	023033'		MOVE F,SAVF
  8364	015610'	254000	015533'		JRST RET1
UPDLUD - ACCTG., LUD UPDATER	MACRO 12.5-46.0 17:15 19-SEP-89 PAGE 184
UPDLUD.MAC	24-MAY-89 18:55		X22 ACCESS ROUTINES

  8365				; MUST HAVE DBUUN SET UP
  8366	015611'	260740	015366'	VFINDA:	PUSHJ P,VINIT
  8367	015612'	266700	015565*		JSA 16,DBFIND
  8368	015613'	320000	022720'		ARG TUSUUN
  8369	015614'	320000	022707'		ARG EQUALS
  8370	015615'	320000	022714'		ARG DBUUN
  8371	015616'	320000	022711'		ARG X22AND
  8372	015617'	320000	022734'		ARG TVSTP
  8373	015620'	320000	022707'		ARG EQUALS
  8374	015621'	320000	022706'		ARG NSTOP
  8375	015622'	266700	015575*		JSA 16,DBNREC
  8376	015623'	320000	023021'		ARG NUMRET
  8377	015624'	200000	023033'		MOVE F,SAVF
  8378	015625'	332300	023021'		SKIPE N,NUMRET
  8379	015626'	350017	000000		AOS (P)
  8380	015627'	263740	000000		POPJ P,0
  8381
  8382	015630'	260740	015611'	VFIND:	PUSHJ P,VFINDA
  8383	015631'	263740	000000		POPJ P,0
  8384	015632'	202300	023020'		MOVEM N,NSITES
  8385	015633'	360300	000000	FILSIT:	SOJ N,
  8386	015634'	403140	023013'	        SETZB   C,LASHOS#
  8387	015635'	260740	013374'		PUSHJ P,CLRSIT
  8388	015636'	266700	015557*	        JSA 16,DBSORT
  8389	015637'	320000	022746'	        ARG TVHOST
  8390	015640'	266700	015604*	NXTHST:	JSA 16,DBGET
  8391	015641'	320000	021173'		ARG VINFO
  8392	015642'	320000	015534'		ARG RET0
  8393	015643'	200040	021174'		MOVE A,VINFO+NHOST
  8394	015644'	316040	023013'	        CAMN A,LASHOS
  8395	015645'	254000	015651'	         JRST   NXTHS1
  8396	015646'	202040	023013'	        MOVEM A,LASHOS
  8397	015647'	202043	021202'		MOVEM A,SITES(C)
  8398	015650'	340140	000000	        AOJ     C,
  8399	015651'			NXTHS1:
  8400	015651'	303140	000310	        CAILE   C,MXTHST
  8401	015652'	260740	000655'	         PUSHJ  P,BADVAL
  8402	015653'	365300	015640'		SOJGE N,NXTHST
  8403	015654'	200000	023033'		MOVE F,SAVF
  8404	015655'	254000	015533'		JRST RET1
UPDLUD - ACCTG., LUD UPDATER	MACRO 12.5-46.0 17:15 19-SEP-89 PAGE 185
UPDLUD.MAC	24-MAY-89 18:55		X22 ACCESS ROUTINES

  8405	015656'	260740	015373'	FINDMH:	PUSHJ P,MHINIT
  8406	015657'	266700	015612*		JSA 16,DBFIND
  8407	015660'	320000	022720'		ARG TUSUUN
  8408	015661'	320000	022707'		ARG EQUALS
  8409	015662'	320000	021141'		ARG UINFO+NMHUUN
  8410	015663'	320000	022711'		ARG X22AND
  8411	015664'	320000	022746'		ARG TVHOST
  8412	015665'	320000	022707'		ARG EQUALS
  8413	015666'	320000	021142'		ARG UINFO+NMHOST
  8414	015667'	320000	022711'		ARG X22AND
  8415	015670'	320000	022734'		ARG TVSTP
  8416	015671'	320000	022707'		ARG EQUALS
  8417	015672'	320000	022706'		ARG NSTOP
  8418	015673'	266700	015622*		JSA 16,DBNREC
  8419	015674'	320000	023021'		ARG NUMRET
  8420	015675'	200000	023033'	        MOVE F,SAVF
  8421	015676'	332000	023021'		SKIPE NUMRET
  8422	015677'	350017	000000		AOS (P)
  8423	015700'	263740	000000		POPJ P,0
UPDLUD - ACCTG., LUD UPDATER	MACRO 12.5-46.0 17:15 19-SEP-89 PAGE 186
UPDLUD.MAC	24-MAY-89 18:55		X22 ACCESS ROUTINES

  8424	015701'	260740	015373'	MHFIND:	PUSHJ P,MHINIT
  8425	015702'	266700	015657*		JSA 16,DBFIND
  8426	015703'	320000	022720'		ARG TUSUUN
  8427	015704'	320000	022707'		ARG EQUALS
  8428	015705'	320000	021141'		ARG UINFO+NMHUUN
  8429	015706'	320000	022711'		ARG X22AND
  8430	015707'	320000	022746'		ARG TVHOST
  8431	015710'	320000	022707'		ARG EQUALS
  8432	015711'	320000	021142'		ARG UINFO+NMHOST
  8433	015712'	320000	022711'		ARG X22AND
  8434	015713'	320000	022734'		ARG TVSTP
  8435	015714'	320000	022707'		ARG EQUALS
  8436	015715'	320000	022706'		ARG NSTOP
  8437	015716'	266700	015673*		JSA 16,DBNREC
  8438	015717'	320000	023021'		ARG NUMRET
  8439	015720'	200000	023033'	        MOVE F,SAVF
  8440	015721'	336300	023021'		SKIPN N,NUMRET
  8441	015722'	254000	015725'		JRST .+3
  8442	015723'	350017	000000		AOS (P)
  8443	015724'	263740	000000		POPJ P,0
  8444	015725'	266700	015702*		JSA 16,DBFIND
  8445	015726'	320000	022720'		ARG TUSUUN
  8446	015727'	320000	022707'		ARG EQUALS
  8447	015730'	320000	021141'		ARG UINFO+NMHUUN
  8448	015731'	320000	022711'		ARG X22AND
  8449	015732'	320000	022746'		ARG TVHOST
  8450	015733'	320000	022707'		ARG EQUALS
  8451	015734'	320000	020330'		ARG MONE
  8452	015735'	320000	022711'		ARG X22AND
  8453	015736'	320000	022734'		ARG TVSTP
  8454	015737'	320000	022707'		ARG EQUALS
  8455	015740'	320000	022706'		ARG NSTOP
  8456	015741'	266700	015716*		JSA 16,DBNREC
  8457	015742'	320000	023021'		ARG NUMRET
  8458	015743'	200000	023033'		MOVE F,SAVF
  8459	015744'	332300	023021'		SKIPE N,NUMRET
  8460	015745'	350017	000000		AOS (P)
  8461	015746'	263740	000000		POPJ P,0
UPDLUD - ACCTG., LUD UPDATER	MACRO 12.5-46.0 17:15 19-SEP-89 PAGE 187
UPDLUD.MAC	24-MAY-89 18:55		X22 ACCESS ROUTINES

  8462	015747'	260740	015400'	TRFIND:	PUSHJ P,TINIT
  8463	015750'	266700	015725*		JSA 16,DBFIND
  8464	015751'	320000	022763'		ARG TRHOST
  8465	015752'	320000	022707'		ARG EQUALS
  8466	015753'	320000	021141'		ARG UINFO+NTRHST
  8467	015754'	320000	022711'		ARG X22AND
  8468	015755'	320000	022764'		ARG TRSTP
  8469	015756'	320000	022707'		ARG EQUALS
  8470	015757'	320000	022706'		ARG NSTOP
  8471	015760'	266700	015741*		JSA 16,DBNREC
  8472	015761'	320000	023021'		ARG NUMRET
  8473	015762'	200000	023033'		MOVE F,SAVF
  8474	015763'	332300	023021'		SKIPE N,NUMRET
  8475	015764'	350017	000000		AOS (P)
  8476	015765'	263740	000000		POPJ P,0
  8477
  8478	015766'	260740	015405'	YFIND:	PUSHJ P,YINIT
  8479	015767'	266700	015750*		JSA 16,DBFIND
  8480	015770'	320000	022721'		ARG TUUUN
  8481	015771'	320000	022707'		ARG EQUALS
  8482	015772'	320000	021161'		ARG USINFO+NUUN
  8483	015773'	320000	022711'		ARG X22AND
  8484	015774'	320000	022733'		ARG TUCSTP
  8485	015775'	320000	022707'		ARG EQUALS
  8486	015776'	320000	022706'		ARG NSTOP
  8487	015777'	266700	015760*		JSA 16,DBNREC
  8488	016000'	320000	023021'		ARG NUMRET
  8489	016001'	200000	023033'		MOVE F,SAVF
  8490	016002'	336300	023021'		SKIPN N,NUMRET
  8491	016003'	263740	000000		POPJ P,0
  8492	016004'	302300	000001		CAIE N,1
  8493	016005'	260740	000676'		PUSHJ P,DUPERR
  8494	016006'	266700	015640*		JSA 16,DBGET
  8495	016007'	320000	021160'		ARG USINFO
  8496	016010'	320000	015534'		ARG RET0
  8497	016011'	200000	023033'		MOVE F,SAVF
  8498	016012'	254000	015533'		JRST RET1
  8499
  8500
UPDLUD - ACCTG., LUD UPDATER	MACRO 12.5-46.0 17:15 19-SEP-89 PAGE 188
UPDLUD.MAC	24-MAY-89 18:55		X22 ACCESS ROUTINES

  8501	016013'	202040	023044'	TUFIND:	MOVEM A,TUCUST#
  8502	016014'	260740	015412'		PUSHJ P,TYUINI
  8503	016015'	266700	015767*		JSA 16,DBFIND
  8504	016016'	320000	022722'		ARG TCCNUM
  8505	016017'	320000	022707'		ARG EQUALS
  8506	016020'	320000	023044'		ARG TUCUST
  8507	016021'	320000	022711'		ARG X22AND
  8508	016022'	320000	022734'		ARG TVSTP
  8509	016023'	320000	022707'		ARG EQUALS
  8510	016024'	320000	022706'		ARG NSTOP
  8511	016025'	266700	015777*		JSA 16,DBNREC
  8512	016026'	320000	023021'		ARG NUMRET
  8513	016027'	200000	023033'		MOVE F,SAVF
  8514	016030'	336000	023021'		SKIPN NUMRET
  8515	016031'	254000	015534'		JRST RET0
  8516	016032'	254000	015533'		JRST RET1
  8517
  8518
  8519	016033'	260740	015417'	TCFIND:	PUSHJ P,TYCINI
  8520	016034'	266700	016015*		JSA 16,DBFIND
  8521	016035'	320000	022722'		ARG TCCNUM
  8522	016036'	320000	022707'		ARG EQUALS
  8523	016037'	320000	021514'		ARG CINFO+NCUSNUM
  8524	016040'	320000	022711'		ARG X22AND
  8525	016041'	320000	022734'		ARG TVSTP
  8526	016042'	320000	022707'		ARG EQUALS
  8527	016043'	320000	022706'		ARG NSTOP
  8528	016044'	266700	016025*		JSA 16,DBNREC
  8529	016045'	320000	023021'		ARG NUMRET
  8530	016046'	200000	023033'		MOVE F,SAVF
  8531	016047'	336000	023021'		SKIPN NUMRET
  8532	016050'	254000	015534'		JRST RET0
  8533	016051'	254000	015533'		JRST RET1
UPDLUD - ACCTG., LUD UPDATER	MACRO 12.5-46.0 17:15 19-SEP-89 PAGE 189
UPDLUD.MAC	24-MAY-89 18:55		HELP MESSAGES

  8534				SUBTTL HELP MESSAGES
  8535
  8536	016052'	546372	520220	HELPMS:	ASCIZ /YOU HAVE THE FOLLOWING OPTIONS:
	016053'	406550	520250
	016054'	442124	043236
	016055'	462311	753622
	016056'	472164	047640
	016057'	522231	747246
  8537	016060'	350321	230422	1	DELETE A USER FROM LUD,DUL
	016061'	422131	442650
	016062'	425010	120252
	016063'	516132	220214
	016064'	512371	520230
	016065'	526105	442252
  8538	016066'	460321	231022	2	ADD A USER TO LUD,DUL
	016067'	406110	420202
	016070'	202532	342644
	016071'	202511	720230
	016072'	526105	442252
  8539	016073'	460321	231422	3	CHANGE A USER NAME IN LUD,DUL
	016074'	416210	147216
	016075'	425010	120252
	016076'	516132	220234
	016077'	406330	520222
	016100'	471011	452610
	016101'	262112	546032
  8540	016102'	051501	141620	4	CHANGE PRIVILEGE BITS IN LUD,DUL
	016103'	406350	742500
	016104'	502451	153222
	016105'	462130	742500
	016106'	412232	451500
	016107'	446344	046252
	016110'	421310	452630
  8541	016111'	064246	504606	5	CHANGE QUOTA
	016112'	442031	643612
	016113'	202432	547650
  8542	016114'	404321	233022	6	LIST USER MAILING ADDRESS (370 SLAVE ONLY)
	016115'	462232	352100
	016116'	526470	551100
	016117'	466031	146222
	016120'	472164	040610
	016121'	422450	551646
	016122'	201206	333540
	016123'	202471	440654
	016124'	425011	747230
  8543	016125'	545221	505156	7	LIST ALL USERS IN THE LUD
	016126'	046311	151650
	016127'	202031	446100
	016130'	526470	551246
	016131'	202231	620250
	016132'	442124	046252
  8544	016133'	420321	230540	10	CHANGE DISTRICT IN LUD
	016134'	046071	040634
UPDLUD - ACCTG., LUD UPDATER	MACRO 12.5-46.0 17:15 19-SEP-89 PAGE 189-2
UPDLUD.MAC	24-MAY-89 18:55		HELP MESSAGES

	016135'	436124	042222
	016136'	516512	244606
	016137'	521011	147100
  8545	016140'	462530	406424	11	CHANGE TIME ZONE IN LUD
	016141'	305421	141620
	016142'	406350	742500
	016143'	522231	542500
	016144'	552371	642500
	016145'	446344	046252
  8546	016146'	420321	230544	12	CHANGE A GAN IN LUD,DUL
	016147'	046071	040634
	016150'	436124	040500
	016151'	436031	620222
	016152'	471011	452610
	016153'	262112	546032
  8547	016154'	051446	004630	20	LIST LUD ENTRY
	016155'	446472	420230
	016156'	526104	042634
  8548	016157'	522453	106424	21	LIST ALL USERS FOR A GAN (LUD ENTRY)
	016160'	311421	146222
	016161'	516504	040630
	016162'	461012	551612
	016163'	512464	043236
	016164'	511010	120216
	016165'	406344	024230
	016166'	526104	042634
	016167'	522453	124432
  8549	016170'	051446	204606	22	CHECK NAME IN LUD,DUL
	016171'	442130	345500
	016172'	472031	542500
	016173'	446344	046252
	016174'	421310	452630
  8550	016175'	064246	231422	23	MOVE USERS - LIST LUD INFORMATION
	016176'	466372	642500
	016177'	526470	551246
	016200'	201324	046222
	016201'	516504	046252
	016202'	421011	147214
	016203'	476451	540650
  8551	016204'	446371	606424	24	MOVE USERS - INPUT LUD INFORMATION
	016205'	311501	146636
	016206'	532124	052646
	016207'	426452	320132
	016210'	202231	650252
	016211'	521011	452610
	016212'	202231	643236
	016213'	512330	152222
  8552	016214'	476341	505144	25	DELETE ALL USERS FOR AN ACCOUNT
	016215'	324230	442630
	016216'	426510	520202
	016217'	462304	052646
	016220'	426452	320214
	016221'	476444	040634
UPDLUD - ACCTG., LUD UPDATER	MACRO 12.5-46.0 17:15 19-SEP-89 PAGE 189-3
UPDLUD.MAC	24-MAY-89 18:55		HELP MESSAGES

	016222'	202030	341636
  8553	016223'	526352	406424	26	LIST ALL USERS FOR A GAN
	016224'	311541	146222
	016225'	516504	040630
	016226'	461012	551612
	016227'	512464	043236
	016230'	511010	120216
  8554	016231'	406341	505144	27	LIST ALL VALID HOSTS AND THEIR AST
	016232'	334231	444646
	016233'	521010	146230
	016234'	202550	146222
	016235'	421011	047646
	016236'	522464	040634
	016237'	421012	444212
	016240'	446444	040646
  8555	016241'	520321	231540	30	NEW CUSTOMER
	016242'	046350	553500
	016243'	416532	352236
  8556	016244'	466132	206424	31	CHANGE CUSTOMER DISTRICT
	016245'	315421	141620
	016246'	406350	742500
	016247'	416532	352236
	016250'	466132	220210
	016251'	446472	451222
  8557	016252'	416501	505146	32      GET CUSTOMER NUMBER
	016253'	311004	020100
	016254'	201010	742650
	016255'	202072	551650
	016256'	476330	551100
	016257'	472531	541212
  8558	016260'	510321	231546	33	CHANGE CUSTOMER FLAT FOCUS FEE
	016261'	046071	040634
	016262'	436124	041652
	016263'	516511	746612
	016264'	511010	646202
	016265'	521010	647606
	016266'	526464	043212
  8559	016267'	424321	231550	34	CHANGE CUSTOMER DETAIL CODE
	016270'	046071	040634
	016271'	436124	041652
	016272'	516511	746612
	016273'	511010	442650
	016274'	406231	420206
  8560	016275'	476110	506424	35	CHANGE CUSTOMER INVOICE CODE
	016276'	315521	141620
	016277'	406350	742500
	016300'	416532	352236
	016301'	466132	220222
	016302'	472551	744606
	016303'	425010	347610
  8561	016304'	424321	231556	37	CHANGE CUSTOMER SALESMAN
	016305'	046071	040634
	016306'	436124	041652
UPDLUD - ACCTG., LUD UPDATER	MACRO 12.5-46.0 17:15 19-SEP-89 PAGE 189-4
UPDLUD.MAC	24-MAY-89 18:55		HELP MESSAGES

	016307'	516511	746612
	016310'	511012	340630
	016311'	426471	540634
  8562	016312'	064246	430022	40	CHANGE CUSTOMER PO
	016313'	416210	147216
	016314'	425010	352646
	016315'	522371	542644
  8563	016316'	202411	706424	41	CHANGE CUSTOMER PO MAXIMUM
	016317'	321421	141620
	016320'	406350	742500
	016321'	416532	352236
	016322'	466132	220240
	016323'	475011	540660
	016324'	446332	546432
  8564	016325'	051506	204606	42	CHANGE CUSTOMER PO START DATE
	016326'	442031	643612
	016327'	202072	551650
	016330'	476330	551100
	016331'	502364	051650
	016332'	406452	420210
  8565	016333'	406510	506424	43	CHANGE CUSTOMER PO STOP DATE
	016334'	321461	141620
	016335'	406350	742500
	016336'	416532	352236
	016337'	466132	220240
	016340'	475012	352236
	016341'	501010	440650
  8566	016342'	424321	232150	44	CHANGE CUSTOMER NAME
	016343'	046071	040634
	016344'	436124	041652
	016345'	516511	746612
	016346'	511011	640632
  8567	016347'	424321	232152	45	CHANGE CUSTOMER ADDRESS
	016350'	046071	040634
	016351'	436124	041652
	016352'	516511	746612
	016353'	511010	142210
	016354'	512132	351432
  8568	016355'	051506	620100	46      CHANGE CUSTOMER DEFAULT PRICING CODE
	016356'	201004	020206
	016357'	442031	643612
	016360'	202072	551650
	016361'	476330	551100
	016362'	422130	640652
	016363'	462504	050244
	016364'	446071	147216
	016365'	202071	742212
  8569	016366'	064246	530022	50	LIST CUSTOMER
	016367'	462232	352100
	016370'	416532	352236
  8570	016371'	466132	206424	51	LIST CUSTOMER NAME
	016372'	325421	146222
	016373'	516504	041652
UPDLUD - ACCTG., LUD UPDATER	MACRO 12.5-46.0 17:15 19-SEP-89 PAGE 189-5
UPDLUD.MAC	24-MAY-89 18:55		HELP MESSAGES

	016374'	516511	746612
	016375'	511011	640632
  8571	016376'	424321	232544	52	LIST ACCOUNTING SYSTEM TYPES FOR A CUSTOMER
	016377'	046311	151650
	016400'	202030	341636
	016401'	526352	444634
	016402'	435012	354646
	016403'	522131	520250
	016404'	546410	551500
	016405'	432372	220202
	016406'	202072	551650
	016407'	476330	551032
  8572	016410'	051526	304630	53	LIST ACCOUNTING SYSTEM TYPES FOR A USER
	016411'	446472	420202
	016412'	416071	752634
	016413'	522231	643500
	016414'	516632	352212
	016415'	465012	454640
	016416'	426464	043236
	016417'	511010	120252
  8573	016420'	516132	206424	54	LIST ALL USERS AND THEIR HOSTS FOR A CUSTOMER
	016421'	325501	146222
	016422'	516504	040630
	016423'	461012	551612
	016424'	512464	040634
	016425'	421012	444212
	016426'	446444	044236
	016427'	516512	320214
	016430'	476444	040500
	016431'	416532	352236
  8574	016432'	466132	206424	55	LIST ALL GANS FOR A CUSTOMER
	016433'	325521	146222
	016434'	516504	040630
	016435'	461010	740634
	016436'	515010	647644
	016437'	202024	041652
	016440'	516511	746612
  8575	016441'	510321	232554	56	LIST ALL CUSTOMERS FOR A DISTRICT
	016442'	046311	151650
	016443'	202031	446100
	016444'	416532	352236
	016445'	466132	251500
	016446'	432372	220202
	016447'	202111	151650
	016450'	512230	352032
  8576	016451'	051526	704630	57	LIST ALL USERS FOR A DISTRICT
	016452'	446472	420202
	016453'	462304	052646
	016454'	426452	320214
	016455'	476444	040500
	016456'	422232	352244
  8577	016457'	446072	406424	60	ADD USER TO ACCOUNTING
	016460'	331401	140610
UPDLUD - ACCTG., LUD UPDATER	MACRO 12.5-46.0 17:15 19-SEP-89 PAGE 189-6
UPDLUD.MAC	24-MAY-89 18:55		HELP MESSAGES

	016461'	421012	551612
	016462'	511012	447500
	016463'	406070	347652
	016464'	472511	147216
  8578	016465'	064246	630422	61	ADD HOST FOR A USER
	016466'	406110	420220
	016467'	476472	420214
	016470'	476444	040500
	016471'	526470	551032
  8579	016472'	051546	204606	62	CHANGE USER NAME IN ACCOUNTING
	016473'	442031	643612
	016474'	202532	342644
	016475'	202350	146612
	016476'	202231	620202
	016477'	416071	752634
	016500'	522231	643432
  8580	016501'	051546	304606	63	CHANGE CUSTOMER FOR A USER
	016502'	442031	643612
	016503'	202072	551650
	016504'	476330	551100
	016505'	432372	220202
	016506'	202532	342644
  8581	016507'	064246	632022	64	CHANGE SALESMAN FOR A USER
	016510'	416210	147216
	016511'	425012	340630
	016512'	426471	540634
	016513'	202151	751100
	016514'	405012	551612
  8582	016515'	510321	233152	65	LIST ALL USERS (MUD CHECK)
	016516'	046311	151650
	016517'	202031	446100
	016520'	526470	551246
	016521'	201211	552610
	016522'	202071	042606
  8583	016523'	455221	505154	66	LIST ALL CUSTOMERS FOR A COSTCODE
	016524'	330231	444646
	016525'	521010	146230
	016526'	202072	551650
	016527'	476330	551246
	016530'	202151	751100
	016531'	405010	347646
	016532'	522071	742212
  8584	016533'	064246	633422	67	LIST ALL USERS FOR A COSTCODE
	016534'	462232	352100
	016535'	406311	420252
	016536'	516132	251500
	016537'	432372	220202
	016540'	202071	751650
	016541'	416370	442432
  8585	016542'	051566	004606	70	CHANGE USER CURRENCY CODE
	016543'	442031	643612
	016544'	202532	342644
	016545'	202072	551244
UPDLUD - ACCTG., LUD UPDATER	MACRO 12.5-46.0 17:15 19-SEP-89 PAGE 189-7
UPDLUD.MAC	24-MAY-89 18:55		HELP MESSAGES

	016546'	426350	354500
	016547'	416370	442432
  8586	016550'	051566	104606	71	CHANGE USER GAN IN ACCTG.
	016551'	442031	643612
	016552'	202532	342644
	016553'	202170	147100
	016554'	446344	040606
	016555'	416510	727032
  8587	016556'	051566	204606	72	CHANGE TIME ZONE IN ACCOUNTING
	016557'	442031	643612
	016560'	202511	146612
	016561'	202651	747212
	016562'	202231	620202
	016563'	416071	752634
	016564'	522231	643432
  8588	016565'	051566	404644	74	REMOVE A HOST FOR A USER
	016566'	426331	753212
	016567'	202024	044236
	016570'	516504	043236
	016571'	511010	120252
  8589	016572'	516132	206424	75	CHANGE USER'S DISTRICT IN ACCOUNTING
	016573'	335521	141620
	016574'	406350	742500
	016575'	526470	551116
	016576'	515010	444646
	016577'	522451	141650
	016600'	202231	620202
	016601'	416071	752634
	016602'	522231	643432
  8590	016603'	051566	604606	76	CANCEL USER FROM ACCOUNTING
	016604'	406350	342630
	016605'	202532	342644
	016606'	202152	247632
	016607'	202030	341636
	016610'	526352	444634
  8591	016611'	434321	230540	100	CHANGE LANGUAGE CODE
	016612'	300230	344202
	016613'	472170	520230
	016614'	406350	752602
	016615'	436124	041636
  8592	016616'	422121	505142	101	ADD ACCTG. SYS. TYPE FOR A USER
	016617'	301421	140610
	016620'	421010	141606
	016621'	522165	620246
	016622'	546465	620250
	016623'	546410	520214
	016624'	476444	040500
	016625'	526470	551032
  8593	016626'	051426	031422	103	LIST USER CUSTOMER NUMBER
	016627'	462232	352100
	016630'	526470	551100
	016631'	416532	352236
	016632'	466132	220234
UPDLUD - ACCTG., LUD UPDATER	MACRO 12.5-46.0 17:15 19-SEP-89 PAGE 189-8
UPDLUD.MAC	24-MAY-89 18:55		HELP MESSAGES

	016633'	526330	242644
  8594	016634'	064246	130150	104	OUTPUT NUMBER OF DIRECTORIES AFFECTED BY A CANCEL ACCOUNT
	016635'	046372	552240
	016636'	526504	047252
	016637'	466050	551100
	016640'	476144	042222
	016641'	512130	352236
	016642'	512230	551500
	016643'	406150	642606
	016644'	522130	420204
	016645'	545010	120206
	016646'	406350	342630
	016647'	202030	341636
  8595	016650'	526352	406424	105	LIST HOSTS FOR A USER
	016651'	305406	504630
	016652'	446472	420220
	016653'	476472	451500
	016654'	432372	220202
	016655'	202532	342644
  8596	016656'	064246	130154	106	LIST USER ACCOUNTING
	016657'	046311	151650
	016660'	202532	342644
	016661'	202030	341636
	016662'	526352	444634
  8597	016663'	434321	230540	107	LIST HOSTS FOR A CUSTOMER
	016664'	334231	444646
	016665'	521011	047646
	016666'	522464	043236
	016667'	511010	120206
	016670'	526472	447632
  8598	016671'	426441	505142	110	CHECK UUN IN ACCOUNTING FOR A SYSTEM TYPE
	016672'	305401	141620
	016673'	426071	320252
	016674'	526344	044634
	016675'	202030	341636
	016676'	526352	444634
	016677'	435010	647644
	016700'	202024	051662
	016701'	516510	546500
	016702'	522632	042432
  8599	016703'	051426	130422	111	CHECK UUN IN ACCOUNTING FOR A HOST
	016704'	416210	541626
	016705'	202532	547100
	016706'	446344	040606
	016707'	416372	547250
	016710'	446350	720214
	016711'	476444	040500
	016712'	442372	352032
  8600	016713'	051426	131022	112	LIST ALL USERS FOR A CUSTOMER
	016714'	462232	352100
	016715'	406311	420252
	016716'	516132	251500
	016717'	432372	220202
UPDLUD - ACCTG., LUD UPDATER	MACRO 12.5-46.0 17:15 19-SEP-89 PAGE 189-9
UPDLUD.MAC	24-MAY-89 18:55		HELP MESSAGES

	016720'	202072	551650
	016721'	476330	551032
  8601	016722'	051426	131422	113	LIST ALL USERS FOR A GAN
	016723'	462232	352100
	016724'	406311	420252
	016725'	516132	251500
	016726'	432372	220202
	016727'	202170	147032
  8602	016730'	051426	132022	114	CHECK GAN FOR A HOST
	016731'	416210	541626
	016732'	202170	147100
	016733'	432372	220202
	016734'	202211	751650
  8603	016735'	064246	130552	115	CHECK CUSTOMER FOR A HOST
	016736'	046071	042606
	016737'	455010	352646
	016740'	522371	542644
	016741'	202151	751100
	016742'	405011	047646
  8604	016743'	520321	230542	116	LIST ALL HOSTS FOR A GAN
	016744'	330231	444646
	016745'	521010	146230
	016746'	202211	751650
	016747'	515010	647644
	016750'	202024	043602
  8605	016751'	470321	230542	117	CHANGE DISTRICT FOR ALL USERS FOR A CUSTOMER
	016752'	334230	344202
	016753'	472170	520210
	016754'	446472	451222
	016755'	416504	043236
	016756'	511010	146230
	016757'	202532	342644
	016760'	515010	647644
	016761'	202024	041652
	016762'	516511	746612
  8606	016763'	510321	230544	120	WRITE ACCOUNTING RECORD
	016764'	300232	751222
	016765'	522124	040606
	016766'	416372	547250
	016767'	446350	720244
	016770'	426071	751210
  8607	016771'	064246	131142	121	REVERSE LAST LUD ENTRY
	016772'	046450	553212
	016773'	512470	520230
	016774'	406472	420230
	016775'	526104	042634
  8608	016776'	522453	106424	122	REVERSE LAST ACCOUNTING ENTRY
	016777'	305446	204644
	017000'	426550	551246
	017001'	425011	440646
	017002'	521010	141606
	017003'	476531	652222
	017004'	472164	042634
UPDLUD - ACCTG., LUD UPDATER	MACRO 12.5-46.0 17:15 19-SEP-89 PAGE 189-10
UPDLUD.MAC	24-MAY-89 18:55		HELP MESSAGES

  8609	017005'	522453	106424	123	LIST ALL USERS FOR A HOST
	017006'	305446	304630
	017007'	446472	420202
	017010'	462304	052646
	017011'	426452	320214
	017012'	476444	040500
	017013'	442372	352032
  8610	017014'	051426	232022	124	LIST CUSTOMER NUMBER FOR A USER
	017015'	462232	352100
	017016'	416532	352236
	017017'	466132	220234
	017020'	526330	242644
	017021'	202151	751100
	017022'	405012	551612
  8611	017023'	510321	230544	125	LIST DISTRICT FOR A CUSTOMER
	017024'	324231	444646
	017025'	521010	444646
	017026'	522451	141650
	017027'	202151	751100
	017030'	405010	352646
	017031'	522371	542644
  8612	017032'	064246	131154	126	LIST USERS AND HOSTS FOR A DISTRICT
	017033'	046311	151650
	017034'	202532	342644
	017035'	515010	147210
	017036'	202211	751650
	017037'	515010	647644
	017040'	202024	042222
	017041'	516512	244606
  8613	017042'	520321	230544	127	LIST ALL USERS FOR AN ACCTG. SYS. TYPE
	017043'	334231	444646
	017044'	521010	146230
	017045'	202532	342644
	017046'	515010	647644
	017047'	202031	620202
	017050'	416072	443534
	017051'	202473	151534
	017052'	202513	150212
  8614	017053'	064246	131540	130	LIST ALL CUSTOMERS FOR A HOST
	017054'	046311	151650
	017055'	202031	446100
	017056'	416532	352236
	017057'	466132	251500
	017060'	432372	220202
	017061'	202211	751650
  8615	017062'	200321	230546	131	LIST CUSTOMER DISTRICT
	017063'	304231	444646
	017064'	521010	352646
	017065'	522371	542644
	017066'	202111	151650
	017067'	512230	352032
  8616	017070'	051426	331022	132	LIST CUSTOMER DETAIL
	017071'	462232	352100
UPDLUD - ACCTG., LUD UPDATER	MACRO 12.5-46.0 17:15 19-SEP-89 PAGE 189-11
UPDLUD.MAC	24-MAY-89 18:55		HELP MESSAGES

	017072'	416532	352236
	017073'	466132	220210
	017074'	426510	144630
  8617	017075'	064246	131546	133	LIST CUSTOMER INVOICE CODE
	017076'	046311	151650
	017077'	202072	551650
	017100'	476330	551100
	017101'	446352	647622
	017102'	416124	041636
  8618	017103'	422121	505142	134	LIST CUSTOMER MINIMUM CODE
	017104'	315501	146222
	017105'	516504	041652
	017106'	516511	746612
	017107'	511011	544634
	017110'	446332	546500
	017111'	416370	442432
  8619	017112'	051426	332422	135	LIST CUSTOMER SALESMAN
	017113'	462232	352100
	017114'	416532	352236
	017115'	466132	220246
	017116'	406310	551632
  8620	017117'	406341	505142	136	LIST CUSTOMER PO NUMBER
	017120'	315541	146222
	017121'	516504	041652
	017122'	516511	746612
	017123'	511012	047500
	017124'	472531	541212
  8621	017125'	510321	230546	137	LIST CUSTOMER PO MAX
	017126'	334231	444646
	017127'	521010	352646
	017130'	522371	542644
	017131'	202411	720232
  8622	017132'	406601	505142	140	LIST CUSTOMER PO START DATE
	017133'	321401	146222
	017134'	516504	041652
	017135'	516511	746612
	017136'	511012	047500
	017137'	516510	151250
	017140'	202110	152212
  8623	017141'	064246	132142	141	LIST CUSTOMER PO STOP DATE
	017142'	046311	151650
	017143'	202072	551650
	017144'	476330	551100
	017145'	502364	051650
	017146'	476404	042202
  8624	017147'	522121	505142	142	LIST CUSTOMER STREET ADDRESS
	017150'	321441	146222
	017151'	516504	041652
	017152'	516511	746612
	017153'	511012	352244
	017154'	426132	420202
	017155'	422112	242646
  8625	017156'	514321	230550	143	LIST CUSTOMER CITY
UPDLUD - ACCTG., LUD UPDATER	MACRO 12.5-46.0 17:15 19-SEP-89 PAGE 189-12
UPDLUD.MAC	24-MAY-89 18:55		HELP MESSAGES

	017157'	314231	444646
	017160'	521010	352646
	017161'	522371	542644
	017162'	202071	152262
  8626	017163'	064246	132150	144	LIST CUSTOMER STATE
	017164'	046311	151650
	017165'	202072	551650
	017166'	476330	551100
	017167'	516510	152212
  8627	017170'	064246	132152	145	LIST CUSTOMER COUNTRY
	017171'	046311	151650
	017172'	202072	551650
	017173'	476330	551100
	017174'	416372	547250
  8628	017175'	512621	505142	146	LIST CUSTOMER ATTN LINE
	017176'	321541	146222
	017177'	516504	041652
	017200'	516511	746612
	017201'	511010	152250
	017202'	471011	444634
  8629	017203'	424321	230552	150	LIST CUSTOMER DEFAULT PRICING CODE
	017204'	300231	444646
	017205'	521010	352646
	017206'	522371	542644
	017207'	202110	543202
	017210'	526312	420240
	017211'	512230	344634
	017212'	435010	347610
  8630	017213'	424321	230552	151	LIST CUSTOMER ZIP CODE
	017214'	304231	444646
	017215'	521010	352646
	017216'	522371	542644
	017217'	202651	150100
	017220'	416370	442432
  8631	017221'	051426	531022	152	SET TYMUSE
	017222'	516132	420250
	017223'	546332	551612
  8632	017224'	064246	132546	153	UNSET TYMUSE
	017225'	046531	651612
	017226'	521012	454632
  8633	017227'	526470	506424	154	LIST TYMUSE INFO FOR A CUSTOMER
	017230'	305526	404630
	017231'	446472	420250
	017232'	546332	551612
	017233'	202231	643236
	017234'	202151	751100
	017235'	405010	352646
	017236'	522371	542644
  8634	017237'	064246	132552	155	CHANGE NO. OF DAYS FOR A TYMUSE CUSTOMER
	017240'	046071	040634
	017241'	436124	047236
	017242'	271011	743100
	017243'	422033	151500
UPDLUD - ACCTG., LUD UPDATER	MACRO 12.5-46.0 17:15 19-SEP-89 PAGE 189-13
UPDLUD.MAC	24-MAY-89 18:55		HELP MESSAGES

	017244'	432372	220202
	017245'	202513	146652
	017246'	516124	041652
	017247'	516511	746612
  8635	017250'	510321	230552	156	CHANGE RECIEIVING CUST INFO FOR A TYMUSE CUSTOMER
	017251'	330230	344202
	017252'	472170	520244
	017253'	426071	142622
	017254'	532231	643500
	017255'	416532	352100
	017256'	446350	647500
	017257'	432372	220202
	017260'	202513	146652
	017261'	516124	041652
	017262'	516511	746612
  8636	017263'	510321	230552	157	LIST ALL TYMUSE CUSTOMERS
	017264'	334231	444646
	017265'	521010	146230
	017266'	202513	146652
	017267'	516124	041652
	017270'	516511	746612
  8637	017271'	512461	505142	160	LIST USER'S CUSTOMER
	017272'	331401	146222
	017273'	516504	052646
	017274'	426444	751500
	017275'	416532	352236
  8638	017276'	466132	206424	161	LIST USER'S SALESMAN
	017277'	305546	104630
	017300'	446472	420252
	017301'	516132	223646
	017302'	202470	146212
	017303'	516330	147032
  8639	017304'	051426	631422	163	CHECK FOR VALID TYMUSE CUSTOMER
	017305'	416210	541626
	017306'	202151	751100
	017307'	532031	444610
	017310'	202513	146652
	017311'	516124	041652
	017312'	516511	746612
  8640	017313'	510321	230554	164	LIST ALL GANS FOR A COSTCODE
	017314'	320231	444646
	017315'	521010	146230
	017316'	202170	147246
	017317'	202151	751100
	017320'	405010	347646
	017321'	522071	742212
  8641	017322'	064246	133152	165	LIST USER'S CURRENCY CODE
	017323'	046311	151650
	017324'	202532	342644
	017325'	236464	041652
	017326'	512450	547206
	017327'	545010	347610
  8642	017330'	424321	230554	167	LIST USER'S TIME ZONE
UPDLUD - ACCTG., LUD UPDATER	MACRO 12.5-46.0 17:15 19-SEP-89 PAGE 189-14
UPDLUD.MAC	24-MAY-89 18:55		HELP MESSAGES

	017331'	334231	444646
	017332'	521012	551612
	017333'	511172	320250
	017334'	446330	520264
  8643	017335'	476350	506424	170	LIST ALL COSTCODES FOR A DISTRICT
	017336'	305566	004630
	017337'	446472	420202
	017340'	462304	041636
	017341'	516510	347610
	017342'	426464	043236
	017343'	511010	120210
	017344'	446472	451222
  8644	017345'	416501	505142	171	LIST USER'S DISTRICT
	017346'	335421	146222
	017347'	516504	052646
	017350'	426444	751500
	017351'	422232	352244
  8645	017352'	446072	406424	173	LIST USER'S LANGUAGE
	017353'	305566	304630
	017354'	446472	420252
	017355'	516132	223646
	017356'	202310	147216
	017357'	526030	742432
  8646	017360'	051426	733422	177	MOVE USERS - ADD NEW HOST FOR ALL USERS IN A GAN
	017361'	466372	642500
	017362'	526470	551246
	017363'	201324	040610
	017364'	421011	642656
	017365'	202211	751650
	017366'	202151	751100
	017367'	406311	420252
	017370'	516132	251500
	017371'	446344	040500
  8647	017372'	436031	606424	200	MOVE USERS - ADD NEW HOST FOR ALL USERS FOR A CUSTOMER
	017373'	311406	004632
	017374'	476550	520252
	017375'	516132	251500
	017376'	265010	142210
	017377'	202350	553500
	017400'	442372	352100
	017401'	432372	220202
	017402'	462304	052646
	017403'	426452	320214
	017404'	476444	040500
	017405'	416532	352236
  8648	017406'	466132	206424	201	MOVE USERS - ADD NEW HOST FOR ALL USERS FOR A CUSTOMER FOR A GAN
	017407'	311406	104632
	017410'	476550	520252
	017411'	516132	251500
	017412'	265010	142210
	017413'	202350	553500
	017414'	442372	352100
	017415'	432372	220202
UPDLUD - ACCTG., LUD UPDATER	MACRO 12.5-46.0 17:15 19-SEP-89 PAGE 189-15
UPDLUD.MAC	24-MAY-89 18:55		HELP MESSAGES

	017416'	462304	052646
	017417'	426452	320214
	017420'	476444	040500
	017421'	416532	352236
	017422'	466132	220214
	017423'	476444	040500
  8649	017424'	436031	606424	202	DELETE USER AND DO NOT CHARGE
	017425'	311406	204610
	017426'	426310	552212
	017427'	202532	342644
	017430'	202031	642100
	017431'	422364	047236
	017432'	521010	344202
  8650	017433'	512170	506424	203	MOVE USERS - RETURN ALL USERS FOR A CUSTOMER (NON PDP-10)
	017434'	311406	304632
	017435'	476550	520252
	017436'	516132	251500
	017437'	265012	242650
	017440'	526451	620202
	017441'	462304	052646
	017442'	426452	320214
	017443'	476444	040500
	017444'	416532	352236
	017445'	466132	220120
	017446'	472371	620240
	017447'	422405	530540
  8651	017450'	244321	231140	204	MOVE USERS - RETURN ALL USERS FOR A GAN (NON PDP-10)
	017451'	320231	547654
	017452'	425012	551612
	017453'	512464	026500
	017454'	512132	452644
	017455'	471010	146230
	017456'	202532	342644
	017457'	515010	647644
	017460'	202024	043602
	017461'	471005	047236
	017462'	471012	042240
	017463'	265426	024432
  8652	017464'	051446	032422	205	ADD A USER TO TUSRDB
	017465'	406110	420202
	017466'	202532	342644
	017467'	202511	720250
	017470'	526472	242204
  8653	017471'	064246	230154	206	CHANGE USER NAME IN TUSRDB
	017472'	046071	040634
	017473'	436124	052646
	017474'	426444	047202
	017475'	466124	044634
	017476'	202512	551644
  8654	017477'	422041	505144	207	CANCEL ACCOUNT IN TUSRDB
	017500'	301561	141602
	017501'	472070	546100
	017502'	406070	347652
UPDLUD - ACCTG., LUD UPDATER	MACRO 12.5-46.0 17:15 19-SEP-89 PAGE 189-16
UPDLUD.MAC	24-MAY-89 18:55		HELP MESSAGES

	017503'	472504	044634
	017504'	202512	551644
  8655	017505'	422041	505144	210	RETURN COUNT OF VALID USERS IN ACCOUNT IN TUSRDB
	017506'	305401	151212
	017507'	522532	247100
	017510'	416372	547250
	017511'	202370	620254
	017512'	406311	142100
	017513'	526470	551246
	017514'	202231	620202
	017515'	416071	752634
	017516'	521011	147100
	017517'	522532	351210
  8656	017520'	410321	231142	211	CANCEL USER IN TUSRDB
	017521'	304230	340634
	017522'	416131	420252
	017523'	516132	220222
	017524'	471012	452646
  8657	017525'	512110	206424	212	LIST RECORD IN TUSRDB
	017526'	311426	204630
	017527'	446472	420244
	017530'	426071	751210
	017531'	202231	620250
	017532'	526472	242204
  8658	017533'	064246	230546	213	LIST ALL USERS FOR A MAIL NAME
	017534'	046311	151650
	017535'	202031	446100
	017536'	526470	551246
	017537'	202151	751100
	017540'	405011	540622
	017541'	461011	640632
  8659	017542'	424321	231142	214	CHECK MAIL NAME FOR A CUST
	017543'	320230	344212
	017544'	416264	046602
	017545'	446304	047202
	017546'	466124	043236
	017547'	511010	120206
  8660	017550'	526472	406424	215	CHANGE MAIL NAME
	017551'	311426	504606
	017552'	442031	643612
	017553'	202330	144630
	017554'	202350	146612
  8661	017555'	064246	230554	216	CHECK MAIL UUN FOR A USER
	017556'	046071	042606
	017557'	455011	540622
	017560'	461012	552634
	017561'	202151	751100
	017562'	405012	551612
  8662	017563'	510321	231142	217	LIST ALL USERS IN TUSRDB
	017564'	334231	444646
	017565'	521010	146230
	017566'	202532	342644
	017567'	515011	147100
UPDLUD - ACCTG., LUD UPDATER	MACRO 12.5-46.0 17:15 19-SEP-89 PAGE 189-17
UPDLUD.MAC	24-MAY-89 18:55		HELP MESSAGES

	017570'	522532	351210
  8663	017571'	410321	231144	220	ADD UUN-HOST TO TYMHST
	017572'	300230	142210
	017573'	202532	547132
	017574'	442372	352100
	017575'	522364	052262
	017576'	466212	352032
  8664	017577'	051446	230422	221	REMOVE UUN-HOST FROM TYMHST
	017600'	512131	547654
	017601'	425012	552634
	017602'	266211	751650
	017603'	202152	247632
	017604'	202513	146620
  8665	017605'	516501	505144	222	LIST ALL MAIL UUNS AND THEIR HOSTS
	017606'	311441	146222
	017607'	516504	040630
	017610'	461011	540622
	017611'	461012	552634
	017612'	515010	147210
	017613'	202511	042622
	017614'	511011	047646
  8666	017615'	522461	505144	223	LIST ALL HOSTS FOR A UUN
	017616'	311461	146222
	017617'	516504	040630
	017620'	461011	047646
	017621'	522464	043236
	017622'	511010	120252
  8667	017623'	526341	505144	224	ADD HOST TO TYMCNV
	017624'	311501	140610
	017625'	421011	047646
	017626'	521012	447500
	017627'	522631	541634
  8668	017630'	530321	231144	225	DELETE HOST FROM TYMCNV
	017631'	324230	442630
	017632'	426510	520220
	017633'	476472	420214
	017634'	512371	520250
	017635'	546330	347254
  8669	017636'	064246	231154	226	LIST HOSTS IN TYMCNV
	017637'	046311	151650
	017640'	202211	751650
	017641'	515011	147100
	017642'	522631	541634
  8670	017643'	530321	231144	227	LIST ALL USERS IN A GAN IN TUSRDB
	017644'	334231	444646
	017645'	521010	146230
	017646'	202532	342644
	017647'	515011	147100
	017650'	405010	740634
	017651'	202231	620250
	017652'	526472	242204
  8671	017653'	064246	231540	230	CHECK MAIL NAME FOR A HOST
	017654'	046071	042606
UPDLUD - ACCTG., LUD UPDATER	MACRO 12.5-46.0 17:15 19-SEP-89 PAGE 189-18
UPDLUD.MAC	24-MAY-89 18:55		HELP MESSAGES

	017655'	455011	540622
	017656'	461011	640632
	017657'	425010	647644
	017660'	202024	044236
  8672	017661'	516501	505144	231	CHECK HOST IN TYMCNV
	017662'	315421	141620
	017663'	426071	320220
	017664'	476472	420222
	017665'	471012	454632
  8673	017666'	416352	606424	232	CHECK HOST FOR TYMCOM-III'S
	017667'	311466	204606
	017670'	442130	345500
	017671'	442372	352100
	017672'	432372	220250
	017673'	546330	347632
	017674'	266231	144516
  8674	017675'	514321	231146	233	CHANGE DISTRICT FOR ALL USERS FOR A CUSTOMER IN TUSRDB
	017676'	314230	344202
	017677'	472170	520210
	017700'	446472	451222
	017701'	416504	043236
	017702'	511010	146230
	017703'	202532	342644
	017704'	515010	647644
	017705'	202024	041652
	017706'	516511	746612
	017707'	511011	147100
	017710'	522532	351210
  8675	017711'	410321	231146	234     CHANGE CUSTOMER NUMBER FOR A USER IN TUSRDB
	017712'	321004	020100
	017713'	202071	040634
	017714'	436124	041652
	017715'	516511	746612
	017716'	511011	652632
	017717'	412132	220214
	017720'	476444	040500
	017721'	526470	551100
	017722'	446344	052252
	017723'	516450	441032
  8676	017724'	051446	332500	235     CHANGE GAN FOR A USER IN TUSRDB
	017725'	201004	020206
	017726'	442031	643612
	017727'	202170	147100
	017730'	432372	220202
	017731'	202532	342644
	017732'	202231	620250
	017733'	526472	242204
  8677	017734'	064246	232140	240	LIST SYSTEM TYPE FOR A HOST
	017735'	046311	151650
	017736'	202473	151650
	017737'	426324	052262
	017740'	502124	043236
	017741'	511010	120220
UPDLUD - ACCTG., LUD UPDATER	MACRO 12.5-46.0 17:15 19-SEP-89 PAGE 189-19
UPDLUD.MAC	24-MAY-89 18:55		HELP MESSAGES

  8678	017742'	476472	406424	/
	017743'	000000	000000
UPDLUD - ACCTG., LUD UPDATER	MACRO 12.5-46.0 17:15 19-SEP-89 PAGE 190
UPDLUD.MAC	24-MAY-89 18:55		MESSAGES

  8679				SUBTTL MESSAGES
  8680
  8681	017744'	526350	146612	AUNAME: ASCIZ /UNAME/
	017745'	000000	000000
  8682	017746'	416532	352236	MCSTNO:	ASCIZ /CUSTOMER NUMBER: /
	017747'	466132	220234
	017750'	526330	242644
	017751'	351000	000000
  8683	017752'	422232	352244	MDIST:	ASCIZ /DISTRICT: /
	017753'	446072	435100
	017754'	000000	000000
  8684	017755'	422132	440622	MDET:	ASCIZ /DETAIL CODE: /
	017756'	461010	347610
	017757'	425644	000000
  8685	017760'	466231	644632	MMIN:	ASCIZ /MINIMUM CODE: /
	017761'	526324	041636
	017762'	422127	220000
  8686	017763'	502367	220000	MPO:	ASCIZ /PO: /
  8687	017764'	502364	046602	MPOMAX:	ASCIZ /PO MAX: /
	017765'	541644	000000
  8688	017766'	502364	051650	MPOSTA:	ASCIZ /PO START DATE: /
	017767'	406452	420210
	017770'	406510	535100
	017771'	000000	000000
  8689	017772'	502364	051650	MPOSTO:	ASCIZ /PO STOP DATE: /
	017773'	476404	042202
	017774'	522127	220000
  8690	017775'	406351	644654	MANNDT: ASCIZ /ANNIVERSARY DATE: /
	017776'	426452	340644
	017777'	545010	440650
	020000'	425644	000000
  8691
  8692	020001'	502451	141622	MPRI:	ASCIZ /PRICING CODE: /
	020002'	472164	041636
	020003'	422127	220000
  8693	020004'	446352	647622	MINV:	ASCIZ /INVOICE CODE: /
	020005'	416124	041636
	020006'	422127	220000
  8694	020007'	516031	442646	MSLS:	ASCIZ /SALESMAN: /
	020010'	466031	635100
	020011'	000000	000000
  8695	020012'	416372	352206	MCOST:  ASCIZ /COSTCODE: /
	020013'	476110	535100
	020014'	000000	000000
  8696	020015'	432310	152100	MFOCF:  ASCIZ /FLAT FOCUS FEE: /
	020016'	432370	352646
	020017'	202150	542564
	020020'	200000	000000
  8697	020021'	436031	635100	MGAN:	ASCIZ /GAN: /
	020022'	000000	000000
  8698	020023'	526531	635100	MUUN:	ASCIZ /UUN: /
	020024'	000000	000000
  8699	020025'	526470	551100	MUNAME:	ASCIZ /USER NAME: /
UPDLUD - ACCTG., LUD UPDATER	MACRO 12.5-46.0 17:15 19-SEP-89 PAGE 190-2
UPDLUD.MAC	24-MAY-89 18:55		MESSAGES

	020026'	472031	542564
	020027'	200000	000000
  8700	020030'	466031	146100	MANAME: ASCIZ /MAIL NAME: /
	020031'	472031	542564
	020032'	200000	000000
  8701	020033'	522631	551620	MATYM:	ASCIZ /TYMSHARE? /
	020034'	406450	537500
	020035'	000000	000000
  8702	020036'	522631	551620	MTYM:	ASCIZ /TYMSHARE: /
	020037'	406450	535100
	020040'	000000	000000
  8703	020041'	522231	542500	MZONE:	ASCIZ /TIME ZONE: /
	020042'	552371	642564
	020043'	200000	000000
  8704	020044'	422033	146222	MADST:	ASCIZ /DAYLIGHT SAVINGS? /
	020045'	436212	420246
	020046'	406551	147216
	020047'	515764	000000
  8705	020050'	422033	146222	MDST:	ASCIZ /DAYLIGHT SAVINGS: /
	020051'	436212	420246
	020052'	406551	147216
	020053'	515644	000000
  8706	020054'	502451	141622	MPCODE:	ASCIZ /PRICING CODE: /
	020055'	472164	041636
	020056'	422127	220000
  8707	020057'	506531	752202	MQIN:	ASCIZ /QUOTA IN: /
	020060'	202231	635100
	020061'	000000	000000
  8708	020062'	506531	752202	MQOUT:	ASCIZ /QUOTA OUT: /
	020063'	202372	552164
	020064'	200000	000000
  8709	020065'	201000	000000	M2SPACE:	ASCIZ /  /
  8710	020066'	406070	347652	MAAS:	ASCIZ /ACCOUNT SUPERVISOR? /
	020067'	472504	051652
	020070'	502132	253222
	020071'	516372	237500
	020072'	000000	000000
  8711	020073'	406070	347652	MAS:	ASCIZ /ACCOUNT SUPERVISOR: /
	020074'	472504	051652
	020075'	502132	253222
	020076'	516372	235100
	020077'	000000	000000
  8712	020100'	516132	420244	MARUB:  ASCIZ /SET RESTRICTED USER BIT? /
	020101'	426472	451222
	020102'	416510	542100
	020103'	526470	551100
	020104'	412232	437500
	020105'	000000	000000
  8713	020106'	512530	235100	MRUB:   ASCIZ /RUB: /
	020107'	000000	000000
  8714	020110'	512071	537500	MARCM:  ASCIZ /RCM? /
	020111'	000000	000000
  8715	020112'	512071	535100	MRCM:   ASCIZ /RCM: /
UPDLUD - ACCTG., LUD UPDATER	MACRO 12.5-46.0 17:15 19-SEP-89 PAGE 190-3
UPDLUD.MAC	24-MAY-89 18:55		MESSAGES

	020113'	000000	000000
  8716	020114'	516132	420216	MAGFD:  ASCIZ /SET GFD? /
	020115'	432107	720000
  8717	020116'	436150	435100	MGFD:   ASCIZ /GFD: /
	020117'	000000	000000
  8718	020120'	466370	442564	MMODE:	ASCIZ /MODE: /
	020121'	200000	000000
  8719	020122'	416532	251212	MCURR:	ASCIZ /CURRENCY CODE: /
	020123'	472073	120206
	020124'	476110	535100
	020125'	000000	000000
  8720	020126'	462031	643652	MLANG:	ASCIZ /LANGUAGE CODE: /
	020127'	406170	520206
	020130'	476110	535100
	020131'	000000	000000
  8721	020132'	422130	640652	MDPR:	ASCIZ /DEFAULT PRICING CODE: /
	020133'	462504	050244
	020134'	446071	147216
	020135'	202071	742212
	020136'	351000	000000
  8722	020137'	466232	341612	MMISC:	ASCIZ /MISCELLANEOUS BITS: /
	020140'	462310	147212
	020141'	476532	320204
	020142'	446512	335100
	020143'	000000	000000
  8723	020144'	412530	443612	MBUD:	ASCIZ /BUDGET: /
	020145'	521644	000000
  8724	020146'	446351	152100	MINIT: ASCIZ /INIT FILE: /
	020147'	432231	442564
	020150'	200000	000000
  8725	020151'	502451	153222	MPRIV: ASCIZ /PRIVILEGES: /
	020152'	462130	742646
	020153'	351000	000000
  8726	020154'	462130	652100	MPRIV1:	ASCIZ /LEFT HALF OF PRIVILEGE WORD: /
	020155'	442031	443100
	020156'	476144	050244
	020157'	446551	146212
	020160'	436124	053636
	020161'	512107	220000
  8727	020162'	512230	744250	MPRIV2:	ASCIZ /RIGHT HALF OF PRIVILEGE WORD: /
	020163'	202210	146214
	020164'	202370	620240
	020165'	512232	644630
	020166'	426170	520256
	020167'	476450	435100
	020170'	000000	000000
  8728	020171'	442372	352164	MHOST:	ASCIZ /HOST: /
	020172'	200000	000000
  8729	020173'	472365	620236	MNDAYS:	ASCIZ /NO. OF DAYS DATA IS TO BE HELD: /
	020174'	431010	440662
	020175'	515010	440650
	020176'	405011	151500
	020177'	522364	041212
UPDLUD - ACCTG., LUD UPDATER	MACRO 12.5-46.0 17:15 19-SEP-89 PAGE 190-4
UPDLUD.MAC	24-MAY-89 18:55		MESSAGES

	020200'	202210	546210
	020201'	351000	000000
  8730	020202'	512130	344612	MRCUST:	ASCIZ /RECIEVING CUSTOMER: /
	020203'	532231	643500
	020204'	416532	352236
	020205'	466132	235100
	020206'	000000	000000
  8731	020207'	516510	151250	MSTART:	ASCIZ /START DATE: /
	020210'	202110	152212
	020211'	351000	000000
UPDLUD - ACCTG., LUD UPDATER	MACRO 12.5-46.0 17:15 19-SEP-89 PAGE 191
UPDLUD.MAC	24-MAY-89 18:55		ERROR MESSAGES

  8732				SUBTTL ERROR MESSAGES
  8733
  8734				;&.PAGE
  8735				;&.CENTER
  8736				;&RETURN CODES
  8737				;&.SKIP 1
  8738				;&.SKIP 1
  8739				;&ERROR 1: ENTRY COMPLETED OR REQUESTED ENTRY FOUND
  8740				MSG1:	[ASCIZ /ENTRY COMPLETED.
  8741	020212'	000000	023661'	/]
  8742				;&.SKIP 1
  8743				;&ERROR 2: REQUESTED ENTRY IS ALLREADY ENTERED
  8744					[ASCIZ /USER NAME OR CUSTOMER NUMBER ALLREADY THERE.
  8745	020213'	000000	023665'	/]
  8746				;&.SKIP 1
  8747				;&ERROR 3: REQUESTED ENTRY WAS NOT FOUND
  8748					[ASCIZ /USER NAME, UUN OR CUSTOMER NUMBER NOT FOUND.
  8749	020214'	000000	023677'	/]
  8750				;&.SKIP 1
  8751				;&ERROR 4: ILLEGAL DATE ENTERED
  8752					[ASCIZ /ILLEGAL DATE FORMAT.
  8753	020215'	000000	023711'	/]
  8754				;&.SKIP 1
  8755				;&ERROR 5: ERROR IN X22 ACCESS
  8756					[ASCIZ /X22 ERROR
  8757	020216'	000000	023716'	/]
  8758				;&.SKIP 1
  8759				;&ERROR 6: DISK ERROR
  8760					[ASCIZ /SOME KIND OF DISK ERROR.
  8761	020217'	000000	023721'	/]
  8762				;&.SKIP 1
  8763				;&ERROR 7: ILLEGAL HOST ENTERED
  8764					[ASCIZ /BAD HOST.
  8765	020220'	000000	023727'	/]
  8766				;&.SKIP 1
  8767				;&ERROR 10: ERROR IN DUL
  8768					[ASCIZ /DUL ERROR.
  8769	020221'	000000	023732'	/]
  8770				;&.SKIP 1
  8771				;&ERROR 11: CUSTOMER NUMBER NOT FOUND
  8772					[ASCIZ /CUSTOMER NO. ERROR.
  8773	020222'	000000	023735'	/]
  8774				;&.SKIP 1
  8775				;&ERROR 12: ERROR IN BILLING FILE
  8776					[ASCIZ /BILLING FILE ERROR.
  8777	020223'	000000	023742'	/]
  8778				;&.SKIP 1
  8779				;&ERROR 13: TABLE OVERFLOW
  8780					[ASCIZ /TABLE OVERFLOW.
  8781	020224'	000000	023747'	/]
UPDLUD - ACCTG., LUD UPDATER	MACRO 12.5-46.0 17:15 19-SEP-89 PAGE 192
UPDLUD.MAC	24-MAY-89 18:55		ERROR MESSAGES

  8782				;&.SKIP 1
  8783				;&ERROR 14: FILE BUSY
  8784					[ASCIZ /SOME FILE IS BUSY.  TRY LATER.
  8785	020225'	000000	023753'	/]
  8786				;&.SKIP 1
  8787				;&ERROR 15: ILLEGAL VALUE ENTERED
  8788					[ASCIZ /ILLEGAL VALUE INPUT.
  8789	020226'	000000	023762'	/]
  8790				;&.SKIP 1
  8791				;&ERROR 16: ERROR IN DELETING FILES OR UFD
  8792					[ASCIZ /ERROR IN DELETING FILES OR UFD.
  8793	020227'	000000	023767'	/]
  8794				;&.SKIP 1
  8795				;&ERROR 17: NOT USED
  8796					[ASCIZ /USER CANNOT BE ENTERED UNTIL NEXT BILLING PERIOD.
  8797	020230'	000000	023776'	/]
  8798				;&.SKIP 1
  8799				;&ERROR 20: ILLEGAL CODE ENTERED
  8800					[ASCIZ /BAD COMMAND - SLAVE WILL RETURN BAD COMMAND.
  8801
  8802	020231'	000000	024011'	/]
  8803				;&.SKIP 1
  8804				;&ERROR 21: NOT USED
  8805					[ASCIZ /MISC. ERROR.
  8806	020232'	000000	024023'	/]
  8807				;&.SKIP 1
  8808				;&ERROR 22: LOOKUP OR ENTER ERROR
  8809					[ASCIZ /LOOKUP OR ENTER ERROR.
  8810	020233'	000000	024026'	/]
  8811				;&.SKIP 1
  8812				;&ERROR 23: INPUT OR OUTPUT ERROR
  8813					[ASCIZ /INPUT OR OUTPUT ERROR.
  8814	020234'	000000	024033'	/]
  8815				;&.SKIP 1
  8816				;&ERROR 24: INIT ERROR
  8817					[ASCIZ /INIT ERROR.
  8818	020235'	000000	024040'	/]
  8819				;&.SKIP 1
  8820				;&ERROR 25: ILLEGAL USER FOR THIS COMMAND
  8821					[ASCIZ /USER RESTRICTED FROM THIS COMMAND.
  8822	020236'	000000	024043'	/]
  8823				;&.SKIP 1
  8824				;&ERROR 26: ILLEGAL GAN OR UUN (ZERO)
  8825					[ASCIZ /ZERO GAN OR UUN.
  8826	020237'	000000	024053'	/]
  8827				;&.SKIP 1
  8828				;&ERROR 27: DUPLICATE ENTRIES FOUND
  8829					[ASCIZ /DUPLICATE ACCOUNTING ENTRY.
  8830	020240'	000000	024057'	/]
  8831				;&.SKIP 1
  8832				;&ERROR 30: USER SHOULD BE CANCELLED
  8833					[ASCIZ /USER SHOULD BE CANCELLED.
  8834	020241'	000000	024065'	/]
UPDLUD - ACCTG., LUD UPDATER	MACRO 12.5-46.0 17:15 19-SEP-89 PAGE 192-2
UPDLUD.MAC	24-MAY-89 18:55		ERROR MESSAGES

  8835				;&.SKIP 1
  8836				;&ERROR 31: NO NAME AND ADDRESS FOR THIS CUSTOMER
  8837					[ASCIZ /CANNOT FIND NAME AND ADDRESS FOR THIS CUSTOMER.
  8838	020242'	000000	024073'	/]
  8839					[ASCIZ /MISC. ERROR.
  8840	020243'	000000	024023'	/]
  8841				;&.SKIP 1
  8842				;&ERROR 33: THIS COMMAND MAY ONLY BE EXECUTED ON THE ACCOUNTING SYSTEM
  8843					[ASCIZ /MUST BE ON ACCTG. SYSTEM TO EXECUTE THIS COMMAND.
  8844	020244'	000000	024105'	/]
  8845				;&.SKIP 1
  8846				;&ERROR 34: USER IS ON 940 AND MAY NOT HAVE ITS CUST. NO CHANGED
  8847					[ASCIZ /USER IS VALID ON 940 AND MAY NOT HAVE IT CUST. NO. CHANGED.
  8848	020245'	000000	024120'	/]
  8849				;&.SKIP 1
  8850				;&ERROR 35: UUN-HOST IS ALLREADY THERE
  8851					[ASCIZ /UUN-HOST IS ALLREADY THERE.
  8852	020246'	000000	024135'	/]
  8853				;&.SKIP 1
  8854				;&ERROR 36: UUN-HOST NOT FOUND
  8855					[ASCIZ /UUN-HOST NOT FOUND.
  8856	020247'	000000	024143'	/]
  8857					[ASCIZ /MISC. ERROR.
  8858	020250'	000000	024023'	/]
  8859				;&.SKIP 1
  8860				;&ERROR 40: HOST IN TYMCNV NOT FOUND
  8861					[ASCIZ /HOST IN TYMCNV NOT FOUND.
  8862	020251'	000000	024150'	/]
  8863				;&.SKIP 1
  8864				;&ERROR 41: HOST ALLREADY IN TYMCNV NOT FOUND
  8865					[ASCIZ /HOST ALLREADY IN TYMCNV.
  8866	020252'	000000	024156'	/]
  8867				;&.SKIP 1
  8868				;&ERROR 42: REQUEST CANNOT BE CANCELLED NOW.
  8869				;&	(USED FOR SYS 1 VALDATA UPDATE)
  8870					[ASCIZ /MISC ERROR.
  8871	020253'	000000	024164'	/]
  8872				;&.SKIP 1
  8873				;&ERROR 43: ILLEGAL REQUEST TYPE (USED FOR SYS 1 VALDATA UPDATE)
  8874					[ASCIZ /MISC ERROR.
  8875	020254'	000000	024164'	/]
  8876				;&.SKIP 1
  8877				;&ERROR 44: MAIL NAME MAY NOT BE CANCELLED NOW
  8878					[ASCIZ /MAIL NAME MAY NOT BE CANCELLED UNTIL ALL NAMES ARE CHANGED.
  8879	020255'	000000	024167'	/]
  8880				;&.SKIP 1
  8881				;&ERROR 45: INVALID ACCT.SYS.TYP. FOR THIS COMMAND
  8882				        [ASCIZ /ILLEGAL AST FOR THIS COMMAND.
  8883	020256'	000000	024204'	/]
  8884				;&.SKIP 1
  8885				;&ERROR 46: NEW GAN DOESN'T BELONG TO USER'S DISTRICT
  8886				        [ASCIZ /NEW GAN DOESN'T BELONG TO USER'S DISTRICT.
  8887	020257'	000000	024213'	/]
UPDLUD - ACCTG., LUD UPDATER	MACRO 12.5-46.0 17:15 19-SEP-89 PAGE 193
UPDLUD.MAC	24-MAY-89 18:55		STORAGE

  8888				SUBTTL STORAGE
  8889
  8890				;CONSTANTS
  8891	020260'	000001	042313	CUD10:	XWD 1,42313	;CUD10 PPN
  8892	020261'	000001	000001	UFDPPN:	XWD 1,1		;UFD PPN
  8893	020262'	000003	000002	STRARG:	XWD 3,B
  8894	020263'			UFDFIL:	BLOCK 40
  8895	020323'	446353	420000	DSKB:	SIXBIT /DSKB/
  8896	020324'	544000	000000	YES:	ASCIZ /Y/
  8897	020325'	471004	020100	NO:	ASCIZ /N    /
	020326'	000000	000000
  8898	020327'	472132	720000	NEWMSG:	ASCIZ /NEW /
  8899	020330'	777777	777777	MONE:	-1
  8900	020331'	000000	000000	ZERO:	0
  8901	020332'	000000	000001	ONE:	1
  8902	020333'	000000	000002	TWO:	2
  8903	020334'	000000	000003	THREE:	3
  8904	020335'	000000	000177	STCORE:	177	;STANDARD DEFAULT CORE AMOUNT(256K)
  8905	020336'	000000	000040	SPACE:	40	;ASCII SPACE
  8906	020337'	000000	000050	LPAREN:	50	;LEFT PARENTHESIS
  8907	020340'	000000	000051	RPAREN:	51	;RIGHT PARENTHESIS
  8908	020341'	000000	000057	SLASH:	57	;SLASH
  8909	020342'	000000	000054	COMMA:	54	;COMMA
UPDLUD - ACCTG., LUD UPDATER	MACRO 12.5-46.0 17:15 19-SEP-89 PAGE 194
UPDLUD.MAC	24-MAY-89 18:55		BYTE POINTERS

  8910				SUBTTL BYTE POINTERS
  8911				;BYTE POINTERS...
  8912	020343'	440603	022415'	NAMPTR:	POINT 6,DULBLK+1(C)
  8913	020344'	001012	022101'	DISBP:	POINT 8,LUDBLK+1(INDEX),35	;DISTRICT
  8914	020345'	370112	022102'	TRUPTR:	POINT 1,LUDBLK+2(INDEX),4	;TRU BIT
  8915	020346'	000712	022102'	NENTP:	POINT 7,LUDBLK+2(INDEX),35	;POINTS TO NO. OF WDS IN RECORD
  8916	020347'	100112	022102'	INIPTR:	POINT 1,LUDBLK+2(INDEX),27	;POINTER TO INIT FILE BIT
  8917	020350'	340612	022103'	ZONEBP:	POINT 6,LUDBLK+3(INDEX),7	;LUD TIME ZONE POINTER
  8918	020351'	440612	022105'	INPPTR:	POINT 6,LUDBLK+5(INDEX)	;POINTER TO USER NAME OF INIT FILE
  8919	020352'	440612	022106'	INNPTR:	POINT 6,LUDBLK+6(INDEX)	;POINTER TO PROGRAM NAME OF INIT FILE
  8920	020353'	050100	023051'	DSTBYT:	POINT 1,ZONE,30	;DAYLIGHT BIT
  8921	020354'	440600	023047'	WDPTR:	POINT 6,WD
  8922	020355'	430100	022041'	NLOGBIT: POINT 1,MISC,0
  8923	020356'	420100	022041'	NMSGBIT: POINT 1,MISC,1
  8924	020357'	410100	022041'	RUBBIT: POINT 1,MISC,2
  8925	020360'	400100	022041'	GFDBIT: POINT 1,MISC,3
  8926	020361'	370100	022041'	TRUBIT: POINT 1,MISC,4
  8927	020362'	200100	022042'	TIMBIT: POINT 1,PRIV,19
  8928	020363'	170100	022042'	DETBIT: POINT 1,PRIV,20
  8929	020364'	160100	022042'	TYMBIT:	POINT 1,PRIV,21
  8930	020365'	150100	022042'	ASBIT:	POINT 1,PRIV,22
  8931	020366'	110100	022042'	RCMBIT: POINT 1,PRIV,26
  8932	020367'	070200	022042'	MODBIT:	POINT 2,PRIV,28
  8933	020370'	270100	023047'	NLOGWD: POINT 1,WD,12
  8934	020371'	260100	023047'	NMSGWD: POINT 1,WD,13
  8935	020372'	250100	023047'	RUBWD:  POINT 1,WD,14
  8936	020373'	240100	023047'	GFDWD:  POINT 1,WD,15
  8937	020374'	230100	023047'	TRUWD:  POINT 1,WD,16
  8938	020375'	110100	023047'	TIMWD:  POINT 1,WD,26
  8939	020376'	100100	023047'	DETWD:  POINT 1,WD,27
  8940	020377'	070100	023047'	TYMWD:	POINT 1,WD,28
  8941	020400'	060100	023047'	ASWD:	POINT 1,WD,29
  8942	020401'	050100	023047'	BILWD:	POINT 1,WD,30
  8943	020402'	020100	023047'	RCMWD: POINT 1,WD,33
  8944	020403'	000200	023047'	MODWD:	POINT 2,WD,35
UPDLUD - ACCTG., LUD UPDATER	MACRO 12.5-46.0 17:15 19-SEP-89 PAGE 195
UPDLUD.MAC	24-MAY-89 18:55		BYTE POINTERS

  8945	020404'	000000	000005	DULLOK:	5
  8946	020405'	000001	000004	TST3:	XWD 1,4
  8947				;TST3:   0
  8948	020406'	446554	000000		SIXBIT/DUL/
  8949	020407'	637163	000000		SIXBIT/SYS/
  8950	020410'	000000	000000		0
  8951	020411'	000000	000000		0
  8952
  8953	020412'	777600	022077'	LUDLST:	IOWD 200,LUDBLK
  8954	020413'	000000	000000		0
  8955
  8956	020414'	777600	022413'	DULLST:	IOWD 200,DULBLK
  8957	020415'	000000	000000		0
  8958
  8959
  8960	020416'	000000	000005	LUDLOK:	5
  8961	020417'	000001	000004	TST4:	XWD 1,4
  8962				;TST4:   0
  8963				;TST4:   XWD     1,320663
  8964	020420'	546544	000000		SIXBIT/LUD/
  8965	020421'	637163	000000		SIXBIT/SYS/
  8966	020422'	000000	000000		0
  8967	020423'	000000	000000		0
  8968
  8969	020424'	000000	000005	CNTFIL:	5
  8970	020425'	000006	000214		XWD 6,214	;PJ
  8971	020426'	525742	630000		SIXBIT/JOBS/
  8972	020427'	444164	000000		SIXBIT/DAT/
  8973	020430'	000000	000000		0
  8974	020431'	000000	000000		0
  8975
  8976	020432'	000000	000005	FILNAM: 5
  8977	020433'	000001	042313	        XWD      1,42313
  8978	020434'	435144	000000	        SIXBIT/CID/
  8979	020435'	465154	000000	        SIXBIT/FIL/
  8980	020436'	000000	000000	        0
  8981	020437'	000000	000000	        0
  8982
  8983	020440'	000000	000014	OPNBLK: 14
  8984	020441'	446353	000000	        SIXBIT/DSK/
  8985	020442'	020446'	020443'	        XWD      OBUF,IBUF
  8986
  8987	020443'	000000	000000	IBUF:   0
  8988	020444'	000000	000000	IBPTR:  0
  8989	020445'	000000	000000	IBCT:   0
  8990
  8991	020446'	000000	000000	OBUF:   0
  8992	020447'	000000	000000	OBPTR:  0
  8993	020450'	000000	000000	OBCT:   0
  8994
  8995	020451'			DAST:	BLOCK 3	;KEEP TRACK OF WHICH AST'S HAVE BEEN DELETED
  8996
  8997	020454'	777600	020455'	BILLST: IOWD 200,BILBLK
UPDLUD - ACCTG., LUD UPDATER	MACRO 12.5-46.0 17:15 19-SEP-89 PAGE 195-2
UPDLUD.MAC	24-MAY-89 18:55		BYTE POINTERS

  8998	020455'	000000	000000		0
  8999	020456'			BILBLK:	BLOCK 200
  9000
  9001
  9002	020656'	777600	020657'	ACSADR: IOWD    200,ACSBUF
  9003	020657'	000000	000000	        0
  9004
  9005	020660'			ACSBUF: BLOCK   200
  9006			000200	BUFLN== .-ACSBUF
  9007
  9008
  9009			000314	SIZPAG==^D204
  9010	021060'	777464	022100'	FILINF:	-SIZPAG,,LUDBLK
  9011	021061'	120000	000000		SIXBIT /*/
  9012	021062'	120000	000000		SIXBIT /*/
  9013	021063'	000000	000000		0
  9014	021064'	000000	000000		0
  9015	021065'	000000	000000		0
  9016	021066'	000000	000000		0
  9017	021067'	000000	000000		0
UPDLUD - ACCTG., LUD UPDATER	MACRO 12.5-46.0 17:15 19-SEP-89 PAGE 196
UPDLUD.MAC	24-MAY-89 18:55		BYTE POINTERS

  9018				;DATA BASES
  9019	021070'	416532	352210	CUSTDB:	ASCIZ /CUSTDB/
	021071'	410000	000000
  9020	021072'	406110	451210	ADDRDB:	ASCIZ /ADDRDB/
	021073'	410000	000000
  9021	021074'	526470	551210	USERDB:	ASCIZ /USERDB/
	021075'	410000	000000
  9022	021076'	526473	151610	USYSDB:	ASCIZ /USYSDB/
	021077'	410000	000000
  9023	021100'	532031	442202	VALDB:	ASCIZ /VALDAT/
	021101'	520000	000000
  9024	021102'	442372	352210	HOSTDB:	ASCIZ /HOSTDB/
	021103'	410000	000000
  9025	021104'	406473	151610	ASTDB:	ASCIZ /ASYSDB/
	021105'	410000	000000
  9026	021106'	522631	544246	MAILDB:	ASCIZ /TYMHST/
	021107'	520000	000000
  9027	021110'	522631	541634	TRIPDB:	ASCIZ /TYMCNV/
	021111'	530000	000000
  9028	021112'	522532	351210	TUSRDB:	ASCIZ /TUSRDB/
	021113'	410000	000000
  9029
  9030	021114'	522631	552646	TYMUSR:	ASCIZ/TYMUSR/
	021115'	510000	000000
  9031
  9032	021116'	522631	541652	TYMCUS:	ASCIZ /TYMCUS/
	021117'	514000	000000
UPDLUD - ACCTG., LUD UPDATER	MACRO 12.5-46.0 17:15 19-SEP-89 PAGE 197
UPDLUD.MAC	24-MAY-89 18:55		BYTE POINTERS

  9033	021120'	000000	000000	DEVTB.:	0	;FOR X22
  9034	021121'			DYNDV.:	BLOCK ^D16	;FOR X22
  9035
  9036				;DATA BASE INFO BUFFERS
  9037	021141'			UINFO:	BLOCK MXUINF
  9038	021160'			USINFO:	BLOCK MXUSINF
  9039	021173'			VINFO:	BLOCK MXVINF
  9040	021202'			SITES:	BLOCK MXTHST
  9041	021512'	000000	000000		0	;FUDGE FOR SENDING SITES
  9042	021513'	000000	000000		0
  9043	021514'			CINFO:	BLOCK MXCINF
  9044	021545'			AINFO:	BLOCK MXAINF
  9045	021666'			HINFO:	BLOCK MXHINF
  9046	021674'			ASTINF:	BLOCK ^D75
  9047
  9048
  9049			000000	LINDEX==0
  9050			000001	HASH==1
  9051			000002	LBLK==2
  9052			000003	DINDEX==3
  9053			000004	DNAME==4
  9054			000006	DBLK==6
  9055			000007	PPN==7
  9056			000010	SITE==10
  9057			000011	ONAME==11
  9058			000013	OINDEX==13
  9059			000014	OHASH==14
  9060			000015	OBLK==15
  9061			000016	OCUST==16
  9062			000017	OAST==17
  9063	022007'	000000	000000	SAVORG:	0	;INDEX OF OLD LUD RECORD
  9064	022010'	000000	000000		0	;HASH OF OLD NAME
  9065	022011'	000000	000000		0	;BLK NO. OF OLD LUD RECORD
  9066	022012'	000000	000000		0	;INDEX OF OLD DUL RECORD
  9067	022013'	000000	000000		0	;FIRST HALF OF NAME
  9068	022014'	000000	000000		0	;SECOND HALF OF NAME
  9069	022015'	000000	000000		0	;BLK. NO OF OLD DUL RECORD
  9070	022016'	000000	000000		0	;SAVE LAST PPN FROM BILLING ENTRY
  9071	022017'	000000	000000		0	;SAVE LAST HOST FROM BILLING ENTRY
  9072	022020'	000000	000000		0	;OLDER USER NAME ON A CHANGE NAME
  9073	022021'	000000	000000		0
  9074	022022'	000000	000000		0	;INDEX FOR OLDER USER NAME ON A CHANGE NAME
  9075	022023'	000000	000000		0	;HASH FOR OLDER USER NAME ON A CHANGE NAME
  9076	022024'	000000	000000		0	;BLOCK NO. OF OLDER USER NAME ON A CHANGE NAME
  9077	022025'	000000	000000	OLDNUM:	0	;CUSTOMER NUMBER
  9078	022026'	000000	000000		0	;ACCOUNTING SYSTEM TYPE
  9079	022027'	000000	000000	OLDNAM:	0	;FIRST 5 CHARACTERS OF ORIG. USER'S NAME
  9080	022030'	000000	000000		0	;SECOND 5 CHARACTERS OR ORIG  NAME
  9081	022031'	000000	000000		0	;LAST 2 CHARS.
UPDLUD - ACCTG., LUD UPDATER	MACRO 12.5-46.0 17:15 19-SEP-89 PAGE 198
UPDLUD.MAC	24-MAY-89 18:55		ZERO THESE ELEMENTS BETWEEN RUNS

  9082				SUBTTL ZERO THESE ELEMENTS BETWEEN RUNS
  9083
  9084	022032'	000000	000000	ZERST:	0	;ZERO OUT EVERYTHING FROM HERE TO ZEREND
  9085	022033'			UNAME:	BLOCK	4	;USER NAME
  9086
  9087				;DO NOT SEPARATE THE NEXT 8 WORDS
  9088
  9089	022037'	000000	000000	LPPN:	0	;PPN
  9090	022040'	000000	000000	DIST:	0
  9091	022041'	000000	000000	MISC:	0
  9092	022042'	000000	000000	PRIV:	0
  9093	022043'	000000	000000	HUNAME:	0
  9094	022044'	000000	000000	STR:	0
  9095	022045'	000000	000000	QIN:	0
  9096	022046'	000000	000000	QOUT:	0
  9097	022047'	000000	000000	BUDGET:	0
  9098	022050'	000000	000000	INIFIL:	0
  9099	022051'			INIUSR:	BLOCK 2
  9100	022053'	000000	000000	SIZE: 0
  9101
  9102	022054'			ACBLK:	BLOCK 17
  9103	022073'			CID:    BLOCK   1
  9104	022074'			NNAME:	BLOCK	3	;NEW NAME
  9105	022077'	000000	000000	HNNAME:	0	;HASHED NEW NAME
  9106	022100'			LUDBLK:	BLOCK	SIZPAG
  9107	022414'			DULBLK:	BLOCK 200
  9108	022614'			CPCODE:	BLOCK 3
  9109	022617'			SAVLUD:	BLOCK	14
  9110	022633'	000000	000000	ZEREND:	0
  9111
  9112	022634'	777760	022634'	PDP:	XWD -20,.
  9113	022635'				BLOCK	21
  9114	022656'	000046	113177	TABD:	^D9999999	;A=0(TYPE 8 PLACES)
  9115	022657'	000003	641077		^D999999	;A=1(7 PLACES)
  9116	022660'	000000	303237		^D99999	;A=2(6 PLACES)
  9117	022661'	000000	023417		^D9999	;A=3(5 PLACES)
  9118	022662'	000000	001747		^D999	;A=4(4 PLACES)
  9119	022663'	000000	000143		^D99	;A=5(3 PLACES)
  9120	022664'	000000	000011		^D9	;A=6(2 PLACES)
  9121	022665'	000000	000000		0	;A=7(1 PLACE)
UPDLUD - ACCTG., LUD UPDATER	MACRO 12.5-46.0 17:15 19-SEP-89 PAGE 199
UPDLUD.MAC	24-MAY-89 18:55		DATA BASE POINTERS

  9122				SUBTTL DATA BASE POINTERS
  9123
  9124	022666'	440700	021525'	POBP:	POINT 7,CINFO+NPO
  9125	022667'	440700	021543'	FOCFBP: POINT 7,CINFO+NFOCF
  9126	022670'	440700	021547'	CNAMBP:	POINT 7,AINFO+NCUSNAM
  9127	022671'	440700	021562'	ATTNBP:	POINT 7,AINFO+NATTN
  9128	022672'	440700	021575'	STR1BP:	POINT 7,AINFO+NSTRT1
  9129	022673'	440700	021610'	STR2BP:	POINT 7,AINFO+NSTRT2
  9130	022674'	440700	021623'	CITYBP:	POINT 7,AINFO+NCITY
  9131	022675'	440700	021626'	STATBP:	POINT 7,AINFO+NSTATE
  9132	022676'	440700	021627'	ZIPBP:	POINT 7,AINFO+NZIP
  9133	022677'	440700	021631'	XLBP:	POINT 7,AINFO+NXL
  9134	022700'	440700	021644'	COUNBP:	POINT 7,AINFO+NCOUNTRY
UPDLUD - ACCTG., LUD UPDATER	MACRO 12.5-46.0 17:15 19-SEP-89 PAGE 200
UPDLUD.MAC	24-MAY-89 18:55		X22 CONSTANTS

  9135				SUBTTL X22 CONSTANTS
  9136
  9137	022701'	472370	346236	NOCLOS:	ASCIZ /NOCLOSE   /
	022702'	516124	020100
	022703'	000000	000000
  9138	022704'	462032	352100	LAST:	ASCIZ /LAST /
	022705'	000000	000000
  9139	022706'	000000	216527	NSTOP:	216527	;BINARY NULL STOP DATE
  9140	022707'	000000	000001	EQUALS:	1	;STANDS FOR '=' IN 1022
  9141	022710'	000000	000002	NEQUALS: 2	;STANDS FOR '#' IN 1022
  9142	022711'	000000	000001	X22AND:	1	;STANDS FOR 'AND' IN 1022
  9143	022712'	000000	000003	LESSTN:	3	;STANDS FOR 'LESS THAN' IN 1022
  9144	022713'	000000	000036	M940:	MAX940	;MAX 940 HOST
UPDLUD - ACCTG., LUD UPDATER	MACRO 12.5-46.0 17:15 19-SEP-89 PAGE 201
UPDLUD.MAC	24-MAY-89 18:55		X22 CONSTANTS

  9145	022714'	000000	000000	DBUUN:	0
  9146
  9147	022715'	000000	000003	TUNAME:	3	;USER NAME IN USERDB
  9148	022716'	000000	000001	TGAN:	1	;GAN IN USERDB, TUSRDB
  9149	022717'	000000	000005	TVGAN:	5	;GAN IN VALDAT
  9150	022720'	000000	000001	TUSUUN:	1	;UUN IN USYSDB,VALDAT,TYMHST
  9151	022721'	000000	000002	TUUUN:	2	;UUN IN USERDB, TUSRDB
  9152	022722'	000000	000001	TCCNUM:	1	;CUST. NO. IN CUSTDB, ADDRDB
  9153	022723'	000000	000005	TUCNUM:	5	;CUST. NO. IN USERDB, TUSRDB
  9154	022724'	000000	000022	TCCOCO: ^D18    ;COSTCODE IN CUSTDB
  9155	022725'	000000	000014	TUCOCO: ^D12    ;COSTCODE IN USERDB
  9156	022726'	000000	000003	TCDIST:	3	;DISTRICT IN CUSTDB
  9157	022727'	000000	000004	TUDIST:	4	;DISTRICT IN USERDB, TUSRDB
  9158	022730'	000000	000011	TUSSTP:	^D9	;STOP DATE FOR USYSDB
  9159	022731'	000000	000011	TUSTP:	^D9	;STOP DATE FOR USERDB
  9160	022732'	000000	000005	TCSTP:	5	;STOP DATE FOR CUSTDB
  9161	022733'	000000	000007	TUCSTP:	7	;STOP DATE FOR TUSRDB
  9162	022734'	000000	000004	TVSTP:	4	;STOP DATE FOR VALDAT, HOSTDB, TYMHST
  9163	022735'	000000	000002	TASYSC:	2	;ASYSCODE
  9164	022736'	000000	000023	TCFFF:  ^D19    ;FLAT FOCUS FEE FOR CUSTDB
  9165	022737'	000000	000006	TCDETC:	6	;DETAIL CODE FOR CUSTDB
  9166	022740'	000000	000007	TINVCO:	7	;INVCODE
  9167	022741'	000000	000012	TPO:	^D10	;PO
  9168	022742'	000000	000013	TPOMAX:	^D11	;POMAX
  9169	022743'	000000	000014	TPSTRT:	^D12	;PODSTART
  9170	022744'	000000	000015	TPSTOP:	^D13	;PODSTOP
  9171	022745'	000000	000017	TDFPRI: ^D15    ;DEF. PRICING CODE
  9172	022746'	000000	000002	TVHOST:	2	;HOST FOR VALDAT, TYMHST
  9173	022747'	000000	000003	TCNAM:	3	;CUSNAM
  9174	022750'	000000	000004	TATTN:	4	;ATTN
  9175	022751'	000000	000005	TSTRT1:	5	;STREET1
  9176	022752'	000000	000006	TSTRT2:	6	;STREET2
  9177	022753'	000000	000007	TCITY:	7	;CITY
  9178	022754'	000000	000010	TSTATE:	8	;STATE
  9179	022755'	000000	000011	TZIP:	9	;ZIP
  9180	022756'	000000	000013	TCOUNT:	^D11	;COUNTRY
  9181	022757'	000000	000012	TXL:	^D10	;XL
  9182	022760'	000000	000007	TLAN:	7	;LANCODE
  9183	022761'	000000	000005	TVDAYS:	5	;NO. OF DAYS IN TYUSR
  9184	022762'	000000	000002	TURCUS:	2
  9185	022763'	000000	000001	TRHOST:	1	;HOST IN TYMCNV, HOSTDB
  9186	022764'	000000	000003	TRSTP:	3	;DSTOP IN TYMCNV
  9187	022765'	000000	000003	TYNAME:	3	;USERNAME IN TUSRDB
  9188	022766'	000000	000010	TYMAIL:	8	;MAIL UUN IN TUSRDB
  9189
  9190			000001'	END	LUDUP+1
  9191
NO ERRORS DETECTED
PROGRAM BREAK IS 024224
6K CORE USED
UPDLUD - ACCTG., LUD UPDATER	MACRO 12.5-46.0 17:15 19-SEP-89 PAGE 202
UPDLUD.MAC	24-MAY-89 18:55		SYMBOL TABLE

A		000001		BADVAL		000655'		CHGC5		004061'		CID		022073'
ACBLK		022054'		BADX22		000626'		CHGC6		004040'		CINFO		021514'
ACSADR		020656'		BIGHST		014541'		CHGCUS		003766'		CINIT		015354'
ACSBUF		020660'		BILABL		022771'		CHGIT		011402'		CITOUT		011740'
ACTCMD		000400	SPD	BILBLK		020456'		CHGIT1		011410'		CITYBP		022674'
ACTSYS		000001	SPD	BILFIL		000014	SPD	CHGIT2		011411'		CKCCUS		004575'
ADDAST		005153'		BILLST		020454'		CHGIT3		011412'		CKCST		004076'
ADDDUL		000004	SPD	BILWD		020401'		CHINV		003010'		CKHOST		011220'
ADDENT		001022'		BITOUT		011522'		CHK1		013370'		CKMNHT		011202'
ADDIT		011372'		BLDAST		014550'		CHKA1		005524'		CKMNMC		010462'
ADDIT1		011377'		BLDHST		014505'		CHKA2		005525'		CKMNMU		010537'
ADDIT2		011400'		BP		000015		CHKA3		005523'		CKNAME		002332'
ADDOUT		011710'		BUDGET		022047'		CHKANS		005553'		CKTRIP		011212'
ADDRDB		021072'		BUDOUT		012121'		CHKCUS		013546'		CLRSIT		013374'
ADDSIT		003715'		BUFLN		000200	SPD	CHKD		015174'		CLRTMP		006276'
ADRUPD		000010	SPD	BYEBYE		000025'		CHKINF		013362'		CLSTMP		006317'
ADTOUT		012035'		C		000003		CHKJOB		001300'		CNALST		006130'
AFFIR		013424'		CANCNT		022772'		CHKONE		006007'		CNAMBP		022670'
AFIND		015564'		CANCS1		004630'		CHKTYM		007611'		CNAMOU		011704'
AGNLOC		022767'		CANCUS		004617'		CHLAN		005145'		CNCC1		004117'
AINDUL		000661'		CANUSR		004605'		CHLGAN		002140'		CNCCUS		004115'
AINFO		021545'		CANVAR		011540'		CHMNAM		010527'		CNCUS		004701'
AINIT		015361'		CCOOUT		011542'		CHN940		006210'		CNCUS1		004706'
ALHSTS		077777	SPD	CDTOD		014662'		CHNAM1		001676'		CNCUS2		005071'
ALLIOI		000100	SPD	CFIND		015503'		CHNAME		001574'		CNCUSR		004721'
ALLSET		005125'		CFINDA		015535'		CHNTUS		011255'		CNTALS		011265'
ALTMD		015047'		CH		000013		CHNU1		006114'		CNTCUS		010504'
ASBIT		020365'		CH9401		006244'		CHNUSR		006122'		CNTFIL		020424'
ASCIO		004000	SPD	CHADIS		006054'		CHONHT		006352'		CNTOUT		012102'
ASCOUT		015226'		CHANGE		000020	SPD	CHPBIT		001712'		COCOIN		012453'
ASITE		003720'		CHASLS		003016'		CHPO		003122'		CODE		022773'
AST		022770'		CHBDZ2		002065'		CHPOD1		003136'		COMMA		020342'
ASTDB		021104'		CHBUD		001754'		CHPOD2		003144'		COSCOD		022774'
ASTIII		000011	SPD	CHBUD2		001771'		CHPOMX		003130'		COUNBP		022700'
ASTINF		021674'		CHBUDZ		002027'		CHPSLS		003120'		COUOUT		011751'
ASTMAX		000003		CHCAD1		003170'		CHQUO		001733'		CPCODE		022614'
ASTOUT		012152'		CHCADD		003162'		CHSLS1		003052'		CPOUT		011553'
ASTTAB		003332'		CHCDIS		002650'		CHSLS2		003063'		CRLF		015242'
ASWD		020400'		CHCFFF		002773'		CHSLS5		003113'		CUD10		020260'
ASYSIN		012257'		CHCNAM		003152'		CHSLST		003062'		CUROUT		012070'
ATTNBP		022671'		CHCURR		004353'		CHTADS		011231'		CUSTDB		021070'
ATTOUT		011754'		CHCUST		006000'		CHTGAN		011344'		CUSTIN		012242'
AUNAME		017744'		CHDET		003002'		CHTNAM		010222'		CUSUPD		000004	SPD
AWYBLK		000017'		CHDIST		002106'		CHTUCS		011316'		CVGEND		004457'
AZONOU		011573'		CHDPRI		003214'		CHUDIS		004771'		CVGNXT		004443'
B		000002		CHDSEN		006071'		CHUFD		001662'		D		000004
BADBIL		000651'		CHDUL		000002	SPD	CHUGAN		004355'		D940O		011675'
BADCHR		015021'		CHEND		003157'		CHUNAM		003754'		DAST		020451'
BADCOD		000752'		CHGANS		005755'		CHUSLS		004124'		DATE	047000	000014
BADCUS		000647'		CHGC1		004013'		CHUUNS		005517'		DATERR		000624'
BADGAN		000724'		CHGC2		004042'		CHUUNT		005503'		DATIN		013317'
BADSIT		000645'		CHGC3		004063'		CHUZON		004476'		DATOUT		011656'
BADUSR		000672'		CHGC4		004050'		CHZONE		002122'		DAY		022775'
UPDLUD - ACCTG., LUD UPDATER	MACRO 12.5-46.0 17:15 19-SEP-89 PAGE 202-2
UPDLUD.MAC	24-MAY-89 18:55		SYMBOL TABLE

DBADDR		011377'	EXT	DLLSIT		005016'		FIXZON		012403'		GETRES		015141'
DBCHNG		011410'	EXT	DLNAST		005024'		FND		000620'		GETRFL		013273'
DBCLOS		023312'	EXT	DLNSIT		005005'		FNDACS		013633'		GETRFT		013277'
DBDATN		014673'	EXT	DLTACC		010246'		FNDSIT		014631'		GETSI1		012630'
DBDEL		023263'	EXT	DLTALT		010302'		FNDST0		014633'		GETSIT		012644'
DBEND		000743'	EXT	DLTANX		010265'		FNDST1		014643'		GETSLS		013063'
DBERR		000117'	EXT	DLTUUN		010326'		FOCFBP		022667'		GETSTA		013263'
DBFIND		016034'	EXT	DNAME		000004	SPD	GAN		023000'		GETSTO		013267'
DBGET		016006'	EXT	DONE		000513'		GANDEX		023001'		GETSTR		013105'
DBLK		000006	SPD	DSK		000017	SPD	GANIN		012176'		GETSYS		000516'
DBMAP		007771'	EXT	DSK1		000015	SPD	GANOUT		011564'		GETTAB	047000	000041
DBNDAT		014663'	EXT	DSKB		020323'		GECID2		002735'		GETTMP		006330'
DBNREC		016044'	EXT	DSKERR		000643'		GET1		013426'		GETTOD		014703'
DBOPEN		015420'	EXT	DSTBYT		020353'		GET940		015052'		GETTOM		014713'
DBSET		011013'	EXT	DTOCD		014672'		GETADD		012716'		GETTWO		015067'
DBSORT		015636'	EXT	DULADD		001142'		GETBIT		013577'		GETVPF		012502'
DBSTRT		000114'	EXT	DULAGN		001046'		GETBLK		000614'		GETWD		015024'
DBSYSV		000130'	EXT	DULBLK		022414'		GETBUD		013200'		GETWD1		015026'
DBUUN		022714'		DULCH		001201'		GETCID		002727'		GETYN		013416'
DECDON		015002'		DULDEL		001252'		GETCUR		013152'		GETZIP		013077'
DECOCT		013334'		DULEND		001061'		GETDAY		013251'		GETZON		012361'
DELADD		010000	SPD	DULERR		000762'		GETDET		012544'		GFDBIT		020360'
DELENT		001025'		DULFR3		001172'		GETDIS		012436'		GFDWD		020373'
DELERR		000657'		DULFRE		001160'		GETDPR		012511'		GNWNAM		012275'
DELFIL		001274'		DULLOK		020404'		GETDUL		000540'		GNXSYS		014535'
DELGAN		002453'		DULLST		020414'		GETFF2		012423'		GOBAK		013634'
DELIT		001227'		DUPERR		000676'		GETFFF		012416'		GSTINV		013035'
DELIT1		011366'		DYNDV.		021121'	INT	GETFLG		013305'		GTACUS		007013'
DELLIT		011362'		E		000005		GETFLT		013311'		GTAHST		012613'
DELNAM		001221'		ENDLUD		001034'		GETFR2		013442'		GTALL		005446'
DELNXT		002457'		ENDTYD		000002	SPD	GETFR3		013462'		GTALL1		005452'
DELSIT		004500'		EQUALS		022707'		GETFR4		013446'		GTALLU		005130'
DELTMP		006203'		ERON9		000706'		GETFRE		013431'		GTBADS		012662'
DELUFD		001353'		ERRCOD		022776'		GETINI		013215'		GTCOCC		012603'
DELUUN		004773'		ERRF		000020	SPD	GETLAN		012524'		GTCOCT		012607'
DERR		001366'		ERROUT		000746'		GETLAS		000601'		GTCOCU		012605'
DETBIT		020363'		EXIT	047000	000012		GETLIN		012770'		GTGANS		005757'
DETOUT		011772'		F		000000		GETLUD		000526'		GTHSTS		005465'
DETWD		020376'		F1HOST		005531'		GETMIN		012557'		GTMAIL		013206'
DEVTB.		021120'	INT	FFFEQN		012433'		GETMIS		013165'		GTNLUD		012611'
DFIL		000013	SPD	FFFOUT		011546'		GETNAM		012664'		GTRESM		012537'
DIDIT		001043'		FILBZY		000653'		GETNUM		015071'		GTTALL		010512'
DIDIT2		001067'		FILINF		021060'		GETNXT		015101'		GTUNAM		012233'
DIDIT3		001070'		FILLIN		015040'		GETONE		015066'		GTYINF		013224'
DIGINF		000040	SPD	FILNAM		020432'		GETPB2		012336'		GTZON2		012401'
DINDEX		000003	SPD	FILSIT		015633'		GETPBT		012304'		HAL01		011507'
DISBP		020344'		FINDMH		015656'		GETPD1		013013'		HALVOT		011503'
DISOUT		011516'		FINDUL		001127'		GETPD2		013023'		HASH		000001	SPD
DIST		022040'		FINSYS		000203'		GETPMX		013001'		HASHER		015301'
DIST2		012443'		FINUFD		001371'		GETPO		012572'		HELPMS		016052'
DISTAB		000252'		FIRSTF		022777'		GETPRC		013126'		HIBER	047000	000072
DLAST		005020'		FIXCH		006710'		GETPRI		013050'		HINFO		021666'
DLLAST		005037'		FIXDEL		006470'		GETREC		013256'		HLOC		023002'
UPDLUD - ACCTG., LUD UPDATER	MACRO 12.5-46.0 17:15 19-SEP-89 PAGE 202-3
UPDLUD.MAC	24-MAY-89 18:55		SYMBOL TABLE

HLOCSV		023003'		LASBAK		000612'		LPAREN		020337'		MAIADD		010571'
HNNAME		022077'		LASBLK		023012'		LPO		007205'		MAIAOK		010627'
HOST		023004'		LASHOS		023013'		LPOMAX		007207'		MAILDB		021106'
HOSTB		023005'		LAST		022704'		LPOSTA		007211'		MAILOU		011765'
HOSTDB		021102'		LASTNX		003312'		LPOSTO		007213'		MAILST		011033'
HSTASY		011354'		LATTN		007225'		LPPN		022037'		MAIREM		010640'
HSTLST		013664'		LAUHD1		007072'		LSC1		005415'		MAIROK		010711'
HUNAME		022043'		LAUMNM		010402'		LSCSYS		005403'		MAKDAT		014645'
IBCT		020445'		LAUSC1		004273'		LSGAN		006022'		MANAME		020030'
IBPTR		020444'		LAUSD1		003544'		LSGANN		002473'		MANNDT		017775'
IBUF		020443'		LBLK		000002	SPD	LSTAL1		004147'		MARCM		020110'
IDATE		023006'		LCDET		007173'		LSTAL2		004175'		MARUB		020100'
IERC		023007'		LCDIS		007170'		LSTATE		007221'		MAS		020073'
IERT		023010'		LCINV		007176'		LSTHST		006771'		MATYM		020033'
ILLAST		000722'		LCITY		007217'		LSTNX1		004163'		MAX940		000036	SPD
INCH		014770'		LCMIN		007200'		LSTNXT		004136'		MAXCCO	000003	641077	SPD
INDEX		000012		LCOUN		007223'		LSTREE		007215'		MAXCOD		000241	SPD
INFOUT		002314'		LCSLS		007202'		LSTTMP		006175'		MAXCUR		001747	SPD
INIERR		000664'		LCUSTN		007557'		LSTU		002103'		MAXCUS		303237	SPD
INIFIL		022050'		LDCUST		007054'		LSTUAC		005751'		MAXDET		001747	SPD
INIOUT		012127'		LDEFP		007227'		LSTUSR		005647'		MAXDIS		000377	SPD
INIPTR		020347'		LEERR		000666'		LSTUUN		005441'		MAXFFF		000001	SPD
INITF		000400	SPD	LESSTN		022712'		LSUG1		005255'		MAXINV		001747	SPD
INITIA		000062'		LETGO		001442'		LSUG2		005263'		MAXLAN		000143	SPD
INITMP		006255'		LETGO1		001444'		LSUG3		005264'		MAXMIN		000143	SPD
INIUSR		022051'		LGNCCO		007616'		LSUG4		005303'		MAXPC		001747	SPD
INNPTR		020352'		LGNCST		003361'		LSUGSY		005244'		MAXSLS		000143	SPD
INPPTR		020351'		LGNIII		003417'		LSUSYS		005313'		MAXZON		000034	SPD
INVOUT		012003'		LHST1		006741'		LTYM1		010417'		MBUD		020144'
IOERR		000670'		LINDEX		000000	SPD	LTYMNT		010561'		MCOST		020012'
ISITE		023011'		LISALL		002067'		LUAST		003335'		MCSTNO		017746'
JACCT		000001	SPD	LISAST		003304'		LUCIII		005654'		MCURR		020122'
JBTSTS		000000	SPD	LISCMD		000002	SPD	LUCST1		006776'		MDET		017755'
JOB41		000116'	EXT	LISCUS		003222'		LUCURR		007663'		MDIST		017752'
JOBVER		000137		LISGAN		002240'		LUCUST		005560'		MDPR		020132'
L1		002741'		LISHST		002475'		LUDBLK		022100'		MDST		020050'
L1DIS		007526'		LISLUD		002220'		LUDIST		007732'		MFOCF		020015'
L2		002745'		LISNAM		003265'		LUDLOK		020416'		MGAN		020021'
L3		002751'		LIST		001000	SPD	LUDLST		020412'		MGFD		020116'
L4		002761'		LISTAL		004126'		LUDUP		000000'		MHFIND		015701'
L5		002763'		LISTUU		010343'		LUDUP1		000137'		MHFND		000710'
LAAST		007074'		LISTYM		007324'		LUGAN		005703'		MHINIT		015373'
LACCD1		007667'		LISUCU		005232'		LUHCST		003357'		MHLIST		010726'
LACST1		007110'		LISUUN		005325'		LUSLS		007606'		MHLLST		010746'
LACUC1		004201'		LLANG		007735'		LUTGAN		011160'		MHLNXT		010757'
LACUC3		004230'		LNACC		005735'		LZIP		007231'		MHNEXT		011060'
LACUD1		003460'		LNUIII		005670'		LZONE		007665'		MHNFND		000712'
LACUD2		003476'		LNUSR		005625'		LZONOU		011570'		MHNXT		011013'
LACUD3		003501'		LOKCUS		001000	SPD	M2SPAC		020065'		MHOST		020171'
LACUST		007101'		LOKSTR		001431'		M940		022713'		MINCCO		000000	SPD
LAHOST		006735'		LOKUUN		002000	SPD	MAAS		020066'		MINCUR		000001	SPD
LALTYM		007474'		LOOPA		005114'		MADST		020044'		MINCUS		000001	SPD
LANOUT		012075'		LP		013625'		MAGFD		020114'		MINDET		000001	SPD
UPDLUD - ACCTG., LUD UPDATER	MACRO 12.5-46.0 17:15 19-SEP-89 PAGE 202-4
UPDLUD.MAC	24-MAY-89 18:55		SYMBOL TABLE

MINDIS		000000	SPD	MUCHN		010020'		NCUSNU		000000	SPD	NSITES		023020'
MINFFF		000000	SPD	MUCNA		010026'		NDPRI		000023	SPD	NSTATE		000061	SPD
MININV		000001	SPD	MUCNA1		010040'		NDST		000006	SPD	NSTOP		022706'
MINIT		020146'		MUGAN1		010154'		NEG		013423'		NSTRT1		000030	SPD
MINLAN		000001	SPD	MULLUD		002335'		NENTP		020346'		NSTRT2		000043	SPD
MINMIN		000001	SPD	MULST		010117'		NENTRY		023016'		NSYSTA		000007	SPD
MINOUT		011776'		MULUD1		002362'		NEQUAL		022710'		NSYSTO		000010	SPD
MINPC		000001	SPD	MUNAME		020025'		NEWCRC		002652'		NTCOST		000014	SPD
MINSIT		000001	SPD	MUNXT		010041'		NEWCUS		002516'		NTCREC		000001	SPD
MINSLS		000000	SPD	MUUN		020023'		NEWF		000040	SPD	NTHERE		000704'
MINV		020004'		MUUSR1		010152'		NEWHST		023017'		NTMUUN		000011	SPD
MISC		022041'		MXAINF		000121	SPD	NEWMSG		020327'		NTRHST		000000	SPD
MISOUT		012107'		MXCINF		000031	SPD	NEWNAM		001460'		NTRSTA		000001	SPD
MKNCUS		002655'		MXHINF		000006	SPD	NEWURC		002671'		NTRSTO		000002	SPD
MKNTYM		010234'		MXTHST		000310	SPD	NEWUSR		002710'		NTSTAR		000007	SPD
MKNUS		002713'		MXTHSX		000311	SPD	NEWUUN		003630'		NTSTOP		000010	SPD
MKNUSR		002674'		MXUINF		000017	SPD	NFOCF		000027	SPD	NTUDAY		000004	SPD
MLANG		020126'		MXUSIN		000013	SPD	NGAN		000000	SPD	NUCOST		000015	SPD
MLSTH		011030'		MXVINF		000007	SPD	NGANIN		002253'		NUCUSN		000006	SPD
MMIN		017760'		MZONE		020041'		NGNCCO		007645'		NUDIST		000005	SPD
MMISC		020137'		N		000006		NHHOST		000000	SPD	NUM01		015166'
MMODE		020120'		N1		000007		NHOST		000001	SPD	NUM02		015162'
MNDAYS		020173'		N2		000010		NLALST		010456'		NUM940		015123'
MNVALD		000720'		N3		000011	SPD	NLANG		000010	SPD	NUMBAD		015116'
MO		023014'		NACCD1		007716'		NLAUM1		010454'		NUMOUT		015151'
MODBIT		020367'		NACUC1		004254'		NLAUMN		010431'		NUMRET		023021'
MODES		014753'		NACUD1		003525'		NLHST		002512'		NUNAME		000002	SPD
MODWD		020403'		NACUSN		000000	SPD	NLOGBI		020355'		NUSLSM		000002	SPD
MONE		020330'		NAMESO		000100	SPD	NLOGWD		020370'		NUSTAR		000011	SPD
MPCODE		020054'		NAMOUT		011760'		NMHOST		000001	SPD	NUSTOP		000012	SPD
MPO		017763'		NAMPTR		020343'		NMHUUN		000000	SPD	NUSUUN		000000	SPD
MPOMAX		017764'		NANNDT		000030	SPD	NMSGBI		020356'		NUSYSC		000001	SPD
MPOSTA		017766'		NASTS		023015'		NMSGWD		020371'		NUUN		000001	SPD
MPOSTO		017772'		NASTYP		000001	SPD	NNAME		022074'		NUUNS		023022'
MPRI		020001'		NASYSC		000001	SPD	NNLUDH		000016	SPD	NUZONE		000005	SPD
MPRIV		020151'		NATTN		000015	SPD	NO		020325'		NVGAN		000004	SPD
MPRIV1		020154'		NAUSC1		004324'		NOADDR		000702'		NVPF		000022	SPD
MPRIV2		020162'		NAUSD1		003574'		NOAST		004537'		NVSTAR		000002	SPD
MQIN		020057'		NCANCS		004672'		NOCLOS		022701'		NVSTOP		000003	SPD
MQOUT		020062'		NCCOST		000026	SPD	NOCR		001000	SPD	NWCS1		002545'
MRCM		020112'		NCDETC		000005	SPD	NOFIT		013506'		NWTUUN		010156'
MRCUST		020202'		NCDIST		000002	SPD	NOG1		000735'		NXL		000064	SPD
MRUB		020106'		NCDSTA		000003	SPD	NOG2		000741'		NXT		002247'
MSG1		020212'		NCDSTO		000004	SPD	NOGOOD		000726'		NXTACT		007127'
MSLS		020007'		NCHGAN		004475'		NOHSTS		020000	SPD	NXTAST		014564'
MSTART		020207'		NCINVC		000006	SPD	NONE		001115'		NXTCCD		007727'
MTYM		020036'		NCITY		000056	SPD	NOTFND		000622'		NXTDIG		015010'
MUAGAN		010123'		NCMINC		000010	SPD	NPO		000011	SPD	NXTFIL		001335'
MUALGN		007737'		NCOUNT		000077	SPD	NPOMAX		000017	SPD	NXTG1		003414'
MUALL		007766'		NCSLS		000007	SPD	NPOSTA		000020	SPD	NXTGAN		002275'
MUALL1		007767'		NCSYSC		000001	SPD	NPOSTO		000021	SPD	NXTGCO		007660'
MUALUD		002365'		NCURR		000007	SPD	NPRICO		000003	SPD	NXTGN		003401'
MUAUSR		007762'		NCUSNA		000002	SPD	NRES		000004	SPD	NXTGRP		001327'
UPDLUD - ACCTG., LUD UPDATER	MACRO 12.5-46.0 17:15 19-SEP-89 PAGE 202-5
UPDLUD.MAC	24-MAY-89 18:55		SYMBOL TABLE

NXTHS1		015651'		PRIOUT		012056'		SDIST		023034'		SZCOUN		000005	SPD
NXTHST		015640'		PRIV		022042'		SELHST		010000	SPD	SZFOCF		000001	SPD
NXTS		004525'		QIN		022045'		SENDEN		013530'		SZPO		000036	SPD
NXTSIT		011645'		QOUT		022046'		SENDOK		013540'		SZSTAT		000002	SPD
NXTSYS		014524'		RCMBIT		020366'		SETAST		003324'		SZZIP		000005	SPD
NXTTDC		011266'		RCMWD		020402'		SETBUD		001541'		TABD		022656'
NXTTG1		003455'		RDBLK		002264'		SETCU1		007457'		TASYSC		022735'
NXTTGN		003442'		RDTMP		006345'		SETCU2		007466'		TATTN		022750'
NXTTMP		006135'		RDXPRT		015200'		SETCUS		007431'		TCCNUM		022722'
NXTU		002071'		REMSIT		004757'		SETDAY		007411'		TCCOCO		022724'
NZIP		000062	SPD	RENUFD		002175'		SETDEX		001112'		TCDETC		022737'
OAST		000017	SPD	RESET	047000	000000		SETJAL	047000	777757		TCDIST		022726'
OBCT		020450'		RESOUT		012063'		SETMOD	047000	777752		TCFFF		022736'
OBLK		000015	SPD	RET0		015534'		SETTY1		007263'		TCFIND		016033'
OBPTR		020447'		RET1		015533'		SETTYM		007233'		TCITY		022753'
OBUF		020446'		RETIT		013646'		SETUP1		000230'		TCNAM		022747'
OCTDEC		013347'		REVBIL		006373'		SETUPC		000236'		TCOCIN		012467'
OCTINF		000010	SPD	REVIT		000100	SPD	SETUPL		000210'		TCOUNT		022756'
OCTOUT		015214'		REVLUD		006423'		SHAKE		000031'		TCSTP		022732'
OCUST		000016	SPD	RND		015323'		SHIT		015252'		TDAY		023036'
OHASH		000014	SPD	RND1		015327'		SHIT1		015256'		TDFPRI		022745'
OINDEX		000013	SPD	RND2		015340'		SHORTS		002000	SPD	TGAN		022716'
OLDCOD		023023'		ROVBL1		000571'		SIT01		011651'		THREE		020334'
OLDHST		023024'		ROVBLK		000557'		SITE		000010	SPD	TIMBIT		020362'
OLDNAM		022027'		RPAREN		020340'		SITES		021202'		TIMWD		020375'
OLDNEW		012675'		RUBBIT		020357'		SITOUT		011642'		TINCH		014775'
OLDNUM		022025'		RUBWD		020372'		SIXNAM		012235'		TINIT		015400'
OLLCOD		023025'		RUN	047000	000035		SIZE		022053'		TINVCO		022740'
ONAME		000011	SPD	RVADDS		006550'		SIZLIN		000063	SPD	TLAN		022760'
ONE		020332'		RVADDU		006630'		SIZNAM		000014	SPD	TMON		023037'
ONEOUT		015146'		RVAU1		006641'		SIZPAG		000314	SPD	TMPCUS		023040'
ONESIT		000001	SPD	RVCHUN		006561'		SLASH		020341'		TMPDEX		023041'
OPLUD		000523'		RVDELS		006571'		SLEEP	047000	000031		TMPEND		006313'
OPNBLK		020440'		RVDELT		006657'		SLSOUT		011560'		TMPNAM		023042'
ORGSAV		001554'		RVDELU		006650'		SNDEN2		013534'		TODAY		023043'
ORGSV1		001563'		RVNC1		006516'		SNOLOG		001550'		TPO		022741'
OUCH		014757'		RVNCST		006501'		SPACE		020336'		TPOMAX		022742'
OUTCHR	051040	000000		RVNEWT		006651'		SPAOUT		015247'		TPSTOP		022744'
OUTSTR	051140	000000		RVNEWU		006522'		SSYSUP		002640'		TPSTRT		022743'
OVBLK		023026'		RVNU1		006535'		STAOUT		011743'		TRFIND		015747'
OVFLF		400000	SPD	RVNU2		006542'		STATBP		022675'		TRFND		000714'
P		000017		SADUPD		002630'		STCORE		020335'		TRHOST		022763'
PB940O		011452'		SAVB		013656'		STOUT		011724'		TRIADD		011071'
PBOUT		011420'		SAVB1		013660'		STPTYM		007302'		TRIDEL		011110'
PDP		022634'		SAVBP		023027'		STR		022044'		TRILIS		011127'
PJOB	047000	000030		SAVC		023030'		STR1BP		022672'		TRINXT		011147'
POBP		022666'		SAVCH		023031'		STR2BP		022673'		TRIPDB		021110'
POMOUT		012016'		SAVEB		023032'		STRARG		020262'		TRNFND		000716'
POOUT		012010'		SAVF		023033'		STROUT		011615'		TRSTP		022764'
POSTAO		012023'		SAVIT		013635'		STRUUO	047000	000050		TRUBIT		020361'
POSTOO		012030'		SAVLUD		022617'		SUSUPD		002621'		TRUF		002000	SPD
PPN		000007	SPD	SAVORG		022007'		SYSTEM		023035'		TRUPTR		020345'
PPNOUT		011414'		SCUPD		002611'		SZCITY		000015	SPD	TRUWD		020374'
UPDLUD - ACCTG., LUD UPDATER	MACRO 12.5-46.0 17:15 19-SEP-89 PAGE 202-6
UPDLUD.MAC	24-MAY-89 18:55		SYMBOL TABLE

TRYAGN		000041'		UNLOK		000004	SPD	ZONES		014720'
TST1		000517'		UPBAK		011367'		ZONOUT		011576'
TST2		002254'		UPDACS		013606'
TST3		020405'		USERCM		012212'
TST4		020417'		USERDB		021074'
TSTATE		022754'		USERIN		012157'
TSTRT1		022751'		USFIND		015452'
TSTRT2		022752'		USFNDA		005055'
TTYOUT		000010	SPD	USINFO		021160'
TUCNUM		022723'		USINIT		015342'
TUCOCO		022725'		USRLFT		000700'
TUCSTP		022733'		USRUPD		000020	SPD
TUCUST		023044'		USYSDB		021076'
TUDIST		022727'		USYSUP		000040	SPD
TUFIND		016013'		UUNIN		012160'
TUNAME		022715'		V1FIND		004724'
TURCUS		022762'		VALDB		021100'
TUSNUM		010305'		VFIND		015630'
TUSRDB		021112'		VFINDA		015611'
TUSSTP		022730'		VINFO		021173'
TUSTP		022731'		VINIT		015366'
TUSUUN		022720'		VPFOUT		011531'
TUUUN		022721'		WAITF		100000	SPD
TVDAYS		022761'		WATTLD		014616'
TVGAN		022717'		WATTLP		014610'
TVHOST		022746'		WATTYP		014600'
TVSTP		022734'		WD		023047'
TWO		020333'		WDPTR		020354'
TWOOUT		015147'		WDS1		015237'
TXL		022757'		WDSOUT		015227'
TYCINI		015417'		WRTMP		006303'
TYEAR		023045'		WTLOK		001425'
TYMAIL		022766'		WTTYP1		014624'
TYMBIT		020364'		WTTYP2		014625'
TYMCUS		021116'		WTTYP3		014621'
TYMREL		000002	SPD	X22AND		022711'
TYMSPC		000021	SPD	XLBP		022677'
TYMSYS		023046'		YEAR		023050'
TYMUSR		021114'		YES		020324'
TYMWD		020377'		YFIND		015766'
TYNAME		022765'		YINIT		015405'
TYUINI		015412'		YORN		013400'
TZIP		022755'		Z		000014
UCSOUT		012042'		ZEREND		022633'
UCUOUT		012051'		ZERO		020331'
UFD		000013	SPD	ZEROIT		013473'
UFDFIL		020263'		ZEROUT		015211'
UFDPPN		020261'		ZERST		022032'
UFIND		015424'		ZIPBP		022676'
UHSTO		011635'		ZIPOUT		011746'

UPDLUD - ACCTG., LUD UPDATER	MACRO 12.5-46.0 17:15 19-SEP-89
UPDLUD.MAC	24-MAY-89 18:55		Symbol cross reference

A	   107#	   314	   315	   316	   338	   339	   340	   344	   345	   346	   347	   348	   349	   350
	   351	   352	   356	   360	   364	   384	   387	   389	   391	   427	   429	   436	   437	   439
	   440	   445	   447	   449	   451	   453	   455	   457	   461	   463	   465	   470	   472	   474
	   488	   492	   708	   709	   711	   712	   725	   726	   728	   729	   733	   734	   775	   776
	   790	   791	   793	   794	   798	   799	   864	   865	   866	   867	   868	   899	   900	   906
	   907	   909	   911	   917	   927	   928	   951	   952	   954	   967	   968	   973	   974	   988
	   998	  1027	  1037	  1038	  1039	  1040	  1041	  1042	  1043	  1044	  1049	  1050	  1071	  1072
	  1073	  1074	  1075	  1076	  1077	  1078	  1079	  1080	  1082	  1083	  1092	  1093	  1095	  1096
	  1097	  1099	  1100	  1113	  1117	  1118	  1119	  1120	  1121	  1122	  1123	  1149	  1153	  1159
	  1160	  1161	  1162	  1171	  1175	  1177	  1180	  1206	  1207	  1208	  1209	  1210	  1211	  1212
	  1213	  1214	  1215	  1217	  1219	  1223	  1224	  1227	  1238	  1239	  1245	  1246	  1254	  1255
	  1258	  1259	  1261	  1262	  1275	  1276	  1277	  1280	  1281	  1282	  1296	  1297	  1298	  1299
	  1300	  1301	  1302	  1303	  1304	  1305	  1307	  1309	  1310	  1311	  1312	  1313	  1314	  1319
	  1320	  1321	  1322	  1323	  1327	  1328	  1329	  1335	  1336	  1338	  1339	  1344	  1345	  1346
	  1347	  1349	  1350	  1358	  1359	  1360	  1361	  1363	  1364	  1365	  1366	  1373	  1374	  1375
	  1376	  1390	  1391	  1397	  1415	  1416	  1417	  1418	  1427	  1428	  1429	  1431	  1432	  1433
	  1474	  1475	  1476	  1477	  1565	  1570	  1605	  1606	  1623	  1624	  1633	  1638	  1639	  1643
	  1644	  1645	  1646	  1726	  1727	  1816	  1817	  1822	  1823	  1850	  1851	  1852	  1854	  1855
	  1856	  1864	  1865	  1866	  1868	  1871	  1872	  1873	  1875	  1917	  1920	  1942	  1943	  1988
	  1993	  1999	  2005	  2009	  2014	  2018	  2024	  2028	  2034	  2054	  2061	  2072	  2079	  2089
	  2096	  2120	  2121	  2123	  2124	  2174	  2186	  2226	  2227	  2277	  2289	  2300	  2312	  2324
	  2340	  2341	  2372	  2506	  2507	  2724	  2729	  2734	  2745	  2746	  2749	  2769	  2778	  2779
	  2784	  2785	  2809	  2811	  2823	  2824	  2826	  2827	  2829	  2831	  2832	  2842	  2846	  2847
	  3130	  3189	  3191	  3193	  3195	  3198	  3199	  3204	  3209	  3210	  3247	  3250	  3251	  3259
	  3302	  3303	  3315	  3353	  3385	  3400	  3401	  3402	  3435	  3481	  3493	  3494	  3511	  3548
	  3549	  3559	  3564	  3701	  3845	  3846	  3983	  3985	  4027	  4028	  4033	  4034	  4051	  4052
	  4108	  4122	  4124	  4159	  4160	  4171	  4177	  4180	  4185	  4186	  4208	  4211	  4221	  4222
	  4223	  4261	  4262	  4265	  4267	  4269	  4271	  4273	  4275	  4277	  4279	  4281	  4290	  4291
	  4292	  4294	  4295	  4296	  4297	  4302	  4303	  4304	  4305	  4307	  4309	  4312	  4313	  4315
	  4329	  4330	  4331	  4332	  4333	  4334	  4337	  4338	  4339	  4340	  4341	  4342	  4356	  4357
	  4358	  4359	  4360	  4361	  4362	  4363	  4380	  4381	  4382	  4383	  4384	  4391	  4392	  4395
	  4401	  4402	  4403	  4404	  4428	  4435	  4436	  4437	  4438	  4439	  4440	  4457	  4458	  4466
	  4467	  4487	  4494	  4495	  4501	  4502	  4506	  4507	  4508	  4509	  4827	  4828	  4829	  4830
	  4836	  4837	  4838	  4840	  4841	  4851	  4856	  4858	  4863	  4873	  4876	  4883	  4892	  4899
	  4900	  4902	  4903	  4950	  4959	  4970	  4973	  4976	  4985	  4991	  4992	  4993	  4998	  5097
	  5302	  5303	  5331	  5409	  5410	  5413	  5414	  5431	  5445	  5446	  5451	  5456	  5486	  5528
	  5544	  5545	  5552	  5553	  5650	  5651	  5653	  5654	  5747	  5750	  5751	  5756	  5814	  5848
	  5849	  5850	  5851	  5884	  5885	  5886	  5943	  5944	  5949	  5968	  6050	  6051	  6054	  6064
	  6065	  6069	  6070	  6099	  6100	  6116	  6134	  6135	  6177	  6185	  6186	  6195	  6198	  6199
	  6207	  6211	  6212	  6269	  6270	  6271	  6272	  6273	  6274	  6275	  6276	  6277	  6278	  6279
	  6280	  6281	  6282	  6283	  6284	  6285	  6286	  6287	  6288	  6289	  6290	  6323	  6325	  6472
	  6473	  6488	  6489	  6490	  6819	  6820	  6821	  6822	  6823	  6824	  6825	  6826	  6827	  6828
	  6829	  6830	  6831	  6832	  6833	  6834	  6848	  6849	  6850	  6857	  6859	  7026	  7027	  7030
	  7038	  7039	  7042	  7052	  7053	  7056	  7062	  7236	  7237	  7266	  7267	  7269	  7270	  7339
	  7340	  7342	  7343	  7395	  7396	  7398	  7399	  7412	  7419	  7427	  7430	  7433	  7448	  7449
	  7453	  7454	  7456	  7459	  7481	  7489	  7519	  7520	  7521	  7522	  7523	  7524	  7525	  7526
	  7529	  7530	  7531	  7532	  7534	  7535	  7536	  7543	  7545	  7546	  7607	  7608	  7610	  7630
	  7642	  7643	  7644	  7645	  7649	  7653	  7654	  7655	  7656	  7659	  7662	  7663	  7664	  7665
	  7692	  7695	  7697	  7706	  7728	  7729	  7733	  7734	  7789	  7790	  7794	  7798	  7799	  7800
	  7911	  7913	  7918	  7921	  7922	  8006	  8044	  8048	  8050	  8146	  8156	  8393	  8394	  8396
	  8397	  8501
ACBLK	  7917	  7924	  7986	  9102#
ACSADR	  7623	  9002#
UPDLUD - ACCTG., LUD UPDATER	MACRO 12.5-46.0 17:15 19-SEP-89
UPDLUD.MAC	24-MAY-89 18:55		Symbol cross reference

ACSBUF	  7630	  7632	  9002	  9005#	  9006
ACTCMD	   440	   441	   512#	   540	   541	   543	   544	   545	   546	   547	   548	   549	   550	   551
	   552	   553	   554	   556	   557	   558	   559	   560	   561	   562	   563	   564	   565	   566
	   567	   568	   569	   570	   571	   572	   573	   574	   576	   577	   578	   580	   581	   583
	   584	   586	   587	   588	   589	   590	   591	   592	   593	   594	   595	   596	   597	   599
	   600	   601	   602	   603	   604	   605	   606	   607	   608	   609	   610	   611	   612	   613
	   614	   615	   616	   617	   618	   619	   621	   622	   623	   624	   625	   626	   627	   628
	   629	   630	   632	   633	   634	   636	   637	   638	   640	   644	   646	   648	   651	   653
	   655	   656	   657	   658	   659	   660	   661	   662	   663	   664	   665	   666	   667	   668
	   669	   670	   671	   672	   673	   674	   675	   676	   677	   679	   680	   683	   874	  6702
	  6717	  6855
ACTSYS	   124#	   388	   392	   442
ADDAST	   581	  3519#
ADDDUL	   125#	   766	   949	   955	  1317	  1648	  1878
ADDENT	   910	   927#
ADDIT	  1989	  1994	  2062	  2080	  2097	  2725	  2730	  2735	  2770	  3560	  3565	  4857	  4864	  4994
	  5332	  5432	  5457	  5757	  5950	  6195#
ADDIT1	  6198	  6200#
ADDIT2	  6195	  6201#
ADDOUT	  2413	  6500#
ADDRDB	  2576	  2952	  5012	  5034	  8187	  9020#
ADDSIT	   565	  2741#
ADRUPD	   449	   508#	   552	   553
ADTOUT	  2412	  6599#
AFFIR	  7475#	  7479
AFIND	   501	  1961	  2021	  2388	  2421	  3651	  4350	  5076	  5548	  8344#
AGNLOC	   800	  2341	  6186#	  6186	  6199	  6212
AINDUL	   824#	  1035
AINFO	  1988	  2325	  2344	  2346	  2348	  2350	  2352	  2354	  2356	  2358	  2609	  2611	  2616	  2991
	  2993	  2998	  3650	  4339	  4342	  4828	  4830	  4833	  4837	  4851	  4856	  4871	  4873	  4877
	  4884	  4896	  4899	  4911	  4919	  4930	  4934	  4938	  4950	  4960	  4974	  4977	  5075	  5292
	  5295	  5297	  5545	  5547	  6762	  6777	  7088	  7093	  7333	  7340	  7353	  8348	  8352	  8361
	  9044#	  9126	  9127	  9128	  9129	  9130	  9131	  9132	  9133	  9134
AINIT	  8185#	  8344
ALHSTS	   288#	  5875	  5927
ALLIOI	   130#	   477	   495	   869	   884	  2382	  2420	  2437	  2469	  2505	  2572	  2629	  2902	  2948
	  3011	  3571	  3628	  3643	  3693	  3763	  3780	  3820	  3905	  3954	  3975	  3996	  4240	  4260
	  4289	  4554	  4604	  5006	  5063	  5106	  5162	  5289	  5333	  5465	  5499	  5538	  5575	  5627
	  5686	  5708	  5802	  5822	  5976	  6005	  6030	  6039	  6049	  6133	  6176	  7442
ALLSET	  3475	  3479	  3486#
ALTMD	  7937	  7950#
ASBIT	  6236	  6271	  6803	  6824	  8930#
ASCIO	   151#	  2671	  2780	  2914	  2935	  3054	  3671	  3859	  3893	  3934	  4101	  4524	  4936	  5306
	  5443	  5483	  5561	  5599	  5871	  6108	  6744	  6787	  7001	  7074	  7152	  7938	  7944	  7950
	  7960	  7964	  8016	  8075	  8080	  8086	  8104
ASCOUT	  6322	  6350	  6497	  6515	  6519	  6523	  6527	  6530	  6534	  6538	  6543	  6579	  8075#
ASITE	  2744#	  3551
AST	  2441	  2457	  3179#	  3179	  3195	  3198	  3209	  6177	  6686
ASTDB	  7714	  9025#
ASTIII	   287#	  1943	  2506	  3846	  4643	  5413	  5544	  5650	  6134
ASTINF	  7726	  7728	  9046#
ASTMAX	  2454	  2463#
ASTOUT	  2450	  6179	  6686#
UPDLUD - ACCTG., LUD UPDATER	MACRO 12.5-46.0 17:15 19-SEP-89
UPDLUD.MAC	24-MAY-89 18:55		Symbol cross reference

ASTTAB	  2456	  2460#	  2463
ASWD	  6272	  6823	  8941#
ASYSIN	   476	   494	  1937	  2001	  2020	  2030	  2381	  2419	  2685	  3520	  3642	  3762	  3819	  4642
	  5062	  6767#
ATTNBP	  6540	  7141	  9127#
ATTOUT	  4808	  6511	  6540#
AUNAME	  3929	  8681#
AWYBLK	   331#	   339
AZONOU	  3685	  5155	  6373#
B	   108#	   318	   438	   439	   462	   463	   735	   736	   737	  1138	  1139	  1140	  1142	  1150
	  1172	  1177	  1226	  1242	  1251	  1567	  1665	  1734	  1738	  1739	  1852	  1853	  1854	  1866
	  1867	  1868	  1873	  1874	  1875	  2055	  2073	  2090	  2175	  2187	  2278	  2290	  2301	  2313
	  2325	  2373	  2830	  2832	  2839	  2840	  2841	  2842	  2846	  2850	  2882	  2883	  2885	  3131
	  3191	  3192	  3205	  3248	  3257	  3258	  3259	  3293	  3304	  3305	  3316	  3354	  3386	  3403
	  3436	  3482	  3512	  4109	  4122	  4171	  4175	  4178	  4191	  4192	  4209	  4262	  4263	  4300
	  4308	  4318	  4319	  4396	  4429	  4488	  4661	  4662	  4663	  4664	  4877	  4884	  4960	  4974
	  4977	  4986	  4999	  5452	  5487	  5529	  5748	  5815	  5969	  6117	  6208	  6368	  6373	  6379
	  6385	  6476	  6486	  6858	  6860	  6861	  7397	  7400	  7402	  7403	  7413	  7415	  7416	  7418
	  7426	  7429	  7431	  7537	  7538	  7539	  7629	  7630	  7632	  7634	  7646	  7647	  7648	  7649
	  7656	  7657	  7658	  7659	  7693	  7697	  7707	  7746	  7747	  7748	  7750	  7752	  7753	  7757
	  7759	  7762	  7765	  7766	  7767	  7768	  7791	  7792	  7793	  7795	  7796	  7797	  8125	  8147
	  8149	  8150	  8151	  8154	  8893
BADBIL	   376	   816#
BADCHR	  7926#	  7982	  7985	  7990
BADCOD	   434	   527	   528	   529	   530	   531	   555	   575	   579	   582	   620	   631	   635	   639
	   641	   642	   643	   681	   682	   884#	  4264	  4283	  4291	  4293
BADCUS	   814#	  1957	  2702	  2822	  2825	  3536	  4843	  4850	  5416	  7335	  7341
BADGAN	   860#	  3110
BADSIT	   812#	  7031	  7057	  7063
BADUSR	   834#	  1098	  1101	  1607
BADVAL	   820#	  4644	  6760	  6776	  6844	  6877	  6894	  6909	  6924	  6945	  6958	  6976	  6989	  7163
	  7198	  7210	  7223	  7264	  7286	  7401	  7404	  7705	  8401
BADX22	   401	   787#	  7686	  7723
BIGHST	  7696	  7703#
BILABL	  1292#	  1292	  1307	  6800	  6822
BILBLK	   382	   384	   389	   463	  8997	  8999#
BILFIL	   157#	   371	   375	   377	   378	   380	   381
BILLST	   377	  8997#
BILWD	  6821	  8942#
BITOUT	  6235	  6238	  6241	  6244	  6247	  6314#	  6398
BLDAST	   415	  7713#
BLDHST	   414	  7674#
BP	   119#	   384	   389	   462	  1572	  1749	  1893	  2937	  3894	  4170	  4173	  5484	  5562	  5600
	  6109	  6320	  6348	  6388	  6494	  6512	  6516	  6520	  6525	  6528	  6532	  6536	  6540	  6545
	  6551	  6577	  6673	  6679	  6745	  6746	  6786	  6788	  6994	  7067	  7107	  7112	  7115	  7120
	  7125	  7130	  7135	  7141	  7145	  7148	  7151	  7230	  7232	  7319	  7323	  7411	  7416	  7424
	  7428	  7453	  7940	  7946	  7962	  7976	  7991	  8004	  8009	  8032	  8036	  8038	  8065	  8066
	  8071	  8079	  8101	  8103	  8107	  8111	  8112
BUDGET	  1491	  1522	  1859	  7305	  9097#
BUDOUT	  1786	  6659#
BUFLN	  7629	  9006#
BYEBYE	   325	   338#	   689
C	   109#	   324	   742	   743	   991	   997	   999	  1000	  1001	  1002	  1004	  1006	  1007	  1013
UPDLUD - ACCTG., LUD UPDATER	MACRO 12.5-46.0 17:15 19-SEP-89
UPDLUD.MAC	24-MAY-89 18:55		Symbol cross reference

	  1018	  1019	  1021	  1023	  1024	  1027	  1029	  1037	  1038	  1040	  1042	  1044	  1048	  1049	  1051
	  1053	  1057	  1060	  1063	  1066	  1067	  1071	  1073	  1077	  1080	  1081	  1118	  1122	  1151
	  1173	  1178	  1225	  1243	  1253	  1343	  1516	  1517	  1518	  1519	  1520	  1521	  1550	  1551
	  1552	  1553	  1554	  1555	  1565	  1566	  1567	  1570	  1574	  1731	  1732	  1733	  1734	  1741
	  1742	  1745	  4123	  4179	  4210	  4330	  4332	  4334	  6369	  6374	  6380	  6383	  6392	  6770
	  6771	  6773	  6774	  7405	  7418	  7483	  7484	  7485	  7490	  7493	  7495	  7497	  7508	  7511
	  7512	  7514	  7517	  7521	  7606	  7637	  7688	  7704	  7706	  7707	  7708	  7724	  7729	  7730
	  7734	  7751	  7753	  7754	  7755	  7760	  7763	  7772	  7773	  7774	  7776	  7777	  7779	  7972
	  8126	  8138	  8147	  8155	  8386	  8397	  8398	  8400	  8912
CANCNT	  3613#	  3613	  3618	  3621
CANCS1	  3259#	  3294
CANCUS	  3236	  3246	  3250#
CANUSR	  3225	  3240#
CANVAR	  6333	  6337#
CCOOUT	  2398	  3678	  5192	  5565	  6341#
CDTOD	  6471	  7803#
CFIND	   496	  1939	  2002	  2383	  2426	  2508	  3311	  4343	  6137	  8293#
CFINDA	  2438	  3694	  4605	  8320#
CH	   116#	   352	   354	   356	   358	   360	   362	   364	   366	   781	   783	   785	   787	   788
	   810	   812	   814	   816	   818	   820	   822	   824	   827	   830	   832	   834	   836	   838
	   840	   842	   844	   846	   848	   850	   852	   854	   856	   858	   860	   863	   879	   885
	   889	   894	   896	   971	  4173	  4174	  4175	  7147	  7148	  7232	  7428	  7429	  7430	  7885
	  7888	  7889	  7891	  7892	  7893	  7894	  7897	  7898	  7900	  7903	  7904	  7908	  7917	  7918
	  7919	  7934	  7936	  7939	  7940	  7943	  7945	  7946	  7955	  7958	  7961	  7962	  7978	  7980
	  7981	  7984	  7986	  7989	  7991	  8018	  8038	  8057	  8058	  8059	  8061	  8062	  8066	  8068
	  8069	  8071	  8079	  8081	  8103	  8105	  8106
CH9401	  4156#	  4163
CHADIS	   596	  4027#
CHANGE	   141#	   744
CHASLS	   546	  2195#
CHBDZ2	  1527	  1557#
CHBUD	   522	  1481#
CHBUD2	  1486	  1494#
CHBUDZ	  1484	  1525#
CHCAD1	  2340	  2342#
CHCADD	   553	  2336#
CHCDIS	   541	  2042#
CHCFFF	   543	  2159#
CHCNAM	   552	  2322#
CHCURR	   572	  3066#
CHCUST	   594	  3972#
CHDET	   544	  2172#
CHDIST	   524	  1587#
CHDPRI	   554	  2370#
CHDSEN	  4041#	  4068	  4154	  5247
CHDUL	   126#	   766	   949	   957	  1434
CHEND	  1995	  2050	  2068	  2085	  2165	  2177	  2189	  2280	  2292	  2303	  2315	  2327#	  2361	  2375
	  2736	  2760	  2771	  2862	  3150	  3514	  3566	  4353	  4377	  4388	  4398	  4431	  4450	  4462
	  4490	  4859	  4865	  4886	  4962	  4988	  4995	  5001	  5433	  5448	  5678	  5758	  5817	  5951
	  5971	  6156	  6169
CHGANS	   593	  3949#
CHGC1	  2812#	  2834
CHGC2	  2816	  2835#
UPDLUD - ACCTG., LUD UPDATER	MACRO 12.5-46.0 17:15 19-SEP-89
UPDLUD.MAC	24-MAY-89 18:55		Symbol cross reference

CHGC3	  2845	  2852#
CHGC4	  2841#	  2851
CHGC5	  2843	  2850#
CHGC6	  2828	  2833#
CHGCUS	   567	  2791#
CHGIT	  2056	  2074	  2091	  2176	  2188	  2279	  2291	  2302	  2314	  2326	  2374	  3135	  3206	  3249
	  3317	  3355	  3387	  3404	  3437	  3483	  3513	  4110	  4397	  4430	  4489	  4878	  4885	  4961
	  4975	  4978	  4987	  5000	  5453	  5488	  5530	  5749	  5816	  5970	  6118	  6207#
CHGIT1	  6211	  6213#
CHGIT2	  6207	  6214#
CHGIT3	  6208	  6215#
CHINV	   545	  2184#
CHK1	  7437	  7442#
CHKA1	  3783#	  5099	  6032	  6042	  6055
CHKA2	  3784#	  3986	  6033	  6043	  6056
CHKA3	  3782#	  3814
CHKANS	  3810#	  3950	  4254	  5100	  5641	  5700
CHKCUS	  2701	  2821	  3535	  5415	  7569#
CHKD	  8048#	  8051
CHKINF	  1102	  1286	  1367	  1445	  1465	  1487	  1495	  1529	  1557	  1592	  1609	  1631	  1842	  1978
	  2048	  2066	  2083	  2163	  2173	  2185	  2196	  2276	  2288	  2299	  2311	  2323	  2337	  2371
	  2716	  2761	  2792	  3111	  3169	  3373	  3510	  3552	  4032	  4517	  4651	  4839	  4872	  4949
	  4969	  5221	  5243	  5348	  5424	  5449	  5523	  5728	  5807	  5942	  5961	  6068	  7436#
CHKJOB	  1138#	  1144
CHKONE	  3980#	  3987
CHKTYM	   632	  5096#
CHLAN	   580	  3509#
CHLGAN	   526	  1621#
CHMNAM	   663	  5671#
CHN940	  4053	  4128#
CHNAM1	  1399	  1424#
CHNAME	   519	  1356#
CHNTUS	  6088#	  6095
CHNU1	  4064#
CHNUSR	  4070#	  4075
CHONHT	   597	  4238#
CHPBIT	   520	  1440#
CHPO	   548	  2275#
CHPOD1	   550	  2298#
CHPOD2	   551	  2310#
CHPOMX	   549	  2287#
CHPSLS	   547	  2267#
CHQUO	   521	  1462#
CHSLS1	  2223#	  2230
CHSLS2	  2232#	  2251	  2255
CHSLS5	  2233	  2256#
CHSLST	  2225	  2231#
CHTADS	   677	  6064#
CHTGAN	   680	  6162#
CHTNAM	   656	  5439#
CHTUCS	   679	  6126#
CHUDIS	   577	  3364#
CHUFD	  1368	  1412#
UPDLUD - ACCTG., LUD UPDATER	MACRO 12.5-46.0 17:15 19-SEP-89
UPDLUD.MAC	24-MAY-89 18:55		Symbol cross reference

CHUGAN	   573	  3071#
CHUNAM	   566	  2777#
CHUSLS	   568	  2896#
CHUUNS	   590	  3778#
CHUUNT	   589	  3761#
CHUZON	   574	  3159#
CHZONE	   525	  1602#
CID	  2145	  2147	  9103#
CINFO	  1948	  1980	  1982	  1983	  1993	  2053	  2055	  2058	  2060	  2061	  2160	  2175	  2187	  2249
	  2278	  2290	  2301	  2313	  2373	  2395	  2397	  2399	  2403	  2443	  2453	  2507	  2540	  2580
	  2591	  2598	  2602	  2818	  2823	  2826	  2829	  2830	  2856	  2956	  2973	  2980	  2984	  3303
	  3305	  3314	  3316	  3466	  3478	  3494	  3528	  3588	  3701	  3734	  3826	  3834	  3840	  3845
	  3848	  3881	  4027	  4170	  4338	  4341	  4610	  4614	  4695	  4699	  4703	  4714	  4722	  4744
	  4834	  4838	  4840	  4858	  4863	  4900	  4901	  4902	  4903	  4907	  4924	  4970	  4983	  4986
	  4990	  4992	  4993	  4997	  4999	  5008	  5051	  5169	  5185	  5188	  5356	  5414	  5636	  5651
	  5654	  6064	  6076	  6135	  6149	  6151	  6153	  6329	  6354	  6565	  6570	  6583	  6589	  6595
	  6601	  6761	  6778	  6880	  6883	  6896	  6910	  6934	  6946	  6977	  6990	  7005	  7164	  7174
	  7187	  7199	  7211	  7224	  7266	  7269	  7272	  7334	  7359	  7573	  7577	  7585	  7590	  7824
	  8297	  8301	  8314	  8324	  8523	  9043#	  9124	  9125
CINIT	  1992	  3462	  3822	  7569	  8179#	  8293	  8320
CITOUT	  4787	  6502	  6525#
CITYBP	  6525	  7120	  9130#
CKCCUS	  3224	  3230#
CKCST	  2861	  2865#
CKHOST	   676	  6048#
CKMNHT	   674	  6026#
CKMNMC	   662	  5624#
CKMNMU	   664	  5683#
CKNAME	   534	  1767#
CKTRIP	   675	  6038#
CLRSIT	  2656	  3700	  7447#	  8387
CLRTMP	  4182	  4184#	  4202
CLSTMP	  2231	  3599	  4080	  4205#	  4672	  5279	  6096
CNALST	  4072	  4076#	  4158	  4164
CNAMBP	  6494	  7067	  9126#
CNAMOU	  2394	  2431	  2620	  3002	  6494#	  6612
CNCC1	  2884#	  2886
CNCCUS	  2878	  2882#
CNCUS	  2884	  3288	  3302#
CNCUS1	  3307#	  5652
CNCUS2	  3438	  3454#
CNCUSR	  3312	  3318#
CNTALS	  6090	  6096#
CNTCUS	  5492	  5531	  5645#
CNTFIL	   375	  8969#
CNTOUT	  5513	  6642#
COCOIN	  1977	  2714	  2947	  3010	  5105	  6901#
CODE	   432#	   432	   438	   889	   906	   951	   967	   973	  1092	  4294	  4304	  4312
COMMA	  6303	  8909#
COSCOD	  5183#	  5183	  5189	  5191
COUNBP	  6536	  7135	  9134#
COUOUT	  4801	  6510	  6536#
CPCODE	  2800	  2801	  2802	  2832	  2842	  2846	  9108#
UPDLUD - ACCTG., LUD UPDATER	MACRO 12.5-46.0 17:15 19-SEP-89
UPDLUD.MAC	24-MAY-89 18:55		Symbol cross reference

CPOUT	  2410	  4705	  4814	  6352#
CRLF	   805	   808	  1577	  1681	  1685	  1748	  1759	  1781	  1800	  1892	  1898	  1926	  2530	  2563
	  3620	  3670	  3864	  3867	  3896	  3939	  4530	  4534	  4541	  4701	  4923	  4928	  4942	  5138
	  5602	  5608	  5613	  5840	  5873	  5887	  6232	  6311	  6344	  6356	  6361	  6412	  6416	  6436
	  6560	  6567	  6572	  6585	  6591	  6597	  6603	  6617	  6622	  6634	  6640	  6646	  6657	  6664
	  6684	  6690	  8087#
CUD10	  1099	  7610	  8891#
CUROUT	  3683	  5148	  6630#
CUSTDB	  2575	  2806	  2951	  3309	  4674	  5011	  5033	  5165	  8181	  9019#
CUSTIN	   493	  1935	  2000	  2019	  2380	  2418	  2436	  2504	  2700	  2791	  3692	  3818	  3973	  4603
	  4831	  4869	  4891	  4947	  4967	  5096	  5218	  5241	  5345	  5411	  5626	  6130	  6752#
CUSUPD	   447	   507#	   541	   543	   544	   545	   546	   547	   548	   549	   550	   551	   554	   596
	   677
CVGEND	  3126	  3129	  3137#
CVGNXT	  3125#	  3136
D	   110#	   761	  1066	  1067	  1152	  1174	  1179	  1244	  1252	  1666	  4123	  4179	  4210	  7414
	  7415	  7417	  7497	  7498	  7499	  7500	  7501	  7512	  7513	  8045	  8053	  8127	  8133	  8144
	  8149	  8152
D940O	  6475	  6486#
DAST	  3170	  3171	  3172	  3210	  3259	  3374	  3375	  3376	  3401	  8995#
DATERR	   785#
DATIN	  7173	  7186	  7364	  7369	  7394#
DATOUT	  4922	  6471#	  6590	  6596	  6602
DAY	  6484	  6491	  7405	  7793	  7807#	  7807	  7816
DBADDR	   102%	  6200
DBCHNG	   101%	  2342	  6213
DBCLOS	   101%	   481	   486	   499	  1959	  1990	  2198	  2257	  2258	  2327	  2386	  2391	  2424	  2428
	  2448	  2511	  2534	  2691	  2697	  2703	  2726	  2731	  2753	  2796	  2837	  2852	  2922	  2941
	  3183	  3207	  3296	  3297	  3318	  3356	  3390	  3407	  3457	  3460	  3487	  3525	  3533	  3537
	  3561	  3576	  3616	  3632	  3647	  3654	  3659	  3664	  3698	  3722	  3723	  3767	  3806	  3812
	  3842	  3872	  3873	  3942	  4017	  4036	  4041	  4042	  4078	  4117	  4348	  4367	  4372	  4444
	  4545	  4546	  4558	  4612	  4669	  4670	  4847	  4860	  4879	  4909	  4916	  4979	  5067	  5072
	  5079	  5337	  5406	  5417	  5511	  5542	  5550	  5556	  5616	  5647	  5785	  5800	  6072	  6080
	  6141	  7700	  7735
DBDATN	   102%	  7813
DBDEL	   103%	  1985	  4347	  6187
DBEND	   102%	   875
DBERR	   101%	   400
DBFIND	   101%	  1945	  2207	  2234	  2471	  2537	  2577	  2595	  2634	  2866	  2904	  2925	  2953	  2977
	  3016	  3080	  3094	  3114	  3140	  3212	  3262	  3274	  3323	  3442	  3463	  3495	  3602	  3709
	  3731	  3745	  3792	  3823	  3878	  3907	  3956	  3998	  4054	  4084	  4128	  4142	  4242	  4407
	  4470	  4570	  4587	  4677	  5016	  5024	  5038	  5046	  5110	  5166	  5226	  5253	  5313	  5353
	  5467	  5501	  5577	  5629	  5655	  5688	  5710	  5732	  5771	  5790	  5827	  5854	  5906	  5980
	  6007	  7570	  7676	  7715	  8246	  8268	  8294	  8321	  8345	  8367	  8406	  8425	  8444	  8463
	  8479	  8503	  8520
DBGET	   101%	  2223	  2246	  2442	  2520	  2553	  2590	  2608	  2651	  2814	  2910	  2931	  2972	  2990
	  3034	  3089	  3127	  3342	  3381	  3396	  3477	  3593	  3839	  3854	  3889	  3930	  3980	  4070
	  4097	  4156	  4424	  4483	  4520	  4609	  4657	  4694	  4844	  4895	  4906	  4953	  5128	  5184
	  5272	  5479	  5595	  5808	  5845	  5867	  5880	  5922	  5962	  5992	  6088	  6104	  7589	  7689
	  7725	  8261	  8287	  8313	  8360	  8390	  8494
DBLK	  1083	  1350	  4318	  9054#
DBMAP	   103%	  2203	  3270	  3705	  4047	  4138	  4583	  5020	  5042	  5249
DBNDAT	   102%	  7804
UPDLUD - ACCTG., LUD UPDATER	MACRO 12.5-46.0 17:15 19-SEP-89
UPDLUD.MAC	24-MAY-89 18:55		Symbol cross reference

DBNREC	   101%	  1953	  2217	  2479	  2545	  2603	  2642	  2874	  2908	  2929	  2961	  2985	  3024	  3106
	  3122	  3220	  3284	  3335	  3450	  3471	  3503	  3585	  3610	  3715	  3739	  3753	  3804	  3810
	  3835	  3886	  3915	  4006	  4064	  4092	  4150	  4419	  4478	  4578	  4593	  4689	  5118	  5174
	  5234	  5263	  5325	  5365	  5475	  5509	  5585	  5663	  5740	  5783	  5798	  5831	  5862	  5914
	  5984	  6015	  7582	  7680	  7719	  8254	  8280	  8306	  8329	  8353	  8375	  8418	  8437	  8456
	  8471	  8487	  8511	  8528
DBOPEN	   101%	  2199	  2574	  2631	  2804	  2950	  3013	  3075	  3230	  3241	  3307	  3429	  3728	  4567
	  4673	  5010	  5032	  5108	  5164	  5223	  5350	  5824	  5904	  5978	  7674	  7713	  8168	  8174
	  8180	  8186	  8192	  8197	  8203	  8209	  8215	  8221
DBSET	   102%	  2588	  2593	  2675	  2812	  2819	  2835	  2970	  2975	  3058	  3078	  3112	  3138	  3254
	  3290	  3743	  3868	  4076	  5014	  5036	  5299	  5311	  5852	  5878
DBSORT	   102%	  2516	  2549	  2585	  2647	  2967	  3030	  3928	  4148	  4653	  5124	  5180	  5268	  5592
	  5842	  5920	  5990	  7682	  8338	  8388
DBSTRT	   101%	   397
DBSYSV	   102%	   405	   409
DBUUN	  3326	  3795	  4245	  4357	  4382	  4392	  4913	  5303	  5316	  5553	  5574	  5580	  5695	  5849
	  5857	  5885	  5886	  6705	  8249	  8370	  9145#
DECDON	  7911#	  7988	  7996
DECOCT	  2528	  2561	  2666	  3049	  3668	  3862	  3937	  4532	  4536	  5136	  5606	  5610	  7411#
DELADD	   152#	  1963	  1984
DELENT	   908	   930#
DELERR	   822#	  1199
DELFIL	  1103	  1134#
DELGAN	   537	  1884#
DELIT	  1091	  1095#	  1899
DELIT1	  6185	  6187#
DELLIT	  4345	  4352	  4366	  4371	  4376	  4387	  4443	  4449	  4461	  6183#
DELNAM	   517	   650	  1089#
DELNXT	  1888#	  1901
DELSIT	   576	  3167#
DELTMP	  2256	  3615	  4115	  4122#
DELUFD	  1164	  1185#
DELUUN	   578	  3371#
DERR	  1137	  1141	  1143	  1148	  1158	  1166	  1176	  1181	  1187	  1193	  1197#	  1653	  1664
DETBIT	  6287	  8928#
DETOUT	  2400	  4704	  4723	  6557#
DETWD	  6288	  8939#
DEVTB.	    99	  9033#
DFIL	   158#	  1155	  1175	  1180	  1185	  1651
DIDIT	   946#	  1318	  1384	  1411	  1435	  1457	  1478	  1493	  1504	  1524	  1538	  1556	  1598	  1615
	  1649	  1879	  4325	  4335
DIDIT2	   950	   966#	  4511
DIDIT3	   967#	  1094	  1558	  1769	  2221	  2260	  2329	  3196	  3201	  3227	  3237	  3439	  4351	  4375
	  4386	  4394	  4423	  4447	  4453	  4460	  4482	  4882	  5525	  5532
DIGINF	   146#	  7956	  7964	  8001
DINDEX	  1081	  1343	  4321	  4505	  9052#
DISBP	  1597	  1680	  1782	  8913#
DISOUT	  1683	  1783	  2396	  3674	  3849	  3924	  4615	  4715	  5203	  6308#
DIST	  1298	  1327	  1329	  1591	  1596	  4033	  4103	  6069	  6111	  6895	  9090#
DIST2	  6887	  6891#
DISTAB	   439	   516#	   685	  4262
DLAST	  3392#
DLLAST	  3395	  3398	  3407#
UPDLUD - ACCTG., LUD UPDATER	MACRO 12.5-46.0 17:15 19-SEP-89
UPDLUD.MAC	24-MAY-89 18:55		Symbol cross reference

DLLSIT	  3380	  3383	  3390#
DLNAST	  3396#	  3406
DLNSIT	  3381#	  3389
DLTACC	   657	  5464#
DLTALT	  5481	  5492#
DLTANX	  5479#	  5491
DLTUUN	   659	  5520#
DNAME	  1072	  1074	  1076	  1079	  1345	  1347	  1364	  1366	  4331	  4333	  9053#
DONE	   516	   687#
DSK	   155#	   693	   700	   705	   707	   715	   716	   717	   722	   724	   737	   738	   739	   746
	   749	   750	   753	   755	   756	   825	   898	   901	   902	   903	   922	   923	   924	   931
	   932	   933	   935	   938	   939	   940	   942	   961	   962	   963	   965	   966	   992	   993
	   994	  1125	  1126	  1127	  1129	  1130	  1145	  1153	  1161	  1163	  1379	  1380	  1381	  1392
	  1393	  1394	  1400	  1401	  1402	  1406	  1407	  1408	  1499	  1500	  1501	  1533	  1534	  1535
	  1630	  1688	  1802	  2113	  2115	  2116	  2117	  2119	  2127	  2129	  2137	  2139	  2140	  2141
	  2143	  4496	  4497	  4498	  6733	  6734	  6735	  6739	  6741	  7539	  7540	  7541
DSK1	   156#	  1579	  1703	  1709	  1714	  1720	  1721	  1722	  1724	  1889	  4124	  4166	  4180	  4199
	  4200	  4207	  4211	  4219	  4229	  4230
DSKB	  1226	  1243	  1253	  7236	  8895#
DSKERR	   810#	  4320
DSTBYT	  6850	  6857	  8920#
DTOCD	  7406	  7812#	  7823	  7832
DULADD	   956	  1033#
DULAGN	   949#	  4316
DULBLK	  1567	  1574	  1734	  1741	  1742	  8912	  8956	  9107#
DULCH	   958	  1069#
DULDEL	  1114#	  1634
DULEND	   960#	  1046	  1084
DULERR	   826	   894#	   959	   964	  1070	  1115	  1128
DULFR3	  1050	  1060#
DULFRE	  1036	  1048#	  1052	  1059	  1065	  4328
DULLOK	   722	   724	   725	  1714	  8945#
DULLST	  1720	  8956#
DUPERR	   838#	  3341	  5866	  8260	  8286	  8312	  8359	  8493
DYNDV.	    99	  9034#
E	   111#	  8128	  8133	  8134	  8137	  8153	  8155
ENDLUD	   936	   937#	   948	  1111	  4311	  4492	  4503	  4510
ENDTYD	   143#	  7951
EQUALS	  1947	  1951	  2211	  2215	  2236	  2240	  2244	  2473	  2477	  2539	  2543	  2579	  2583	  2597
	  2601	  2636	  2640	  2868	  2872	  2906	  2927	  2955	  2959	  2979	  2983	  3018	  3022	  3082
	  3086	  3096	  3100	  3104	  3116	  3120	  3142	  3146	  3214	  3218	  3264	  3268	  3278	  3282
	  3325	  3329	  3333	  3444	  3448	  3465	  3469	  3497	  3501	  3604	  3608	  3713	  3733	  3737
	  3747	  3751	  3794	  3798	  3802	  3825	  3829	  3833	  3880	  3884	  3909	  3913	  3958	  3962
	  3966	  4000	  4004	  4058	  4062	  4086	  4090	  4132	  4146	  4244	  4248	  4409	  4413	  4417
	  4472	  4476	  4572	  4576	  4591	  4679	  4683	  4687	  5018	  5028	  5040	  5050	  5054	  5112
	  5116	  5168	  5172	  5228	  5232	  5257	  5261	  5315	  5319	  5323	  5355	  5359	  5363	  5469
	  5473	  5503	  5507	  5579	  5583	  5631	  5635	  5639	  5657	  5661	  5690	  5694	  5698	  5712
	  5734	  5738	  5773	  5781	  5792	  5796	  5829	  5856	  5860	  5908	  5912	  5982	  6009	  6013
	  7572	  7576	  7580	  7678	  7717	  8248	  8252	  8270	  8274	  8278	  8296	  8300	  8304	  8323
	  8327	  8347	  8351	  8369	  8373	  8408	  8412	  8416	  8427	  8431	  8435	  8446	  8450	  8454
	  8465	  8469	  8481	  8485	  8505	  8509	  8522	  8526	  9140#
ERON9	   846#
ERRCOD	   788#	   788	   863	   879	   896	  3548
UPDLUD - ACCTG., LUD UPDATER	MACRO 12.5-46.0 17:15 19-SEP-89
UPDLUD.MAC	24-MAY-89 18:55		Symbol cross reference

ERRF	   128#	   747	   862	   866	   895	   946	   969	  1109	  1383	  1396	  1503	  1537	  3546	  3550
	  7443	  7561
ERROUT	   819	   828	   831	   833	   835	   859	   861	   877	   879#	   904	   912	   919	   925	   934
	   947	   970	  1110	  7444	  7562
F	   106#	   316	   326	   388	   392	   396	   416	   421	   423	   424	   426	   428	   441	   442
	   469	   477	   480	   482	   485	   487	   495	   498	   500	   687	   744	   747	   766	   789
	   796	   801	   862	   869	   871	   873	   874	   876	   880	   884	   887	   895	   946	   949
	   955	   957	   969	   976	   979	   982	  1003	  1005	  1008	  1109	  1134	  1197	  1218	  1317
	  1383	  1396	  1434	  1442	  1469	  1471	  1485	  1503	  1526	  1537	  1589	  1604	  1648	  1682
	  1751	  1753	  1756	  1785	  1787	  1792	  1818	  1824	  1831	  1833	  1836	  1838	  1858	  1863
	  1878	  1906	  1955	  1958	  1960	  1963	  1984	  1986	  1991	  2004	  2013	  2023	  2033	  2111
	  2148	  2151	  2219	  2253	  2259	  2328	  2338	  2339	  2359	  2360	  2382	  2385	  2387	  2390
	  2392	  2420	  2423	  2425	  2429	  2437	  2449	  2469	  2481	  2498	  2505	  2512	  2518	  2523
	  2535	  2551	  2556	  2572	  2573	  2605	  2612	  2614	  2618	  2627	  2629	  2630	  2644	  2660
	  2663	  2667	  2669	  2671	  2673	  2690	  2692	  2696	  2698	  2704	  2712	  2727	  2732	  2752
	  2754	  2768	  2780	  2793	  2797	  2803	  2807	  2838	  2849	  2853	  2865	  2876	  2887	  2902
	  2913	  2914	  2920	  2923	  2934	  2935	  2942	  2948	  2949	  2963	  2987	  2994	  2996	  3000
	  3009	  3011	  3012	  3026	  3043	  3046	  3050	  3052	  3054	  3056	  3074	  3088	  3108	  3124
	  3134	  3148	  3184	  3208	  3222	  3233	  3240	  3244	  3253	  3256	  3261	  3286	  3289	  3292
	  3295	  3298	  3306	  3310	  3319	  3322	  3337	  3345	  3357	  3384	  3391	  3399	  3408	  3409
	  3432	  3441	  3458	  3461	  3473	  3480	  3488	  3524	  3526	  3532	  3534	  3538	  3543	  3546
	  3550	  3562	  3571	  3575	  3577	  3589	  3617	  3628	  3631	  3633	  3643	  3646	  3648	  3653
	  3655	  3658	  3660	  3663	  3665	  3671	  3693	  3697	  3699	  3717	  3724	  3727	  3755	  3763
	  3766	  3768	  3769	  3780	  3784	  3807	  3813	  3817	  3820	  3821	  3843	  3853	  3858	  3859
	  3865	  3874	  3888	  3892	  3893	  3905	  3917	  3927	  3933	  3934	  3943	  3954	  3972	  3975
	  3984	  3988	  3996	  4008	  4016	  4018	  4037	  4043	  4046	  4066	  4079	  4083	  4094	  4100
	  4101	  4112	  4116	  4118	  4152	  4240	  4260	  4289	  4346	  4349	  4368	  4373	  4406	  4421
	  4427	  4445	  4448	  4469	  4480	  4486	  4523	  4524	  4527	  4537	  4539	  4547	  4554	  4557
	  4559	  4562	  4566	  4580	  4595	  4604	  4608	  4613	  4628	  4641	  4660	  4671	  4691	  4697
	  4848	  4861	  4880	  4898	  4910	  4917	  4920	  4925	  4932	  4936	  4939	  4956	  4980	  5006
	  5007	  5063	  5066	  5068	  5071	  5073	  5078	  5080	  5106	  5107	  5120	  5126	  5131	  5162
	  5163	  5176	  5182	  5187	  5222	  5248	  5265	  5270	  5278	  5280	  5289	  5298	  5301	  5306
	  5308	  5310	  5327	  5333	  5336	  5338	  5349	  5381	  5390	  5405	  5407	  5418	  5443	  5465
	  5477	  5482	  5483	  5499	  5512	  5526	  5538	  5541	  5543	  5551	  5557	  5561	  5572	  5575
	  5587	  5591	  5594	  5598	  5599	  5603	  5611	  5617	  5627	  5648	  5686	  5707	  5708	  5731
	  5742	  5786	  5801	  5802	  5811	  5822	  5823	  5833	  5838	  5870	  5871	  5883	  5894	  5903
	  5916	  5925	  5965	  5976	  5977	  5986	  5996	  6005	  6017	  6030	  6039	  6049	  6073	  6081
	  6084	  6101	  6107	  6108	  6120	  6133	  6136	  6140	  6142	  6176	  6183	  6184	  6188	  6189
	  6196	  6197	  6209	  6210	  6220	  6230	  6295	  6300	  6302	  6305	  6308	  6314	  6330	  6341
	  6346	  6352	  6358	  6363	  6365	  6378	  6394	  6402	  6405	  6407	  6413	  6422	  6430	  6474
	  6478	  6482	  6496	  6501	  6503	  6505	  6507	  6514	  6518	  6522	  6542	  6546	  6552	  6557
	  6563	  6568	  6574	  6576	  6581	  6587	  6593	  6599	  6607	  6610	  6614	  6619	  6624	  6630
	  6636	  6642	  6653	  6655	  6659	  6666	  6671	  6675	  6677	  6681	  6687	  6695	  6697	  6702
	  6711	  6713	  6717	  6744	  6747	  6752	  6754	  6767	  6784	  6787	  6793	  6837	  6839	  6855
	  6869	  6871	  6886	  6888	  6901	  6903	  6916	  6918	  6929	  6932	  6937	  6939	  6950	  6952
	  6962	  6968	  6970	  6981	  6983	  6996	  6998	  7001	  7020	  7035	  7049	  7060	  7069	  7071
	  7074	  7078	  7082	  7084	  7097	  7100	  7104	  7118	  7123	  7128	  7133	  7138	  7152	  7156
	  7158	  7168	  7170	  7178	  7180	  7190	  7192	  7202	  7204	  7215	  7217	  7238	  7240	  7245
	  7247	  7255	  7257	  7260	  7278	  7280	  7289	  7291	  7292	  7301	  7309	  7311	  7321	  7327
	  7350	  7356	  7362	  7367	  7372	  7382	  7436	  7442	  7443	  7469	  7551	  7556	  7561	  7564
	  7584	  7592	  7597	  7684	  7687	  7694	  7721	  7803	  7809	  7812	  7819	  7884	  7887	  7931
	  7938	  7944	  7948	  7950	  7951	  7956	  7960	  7964	  7970	  7974	  7983	  7995	  8001	  8016
	  8030	  8042	  8075	  8076	  8080	  8084	  8086	  8087	  8089	  8094	  8104	  8114	  8115	  8124
UPDLUD - ACCTG., LUD UPDATER	MACRO 12.5-46.0 17:15 19-SEP-89
UPDLUD.MAC	24-MAY-89 18:55		Symbol cross reference

	  8140	  8167	  8170	  8173	  8176	  8179	  8182	  8185	  8188	  8191	  8194	  8196	  8199	  8202	  8205
	  8208	  8211	  8214	  8217	  8220	  8223	  8245	  8256	  8264	  8282	  8290	  8308	  8316	  8331
	  8337	  8340	  8355	  8363	  8377	  8403	  8420	  8439	  8458	  8473	  8489	  8497	  8513	  8530
F1HOST	  3781	  3791#	  7344
FFFEQN	  6878	  6882#
FFFOUT	  2411	  6346#
FILBZY	   714	   731	   797	   818#	  2126
FILINF	  1159	  1160	  1162	  1165	  1168	  9010#
FILLIN	  7935	  7943#	  7959
FILNAM	  2117	  2119	  2120	  8976#
FILSIT	  3720	  4014	  6420	  8385#
FINDMH	  5805	  8405#
FINDUL	  1018#	  1026	  1030	  1033	  1069	  1114
FINSYS	   385	   390	   461#
FINUFD	  1186	  1206#	  1412	  1652
FIRSTF	   321#	   321	   386	   419
FIXCH	  4306	  4491#
FIXDEL	  4314	  4327#
FIXZON	  6852	  6855#
FND	   781#	  1271	  1290	  1410	  1810	  1846	  1941	  2689	  2695	  3531	  3770	  3785	  4854	  5404
FNDACS	  7611	  7631	  7637#
FNDSIT	  2758	  7771#
FNDST0	  7774#	  7781
FNDST1	  7775	  7782#
FOCFBP	  6348	  9125#
GAN	  1626	  1644	  1656	  1698	  1739	  1885#	  1885	  2519	  2525	  2527	  2552	  2558	  2560	  3073
	  3092	  3132	  5127	  5133	  5135
GANDEX	  1727#	  1727	  1731	  1733	  1745
GANIN	  1625	  1884	  3071	  3904	  3952	  3995	  5219	  5346	  5464	  5498	  6004	  6166	  6694	  6711#
GANOUT	  1699	  2529	  2562	  3669	  3863	  3938	  4533	  5137	  5607	  6363#
GECID2	  2117#	  2125
GET1	  7470	  7477#
GET940	  7932	  7954#	  7963	  8012
GETADD	  1976	  2336	  7097#
GETBIT	  6796	  6799	  6802	  6805	  6808	  6811	  6931	  7377	  7387	  7597#
GETBLK	   775#	   921	   937	   960	  1124	  1337	  1348
GETBUD	  1483	  1819	  7301#
GETCID	   542	  2111#
GETCUR	  2707	  3066	  7278#
GETDAY	  4948	  7347	  7350#
GETDET	  1966	  2172	  6968#
GETDIS	  1274	  1590	  1814	  1965	  2042	  2571	  2628	  2705	  3364	  4030	  5005	  5161	  5419	  6067
	  6886#
GETDPR	  1975	  6937#
GETDUL	   721#	   730	   953	  1112	  1632	  4317	  4327	  4504
GETFF2	  6870	  6874#
GETFFF	  2159	  6869#
GETFLG	  7329	  7382#
GETFLT	  7383	  7386#
GETFR2	  7482	  7489#	  7504
GETFR3	  7489	  7501	  7505#
GETFR4	  7493#	  7500
GETFRE	  1294	  1425	  1508	  1542	  1848	  7480#	  7488	  7494	  7510
UPDLUD - ACCTG., LUD UPDATER	MACRO 12.5-46.0 17:15 19-SEP-89
UPDLUD.MAC	24-MAY-89 18:55		Symbol cross reference

GETINI	  1825	  7319#
GETLAN	  2706	  3509	  6950#
GETLAS	   732	   761#	  6737
GETLIN	  7111	  7114	  7117	  7122	  7127	  7137	  7143	  7145#	  7229
GETLUD	   704#	   713	  1104	  1287	  1369	  1446	  1466	  1488	  1497	  1531	  1593	  1610	  1627	  1640
	  1843	  4299	  4493
GETMIN	  1968	  6981#
GETMIS	  1815	  7289#
GETNAM	  1964	  2322	  7067#
GETNUM	  1834	  1839	  6698	  6714	  6757	  6814	  6817	  6842	  6906	  6921	  7161	  7183	  7243	  7250
	  7303	  7312	  7358	  7394	  7969#
GETNXT	  7977#	  7987	  7992
GETONE	   431	  6769	  6853	  6874	  6891	  6955	  6963	  6986	  7220	  7283	  7293	  7374	  7384	  7477
	  7598	  7966#
GETPB2	  6794	  6817#
GETPBT	  1279	  1443	  6791#
GETPD1	  1972	  2298	  7168#
GETPD2	  1973	  2310	  7178#
GETPMX	  1971	  2287	  7156#
GETPO	  1970	  2275	  6994#
GETPRC	  2709	  3540	  7255#
GETPRI	  2370	  7202#
GETREC	  7326	  7356#
GETRES	  7920	  7925	  7942	  7949	  7993	  7999	  8016#	  8020
GETRFL	  7089	  7372#
GETRFT	  7373	  7376#
GETSI1	  3372	  7035#
GETSIT	  2713	  2742	  3168	  3544	  3779	  3953	  3974	  4031	  4239	  4516	  4650	  6048	  6175	  7049#
	  7080	  7086
GETSLS	  1969	  2195	  2267	  2708	  2896	  3539	  7215#
GETSTA	  4832	  7362#
GETSTO	  4870	  7367#
GETSTR	  1285	  1464	  1841	  7236#
GETSYS	   693#	  1637	  4298	  6731
GETTMP	  2232	  3600	  4081	  4215#	  4675	  5290	  6097
GETTOD	  1979	  2052	  2070	  2087	  2718	  2763	  3351	  3378	  3554	  4989	  4996	  5284	  5425	  5450
	  5478	  5527	  5745	  5752	  5812	  5945	  5966	  7822#
GETTOM	  2057	  2075	  2092	  5454	  7831#
GETTWO	  6942	  6973	  7022	  7037	  7051	  7195	  7207	  7261	  7352	  7967#
GETVPF	  1974	  6929#
GETWD	  6750	  6789	  7002	  7075	  7153	  7325	  7455	  7931#
GETWD1	  7933#	  7941
GETYN	  7469#
GETZIP	  7132	  7229#
GETZON	  1283	  1608	  2710	  3159	  3541	  6837#
GFDBIT	  6242	  6275	  6809	  6828	  8925#
GFDWD	  6276	  6827	  8936#
GNWNAM	  1362	  2781	  5444	  6783#
GNXSYS	  7691	  7698#
GOBAK	  7609	  7633	  7635	  7638#
GSTINV	  1967	  2184	  7190#
GTACUS	  4519	  4566#	  4652
GTAHST	  5723	  5767	  5937	  5957	  6028	  6038	  7020#
UPDLUD - ACCTG., LUD UPDATER	MACRO 12.5-46.0 17:15 19-SEP-89
UPDLUD.MAC	24-MAY-89 18:55		Symbol cross reference

GTALL	  2513	  3702	  3727#	  3850	  4039	  5244
GTALL1	  2202	  3731#
GTALLU	  3455	  3492#
GTBADS	  7063#
GTCOCC	  7005#
GTCOCT	  7013#
GTCOCU	  7009#
GTGANS	  3584	  3949	  3952#
GTHSTS	  2654	  3743#	  3857
GTMAIL	  5421	  5573	  5624	  5675	  5683	  7309#
GTNLUD	  2715	  7017#
GTRESM	  2711	  3542	  6962#
GTTALL	  5645	  5653#	  6078
GTUNAM	  2699	  5408	  6744#
GTYINF	  4835	  4968	  7326#
GTZON2	  6838	  6853#
HAL01	  6223	  6300#
HALVOT	  1799	  6295#
HASH	   927	  1336	  1429	  4300	  9050#
HASHER	   915	  1387	  6728	  8124#
HELPMS	  7906	  8536#
HINFO	  7690	  7692	  7693	  9045#
HLOC	   715#	   715	   736	   746	   776	   900	   901	   916	   922	   931	   938	   961	   992	  1082
	  1125	  1338	  1349	  1375	  1379	  1389	  1390	  1392	  1499	  1533	  1623	  1639	  4297	  4319
	  4495	  4496	  6730	  6733	  7538
HLOCSV	  1624#	  1624	  1638
HNNAME	   917	  1388	  1397	  1427	  9105#
HOST	  2744	  2757	  2766	  5750	  5851	  5874	  5943	  7025	  7028	  7045#	  7045	  7059#	  7059
HOSTB	  7750#	  7750	  7755
HOSTDB	  7675	  9024#
HSTASY	   683	  6174#
HSTLST	  1917	  7671#	  7697	  7706	  7707	  7753	  7759	  7765
HUNAME	   988	  1304	  1855	  6729	  9093#
IBCT	  2131	  8989#
IBPTR	  2133	  8988#
IBUF	  8985	  8987#
IDATE	  7814#	  7814	  7818	  7834
IERC	   403#	   403	   793	   806
IERT	   402#	   402	   790	   803
ILLAST	   858#	  2162
INCH	  7897#	  7954
INDEX	   120#	   742	   758	   905	   920	   928	   930	   989	   990	   998	  1000	  1011	  1013	  1024
	  1057	  1063	  1095	  1108	  1170	  1171	  1172	  1182	  1295	  1297	  1299	  1301	  1303	  1305
	  1306	  1310	  1312	  1314	  1315	  1321	  1324	  1334	  1335	  1372	  1373	  1378	  1404	  1428
	  1430	  1431	  1449	  1452	  1453	  1456	  1470	  1472	  1473	  1475	  1477	  1492	  1498	  1510
	  1511	  1515	  1520	  1523	  1532	  1544	  1545	  1549	  1554	  1605	  1646	  1677	  1697	  1755
	  1778	  1789	  1851	  1856	  1857	  1860	  1861	  1865	  1869	  1872	  1876	  1895	  1915	  1917
	  1921	  1928	  4190	  4192	  4193	  4194	  4195	  4215	  4216	  4221	  4224	  4232	  4301	  4302
	  4308	  4310	  4321	  4322	  4323	  4324	  4491	  4500	  4502	  4505	  4507	  4509	  6226	  6228
	  6368	  6369	  6403	  6404	  6406	  6409	  6411	  6429	  6433	  6437	  6438	  6649	  6661	  6670
	  6672	  6683	  7480	  7481	  7483	  7491	  7493	  7498	  7505	  7508	  7511	  7520	  7524	  7535
	  7544	  7643	  7655	  8913	  8914	  8915	  8916	  8917	  8918	  8919
INFOUT	  1706	  1748#
UPDLUD - ACCTG., LUD UPDATER	MACRO 12.5-46.0 17:15 19-SEP-89
UPDLUD.MAC	24-MAY-89 18:55		Symbol cross reference

INIERR	   697	   827#	  1713	  2114	  4169
INIFIL	  1864	  7323	  9098#
INIOUT	  1788	  6666#
INIPTR	  1002	  8916#
INITF	   148#	  1003	  1005	  1471	  1787	  1824	  1863	  6405
INITIA	   327	   368	   371#	  2152
INITMP	  2222	  3592	  4069	  4155	  4166#	  4655	  5271	  6087
INIUSR	  7319	  9099#
INNPTR	  6673	  8919#
INPPTR	  6679	  8918#
INVOUT	  2401	  4706	  4730	  6568#
IOERR	   374	   379	   466	   718	   740	   751	   757	   832#	   941	   995	  1382	  1395	  1403	  1409
	  1502	  1536	  1725	  4201	  4231	  4499	  6736	  7542
ISITE	  3977#	  3977	  3985
JACCT	  1204#	  1217	  1261
JBTSTS	  1203#	  1214	  1258
JOB41	   395%	   395	   399%	   399
JOBVER	     7#	     8
L1	  2127#	  2132
L1DIS	  5009	  5032#
L2	  2128	  2131#
L3	  2135#	  2144
L4	  2136	  2143#
L5	  2142	  2145#
LAAST	   604	  4641#
LACCD1	   637	  5161#
LACST1	  4657#	  4668
LACUC1	   570	  2947#
LACUC3	  2970#	  2989	  2992	  3003
LACUD1	   562	  2571#
LACUD2	  2585#	  5030	  5056
LACUD3	  2588#	  2607	  2610	  2621
LACUST	   605	  4650#
LAHOST	   600	  4516#
LALTYM	   628	  5005#
LANOUT	  3684	  5210	  6636#
LASBAK	   769	   772#
LASBLK	   772#	   772	  7529	  7531
LASHOS	  8386#	  8386	  8394	  8396
LAST	  2208	  3275	  3710	  4055	  4129	  4143	  4588	  5025	  5047	  5254	  9138#
LASTNX	  2442#	  2447	  2485
LATTN	   619	  4808#
LAUHD1	   603	  4628#
LAUMNM	   661	  5572#
LAUSC1	   571	  3009#
LAUSD1	   563	  2627#	  4629
LBLK	   899	  1339	  1391	  1400	  1406	  4296	  9051#
LCDET	   607	  4722#
LCDIS	   606	  4714#
LCINV	   608	  4730#
LCITY	   616	  4787#
LCMIN	   609	  4737#
LCOUN	   618	  4801#
UPDLUD - ACCTG., LUD UPDATER	MACRO 12.5-46.0 17:15 19-SEP-89
UPDLUD.MAC	24-MAY-89 18:55		Symbol cross reference

LCSLS	   610	  4744#
LCUSTN	   629	  5061#
LDCUST	   602	  4603#
LDEFP	   621	  4814#
LEERR	   701	   706	   710	   723	   727	   830#	  1715	  2118	  2122	  2130	  4181	  4212
LESSTN	  4136	  9143#
LETGO	  1194	  1198	  1230	  1251#	  1422
LETGO1	  1253#	  1667
LGNCCO	   633	  5105#
LGNCST	   561	  2504#
LGNIII	  2510	  2534#
LHST1	  4520#	  4543
LINDEX	   905	  1334	  1404	  1430	  4301	  9049#
LISALL	   523	  1564#
LISAST	   558	  2436#
LISCMD	   445	   506#	   523	   532	   533	   535	   537	   538	   539	   556	   557	   558	   559	   560
	   561	   562	   563	   569	   570	   571	   583	   584	   586	   587	   588	   589	   590	   591
	   592	   593	   594	   595	   596	   597	   600	   601	   602	   603	   604	   605	   606	   607
	   608	   609	   610	   611	   612	   613	   614	   615	   616	   617	   618	   619	   621	   622
	   625	   628	   629	   630	   632	   633	   634	   636	   637	   638	   640	   644	   646	   648
	   651	   653	   657	   660	   661	   662	   664	   665	   668	   669	   672	   673	   674	   675
	   676	   677
LISCUS	   556	  2380#
LISGAN	   533	  1694#	  1907
LISHST	   539	  1915#	  1929
LISLUD	   532	  1674#
LISNAM	   557	  2418#
LIST	   132#	   469	   880	  7887
LISTAL	   569	  2902#
LISTUU	   660	  5536#
LISTYM	   625	  4891#
LISUCU	   583	  3570#
LISUUN	   587	  3641#
LLANG	   640	  5210#
LNACC	  3930#	  3941
LNUIII	  3889#	  3898	  6021
LNUSR	  3854#	  3871
LOKCUS	   470	   513#	   606	   607	   608	   609	   610	   611	   612	   613	   614	   615	   616	   617
	   618	   619	   621	   622
LOKSTR	  1221	  1241#
LOKUUN	   472	   514#	   630	   634	   636	   638	   640
LOOPA	  3476#	  3485
LP	  7630#	  7634
LPAREN	  6669	  8906#
LPO	   611	  4752#
LPOMAX	   612	  4760#
LPOSTA	   613	  4766#
LPOSTO	   614	  4773#
LPPN	   733	   954	   978	   981	  1001	  1039	  1113	  1142	  1149	  1174	  1179	  1210	  1244	  1252
	  1275	  1296	  1432	  1633	  1643	  1645	  1655	  1850	  4303	  4329	  6701	  6716	  9089#
LSC1	  3702#	  3978
LSCSYS	   588	  3692#
LSGAN	   595	  3995#
UPDLUD - ACCTG., LUD UPDATER	MACRO 12.5-46.0 17:15 19-SEP-89
UPDLUD.MAC	24-MAY-89 18:55		Symbol cross reference

LSGANN	   538	  1906#
LSTAL1	  2912	  2919#
LSTAL2	  2933	  2941#
LSTATE	   617	  4794#
LSTHST	  4544#	  4582	  4597
LSTNX1	  2931#	  2940
LSTNXT	  2910#	  2918
LSTREE	   615	  4780#
LSTTMP	  4082	  4115#	  4676	  5339	  6098
LSTU	  1569	  1579#
LSTUAC	  2515	  2533	  2548	  2566	  3926	  3942#	  5141	  5195
LSTUSR	  2592	  2622	  2646	  2653	  2679	  2974	  3004	  3036	  3062	  3852	  3872#	  3891	  3899
LSTUUN	  3704	  3719	  3722#
LSUG1	  3593#	  3598
LSUG2	  3595	  3599#
LSUG3	  3600#	  3614
LSUG4	  3591	  3601	  3615#
LSUGSY	   584	  3584#
LSUSYS	   586	  3627#
LTYM1	  5585#	  5714
LTYMNT	   665	  4645	  5707#
LUAST	   559	  2468#
LUCIII	  3847	  3877#
LUCST1	   601	  4553#
LUCURR	   634	  5148#
LUCUST	   591	  2499	  3817#
LUDBLK	   742	   920	   928	   930	   990	   998	  1000	  1011	  1021	  1023	  1027	  1037	  1038	  1040
	  1042	  1044	  1049	  1066	  1067	  1071	  1073	  1077	  1080	  1095	  1108	  1117	  1121	  1123
	  1171	  1172	  1295	  1297	  1299	  1301	  1303	  1305	  1310	  1312	  1314	  1321	  1335	  1373
	  1378	  1428	  1431	  1449	  1452	  1453	  1456	  1475	  1477	  1492	  1498	  1509	  1511	  1514
	  1520	  1523	  1532	  1543	  1545	  1548	  1554	  1605	  1646	  1677	  1697	  1755	  1778	  1789
	  1850	  1856	  1860	  1864	  1871	  1895	  4184	  4185	  4186	  4192	  4221	  4302	  4308	  4310
	  4322	  4323	  4324	  4330	  4332	  4334	  4491	  4502	  4507	  4509	  6226	  6228	  6368	  6369
	  6409	  6411	  6649	  6661	  7481	  7491	  7499	  7512	  7513	  7514	  7519	  7523	  7526	  7535
	  7544	  7545	  7546	  7642	  7654	  8913	  8914	  8915	  8916	  8917	  8918	  8919	  8953	  9010
	  9106#
LUDIST	   638	  5202#
LUDLOK	   700	   705	   707	   708	  8960#
LUDLST	   716	   738	   749	   755	   902	   923	   932	   939	   962	   993	  1126	  1380	  1393	  1401
	  1407	  1500	  1534	  4199	  4229	  4497	  6734	  7540	  8953#
LUDUP	   314#	  6771	  6774	  7729	  7734	  9190
LUDUP1	   393	   419#	   882	   888	   891	   975	   977	   984	  1582	  1689	  1705	  1803	  1891	  1931
	  2414	  2432	  2451	  2944	  3579	  3622	  3636	  3687	  3726	  3771	  3773	  3786	  3788	  3876
	  3921	  3945	  4020	  4045	  4120	  4548	  4565	  4616	  4716	  4724	  4731	  4738	  4746	  4753
	  4761	  4767	  4774	  4781	  4788	  4795	  4802	  4809	  4815	  4822	  4935	  4943	  5083	  5091
	  5149	  5156	  5204	  5211	  5494	  5514	  5566	  5619	  5841	  6000	  6083	  6180	  7441	  7907
	  7929
LUGAN	   592	  3904#
LUHCST	   560	  2498#
LUSLS	   630	  5089#
LUTGAN	   673	  6004#
LZIP	   622	  4821#
LZONE	   636	  5155#
UPDLUD - ACCTG., LUD UPDATER	MACRO 12.5-46.0 17:15 19-SEP-89
UPDLUD.MAC	24-MAY-89 18:55		Symbol cross reference

LZONOU	  1686	  1760	  6368#
M2SPAC	  2615	  2619	  2664	  2670	  2997	  3001	  3047	  3053	  6504	  6508	  6611	  8709#
M940	  4137	  9144#
MAAS	  6801	  8710#
MADST	  6846	  8704#
MAGFD	  6807	  8716#
MAIADD	   666	  5720#
MAIAOK	  5730	  5744	  5750#
MAILDB	  5825	  5905	  8198	  9026#
MAILOU	  5563	  6551#
MAILST	   669	  5901#
MAIREM	   667	  5764#
MAIROK	  5770	  5788	  5805#
MAKDAT	  7789#	  7822	  7831
MANAME	  6553	  8700#
MANNDT	  6600	  8690#
MARCM	  6810	  8714#
MARUB	  6804	  8712#
MAS	  6237	  8711#
MATYM	  6795	  8701#
MAX940	   281#	  9144
MAXCCO	   292#	  6908	  6923
MAXCOD	   433	   685#
MAXCUR	   307#	  7285
MAXCUS	   290#	  6759
MAXDET	   296#	  6975
MAXDIS	   294#	  6893
MAXFFF	   302#	  6876
MAXINV	   298#	  7197	  7209
MAXLAN	   311#	  6957
MAXMIN	   304#	  6988
MAXPC	   309#	  6944	  7263
MAXSLS	   300#	  7222
MAXZON	   305#	  6843
MBUD	  6660	  7302	  8723#
MCOST	  6342	  6905	  6920	  8695#
MCSTNO	  2149	  4528	  4563	  6608	  6615	  6756	  8682#
MCURR	  6631	  7282	  8719#
MDET	  6558	  6972	  8684#
MDIST	  6309	  6890	  8683#
MDPR	  6353	  6941	  8721#
MDST	  6396	  8705#
MFOCF	  6347	  6873	  8696#
MGAN	  6364	  6712	  8697#
MGFD	  6243	  8717#
MHFIND	  5725	  6031	  8424#
MHFND	   848#	  5727
MHINIT	  5769	  8196#	  8405	  8424
MHLIST	   668	  5822#
MHLLST	  5838#	  5847	  5896	  5924	  5994
MHLNXT	  5850#	  5889
MHNEXT	  5922#	  5930
MHNFND	   850#	  5806
UPDLUD - ACCTG., LUD UPDATER	MACRO 12.5-46.0 17:15 19-SEP-89
UPDLUD.MAC	24-MAY-89 18:55		Symbol cross reference

MHNXT	  5878#	  5893
MHOST	  7021	  7036	  7050	  8728#
MINCCO	   291#	  6907	  6922
MINCUR	   306#	  7284
MINCUS	   289#	  6758
MINDET	   295#	  6974
MINDIS	   293#	  6892
MINFFF	   301#	  6875
MININV	   297#	  7196	  7208
MINIT	  6668	  7322	  8724#
MINLAN	   310#	  6956
MINMIN	   303#	  6987
MINOUT	  2402	  4702	  4737	  6563#
MINPC	   308#	  6943	  7262
MINSIT	   280#
MINSLS	   299#	  7221
MINV	  6569	  7194	  8693#
MISC	  1300	  1451	  1816	  1822	  1849	  6227	  6792	  7298	  8922	  8923	  8924	  8925	  8926	  9091#
MISOUT	  1784	  6648#
MKNCUS	  2049	  2052#	  2164	  2197	  4035	  6071
MKNTYM	  5447	  5449#	  5677	  6155	  6168
MKNUS	  2084	  2087#	  2254	  2848
MKNUSR	  2067	  2070#	  2858	  3149
MLANG	  6637	  6954	  8720#
MLSTH	  5882	  5894#
MMIN	  6564	  6985	  8685#
MMISC	  6654	  7290	  8722#
MMODE	  6249	  6813	  8718#
MNDAYS	  4940	  7351	  8729#
MNVALD	   856#	  5804
MO	  6480	  6488	  7402	  7797	  7806#	  7806	  7815
MODBIT	  6248	  6289	  6815	  6832	  8932#
MODES	  6250	  7877#
MODWD	  6290	  6831	  8944#
MONE	  8451	  8899#
MPCODE	  6620	  7259	  8706#
MPO	  6575	  7000	  8686#
MPOMAX	  6582	  7160	  8687#
MPOSTA	  6588	  7172	  8688#
MPOSTO	  6594	  7182	  8689#
MPRI	  7206	  8692#
MPRIV	  1798	  8725#
MPRIV1	  1832	  8726#
MPRIV2	  1837	  8727#
MQIN	  6408	  7242	  8707#
MQOUT	  6414	  7249	  8708#
MRCM	  6246	  8715#
MRCUST	  4926	  7357	  8730#
MRUB	  6240	  8713#
MSG1	  7894	  8740#
MSLS	  6359	  7219	  8694#
MSTART	  4921	  7363	  8731#
MTYM	  6234	  8702#
UPDLUD - ACCTG., LUD UPDATER	MACRO 12.5-46.0 17:15 19-SEP-89
UPDLUD.MAC	24-MAY-89 18:55		Symbol cross reference

MUAGAN	   648	  5345#	  5391
MUALGN	   644	  5218#
MUALL	  5236	  5245#	  5367
MUALL1	  5246#	  5267
MUALUD	   536	  1808#
MUAUSR	   646	  5241#	  5382
MUCHN	  5272#	  5277
MUCNA	  5274	  5278#
MUCNA1	  5281	  5288#
MUGAN1	   653	  5390#
MULLUD	   535	  1775#
MULST	  5291	  5336#
MULUD1	  1797	  1801#
MUNAME	  6547	  6748	  8699#
MUNXT	  5289#	  5305	  5309	  5330	  5335
MUUN	  1754	  4538	  6696	  8698#
MUUSR1	   651	  5381#
MXAINF	   227#	  9044
MXCINF	   194#	  9043
MXHINF	   232#	  9045
MXTHST	   282#	   284	  1916	  3187	  6438	  7449	  7671	  7695	  7704	  7748	  7777	  8400	  9040
MXTHSX	   284#	  7671	  7706	  7707	  7753	  7759
MXUINF	   173#	  9037
MXUSIN	   213#	  9038
MXVINF	   202#	  9039
MZONE	  6384	  6841	  8703#
N	   112#	   382	   383	   432	   433	   704	   713	   721	   730	   761	   762	   763	   764	   765
	   767	   768	   770	   771	   772	   803	   806	   913	   978	   981	  1053	  1054	  1055	  1060
	  1061	  1062	  1135	  1136	  1138	  1144	  1168	  1183	  1284	  1291	  1293	  1295	  1385	  1388
	  1424	  1449	  1450	  1451	  1452	  1453	  1454	  1455	  1456	  1484	  1491	  1492	  1505	  1506
	  1507	  1509	  1510	  1511	  1512	  1513	  1514	  1515	  1521	  1522	  1523	  1539	  1540	  1541
	  1543	  1544	  1545	  1546	  1547	  1548	  1549	  1555	  1574	  1575	  1591	  1596	  1597	  1613
	  1614	  1626	  1655	  1656	  1657	  1658	  1659	  1661	  1662	  1677	  1678	  1680	  1697	  1698
	  1741	  1755	  1778	  1779	  1782	  1789	  1791	  1793	  1795	  1811	  1812	  1835	  1840	  1847
	  1849	  1859	  1860	  1885	  1895	  1896	  1916	  1919	  1921	  1924	  1927	  1929	  1936	  1938
	  1980	  1981	  1982	  1983	  2053	  2058	  2059	  2060	  2071	  2076	  2077	  2078	  2088	  2093
	  2094	  2095	  2112	  2125	  2133	  2134	  2138	  2145	  2147	  2160	  2161	  2249	  2250	  2252
	  2395	  2397	  2399	  2403	  2453	  2454	  2456	  2457	  2482	  2524	  2525	  2527	  2557	  2558
	  2560	  2606	  2611	  2616	  2655	  2661	  2665	  2686	  2719	  2720	  2721	  2722	  2743	  2744
	  2747	  2757	  2764	  2765	  2766	  2767	  2798	  2799	  2817	  2818	  2856	  2857	  2859	  2860
	  2919	  2988	  2993	  2998	  3044	  3048	  3072	  3073	  3092	  3093	  3132	  3133	  3175	  3176
	  3179	  3185	  3187	  3188	  3189	  3202	  3203	  3313	  3314	  3338	  3340	  3352	  3521	  3527
	  3528	  3545	  3555	  3556	  3557	  3587	  3588	  3612	  3613	  3618	  3649	  3650	  3667	  3673
	  3677	  3679	  3718	  3837	  3848	  3861	  3923	  3936	  3976	  3977	  3987	  4009	  4011	  4013
	  4095	  4103	  4104	  4106	  4172	  4176	  4481	  4526	  4531	  4535	  4561	  4614	  4643	  4692
	  4699	  4703	  4714	  4722	  4744	  4833	  4834	  4871	  4892	  4911	  4913	  4919	  4924	  4929
	  4931	  4934	  4938	  4990	  4997	  5074	  5075	  5089	  5097	  5132	  5133	  5135	  5188	  5189
	  5191	  5202	  5282	  5283	  5285	  5286	  5287	  5294	  5295	  5398	  5399	  5400	  5401	  5412
	  5420	  5422	  5426	  5427	  5428	  5440	  5455	  5521	  5522	  5537	  5546	  5547	  5559	  5564
	  5574	  5605	  5609	  5625	  5672	  5676	  5684	  5721	  5722	  5724	  5746	  5753	  5754	  5755
	  5765	  5766	  5768	  5813	  5834	  5864	  5865	  5874	  5875	  5890	  5902	  5917	  5926	  5927
	  5938	  5946	  5947	  5948	  5958	  5967	  5987	  5995	  6027	  6029	  6040	  6052	  6076	  6077
	  6085	  6086	  6091	  6092	  6111	  6112	  6114	  6129	  6149	  6150	  6151	  6152	  6153	  6154
UPDLUD - ACCTG., LUD UPDATER	MACRO 12.5-46.0 17:15 19-SEP-89
UPDLUD.MAC	24-MAY-89 18:55		Symbol cross reference

	  6163	  6167	  6222	  6226	  6227	  6228	  6229	  6233	  6236	  6239	  6242	  6245	  6248	  6250	  6291
	  6296	  6298	  6299	  6304	  6315	  6316	  6317	  6318	  6319	  6321	  6323	  6324	  6326	  6329
	  6332	  6349	  6354	  6379	  6381	  6385	  6386	  6387	  6397	  6409	  6411	  6419	  6433	  6476
	  6480	  6484	  6486	  6487	  6490	  6491	  6495	  6513	  6517	  6521	  6526	  6529	  6533	  6537
	  6541	  6548	  6554	  6565	  6570	  6578	  6583	  6589	  6595	  6601	  6606	  6613	  6618	  6626
	  6632	  6638	  6644	  6649	  6650	  6651	  6652	  6661	  6662	  6674	  6680	  6686	  6700	  6701
	  6705	  6706	  6707	  6708	  6715	  6716	  6720	  6721	  6726	  6729	  6749	  6758	  6759	  6761
	  6762	  6763	  6771	  6777	  6778	  6779	  6783	  6797	  6800	  6803	  6806	  6809	  6812	  6815
	  6818	  6843	  6845	  6851	  6854	  6862	  6863	  6864	  6875	  6876	  6878	  6879	  6880	  6882
	  6883	  6892	  6893	  6895	  6896	  6897	  6907	  6908	  6910	  6911	  6922	  6923	  6925	  6933
	  6934	  6943	  6944	  6946	  6956	  6957	  6959	  6964	  6965	  6974	  6975	  6977	  6987	  6988
	  6990	  6995	  7023	  7024	  7025	  7040	  7043	  7044	  7045	  7054	  7058	  7059	  7068	  7081
	  7087	  7090	  7093	  7108	  7113	  7116	  7121	  7126	  7131	  7136	  7142	  7146	  7149	  7150
	  7162	  7164	  7174	  7184	  7187	  7196	  7197	  7199	  7208	  7209	  7211	  7221	  7222	  7224
	  7225	  7231	  7233	  7244	  7251	  7262	  7263	  7265	  7272	  7273	  7284	  7285	  7287	  7295
	  7296	  7297	  7298	  7304	  7305	  7314	  7324	  7328	  7330	  7333	  7334	  7353	  7359	  7378
	  7380	  7388	  7390	  7395	  7413	  7420	  7424	  7433	  7452	  7474	  7475	  7478	  7484	  7495
	  7502	  7506	  7517	  7525	  7550	  7555	  7563	  7601	  7602	  7774	  7805	  7818	  7824	  7825
	  7826	  7827	  7828	  7833	  7915	  7919	  7924	  7941	  7947	  7963	  7972	  7976	  7997	  8003
	  8006	  8007	  8008	  8010	  8011	  8013	  8032	  8046	  8048	  8052	  8053	  8055	  8065	  8078
	  8083	  8099	  8102	  8108	  8109	  8120	  8134	  8135	  8136	  8137	  8138	  8144	  8145	  8257
	  8259	  8283	  8285	  8309	  8311	  8332	  8335	  8356	  8358	  8378	  8384	  8385	  8402	  8440
	  8459	  8474	  8490	  8492
N1	   113#	   914	   916	  1237	  1241	  1386	  1389	  1742	  6319	  6320	  6648	  6727	  6730	  7294
	  7411	  7420	  7425	  7432	  7505	  7506	  7507	  7513	  7914	  7916	  7917	  7920	  7924	  7973
	  7975	  7986	  7987	  7992	  7998	  8002	  8004	  8013	  8033	  8034	  8035	  8037	  8054	  8064
	  8067	  8072	  8110	  8116	  8118	  8119	  8120	  8139
N2	   114#	  6401	  8147	  8148
N3	   115#	  8149
NACCD1	  5184#	  5194
NACUC1	  2990#
NACUD1	  2608#
NACUSN	   216#	  2611	  2993	  3650	  4339	  5075	  5547	  6762	  8348
NAMESO	   147#	  1751	  1906	  2498	  2627	  2673	  3009	  3056	  3817	  3865	  4628	  4641	  5572	  5603
	  5707
NAMOUT	  1573	  1750	  1894	  2672	  2916	  2938	  3055	  3672	  3860	  3895	  3935	  4102	  4525	  4937
	  5307	  5485	  5601	  5872	  6110	  6545#
NAMPTR	  1572	  1749	  1893	  8912#
NANNDT	   193#	  1983	  6601
NASTS	  2811#	  2811	  2833	  2840	  2850	  2883	  2885	  3258	  3283	  3293	  3304
NASTYP	   231#	  7693
NASYSC	   217#	  2616	  2998	  4342	  5545	  6777	  8352
NATTN	   219#	  2344	  9127
NAUSC1	  3034#	  3061
NAUSD1	  2651#	  2678
NCANCS	  3252	  3260	  3293#
NCCOST	   191#	  2397	  2956	  5188	  6153	  6910	  7005
NCDETC	   181#	  2175	  2399	  4703	  4722	  6977
NCDIST	   178#	  2395	  2580	  2823	  3848	  4027	  4614	  4714	  5008	  5051	  5169	  6064	  6151	  6896
NCDSTA	   179#	  1980	  2058	  7824
NCDSTO	   180#	  1982	  2053	  2055	  2060	  3314	  3316
NCHGAN	  3091	  3151#
NCINVC	   182#	  2187	  6570	  7199
UPDLUD - ACCTG., LUD UPDATER	MACRO 12.5-46.0 17:15 19-SEP-89
UPDLUD.MAC	24-MAY-89 18:55		Symbol cross reference

NCITY	   222#	  2350	  9130
NCMINC	   184#	  6565	  6990
NCOUNT	   226#	  2358	  9134
NCSLS	   183#	  2249	  2403	  4744	  7224
NCSYSC	   177#	  2160	  2453	  2507	  2602	  2818	  2830	  2984	  3305	  3834	  3845	  4341	  5414	  5651
	  6135	  6778	  7577	  8301
NCURR	   167#	  6632	  7287
NCUSNA	   218#	  2325	  9126
NCUSNU	   176#	  1948	  2540	  2598	  2856	  2980	  3303	  3466	  3494	  3528	  3701	  3734	  3826	  3881
	  4338	  4851	  4873	  4899	  4900	  4950	  4970	  5356	  5636	  5654	  6076	  6149	  6761	  7266
	  7340	  7573	  8297	  8324	  8523
NDPRI	   190#	  2373	  2829	  6354	  6946	  7211	  7272
NDST	   210#	  6374	  6861
NEG	  7474#	  7478
NENTP	   997	  1516	  1518	  1550	  1552	  7490	  8915#
NENTRY	   999#	   999	  1424	  6401	  7647	  7657
NEQUAL	  4252	  5777	  9141#
NEWCRC	  2044	  2048#	  2268
NEWCUS	   540	  1935#
NEWF	   129#	  1442	  1589	  1604	  2004	  2013	  2023	  2033	  6754	  6839	  6871	  6888	  6903	  6918
	  6939	  6952	  6970	  6983	  6998	  7071	  7100	  7158	  7170	  7180	  7192	  7204	  7217	  7240
	  7247	  7257	  7280
NEWHST	  5282	  7087#	  7087
NEWMSG	  6755	  6840	  6872	  6889	  6904	  6919	  6940	  6953	  6971	  6984	  6999	  7072	  7101	  7159
	  7171	  7181	  7193	  7205	  7218	  7241	  7248	  7258	  7281	  8898#
NEWNAM	   518	  1269#
NEWURC	  2066#	  2786	  3067	  3366
NEWUSR	  2083#	  2897	  3160
NEWUUN	   564	  2684#
NFOCF	   192#	  6880	  6883	  9125
NGAN	   162#	  2524	  2557	  2665	  3048	  3072	  3093	  3097	  3667	  3861	  3910	  3936	  4531	  5132
	  5233	  5364	  5400	  5401	  5605	  6167	  6720
NGANIN	  1564	  1701	  1709#	  1886
NGNCCO	  5128#	  5140
NHHOST	   230#	  7692
NHOST	   198#	  2767	  3177	  3334	  3803	  3963	  3976	  3983	  4051	  4063	  4253	  4361	  4384	  4404
	  4414	  4439	  4573	  5283	  5324	  7043	  7044	  7058	  7343	  7662	  8393
NLALST	  5616#
NLANG	   168#	  3512	  6638	  6959
NLAUM1	  5604	  5614#
NLAUMN	  5595#	  5615
NLHST	  1918	  1928#
NLOGBI	  6279	  8922#
NLOGWD	  6280	  8933#
NMHOST	   235#	  5724	  5729	  5751	  5768	  5778	  5850	  5890	  5926	  6029	  8413	  8432
NMHUUN	   234#	  5722	  5735	  5766	  5774	  5793	  5848	  5884	  5902	  5909	  6027	  8409	  8428	  8447
NMSGBI	  6281	  8923#
NMSGWD	  6282	  8934#
NNAME	   913	   914	  1075	  1078	  1363	  1365	  1385	  1386	  1415	  1417	  2784	  5445	  6786	  6788
	  9104#
NNLUDH	   172#	  7017
NO	  6316	  6325	  6380	  6860	  6882	  7474	  8897#
NOADDR	   842#	  2022	  2389	  3652	  5077	  5549
UPDLUD - ACCTG., LUD UPDATER	MACRO 12.5-46.0 17:15 19-SEP-89
UPDLUD.MAC	24-MAY-89 18:55		Symbol cross reference

NOAST	  3186	  3188	  3198#
NOCLOS	  3308	  9137#
NOCR	   149#	  1682	  6394	  6501	  6505	  6675	  6681	  8087
NOFIT	  1058	  7487	  7529#
NOG1	   802	   809	   869#
NOG2	   870	   873#
NOGOOD	   782	   784	   786	   811	   813	   815	   817	   821	   823	   837	   839	   841	   843	   845
	   847	   849	   851	   853	   855	   857	   862#
NOHSTS	   135#	  5280	  5308	  5381	  5390	  7082
NONE	   991#	  1022
NOTFND	   479	   484	   497	   502	   783#	  1090	  1106	  1357	  1371	  1441	  1448	  1463	  1468	  1482
	  1490	  1588	  1595	  1603	  1612	  1622	  1629	  1642	  1675	  1695	  1768	  1776	  2003	  2012
	  2032	  2384	  2422	  2427	  2439	  2483	  2751	  2783	  2795	  2810	  2855	  2965	  3028	  3151
	  3523	  3573	  3630	  3645	  3657	  3662	  3695	  3765	  3783	  3838	  3920	  4010	  4556	  4606
	  4875	  4894	  4915	  4952	  4958	  4972	  5065	  5070	  5122	  5178	  5442	  5540	  5555	  5589
	  5674	  5835	  5918	  5988	  6019	  6139	  6145	  6165	  7338	  7346
NPO	   185#	  2278	  9124
NPOMAX	   186#	  2290	  6583	  7164
NPOSTA	   187#	  2301	  6589	  7174
NPOSTO	   188#	  2313	  6595	  7187
NPRICO	   207#	  2831	  2847	  6618	  7265	  7273
NRES	   208#	  6965
NSITES	  2655	  3716#	  3716	  3718	  3754	  4011	  4013	  6419	  8384
NSTATE	   223#	  2352	  9131
NSTOP	  1952	  1981	  2059	  2077	  2094	  2212	  2241	  2478	  2544	  2584	  2641	  2719	  2764	  2873
	  2907	  2928	  2960	  3023	  3087	  3105	  3121	  3147	  3219	  3269	  3279	  3330	  3449	  3470
	  3502	  3555	  3609	  3714	  3738	  3752	  3799	  3830	  3885	  3914	  3967	  4005	  4059	  4091
	  4133	  4147	  4249	  4429	  4488	  4577	  4592	  4684	  4836	  4991	  5019	  5029	  5041	  5055
	  5117	  5173	  5229	  5258	  5286	  5320	  5360	  5427	  5474	  5508	  5584	  5640	  5662	  5699
	  5713	  5739	  5754	  5782	  5797	  5830	  5861	  5913	  5947	  5983	  6014	  7184	  7581	  7679
	  7718	  8253	  8279	  8305	  8328	  8374	  8417	  8436	  8455	  8470	  8486	  8510	  8527	  9139#
NSTRT1	   220#	  2346	  9128
NSTRT2	   221#	  2348	  9129
NSYSTA	   211#	  2093	  7827
NSYSTO	   212#	  2088	  2090	  2095	  2722	  3203	  3205	  3556
NTCOST	   254#	  5564	  6154	  6925	  7013
NTCREC	   266#	  4840	  4858	  4924	  4983	  4986	  7334	  7359
NTHERE	   443	   844#
NTMUUN	   253#	  5422	  5552	  5625	  5632	  5676	  5684	  5691
NTRHST	   240#	  5938	  5944	  5958	  5995	  6040	  8466
NTRSTA	   241#	  5946
NTRSTO	   242#	  5948	  5967	  5969
NTSTAR	   251#	  5426	  5455
NTSTOP	   252#	  5428
NTUDAY	   262#	  4830	  4938	  4960	  4977	  7353
NUCOST	   171#	  3019	  3677	  5113	  6911	  7009
NUCUSN	   166#	  2661	  2798	  2857	  2860	  2869	  3044	  3250	  3265	  3302	  3493	  3498	  3527	  3649
	  4526	  4561	  4661	  5074	  5412	  5546	  5559	  5653	  5658	  6077	  6150	  6606	  6613	  6763
	  7339
NUDIST	   165#	  2637	  2824	  3101	  3673	  3923	  4104	  4106	  4109	  5202	  5420	  6112	  6114	  6117
	  6152	  6897
NUM01	  8031	  8042#
NUM02	  8035	  8038#	  8040
UPDLUD - ACCTG., LUD UPDATER	MACRO 12.5-46.0 17:15 19-SEP-89
UPDLUD.MAC	24-MAY-89 18:55		Symbol cross reference

NUM940	  7971	  8001#
NUMBAD	  7979	  7995#
NUMOUT	   804	   807	   980	   983	  1757	  1794	  1796	  2150	  2613	  2662	  2668	  2995	  3045	  3051
	  3619	  4529	  4540	  4564	  4700	  4927	  5612	  6292	  6297	  6301	  6306	  6343	  6366	  6410
	  6415	  6477	  6481	  6485	  6492	  6584	  6609	  6616	  6645	  6663	  8029#
NUMRET	  1954	  1956	  2446	  2480	  2482	  2604	  2606	  2809	  2909	  2917	  2930	  2939	  2962	  2964
	  2986	  2988	  3107	  3109	  3123	  3125	  3185	  3221	  3223	  3336#	  3336	  3338	  3388	  3394
	  3405	  3451	  3456	  3472	  3474	  3484	  3504	  3611	  3612	  3782	  3805	  3811	  3836	  3837
	  4007	  4009	  4093	  4095	  4420	  4422	  4479	  4481	  4690	  4692	  5175	  5177	  5193	  5326
	  5328	  5510	  5586	  5588	  5614	  5646	  5664	  5741	  5743	  5784	  5787	  5799	  5803	  5832
	  5834	  5863	  5864	  5915	  5917	  5985	  5987	  6079	  6085	  6644	  7345	  7583	  7586	  7681
	  7685	  7698	  7720	  7722	  7731	  8255	  8257	  8281	  8283	  8307	  8309	  8330	  8332	  8354
	  8356	  8376	  8378	  8419	  8421	  8438	  8440	  8457	  8459	  8472	  8474	  8488	  8490	  8512
	  8514	  8529	  8531
NUNAME	   164#	  2778	  2784	  2785	  2937	  3894	  5409	  5410	  5445	  5446	  5484	  5562	  5600	  6109
	  6545	  6551	  6745
NUSLSM	   206#	  2250	  2252	  3679	  5089	  7225
NUSTAR	   169#	  2076	  7825
NUSTOP	   170#	  2071	  2073	  2078	  2720
NUSUUN	   204#	  2226	  2227	  2474	  3117	  3215	  3445	  3605	  4160	  4191	  4223	  4358	  4359	  4381
	  4402	  4410	  4436	  4437	  4664	  6092	  6706	  6708	  8271
NUSYSC	   205#	  2216	  2245	  2749	  2817	  2841	  3199	  3400	  4363	  4440	  6779	  7062	  8275
NUUN	   163#	  2237	  3083	  3143	  3748	  4087	  4159	  4222	  4225	  4458	  4467	  4473	  4535	  4680
	  4828	  4849	  4911	  4930	  4934	  4957	  4974	  5292	  5294	  5295	  5297	  5398	  5440	  5521
	  5537	  5609	  5672	  5721	  5765	  6091	  6099	  6100	  6129	  6163	  6707	  7088	  7093	  7333
	  7664	  8482
NUUNS	  2218	  2220	  2229	  2514	  2531	  2546	  2547	  2564	  2643	  2645	  2677	  2875	  2877	  3025
	  3027	  3060	  3285	  3287	  3586	  3590	  3597	  3703	  3740#	  3740	  3851	  3870	  3887	  3897
	  3916	  3918	  3925	  3940	  4040	  4065	  4067	  4074	  4151	  4153	  4162	  4542	  4579	  4581
	  4594	  4596	  4667	  5119	  5121	  5139	  5235	  5245	  5264	  5266	  5276	  5366	  5476	  5490
	  6016	  6018	  6086	  6094
NUZONE	   209#	  6373	  6864
NVGAN	   201#	  3131	  3133	  3959	  4001	  5470	  5504	  6010	  6721
NVPF	   189#	  2826	  6329	  6934	  7269	  7585
NVSTAR	   199#	  4833	  4834	  4919	  4990	  5285	  5753	  7826
NVSTOP	   200#	  2721	  2765	  3352	  3354	  3557	  4837	  4838	  4871	  4877	  4884	  4903	  4992	  4997
	  4999	  5287	  5746	  5748	  5755	  5813	  5815
NWCS1	  1944	  1958#
NWTUUN	   655	  5397#
NXL	   225#	  2356	  9133
NXT	  1702#	  1707
NXTACT	  4675#	  4693	  4707
NXTAST	  7725#	  7732
NXTCCD	  5186	  5190	  5193#
NXTDIG	  7917#	  7923
NXTFIL	  1171#	  1183
NXTG1	  2526	  2531#
NXTGAN	  1702	  1731#	  1737	  1740	  1744	  1888
NXTGCO	  5130	  5134	  5139#
NXTGN	  2520#	  2532
NXTGRP	  1161#	  1167	  1169	  1184
NXTHS1	  8395	  8399#
NXTHST	  8390#	  8402
UPDLUD - ACCTG., LUD UPDATER	MACRO 12.5-46.0 17:15 19-SEP-89
UPDLUD.MAC	24-MAY-89 18:55		Symbol cross reference

NXTS	  3188#	  3190	  3197
NXTSIT	  6433#	  6439
NXTSYS	  7689#	  7699
NXTTDC	  6097#	  6103	  6122
NXTTG1	  2559	  2564#
NXTTGN	  2553#	  2565
NXTTMP	  4081#	  4096	  4114
NXTU	  1566#	  1571	  1578
NZIP	   224#	  2354	  9132
OAST	  1938	  1942	  2686	  3521	  4340	  4362	  9062#
OBCT	  2135	  8993#
OBLK	  1376	  4494	  9060#
OBPTR	  2138	  8992#
OBUF	  8985	  8991#
OCTDEC	  6704	  6719	  7315	  7424#
OCTINF	   145#	   426	   979	   982	  1756	  1833	  1838	  2667	  3050	  4539	  5611	  6300	  6305	  6365
	  6655	  6697	  6713	  7260	  7291	  7292	  7311	  7950	  7974	  7983	  7995	  8016	  8042
OCTOUT	  8043	  8064#
OCUST	  1936	  4337	  9061#
OHASH	  1374	  4501	  9059#
OINDEX	  1372	  4500	  9058#
OLDCOD	   968#	   968	  4261	  4290	  4295
OLDHST	  5262	  7081#	  7081
OLDNAM	  2778	  2779	  4396	  9079#
OLDNEW	  5220	  5242	  5347	  7078#
OLDNUM	  2799	  2859	  9077#
OLLCOD	   952#	   952	  1093
ONAME	  1359	  1361	  4506	  4508	  9057#
ONE	   407	   408	   411	   412	  2589	  2676	  2813	  2971	  3059	  3079	  3139	  3255	  3291	  3869
	  4139	  5021	  5043	  5300	  5879	  6848	  7601	  7966	  8026	  8901#
ONEOUT	  1922	  1925	  2617	  2921	  2999	  4933	  6310	  6327	  6331	  6360	  6382	  6566	  6627	  6633
	  6639	  6656	  6689	  7552	  7565	  8026#
ONESIT	   140#	  3972
OPLUD	   700#	   897	  6732
OPNBLK	  2113	  8983#
ORGSAV	  1107	  1316	  1334#	  1647	  1877
ORGSV1	  1045	  1116	  1343#
OUCH	   881	   886	   890	   972	  7884#	  8039	  8070	  8082
OVBLK	   743#	   743	   752	   753	   754	   775	   777	   991	  7537	  7543
OVFLF	   142#	  7532
P	   118#	   322	   323	   374	   376	   379	   385	   390	   414	   415	   422	   431	   443	   446
	   448	   450	   452	   454	   464	   473	   474	   475	   476	   478	   479	   483	   484	   488
	   489	   490	   492	   493	   494	   496	   497	   501	   502	   698	   701	   702	   706	   710
	   718	   719	   723	   727	   732	   740	   741	   751	   757	   759	   773	   778	   804	   805
	   807	   808	   864	   868	   872	   881	   886	   890	   897	   915	   918	   921	   937	   941
	   943	   948	   953	   960	   972	   980	   983	   995	   996	  1009	  1010	  1015	  1020	  1025
	  1033	  1036	  1045	  1056	  1058	  1064	  1068	  1069	  1089	  1090	  1091	  1102	  1103	  1104
	  1105	  1106	  1107	  1111	  1112	  1114	  1116	  1124	  1131	  1154	  1186	  1188	  1194	  1195
	  1198	  1216	  1220	  1221	  1222	  1228	  1230	  1231	  1232	  1233	  1234	  1235	  1248	  1249
	  1260	  1264	  1269	  1271	  1272	  1274	  1278	  1279	  1283	  1285	  1286	  1287	  1288	  1290
	  1294	  1306	  1308	  1315	  1316	  1325	  1330	  1337	  1340	  1348	  1351	  1356	  1357	  1362
	  1367	  1368	  1369	  1370	  1371	  1377	  1382	  1387	  1395	  1398	  1403	  1405	  1409	  1410
	  1412	  1414	  1422	  1423	  1425	  1426	  1440	  1441	  1443	  1445	  1446	  1447	  1448	  1462
UPDLUD - ACCTG., LUD UPDATER	MACRO 12.5-46.0 17:15 19-SEP-89
UPDLUD.MAC	24-MAY-89 18:55		Symbol cross reference

	  1463	  1464	  1465	  1466	  1467	  1468	  1481	  1482	  1483	  1487	  1488	  1489	  1490	  1495	  1496
	  1497	  1502	  1508	  1529	  1530	  1531	  1536	  1542	  1557	  1564	  1568	  1573	  1576	  1577
	  1580	  1587	  1588	  1590	  1592	  1593	  1594	  1595	  1602	  1603	  1608	  1609	  1610	  1611
	  1612	  1621	  1622	  1625	  1627	  1628	  1629	  1631	  1632	  1634	  1635	  1637	  1640	  1641
	  1642	  1647	  1652	  1654	  1667	  1668	  1669	  1674	  1675	  1676	  1679	  1681	  1683	  1684
	  1685	  1686	  1687	  1694	  1695	  1696	  1699	  1701	  1702	  1704	  1706	  1715	  1716	  1718
	  1723	  1725	  1728	  1729	  1735	  1736	  1743	  1746	  1747	  1748	  1750	  1752	  1757	  1758
	  1759	  1760	  1767	  1768	  1775	  1776	  1777	  1780	  1781	  1783	  1784	  1786	  1788	  1794
	  1796	  1799	  1800	  1801	  1808	  1810	  1813	  1814	  1815	  1818	  1819	  1821	  1824	  1825
	  1830	  1834	  1839	  1841	  1842	  1843	  1844	  1846	  1848	  1857	  1859	  1862	  1864	  1870
	  1876	  1877	  1884	  1886	  1887	  1888	  1890	  1892	  1894	  1897	  1898	  1899	  1900	  1919
	  1920	  1922	  1923	  1924	  1925	  1926	  1927	  1930	  1935	  1937	  1939	  1941	  1957	  1961
	  1964	  1965	  1966	  1967	  1968	  1969	  1970	  1971	  1972	  1973	  1974	  1975	  1976	  1977
	  1978	  1979	  1985	  1987	  1989	  1992	  1994	  1999	  2000	  2001	  2002	  2003	  2005	  2006
	  2009	  2010	  2011	  2012	  2014	  2015	  2018	  2019	  2020	  2021	  2022	  2024	  2025	  2028
	  2029	  2030	  2031	  2032	  2034	  2035	  2042	  2048	  2049	  2052	  2056	  2057	  2062	  2063
	  2066	  2067	  2070	  2074	  2075	  2080	  2081	  2083	  2084	  2087	  2091	  2092	  2097	  2098
	  2146	  2150	  2159	  2163	  2164	  2172	  2173	  2176	  2184	  2185	  2188	  2195	  2196	  2197
	  2202	  2222	  2228	  2231	  2232	  2254	  2256	  2267	  2275	  2276	  2279	  2287	  2288	  2291
	  2298	  2299	  2302	  2310	  2311	  2314	  2322	  2323	  2326	  2336	  2337	  2370	  2371	  2374
	  2380	  2381	  2383	  2384	  2388	  2389	  2393	  2394	  2396	  2398	  2400	  2401	  2402	  2404
	  2405	  2406	  2407	  2408	  2409	  2410	  2411	  2412	  2413	  2418	  2419	  2421	  2422	  2426
	  2427	  2430	  2431	  2436	  2438	  2439	  2440	  2445	  2450	  2455	  2458	  2468	  2470	  2483
	  2484	  2504	  2508	  2513	  2528	  2529	  2530	  2536	  2561	  2562	  2563	  2571	  2613	  2617
	  2620	  2628	  2654	  2656	  2658	  2662	  2666	  2668	  2672	  2674	  2684	  2685	  2687	  2689
	  2693	  2695	  2699	  2700	  2701	  2702	  2705	  2706	  2707	  2708	  2709	  2710	  2711	  2713
	  2714	  2715	  2716	  2717	  2718	  2723	  2725	  2728	  2730	  2733	  2735	  2741	  2742	  2746
	  2747	  2750	  2751	  2755	  2758	  2761	  2762	  2763	  2770	  2777	  2781	  2782	  2783	  2791
	  2792	  2794	  2795	  2808	  2810	  2821	  2822	  2825	  2844	  2848	  2854	  2855	  2858	  2861
	  2878	  2879	  2884	  2888	  2896	  2903	  2915	  2916	  2921	  2924	  2936	  2938	  2943	  2947
	  2965	  2966	  2995	  2999	  3002	  3010	  3028	  3029	  3045	  3049	  3051	  3055	  3057	  3066
	  3071	  3111	  3135	  3149	  3151	  3159	  3167	  3168	  3169	  3173	  3174	  3176	  3177	  3180
	  3181	  3192	  3193	  3200	  3206	  3211	  3225	  3226	  3234	  3235	  3236	  3245	  3249	  3288
	  3299	  3311	  3317	  3320	  3321	  3339	  3341	  3346	  3347	  3349	  3350	  3351	  3355	  3358
	  3364	  3371	  3372	  3373	  3377	  3378	  3379	  3387	  3392	  3393	  3404	  3433	  3434	  3437
	  3438	  3452	  3455	  3459	  3462	  3483	  3489	  3505	  3509	  3510	  3513	  3519	  3520	  3522
	  3523	  3529	  3531	  3535	  3536	  3539	  3540	  3541	  3542	  3544	  3552	  3553	  3554	  3558
	  3560	  3563	  3565	  3570	  3572	  3573	  3574	  3578	  3584	  3592	  3596	  3599	  3600	  3615
	  3619	  3620	  3627	  3629	  3630	  3634	  3635	  3641	  3642	  3644	  3645	  3651	  3652	  3656
	  3657	  3661	  3662	  3666	  3668	  3669	  3670	  3672	  3674	  3675	  3678	  3680	  3681	  3682
	  3683	  3684	  3685	  3686	  3692	  3694	  3695	  3696	  3700	  3702	  3720	  3725	  3741	  3756
	  3761	  3762	  3764	  3765	  3770	  3772	  3778	  3779	  3781	  3783	  3785	  3787	  3791	  3808
	  3818	  3819	  3822	  3838	  3844	  3849	  3850	  3857	  3860	  3862	  3863	  3864	  3866	  3867
	  3875	  3877	  3895	  3896	  3904	  3906	  3920	  3922	  3924	  3935	  3937	  3938	  3939	  3944
	  3949	  3952	  3953	  3955	  3968	  3973	  3974	  3989	  3990	  3995	  3997	  4010	  4012	  4014
	  4019	  4030	  4031	  4032	  4035	  4038	  4039	  4044	  4069	  4073	  4080	  4081	  4102	  4110
	  4113	  4115	  4119	  4126	  4155	  4161	  4188	  4196	  4197	  4206	  4218	  4220	  4226	  4227
	  4233	  4238	  4239	  4241	  4298	  4299	  4311	  4317	  4320	  4327	  4328	  4343	  4345	  4350
	  4352	  4364	  4366	  4369	  4371	  4374	  4376	  4385	  4387	  4393	  4397	  4405	  4430	  4441
	  4443	  4446	  4449	  4459	  4461	  4468	  4489	  4492	  4493	  4499	  4503	  4504	  4510	  4516
	  4517	  4518	  4519	  4525	  4529	  4530	  4532	  4533	  4534	  4536	  4540	  4541	  4544	  4553
	  4555	  4556	  4560	  4564	  4598	  4603	  4605	  4606	  4607	  4615	  4642	  4644	  4650	  4651
	  4652	  4655	  4665	  4672	  4675	  4698	  4700	  4701	  4702	  4704	  4705	  4706	  4715	  4723
UPDLUD - ACCTG., LUD UPDATER	MACRO 12.5-46.0 17:15 19-SEP-89
UPDLUD.MAC	24-MAY-89 18:55		Symbol cross reference

	  4730	  4737	  4745	  4752	  4760	  4766	  4773	  4780	  4787	  4794	  4801	  4808	  4814	  4821	  4831
	  4832	  4835	  4839	  4842	  4843	  4850	  4852	  4854	  4855	  4857	  4862	  4864	  4869	  4870
	  4872	  4874	  4875	  4878	  4881	  4885	  4891	  4893	  4894	  4904	  4914	  4915	  4918	  4922
	  4923	  4927	  4928	  4933	  4937	  4941	  4942	  4947	  4948	  4949	  4951	  4952	  4958	  4961
	  4967	  4968	  4969	  4971	  4972	  4975	  4978	  4981	  4987	  4989	  4994	  4996	  5000	  5005
	  5061	  5062	  5064	  5065	  5069	  5070	  5076	  5077	  5081	  5082	  5090	  5096	  5098	  5105
	  5122	  5123	  5136	  5137	  5138	  5148	  5155	  5161	  5178	  5179	  5192	  5203	  5210	  5218
	  5219	  5220	  5221	  5241	  5242	  5243	  5244	  5246	  5271	  5275	  5279	  5284	  5288	  5290
	  5304	  5307	  5329	  5332	  5334	  5345	  5346	  5347	  5348	  5397	  5402	  5404	  5408	  5411
	  5415	  5416	  5419	  5421	  5423	  5424	  5425	  5430	  5432	  5439	  5441	  5442	  5444	  5447
	  5449	  5450	  5453	  5454	  5457	  5458	  5464	  5466	  5478	  5485	  5488	  5489	  5492	  5493
	  5498	  5500	  5513	  5520	  5523	  5524	  5527	  5530	  5531	  5536	  5539	  5540	  5548	  5549
	  5554	  5555	  5558	  5560	  5563	  5565	  5573	  5576	  5589	  5590	  5601	  5602	  5606	  5607
	  5608	  5610	  5612	  5613	  5618	  5624	  5626	  5628	  5645	  5649	  5665	  5671	  5673	  5674
	  5675	  5677	  5683	  5685	  5687	  5709	  5720	  5723	  5725	  5727	  5728	  5745	  5749	  5752
	  5757	  5764	  5767	  5769	  5789	  5804	  5805	  5806	  5807	  5812	  5816	  5835	  5836	  5839
	  5840	  5866	  5872	  5873	  5876	  5877	  5887	  5888	  5891	  5892	  5895	  5901	  5918	  5919
	  5928	  5929	  5937	  5939	  5941	  5942	  5945	  5950	  5957	  5959	  5960	  5961	  5966	  5970
	  5988	  5989	  5997	  5998	  6004	  6006	  6019	  6020	  6026	  6028	  6031	  6038	  6041	  6048
	  6051	  6052	  6067	  6068	  6071	  6074	  6075	  6078	  6082	  6087	  6093	  6096	  6097	  6102
	  6110	  6118	  6121	  6126	  6130	  6137	  6139	  6143	  6145	  6155	  6162	  6164	  6165	  6166
	  6168	  6175	  6178	  6179	  6190	  6232	  6235	  6238	  6241	  6244	  6247	  6251	  6301	  6310
	  6336	  6339	  6343	  6355	  6360	  6383	  6392	  6393	  6395	  6397	  6410	  6412	  6415	  6420
	  6435	  6436	  6440	  6441	  6471	  6477	  6481	  6500	  6502	  6506	  6509	  6510	  6515	  6519
	  6559	  6566	  6571	  6584	  6590	  6596	  6602	  6609	  6616	  6621	  6625	  6627	  6628	  6633
	  6639	  6645	  6656	  6663	  6670	  6676	  6682	  6683	  6689	  6694	  6698	  6703	  6704	  6709
	  6714	  6718	  6719	  6722	  6725	  6728	  6731	  6732	  6736	  6737	  6738	  6740	  6757	  6760
	  6764	  6769	  6776	  6780	  6796	  6799	  6802	  6805	  6808	  6811	  6814	  6816	  6817	  6835
	  6842	  6844	  6847	  6853	  6856	  6865	  6874	  6877	  6881	  6884	  6891	  6894	  6898	  6906
	  6909	  6913	  6921	  6924	  6926	  6931	  6935	  6942	  6945	  6947	  6955	  6958	  6960	  6963
	  6966	  6973	  6976	  6978	  6986	  6989	  6991	  7006	  7010	  7014	  7018	  7022	  7027	  7028
	  7031	  7032	  7037	  7039	  7040	  7046	  7051	  7053	  7054	  7057	  7061	  7063	  7064	  7080
	  7083	  7086	  7089	  7091	  7092	  7094	  7111	  7114	  7117	  7122	  7127	  7132	  7137	  7145
	  7146	  7150	  7151	  7161	  7163	  7165	  7173	  7175	  7183	  7186	  7188	  7195	  7198	  7200
	  7207	  7210	  7212	  7220	  7223	  7226	  7229	  7234	  7243	  7250	  7252	  7261	  7264	  7268
	  7271	  7274	  7283	  7286	  7288	  7293	  7299	  7303	  7306	  7312	  7315	  7316	  7320	  7326
	  7329	  7331	  7332	  7335	  7337	  7338	  7341	  7344	  7346	  7347	  7348	  7352	  7354	  7358
	  7360	  7364	  7365	  7369	  7370	  7374	  7375	  7377	  7379	  7381	  7384	  7385	  7387	  7389
	  7391	  7394	  7401	  7404	  7421	  7434	  7439	  7445	  7450	  7455	  7457	  7458	  7460	  7461
	  7462	  7463	  7466	  7472	  7476	  7477	  7486	  7487	  7503	  7509	  7515	  7518	  7527	  7542
	  7547	  7552	  7553	  7557	  7558	  7565	  7566	  7569	  7587	  7588	  7593	  7600	  7603	  7638
	  7650	  7660	  7666	  7686	  7696	  7701	  7705	  7709	  7710	  7723	  7736	  7747	  7766	  7767
	  7778	  7780	  7782	  7783	  7801	  7810	  7820	  7822	  7823	  7829	  7831	  7832	  7835	  7886
	  7890	  7895	  7901	  7909	  7933	  7952	  7954	  7965	  7977	  8012	  8014	  8017	  8019	  8039
	  8041	  8054	  8056	  8057	  8060	  8063	  8070	  8073	  8077	  8082	  8085	  8088	  8092	  8096
	  8101	  8102	  8110	  8111	  8113	  8117	  8121	  8141	  8171	  8177	  8183	  8189	  8195	  8200
	  8206	  8212	  8218	  8224	  8244	  8258	  8260	  8267	  8284	  8286	  8293	  8310	  8312	  8317
	  8318	  8320	  8333	  8334	  8336	  8341	  8342	  8344	  8357	  8359	  8366	  8379	  8380	  8382
	  8383	  8387	  8401	  8405	  8422	  8423	  8424	  8442	  8443	  8460	  8461	  8462	  8475	  8476
	  8478	  8491	  8493	  8502	  8519
PB940O	  6231	  6268#
PBOUT	  1684	  1758	  6226#
PDP	   322	   422	  9112#
UPDLUD - ACCTG., LUD UPDATER	MACRO 12.5-46.0 17:15 19-SEP-89
UPDLUD.MAC	24-MAY-89 18:55		Symbol cross reference

POBP	  6577	  6994	  9124#
POMOUT	  2406	  4760	  6581#
POOUT	  2405	  4752	  6574#
POSTAO	  2407	  4766	  6587#
POSTOO	  2408	  4773	  6593#
PPN	  1433	  4356	  4380	  4391	  4401	  4435	  4457	  4466	  5399	  5522	  7665	  9055#
PPNOUT	  1576	  1679	  1780	  1897	  6220#
PRIOUT	  3681	  6618#
PRIV	  1282	  1284	  1302	  1455	  1835	  1840	  6229	  6791	  8927	  8928	  8929	  8930	  8931	  8932
	  9092#
QIN	  1311	  1474	  7244	  9095#
QOUT	  1313	  1476	  7251	  9096#
RCMBIT	  6245	  6277	  6812	  6830	  6834	  8931#
RCMWD	  6278	  6829	  6833	  8943#
RDBLK	  1568	  1716	  1720#	  1735
RDTMP	  4213	  4218	  4229#
RDXPRT	  8049	  8052#	  8056
REMSIT	  3174	  3349#
RENUFD	  1635	  1651#
RESOUT	  3682	  6624#
RET0	  1237	  7591	  8263	  8289	  8315	  8318#	  8362	  8392	  8496	  8515	  8532
RET1	  1028	  6742	  8265	  8291	  8317#	  8364	  8404	  8498	  8516	  8533
RETIT	  1405	  1426	  7653#
REVBIL	   599	  4260#
REVIT	   511#	   517	   518	   519	   520	   524	   525	   526	   540	   564	   565	   566	   576	   578
	   581	   655	   659	  4263
REVLUD	   598	  4289#
RND	  8129	  8130	  8131	  8132	  8143#	  8157
RND1	  8147#	  8156
RND2	  8150	  8156#
ROVBL1	   745	   748	   752#
ROVBLK	   742#	  1015	  1025	  1064	  7509
RPAREN	  6678	  8907#
RUBBIT	  6239	  6273	  6806	  6826	  8924#
RUBWD	  6274	  6825	  8935#
RVADDS	  4268	  4380#
RVADDU	  4274	  4435#
RVAU1	  4442	  4444#
RVCHUN	  4276	  4391#
RVDELS	  4270	  4401#
RVDELT	  4282	  4465#
RVDELU	  4278	  4453#
RVNC1	  4344	  4350#
RVNCST	  4266	  4337#
RVNEWT	  4280	  4456#
RVNEWU	  4272	  4356#
RVNU1	  4365	  4367#
RVNU2	  4370	  4372#
SADUPD	   450	  2018#
SAVB	  2717	  3173	  3377	  3553	  7662#
SAVB1	  2762	  2777	  7664#
SAVBP	  8100	  8107#	  8107	  8112
SAVC	  7751#	  7751	  7760	  7763	  7772
UPDLUD - ACCTG., LUD UPDATER	MACRO 12.5-46.0 17:15 19-SEP-89
UPDLUD.MAC	24-MAY-89 18:55		Symbol cross reference

SAVCH	  7898#	  7898	  7900
SAVEB	  7746#	  7746	  7768
SAVF	   396	   416	   480	   482	   485	   487	   498	   500	   789	   865	   867	   873	   876	  1955
	  1958	  1960	  1986	  1991	  2111	  2151	  2219	  2253	  2259	  2328	  2339	  2359	  2385	  2387
	  2390	  2392	  2423	  2425	  2429	  2449	  2481	  2512	  2518	  2523	  2535	  2551	  2556	  2573
	  2605	  2612	  2630	  2644	  2660	  2690	  2692	  2696	  2698	  2704	  2727	  2732	  2752	  2754
	  2768	  2793	  2797	  2803	  2807	  2838	  2849	  2853	  2865	  2876	  2887	  2913	  2923	  2934
	  2942	  2949	  2963	  2987	  2994	  3012	  3026	  3043	  3074	  3088	  3108	  3124	  3134	  3148
	  3184	  3208	  3222	  3233	  3240	  3244	  3253	  3256	  3261	  3286	  3289	  3292	  3295	  3298
	  3306	  3310	  3319	  3322	  3337	  3345	  3357	  3384	  3391	  3399	  3408	  3409	  3432	  3441
	  3458	  3461	  3473	  3480	  3488	  3524	  3526	  3532	  3534	  3538	  3562	  3575	  3577	  3589
	  3617	  3631	  3633	  3646	  3648	  3653	  3655	  3658	  3660	  3663	  3665	  3697	  3699	  3717
	  3724	  3727	  3755	  3766	  3768	  3807	  3813	  3821	  3843	  3853	  3858	  3874	  3888	  3892
	  3917	  3927	  3933	  3943	  3984	  3988	  4008	  4016	  4018	  4037	  4043	  4046	  4066	  4079
	  4083	  4094	  4100	  4112	  4116	  4118	  4152	  4346	  4349	  4368	  4373	  4406	  4421	  4427
	  4445	  4448	  4469	  4480	  4486	  4523	  4547	  4557	  4559	  4566	  4580	  4595	  4608	  4613
	  4660	  4671	  4691	  4697	  4848	  4861	  4880	  4898	  4910	  4917	  4956	  4980	  5007	  5066
	  5068	  5071	  5073	  5078	  5080	  5107	  5120	  5126	  5131	  5163	  5176	  5182	  5187	  5222
	  5248	  5265	  5270	  5278	  5298	  5301	  5310	  5327	  5336	  5338	  5349	  5405	  5407	  5418
	  5477	  5482	  5512	  5526	  5541	  5543	  5551	  5557	  5587	  5591	  5594	  5598	  5617	  5648
	  5731	  5742	  5786	  5801	  5811	  5823	  5833	  5838	  5870	  5883	  5894	  5903	  5916	  5925
	  5965	  5977	  5986	  5996	  6017	  6073	  6081	  6084	  6101	  6107	  6120	  6136	  6140	  6142
	  6184	  6188	  6197	  6210	  6422	  7584	  7592	  7684	  7687	  7694	  7721	  7803	  7809	  7812
	  7819	  8124#	  8124	  8140	  8167	  8170	  8173	  8176	  8179	  8182	  8185	  8188	  8191	  8194
	  8196	  8199	  8202	  8205	  8208	  8211	  8214	  8217	  8220	  8223	  8245	  8256	  8264	  8282
	  8290	  8308	  8316	  8331	  8337	  8340	  8355	  8363	  8377	  8403	  8420	  8439	  8458	  8473
	  8489	  8497	  8513	  8530
SAVIT	  1377	  1496	  1530	  7642#
SAVLUD	  1505	  1509	  1514	  1539	  1543	  1548	  7645	  7646	  7653	  9109#
SAVORG	   899	   905	   927	  1072	  1074	  1076	  1079	  1081	  1083	  1334	  1336	  1339	  1343	  1345
	  1347	  1350	  1359	  1361	  1364	  1366	  1372	  1374	  1376	  1391	  1400	  1404	  1406	  1429
	  1430	  1433	  1936	  1938	  1942	  2686	  2743	  3521	  3545	  4296	  4300	  4301	  4318	  4321
	  4331	  4333	  4337	  4340	  4356	  4360	  4362	  4380	  4383	  4391	  4401	  4403	  4435	  4438
	  4440	  4457	  4466	  4494	  4500	  4501	  4505	  4506	  4508	  5399	  5522	  7663	  7665	  9063#
SCUPD	   448	  1999#
SDIST	  4028#	  4028	  4034	  6065	  6070
SELHST	   134#	  2712	  3543	  7060
SENDEN	  1580	  1704	  1890	  1930	  2943	  3875	  3944	  4044	  4119	  4544	  5493	  5618	  5839	  5888
	  5895	  6082	  7550#	  8085
SENDOK	   489	  1676	  1696	  1777	  1887	  1900	  2146	  2393	  2430	  2440	  2484	  2915	  2936	  2966
	  3029	  3574	  3634	  3666	  3696	  3772	  3787	  3844	  3922	  4012	  4038	  4113	  4518	  4560
	  4607	  4698	  4918	  5081	  5123	  5179	  5246	  5288	  5329	  5334	  5489	  5558	  5590	  5836
	  5919	  5989	  6020	  6074	  6121	  6178	  7561#
SETAST	  2445	  2453#
SETBUD	  1308	  1319#
SETCU1	  4982	  4989#
SETCU2	  4984	  4996#
SETCUS	   627	  4967#
SETDAY	   626	  4947#
SETDEX	   918	   988#	  1014	  1016	  1105	  1288	  1370	  1398	  1447	  1467	  1489	  1594	  1611	  1628
	  1641	  1844	  6738
SETTY1	  4841	  4851#
SETTYM	   623	  4827#
UPDLUD - ACCTG., LUD UPDATER	MACRO 12.5-46.0 17:15 19-SEP-89
UPDLUD.MAC	24-MAY-89 18:55		Symbol cross reference

SETUP1	   485#	   503
SETUPC	   471	   492#
SETUPL	   446	   469#
SHAKE	   328	   344#
SHIT	  8077	  8099#
SHIT1	  8103#	  8109
SHORTS	   133#	  6496	  6514	  6518	  6522	  6542	  6576	  8076	  8084	  8115
SIT01	  6434	  6437#
SITE	  2743	  3545	  4360	  4383	  4403	  4438	  7663	  9056#
SITES	  3189	  6433	  7447	  7448	  7449	  7774	  7779	  8397	  9040#
SITOUT	  2674	  3057	  3635	  3686	  3725	  4019	  6423	  6429#
SIXNAM	  6725	  6746#	  7320
SIZE	  1812	  1820	  1827	  1828	  1829	  1847	  9100#
SIZLIN	   272#	  6495	  6513	  6517	  6521	  6541	  7068	  7108	  7113	  7116	  7142
SIZNAM	   271#	  6548	  6554	  6674	  6749	  6783
SIZPAG	  9009#	  9010	  9106
SLASH	  6479	  6483	  8908#
SLSOUT	  2404	  3680	  4745	  5090	  6358#
SNDEN2	  6440	  7554#
SNOLOG	  1278	  1327#
SPACE	  7147	  8905#
SPAOUT	  1923	  5877	  5892	  5929	  5998	  8094#
SSYSUP	   454	  2028#
STAOUT	  4794	  6506	  6528#
STATBP	  6528	  7125	  9131#
STCORE	  1280	  8904#
STOUT	  4780	  6500	  6512#
STPTYM	   624	  4869#
STR	  1309	  1871	  7237	  9094#
STR1BP	  6512	  7107	  9128#
STR2BP	  6516	  7112	  9129#
STRARG	  1245	  1254	  8893#
STROUT	  1687	  1761	  1801	  6401#
SUSUPD	   452	  2009#
SYSTEM	   383#	   383	   387
SZCITY	   275#	  6526	  7121
SZCOUN	   278#	  6537	  7136
SZFOCF	   273#	  6349
SZPO	   274#	  6578	  6995
SZSTAT	   276#	  6529	  7126
SZZIP	   277#	  6533	  7131	  7231
TABD	  8048	  9114#
TASYSC	  2214	  2243	  2587	  2600	  2969	  2982	  3281	  3832	  4686	  7575	  8273	  8299	  8339	  8350
	  9163#
TATTN	  2343	  9174#
TCCNUM	  1946	  2586	  2596	  2968	  2978	  3464	  3824	  4678	  5022	  5023	  5044	  5045	  7571	  8295
	  8322	  8346	  8504	  8521	  9152#
TCCOCO	  2954	  5181	  9154#
TCDETC	  2174	  9165#
TCDIST	  2578	  5049	  5167	  9156#
TCFFF	  9164#
TCFIND	  4881	  4904	  4981	  8519#
TCITY	  2349	  9177#
UPDLUD - ACCTG., LUD UPDATER	MACRO 12.5-46.0 17:15 19-SEP-89
UPDLUD.MAC	24-MAY-89 18:55		Symbol cross reference

TCNAM	  2324	  9173#
TCOCIN	  5423	  6916#
TCOUNT	  2357	  9180#
TCSTP	  1950	  2054	  2582	  2958	  3315	  3468	  3481	  3828	  4682	  5027	  5053	  5171	  7579	  8303
	  8326	  9160#
TDAY	  7792#	  7792
TDFPRI	  2372	  9171#
TGAN	  2517	  2550	  2649	  3032	  3095	  3908	  5125	  5231	  5362	  5468	  5502	  6008	  9148#
THREE	  2161	  5015	  5037	  7969	  8029	  8903#
TIMBIT	  6285	  8927#
TIMWD	  6286	  8938#
TINCH	  7903#	  7908	  7933	  7977	  8017
TINIT	  8202#	  8462
TINVCO	  2186	  9166#
TLAN	  3511	  9182#
TMON	  7796#	  7796
TMPCUS	  4656#	  4656	  4662	  4663
TMPDEX	  4187#	  4187	  4190	  4194	  4205	  4215	  4224	  4232
TMPEND	  4196	  4199#	  4206
TMPNAM	  4177#	  4177	  4208
TODAY	  3202	  3248	  3313	  3386	  3403	  3436	  3482	  4418	  4477	  5452	  5487	  5529	  7828#	  7828
TPO	  2277	  9167#
TPOMAX	  2289	  9168#
TPSTOP	  2312	  9170#
TPSTRT	  2300	  9169#
TRFIND	  5939	  5959	  6041	  8462#
TRFND	   852#	  5941
TRHOST	  5991	  7683	  8464	  9185#
TRIADD	   670	  5937#
TRIDEL	   671	  5957#
TRILIS	   672	  5976#
TRINXT	  5992#	  5999
TRIPDB	  5979	  8204	  9027#
TRNFND	   854#	  5960
TRSTP	  5968	  5981	  8468	  9186#
TRUBIT	  6283	  8926#
TRUF	   150#	  1003	  1008	  1469	  1485	  1526	  1785	  1818	  1858	  6402	  6671
TRUPTR	  1006	  1323	  1513	  1547	  8914#
TRUWD	  6284	  8937#
TRYAGN	   352#	   355	   359	   363	   367
TST1	   694#
TST2	  1710#
TST3	  8946#
TST4	  8961#
TSTATE	  2351	  9178#
TSTRT1	  2345	  9175#
TSTRT2	  2347	  9176#
TTYOUT	   127#	   314	   326	   424	   428	   687	   801	   871	   887	   976	  1753	  1792	  1831	  1836
	  2148	  2614	  2618	  2663	  2669	  2920	  2996	  3000	  3046	  3052	  3769	  3784	  4527	  4537
	  4562	  4920	  4925	  4932	  4939	  6220	  6230	  6295	  6302	  6308	  6314	  6330	  6341	  6346
	  6352	  6358	  6363	  6378	  6407	  6413	  6430	  6474	  6478	  6482	  6503	  6507	  6546	  6552
	  6557	  6563	  6568	  6574	  6581	  6587	  6593	  6599	  6607	  6610	  6614	  6619	  6624	  6630
	  6636	  6642	  6653	  6659	  6666	  6677	  6687	  6695	  6711	  6747	  6752	  6767	  6784	  6793
UPDLUD - ACCTG., LUD UPDATER	MACRO 12.5-46.0 17:15 19-SEP-89
UPDLUD.MAC	24-MAY-89 18:55		Symbol cross reference

	  6837	  6869	  6886	  6901	  6916	  6929	  6932	  6937	  6950	  6962	  6968	  6981	  6996	  7020	  7035
	  7049	  7069	  7078	  7084	  7097	  7104	  7118	  7123	  7128	  7133	  7138	  7156	  7168	  7178
	  7190	  7202	  7215	  7238	  7245	  7255	  7278	  7289	  7301	  7309	  7321	  7327	  7350	  7356
	  7362	  7367	  7372	  7382	  7436	  7469	  7551	  7556	  7564	  7597	  7884	  7931	  7948	  7970
	  8030	  8089	  8094	  8114
TUCNUM	  2538	  2648	  2867	  3031	  3263	  3496	  3732	  3879	  4654	  5354	  5634	  5656	  9153#
TUCOCO	  3017	  5111	  9155#
TUCSTP	  2542	  2926	  3883	  4475	  4487	  5451	  5472	  5486	  5506	  5528	  5582	  5638	  5660	  5697
	  5711	  5795	  6012	  8484	  9161#
TUCUST	  8501#	  8501	  8506
TUDIST	  2635	  3099	  4108	  6116	  9157#
TUFIND	  4842	  4852	  4874	  4893	  4951	  4971	  5098	  8501#
TUNAME	  2650	  3033	  4395	  9147#
TURCUS	  4985	  9184#
TUSNUM	   658	  5498#
TUSRDB	  8210	  9028#
TUSSTP	  2089	  2210	  2239	  2476	  3204	  3217	  3277	  3402	  3447	  8277	  9158#
TUSTP	  2072	  2639	  2871	  2905	  3021	  3085	  3103	  3145	  3247	  3267	  3435	  3500	  3736	  3912
	  4089	  4145	  4590	  5115	  5227	  5358	  5859	  8251	  9159#
TUSUUN	  2206	  2235	  2472	  3115	  3213	  3273	  3324	  3443	  3603	  3708	  3746	  3793	  4050	  4140
	  4243	  4408	  4585	  5252	  5269	  5314	  5733	  5772	  5843	  5907	  8269	  8368	  8407	  8426
	  8445	  9150#
TUUUN	  2205	  3081	  3141	  3272	  3707	  4049	  4085	  4141	  4149	  4471	  4586	  4973	  5251	  5693
	  5855	  8247	  8480	  9151#
TVDAYS	  4959	  4976	  9183#
TVGAN	  3130	  3957	  3999	  9149#
TVHOST	  3332	  3801	  3961	  4061	  4135	  4251	  4412	  4571	  5260	  5322	  5776	  5844	  5921	  8389
	  8411	  8430	  8449	  9172#
TVSTP	  3119	  3328	  3353	  3385	  3607	  3712	  3750	  3797	  3965	  4003	  4057	  4131	  4247	  4416
	  4428	  4575	  4876	  4883	  4998	  5017	  5039	  5256	  5318	  5737	  5747	  5780	  5814	  5828
	  5911	  7677	  7716	  8372	  8415	  8434	  8453	  8508	  8525	  9162#
TWO	  2204	  2594	  2820	  2836	  2976	  3113	  3271	  3706	  3744	  4048	  4077	  4584	  4688	  5250
	  5312	  5853	  7967	  8027	  8902#
TWOOUT	  4941	  5876	  5891	  5928	  5997	  6355	  6435	  6559	  6571	  6621	  7557	  8027#
TXL	  2355	  9181#
TYCINI	  4862	  8220#	  8519
TYEAR	  7799#	  7799
TYMAIL	  5578	  5630	  5689	  5791	  9188#
TYMBIT	  6233	  6269	  6797	  6820	  8929#
TYMCUS	  8222	  9032#
TYMREL	     5#	     9
TYMSPC	     4#	     9
TYMSYS	   391#	   391	  7342
TYMUSR	  5013	  5035	  8216	  9030#
TYMWD	  6270	  6819	  8940#
TYNAME	  5593	  9187#
TYUINI	  4855	  8214#	  8502
TZIP	  2353	  9179#
UCSOUT	  3675	  5082	  5560	  6606#
UCUOUT	  3578	  6613#
UFD	  1192	  1202#	  1227	  1229	  1257	  1420	  1663
UFDFIL	  1189	  1190	  1191	  1192	  1207	  1209	  1211	  1213	  1229	  1416	  1418	  1419	  1420	  1657
	  1659	  1660	  1662	  1663	  1666	  8894#
UPDLUD - ACCTG., LUD UPDATER	MACRO 12.5-46.0 17:15 19-SEP-89
UPDLUD.MAC	24-MAY-89 18:55		Symbol cross reference

UFDPPN	  1096	  1152	  1208	  1276	  1661	  8892#
UFIND	   483	  2011	  2687	  2782	  2794	  2854	  3234	  3245	  3433	  3522	  3572	  3644	  4374	  4393
	  4555	  4914	  5069	  5304	  5554	  7337	  8244#
UHSTO	  3866	  6418#
UINFO	  2071	  2073	  2076	  2078	  2079	  2237	  2521	  2524	  2637	  2652	  2661	  2665	  2720	  2724
	  2778	  2784	  2785	  2798	  2824	  2857	  2860	  2869	  2911	  3019	  3035	  3044	  3048	  3072
	  3083	  3090	  3093	  3097	  3101	  3143	  3250	  3265	  3302	  3493	  3498	  3512	  3527	  3649
	  3667	  3673	  3677	  3748	  3855	  3861	  3910	  3923	  3931	  3936	  4087	  4098	  4104	  4106
	  4109	  4157	  4159	  4222	  4225	  4439	  4521	  4526	  4531	  4535	  4561	  4658	  4661	  4680
	  5074	  5113	  5129	  5132	  5202	  5233	  5294	  5302	  5364	  5400	  5409	  5562	  5721	  5722
	  5724	  5729	  5735	  5746	  5748	  5751	  5753	  5755	  5756	  5765	  5766	  5768	  5774	  5778
	  5793	  5809	  5813	  5815	  5846	  5848	  5850	  5868	  5881	  5884	  5890	  5902	  5909	  5923
	  5926	  5938	  5944	  5946	  5948	  5949	  5958	  5963	  5967	  5969	  5993	  5995	  6027	  6029
	  6040	  6099	  6545	  6551	  6606	  6613	  6632	  6638	  6707	  6720	  6745	  6763	  6897	  6911
	  6959	  7009	  7017	  7287	  7339	  7664	  7825	  8262	  8409	  8413	  8428	  8432	  8447	  8466
	  9037#
UINIT	  2723	  2903	  3906	  8173#	  8244
UNAME	  1041	  1043	  1344	  1346	  1358	  1360	  6726	  6727	  6746	  9085#
UNLOK	   144#	  1134	  1197	  1218
UPBAK	  6188#	  6202	  6216
UPDACS	   323	  7606#
USERCM	  1089	  1269	  1356	  1440	  1462	  1481	  1587	  1602	  1621	  1674	  1694	  1743	  1767	  1775
	  1808	  6725#
USERDB	  2200	  2632	  3014	  3076	  3231	  3242	  3430	  3729	  4569	  5109	  5224	  5351	  5826	  8175
	  9021#
USERIN	  1272	  1813	  2684	  3519	  5397	  6694#
USFIND	   478	  2031	  2693	  2750	  2844	  3200	  3529	  3661	  3764	  4369	  4446	  5064	  8267#
USFNDA	  2808	  3393	  3441#
USINFO	  2088	  2090	  2093	  2095	  2096	  2216	  2224	  2226	  2245	  2247	  2250	  2252	  2474	  2554
	  2557	  2722	  2729	  2749	  2815	  2817	  2831	  2841	  2847	  2932	  2937	  3199	  3203	  3205
	  3215	  3397	  3400	  3445	  3556	  3559	  3679	  3890	  3894	  4358	  4363	  4436	  4458	  4467
	  4473	  4484	  4845	  4849	  4954	  4957	  5089	  5398	  5401	  5409	  5410	  5412	  5420	  5422
	  5426	  5428	  5431	  5440	  5445	  5446	  5455	  5456	  5480	  5484	  5521	  5537	  5546	  5552
	  5559	  5564	  5596	  5600	  5605	  5609	  5625	  5632	  5653	  5658	  5672	  5676	  5684	  5691
	  6077	  6089	  6091	  6100	  6105	  6109	  6112	  6114	  6117	  6129	  6150	  6152	  6154	  6163
	  6167	  6373	  6374	  6618	  6708	  6779	  6861	  6864	  6925	  6965	  7013	  7062	  7225	  7265
	  7273	  7827	  8271	  8275	  8288	  8482	  8495	  9038#
USINIT	  2470	  2728	  3211	  3392	  3558	  8167#	  8267
USRLFT	   840#	  3226
USRUPD	   451	   509#	   566	   567	   572	   573	   577	   580
USYSDB	  2201	  2805	  3232	  3243	  3431	  8169	  9022#
USYSUP	   453	   510#	   568	   574
UUNIN	   475	  2010	  2029	  2468	  2741	  3167	  3371	  3570	  3627	  3641	  3761	  3778	  4238	  4553
	  5061	  5439	  5520	  5536	  5671	  5685	  5720	  5764	  5901	  6026	  6126	  6162	  6695#	  7092
	  7332
V1FIND	  3321#	  3349	  4364	  4385	  4441
VALDB	  2633	  3015	  3077	  3730	  4568	  5225	  5352	  8193	  9023#
VFIND	  2658	  2755	  3181	  3629	  3656	  8382#
VFINDA	  3379	  8366#	  8382
VINFO	  2227	  2721	  2734	  2765	  2767	  2769	  3117	  3128	  3131	  3133	  3177	  3334	  3343	  3352
	  3354	  3382	  3557	  3564	  3594	  3605	  3803	  3959	  3963	  3976	  3981	  3983	  4001	  4051
	  4063	  4071	  4160	  4191	  4223	  4253	  4359	  4361	  4381	  4384	  4402	  4404	  4410	  4414
	  4425	  4437	  4573	  4664	  5273	  5283	  5285	  5287	  5324	  5331	  5470	  5504	  6010	  6092
UPDLUD - ACCTG., LUD UPDATER	MACRO 12.5-46.0 17:15 19-SEP-89
UPDLUD.MAC	24-MAY-89 18:55		Symbol cross reference

	  6706	  6721	  7043	  7044	  7058	  7343	  7662	  7826	  8391	  8393	  9039#
VINIT	  2733	  3180	  3321	  3563	  3791	  3955	  3997	  4241	  4405	  8191#	  8366
VPFOUT	  2409	  6329#
WAITF	   136#	   796	  2338	  2360	  6183	  6189	  6196	  6209
WATTLD	  7756	  7759#
WATTLP	  7753#	  7758
WATTYP	  2748	  3178	  3194	  6053	  7029	  7041	  7055	  7738#	  7769
WD	  1575	  1678#	  1678	  1779	  1791	  1793	  1795	  1896	  6222	  6268	  6291	  6296	  6298	  6304
	  6386	  6389	  6818	  8921	  8933	  8934	  8935	  8936	  8937	  8938	  8939	  8940	  8941	  8942
	  8943	  8944
WDPTR	  6388	  8921#
WDS1	  8078	  8084#
WDSOUT	  6395	  6549	  6555	  6676	  6682	  8076#	  8083
WRTMP	  2228	  3596	  4073	  4161	  4190#	  4665	  5275	  6093
WTLOK	  1237#	  1247
WTTYP1	  7749	  7765#
WTTYP2	  7761	  7764	  7766#
WTTYP3	  7754	  7762#
X22AND	  1949	  2209	  2213	  2238	  2242	  2475	  2541	  2581	  2599	  2638	  2870	  2957	  2981	  3020
	  3084	  3098	  3102	  3118	  3144	  3216	  3266	  3276	  3280	  3327	  3331	  3446	  3467	  3499
	  3606	  3711	  3735	  3749	  3796	  3800	  3827	  3831	  3882	  3911	  3960	  3964	  4002	  4056
	  4060	  4088	  4130	  4134	  4144	  4246	  4250	  4411	  4415	  4474	  4574	  4589	  4681	  4685
	  5026	  5048	  5052	  5114	  5170	  5230	  5255	  5259	  5317	  5321	  5357	  5361	  5471	  5505
	  5581	  5633	  5637	  5659	  5692	  5696	  5736	  5775	  5779	  5794	  5858	  5910	  6011	  7574
	  7578	  8250	  8272	  8276	  8298	  8302	  8325	  8349	  8371	  8410	  8414	  8429	  8433	  8448
	  8452	  8467	  8483	  8507	  8524	  9142#
XLBP	  6520	  7115	  9133#
YEAR	  6472	  7399	  7800	  7808#	  7808	  7817
YES	  6318	  6858	  6879	  7475	  8896#
YFIND	  4459	  5402	  5441	  5524	  5539	  5673	  6102	  6143	  6164	  8478#
YINIT	  2536	  2924	  3877	  4468	  5430	  5466	  5500	  5576	  5628	  5687	  5709	  5789	  6006	  6075
	  8208#	  8478
YORN	  6847	  7439	  7452#	  7472	  7600
Z	   117#	  7966	  7967	  7969	  8005	  8007	  8011	  8026	  8027	  8029	  8034	  8040	  8099	  8108
	  8116	  8118
ZEREND	   437	  9110#
ZERO	   404	  8900#
ZEROIT	  7496	  7517#
ZEROUT	  8047	  8061#	  8067
ZERST	   435	   436	  9084#
ZIPBP	  6532	  7130	  7230	  9132#
ZIPOUT	  4821	  6509	  6532#
ZNERR	   836#	  6700	  6715	  7314
ZONE	  1613#	  1613	  6845	  6851	  6854	  6862	  8920
ZONEBP	  1614	  8917#
ZONES	  6385	  7842#
ZONOUT	  6370	  6375	  6378#
UPDLUD - ACCTG., LUD UPDATER	MACRO 12.5-46.0 17:15 19-SEP-89
UPDLUD.MAC	24-MAY-89 18:55		Macro/Opdef cross reference

DATE	  7789
EXIT	   341	   420	   688
FINDIT	  8226#
GETTAB	  1215	  1259	  7608
HIBER	   429
INITIT	  8161#	  8167	  8173	  8179	  8185	  8191	  8196	  8202	  8208	  8214	  8220
MAKASC	  7874#	  7877
MAKSIX	  7839#	  7842	  7860
OUTCHR	  6303	  6479	  6483	  6669	  6678
OUTSTR	   425	  1754	  1798	  1832	  1837	  2149	  2615	  2619	  2664	  2670	  2997	  3001	  3047	  3053
	  4528	  4538	  4563	  4921	  4926	  4940	  6221	  6234	  6237	  6240	  6243	  6246	  6249	  6250
	  6309	  6334	  6337	  6342	  6347	  6353	  6359	  6364	  6384	  6390	  6396	  6408	  6414	  6431
	  6504	  6508	  6547	  6553	  6558	  6564	  6569	  6575	  6582	  6588	  6594	  6600	  6608	  6611
	  6615	  6620	  6631	  6637	  6643	  6654	  6660	  6668	  6688	  6696	  6712	  6748	  6755	  6756
	  6768	  6785	  6795	  6798	  6801	  6804	  6807	  6810	  6813	  6840	  6841	  6846	  6872	  6873
	  6889	  6890	  6904	  6905	  6919	  6920	  6930	  6940	  6941	  6953	  6954	  6971	  6972	  6984
	  6985	  6999	  7000	  7021	  7036	  7050	  7072	  7073	  7079	  7085	  7099	  7101	  7102	  7105
	  7119	  7124	  7129	  7134	  7139	  7159	  7160	  7171	  7172	  7181	  7182	  7193	  7194	  7205
	  7206	  7218	  7219	  7241	  7242	  7248	  7249	  7258	  7259	  7281	  7282	  7290	  7302	  7310
	  7322	  7351	  7357	  7363	  7368	  7376	  7386	  7438	  7464	  7620	  7625	  7894	  7906	  7926
	  8090	  8095
PJOB	  3587
RESET	   317
RUN	   340
SETJAL	  1219	  1262
SETMOD	   345
SLEEP	   712	   729	   799	  1239	  2124
STRUUO	  1246	  1255P	U